:100000000C945D000C9485000C9485000C94850084
:100010000C9485000C9485000C9485000C9485004C
:100020000C9485000C9485000C9485000C9485003C
:100030000C9485000C9485000C9485000C9485002C
:100040000C944F040C941F060C94BF040C94990458
:100050000C9485000C9485000C9485000C9485000C
:100060000C94F1040C94850000000000240027008B
:100070002A0000000000250028002B0004040404CE
:100080000404040402020202020203030303030342
:10009000010204081020408001020408102001021F
:1000A00004081020000000080002010000030407FB
:1000B00000000000000000005B0611241FBECFEF0F
:1000C000D8E0DEBFCDBF11E0A0E0B1E0EEE0F6E1A8
:1000D00002C005900D92A834B107D9F722E0A8E438
:1000E000B1E001C01D92AE3BB207E1F710E0CDE5F3
:1000F000D0E004C02197FE010E94FA0ACC35D10756
:10010000C9F70E9494060C94050B0C940000282F4C
:1001100030911402313208F04AC08091F00181110F
:10012000FCCF9091130242E04093F0012093EF0145
:100130002FEF2093EE011092ED013093EC01E3EFED
:10014000F1E0ACECB1E020E0321721F041914D93A9
:100150002F5FFACF1092CB012091CB01990F922BF8
:100160009093CB019091CA01913061F41092CA0131
:100170009091CB019093BB009091BC0093FDF8CF80
:1001800095EC01C095EE9093BC009091F0019230F7
:10019000E1F39091EE019F3F79F08091EE01803282
:1001A00041F08091EE01803331F084E005C081E0C0
:1001B00003C082E001C083E01092F20110921402A9
:1001C0001092F101089590E0FC01EC55FF4F24914D
:1001D000FC01E057FF4F3491FC01E458FF4FE491DC
:1001E000EE23B1F1222339F1233091F038F421309C
:1001F000A9F0223001F584B58F7D12C0273091F02F
:100200002830A1F02430B9F4809180008F7D03C0A4
:10021000809180008F77809380000DC084B58F77A8
:1002200084BD09C08091B0008F7703C08091B00079
:100230008F7D8093B000F0E0EE0FFF1FEE58FF4F70
:10024000A591B4918FB7F894EC91E32BEC938FBF09
:1002500008953FB7F8948091C6019091C701A0918D
:10026000C801B091C90126B5A89B05C02F3F19F060
:100270000196A11DB11D3FBFBA2FA92F982F882726
:10028000820F911DA11DB11DBC01CD0142E0660F81
:10029000771F881F991F4A95D1F7089508950895EB
:1002A000CF92DF92EF92FF920F931F93CF93DF9342
:1002B0006C017A018B01C0E0D0E0CE15DF0581F042
:1002C000D8016D918D01D601ED91FC910190F081E5
:1002D000E02DC6010995892B11F02196EECF7E0104
:1002E000C701DF91CF911F910F91FF90EF90DF90A9
:1002F000CF900895FC01538D448D252F30E0842F3D
:1003000090E0821B930B541710F0CF96089501973D
:100310000895FC01918D828D981761F0828DDF0127
:10032000A80FB11D5D968C91928D9F5F9F73928FE8
:1003300090E008958FEF9FEF0895FC01918D828DDD
:10034000981731F0828DE80FF11D858D90E00895AA
:100350008FEF9FEF0895FC01918D228D892F90E002
:10036000805C9F4F821B91098F739927089585E1C7
:1003700092E00E94AB0121E0892B09F420E0822F5A
:100380000895FC01848DDF01A80FB11DA35ABF4F52
:100390002C91848D90E001968F739927848FA68984
:1003A000B7892C93A089B1898C91837080648C93D8
:1003B000938D848D981306C00288F389E02D808187
:1003C0008F7D80830895EF92FF920F931F93CF93B9
:1003D000DF93EC0181E0888F9B8D8C8D981305C095
:1003E000E889F989808185FD26C0F62E0B8D10E005
:1003F0000F5F1F4F0F731127E02E8C8DE8120CC07A
:100400000FB607FCFACFE889F989808185FFF5CF1F
:10041000CE010E94C101F1CF8B8DFE01E80FF11DCD
:10042000E35AFF4FF0829FB7F8940B8FEA89FB895C
:10043000808180620AC09FB7F894EE89FF8960834B
:10044000E889F98980818370806480839FBF81E01F
:1004500090E0DF91CF911F910F91FF90EF90089561
:10046000CF93DF93EC01888D8823C9F0EA89FB895B
:10047000808185FD05C0A889B9898C9186FD0FC052
:100480000FB607FCF5CF808185FFF2CFA889B98927
:100490008C9185FFEDCFCE010E94C101E7CFDF91A6
:1004A000CF91089580E090E0892B29F00E94B70158
:1004B00081110C940000089585ED8093BC0080911B
:1004C000BC0084FDFCCF1092F001089540917201B0
:1004D000262F30E0240F311D21323105DCF420912C
:1004E000F0012430C9F4FC0180E090E0861758F454
:1004F000309172012191DC01AE5ABE4FA30FB11DA4
:100500002C930196F3CF80917201680F6093720172
:1005100080E0089581E0089582E008950895E091D3
:100520009A0180919901E81730F4F0E0E556FE4F0A
:10053000808190E008958FEF9FEF089590919A0148
:1005400080919901981750F4E92FF0E0E556FE4F9D
:10055000208130E09F5F90939A0102C02FEF3FEF20
:10056000C90108958091990190E020919A01821B20
:1005700091090895CF92DF92EF92FF920F931F930C
:10058000CF93DF937C01CB018A012091F1012223DB
:1005900089F0EB016B01C40ED51ECC15DD0569F0A9
:1005A0006991D701ED91FC910190F081E02DC70197
:1005B0000995F3CF642F0E946602C801DF91CF91A5
:1005C0001F910F91FF90EF90DF90CF900895CF9300
:1005D000DF931F92CDB7DEB769832091F10122230B
:1005E000D1F020911402203240F021E030E0FC01F3
:1005F0003383228380E090E015C08091F201E82FE0
:10060000F0E0ED50FE4F998190838F5F8093F2016F
:100610008093140205C061E0CE0101960E9466023B
:1006200081E090E00F90DF91CF910895089580E0F0
:1006300090E00895009769F0FC0101900020E9F72F
:100640003197AF01481B590BBC0185E192E00C9436
:10065000500180E090E008952F923F924F925F9278
:100660006F927F928F929F92AF92BF92CF92DF92C2
:10067000EF92FF920F931F93CF93DF93CDB7DEB727
:10068000A4970FB6F894DEBF0FBECDBF4B015C013F
:10069000F42E9B01AC010E94D30A882319F084E256
:1006A00091E027C024013501E89477F82FEF3FEF60
:1006B0004FE75FE7C301B2010E94D30A81110DC069
:1006C0002FEF3FEF4FE75FE7C301B2010E94090937
:1006D00018161CF488E291E00CC02FEF3FEF4FE7B3
:1006E0005FE4C501B4010E94610A18162CF48CE283
:1006F00091E00E941A03B8C02FEF3FEF4FE75FEC85
:10070000C501B4010E94090987FDF1CF20E030E066
:10071000A901C501B4010E94090987FF0BC06DE260
:1007200085E192E00E94E3013C01B7FAB094B7F88A
:10073000B09402C0612C712C10E060E070E080E0A9
:100740009FE3F11641F020E030E040E251E40E94E6
:100750000E091F5FF6CFA50194010E949D084B0171
:100760005C010E9480096AA3C72ED82EE92E19A227
:10077000262F372F482F592F8E010F5D1F4F0BA3A8
:100780001CA39AE0292E312C412C512CCA01B9010D
:10079000A20191010E94D80A605DF80162938F0165
:1007A000211531054105510589F7CF010E941A0332
:1007B0008301080F191FFF2009F455C06AA17C2D81
:1007C0008D2D9E2D0E94AF099B01AC01C501B40186
:1007D0000E949C084B015C016EE285E192E00E9460
:1007E000E301080F191F8AE0282E312C412C512CCF
:1007F00020E030E040E251E4C501B4010E94660A05
:100800004B015C010E9480099B0140E050E019A26D
:10081000CBA0DCA0762E3AA3642EE52ECA01B90146
:10082000A20191010E94D80A605DF60162936F01F6
:10083000211531054105510589F7CF010E941A03A1
:10084000080F191F672D7AA1862D9E2D0E94AF09D2
:100850009B01AC01C501B4010E949C084B015C01E5
:10086000FA94F110C5CFC801A4960FB6F894DEBF74
:100870000FBECDBFDF91CF911F910F91FF90EF90F1
:10088000DF90CF90BF90AF909F908F907F906F90B0
:100890005F904F903F902F9008950E94000B1F9201
:1008A0000F920FB60F9211242F933F938F939F9324
:1008B000AF93BF938091C2019091C301A091C401F5
:1008C000B091C5013091C10123E0230F2D3720F4F1
:1008D0000196A11DB11D05C026E8230F0296A11D9A
:1008E000B11D2093C1018093C2019093C301A093D5
:1008F000C401B093C5018091C6019091C701A09138
:10090000C801B091C9010196A11DB11D8093C60116
:100910009093C701A093C801B093C901BF91AF9153
:100920009F918F913F912F910F900FBE0F901F902D
:1009300018951F920F920FB60F9211242F933F9389
:100940004F935F936F937F938F939F93AF93BF93D7
:10095000EF93FF9385E192E00E94C101FF91EF9137
:10096000BF91AF919F918F917F916F915F914F91C7
:100970003F912F910F900FBE0F901F9018951F92CF
:100980000F920FB60F9211242F938F939F93EF9393
:10099000FF93E0912502F09126028081E0912B02E5
:1009A000F0912C0282FD12C0908180912E028F5F07
:1009B0008F7320912F02821751F0E0912E02F0E008
:1009C000EB5EFD4F958F80932E0201C08081FF91D9
:1009D000EF919F918F912F910F900FBE0F901F90CD
:1009E00018951F920F920FB60F9211242F933F93D9
:1009F0004F935F936F937F938F939F93AF93BF9327
:100A0000EF93FF938091B900887F803609F49CC0F2
:100A100068F5883209F45BC090F4803109F454C061
:100A200038F4882309F4F6C0883009F44DC0F6C0C4
:100A3000883109F44CC0803209F45DC0EFC08034C5
:100A400009F468C048F4803309F455C0883309F0CC
:100A5000E5C08093EE01D8C0803509F44FC08835D9
:100A600009F45DC0883409F0D9C0D6C0883909F4CA
:100A7000C7C0A8F4883709F467C038F4883609F489
:100A800063C0803709F460C0C9C0883809F4B8C0B1
:100A9000803909F45FC0803809F0C0C05BC0803B7A
:100AA00009F486C038F4803A09F466C0883A09F43B
:100AB0007FC0B4C0803C09F4A7C0883C09F4A4C03E
:100AC000883B09F48AC0AAC08091CB0110C09091E4
:100AD000ED018091EC01981770F5E091ED0181E056
:100AE0008E0F8093ED01F0E0E453FE4F8081809300
:100AF000BB0085EC86C08093EE018EC0E091ED01D5
:100B000081E08E0F8093ED018091BB00F0E0E45313
:100B1000FE4F80839091ED018091EC016EC0E091D9
:100B2000ED0181E08E0F8093ED018091BB00F0E03C
:100B3000E453FE4F80838091EF0181116DC081E00D
:100B40008093CA0184EA61C083E08093F00110922F
:100B50009401CFCF80919401803208F051C0E09190
:100B6000940181E08E0F809394018091BB00F0E0AE
:100B7000EC58FE4F8083BDCF85EC8093BC00109273
:100B8000F00180919401803230F4E0919401F0E022
:100B9000EC58FE4F10826091940170E0E091950155
:100BA000F091960184E791E009951092940136C086
:100BB00084E08093F0011092730110927201E09131
:100BC0009701F0919801099580917201811105C0FA
:100BD00081E08093720110925201E091730181E0F3
:100BE0008E0F80937301F0E0EE5AFE4F8081809368
:100BF000BB009091730180917201981708F479CF2E
:100C000085E88093BC000AC085EC8093BC001092FC
:100C1000F00104C01092EE010E945C02FF91EF917E
:100C2000BF91AF919F918F917F916F915F914F9104
:100C30003F912F910F900FBE0F901F9018951F920C
:100C40000F920FB60F9211242F933F938F939F9380
:100C5000EF93FF93809151018823C9F080914F0158
:100C6000909150019C012F5F3F4F30935001209392
:100C70004F01FC01E75BFE4F80812630310579F49E
:100C8000109251011092500110924F0108C08091B2
:100C90004801811103C081E0809351018FEF8EBD27
:100CA000FF91EF919F918F913F912F910F900FBEE8
:100CB0000F901F901895E5E1F2E01382128288EE02
:100CC00093E0A0E0B0E084839583A683B78324E01B
:100CD00031E03183208325EC30E03587248724EC14
:100CE00030E03787268720EC30E0318B208B21ECF9
:100CF00030E0338B228B22EC30E0358B248B26ECDA
:100D000030E0378B268B118E128E138E148EE2EB11
:100D1000F2E01382128284839583A683B78386E1EF
:100D200091E0918380830895CF93DF9300D000D02A
:100D3000CDB7DEB7789484B5826084BD84B5816018
:100D400084BD85B5826085BD85B5816085BD809196
:100D50006E00816080936E0010928100809181000E
:100D60008260809381008091810081608093810006
:100D7000809180008160809380008091B1008460C8
:100D80008093B1008091B00081608093B000809129
:100D90007A00846080937A0080917A0082608093E8
:100DA0007A0080917A00816080937A0080917A0045
:100DB000806880937A001092C100ECE9F0E0249101
:100DC000E8E8F0E08491882399F090E0880F991F7B
:100DD000FC01E859FF4FA591B491FC01EE58FF4F7B
:100DE000859194918FB7F894EC91E22BEC938FBF9F
:100DF000F89480EC8CBD789410929A01109299012D
:100E00001092F201109214021092F00121E020934E
:100E1000EF011092CA0182E10E94E30083E10E9487
:100E2000E3008091B9008E7F8093B9008091B90072
:100E30008D7F8093B90088E48093B80085E4809327
:100E4000BC008EE491E090939801809397018FE429
:100E500091E0909396018093950131E03093F101F8
:100E600088E6809313021092F201109214026BE64E
:100E700082EB92E00E94E70260E082EB92E00E9447
:100E8000E70281E00E948700E0912502F0912602AE
:100E900082E08083E0912102F09122021082E091B1
:100EA0002302F09124028FEC808310922D02E091B6
:100EB0002902F0912A0286E08083E0912702F091D6
:100EC0002802808180618083E0912702F0912802CE
:100ED000808188608083E0912702F09128028081E0
:100EE00080688083E0912702F091280280818F7DC5
:100EF00080837724739495EC692E7092F10188E6D3
:100F0000809313021092F201109214026BE382EBB1
:100F100092E00E94E70280E00E9487008091F00149
:100F20008111FCCF7092F0017092EF019FEF9093CE
:100F3000EE011092ED012DE02093EC017092CB01B7
:100F40008091CB01806D8093CB018091CA0181306B
:100F500069F41092CA018091CB018093BB0080910B
:100F6000BC0083FDF8CF6092BC0003C035EE309327
:100F7000BC008091F0018130E1F38091ED018E3071
:100F800018F49091ED0101C09EE0ECECF1E0ABE9CA
:100F9000B1E080E0891721F021912D938F5FFACF86
:100FA00010929A018093990182EB92E00E949E0236
:100FB0008B8382EB92E00E949E022B812A8319820E
:100FC000E980FA80E82AF92AF092C001E092BF0194
:100FD00082EB92E00E949E028B8382EB92E00E9461
:100FE0009E02BB80A12C8501082B192B1093BE01FA
:100FF0000093BD0182EB92E00E949E028B8382EB04
:1010000092E00E949E029B80812C882999299C83D2
:101010008B839093BC018093BB0182EB92E00E9492
:101020009E0282EB92E00E949E0282EB92E00E947E
:101030009E0282EB92E00E949E0282EB92E00E946E
:101040009E0282EB92E00E949E0282EB92E00E945E
:101050009E0282EB92E00E949E0280E391E00E9459
:101060001A03B701FF0C880B990B0E94B10920E10C
:1010700038E044EA53E40E949C082BE73EEF43E843
:1010800056E40E940E0942E00E942C0386E391E0A0
:101090000E941A03B801110F880B990B0E94B10925
:1010A00025EF37E043E856E40E940E0942E00E9433
:1010B0002C038DE391E00E941A032B813C81B9013E
:1010C000330F880B990B0E94B10990582DE83DE829
:1010D00041E956E40E940E0942E00E942C0384E498
:1010E00091E00E941A030E9429016B017C018AE0B1
:1010F000282E312C412C512C0E942901DC01CB01DE
:101100008C199D09AE09BF09883E9340A105B10520
:1011100098F331E0231A31084108510888EEC80ECF
:1011200083E0D81EE11CF11C211431044104510458
:1011300019F70E945202E1CE5058BB27AA270E94FD
:10114000B4080C94270A0E94190A38F00E94200A59
:1011500020F039F49F3F19F426F40C94160A0EF48B
:10116000E095E7FB0C94100AE92F0E94380A58F327
:10117000BA17620773078407950720F079F4A6F57C
:101180000C945A0A0EF4E0950B2EBA2FA02D0B01E9
:10119000B90190010C01CA01A0011124FF27591BBC
:1011A00099F0593F50F4503E68F11A16F040A22FC2
:1011B000232F342F4427585FF3CF46953795279533
:1011C000A795F0405395C9F77EF41F16BA0B620B32
:1011D000730B840BBAF09150A1F0FF0FBB1F661F79
:1011E000771F881FC2F70EC0BA0F621F731F841FBC
:1011F00048F4879577956795B795F7959E3F08F0E2
:10120000B0CF9395880F08F09927EE0F97958795A3
:1012100008950E94EC0908F481E008950E942209D3
:101220000C94270A0E94200A58F00E94190A40F0E4
:1012300029F45F3F29F00C94100A51110C945B0AB9
:101240000C94160A0E94380A68F39923B1F35523C7
:1012500091F3951B550BBB27AA27621773078407C9
:1012600038F09F5F5F4F220F331F441FAA1FA9F35F
:1012700035D00E2E3AF0E0E832D091505040E6954D
:10128000001CCAF72BD0FE2F29D0660F771F881FAE
:10129000BB1F261737074807AB07B0E809F0BB0BA1
:1012A000802DBF01FF2793585F4F3AF09E3F5105B5
:1012B00078F00C94100A0C945B0A5F3FE4F3983EBC
:1012C000D4F3869577956795B795F7959F5FC9F79E
:1012D000880F911D9695879597F90895E1E0660F1F
:1012E000771F881FBB1F621773078407BA0720F098
:1012F000621B730B840BBA0BEE1F88F7E095089501
:101300000E94400A88F09F5798F0B92F9927B7514B
:10131000B0F0E1F0660F771F881F991F1AF0BA9599
:10132000C9F714C0B13091F00E945A0AB1E0089593
:101330000C945A0A672F782F8827B85F39F0B93F85
:10134000CCF3869577956795B395D9F73EF490954C
:101350008095709561957F4F8F4F9F4F0895E894CA
:1013600009C097FB3EF490958095709561957F4FED
:101370008F4F9F4F9923A9F0F92F96E9BB2793959B
:10138000F695879577956795B795F111F8CFFAF4AB
:10139000BB0F11F460FF1BC06F5F7F4F8F4F9F4FDC
:1013A00016C0882311F096E911C0772321F09EE83A
:1013B000872F762F05C0662371F096E8862F70E0A0
:1013C00060E02AF09A95660F771F881FDAF7880F7A
:1013D0009695879597F90895990F0008550FAA0BD0
:1013E000E0E8FEEF16161706E807F907C0F0121638
:1013F0001306E407F50798F0621B730B840B950B3B
:1014000039F40A2661F0232B242B252B21F408958F
:101410000A2609F4A140A6958FEF811D811D08952C
:1014200097F99F6780E870E060E008959FEF80EC97
:10143000089500240A94161617061806090608953A
:1014400000240A9412161306140605060895092EA0
:101450000394000C11F4882352F0BB0F40F4BF2B0F
:1014600011F460FF04C06F5F7F4F8F4F9F4F08954F
:1014700057FD9058440F551F59F05F3F71F0479545
:10148000880F97FB991F61F09F3F79F0879508952A
:10149000121613061406551FF2CF4695F1DF08C049
:1014A000161617061806991FF1CF86957105610566
:1014B00008940895E894BB2766277727CB0197F90E
:1014C00008950E94EC0908F48FEF08950E94790AAC
:1014D0000C94270A0E94190A38F00E94200A20F072
:1014E000952311F00C94100A0C94160A11240C94F4
:1014F0005B0A0E94380A70F3959FC1F3950F50E084
:10150000551F629FF001729FBB27F00DB11D639FB5
:10151000AA27F00DB11DAA1F649F6627B00DA11D5B
:10152000661F829F2227B00DA11D621F739FB00D01
:10153000A11D621F839FA00D611D221F749F332771
:10154000A00D611D231F849F600D211D822F762F0A
:101550006A2F11249F5750409AF0F1F088234AF0E7
:10156000EE0FFF1FBB1F661F771F881F9150504053
:10157000A9F79E3F510580F00C94100A0C945B0A69
:101580005F3FE4F3983ED4F3869577956795B795DA
:10159000F795E7959F5FC1F7FE2B880F911D9695F4
:1015A000879597F908950E94EC09880B990B089587
:1015B000A1E21A2EAA1BBB1BFD010DC0AA1FBB1F57
:1015C000EE1FFF1FA217B307E407F50720F0A21BC9
:1015D000B30BE40BF50B661F771F881F991F1A9436
:1015E00069F760957095809590959B01AC01BD0160
:1015F000CF010895EE0FFF1F0590F491E02D09949F
:0E16000081E090E0F8940C94050BF894FFCF75
:10160E0000000000E30150017A013002AB018901B4
:10161E009D0100000000E702BA0217038E02B2021B
:10162E009E028F026E616E00696E66006F766600B6
:10163E004163583A0900094163593A090009416367
:08164E005A3A09000D0A0000E0
:00000001FF
