:100000000C94B2000C94DA000C94DA000C94DA0030
:100010000C94DA000C94DA000C94DA000C94DA00F8
:100020000C94DA000C94DA000C94DA000C94580565
:100030000C94DA000C94DA000C94DA000C94DA00D8
:100040000C94EA0D0C94D1070C9406030C94E00276
:100050000C94DA000C94DA000C94DA000C94DA00B8
:100060000C9438030C94DA004F085C086508770894
:100070008C088C088C088C088308800886088C08FB
:100080008C088C0831086A087708036EDB363D9AC5
:100090009999993DABAAAA2A3E000000803F084AE0
:1000A000D73B3BCE016E84BCBFFDC12F3D6C74318C
:1000B0009ABD56833DDA3D00C77F11BED9E4BB4CE3
:1000C0003E916BAAAABE000000803F072C7AA5BA19
:1000D0006CC590DA3B9365FC8BBC53F810FD3C5625
:1000E00092834DBD879D3AB63DCBC9BF5BBE73DAE7
:1000F0000FC93F05A84CCDB2D44EB93836A9020C71
:1001000050B9918688083CA6AAAA2ABE00000080A1
:100110003F00000000080002010000030407000087
:1001200000000000000000000000250028002B0057
:1001300000000000240027002A0004040404040432
:100140000404020202020202030303030303010286
:100150000408102040800102040810200102040855
:100160001020311A11241FBECFEFD8E0DEBFCDBF63
:1001700011E0A0E0B1E0E4EFF2E402C005900D92DE
:10018000AC33B107D9F724E0ACE3B1E001C01D9274
:10019000A63BB207E1F710E0C2EBD0E004C0219724
:1001A000FE010E946A20C13BD107C9F70E94340EAC
:1001B0000C9478210C940000CF92DF92EF92FF9282
:1001C0000F931F93CF93DF936C017A018B01C0E0F3
:1001D000D0E0CE15DF0581F0D8016D918D01D601FB
:1001E000ED91FC910190F081E02DC6010995892BDC
:1001F00011F02196EECF7E01C701DF91CF911F91C3
:100200000F91FF90EF90DF90CF900895FC01538DF8
:10021000448D252F30E0842F90E0821B930B5417E0
:1002200010F0CF96089501970895FC01918D828D6D
:10023000981761F0828DDF01A80FB11D5D968C913A
:10024000928D9F5F9F73928F90E008958FEF9FEF45
:100250000895FC01918D828D981731F0828DE80F01
:10026000F11D858D90E008958FEF9FEF0895FC01BB
:10027000918D228D892F90E0805C9F4F821B910988
:100280008F739927089580E392E00E94370121E05F
:10029000892B09F420E0822F0895FC01848DDF0171
:1002A000A80FB11DA35ABF4F2C91848D90E00196E9
:1002B0008F739927848FA689B7892C93A089B189D8
:1002C0008C91837080648C93938D848D981306C079
:1002D0000288F389E02D80818F7D80830895EF92DD
:1002E000FF920F931F93CF93DF93EC0181E0888FF0
:1002F0009B8D8C8D981305C0E889F989808185FDD7
:1003000026C0F62E0B8D10E00F5F1F4F0F731127C5
:10031000E02E8C8DE8120CC00FB607FCFACFE889EE
:10032000F989808185FFF5CFCE010E944D01F1CF83
:100330008B8DFE01E80FF11DE35AFF4FF0829FB74E
:10034000F8940B8FEA89FB89808180620AC09FB78D
:10035000F894EE89FF896083E889F9898081837048
:10036000806480839FBF81E090E0DF91CF911F91F7
:100370000F91FF90EF900895CF93DF93EC01888D5C
:100380008823C9F0EA89FB89808185FD05C0A88999
:10039000B9898C9186FD0FC00FB607FCF5CF80811F
:1003A00085FFF2CFA889B9898C9185FFEDCFCE0169
:1003B0000E944D01E7CFDF91CF91089580E090E05A
:1003C000892B29F00E94430181110C9400000895AB
:1003D00085ED8093BC008091BC0084FDFCCF109221
:1003E0000A02089540917C01262F30E0240F311D30
:1003F00021323105DCF420910A022430C9F4FC01D9
:1004000080E090E0861758F430917C012191DC0166
:10041000A45ABE4FA30FB11D2C930196F3CF809128
:100420007C01680F60937C0180E0089581E008956D
:1004300082E00895089508950895E091A0018091C3
:100440009F01E81730F4F0E0EC53FE4F808190E01C
:1004500008958FEF9FEF08959091A00180919F01E3
:10046000981750F4E92FF0E0EC53FE4F208130E074
:100470009F5F9093A00102C02FEF3FEFC901089545
:1004800080919F0190E02091A001821B9109089525
:10049000CF92DF92EF92FF920F931F93CF93DF9350
:1004A0007C01CB018A012091A101222389F0EB017B
:1004B0006B01C40ED51ECC15DD0569F06991D7011D
:1004C000ED91FC910190F081E02DC7010995F3CFEA
:1004D000642F0E94F201C801DF91CF911F910F910B
:1004E000FF90EF90DF90CF900895CF93DF931F920E
:1004F000CDB7DEB769832091A1012223D1F02091ED
:10050000C301203240F021E030E0FC01338322833C
:1005100080E090E015C08091A201E82FF0E0ED5559
:10052000FE4F998190838F5F8093A2018093C301D6
:1005300005C061E0CE0101960E94F20181E090E0E9
:100540000F90DF91CF910895089580E090E0089595
:10055000FC0190819C3088F5818128E830E0281BDF
:10056000310987FD3395220F331F220F331F621786
:10057000730784F0828148E552E0481B510987FDEA
:100580005395440F551F440F551F9B01461757079E
:100590000CF49A0122503109220F331F4FB7F894FF
:1005A000892F90E0FC01EE0FFF1F8E0F9F1FFC01B3
:1005B000E55FFD4F328321834FBF08950E94732171
:1005C0001F920F920FB60F9211242F933F934F93C8
:1005D0005F936F937F938F939F93AF93BF93EF93AB
:1005E000FF9380E392E00E944D01FF91EF91BF9154
:1005F000AF919F918F917F916F915F914F913F91BB
:100600002F910F900FBE0F901F9018951F920F9271
:100610000FB60F9211242F938F939F93EF93FF9315
:10062000E0914002F09141028081E0914602F09118
:10063000470282FD12C09081809149028F5F8F73C3
:1006400020914A02821751F0E0914902F0E0E05D0A
:10065000FD4F958F8093490201C08081FF91EF91FA
:100660009F918F912F910F900FBE0F901F90189513
:100670001F920F920FB60F9211242F933F934F9317
:100680005F936F937F938F939F93AF93BF93EF93FA
:10069000FF938091B900887F803609F49CC068F58B
:1006A000883209F45BC090F4803109F454C038F406
:1006B000882309F4F6C0883009F44DC0F6C08831AB
:1006C00009F44CC0803209F45DC0EFC0803409F4F5
:1006D00068C048F4803309F455C0883309F0E5C098
:1006E00080930802D8C0803509F44FC0883509F4DA
:1006F0005DC0883409F0D9C0D6C0883909F4C7C0B4
:10070000A8F4883709F467C038F4883609F463C060
:10071000803709F460C0C9C0883809F4B8C080398E
:1007200009F45FC0803809F0C0C05BC0803B09F4A9
:1007300086C038F4803A09F466C0883A09F47FC06C
:10074000B4C0803C09F4A7C0883C09F4A4C0883B2D
:1007500009F48AC0AAC08091050210C090910702D6
:1007600080910602981770F5E091070281E08E0FE4
:1007700080930702F0E0EC51FE4F80818093BB0034
:1007800085EC86C0809308028EC0E091070281E06C
:100790008E0F809307028091BB00F0E0EC51FE4F7A
:1007A000808390910702809106026EC0E09107025B
:1007B00081E08E0F809307028091BB00F0E0EC5146
:1007C000FE4F80838091090281116DC081E080938A
:1007D000040284EA61C083E080930A0210929E01C1
:1007E000CFCF80919E01803208F051C0E0919E01F0
:1007F00081E08E0F80939E018091BB00F0E0E25873
:10080000FE4F8083BDCF85EC8093BC0010920A021E
:1008100080919E01803230F4E0919E01F0E0E25838
:10082000FE4F108260919E0170E0E0913C01F091DA
:100830003D018EE791E0099510929E0136C084E05B
:1008400080930A0210927D0110927C01E0913E019A
:10085000F0913F01099580917C01811105C081E0F3
:1008600080937C0110925C01E0917D0181E08E0F0C
:1008700080937D01F0E0E45AFE4F80818093BB00BD
:1008800090917D0180917C01981708F479CF85E8DB
:100890008093BC000AC085EC8093BC0010920A02D1
:1008A00004C0109208020E94E801FF91EF91BF91ED
:1008B000AF919F918F917F916F915F914F913F91F8
:1008C0002F910F900FBE0F901F901895FC018485FB
:1008D0009585892B01F52FB7F8948091AD049091FF
:1008E000AE04A091AF04B091B0042FBF44815581F4
:1008F00066817781841B950BA60BB70B40815181D4
:100900006281738184179507A607B70720F081E0FD
:1009100090E0958784870895FC012FB7F894809123
:10092000AD049091AE04A091AF04B091B0042FBF7C
:1009300084839583A683B7831586148612861386CF
:1009400008954F925F926F927F928F929F92AF9293
:10095000BF92CF92DF92EF92FF920F931F93CF93AC
:10096000DF9300D000D000D0CDB7DEB79E838D835B
:100970006A017B01C901B801A70196010E94751C9B
:100980006B017C01ED81FE812081318142815381A7
:100990000E947A1F2B013C01ED81FE8184849584A5
:1009A000A684B7842489358946895789C701B60149
:1009B0000E94751CA50194010E94791DED81FE81A4
:1009C00020853185428553850E947A1F69837A8309
:1009D0008B839C83A5019401C701B6010E947A1FF5
:1009E000ED81FE81208D318D428D538D0E94761CCC
:1009F000ED81FE81608F718F828F938F248135818D
:100A0000468157810E947A1F4B015C0129813A81FE
:100A10004B815C81C301B2010E94761C9B01AC0139
:100A2000C501B4010E94761C4B015C01ED81FE8181
:100A3000C48AD58AE68AF78AC088D188E288F38892
:100A400020E030E0A901C701B6010E946D1F181611
:100A5000B4F4A7019601B401C5010E946D1F1816D8
:100A600064F0F7FAF094F7F8F094A7019601B40156
:100A7000C5010E946F1D87FF02C046015701B401E6
:100A8000C50126960FB6F894DEBF0FBECDBFDF912D
:100A9000CF911F910F91FF90EF90DF90CF90BF907B
:100AA000AF909F908F907F906F905F904F90089540
:100AB0001F920F920FB60F9211242F933F934F93D3
:100AC0005F936F937F938F939F93AF93BF93EF93B6
:100AD000FF9380915B0187FF05C010928500109203
:100AE00084001BC020915B01022E000C330B80910F
:100AF0002F0290E02817390784F480915B01082EBB
:100B0000000C990BFC01EE0FFF1F8E0F9F1FFC01C5
:100B1000E55FFD4F808186FD15C080915B018F5F91
:100B200080935B0120915B01022E000C330B8091BE
:100B30002F0290E028173907C4F480915B018C30B4
:100B400064F113C080915B01082E000C990BFC012D
:100B5000EE0FFF1F8E0F9F1FFC01E55FFD4F808191
:100B600060E08F730E943E0DD8CF809184009091F9
:100B70008500049680349C4918F480E49CE905C003
:100B800080918400909185000496909389008093D1
:100B900088008FEF80935B013BC0209184003091EF
:100BA000850080915B01082E000C990BFC01EE0F73
:100BB000FF1F8E0F9F1FFC01E55FFD4F818192811A
:100BC000820F931F909389008093880080915B012E
:100BD000082E000C990BFC01EE0FFF1F8E0F9F1FBC
:100BE000FC01E55FFD4F808186FF12C080915B01B3
:100BF000082E000C990BFC01EE0FFF1F8E0F9F1F9C
:100C0000FC01E55FFD4F808161E08F730E943E0D26
:100C1000FF91EF91BF91AF919F918F917F916F91D4
:100C20005F914F913F912F910F900FBE0F901F90AA
:100C30001895FF920F931F93CF93DF93EC016D876D
:100C40007E878C010A5F1F4F8E818C3008F050C068
:100C5000F62E862F0E94D8098E81E82FF0E09F01A2
:100C6000220F331FE20FF31FE55FFD4F6F2D6F73F0
:100C70009081907CF92EF62AF0821F8218866CE013
:100C80000E945E209CE0899FB001112440E050E06A
:100C90009B01240F351FF901EE0FFF1F2E0F3F1F81
:100CA000F901E55FFD4F908196FD16C04F5F5F4FE4
:100CB0004C30510569F781110FC01092800082E01D
:100CC000809381001092850010928400B19A8091E7
:100CD0006F00826080936F00EE81F0E0CF01880F9B
:100CE000991FE80FF91FE55FFD4F808180648083C5
:100CF0006CED75E0C801DF91CF911F910F91FF90CE
:100D00000C94A802FF920F931F93CF93DF93EC01F3
:100D1000F42E4D895E89461757072CF48F859889E4
:100D20009B838A8320C0EB89FC8909891A896E1705
:100D30007F071CF41B830A8316C09B012E1B3F0BED
:100D4000AF85B889A01BB10B0E9470209A012E1BA1
:100D50003F0B032E000C440B550B0E941A1C200F56
:100D6000311F3B832A832A813B8189859A85820FA3
:100D7000931F9B838A83FF2009F456C02881398101
:100D80008D3D45E0940744F04C815D81420F531F37
:100D9000841795076CF429C08C3D65E0960741F0F7
:100DA0004C815D81B901641B750B68177907ECF004
:100DB0002C3D75E0370744F48D3D45E094079CF4E5
:100DC00028173907ECF411C02C3D65E0360781F097
:100DD0008C3D75E097073CF08217930734F08D3D0A
:100DE00045E094072CF48CED95E09983888311C03D
:100DF000281739072CF48C819D81280F391F07C0D3
:100E00008217930734F48C819D81281B390B398319
:100E1000288368817981CE010696DF91CF911F9159
:100E20000F91FF900C94A802DF91CF911F910F9129
:100E3000FF9008950F931F93CF93DF93EC014D899B
:100E40005E89461757072CF4898D9A8D9A87898772
:100E500020C0EB89FC890F89188D6E177F071CF461
:100E60001A87098716C09B012E1B3F0BA98DBA8DCF
:100E7000A01BB10B0E9470209A012E1B3F0B032E6A
:100E8000000C440B550B0E941A1C200F311F3A878F
:100E90002987DF91CF911F910F910895FC01128650
:100EA00011862CED35E033832283318320836CED72
:100EB00075E006960C94A8026536710514F064E698
:100EC00070E077FF02C060E070E0660F771F660F8A
:100ED000771F2CED35E0261B370BFC01328B218B65
:100EE00064527A4F708B678708958F929F92AF926A
:100EF000BF92EF92FF920F931F93CF93DF93EC017A
:100F00007B018B01000F111F000F111F0C0F1D1F04
:100F1000F80166857785808991890E94EB1D4B01D8
:100F20005C01CE01835A9F4F0E945C07B401CE0141
:100F30008E5B9F4F0E945C07B401CE018D569F4F80
:100F40000E945C07B401CE0188589F4F0E945C0745
:100F5000F801628D738D848D958D0E94EB1D4B0180
:100F60005C01CE0182559F4F0E945C07B401CE0107
:100F700087539F4F0E945C07B401CE018C519F4F55
:100F80000E945C07C459DE4FF982E882DF91CF915D
:100F90001F910F91FF90EF90BF90AF909F908F9017
:100FA00008951F920F920FB60F921124CF92DF92E5
:100FB000EF92FF920F931F932F933F934F935F9363
:100FC0006F937F938F939F93AF93BF93CF93DF9351
:100FD000EF93FF938EB580935A0180915901882336
:100FE00049F08FEF8EBD1092590110925801109266
:100FF000570118C0E0915701F0915801E05CFE4F95
:1010000080818EBD80915701909158018430910567
:1010100021F481E08093590105C001969093580115
:1010200080935701E0915A01E11104C081E080935F
:10103000560157C1EF3F21F481E08093550151C122
:1010400080915601882309F46AC08E2F90E0FC013C
:101050003497E131F10508F05FC0EC5CFF4F0C9470
:101060006A2080914A04882379F010920E0310922E
:101070000D031092100310920F031092120310929E
:10108000110310924A0448C080915504882309F442
:1010900043C081E080934A04809313033DC08DECEC
:1010A0009CECACE4BFE380934F0490935004A09376
:1010B0005104B093520430C010924F041092500467
:1010C000109251041092520427C08AE999E9A9E1CB
:1010D000BFE304C080E090E0A0E8BFE380934B044E
:1010E00090934C04A0934D04B0934E0415C01092FD
:1010F0004B0410924C0410924D0410924E040CC0FC
:1011000062E070E005C061E070E002C060E070E0A5
:1011100087EE92E00E94750710925601DEC0809122
:101120005501882309F4DDC0C0915301D0915401C9
:10113000C130D10509F449C0C230D10509F485C0D8
:10114000209709F0C1C0F0E08F010F571109B801D5
:10115000012E000C880B990B0E94231E6B017C0151
:1011600060912103709122038091230390912403C5
:10117000A70196010E946D1F18164CF4609121037F
:1011800070912203809123039091240316C06091F3
:101190002503709126038091270390912803A701CE
:1011A00096010E946F1D87FF0BC06091250370910F
:1011B000260380912703909128030E94EB1D8B0149
:1011C00010930E0300930D037FC0F0E08F010F57C3
:1011D0001109B801012E000C880B990B0E94231EE7
:1011E0006B017C0120912103309122034091230364
:1011F000509124030E946F1D87FF09C06091210355
:1012000070912203809123039091240316C02091B2
:101210002503309126034091270350912803C701ED
:10122000B6010E946D1F18165CF460912503709141
:10123000260380912703909128030E94EB1D8B01C8
:101240001093100300930F033FC0F0E08F010F577E
:101250001109B801012E000C880B990B0E94231E66
:101260006B017C01209121033091220340912303E3
:10127000509124030E946F1D87FF09C060912103D4
:1012800070912203809123039091240316C0209132
:101290002503309126034091270350912803C7016D
:1012A000B6010E946D1F18165CF4609125037091C1
:1012B000260380912703909128030E94EB1D8B0148
:1012C00010931203009311032196D0935401C093FD
:1012D0005301239734F0109255011092540110924B
:1012E0005301FF91EF91DF91CF91BF91AF919F910A
:1012F0008F917F916F915F914F913F912F911F91AE
:101300000F91FF90EF90DF90CF900F900FBE0F9056
:101310001F901895CF93DF93EC0180912F028C30B2
:1013200098F491E0980F90932F028E8390E0FC0147
:10133000EE0FFF1F8E0F9F1FFC01E55FFD4F88EB37
:101340009BE09283818302C08FEF8E837C8B6B8BBB
:101350005E8B4D8BC9012333310514F082E390E09D
:1013600097FF02C080E090E0880F991F880F991FB7
:1013700022273327281B390B388F2F8B9A8F898F81
:101380001A86198660E070E0CE010E945C0784E056
:1013900090E09D838C838CED95E0998388839B837B
:1013A0008A838FEF9FEF9E878D87DF91CF9108957E
:1013B00090E0FC01E25BFE4F2491FC01E65CFE4FF5
:1013C0008491882399F090E0880F991FFC01E05DDB
:1013D000FE4FA591B491FC01EA5DFE4F8591949179
:1013E0008FB7F894EC91E22BEC938FBF0895909116
:1013F0000A029111FCCF91E090930A0240930902F6
:101400002FEF2093080210920702260F2093060266
:101410009093050290910502880F892B8093050215
:1014200080910402813061F41092040280910502DF
:101430008093BB008091BC0083FDF8CF85EC01C098
:1014400085EE8093BC0080910A028130E1F38091A7
:101450000702861710F460910702A4EEB1E0E4ECF5
:10146000F1E080E0861721F09D9191938F5FFACF94
:101470000895282F3091C301313208F04AC080917D
:101480000A028111FCCF9091AC0442E040930A0221
:10149000209309022FEF2093080210920702309345
:1014A0000602E3EAF1E0A4EEB1E020E0321721F019
:1014B00041914D932F5FFACF1092050220910502C2
:1014C000990F922B9093050290910402913061F450
:1014D00010920402909105029093BB009091BC0081
:1014E00093FDF8CF95EC01C095EE9093BC009091E0
:1014F0000A029230E1F3909108029F3F79F08091C7
:101500000802803241F080910802803331F084E09B
:1015100005C081E003C082E001C083E01092A20117
:101520001092C3011092A101089591E09093A1013E
:101530008093AC041092A2011092C30108958132ED
:1015400008F080E241E0682F86E70E94F7091092D8
:10155000A00180939F01089581E00C94390A682FBF
:101560008DEC92E00C9475024F925F926F927F9295
:101570008F929F92AF92BF92CF92DF92EF92FF92A3
:10158000CF93DF93CDB7DEB7A4970FB6F894DEBF45
:101590000FBECDBFC090A304D090A404E090A504DA
:1015A000F090A6048091930490919404A0919504E6
:1015B000B0919604BC01CD019058A70196010E94FC
:1015C0007A1F2B013C018091970490919804A0917F
:1015D0009904B0919A04BC01CD019058A7019601DD
:1015E0000E947A1F4B015C0120919B0430919C0466
:1015F00040919D0450919E04C701B6010E947A1F3C
:101600006B017C01C301B2010E94741D6D837E8356
:101610008F839887C501B4010E94741D69877A87FA
:101620008B879C87C701B6010E94741D6D877E87DA
:101630008F87988B80917F0490918004A091810482
:10164000B0918204898B9A8BAB8BBC8BBC01CD0192
:101650000E94741D6D8B7E8B8F8B988F80917B0485
:1016600090917C04A0917D04B0917E04898F9A8F23
:10167000AB8FBC8FBC01CD010E94741D69837A833E
:101680008B839C83C301B2010E94E71F6D8F7E8F05
:101690008F8F98A3C501B4010E94E71F69A37AA3A5
:1016A0008BA39CA3C701B6010E94E71F2B013C013D
:1016B00069897A898B899C890E94E71F698B7A8B5B
:1016C0008B8B9C8B698D7A8D8B8D9C8D0E94E71FF7
:1016D0006B017C0129813A814B815C816D857E851E
:1016E0008F8598890E947A1F29893A894B895C895C
:1016F0000E947A1F4B015C01A7019601C301B20150
:101700000E947A1F9B01AC01C501B4010E94761CA6
:101710004B015C01A70196016D857E858F859889B7
:101720000E947A1F6B017C01A301920169817A8179
:101730008B819C810E947A1F29893A894B895C8917
:101740000E947A1F9B01AC01C701B6010E94751C63
:101750006D877E878F87988B9B01AC0169A17AA1E9
:101760008BA19CA10E947A1F6B017C0129813A8187
:101770004B815C8169857A858B859C850E947A1F67
:101780002D893E894F89588D0E947A1F9B01AC019B
:10179000C701B6010E94751C2B013C016D8D7E8D29
:1017A0008F8D98A19058A50194010E947A1F6B011A
:1017B0007C01A30192016D817E818F8198850E94B9
:1017C0007A1F9B01AC01C701B6010E94751C6B0119
:1017D0007C01A50194016D817E818F8198850E9495
:1017E0007A1F4B015C01A30192016D8D7E8D8F8D5F
:1017F00098A10E947A1F9B01AC01C501B4010E940F
:10180000751C4B015C01A70196010E94101D6D83A0
:101810007E838F83988760937F0470938004809386
:10182000810490938204A5019401C501B4010E9432
:101830007A1F4B015C01A7019601C701B6010E9406
:101840007A1F9B01AC01C501B4010E94761C6B019B
:101850007C0120E030E0A9010E946D1F181624F0E1
:10186000F7FAF094F7F8F094C701B6010E94F51F5B
:101870006B017C0129813A814B815C816D897E8974
:101880008F89988D0E947A1F29A13AA14BA15CA152
:101890000E947A1F4B015C012D853E854F8558893A
:1018A00069857A858B859C850E947A1F9B01AC0196
:1018B000C501B4010E94761CA70196010E94101D6B
:1018C00069877A878B879C8760937B0470937C04FD
:1018D00080937D0490937E04809187049091880486
:1018E000A0918904B0918A0489839A83AB83BC83D5
:1018F00040908B0450908C0460908D0470908E0406
:1019000080908F0490909004A0909104B0909204E5
:101910009C01AD01BC01CD010E947A1F6B017C01CD
:10192000A3019201C301B2010E947A1F9B01AC0185
:10193000C701B6010E94761C6B017C01A5019401D0
:10194000C501B4010E947A1F9B01AC01C701B60119
:101950000E94761C6B017C0120E030E0A9010E940E
:101960006D1F181624F0F7FAF094F7F8F094C701F9
:10197000B6010E94F51F6B017C0126E636E646E6BD
:101980005FE30E946D1F18160CF063C02DEC3CEC59
:101990004CE85FE3C701B6010E946F1D87FF59C085
:1019A000A5019401C301B2010E94101D2B013C014D
:1019B00069817A818B819C819058A70196010E9450
:1019C000791D0E94E21C6B017C012DEC3CEC4CE487
:1019D0005FE36D817E818F8198850E947A1F4B0124
:1019E0005C012DEC3CEC4CE45EE3C301B2010E94CF
:1019F0007A1F9B01AC01C501B4010E94761C609363
:101A00007F047093800480938104909382042DEC72
:101A10003CEC4CE45FE369857A858B859C850E946C
:101A20007A1F4B015C012DEC3CEC4CE45EE3C701FA
:101A3000B6010E947A1F9B01AC01C501B4010E944E
:101A4000761C60937B0470937C0480937D04909358
:101A50007E04A4960FB6F894DEBF0FBECDBFDF9113
:101A6000CF91FF90EF90DF90CF90BF90AF909F907D
:101A70008F907F906F905F904F90089590E0FC0161
:101A8000EE5EFE4F2491FC01E25BFE4F3491FC01BF
:101A9000E65CFE4FE491EE2309F43CC0222339F1C9
:101AA000233091F038F42130A9F0223001F584B5CB
:101AB0008F7D12C0273091F02830A1F02430B9F486
:101AC000809180008F7D03C0809180008F7780930C
:101AD00080000DC084B58F7784BD09C08091B000AF
:101AE0008F7703C08091B0008F7D8093B000F0E0CD
:101AF000EE0FFF1FEA5DFE4FA591B4919FB7F894DA
:101B0000611104C08C913095382302C0EC913E2BBA
:101B10003C939FBF08958F929F92AF92BF92CF92B6
:101B2000DF92EF92FF926B017C010E94C50D4B0189
:101B30005C01C114D104E104F104F1F00E94C50D6F
:101B4000DC01CB0188199909AA09BB09883E934099
:101B5000A105B10570F321E0C21AD108E108F1082E
:101B600088EE880E83E0981EA11CB11CC114D1041C
:101B7000E104F10419F7DDCFFF90EF90DF90CF90F3
:101B8000BF90AF909F908F9008953FB7F894809149
:101B9000B2049091B304A091B404B091B50426B5F9
:101BA000A89B05C02F3F19F00196A11DB11D3FBF95
:101BB000BA2FA92F982F8827820F911DA11DB11D23
:101BC000BC01CD0142E0660F771F881F991F4A951F
:101BD000D1F708951F920F920FB60F9211242F93F1
:101BE0003F938F939F93AF93BF938091AD04909158
:101BF000AE04A091AF04B091B0043091B10423E0E1
:101C0000230F2D3720F40196A11DB11D05C026E834
:101C1000230F0296A11DB11D2093B1048093AD0442
:101C20009093AE04A093AF04B093B0048091B2043B
:101C30009091B304A091B404B091B5040196A11D94
:101C4000B11D8093B2049093B304A093B404B093F5
:101C5000B504BF91AF919F918F913F912F910F90BC
:101C60000FBE0F901F901895CF93DF93CDB7DEB7BF
:101C7000EE970FB6F894DEBF0FBECDBF789484B553
:101C8000826084BD84B5816084BD85B5826085BD78
:101C900085B5816085BD80916E00816080936E0006
:101CA00010928100809181008260809381008091F8
:101CB00081008160809381008091800081608093A9
:101CC00080008091B10084608093B1008091B00069
:101CD00081608093B00080917A00846080937A0064
:101CE00080917A00826080937A0080917A0081608E
:101CF00080937A0080917A00806880937A001092B5
:101D0000C100E0914002F091410282E08083E091C5
:101D10003C02F0913D021082E0913E02F0913F02C0
:101D20008FEC808310924802E0914402F0914502CA
:101D300086E08083E0914202F091430280818061DD
:101D40008083E0914202F091430280818860808329
:101D5000E0914202F0914302808180688083E091AB
:101D60004202F091430280818F7D80831092A00116
:101D700010929F011092A2011092C30110920A02C8
:101D8000EE24E394E09209021092040261E082E101
:101D90000E943E0D61E083E10E943E0D8091B900FA
:101DA0008E7F8093B9008091B9008D7F8093B900B8
:101DB00088E48093B80085E48093BC008AE192E0D7
:101DC00090933F0180933E018BE192E090933D011F
:101DD00080933C0188E60E94950A8BE690E00E9481
:101DE000AF0A80E090E00E94AF0A81E00E94390AC9
:101DF00064E670E080E090E00E948B0DE092760453
:101E000080E090E4A9E7B4E48093770490937804A9
:101E1000A0937904B0937A0486E70E94950A8EE134
:101E200090E00E94AF0A0E94AC0A6AE070E080E095
:101E300090E00E948B0D56E5E52E54E0F52E20EA49
:101E400030E03A83298386E70E94950A89819A8146
:101E50000E94AF0A0E94AC0A41E062E086E70E945D
:101E6000F7091092A00180939F018DEC92E00E94EF
:101E70002C02D82E8DEC92E00E942C021D2D00E049
:101E8000802B912BD7018D939D937D01E981FA8160
:101E90003296FA83E983EE3AF105A9F68091560469
:101EA000909157049F70909357048093560410921A
:101EB00065041092640464E670E080E090E00E94A3
:101EC0008B0D68E070E085E993E00E94190667E0F9
:101ED00070E080EB93E00E94190664E070E08BEC08
:101EE00093E00E94190665E070E084E493E00E94AC
:101EF000190666E070E089E293E00E94190663E04B
:101F000070E08AE793E00E94190662E070E08FE5D6
:101F100093E00E94190610920E0310920D03109286
:101F2000100310920F0310921203109211031092DB
:101F30004A041092130360E070E087EE92E00E9482
:101F4000750781E08093550468EE73E080E090E0CF
:101F50000E948B0DF8948CE00E94D8098CB58064A7
:101F60008CBD8FEF8EBD8CB580688CBD78948CE075
:101F700090E0A0E0B0E08093D9029093DA02A093C1
:101F8000DB02B093DC0289ED92E00E948C0489EDC3
:101F900092E00E9466048091E5029091E60201972A
:101FA00011F00C945D1989ED92E00E948C04F1E42B
:101FB000F0937C0080917A00806480937A00809115
:101FC0007A0086FDFCCF609178008091790070E006
:101FD000782B072E000C880B990B0E94231E2AEAEF
:101FE00031EF42E050E40E94791D6CA37DA38EA3E3
:101FF0009FA360934B0170934C0180934D0190938C
:102000004E010E94C50D0091470110914801209199
:10201000490130914A01DC01CB01801B910BA20BDD
:10202000B30B81329E44A105B10560F00E94C50D3D
:1020300060934701709348018093490190934A014E
:1020400021E001C020E08091450190914601892B5B
:1020500091F4222381F086E70E94950A8AE490E0B9
:102060000E94AF0A0E94AC0A21E030E030934601A2
:102070002093450120E08091450190914601019710
:1020800009F068C0222309F465C086E70E94950A1A
:1020900080E090E00E94AF0A0E94AC0A83E090E0EA
:1020A0000E949F0A109266041092670410926804BE
:1020B000109269048DEC92E00E942C026C01990F41
:1020C000EE08FF08C0926604D0926704E0926804AC
:1020D000F09269048DEC92E00E942C02FE2CED2C13
:1020E000DC2CCC24092E000CAA0BBB0BC82AD92A45
:1020F000EA2AFB2AC0926604D0926704E092680440
:10210000F09269048DEC92E00E942C02FE2CED2CE2
:10211000DC2CCC24092E000CAA0BBB0B8C299D298E
:10212000AE29BF298093660490936704A093680446
:10213000B093690486E70E94950A8AE590E00E94C0
:10214000AF0A0E94AC0A42E050E05093460140932F
:10215000450120E08091450190914601029709F0E8
:1021600099C4222309F496C486E70E94950A80E068
:1021700090E00E94AF0A0E94AC0A83E090E00E94C7
:102180009F0A10926A0410926B0410926C041092D1
:102190006D048DEC92E00E942C026C01990FEE0808
:1021A000FF08C0926A04D0926B04E0926C04F09233
:1021B0006D048DEC92E00E942C02FE2CED2CDC2CA8
:1021C000CC24092E000CAA0BBB0BC82AD92AEA2A58
:1021D000FB2AC0926A04D0926B04E0926C04F092E5
:1021E0006D048DEC92E00E942C02FE2CED2CDC2C78
:1021F000CC24092E000CAA0BBB0BC82AD92AEA2A28
:10220000FB2AC0926A04D0926B04E0926C04F092B4
:102210006D042091600430916104C901A0E0B0E038
:10222000BA2FA92F982F882716012701281A390AB3
:102230004A0A5B0A509176045BA3E0915C04F0913A
:102240005D04E0905804F0905904FA82E98200910C
:1022500066041091670420916804309169040F8F1F
:1022600018A329A33AA3513009F08CC0970140E08C
:1022700050E060E070E080E090E000E10E94122118
:10228000298339873A014B01898B9D87BF0180E003
:1022900090E0A20191010E94D820F22E032F142F6A
:1022A000B52FF62FE72FD82EE92EA0E00E94672148
:1022B0005CF4AFE70E945221F22E032F142FB52FAA
:1022C000F62FE72FD82EE92E2F2D302F412F5B2F01
:1022D0006F2F7E2F8D2D9E2D07E00E942B215901FF
:1022E0006A017B018C0129813985A301B4018989A7
:1022F0009D850E9449212D8B3E8B4F8B588F698F76
:102300007A8F8B8F9C8FE0915E04F0915F04209117
:102310005A0430915B0440E050E060E070E080E0FF
:1023200090E001E10E941221298339873A014B0193
:10233000898B9D87BF0180E090E0A20191010E94FE
:10234000D820F22E032F142FB52FF62FE72FD82EDB
:10235000E92EA0E00E9467215CF4AFE30E945221C5
:10236000F22E032F142FB52FF62FE72FD82EE92E9C
:102370002F2D302F412F5B2F6F2F7E2F8D2D9E2DD8
:1023800006E092C0BF0180E090E0A20191010E94AE
:10239000D820F22E032F142FB52FF62FE72FD82E8B
:1023A000E92EA0E00E94672184F421503F4F4F4F57
:1023B0005F4F6F4F7F4F8F4F9F4FF22E032F142F82
:1023C000B52FF62FE72FD82EE92E2F2D302F412FA6
:1023D0005B2F6F2F7E2F8D2D9E2D08E00E942B21CD
:1023E00039014A01B62FA72FF82FE92F29813A8109
:1023F000C12CD12CA60160E070E080E090E00FE0FD
:102400000E94122159016A017B018C019301A401F0
:102410006B2F7A2F8F2F9E2F0E9449212D8B3E8B61
:102420004F8B588F698F7A8F8B8F9C8FE0915E04D2
:10243000F0915F0420915A0430915B0440E050E039
:1024400060E070E080E090E000E10E9412212983CA
:1024500039873A014B01898B9D87BF0180E090E06D
:10246000A20191010E94D820F22E032F142FB52F24
:10247000F62FE72FD82EE92EA0E00E9467215CF40A
:10248000AFE70E945221F22E032F142FB52FF62F03
:10249000E72FD82EE92E2F2D302F412F5B2F6F2FB6
:1024A0007E2F8D2D9E2D07E00E942B2159016A0160
:1024B0007B018C0129813985A301B40189899D851E
:1024C0000E9449212EAB3EAF498B5A8B6B8B7C8B84
:1024D0008D8F9E8FEF8CF8A009A11AA1A8019701FA
:1024E00060E070E0CB0129833A834B835C836D838A
:1024F0007E838F83988792018101330F000B102F09
:10250000980109831A832B833C8360916204709144
:10251000630480E090E0A20191010E94D820F22E95
:10252000032F142FB52FF62FE72FD82EE92EA0E07A
:102530000E94672184F42150310940485F4F6F4F5A
:102540007F4F8F4F9F4FF22E032F142FB52FF62F53
:10255000E72FD82EE92E2F2D302F412F5B2F6F2FF5
:102560007E2F8D2D9E2D07E10E942B2149015A01BE
:10257000A50194012053384F4F4F5F4F29873A8769
:102580004B875C873BA1313009F07AC049855A8579
:102590006B857C85403D5740610571050CF030C16D
:1025A000C201B1012BE030E040E050E00E94D820B1
:1025B00051016201E980FE2C0E2D1E2D0E947F200C
:1025C000F22E032F142FB52FF62FE72FD82EE92E3A
:1025D000A0E00E94672184F421503109410951098A
:1025E000684F7F4F8F4F9F4FF22E032F142FB52F21
:1025F000F62FE72FD82EE92E2F2D302F412F5B2FCE
:102600006F2F7E2F8D2D9E2D03E20E942B2129837B
:102610003A834B835C83AFE1B0E089849A84AB84D6
:10262000BC8490ED891A97E0990AA108B108A50128
:1026300094010E94391C9B01AC01C501B4010E94A8
:102640004E207B018C01F3E015950795F794E794F4
:10265000FA95D1F7AFE3B0E0A50194010E94391CCF
:102660009B01AC01C501B4010E944E202B013C012D
:10267000A5E07594679457944794AA95D1F7CAC07A
:1026800009851A852B853C85003D174021053105BC
:102690000CF0A2C0C201B10123E030E040E050E004
:1026A0000E94D82051016201E980FE2C0E2D1E2DC2
:1026B0000E947F20F22E032F142FB52FF62FE72F25
:1026C000D82EE92EA0E00E94672184F42150310920
:1026D000410951096E4F7F4F8F4F9F4FF22E032FAD
:1026E000142FB52FF62FE72FD82EE92E2F2D302FB0
:1026F000412F5B2F6F2F7E2F8D2D9E2D01E20E948B
:102700002B2129833A834B835C83A3E0B0E0898447
:102710009A84AB84BC8450ED851A57E0950AA108D1
:10272000B108A50194010E94391C9B01AC01C501AF
:10273000B4010E944E207B018C0115950795F794FA
:10274000E794A5E0B0E0A50194010E94391C9B012B
:10275000AC01C501B4010E944E202B013C01E3E015
:102760007594679457944794EA95D1F769857A856B
:102770008B859C85613CA9EF7A07AFEF8A079A07A2
:102780000CF048C0A7E0B0E04B015C01ECED8E0E10
:10279000E5E09E1EA11CB11CA50194010E94391CFC
:1027A0009B01AC01C501B4010E944E20E60EF71E4C
:1027B000081F191FA501940162E0220F331F441F57
:1027C000551F6A95D1F7C501B4010E944E20460EEF
:1027D000571E681E791E1EC0A5019401C501B401D3
:1027E0000E944E207B018C0124E015950795F794FB
:1027F000E7942A95D1F719821A821B821C8207C09E
:1028000019821A821B821C82E12CF12C8701412C37
:10281000512C3201A8019701550F220B322FA9012B
:102820002D873E874F87588B2EA93EAD49895A89FF
:102830006B897C898D8D9E8D57016801ED84FE2CFE
:102840000E2D1E2D0E945E214901498B5A8B362E7A
:10285000272E8B8B9C8BB301A201770F440B542F37
:10286000BA014D875E876F87788B2D893E894F89A6
:10287000588D698D7A8D8B8D9C8D52016301ED840D
:10288000FE2C0E2D1E2D0E945E2159016A017B0136
:102890008C0189859A85AB85BC8529813A814B81DC
:1028A0005C81821B930BA40BB50B80936E049093F9
:1028B0006F04A0937004B09371043BA1313009F010
:1028C0006FC06F8D78A189A19AA1AB01BC0180E096
:1028D00090E0DC0149835A836B837C838D839E83E4
:1028E000AF83B8879A01AB0160E070E080E090E0D0
:1028F0000E947F20F22E032F142FB52FF62FE72FE3
:10290000D82EE92EA0E00E94672184F421503109DD
:10291000404E5F4F6F4F7F4F8F4F9F4FF22E032FD1
:10292000142FB52FF62FE72FD82EE92E2F2D302F6D
:10293000412F5B2F6F2F7E2F8D2D9E2D05E10E9445
:102940002B215401C988DA88E32CF22C0B891C89CD
:102950000E945E21122F39874983B52FF62FE72F6A
:10296000F82E092FA0E00E94672184F421503048FE
:102970004F4F5F4F6F4F7F4F8F4F9F4F122F3987B2
:102980004983B52FF62FE72FF82E092F212F3985F0
:1029900049815B2F6F2F7E2F8F2D902F0FE06CC002
:1029A0004F8D58A169A17AA19A01AB0160E070E056
:1029B000CB0129833A834B835C836D837E838F8332
:1029C000988760E070E080E090E00E947F20F22E27
:1029D000032F142FB52FF62FE72FD82EE92EA0E0C6
:1029E0000E94672184F421503109404E5F4F6F4FA0
:1029F0007F4F8F4F9F4FF22E032F142FB52FF62F9F
:102A0000E72FD82EE92E2F2D302F412F5B2F6F2F40
:102A10007E2F8D2D9E2D05E10E942B215401C9880A
:102A2000DA88E32CF22C0B891C890E945E21122F7C
:102A300039874983B52FF62FE72FF82E092FA0E00D
:102A40000E94672184F42150304E4F4F5F4F6F4FEB
:102A50007F4F8F4F9F4F122F39874983B52FF62F06
:102A6000E72FF82E092F212F398549815B2F6F2FF2
:102A70007E2F8F2D902F0DE00E942B21209372042A
:102A8000309373044093740450937504109246017C
:102A90001092450180917604813079F4609172043E
:102AA0007091730480917404909175040E94231EA8
:102AB00020E030E048EC52E40EC060917204709166
:102AC000730480917404909175040E94231E20E089
:102AD00030E040E251E40E94791D60934F01709311
:102AE0005001809351019093520188E60E94950A0B
:102AF0008BE390E00E94AF0A80E00E94390A41E037
:102B00006EE088E60E94F7091092A00180939F0171
:102B10008DEC92E00E942C0289838DEC92E00E9461
:102B20002C02E980E9A618A608A519A5802B912BEF
:102B3000BC01990F880B990B0E94231E6093870498
:102B4000709388048093890490938A048DEC92E0BA
:102B50000E942C0289838DEC92E00E942C02198144
:102B60001BA71AA62AA53BA5822B932BBC01990F64
:102B7000880B990B0E94231E60938B0470938C0426
:102B800080938D0490938E048DEC92E00E942C0231
:102B900089838DEC92E00E942C02E980EDA61CA6B0
:102BA0000CA51DA5802B912BBC01990F880B990BAF
:102BB0000E94231E60938F0470939004809391046D
:102BC000909392048DEC92E00E942C0289838DEC0C
:102BD00092E00E942C0219811FA71EA62EA53FA5D8
:102BE000822B932BBC01990F880B990B0E94231EFB
:102BF0006093830470938404809385049093860487
:102C00008DEC92E00E942C0289838DEC92E00E9470
:102C10002C02E980E9AA18AA08A919A9802B912BEE
:102C2000BC01990F880B990B0E94231E609393049B
:102C30007093940480939504909396048DEC92E0A5
:102C40000E942C0289838DEC92E00E942C02198153
:102C50001BAB1AAA2AA93BA9822B932BBC01990F63
:102C6000880B990B0E94231E60939704709398041D
:102C70008093990490939A048DEC92E00E942C0228
:102C8000182F8DEC92E00E942C029A83898320E019
:102C900030E04AEA53E460918304709184048091A7
:102CA0008504909186040E94791D28EB3EE142E163
:102CB00052E40E94761C6093830470938404809392
:102CC00085049093860423E333EF48EA53E460914C
:102CD0008704709188048091890490918A040E94ED
:102CE000751C90582AE13CEA42E856E40E94791D9E
:102CF00060938704709388048093890490938A0476
:102D000022EB3DE84FEC53E460918B0470918C040E
:102D100080918D0490918E040E94751C90582DE92D
:102D200034EF4CE756E40E94791D60938B04709356
:102D30008C0480938D0490938E0429EC3EE84FEC34
:102D400054E460918F04709190048091910490916B
:102D500092040E94751C24E137EC45E856E40E9479
:102D6000791D60938F0470939004809391049093E5
:102D7000920429E831EA4EEA53E460919304709199
:102D8000940480919504909196040E94751C90582B
:102D900020E030E44CE155E40E94791D60939304F7
:102DA0007093940480939504909396042EE03DE8EC
:102DB0004AE153E4609197047091980480919904DA
:102DC00090919A040E94751C905820E030E44CE1E8
:102DD00055E40E94791D6093970470939804809342
:102DE000990490939A041DAB1CAA6CA97DA9E98053
:102DF000FA806E297F29072E000C880B990B0E9400
:102E0000231E21ED32E240E353E40E94761C20E0D1
:102E100030E44CE155E40E94791D60939B0470936B
:102E20009C0480939D0490939E040E94B40A0E9487
:102E3000B40A6CA17DA18EA19FA10E94F21D609396
:102E4000430160914F017091500180915101909127
:102E5000520120E030E045E754E40E94751C0E94D6
:102E6000F21D609344012AE939E949E450E4609194
:102E70007B0470917C0480917D0490917E040E947B
:102E8000761C20E030E040E251E40E947A1F0E946C
:102E9000F21D609341012AE939E949E450E4609167
:102EA0007F047091800480918104909182040E943B
:102EB000761C20E030E040E251E40E947A1F0E943C
:102EC000F21D6093400160918304709184048091AD
:102ED0008504909186040E94F21D60934201F09057
:102EE0004A04F11011C089E293E00E944E0784E485
:102EF00093E00E944E078FE593E00E944E078AE719
:102F000093E00E944E0708C1009111031091120333
:102F10001A83098380915304909154048130910560
:102F2000E9F078F0029761F509811A81B801110F73
:102F3000880B990B0E94231E2DEC3CEC4CEC5EE3BD
:102F400019C009811A81B801110F880B990B0E94D1
:102F5000231E2DEC3CEC4CE45FE30CC009811A818C
:102F6000B801110F880B990B0E94231E2AE939E939
:102F700049E15FE30E947A1F0E94EB1D7A83698317
:102F80008AE394E00E94660480914604909147048D
:102F9000019729F48AE394E00E948C0401C0F12C8B
:102FA00080910D0390910E0320910F033091100337
:102FB000821B930B09811A81800F911F2091E702D8
:102FC0003091E802829FB001839F700D929F700D37
:102FD00011244F2D89E293E00E94820680910F0315
:102FE0009091100320910D0330910E0391958195DE
:102FF0009109821B930B801B910B2091E902309168
:10300000EA02829FB001839F700D929F700D112480
:103010004F2D84E493E00E94820680910F039091EB
:10302000100320910D0330910E03081B190BC801EA
:10303000821B930B2091EB023091EC02829F800166
:10304000839F100D929F100D112480910D0390917C
:103050000E0320910F0330911003821B930B2981E3
:103060003A81821B930B2091ED023091EE02829FF8
:10307000A001839F500D929F500D11245A834983C4
:103080004F2DB8018FE593E00E9482064F2D698194
:103090007A818AE793E00E9482068091530490919E
:1030A00054040297C9F560914403709145038091DF
:1030B000290390912A03680F791F80917A039091D8
:1030C0007B03680F791F20915F0330916003620FCB
:1030D000731F2091950330919603620F731F209107
:1030E000B0033091B103620F731F8091CB039091B5
:1030F000CC03680F791F64507942072E000C880BAF
:10310000990B0E94231E20E030E443E055E40E9426
:103110006D1F18160CF4D5C060914F0170915001CD
:10312000809151019091520169837A838B839C83B2
:1031300080914A0481110DC085E993E00E944E07F9
:1031400080EB93E00E944E078BEC93E00E944E07C9
:10315000B4C0C0907B04D0907C04E0907D04F090DB
:103160007E0440917F0450918004609181047091AD
:10317000820400E010E0980186EE93E00E94A10432
:103180002B013C0100E010E09801B701A60182E0AC
:1031900094E00E94A10469877A878B879C8760915D
:1031A0004F0470915004809151049091520420E09A
:1031B00030E0A9010E946D1F18160CF4ABC060919D
:1031C0004B0470914C0480914D0490914E0420E08A
:1031D00030E0A9010E946D1F18160CF49BC080916D
:1031E0001303882309F4BFC01092490410924804C5
:1031F0001092130300911D0310911E0320911F03D1
:103200003091200349815A816B817C818EE194E069
:103210000E94A1046B017C01F7FAF094F7F8F09496
:103220001A821982A7019601C301B2010E94761C7D
:103230004B015C019B01AC0169857A858B859C857E
:103240000E94761C0E94EB1D80EB93E00E941A07FF
:1032500029853A854B855C85C501B4010E94751CA2
:103260000E94EB1D85E993E00E941A07A3019201D9
:10327000C301B2010E94761C9B01AC01C701B601DB
:103280000E94751C0E94EB1D8BEC93E00E941A07B4
:1032900041E069817A8180EB93E00E94820641E0FF
:1032A00069817A8185E993E00E94820641E0698123
:1032B0007A818BEC93E00E9482060E94DE010C94DE
:1032C000C70FB801110F880B990B0E94231E2DEC1C
:1032D0003CEC4CEC5EE30E947A1F0E94EB1D41E047
:1032E0008FE593E00E948206E980FA80B701FF0C27
:1032F000880B990B0E94231E2DEC3CEC4CEC5EE3FA
:103300000E947A1F0E94EB1D41E08AE793E00E9431
:10331000820602CF81E08093130360914B04709189
:103320004C0480914D0490914E0420914F043091B3
:1033300050044091510450915204C0902503D09004
:103340002603E0902703F09028030E94751CA70134
:1033500096010E947A1F0E94EB1D7A836983C12C1B
:10336000D12C76015FCF8091480490914904059754
:103370000CF040CF0E94C50D7B018C0120E030E0B5
:10338000A9016EABFFAA08AF19AF2AAF3BAF4CAF94
:103390005DAF9B01A80160E070E080E090E0A0904C
:1033A0001503B0901603C0901703D0901803E09057
:1033B0001903F0901A0300911B0310911C030E9443
:1033C0005E21203C37424940510561057105810568
:1033D000910509F00CF40ECF09811A812B813C81F3
:1033E00000931D0310931E0320931F0330932003AB
:1033F0000E94C50D7B018C0120E030E0A9016EAB7D
:10340000FFAA08AF19AF2AAF3BAF4CAF5DAF6093D7
:103410001503F092160300931703109318031092EC
:10342000190310921A0310921B0310921C0310929E
:103430003604109237041092380410923904109216
:1034400032041092330410923404109235048091A7
:10345000480490914904019690934904809348044C
:10346000C9CE8F929F92AF92BF92CF92DF92EF928E
:10347000FF920F931F93CF93DF93E0E3F2E0138269
:10348000128288EE93E0A0E0B0E084839583A68367
:10349000B7832CE131E03183208325EC30E03587A0
:1034A000248724EC30E03787268720EC30E0318B0E
:1034B000208B21EC30E0338B228B22EC30E0358BFB
:1034C000248B26EC30E0378B268B118E128E138ED8
:1034D000148EEDECF2E01382128284839583A6832E
:1034E000B7838EE291E09183808386EA882E8BE910
:1034F000982E84E4A82E8CE3B82E8092A304909298
:10350000A404A092A504B092A60480E090EAA0E8EA
:10351000B4E48093770490937804A0937904B093F3
:103520007A04C7EED2E08FEF9FEF998388839B8365
:103530008A8301E010E01D830C831F830E831987AB
:1035400008871B870A871D870C878CE0E0E0F1E085
:10355000A5EFB2E001900D928A95E1F78CE0ECE0E6
:10356000F1E0A1E0B3E001900D928A95E1F780E0EF
:1035700090E0ACEFB2EC8AAF9BAFACAFBDAFC12C6B
:10358000D12C9EEFE92E92E4F92EC0922503D09221
:103590002603E0922703F092280320E030E04FE773
:1035A00050E062E87FEF89E293E00E948A0920E020
:1035B00030E04FE750E062E87FEF84E493E00E9460
:1035C0008A0920E030E04FE750E062E87FEF8FE5C6
:1035D00093E00E948A0920E030E04FE750E062E883
:1035E0007FEF8AE793E00E948A0922E330E04FE709
:1035F00050E062E87FEF85E993E00E948A0922E3C8
:1036000030E04FE750E062E87FEF80EB93E00E940C
:103610008A0922E330E04FE750E062E87FEF8BEC6D
:1036200093E00E948A0980E090E0A0EFB1E48093EB
:10363000E6039093E703A093E803B093E90381E8DE
:1036400099EDA8E0B1E48093EA039093EB03A09393
:10365000EC03B093ED0381EE9AE7A0E6B1E480932A
:10366000EE039093EF03A093F003B093F1038092E5
:10367000F2039092F303A092F403B092F503C09288
:10368000F603D092F703E092F803F092F903109258
:10369000FA031092FB031092FC031092FD031092A8
:1036A000FE031092FF03109200041092010480E0C8
:1036B00090E0A8ECB2E48093020490930304A093FA
:1036C0000404B093050410920604109207041092AB
:1036D00008041092090410920A0410920B0410922C
:1036E0000C0410920D0480920E0490920F04A0928C
:1036F0001004B0921104C0921204D0921304E0920C
:103700001404F092150410921604109217041092EB
:1037100018041092190410921A0410921B041092AB
:103720001C0410921D0481E090E0A0E7B2E48093B5
:103730001E0490931F04A0932004B093210485EFEE
:1037400099EFACE3B2E48093220490932304A09316
:103750002404B093250487E696E6A8E9B1E48093B3
:10376000260490932704A0932804B0932904809200
:103770002A0490922B04A0922C04B0922D04C092A3
:103780002E04D0922F04E0923004F0923104109273
:1037900032041092330410923404109235041092C3
:1037A00036041092370410923804109239041092A3
:1037B0003E0410923F041092400410924104109273
:1037C0004304109242041092440410924504109352
:1037D000470400934604109255048EE190E0A0E067
:1037E000B0E080933A0490933B04A0933C04B093E0
:1037F0003D048AE394E00E948C04E9EDF2E010823B
:103800001182128213821482158216821782118607
:1038100010861286138615870487DF91CF911F913A
:103820000F91FF90EF90DF90CF90BF90AF909F905F
:103830008F900895052E97FB1EF400940E94311C72
:1038400057FD07D00E94441C07FC03D04EF40C9493
:10385000311C50954095309521953F4F4F4F5F4F0C
:10386000089590958095709561957F4F8F4F9F4FEC
:1038700008950E94661CA59F900DB49F900DA49F73
:10388000800D911D11240895A1E21A2EAA1BBB1BC5
:10389000FD010DC0AA1FBB1FEE1FFF1FA217B3071C
:1038A000E407F50720F0A21BB30BE40BF50B661F32
:1038B000771F881F991F1A9469F7609570958095F6
:1038C00090959B01AC01BD01CF010895A29FB0016D
:1038D000B39FC001A39F700D811D1124911DB29F44
:1038E000700D811D1124911D08955058BB27AA27E2
:1038F0000E948D1C0C941F1F0E94E61E38F00E942F
:10390000ED1E20F039F49F3F19F426F40C94A81E04
:103910000EF4E095E7FB0C94A21EE92F0E94441FD1
:1039200058F3BA17620773078407950720F079F4F4
:10393000A6F50C94661F0EF4E0950B2EBA2FA02D61
:103940000B01B90190010C01CA01A0011124FF274C
:10395000591B99F0593F50F4503E68F11A16F04047
:10396000A22F232F342F4427585FF3CF4695379546
:103970002795A795F0405395C9F77EF41F16BA0B0B
:10398000620B730B840BBAF09150A1F0FF0FBB1FB9
:10399000661F771F881FC2F70EC0BA0F621F731F02
:1039A000841F48F4879577956795B795F7959E3F5F
:1039B00008F0B0CF9395880F08F09927EE0F9795F0
:1039C000879508959F939F77EEE389379E0728F4A4
:1039D000EAE8F0E00E94D21E0CC00E945E1E9058E1
:1039E000A2EA2AED3FE049EC5FE30E948D1C0E94B1
:1039F0001F1F0F9007FC905808950E94E61E60F06C
:103A000080E891E009F49EEF0E94ED1E28F040E866
:103A100051E071F45EEF0CC00C94A81E0C94661F6C
:103A2000E92FE0780E94441F40F3092E052AB1F3E4
:103A3000261737074807590738F00E2E07F8E025F4
:103A400069F0E025E0640AC0EF6307F8009407FA24
:103A5000DB01B9019D01DC01CA01AD01EF930E94B8
:103A6000901D0E941F1F0E94401D5F91552339F039
:103A70002BED3FE049E450FD49EC0C94761C089591
:103A8000DF93DD27B92FBF7740E85FE316161706EF
:103A900048075B0718F4D92F0E94721F9F938F93DA
:103AA0007F936F930E943520EEE9F0E00E94AB1EF9
:103AB0000E941F1F2F913F914F915F910E948D1F78
:103AC000DD2351F09058A2EA2AED3FE049EC5FE394
:103AD000D0785D270E948D1CDF910C941F1F0E94DF
:103AE0007E1E08F481E008950E94F61EE3950C9472
:103AF000301F0E948D1D0C941F1F0E94ED1E58F058
:103B00000E94E61E40F029F45F3F29F00C94A21EAB
:103B100051110C94671F0C94A81E0E94441F68F357
:103B20009923B1F3552391F3951B550BBB27AA2776
:103B300062177307840738F09F5F5F4F220F331FB0
:103B4000441FAA1FA9F335D00E2E3AF0E0E832D078
:103B500091505040E695001CCAF72BD0FE2F29D07B
:103B6000660F771F881FBB1F261737074807AB074D
:103B7000B0E809F0BB0B802DBF01FF2793585F4FC2
:103B80003AF09E3F510578F00C94A21E0C94671FEA
:103B90005F3FE4F3983ED4F3869577956795B795A4
:103BA000F7959F5FC9F7880F911D9695879597F9AF
:103BB0000895E1E0660F771F881FBB1F6217730728
:103BC0008407BA0720F0621B730B840BBA0BEE1F3D
:103BD00088F7E09508950E94F21D6894B1110C9445
:103BE000671F08950E944C1F88F09F5798F0B92FC7
:103BF0009927B751B0F0E1F0660F771F881F991F22
:103C00001AF0BA95C9F714C0B13091F00E94661F3E
:103C1000B1E008950C94661F672F782F8827B85F4E
:103C200039F0B93FCCF3869577956795B395D9F779
:103C30003EF490958095709561957F4F8F4F9F4F83
:103C40000895E89409C097FB3EF49095809570958F
:103C500061957F4F8F4F9F4F9923A9F0F92F96E9D8
:103C6000BB279395F695879577956795B795F1114D
:103C7000F8CFFAF4BB0F11F460FF1BC06F5F7F4FEA
:103C80008F4F9F4F16C0882311F096E911C07723FC
:103C900021F09EE8872F762F05C0662371F096E805
:103CA000862F70E060E02AF09A95660F771F881FD4
:103CB000DAF7880F9695879597F90895DF93CF9354
:103CC0001F930F938B01EC01EBECF0E00E94AB1E15
:103CD0000E941F1F9801AE018B01EC0160E070E0B3
:103CE00080E89FE30E94751C0E94F51F9801AE01B9
:103CF0000F911F91CF91DF910C948D1F990F0008A8
:103D0000550FAA0BE0E8FEEF16161706E807F907AD
:103D1000C0F012161306E407F50798F0621B730B48
:103D2000840B950B39F40A2661F0232B242B252BC9
:103D300021F408950A2609F4A140A6958FEF811D6C
:103D4000811D089597F99F6780E870E060E008950D
:103D50009FEF80EC0895DF93CF931F930F93FF9213
:103D6000EF92DF927B018C01689406C0DA2EEF019E
:103D70000E948D1FFE01E894A591259135914591F2
:103D80005591A6F3EF010E948D1CFE019701A80139
:103D9000DA9469F7DF90EF90FF900F911F91CF9128
:103DA000DF9108959F938F937F936F93FF93EF938A
:103DB0009B01AC010E947A1FEF91FF910E94AB1E04
:103DC0002F913F914F915F910C947A1F00240A9498
:103DD0001616170618060906089500240A941216E6
:103DE00013061406050608950C94A81E0E944C1F85
:103DF000D8F3E894E0E0BB279F57F0F02AED3FE0CE
:103E000049EC06C0EE0FBB0F661F771F881F28F016
:103E1000B23A62077307840728F0B25A620B730B39
:103E2000840BE3959A9572F7803830F49A95BB0F1E
:103E3000661F771F881FD2F790480C943B20092EED
:103E40000394000C11F4882352F0BB0F40F4BF2BF5
:103E500011F460FF04C06F5F7F4F8F4F9F4F089535
:103E6000EF93E0FF07C0A2EA2AED3FE049EC5FEBE9
:103E70000E948D1C0E941F1F0F90039401FC9058FC
:103E8000E3EFF0E00C94D21E57FD9058440F551FFD
:103E900059F05F3F71F04795880F97FB991F61F0CC
:103EA0009F3F79F087950895121613061406551F43
:103EB000F2CF4695F1DF08C0161617061806991FAF
:103EC000F1CF86957105610508940895E894BB27A4
:103ED00066277727CB0197F908950E947E1E08F484
:103EE0008FEF08959B01AC0160E070E080E89FE3F4
:103EF0000C94791D0E948D1F0C941F1F0E94E61EBA
:103F000038F00E94ED1E20F0952311F00C94A21EB3
:103F10000C94A81E11240C94671F0E94441F70F378
:103F2000959FC1F3950F50E0551F629FF001729F5E
:103F3000BB27F00DB11D639FAA27F00DB11DAA1F6D
:103F4000649F6627B00DA11D661F829F2227B00DBA
:103F5000A11D621F739FB00DA11D621F839FA00D45
:103F6000611D221F749F3327A00D611D231F849F95
:103F7000600D211D822F762F6A2F11249F575040EC
:103F80009AF0F1F088234AF0EE0FFF1FBB1F661F67
:103F9000771F881F91505040A9F79E3F510580F030
:103FA0000C94A21E0C94671F5F3FE4F3983ED4F379
:103FB000869577956795B795F795E7959F5FC1F7D4
:103FC000FE2B880F911D9695879597F908959F93DD
:103FD0000E94F61E0F9007FCEE5F0C94301F19F440
:103FE00016F40C94A81E0C9439200E944C1FB8F3B0
:103FF0009923C9F3B6F39F57550B87FF0E944720BB
:104000000024A0E640EA900180585695979528F440
:10401000805C660F771F881F20F026173707480738
:1040200030F4621B730B840B202931294A2BA6958F
:1040300017940794202531254A2758F7660F771FD4
:10404000881F20F026173707480730F4620B730BE0
:10405000840B200D311D411DA09581F7B901842FDE
:104060009158880F9695879508959B01AC010C9403
:104070007A1F9F3F31F0915020F48795779567958F
:10408000B795880F911D9695879597F9089591504A
:104090005040660F771F881FD2F70895DB018F937A
:1040A0009F930E94391CBF91AF91A29F800D911DDB
:1040B000A39F900DB29F900D11240895991B79E054
:1040C00004C0991F961708F0961B881F7A95C9F7A8
:1040D00080950895EE0FFF1F0590F491E02D09944F
:1040E0000E94661C332312F48A1B9B0B0C947A20CB
:1040F0000E94661CB7FF0895821B930B0895DF93FF
:10410000CF931F930F939A9DF02D219FF00D8B9DC0
:10411000F00D8A9DE02DF10D039FF00D029FE00D43
:10412000F11D4E9DE00DF11D5E9DF00D4F9DF00DBA
:104130007F936F93BF92AF925F934F93D5010E948D
:10414000661C8B01AC01D7010E94661CEB01E80FD5
:10415000F91FD6010E94CF202F913F91D6010E94D6
:10416000661CC60FD71FE81FF91FAF91BF910E94B1
:10417000CF202F913F910E94661CC60FD71FE81FCA
:10418000F91FD6010E94661CE60FF71F9801BE01B9
:10419000CF0111240F911F91CF91DF9108950E94BB
:1041A000661C460F571FC81FD91F08F43196089583
:1041B00097FB57FF0C94E8209F938F930E94E82071
:1041C0006E1B7F0BAF91BF918A0B9B0B0895E894F8
:1041D000DF93CF93FC01DB010E94661C7F936F93FA
:1041E000E9019A01AC01BF93AF933F932F93DF0195
:1041F0000E94661C26F46C1B7D0B820B930B9E01A8
:10420000EB01FC010E94CF20AF91BF912F913F9114
:104210000E94CF20BE01CF01F9012F913F91CF9194
:10422000DF9108950F93083090F0982F872F762F05
:10423000652F542F432F322F22270850F4CF220FFF
:10424000331F441F551F661F771F881F991F0A952C
:10425000B2F70F91089597FB10F8169400080F938A
:10426000083098F00850232F342F452F562F672FF2
:10427000782F892F902DF4CF059497958795779572
:10428000679557954795379527950A95AAF70F9102
:1042900008952A0D3B1D4C1D5D1D6E1D7F1D801F49
:1042A000911F08950024A7FD00942A0F301D401D82
:1042B000501D601D701D801D901D08952A193B0919
:1042C0004C095D096E097F09800B910B089500244C
:1042D000A7FD00942A1730054005500560057005BC
:1042E00080059005089581E090E0F8940C94782181
:0442F000F894FFCF70
:1042F4000000F041000048420000B4420000F041D8
:104304000000A0420000C842000000006F01DC0071
:104314000601BC01370115012901000000007502E6
:0C4324004802A5021C0240022C021D02EF
:107E0000112484B714BE81FFF0D085E080938100F7
:107E100082E08093C00088E18093C10086E0809377
:107E2000C20080E18093C4008EE0C9D0259A86E02C
:107E300020E33CEF91E0309385002093840096BBD3
:107E4000B09BFECF1D9AA8958150A9F7CC24DD24C4
:107E500088248394B5E0AB2EA1E19A2EF3E0BF2EE7
:107E6000A2D0813461F49FD0082FAFD0023811F036
:107E7000013811F484E001C083E08DD089C08234E0
:107E800011F484E103C0853419F485E0A6D080C0E4
:107E9000853579F488D0E82EFF2485D0082F10E0AE
:107EA000102F00270E291F29000F111F8ED06801E7
:107EB0006FC0863521F484E090D080E0DECF843638
:107EC00009F040C070D06FD0082F6DD080E0C81688
:107ED00080E7D80618F4F601B7BEE895C0E0D1E017
:107EE00062D089930C17E1F7F0E0CF16F0E7DF06D8
:107EF00018F0F601B7BEE89568D007B600FCFDCFD4
:107F0000A601A0E0B1E02C9130E011968C91119780
:107F100090E0982F8827822B932B1296FA010C0160
:107F200087BEE89511244E5F5F4FF1E0A038BF0790
:107F300051F7F601A7BEE89507B600FCFDCF97BE46
:107F4000E89526C08437B1F42ED02DD0F82E2BD052
:107F50003CD0F601EF2C8F010F5F1F4F84911BD097
:107F6000EA94F801C1F70894C11CD11CFA94CF0C13
:107F7000D11C0EC0853739F428D08EE10CD085E9AC
:107F80000AD08FE07ACF813511F488E018D01DD067
:107F900080E101D065CF982F8091C00085FFFCCF94
:107FA0009093C60008958091C00087FFFCCF809118
:107FB000C00084FD01C0A8958091C6000895E0E648
:107FC000F0E098E1908380830895EDDF803219F02E
:107FD00088E0F5DFFFCF84E1DECF1F93182FE3DFCA
:107FE0001150E9F7F2DF1F91089580E0E8DFEE27F6
:047FF000FF270994CA
:027FFE00040479
:0400000300007E007B
:00000001FF
