:100000000C94C8000C94F0000C94F0000C94F000D8
:100010000C94F0000C94F0000C94F0000C94F000A0
:100020000C94F0000C94F0000C94F0000C9460061A
:100030000C94F0000C94F0000C94F0000C94F00080
:100040000C94EF100C94DA080C941C030C94F60238
:100050000C94F0000C94F0000C94F0000C94F00060
:100060000C944E030C94F000580965096E09800940
:10007000A009A009A009A0098C0989099309A00970
:10008000A009A0093A09730980099609036EDB36B5
:100090003D9A9999993DABAAAA2A3E000000803F5B
:1000A000084AD73B3BCE016E84BCBFFDC12F3D6CDF
:1000B00074319ABD56833DDA3D00C77F11BED9E445
:1000C000BB4C3E916BAAAABE000000803F072C7A71
:1000D000A5BA6CC590DA3B9365FC8BBC53F810FD58
:1000E0003C5692834DBD879D3AB63DCBC9BF5BBEA2
:1000F00073DA0FC93F05A84CCDB2D44EB93836A932
:10010000020C50B9918688083CA6AAAA2ABE000013
:1001100000803F00005EBCE2613FDD83C29C7E2028
:10012000A3FD1F41009D23BE46DB65F88C11AF3255
:10013000CA57E97400000000240027002A000000CC
:100140000000250028002B0000000008000201002C
:100150000003040700000000000000000000000091
:1001600023002600290004040404040404040202F9
:100170000202020203030303030301020408102026
:100180004080010204081020010204081020091E0A
:1001900011241FBECFEFD8E0DEBFCDBF11E0A0E03D
:1001A000B1E0E2E7FBE402C005900D92A234B10792
:1001B000D9F724E0A2E4B1E001C01D92A03EB2074D
:1001C000E1F710E0C8ECD0E004C02197FE010E94E6
:1001D000A924C73CD107C9F70E9439110C94B7254F
:1001E0000C940000CF92DF92EF92FF920F931F9337
:1001F000CF93DF936C017A018B01C0E0D0E0CE1584
:10020000DF0581F0D8016D918D01D601ED91FC9152
:100210000190F081E02DC6010995892B11F02196FE
:10022000EECF7E01C701DF91CF911F910F91FF901B
:10023000EF90DF90CF900895FC01538D448D252FD2
:1002400030E0842F90E0821B930B541710F0CF9670
:10025000089501970895FC01918D828D981761F0A2
:10026000828DDF01A80FB11D5D968C91928D9F5FED
:100270009F73928F90E008958FEF9FEF0895FC0198
:10028000918D828D981731F0828DE80FF11D858D4B
:1002900090E008958FEF9FEF0895FC01918D228DDE
:1002A000892F90E0805C9F4F821B91098F73992763
:1002B00008958EE392E00E944D0121E0892B09F41C
:1002C00020E0822F0895FC01848DDF01A80FB11D6D
:1002D000A35ABF4F2C91848D90E001968F7399277C
:1002E000848FA689B7892C93A089B1898C9183705A
:1002F00080648C93938D848D981306C00288F38953
:10030000E02D80818F7D80830895EF92FF920F937F
:100310001F93CF93DF93EC0181E0888F9B8D8C8DB1
:10032000981305C0E889F989808185FD26C0F62EDD
:100330000B8D10E00F5F1F4F0F731127E02E8C8D78
:10034000E8120CC00FB607FCFACFE889F989808162
:1003500085FFF5CFCE010E946301F1CF8B8DFE01A9
:10036000E80FF11DE35AFF4FF0829FB7F8940B8F0F
:10037000EA89FB89808180620AC09FB7F894EE8980
:10038000FF896083E889F989808183708064808334
:100390009FBF81E090E0DF91CF911F910F91FF907F
:1003A000EF900895CF93DF93EC01888D8823C9F0F7
:1003B000EA89FB89808185FD05C0A889B9898C916E
:1003C00086FD0FC00FB607FCF5CF808185FFF2CF09
:1003D000A889B9898C9185FFEDCFCE010E94630178
:1003E000E7CFDF91CF91089580E090E0892B29F04D
:1003F0000E94590181110C940000089585ED8093AD
:10040000BC008091BC0084FDFCCF109218020895BE
:1004100040918201262F30E0240F311D2132310519
:10042000DCF4209118022430C9F4FC0180E090E053
:10043000861758F4309182012191DC01AE59BE4FEC
:10044000A30FB11D2C930196F3CF80918201680F09
:100450006093820180E0089581E0089582E008952C
:10046000089508950895E091AE018091AD01E817D7
:1004700030F4F0E0EE52FE4F808190E008958FEF6F
:100480009FEF08959091AE018091AD01981750F4BF
:10049000E92FF0E0EE52FE4F208130E09F5F909315
:1004A000AE0102C02FEF3FEFC90108958091AD0169
:1004B00090E02091AE01821B91090895CF92DF92C6
:1004C000EF92FF920F931F93CF93DF937C01CB01A9
:1004D0008A012091AF01222389F0EB016B01C40E48
:1004E000D51ECC15DD0569F06991D701ED91FC9120
:1004F0000190F081E02DC7010995F3CF642F0E9490
:100500000802C801DF91CF911F910F91FF90EF90EA
:10051000DF90CF900895CF93DF931F92CDB7DEB7D2
:1005200069832091AF012223D1F02091D1012032A3
:1005300040F021E030E0FC013383228380E090E052
:1005400015C08091B001E82FF0E0EF54FE4F998183
:1005500090838F5F8093B0018093D10105C061E0EB
:10056000CE0101960E94080281E090E00F90DF9199
:10057000CF910895089580E090E00895FC01908166
:100580009C3088F5818128E830E0281B310987FDFF
:100590003395220F331F220F331F6217730784F026
:1005A000828148E552E0481B510987FD5395440F6D
:1005B000551F440F551F9B01461757070CF49A010E
:1005C00022503109220F331F4FB7F894892F90E042
:1005D000FC01EE0FFF1F8E0F9F1FFC01E75EFD4F1A
:1005E000328321834FBF08950E94B2251F920F923C
:1005F0000FB60F9211242F933F934F935F936F93F6
:100600007F938F939F93AF93BF93EF93FF938EE36B
:1006100092E00E946301FF91EF91BF91AF919F9192
:100620008F917F916F915F914F913F912F910F909B
:100630000FBE0F901F9018951F920F920FB60F923A
:1006400011242F938F939F93EF93FF93E0914E028A
:10065000F0914F028081E0915402F091550282FDA9
:1006600012C09081809157028F5F8F732091580242
:10067000821751F0E0915702F0E0E25CFD4F958F58
:100680008093570201C08081FF91EF919F918F91DC
:100690002F910F900FBE0F901F9018951F920F92E1
:1006A0000FB60F9211242F933F934F935F936F9345
:1006B0007F938F939F93AF93BF93EF93FF9380911B
:1006C000B900887F803609F49CC068F5883209F447
:1006D0005BC090F4803109F454C038F4882309F4E5
:1006E000F6C0883009F44DC0F6C0883109F44CC01A
:1006F000803209F45DC0EFC0803409F468C048F46A
:10070000803309F455C0883309F0E5C080931602A0
:10071000D8C0803509F44FC0883509F45DC08834ED
:1007200009F0D9C0D6C0883909F4C7C0A8F4883701
:1007300009F467C038F4883609F463C0803709F4D7
:1007400060C0C9C0883809F4B8C0803909F45FC0F6
:10075000803809F0C0C05BC0803B09F486C038F423
:10076000803A09F466C0883A09F47FC0B4C0803C7E
:1007700009F4A7C0883C09F4A4C0883B09F48AC0E6
:10078000AAC08091130210C09091150280911402AA
:10079000981770F5E091150281E08E0F8093150295
:1007A000F0E0EE50FE4F80818093BB0085EC86C068
:1007B000809316028EC0E091150281E08E0F809327
:1007C00015028091BB00F0E0EE50FE4F80839091C7
:1007D0001502809114026EC0E091150281E08E0F27
:1007E000809315028091BB00F0E0EE50FE4F8083B5
:1007F0008091170281116DC081E08093120284EA1A
:1008000061C083E0809318021092A401CFCF809141
:10081000A401803208F051C0E091A40181E08E0F64
:100820008093A4018091BB00F0E0EC57FE4F8083E1
:10083000BDCF85EC8093BC00109218028091A4017A
:10084000803230F4E091A401F0E0EC57FE4F1082CA
:100850006091A40170E0E0914201F091430184E8CD
:1008600091E009951092A40136C084E080931802AB
:100870001092830110928201E0914401F0914501B0
:10088000099580918201811105C081E080938201E8
:1008900010926201E091830181E08E0F80938301C9
:1008A000F0E0EE59FE4F80818093BB009091830170
:1008B00080918201981708F479CF85E88093BC0075
:1008C0000AC085EC8093BC001092180204C01092FC
:1008D00016020E94FE01FF91EF91BF91AF919F918F
:1008E0008F917F916F915F914F913F912F910F90D9
:1008F0000FBE0F901F901895DC0180E0615098F0BA
:100900002D91982F9227E92FEF70F0E0EC5EFE4FCB
:10091000249192959F70E92FF0E0EC5DFE4FE491F9
:10092000822F8E27EBCF0895FC0190810180F28108
:10093000E02DF8948181892B81832281892F8095F4
:1009400028232283A7E0B0E01197F1F721818223C9
:100950008183A3E2B0E01197F1F780817894EFEC06
:10096000F0E03197F1F7982381E009F480E00895F1
:10097000FC0190810180F281E02D892F809560FF3C
:1009800012C0F8942281822382838181892B818302
:10099000A3E2B0E01197F1F78281982B92837894CB
:1009A00087ED90E011C0F8942281822382838181B7
:1009B000892B8183AFEFB0E01197F1F78281982BFB
:1009C000928378948FE090E00197F1F70895DF9299
:1009D000EF92FF920F931F93CF93DF93EC01D62EEC
:1009E000E42E08E010E0FF24F39461E08D2D8F21C8
:1009F00009F460E0CE010E94B804FF0C0150110917
:100A0000A1F7E11010C0F894E981FA819181888101
:100A1000809589238183E981FA81928188818095FB
:100A2000892382837894DF91CF911F910F91FF905A
:100A3000EF90DF900895EF92FF920F931F93CF9363
:100A4000DF938C017B0140E065E50E94E704E7014C
:100A500088E0E80EF11C699140E0C8010E94E704BB
:100A6000CE15DF05C1F7DF91CF911F910F91FF9058
:100A7000EF900895DC012C911196ED91FC91129765
:100A8000F8948181922F90958923818378948DE7C2
:100A900043E050E0815021F1DA011197F1F7308104
:100AA0003223C1F3F8948281892382838181822B4E
:100AB00081837894ABE7B7E01197F1F7F8948181DF
:100AC0009823918383E191E00197F1F780812823B6
:100AD00081E009F080E07894E3E6F6E03197F1F701
:100AE00008950F931F93CF93DF93FC0124853585E1
:100AF000232BD1F4EC010E9463100C811D812E8107
:100B00003F81DC01CB01801B910BA20BB30B088151
:100B100019812A813B8180179107A207B30720F032
:100B200081E090E09D878C87DF91CF911F910F919D
:100B30000895CF93DF93EC010E9463106C837D8353
:100B40008E839F831D861C861A861B86DF91CF911C
:100B500008954F925F926F927F928F929F92AF9281
:100B6000BF92CF92DF92EF92FF920F931F93CF939A
:100B7000DF9300D000D000D0CDB7DEB79E838D8349
:100B80006A017B01C901B801A70196010E94B42046
:100B90006B017C01ED81FE81208131814281538195
:100BA0000E94B9232B013C01ED81FE818484958450
:100BB000A684B7842489358946895789C701B60137
:100BC0000E94B420A50194010E94B821ED81FE810C
:100BD00020853185428553850E94B92369837A83B4
:100BE0008B839C83A5019401C701B6010E94B923A0
:100BF000ED81FE81208D318D428D538D0E94B52077
:100C0000ED81FE81608F718F828F938F248135817A
:100C1000468157810E94B9234B015C0129813A81A9
:100C20004B815C81C301B2010E94B5209B01AC01E4
:100C3000C501B4010E94B5204B015C01ED81FE812C
:100C4000C48AD58AE68AF78AC088D188E288F38880
:100C500020E030E0A901C701B6010E94AC231816BC
:100C6000B4F4A7019601B401C5010E94AC23181683
:100C700064F0F7FAF094F7F8F094A7019601B40144
:100C8000C5010E94AE2187FF02C046015701B40191
:100C9000C50126960FB6F894DEBF0FBECDBFDF911B
:100CA000CF911F910F91FF90EF90DF90CF90BF9069
:100CB000AF909F908F907F906F905F904F9008952E
:100CC0001F920F920FB60F9211242F933F934F93C1
:100CD0005F936F937F938F939F93AF93BF93EF93A4
:100CE000FF938091610187FF05C0109285001092EB
:100CF00084001BC020916101022E000C330B8091F7
:100D00003D0290E02817390784F480916101082E94
:100D1000000C990BFC01EE0FFF1F8E0F9F1FFC01B3
:100D2000E75EFD4F808186FD15C0809161018F5F78
:100D30008093610120916101022E000C330B8091A0
:100D40003D0290E028173907C4F4809161018C308E
:100D500064F113C080916101082E000C990BFC0115
:100D6000EE0FFF1F8E0F9F1FFC01E75EFD4F80817E
:100D700060E08F730E947B0FD8CF809184009091A8
:100D80008500049680349C4918F480E49CE905C0F1
:100D900080918400909185000496909389008093BF
:100DA00088008FEF809361013BC0209184003091D7
:100DB000850080916101082E000C990BFC01EE0F5B
:100DC000FF1F8E0F9F1FFC01E75EFD4F8181928107
:100DD000820F931F90938900809388008091610116
:100DE000082E000C990BFC01EE0FFF1F8E0F9F1FAA
:100DF000FC01E75EFD4F808186FF12C0809161019A
:100E0000082E000C990BFC01EE0FFF1F8E0F9F1F89
:100E1000FC01E75EFD4F808161E08F730E947B0FD4
:100E2000FF91EF91BF91AF919F918F917F916F91C2
:100E30005F914F913F912F910F900FBE0F901F9098
:100E40001895FF920F931F93CF93DF93EC016D875B
:100E50007E878C010A5F1F4F8E818C3008F051C055
:100E6000F62E61E08F2D0E94C80F8E81E82FF0E0F2
:100E70009F01220F331FE20FF31FE75EFD4F6F2D1F
:100E80006F739081907CF92EF62AF0821F8218866B
:100E90006CE00E949D249CE0899FB001112440E0F9
:100EA00050E09B01240F351FF901EE0FFF1F2E0F9D
:100EB0003F1FF901E75EFD4F908196FD16C04F5F21
:100EC0005F4F4C30510569F781110FC010928000BF
:100ED00082E0809381001092850010928400B19A84
:100EE00080916F00826080936F00EE81F0E0CF010F
:100EF000880F991FE80FF91FE75EFD4F808180641E
:100F000080836CED75E0C801DF91CF911F910F9147
:100F1000FF900C94BE02FF920F931F93CF93DF9329
:100F2000EC01F42E4D895E89461757072CF48F8506
:100F300098899B838A8320C0EB89FC8909891A8957
:100F40006E177F071CF41B830A8316C09B012E1BA0
:100F50003F0BAF85B889A01BB10B0E94AF249A014B
:100F60002E1B3F0B032E000C440B550B0E945920E7
:100F7000200F311F3B832A832A813B8189859A85F3
:100F8000820F931F9B838A83FF2009F456C0288118
:100F900039818D3D45E0940744F04C815D81420FDD
:100FA000531F841795076CF429C08C3D65E09607A4
:100FB00041F04C815D81B901641B750B681779079D
:100FC000ECF02C3D75E0370744F48D3D45E0940787
:100FD0009CF428173907ECF411C02C3D65E0360766
:100FE00081F08C3D75E097073CF08217930734F051
:100FF0008D3D45E094072CF48CED95E09983888332
:1010000011C0281739072CF48C819D81280F391FB6
:1010100007C08217930734F48C819D81281B390BFC
:101020003983288368817981CE010696DF91CF913B
:101030001F910F91FF900C94BE02DF91CF911F91F1
:101040000F91FF9008950F931F93CF93DF93EC01BF
:101050004D895E89461757072CF4898D9A8D9A879A
:10106000898720C0EB89FC890F89188D6E177F074F
:101070001CF41A87098716C09B012E1B3F0BA98DF4
:10108000BA8DA01BB10B0E94AF249A012E1B3F0BFF
:10109000032E000C440B550B0E945920200F311FCA
:1010A0003A872987DF91CF911F910F910895FC0115
:1010B000128611862CED35E0338322833183208321
:1010C0006CED75E006960C94BE026536710514F061
:1010D00064E670E077FF02C060E070E0660F771FA3
:1010E000660F771F2CED35E0261B370BFC01328B8A
:1010F000218B64527A4F708B678708958F929F92ED
:10110000AF92BF92EF92FF920F931F93CF93DF9313
:10111000EC017B018B01000F111F000F111F0C0F41
:101120001D1FF80166857785808991890E942A2292
:101130004B015C01CE01825A9F4F0E946508B401A9
:10114000CE018D5B9F4F0E946508B401CE018C5685
:101150009F4F0E946508B401CE0187589F4F0E949F
:101160006508F801628D738D848D958D0E942A2209
:101170004B015C01CE0181559F4F0E946508B4016F
:10118000CE0186539F4F0E946508B401CE018B515A
:101190009F4F0E946508C259DE4FF982E882DF91B5
:1011A000CF911F910F91FF90EF90BF90AF909F90C4
:1011B0008F9008951F920F920FB60F921124CF9225
:1011C000DF92EF92FF920F931F932F933F934F93D2
:1011D0005F936F937F938F939F93AF93BF93CF93BF
:1011E000DF93EF93FF938EB58093600180915F0151
:1011F000882349F08FEF8EBD10925F0110925E013F
:1012000010925D0118C0E0915D01F0915E01EA5B12
:10121000FE4F80818EBD80915D0190915E01843092
:10122000910521F481E080935F0105C001969093C0
:101230005E0180935D01E0916001E11104C081E0F5
:1012400080935C0171C1EF3F21F481E080935B01E9
:101250006BC180915C01882309F475C08E2F90E0EA
:10126000FC013497E231F10508F06AC0EC5CFF4FF5
:101270000C94A92480915904882379F010921C03BE
:1012800010921B0310921E0310921D031092200354
:1012900010921F031092590453C080916504882353
:1012A00009F44EC081E0809359048093230348C021
:1012B0008DEC9CECACE4BFE380935F0490936004FE
:1012C000A0936104B09362043BC010925F0410923B
:1012D0006004109261041092620432C08AE999E9B4
:1012E000A9E1BFE304C080E090E0A0E8BFE3809301
:1012F0005B0490935C04A0935D04B0935E0420C0F3
:1013000010925B0410925C0410925D0410925E04D3
:1013100017C062E070E002C061E070E085EF92E02B
:101320000E947E080DC060E070E0F8CF80915A0402
:10133000882319F010925A0403C081E080935A0464
:1013400010925C01EDC080915B01882309F4ECC030
:10135000C0915901D0915A01C130D10509F456C04C
:101360001CF4209789F0D3C0C230D10509F490C095
:10137000C330D10509F0CBC0F0E0EF57F109F0938D
:101380002203E0932103C3C0F0E08F010F5711093E
:10139000B801012E000C880B990B0E9462226B0190
:1013A0007C01609130037091310380913203909100
:1013B0003303A70196010E94AC2318164CF46091E8
:1013C000300370913103809132039091330316C042
:1013D0006091340370913503809136039091370307
:1013E000A70196010E94AE2187FF0BC060913403D4
:1013F0007091350380913603909137030E942A2221
:101400008B0110931C0300931B0381C0F0E08F013C
:101410000F571109B801012E000C880B990B0E947F
:1014200062226B017C0160913003709131038091E5
:10143000320390913303A70196010E94AC23181642
:101440004CF460913003709131038091320390919C
:10145000330316C020913403309135034091360395
:1014600050913703C701B6010E94AC2318165CF4F3
:101470006091340370913503809136039091370366
:101480000E942A228B0110931E0300931D033FC06C
:10149000F0E08F010F571109B801012E000C880BE5
:1014A000990B0E9462226B017C01209130033091E4
:1014B000310340913203509133030E94AE2187FFE4
:1014C00009C0609130037091310380913203909193
:1014D000330316C020913403309135034091360315
:1014E00050913703C701B6010E94AC2318165CF473
:1014F00060913403709135038091360390913703E6
:101500000E942A228B011093200300931F0321962F
:10151000D0935A01C0935901249734F010925B0183
:1015200010925A0110925901FF91EF91DF91CF91E2
:10153000BF91AF919F918F917F916F915F914F91EB
:101540003F912F911F910F91FF90EF90DF90CF90DF
:101550000F900FBE0F901F901895CF93DF93EC0163
:1015600080913D028C3098F491E0980F90933D0269
:101570008E8390E0FC01EE0FFF1F8E0F9F1FFC017A
:10158000E75EFD4F88EB9BE09283818302C08FEF83
:101590008E837C8B6B8B5E8B4D8BC9012135310526
:1015A00014F080E590E097FF02C080E090E0880FA3
:1015B000991F880F991F22273327281B390B388F33
:1015C0002F8B9A8F898F1A86198660E070E0CE0182
:1015D0000E94650884E090E09D838C838CED95E00B
:1015E000998388839B838A838FEF9FEF9E878D8764
:1015F000DF91CF910895AF92BF92CF92DF92EF9299
:10160000FF920F931F93CF93DF938B01BC018091C7
:10161000C2049091C3040E941B0540E06EEB8091D0
:10162000C2049091C3040E94E704E801680189E0C4
:10163000C80ED11CA090C204B090C30488E0E82E6C
:10164000F12C10E001E0C5010E9494048111102BDF
:10165000000F81E0E81AF108B1F71993CC16DD0606
:1016600049F78091C2049091C3040E943A0591E029
:10167000813009F090E0892FDF91CF911F910F9178
:10168000FF90EF90DF90CF90BF90AF9008950F93B1
:101690001F93CF93DF93CDB7DEB729970FB6F8949A
:1016A000DEBF0FBECDBF8C018091C2049091C304F8
:1016B0000E943A05882309F1BE016F5F7F4FC80180
:1016C0000E94FB0A8823C9F068E0CE0101960E94BF
:1016D0007C049985891311C08D818F3361F020F4CA
:1016E0008F3159F489E00CC08F3519F08F3739F0FC
:1016F00004C08BE005C08AE003C080E001C08CE03C
:1017000029960FB6F894DEBF0FBECDBFDF91CF9103
:101710001F910F910895BF92CF92DF92EF92FF92A7
:101720000F931F93CF93DF93EC016B018D85811194
:1017300005C0CE010E943A05811105C01B861D8699
:101740001C8680E060C040E060EFCE010E94E704AC
:1017500001E0E12CB12C11E0CE010E949404F82E9E
:10176000CE010E94940491E0F91203C08130B1F4DB
:1017700034C02E2D30E0F8121BC08B85181738F4BA
:10178000FE01E20FF31F8381802341F402C0811721
:1017900029F0F12C193058F41C8709C0FE01EE0D18
:1017A000F11D8381802B8383FF24F39409C0B12E24
:1017B000FE01E20FF31F9381802F8095892383839D
:1017C0006F2DCE010E94B8041F5F000F11F4E39447
:1017D00001E087E08E1508F0BFCF113408F4AECFDA
:1017E000BB86B11002C081E08D878B81882309F40C
:1017F000A5CFDE011396F6012B968D918193CA1722
:10180000DB07D9F781E0DF91CF911F910F91FF9016
:10181000EF90DF90CF90BF9008950F931F93CF93D9
:101820008C01E091C204F091C304138615861486DE
:10183000DF011B96CF0103961E92A817B907E1F7A7
:10184000B801CF010E948B0BC82F882339F067E0C5
:10185000C8010E947C04F80197818913C0E08C2F95
:10186000CF911F910F910895909118029111FCCF83
:1018700091E090931802409317022FEF20931602E5
:1018800010921502260F2093140290931302909148
:101890001302880F892B80931302809112028130EA
:1018A00061F410921202809113028093BB00809128
:1018B000BC0083FDF8CF85EC01C085EE8093BC00B1
:1018C000809118028130E1F380911502861710F49F
:1018D00060911502A2EFB1E0E2EDF1E080E0861741
:1018E00021F09D9191938F5FFACF0895282F309129
:1018F000D101313208F04AC0809118028111FCCF29
:101900009091D00442E040931802209317022FEFE9
:10191000209316021092150230931402E1EBF1E0CD
:10192000A2EFB1E020E0321721F041914D932F5FFB
:10193000FACF1092130220911302990F922B9093D9
:10194000130290911202913061F410921202909160
:1019500013029093BB009091BC0093FDF8CF95ECDF
:1019600001C095EE9093BC00909118029230E1F383
:10197000909116029F3F79F080911602803241F0DB
:1019800080911602803331F084E005C081E003C00D
:1019900082E001C083E01092B0011092D101109258
:1019A000AF01089591E09093AF018093D00410921D
:1019B000B0011092D1010895813208F080E241E037
:1019C000682F86E70E94340C1092AE018093AD011F
:1019D000089581E00C94760C682F8BED92E00C94C6
:1019E0008B024F925F926F927F928F929F92AF92F3
:1019F000BF92CF92DF92EF92FF92CF93DF93CDB75A
:101A0000DEB7A4970FB6F894DEBF0FBECDBFC0906F
:101A1000B304D090B404E090B504F090B604809183
:101A2000A3049091A404A091A504B091A604BC01C4
:101A3000CD019058A70196010E94B9232B013C01CA
:101A40008091A7049091A804A091A904B091AA0440
:101A5000BC01CD019058A70196010E94B9234B010A
:101A60005C012091AB043091AC044091AD045091E5
:101A7000AE04C701B6010E94B9236B017C01C3010A
:101A8000B2010E94B3216D837E838F839887C50145
:101A9000B4010E94B32169877A878B879C87C7012D
:101AA000B6010E94B3216D877E878F87988B8091C6
:101AB0008F0490919004A0919104B0919204898B2D
:101AC0009A8BAB8BBC8BBC01CD010E94B3216D8B7B
:101AD0007E8B8F8B988F80918B0490918C04A0913A
:101AE0008D04B0918E04898F9A8FAB8FBC8FBC010F
:101AF000CD010E94B32169837A838B839C83C301C8
:101B0000B2010E9426246D8F7E8F8F8F98A3C5010E
:101B1000B4010E94262469A37AA38BA39CA3C701C6
:101B2000B6010E9426242B013C0169897A898B89A0
:101B30009C890E942624698B7A8B8B8B9C8B698D68
:101B40007A8D8B8D9C8D0E9426246B017C012981CE
:101B50003A814B815C816D857E858F8598890E9455
:101B6000B92329893A894B895C890E94B9234B01A1
:101B70005C01A7019601C301B2010E94B9239B0138
:101B8000AC01C501B4010E94B5204B015C01A70165
:101B900096016D857E858F8598890E94B9236B019A
:101BA0007C01A301920169817A818B819C810E94D1
:101BB000B92329893A894B895C890E94B9239B0101
:101BC000AC01C701B6010E94B4206D877E878F8764
:101BD000988B9B01AC0169A17AA18BA19CA10E9469
:101BE000B9236B017C0129813A814B815C81698534
:101BF0007A858B859C850E94B9232D893E894F89E2
:101C0000588D0E94B9239B01AC01C701B6010E9407
:101C1000B4202B013C016D8D7E8D8F8D98A1905845
:101C2000A50194010E94B9236B017C01A3019201DB
:101C30006D817E818F8198850E94B9239B01AC01C3
:101C4000C701B6010E94B4206B017C01A50194017B
:101C50006D817E818F8198850E94B9234B015C0143
:101C6000A30192016D8D7E8D8F8D98A10E94B92365
:101C70009B01AC01C501B4010E94B4204B015C0181
:101C8000A70196010E944F216D837E838F839887E1
:101C900060938F04709390048093910490939204C6
:101CA000A5019401C501B4010E94B9234B015C0157
:101CB000A7019601C701B6010E94B9239B01AC019F
:101CC000C501B4010E94B5206B017C0120E030E029
:101CD000A9010E94AC23181624F0F7FAF094F7F843
:101CE000F094C701B6010E9434246B017C01298164
:101CF0003A814B815C816D897E898F89988D0E94A4
:101D0000B92329A13AA14BA15CA10E94B9234B019F
:101D10005C012D853E854F85588969857A858B853F
:101D20009C850E94B9239B01AC01C501B4010E94AE
:101D3000B520A70196010E944F2169877A878B877A
:101D40009C8760938B0470938C0480938D04909394
:101D50008E048091970490919804A0919904B09179
:101D60009A0489839A83AB83BC8340909B045090F0
:101D70009C0460909D0470909E0480909F049090BD
:101D8000A004A090A104B090A2049C01AD01BC01EC
:101D9000CD010E94B9236B017C01A3019201C30113
:101DA000B2010E94B9239B01AC01C701B6010E9498
:101DB000B5206B017C01A5019401C501B4010E940D
:101DC000B9239B01AC01C701B6010E94B5206B018C
:101DD0007C0120E030E0A9010E94AC23181624F019
:101DE000F7FAF094F7F8F094C701B6010E94342492
:101DF0006B017C0126E636E646E65FE30E94AC23F3
:101E000018160CF063C02DEC3CEC4CE85FE3C70106
:101E1000B6010E94AE2187FF59C0A5019401C301FC
:101E2000B2010E944F212B013C0169817A818B8193
:101E30009C819058A70196010E94B8210E942121FF
:101E40006B017C012DEC3CEC4CE45FE36D817E8109
:101E50008F8198850E94B9234B015C012DEC3CECED
:101E60004CE45EE3C301B2010E94B9239B01AC01C3
:101E7000C501B4010E94B52060938F047093900453
:101E800080939104909392042DEC3CEC4CE45FE33E
:101E900069857A858B859C850E94B9234B015C01FD
:101EA0002DEC3CEC4CE45EE3C701B6010E94B92383
:101EB0009B01AC01C501B4010E94B52060938B0465
:101EC00070938C0480938D0490938E04A4960FB627
:101ED000F894DEBF0FBECDBFDF91CF91FF90EF90A2
:101EE000DF90CF90BF90AF909F908F907F906F903A
:101EF0005F904F90089590E0FC01E85BFE4F2491C5
:101F0000FC01E658FE4F3491FC01EA59FE4FE49182
:101F1000EE2309F43CC0222339F1233091F038F448
:101F20002130A9F0223001F584B58F7D12C0273011
:101F300091F02830A1F02430B9F4809180008F7D99
:101F400003C0809180008F77809380000DC084B59E
:101F50008F7784BD09C08091B0008F7703C08091D6
:101F6000B0008F7D8093B000F0E0EE0FFF1FE25CC9
:101F7000FE4FA591B4919FB7F894611104C08C9164
:101F80003095382302C0EC913E2B3C939FBF0895BF
:101F9000CF93DF9390E0FC01E658FE4F2491FC01C3
:101FA000EA59FE4F8491882361F190E0880F991FD0
:101FB000FC01EC5CFE4FC591D491FC01E25CFE4F4C
:101FC000A591B491611109C09FB7F89488812095BB
:101FD00082238883EC912E230BC0623061F49FB77B
:101FE000F8948881322F309583238883EC912E2BAF
:101FF0002C939FBF06C08FB7F894E8812E2B2883BF
:102000008FBFDF91CF9108953FB7F8948091A901D8
:102010009091AA01A091AB01B091AC0126B5A89B0B
:1020200005C02F3F19F00196A11DB11D3FBFBA2F6A
:10203000A92F982F8827820F911DA11DB11DBC01CA
:10204000CD0142E0660F771F881F991F4A95D1F78F
:1020500008958F929F92AF92BF92CF92DF92EF92AC
:10206000FF926B017C010E9404104B015C01C114C2
:10207000D104E104F104F1F00E940410DC01CB0171
:1020800088199909AA09BB09883E9340A105B105A1
:1020900070F321E0C21AD108E108F10888EE880E39
:1020A00083E0981EA11CB11CC114D104E104F10409
:1020B00019F7DDCFFF90EF90DF90CF90BF90AF90FA
:1020C0009F908F9008952FB7F8946091A50170911B
:1020D000A6018091A7019091A8012FBF08958F922A
:1020E0009F92AF92BF92CF92DF92EF92FF920F93A7
:1020F0001F93CF93DF937C01FC018081803141F0FD
:10210000C7010E94470BC82F882309F457C001C09C
:10211000CCE08091C2049091C3040E943A05B701BB
:102120008091C2049091C3040E941B054091BC049D
:1021300064E48091C2049091C3040E94E704D091AA
:10214000BE04DD23E9F1C950C33048F4EC2FF0E0C0
:10215000EE0FFF1FE85EFE4F0081118102C00EEE00
:1021600012E08091BF04882311F18091BC04811199
:102170001EC00E9463104B015C016801110FEE0844
:10218000FF088091C2049091C3040E94940481309E
:10219000B9F00E946310DC01CB018C199D09AE09D6
:1021A000BF0988159905AA05BB0558F309C0B801F0
:1021B000110F880B990B0E94291003C0D0E001C0B9
:1021C000D1E08D2FDF91CF911F910F91FF90EF9074
:1021D000DF90CF90BF90AF909F908F9008951F9207
:1021E0000F920FB60F9211242F933F938F939F93CB
:1021F000AF93BF938091A5019091A601A091A701F3
:10220000B091A8013091DF0423E0230F2D3720F493
:102210000196A11DB11D05C026E8230F0296A11D40
:10222000B11D2093DF048093A5019093A601A09394
:10223000A701B093A8018091A9019091AA01A09152
:10224000AB01B091AC010196A11DB11D8093A90114
:102250009093AA01A093AB01B093AC01BF91AF9151
:102260009F918F913F912F910F900FBE0F901F90D4
:102270001895CF93DF93CDB7DEB7C854D1090FB609
:10228000F894DEBF0FBECDBF789484B5826084BD64
:1022900084B5816084BD85B5826085BD85B581606A
:1022A00085BD80916E00816080936E0010928100E8
:1022B00080918100826080938100809181008160A3
:1022C0008093810080918000816080938000809164
:1022D000B10084608093B1008091B00081608093F0
:1022E000B00080917A00846080937A0080917A00B7
:1022F000826080937A0080917A00816080937A0076
:1023000080917A00806880937A001092C100E091F9
:102310004E02F0914F0282E08083E0914A02F091F8
:102320004B021082E0914C02F0914D028FEC8083C1
:1023300010925602E0915202F091530286E080839F
:10234000E0915002F0915102808180618083E091A0
:102350005002F0915102808188608083E0915002A8
:10236000F0915102808180688083E0915002F09169
:10237000510280818F7D80831092AE011092AD0159
:102380001092B0011092D1011092180211E0109336
:1023900017021092120261E082E10E947B0F61E05D
:1023A00083E10E947B0F8091B9008E7F8093B900FA
:1023B0008091B9008D7F8093B90088E48093B80044
:1023C00085E48093BC0080E392E090934501809384
:1023D000440181E392E0909343018093420188E6B7
:1023E0000E94D20C8BE690E00E94EC0C80E090E022
:1023F0000E94EC0C81E00E94760C64E670E080E0C4
:1024000090E00E9429101093860480E090E4A9E7F0
:10241000B4E48093870490938804A0938904B093D4
:102420008A0486E70E94D20C8EE190E00E94EC0CB8
:102430000E94E90C6AE070E080E090E00E942910C0
:1024400066E6E62E64E0F62E00EA10E086E70E94DB
:10245000D20CC8010E94EC0C0E94E90C41E062E041
:1024600086E70E94340C1092AE018093AD018BED93
:1024700092E00E944202B82E8BED92E00E9442024E
:10248000DB2CC12C8C299D29D7018D939D937D0137
:102490000E5F1F4F0E3A1105C9F6809166049091A8
:1024A00067049F709093670480936604109275048C
:1024B0001092740464E670E080E090E00E942910BD
:1024C00068E070E084EA93E00E94210767E070E032
:1024D0008FEB93E00E94210764E070E08AED93E0C7
:1024E0000E94210765E070E083E593E00E942107E8
:1024F00066E070E088E393E00E94210763E070E00B
:1025000089E893E00E94210762E070E08EE693E0A4
:102510000E94210710921C0310921B0310921E03AD
:1025200010921D031092200310921F031092590461
:102530001092230310925A0460E070E085EF92E05D
:102540000E947E0881E08093650468EE73E080E07D
:1025500090E00E942910F89461E08CE00E94C80F7E
:102560008CB580648CBD8FEF8EBD8CB580688CBDC2
:1025700078948CE090E0A0E0B0E08093E702909344
:10258000E802A093E902B093EA0287EE92E00E948B
:102590009905E091C204F091C30413861586148650
:1025A000DF011B9633961E92AE17BF07E1F710921C
:1025B000C0041092C10401E0BE016F5F7F4F8091A3
:1025C000C2049091C3040E948B0B882309F46CC051
:1025D00067E0CE0101960E947C0498858913ECCFB8
:1025E0008091BC04811128C08091C2049091C304E1
:1025F0000E943A05BE016F5F7F4F8091C2049091A7
:10260000C3040E941B0540E064EB8091C2049091DA
:10261000C3040E94E7048091C2049091C3040E9405
:102620009404182F8091C2049091C3040E943A052B
:10263000112311F40C94281D1091BD04898180315F
:1026400011F40C94031ECE0101960E94470B8117D2
:1026500018F48091BD0409C08981803111F48CE0A7
:1026600004C0CE0101960E94470B8093BD04809167
:10267000C0048F5F8093C0048981883211F40C9468
:102680002C1D48F4803111F40C942C1D823209F079
:1026900093CF0C942C1D8B3311F40C942C1D82348D
:1026A00009F08ACF0C942C1D1092BE04CE01019625
:1026B0000E940D0CCE0101960E946F1087EE92E0F1
:1026C0000E9471058091F3029091F402019711F03C
:1026D0000C94241D87EE92E00E9499050E946310DD
:1026E0006B017C01CE010A960E940D0C8823B1F08B
:1026F0008091C2049091C3040E943A05882371F02E
:10270000BE016F5F7F4FCE010A960E94FB0A8823AD
:1027100029F068E0CE0101960E947C04CE0101966A
:102720000E940D0CCE0101960E946F100E94631052
:102730006C197D098E099F090E9462226FAB78AFE8
:1027400089AF9AAF60935101709352018093530106
:10275000909354010E94041000914D0110914E017C
:1027600020914F0130915001DC01CB01801B910B76
:10277000A20BB30B81329E44A105B10560F00E940B
:10278000041060934D0170934E0180934F0190931C
:10279000500181E001C080E020914B0130914C015B
:1027A000232B99F4882389F086E70E94D20C8AE4CF
:1027B00090E00E94EC0C0E94E90CEE24E394F12CD2
:1027C000F0924C01E0924B0180E020914B0130915E
:1027D0004C012130310509F068C0882309F465C037
:1027E00086E70E94D20C80E090E00E94EC0C0E94F0
:1027F000E90C83E090E00E94DC0C109276041092C9
:10280000770410927804109279048BED92E00E9484
:1028100042024C01990FAA08BB088092760490925C
:102820007704A0927804B09279048BED92E00E9434
:102830004202BA2CA92C982C88246C01990FEE081E
:10284000FF08C828D928EA28FB28C0927604D0922D
:102850007704E0927804F09279048BED92E00E9484
:102860004202FE2CED2CDC2CCC24092E000CAA0BF1
:10287000BB0BC82AD92AEA2AFB2AC0927604D09236
:102880007704E0927804F092790486E70E94D20CF3
:102890008AE590E00E94EC0C0E94E90C02E010E056
:1028A00010934C0100934B0180E020914B0130913B
:1028B0004C012230310509F093C4882309F490C4F7
:1028C00086E70E94D20C80E090E00E94EC0C0E940F
:1028D000E90C83E090E00E94DC0C10927A041092E4
:1028E0007B0410927C0410927D048BED92E00E9498
:1028F00042024C01990FAA08BB0880927A04909278
:102900007B04A0927C04B0927D048BED92E00E9447
:102910004202BA2CA92C982C88246C01990FEE083D
:10292000FF08C828D928EA28FB28C0927A04D09248
:102930007B04E0927C04F0927D048BED92E00E9497
:102940004202FE2CED2CDC2CCC24092E000CAA0B10
:10295000BB0BC82AD92AEA2AFB2AC0927A04D09251
:102960007B04E0927C04F0927D048091700490914D
:102970007104A0E0B0E0BA2FA92F982F8827A701F3
:102980009601281B390B4A0B5B0B2A8B3B8B4C8B1C
:102990005D8B309186043EABE0916C04F0916D0448
:1029A000E0906804F09069044091760450917704B7
:1029B00060917804709179044AAB5BAB6CAB7DABF2
:1029C000313009F08BC0970140E050E060E070E0EA
:1029D00080E090E000E10E94512519012A013B01AD
:1029E0004C01BF0180E090E02A893B894C895D89D8
:1029F0000E941725F22E032F142FB52FF62FE72F45
:102A0000D82EE92EA0E00E94A6255CF4AFE70E9434
:102A10009125F22E032F142FB52FF62FE72FD82E46
:102A2000E92E2F2D302F412F5B2F6F2F7E2F8D2DD5
:102A30009E2D07E00E946A2559016A017B018C01E5
:102A40009101A201B301C4010E9488252EA33FA3D6
:102A500048A759A76AA77BA78CA79DA7E0916E04FA
:102A6000F0916F0480906A0490906B04940140E0B0
:102A700050E060E070E080E090E001E10E945125CC
:102A800019012A013B014C01BF0180E090E02A8935
:102A90003B894C895D890E941725F22E032F142F44
:102AA000B52FF62FE72FD82EE92EA0E00E94A625FD
:102AB0005CF4AFE30E949125F22E032F142FB52F63
:102AC000F62FE72FD82EE92E2F2D302F412F5B2FF9
:102AD0006F2F7E2F8D2D9E2D06E094C0BF0180E0CC
:102AE00090E02A893B894C895D890E941725D22E66
:102AF000032F142FB52FF62FE72FB82EC92EA0E0E5
:102B00000E94A62584F421503F4F4F4F5F4F6F4FD7
:102B10007F4F8F4F9F4FD22E032F142FB52FF62F9D
:102B2000E72FB82EC92E2D2D302F412F5B2F6F2F61
:102B30007E2F8B2D9C2D08E00E946A2539014A01C9
:102B4000B62FA72FF82FE92FC12CD12C9701A60162
:102B500060E070E080E090E00FE00E9451255901B4
:102B60006A017B018C019301A4016B2F7A2F8F2FB7
:102B70009E2F0E9488252EA33FA348A759A76AA786
:102B80007BA78CA79DA7E0916E04F0916F048090C5
:102B90006A0490906B04940140E050E060E070E0C3
:102BA00080E090E000E10E94512519012A013B01DB
:102BB0004C01BF0180E090E02A893B894C895D8906
:102BC0000E941725F22E032F142FB52FF62FE72F73
:102BD000D82EE92EA0E00E94A6255CF4AFE70E9463
:102BE0009125F22E032F142FB52FF62FE72FD82E75
:102BF000E92E2F2D302F412F5B2F6F2F7E2F8D2D04
:102C00009E2D07E00E946A2559016A017B018C0113
:102C10009101A201B301C4010E9488252AA33BA30C
:102C20004CA35DA36EA77FA788AB99AB4A885B884E
:102C30006C887D88770C4408542C320160917204B2
:102C40007091730480E090E02A893B894C895D890A
:102C50000E941725F22E032F142FB52FF62FE72FE2
:102C6000D82EE92EA0E00E94A62584F42150310937
:102C700040485F4F6F4F7F4F8F4F9F4FF22E032F74
:102C8000142FB52FF62FE72FD82EE92E2F2D302F0A
:102C9000412F5B2F6F2F7E2F8D2D9E2D07E10E94E0
:102CA0006A2549015A01950184010053184F2F4F9D
:102CB0003F4F0E8F1F8F28A339A31EA9113009F093
:102CC0007EC02E8D3F8D48A159A1203D3740410542
:102CD00051050CF038C16A897B898C899D892BE06C
:102CE00030E040E050E00E941725AA88BB88CC88DD
:102CF000DD88E42CF42C042D142D0E94BE24F22E29
:102D0000032F142FB52FF62FE72FD82EE92EA0E092
:102D10000E94A62584F42150310941095109684FC8
:102D20007F4F8F4F9F4FF22E032F142FB52FF62F6B
:102D3000E72FD82EE92E2F2D302F412F5B2F6F2F0D
:102D40007E2F8D2D9E2D03E20E946A252A8B3B8BC0
:102D50004C8B5D8BAFE1B0E08E8C9F8CA8A0B9A0AE
:102D600070ED871A77E0970AA108B108A5019401D0
:102D70000E9478209B01AC01C501B4010E948D2402
:102D80007B018C01F3E015950795F794E794FA958C
:102D9000D1F7AFE3B0E0A50194010E9478209B0138
:102DA000AC01C501B4010E948D242B013C01A5E0BA
:102DB0007594679457944794AA95D1F7CEC08E8D99
:102DC0009F8DA8A1B9A1803D9740A105B1050CF048
:102DD000A6C06A897B898C899D8923E030E040E028
:102DE00050E00E941725AA88BB88CC88DD88E42C97
:102DF000F42C042D142D0E94BE24F22E032F142F28
:102E0000B52FF62FE72FD82EE92EA0E00E94A62599
:102E100084F421503109410951096E4F7F4F8F4F82
:102E20009F4FF22E032F142FB52FF62FE72FD82EFA
:102E3000E92E2F2D302F412F5B2F6F2F7E2F8D2DC1
:102E40009E2D01E20E946A252A8B3B8B4C8B5D8B69
:102E5000A3E0B0E08E8C9F8CA8A0B9A0F0ED8F1AF3
:102E6000F7E09F0AA108B108A50194010E9478200B
:102E70009B01AC01C501B4010E948D247B018C0132
:102E800015950795F794E794A5E0B0E0A5019401A6
:102E90000E9478209B01AC01C501B4010E948D24E1
:102EA0002B013C01E3E07594679457944794EA95AD
:102EB000D1F72E8D3F8D48A159A1213C69EF3607EE
:102EC0006FEF460756070CF048C0A7E0B0E0490195
:102ED0005A017CED870E75E0971EA11CB11CA5015F
:102EE00094010E9478209B01AC01C501B4010E94AD
:102EF0008D24E60EF71E081F191FA501940162E03C
:102F0000220F331F441F551F6A95D1F7C501B40125
:102F10000E948D24460E571E681E791E1EC0A501F4
:102F20009401C501B4010E948D247B018C0144E011
:102F300015950795F794E7944A95D1F71A8A1B8A55
:102F40001C8A1D8A07C01A8A1B8A1C8A1D8AE12CCA
:102F5000F12C8701412C512C3201D801C701BB0F44
:102F6000880B982FDC018A8F9B8FAC8FBD8F2AA195
:102F70003BA14CA15DA16EA57FA588A999A9570188
:102F80006801EA8CFE2C0E2D1E2D0E949D25922E8E
:102F9000832E342E252E6AA37BA38CA39DA38301AD
:102FA0007201110FEE08FE2C8701EA8EFB8E0C8F4A
:102FB0001D8F2EA13FA148A559A56AA57BA58CA56B
:102FC0009DA552016301EA8CFE2C0E2D1E2D0E9440
:102FD0009D2559016A017B018C018E8D9F8DA8A1D1
:102FE000B9A12A893B894C895D89821B930BA40B6B
:102FF000B50B80937E0490937F04A0938004B093DC
:1030000081043EA9313009F070C06AA97BA98CA95E
:103010009DA9AB01BC0180E090E0DC014A8B5B8B99
:103020006C8B7D8B8E8B9F8BA88FB98F9A01AB0198
:1030300060E070E080E090E00E94BE24F22E032F5A
:10304000142FB52FF62FE72FD82EE92EA0E00E94DF
:10305000A62584F421503109404E5F4F6F4F7F4FBA
:103060008F4F9F4FF22E032F142FB52FF62FE72FE0
:10307000D82EE92E2F2D302F412F5B2F6F2F7E2F33
:103080008D2D9E2D05E10E946A25A92CB82CC32CFC
:10309000D22CEAA0FBA00CA11DA10E949D25F22E1E
:1030A000032F142FB52FF62FE72FD82EE92EA0E0EF
:1030B0000E94A62584F4215030484F4F5F4F6F4F38
:1030C0007F4F8F4F9F4FF22E032F142FB52FF62FC8
:1030D000E72FD82EE92E2F2D302F412F5B2F6F2F6A
:1030E0007E2F8D2D9E2D0FE06DC04AA95BA96CA986
:1030F0007DA99A01AB0160E070E0CB012A8B3B8B8C
:103100004C8B5D8B6E8B7F8B888F998F60E070E02E
:1031100080E090E00E94BE24F22E032F142FB52FE2
:10312000F62FE72FD82EE92EA0E00E94A62584F4E2
:1031300021503109404E5F4F6F4F7F4F8F4F9F4F50
:10314000F22E032F142FB52FF62FE72FD82EE92EAE
:103150002F2D302F412F5B2F6F2F7E2F8D2D9E2DEA
:1031600005E10E946A25A92CB82CC32CD22CEAA018
:10317000FBA00CA11DA10E949D25F22E032F142F50
:10318000B52FF62FE72FD82EE92EA0E00E94A62516
:1031900084F42150304E4F4F5F4F6F4F7F4F8F4F12
:1031A0009F4FF22E032F142FB52FF62FE72FD82E77
:1031B000E92E2F2D302F412F5B2F6F2F7E2F8D2D3E
:1031C0009E2D0DE00E946A25209382043093830493
:1031D000409384045093850410924C0110924B014B
:1031E00080918604813079F4609182047091830427
:1031F00080918404909185040E94622220E030E056
:1032000048EC52E40EC06091820470918304809176
:103210008404909185040E94622220E030E040E224
:1032200051E40E94B8216093550170935601809338
:1032300057019093580188E60E94D20C8BE390E0EE
:103240000E94EC0C80E00E94760C41E06EE088E683
:103250000E94340C1092AE018093AD018BED92E090
:103260000E944202182F8BED92E00E9442021CAF96
:103270001BAE6BAD7CAD862B972BBC01990F880BD9
:10328000990B0E9462226093970470939804809334
:10329000990490939A048BED92E00E944202182FB9
:1032A0008BED92E00E9442021EAF1DAEADADBEADF1
:1032B0008A2B9B2BBC01990F880B990B0E946222D1
:1032C00060939B0470939C0480939D0490939E0450
:1032D0008BED92E00E944202182F8BED92E00E944B
:1032E000420221961FAF21971FAE2196EEADFFAD92
:1032F00021978E2B9F2BBC01990F880B990B0E9455
:10330000622260939F047093A0048093A104909321
:10331000A2048BED92E00E944202182F8BED92E006
:103320000E94420223961FAF239722961FAE229738
:103330002396EEACFFAC23978E299F29BC01990FF1
:10334000880B990B0E9462226093930470939404FB
:1033500080939504909396048BED92E00E94420234
:10336000182F8BED92E00E94420225961FAF259701
:1033700024961FAE249725960EAD1FAD2597802B62
:10338000912BBC01990F880B990B0E9462226093CC
:10339000A3047093A4048093A5049093A6048BEDDA
:1033A00092E00E944202182F8BED92E00E944202AE
:1033B00027961FAF279726961FAE269727962EADE6
:1033C0003FAD2797822B932BBC01990F880B990B4C
:1033D0000E9462226093A7047093A8048093A904BA
:1033E0009093AA048BED92E00E944202F82E8BED9E
:1033F00092E00E9442028C0120E030E04AEA53E46D
:103400006091930470919404809195049091960436
:103410000E94B82128EB3EE142E152E40E94B5202F
:10342000609393047093940480939504909396040E
:1034300023E333EF48EA53E46091970470919804D2
:103440008091990490919A040E94B42090582AE1A6
:103450003CEA42E856E40E94B821609397047093D6
:1034600098048093990490939A0422EB3DE84FECE2
:1034700053E460919B0470919C0480919D04909111
:103480009E040E94B42090582DE934EF4CE756E496
:103490000E94B82160939B0470939C0480939D04C8
:1034A00090939E0429EC3EE84FEC54E460919F0415
:1034B0007091A0048091A1049091A2040E94B42074
:1034C00024E137EC45E856E40E94B82160939F045C
:1034D0007093A0048093A1049093A20429E831EA98
:1034E0004EEA53E46091A3047091A4048091A50472
:1034F0009091A6040E94B420905820E030E44CE162
:1035000055E40E94B8216093A3047093A4048093AF
:10351000A5049093A6042EE03DE84AE153E46091AF
:10352000A7047091A8048091A9049091AA040E9414
:10353000B420905820E030E44CE155E40E94B821DA
:103540006093A7047093A8048093A9049093AA049D
:103550002996FFAE299728961FAE289729966EAD1B
:103560007FAD2997602B712B072E000C880B990BD0
:103570000E94622221ED32E240E353E40E94B52032
:1035800020E030E44CE155E40E94B8216093AB04A4
:103590007093AC048093AD049093AE040E94F10C40
:1035A0000E94F10C6FA978AD89AD9AAD0E943122CD
:1035B00060934901609155017091560180915701C6
:1035C0009091580120E030E045E754E40E94B42097
:1035D0000E94312260934A012AE939E949E450E422
:1035E00060918F0470919004809191049091920465
:1035F0000E94B52020E030E040E251E40E94B9236F
:103600000E943122609347012AE939E949E450E4F4
:1036100060918B0470918C0480918D0490918E0444
:103620000E94B52020E030E040E251E40E94B9233E
:103630000E9431226093460160919304709194043A
:1036400080919504909196040E94312260934801E4
:10365000D0905904D11011C088E393E00E9457081C
:1036600083E593E00E9457088EE693E00E94570896
:1036700089E893E00E945708F9C000911F03109158
:103680002003809163049091640481309105C9F016
:1036900068F0029729F5B801110F880B990B0E9469
:1036A00062222DEC3CEC4CEC5EE315C0B801110F2E
:1036B000880B990B0E9462222DEC3CEC4CE45FE3FA
:1036C0000AC0B801110F880B990B0E9462222AE9E7
:1036D00039E949E15FE30E94B9230E942A228B0164
:1036E00089E494E00E9471058091550490915604FC
:1036F000019729F489E494E00E94990501C0D12C36
:1037000080911B0390911C0320911D0330911E0397
:10371000821B930B800F911F2091F5023091F602CE
:10372000829FB001839F700D929F700D11244D2DCB
:1037300088E393E00E948B0780911D0390911E0304
:1037400020911B0330911C03919581959109821B57
:10375000930B801B910B2091F7023091F802829F0E
:10376000B001839F700D929F700D11244D2D83E544
:1037700093E00E948B0780911D0390911E0320917E
:103780001B0330911C03A801481B590BCA01821B63
:10379000930B2091F9023091FA02829F7001839F6E
:1037A000F00C929FF00C112480911B0390911C034C
:1037B00020911D0330911E03821B930B801B910BE4
:1037C0002091FB023091FC02829F8001839F100DAB
:1037D000929F100D11244D2DB7018EE693E00E94AB
:1037E0008B074D2DB80189E893E00E948B078091EB
:1037F0006304909164040297C9F56091530370913A
:1038000054038091380390913903680F791F809198
:10381000890390918A03680F791F80916E039091BC
:103820006F03680F791F8091A4039091A503680F1F
:10383000791F8091BF039091C003680F791F809119
:10384000DA039091DB03680F791F64507942072EE9
:10385000000C880B990B0E94622220E030E443E0C8
:1038600055E40E94AC2318160CF4FDC0409055019D
:103870005090560160905701709058018091590402
:1038800081110DC084EA93E00E9457088FEB93E00A
:103890000E9457088AED93E00E945708D5C06091B6
:1038A0008F047091900480919104909192046A8B9E
:1038B0007B8B8C8B9D8B80918B0490918C04A09141
:1038C0008D04B0918E048E8F9F8FA8A3B9A36091B1
:1038D0005F0470916004809161049091620420E023
:1038E00030E0A9010E94AC2318160CF42EC160919F
:1038F0005B0470915C0480915D0490915E0420E013
:1039000030E0A9010E94AC2318160CF41EC180916E
:103910002303882309F4CEC0109258041092570450
:103920001092230300912C0310912D0320912E035C
:1039300030912F03B301A2018DE294E00E94A9050A
:103940002B013C0177FA709477F87094212C312C7C
:1039500080915A04882309F4DCC06091210370919E
:103960002203072E000C880B990B0E9462226B0128
:103970007C01109245041092460410924704109264
:103980004804109241041092420410924304109291
:10399000440410920D0410920E0410920F04109221
:1039A00010041092090410920A0410920B04109251
:1039B0000C04412C512C320153014201A30192010C
:1039C000C701B6010E94B5206A8B7B8B8C8B9D8BC7
:1039D000A50194010E94B5200E942A228FEB93E05A
:1039E0000E942308A50194016A897B898C899D899D
:1039F0000E94B4200E942A2284EA93E00E942308B5
:103A0000A7019601C701B6010E94B5209B01AC0138
:103A1000C301B2010E94B4200E942A228AED93E0E1
:103A20000E94230841E0B1018FEB93E00E948B07D5
:103A300041E0B10184EA93E00E948B0741E0B101CB
:103A40008AED93E00E948B070E94F4010C945E13B0
:103A50000093BC040C941C138091C1048F5F80936D
:103A6000C1040C94DC12B701FF0C880B990B0E9467
:103A700062222DEC3CEC4CEC5EE30E94B9230E94E8
:103A80002A2241E08EE693E00E948B07B801110FD5
:103A9000880B990B0E9462222DEC3CEC4CEC5EE30F
:103AA0000E94B9230E942A2241E089E893E00E9403
:103AB0008B07DCCE809157049091580405970CF049
:103AC00031CF0E9404104B015C019B01A50160E015
:103AD00070E080E090E0A0902403B0902503C090B7
:103AE0002603D0902703E0902803F090290300914B
:103AF0002A0310912B030E949D25203C3742494008
:103B00005105610571058105910511F00CF045C065
:103B100009CF0AE017ED23EA3CE34A895B896C8907
:103B20007D8985EF93E00E94A9056B017C0100E08F
:103B300010E098014E8D5F8D68A179A181E194E03C
:103B40000E94A9054B015C0139CF81E080932303DA
:103B500060915B0470915C0480915D0490915E04BF
:103B600020915F043091600440916104509162049F
:103B7000C0903403D0903503E0903603F0903703C3
:103B80000E94B420A70196010E94B9230E942A2214
:103B90001B01412C512C3201DBCE40922C03509260
:103BA0002D0360922E0370922F030E9404108B014C
:103BB0009C016093240310932503209326033093E4
:103BC0002703109228031092290310922A031092BF
:103BD0002B03109245041092460410924704109251
:103BE000480410924104109242041092430410922F
:103BF000440480915704909158040196909358047E
:103C0000809357048FCE1D3010F00C9429130C9420
:103C10002F138F929F92AF92BF92CF92DF92EF922B
:103C2000FF92CF93DF93109241021092400288EEF0
:103C300093E0A0E0B0E08093420290934302A0930F
:103C40004402B093450222E231E030933F022093D8
:103C50003E0225EC30E030934B0220934A0224ECE4
:103C600030E030934D0220934C0220EC30E0309352
:103C70004F0220934E0221EC30E03093510220930A
:103C8000500222EC30E0309353022093520226EC93
:103C900030E0309355022093540210925702109254
:103CA00058021092590210925A021092DE0210929B
:103CB000DD028093DF029093E002A093E102B093D3
:103CC000E20284E391E09093DC028093DB0260E007
:103CD00082E00E94C80FECE7F1E0E491E093D104A8
:103CE000E8E6F1E0E491F0E0EE0FFF1FE45AFE4F4A
:103CF000859194919093D3048093D2041092DC0424
:103D00001092DE041092DD04ECEDF4E084ED94E01A
:103D100012928E179F07E1F781ED94E09093C30410
:103D20008093C2041092C0041092C1041092BC048B
:103D300089E08093BD0481E08093BE048093BF043A
:103D40001092CF041092CE0486EA882E8BE9982E2A
:103D500084E4A82E8CE3B82E8092B3049092B4042D
:103D6000A092B504B092B60480E090EAA0E8B4E472
:103D70008093870490938804A0938904B0938A0465
:103D80008FEF9FEF9093F6028093F5029093F802E5
:103D90008093F702C1E0D0E0D093FA02C093F90219
:103DA000D093FC02C093FB02D093FE02C093FD02AD
:103DB000D0930003C093FF02D0930203C09301038A
:103DC0008CE0E0E0F1E0A3E0B3E001900D928A9591
:103DD000E1F78CE0ECE0F1E0AFE0B3E001900D92B0
:103DE0008A95E1F780E090E0ACEFB2EC809330038D
:103DF00090933103A0933203B0933303C12CD12CA1
:103E00009EEFE92E92E4F92EC0923403D09235034E
:103E1000E0923603F092370320E030E04FE750E0C5
:103E200062E87FEF88E393E00E94AD0A20E030E093
:103E30004FE750E062E87FEF83E593E00E94AD0A30
:103E400020E030E04FE750E062E87FEF8EE693E05D
:103E50000E94AD0A20E030E04FE750E062E87FEFDB
:103E600089E893E00E94AD0A20E530E04FE750E09A
:103E700062E87FEF84EA93E00E94AD0A20E530E03B
:103E80004FE750E062E87FEF8FEB93E00E94AD0ACE
:103E900020E530E04FE750E062E87FEF8AED93E005
:103EA0000E94AD0A80E090E0A0E7B2E48093F503C1
:103EB0009093F603A093F703B093F8031092F903DD
:103EC0001092FA031092FB031092FC031092FD0370
:103ED0001092FE031092FF031092000480920104DE
:103EE00090920204A0920304B0920404C0920504CC
:103EF000D0920604E0920704F0920804109209049C
:103F000010920A0410920B0410920C0410920D04EB
:103F100010920E0410920F0410921004809311045A
:103F200090931204A0931304B093140410921504F8
:103F3000109216041092170410921804109219048B
:103F400010921A0410921B0410921C0480921D04FB
:103F500090921E04A0921F04B0922004C0922104EB
:103F6000D0922204E0922304F092240410922504BB
:103F7000109226041092270410922804109229040B
:103F800010922A0410922B0410922C0480E090E0EE
:103F9000A0E1B2E480932D0490932E04A0932F040B
:103FA000B09330048BE895ECA2EEB1E48093310439
:103FB00090933204A0933304B093340488E491EED8
:103FC000A6E3B1E48093350490933604A0933704BC
:103FD000B09338048092390490923A04A0923B0442
:103FE000B0923C04C0923D04D0923E04E0923F0463
:103FF000F092400410924104109242041092430443
:104000001092440410924504109246041092470402
:104010001092480410924D0410924E0410924F04D6
:1040200010925004109252041092510410925304B2
:1040300010925404D0935604C093550410925A041D
:10404000109265048EE190E0A0E0B0E08093490416
:1040500090934A04A0934B04B0934C0489E494E0F9
:104060000E9499051092E7021092E8021092E9026C
:104070001092EA021092EB021092EC021092ED0202
:104080001092EE021092F0021092EF021092F102E2
:104090001092F202D093F402C093F302DF91CF9119
:1040A000FF90EF90DF90CF90BF90AF909F908F9058
:1040B0000895052E97FB1EF400940E94702057FD72
:1040C00007D00E94832007FC03D04EF40C9470208C
:1040D00050954095309521953F4F4F4F5F4F089534
:1040E00090958095709561957F4F8F4F9F4F089564
:1040F0000E94A520A59F900DB49F900DA49F800DB8
:10410000911D11240895A1E21A2EAA1BBB1BFD01CB
:104110000DC0AA1FBB1FEE1FFF1FA217B307E407A6
:10412000F50720F0A21BB30BE40BF50B661F771FFE
:10413000881F991F1A9469F76095709580959095DE
:104140009B01AC01BD01CF010895A29FB001B39FB7
:10415000C001A39F700D811D1124911DB29F700D90
:10416000811D1124911D08955058BB27AA270E9434
:10417000CC200C945E230E94252338F00E942C232F
:1041800020F039F49F3F19F426F40C94E7220EF442
:10419000E095E7FB0C94E122E92F0E94832358F37A
:1041A000BA17620773078407950720F079F4A6F51C
:1041B0000C94A5230EF4E0950B2EBA2FA02D0B0125
:1041C000B90190010C01CA01A0011124FF27591B5C
:1041D00099F0593F50F4503E68F11A16F040A22F62
:1041E000232F342F4427585FF3CF469537952795D3
:1041F000A795F0405395C9F77EF41F16BA0B620BD2
:10420000730B840BBAF09150A1F0FF0FBB1F661F18
:10421000771F881FC2F70EC0BA0F621F731F841F5B
:1042200048F4879577956795B795F7959E3F08F081
:10423000B0CF9395880F08F09927EE0F9795879543
:1042400008959F939F77EEE389379E0728F4ECE863
:10425000F0E00E9411230CC00E949D229058A2EA17
:104260002AED3FE049EC5FE30E94CC200E945E23F0
:104270000F9007FC905808950E94252360F080E875
:1042800091E009F49EEF0E942C2328F040E851E0D1
:1042900071F45EEF0CC00C94E7220C94A523E92F77
:1042A000E0780E94832340F3092E052AB1F32617F4
:1042B00037074807590738F00E2E07F8E02569F050
:1042C000E025E0640AC0EF6307F8009407FADB0119
:1042D000B9019D01DC01CA01AD01EF930E94CF211C
:1042E0000E945E230E947F215F91552339F02BEDC0
:1042F0003FE049E450FD49EC0C94B5200895DF936C
:10430000DD27B92FBF7740E85FE316161706480789
:104310005B0718F4D92F0E94B1239F938F937F934B
:104320006F930E947424E0EAF0E00E94EA220E9467
:104330005E232F913F914F915F910E94CC23DD230B
:1043400051F09058A2EA2AED3FE049EC5FE3D078C3
:104350005D270E94CC20DF910C945E230E94BD2239
:1043600008F481E008950E943523E3950C946F23AF
:104370000E94CC210C945E230E942C2358F00E94B2
:10438000252340F029F45F3F29F00C94E1225111DC
:104390000C94A6230C94E7220E94832368F39923AC
:1043A000B1F3552391F3951B550BBB27AA27621731
:1043B0007307840738F09F5F5F4F220F331F441F3E
:1043C000AA1FA9F335D00E2E3AF0E0E832D0915072
:1043D0005040E695001CCAF72BD0FE2F29D0660F5F
:1043E000771F881FBB1F261737074807AB07B0E8A2
:1043F00009F0BB0B802DBF01FF2793585F4F3AF0A8
:104400009E3F510578F00C94E1220C94A6235F3F67
:10441000E4F3983ED4F3869577956795B795F7952D
:104420009F5FC9F7880F911D9695879597F9089515
:10443000E1E0660F771F881FBB1F621773078407B1
:10444000BA0720F0621B730B840BBA0BEE1F88F7C0
:10445000E09508950E9431226894B1110C94A6232E
:1044600008950E948B2388F09F5798F0B92F9927C1
:10447000B751B0F0E1F0660F771F881F991F1AF04F
:10448000BA95C9F714C0B13091F00E94A523B1E0EC
:1044900008950C94A523672F782F8827B85F39F0EB
:1044A000B93FCCF3869577956795B395D9F73EF4E8
:1044B00090958095709561957F4F8F4F9F4F089590
:1044C000E89409C097FB3EF49095809570956195AE
:1044D0007F4F8F4F9F4F9923A9F0F92F96E9BB2764
:1044E0009395F695879577956795B795F111F8CFE0
:1044F000FAF4BB0F11F460FF1BC06F5F7F4F8F4F4B
:104500009F4F16C0882311F096E911C0772321F040
:104510009EE8872F762F05C0662371F096E8862FD8
:1045200070E060E02AF09A95660F771F881FDAF72F
:10453000880F9695879597F90895DF93CF931F93EA
:104540000F938B01EC01EDECF0E00E94EA220E9457
:104550005E239801AE018B01EC0160E070E080E821
:104560009FE30E94B4200E9434249801AE010F9171
:104570001F91CF91DF910C94CC23990F0008550F18
:10458000AA0BE0E8FEEF16161706E807F907C0F0D9
:1045900012161306E407F50798F0621B730B840BE1
:1045A000950B39F40A2661F0232B242B252B21F4BB
:1045B00008950A2609F4A140A6958FEF811D811D5B
:1045C000089597F99F6780E870E060E008959FEF95
:1045D00080EC0895DF93CF931F930F93FF92EF9298
:1045E000DF927B018C01689406C0DA2EEF010E94F5
:1045F000CC23FE01E894A5912591359145915591E3
:10460000A6F3EF010E94CC20FE019701A801DA94E5
:1046100069F7DF90EF90FF900F911F91CF91DF919D
:1046200008959F938F937F936F93FF93EF939B01D5
:10463000AC010E94B923EF91FF910E94EA222F91D1
:104640003F914F915F910C94B92300240A94161660
:10465000170618060906089500240A941216130670
:104660001406050608950C94E7220E948B23D8F3C4
:10467000E894E0E0BB279F57F0F02AED3FE049ECDB
:1046800006C0EE0FBB0F661F771F881F28F0B23AD7
:1046900062077307840728F0B25A620B730B840B0E
:1046A000E3959A9572F7803830F49A95BB0F661FA0
:1046B000771F881FD2F790480C947A24092E039410
:1046C000000C11F4882352F0BB0F40F4BF2B11F4FF
:1046D00060FF04C06F5F7F4F8F4F9F4F0895EF9330
:1046E000E0FF07C0A2EA2AED3FE049EC5FEB0E9441
:1046F000CC200E945E230F90039401FC9058E5EFBC
:10470000F0E00C94112357FD9058440F551F59F0B9
:104710005F3F71F04795880F97FB991F61F09F3FAE
:1047200079F087950895121613061406551FF2CFD7
:104730004695F1DF08C0161617061806991FF1CF27
:1047400086957105610508940895E894BB2766274E
:104750007727CB0197F908950E94BD2208F48FEFC7
:1047600008959B01AC0160E070E080E89FE30C9449
:10477000B8210E94CC230C945E230E94252338F09C
:104780000E942C2320F0952311F00C94E1220C942C
:10479000E72211240C94A6230E94832370F3959F93
:1047A000C1F3950F50E0551F629FF001729FBB2728
:1047B000F00DB11D639FAA27F00DB11DAA1F649FC4
:1047C0006627B00DA11D661F829F2227B00DA11D77
:1047D000621F739FB00DA11D621F839FA00D611DFD
:1047E000221F749F3327A00D611D231F849F600D1E
:1047F000211D822F762F6A2F11249F5750409AF047
:10480000F1F088234AF0EE0FFF1FBB1F661F771FD2
:10481000881F91505040A9F79E3F510580F00C949D
:10482000E1220C94A6235F3FE4F3983ED4F38695EF
:1048300077956795B795F795E7959F5FC1F7FE2B3D
:10484000880F911D9695879597F908959F930E94DB
:1048500035230F9007FCEE5F0C946F2319F416F4C8
:104860000C94E7220C9478240E948B23B8F39923AC
:10487000C9F3B6F39F57550B87FF0E948624002487
:10488000A0E640EA900180585695979528F4805C00
:10489000660F771F881F20F026173707480730F468
:1048A000621B730B840B202931294A2BA695179480
:1048B0000794202531254A2758F7660F771F881F50
:1048C00020F026173707480730F4620B730B840B70
:1048D000200D311D411DA09581F7B901842F9158FC
:1048E000880F9695879508959B01AC010C94B92388
:1048F0009F3F31F0915020F4879577956795B79554
:10490000880F911D9695879597F90895915050407D
:10491000660F771F881FD2F70895DB018F939F934F
:104920000E947820BF91AF91A29F800D911DA39FFF
:10493000900DB29F900D11240895991B79E004C049
:10494000991F961708F0961B881F7A95C9F78095CE
:104950000895EE0FFF1F0590F491E02D09940E9439
:10496000A520332312F48A1B9B0B0C94B9240E94BC
:10497000A520B7FF0895821B930B0895DF93CF9373
:104980001F930F939A9DF02D219FF00D8B9DF00D9D
:104990008A9DE02DF10D039FF00D029FE00DF11DAA
:1049A0004E9DE00DF11D5E9DF00D4F9DF00D7F932E
:1049B0006F93BF92AF925F934F93D5010E94A52052
:1049C0008B01AC01D7010E94A520EB01E80FF91F74
:1049D000D6010E940E252F913F91D6010E94A5205D
:1049E000C60FD71FE81FF91FAF91BF910E940E2578
:1049F0002F913F910E94A520C60FD71FE81FF91FD6
:104A0000D6010E94A520E60FF71F9801BE01CF0135
:104A100011240F911F91CF91DF9108950E94A5203D
:104A2000460F571FC81FD91F08F43196089597FBEA
:104A300057FF0C9427259F938F930E9427256E1B69
:104A40007F0BAF91BF918A0B9B0B0895E894DF9386
:104A5000CF93FC01DB010E94A5207F936F93E901B6
:104A60009A01AC01BF93AF933F932F93DF010E9454
:104A7000A52026F46C1B7D0B820B930B9E01EB0192
:104A8000FC010E940E25AF91BF912F913F910E9492
:104A90000E25BE01CF01F9012F913F91CF91DF91FA
:104AA00008950F93083090F0982F872F762F652F59
:104AB000542F432F322F22270850F4CF220F331FB9
:104AC000441F551F661F771F881F991F0A95B2F74D
:104AD0000F91089597FB10F8169400080F93083073
:104AE00098F00850232F342F452F562F672F782FFB
:104AF000892F902DF4CF0594979587957795679595
:104B000057954795379527950A95AAF70F910895D8
:104B10002A0D3B1D4C1D5D1D6E1D7F1D801F911FAD
:104B200008950024A7FD00942A0F301D401D501D3C
:104B3000601D701D801D901D08952A193B094C09A8
:104B40005D096E097F09800B910B08950024A7FD74
:104B500000942A1730054005500560057005800552
:104B60009005089581E090E0F8940C94B725F894AE
:024B7000FFCF75
:104B72000000F041000048420000B4420000F04151
:104B82000000A0420000C8425E00BC0077010000A5
:104B920000008501F2001C01D2014D012B013F01F1
:104BA200000000008B025E02BB0232025602420289
:024BB2003302CC
:00000001FF
