:100000000C94A1000C94C9000C94C9000C94C90074
:100010000C94C9000C94C9000C94C9000C941306EC
:100020000C94C9000C94C9000C94C9000C94E6040B
:100030000C94C9000C94C9000C94C9000C94C9001C
:100040000C94BC0B0C94B1060C9486030C946003C6
:100050000C94C9000C94C9000C94C9000C94C900FC
:100060000C94B8030C94C900036EDB363D9A999941
:10007000993DABAAAA2A3E000000803F084AD73B20
:100080003BCE016E84BCBFFDC12F3D6C74319ABD67
:1000900056833DDA3D00C77F11BED9E4BB4C3E918B
:1000A0006BAAAABE000000803F072C7AA5BA6CC5D7
:1000B00090DA3B9365FC8BBC53F810FD3C56928361
:1000C0004DBD879D3AB63DCBC9BF5BBE73DA0FC944
:1000D0003F05A84CCDB2D44EB93836A9020C50B960
:1000E000918688083CA6AAAA2ABE000000803F008C
:1000F00000000008000201000003040700000000E7
:100100000000000000000000250028002B00000077
:100110000000240027002A0004040404040404044A
:1001200002020202020203030303030301020408A2
:100130001020408001020408102001020408102051
:100140005A1711241FBECFEFD8E0DEBFCDBF11E09C
:10015000A0E0B1E0EEE5FEE302C005900D92A6340A
:10016000B107D9F724E0A6E4B1E001C01D92AD3596
:10017000B207E1F710E0C1EAD0E004C02197FE0128
:100180000E94011EC03AD107C9F70E94060C0C94C8
:100190002D1F0C940000CF92DF92EF92FF920F93ED
:1001A0001F93CF93DF936C017A018B01C0E0D0E005
:1001B000CE15DF0581F0D8016D918D01D601ED914D
:1001C000FC910190F081E02DC6010995892B11F079
:1001D0002196EECF7E01C701DF91CF911F910F9144
:1001E000FF90EF90DF90CF900895FC01538D448DE8
:1001F000252F30E0842F90E0821B930B541710F0D2
:10020000CF96089501970895FC01918D828D9817DE
:1002100061F0828DDF01A80FB11D5D968C91928DEA
:100220009F5F9F73928F90E008958FEF9FEF0895E7
:10023000FC01918D828D981731F0828DE80FF11DB0
:10024000858D90E008958FEF9FEF0895FC01918DCB
:10025000228D892F90E0805C9F4F821B91098F73C4
:10026000992708958BE692E00E94260121E0892BD0
:1002700009F420E0822F0895FC01848DDF01A80F8E
:10028000B11DA35ABF4F2C91848D90E001968F73BE
:100290009927848FA689B7892C93A089B1898C91DD
:1002A000837080648C93938D848D981306C002882C
:1002B000F389E02D80818F7D80830895EF92FF92F6
:1002C0000F931F93CF93DF93EC0181E0888F9B8D79
:1002D0008C8D981305C0E889F989808185FD26C039
:1002E000F62E0B8D10E00F5F1F4F0F731127E02EBE
:1002F0008C8DE8120CC00FB607FCFACFE889F9899B
:10030000808185FFF5CFCE010E943C01F1CF8B8D1E
:10031000FE01E80FF11DE35AFF4FF0829FB7F894FA
:100320000B8FEA89FB89808180620AC09FB7F894AD
:10033000EE89FF896083E889F98980818370806410
:1003400080839FBF81E090E0DF91CF911F910F915B
:10035000FF90EF900895CF93DF93EC01888D882371
:10036000C9F0EA89FB89808185FD05C0A889B98922
:100370008C9186FD0FC00FB607FCF5CF808185FFFD
:10038000F2CFA889B9898C9185FFEDCFCE010E946B
:100390003C01E7CFDF91CF91089580E090E0892B79
:1003A00029F00E94320181110C940000089585ED1E
:1003B0008093BC008091BC0084FDFCCF10923B0276
:1003C00008954091AD01262F30E0240F311D2132D8
:1003D0003105DCF420913B022430C9F4FC0180E0BB
:1003E00090E0861758F43091AD012191DC01A357BC
:1003F000BE4FA30FB11D2C930196F3CF8091AD0199
:10040000680F6093AD0180E0089581E0089582E077
:100410000895089508950895E091D1018091D00143
:10042000E81730F4F0E0EB50FE4F808190E0089543
:100430008FEF9FEF08959091D1018091D00198178F
:1004400050F4E92FF0E0EB50FE4F208130E09F5F49
:100450009093D10102C02FEF3FEFC9010895809121
:10046000D00190E02091D101821B91090895CF9293
:10047000DF92EF92FF920F931F93CF93DF937C0154
:10048000CB018A012091D201222389F0EB016B017B
:10049000C40ED51ECC15DD0569F06991D701ED912B
:1004A000FC910190F081E02DC7010995F3CF642FF5
:1004B0000E94E101C801DF91CF911F910F91FF9040
:1004C000EF90DF90CF900895CF93DF931F92CDB739
:1004D000DEB769832091D2012223D1F02091F4016B
:1004E000203240F021E030E0FC013383228380E0C1
:1004F00090E015C08091D301E82FF0E0EC52FE4F60
:10050000998190838F5F8093D3018093F40105C01C
:1005100061E0CE0101960E94E10181E090E00F9040
:10052000DF91CF910895089580E090E00895FC0157
:1005300090819C3088F5818128E830E0281B3109C2
:1005400087FD3395220F331F220F331F6217730766
:1005500084F0828148E552E0481B510987FD53959C
:10056000440F551F440F551F9B01461757070CF4A6
:100570009A0122503109220F331F4FB7F894892F67
:1005800090E0FC01EE0FFF1F8E0F9F1FFC01E7594B
:10059000FE4F328321834FBF0895CF93DF93EC0149
:1005A000288139818A819B812817390704F5888140
:1005B00099812A813B81821B930B181619062CF412
:1005C000888199812A813B8104C08A819B8128810D
:1005D0003981821B930B2C813D81821793073CF15B
:1005E0002C813D8188819981820F931F29C02881A8
:1005F00039818A819B818217930724F588819981AB
:100600002A813B81821B930B181619062CF48881D2
:1006100099812A813B8104C08A819B81288139810B
:10062000821B930B2C813D81821793071CF48A81D6
:100630009B8106C02C813D8188819981821B930B0F
:100640009983888368817981CE010E960E949702F2
:10065000488159812A813B8181E04217530709F083
:1006600080E0DF91CF9108950E94281F0F931F9380
:10067000CF93DF938C01C0916501D09166012097E3
:1006800049F484E090E00E94071E909366018093F5
:1006900065010CC08A819B81009711F0EC01FACFB3
:1006A00084E090E00E94071E9B838A83FC011183F3
:1006B000008313821282DF91CF911F910F910895D1
:1006C0001F920F920FB60F9211242F933F934F93C7
:1006D0005F936F937F938F939F93AF93BF93EF93AA
:1006E000FF938BE692E00E943C01FF91EF91BF9156
:1006F000AF919F918F917F916F915F914F913F91BA
:100700002F910F900FBE0F901F9018951F920F9270
:100710000FB60F9211242F938F939F93EF93FF9314
:10072000E0917B02F0917C028081E0918102F09166
:10073000820282FD12C09081809184028F5F8F734C
:1007400020918502821751F0E0918402F0E0E55992
:10075000FD4F958F8093840201C08081FF91EF91BE
:100760009F918F912F910F900FBE0F901F90189512
:100770001F920F920FB60F9211242F933F934F9316
:100780005F936F937F938F939F93AF93BF93EF93F9
:10079000FF938091B900887F803609F49CC068F58A
:1007A000883209F45BC090F4803109F454C038F405
:1007B000882309F4F6C0883009F44DC0F6C08831AA
:1007C00009F44CC0803209F45DC0EFC0803409F4F4
:1007D00068C048F4803309F455C0883309F0E5C097
:1007E00080933902D8C0803509F44FC0883509F4A8
:1007F0005DC0883409F0D9C0D6C0883909F4C7C0B3
:10080000A8F4883709F467C038F4883609F463C05F
:10081000803709F460C0C9C0883809F4B8C080398D
:1008200009F45FC0803809F0C0C05BC0803B09F4A8
:1008300086C038F4803A09F466C0883A09F47FC06B
:10084000B4C0803C09F4A7C0883C09F4A4C0883B2C
:1008500009F48AC0AAC08091360210C09091380273
:1008600080913702981770F5E091380281E08E0F81
:1008700080933802F0E0EB5EFD4F80818093BB00F7
:1008800085EC86C0809339028EC0E091380281E009
:100890008E0F809338028091BB00F0E0EB5EFD4F3D
:1008A000808390913802809137026EC0E0913802C7
:1008B00081E08E0F809338028091BB00F0E0EB5E08
:1008C000FD4F808380913A0281116DC081E0809359
:1008D000350284EA61C083E080933B021092CF012D
:1008E000CFCF8091CF01803208F051C0E091CF018D
:1008F00081E08E0F8093CF018091BB00F0E0E15545
:10090000FE4F8083BDCF85EC8093BC0010923B02EC
:100910008091CF01803230F4E091CF01F0E0E155D9
:10092000FE4F10826091CF0170E0E0914601F0919E
:1009300047018FEA91E009951092CF0136C084E01B
:1009400080933B021092AE011092AD01E0914801FC
:10095000F091490109958091AD01811105C081E0B7
:100960008093AD0110928D01E091AE0181E08E0F78
:100970008093AE01F0E0E357FE4F80818093BB008F
:100980009091AE018091AD01981708F479CF85E878
:100990008093BC000AC085EC8093BC0010923B029F
:1009A00004C0109239020E94D701FF91EF91BF91CC
:1009B000AF919F918F917F916F915F914F913F91F7
:1009C0002F910F900FBE0F901F9018951F920F92AE
:1009D0000FB60F9211242F933F934F935F936F9312
:1009E0007F938F939F93AF93BF93EF93FF938091E8
:1009F000680187FF05C010928500109284001BC01B
:100A000020916801022E000C330B8091670190E069
:100A10002817390784F480916801082E000C990B7F
:100A2000FC01EE0FFF1F8E0F9F1FFC01E759FE4FC9
:100A3000808186FD15C0809168018F5F8093680179
:100A400020916801022E000C330B8091670190E029
:100A500028173907C4F4809168018C3064F113C001
:100A600080916801082E000C990BFC01EE0FFF1F0E
:100A70008E0F9F1FFC01E759FE4F808160E08F734E
:100A80000E946108D8CF80918400909185000496DF
:100A900080349C4918F480E49CE905C0809184006E
:100AA00090918500049690938900809388008FEF41
:100AB000809368013BC02091840030918500809133
:100AC0006801082E000C990BFC01EE0FFF1F8E0F22
:100AD0009F1FFC01E759FE4F81819281820F931F76
:100AE000909389008093880080916801082E000C03
:100AF000990BFC01EE0FFF1F8E0F9F1FFC01E759A2
:100B0000FE4F808186FF12C080916801082E000C84
:100B1000990BFC01EE0FFF1F8E0F9F1FFC01E75981
:100B2000FE4F808161E08F730E946108FF91EF9119
:100B3000BF91AF919F918F917F916F915F914F91F5
:100B40003F912F910F900FBE0F901F901895EF922D
:100B5000FF920F931F93CF93DF93EC017D876C87F8
:100B6000EC84FD848C01025F1F4F8E858C3008F071
:100B70004FC08E2D0E9442088E85E82FF0E09F0125
:100B8000220F331FE20FF31FE759FE4F9E2D9F7375
:100B90002081207CE22EE92AE0821F86188A6CE000
:100BA0000E942A1C9CE0899FB001112440E050E083
:100BB0009B01240F351FF901EE0FFF1F2E0F3F1F62
:100BC000F901E759FE4F908196FD16C04F5F5F4FC8
:100BD0004C30510569F781110FC01092800082E0FE
:100BE000809381001092850010928400B19A8091C8
:100BF0006F00826080936F00EE85F0E0CF01880F78
:100C0000991FE80FF91FE759FE4F808180648083A8
:100C10006CED75E0C801DF91CF911F910F91FF90AE
:100C2000EF900C9497021F920F920FB60F9211241F
:100C30002F933F934F935F936F937F938F939F93E4
:100C4000AF93BF93CF93DF93EF93FF93C091650171
:100C5000D09166012097D1F0E881F981EE0FFF1F56
:100C6000E95AFE4F808191810E94CD02811104C01A
:100C7000888199810E9436038A819B8190936601C5
:100C800080936501CE010E949F1E04C08091700078
:100C900010927000FF91EF91DF91CF91BF91AF91D2
:100CA0009F918F917F916F915F914F913F912F9184
:100CB0000F900FBE0F901F901895CF92DF92EF927A
:100CC000FF92CF93DF93EC0189899A898617970762
:100CD00014F469897A898B899C896817790714F4D7
:100CE0006B897C898E819F81C884D9840D2C000CEE
:100CF000EE08FF08AB01770F660B770B9A01AB018B
:100D000021583F4F4F4F5F4F092E000CAA0BBB0BD2
:100D1000BC01CD016C197D098E099F090E941A1C26
:100D20002EEF30E040E050E00E94E617C20ED31EE6
:100D3000E41EF51EDB82CA82CE010E94CD02811123
:100D400009C08A859B850E9436038091700082606D
:100D500080937000DF91CF91FF90EF90DF90CF9064
:100D600008951F920F920FB60F9211242F933F9365
:100D70004F935F936F937F938F939F93AF93BF93A3
:100D8000EF93FF938EB58093540180914A01909127
:100D90004B01FC01EE0FFF1F8E0F9F1FFC01EF5B4D
:100DA000FB4F82818EBD80914A0190914B0101964B
:100DB00090934B0180934A01049724F010924B01C9
:100DC00010924A0180915401811104C081E0809306
:100DD000530168C0809153018823A9F18091540187
:100DE000863021F1823149F0843031F581E090E0A4
:100DF00090931B0380931A031FC0809117038823CD
:100E000069F08AE291E00E94200810921403109287
:100E1000150310921603109217030EC086E391E09B
:100E20000E94200881E08093170306C081E090E0D3
:100E3000909319038093180310925301109252015A
:100E4000109251012FC08091510190915201813037
:100E5000910559F08230910571F0892B89F48091C8
:100E600054018F57809314030BC0809154018F5706
:100E70008093150305C0809154018F57809316030A
:100E8000809151019091520101969093520180936B
:100E90005101039724F0109252011092510181E008
:100EA00080934C01FF91EF91BF91AF919F918F91F2
:100EB0007F916F915F914F913F912F910F900FBE56
:100EC0000F901F90189590913B029111FCCF91E0EB
:100ED00090933B0240933A022FEF209339021092F5
:100EE0003802260F209337029093360290913602F3
:100EF000880F892B8093360280913502813061F40E
:100F000010923502809136028093BB008091BC0024
:100F100083FDF8CF85EC01C085EE8093BC00809105
:100F20003B028130E1F380913802861710F4609122
:100F30003802A5E1B2E0E5EFF1E080E0861721F0AC
:100F40009D9191938F5FFACF0895282F3091F401EE
:100F5000313208F04AC080913B028111FCCF909160
:100F6000580442E040933B0220933A022FEF209333
:100F700039021092380230933702E4EDF1E0A5E136
:100F8000B2E020E0321721F041914D932F5FFACF6C
:100F90001092360220913602990F922B90933602CE
:100FA00090913502913061F41092350290913602A1
:100FB0009093BB009091BC0093FDF8CF95EC01C0DD
:100FC00095EE9093BC0090913B029230E1F39091AA
:100FD00039029F3F79F080913902803241F080914F
:100FE0003902803331F084E005C081E003C082E043
:100FF00001C083E01092D3011092F4011092D2014B
:10100000089591E09093D201809358041092D301F7
:101010001092F4010895682F88E093E00C94640224
:10102000813208F080E241E0682F86E70E94630782
:101030001092D1018093D001089581E00C94A5070E
:10104000CF93DF93009779F0FC0101900020E9F73E
:101050003197AF01481B590BBC018BE692E00E940F
:10106000CB00EC0102C0C0E0D0E042E050E062E41E
:1010700071E08BE692E00E94CB008C0F9D1FDF9108
:10108000CF91089590E0FC01E45DFE4F2491FC01B6
:10109000E85EFE4F8491882399F090E0880F991FB5
:1010A000FC01E25FFE4FA591B491FC01EC5FFE4FA5
:1010B000859194918FB7F894EC91E22BEC938FBFCC
:1010C000089590E0FC01E051FF4F2491FC01E45DA4
:1010D000FE4F3491FC01E85EFE4FE491EE2309F4EB
:1010E0003CC0222339F1233091F038F42130A9F0AB
:1010F000223001F584B58F7D12C0273091F0283061
:10110000A1F02430B9F4809180008F7D03C08091DC
:1011100080008F77809380000DC084B58F7784BD69
:1011200009C08091B0008F7703C08091B0008F7D9F
:101130008093B000F0E0EE0FFF1FEC5FFE4FA59133
:10114000B4919FB7F894611104C08C913095382305
:1011500002C0EC913E2B3C939FBF08953FB7F8949B
:101160008091540490915504A0915604B091570475
:1011700026B5A89B05C02F3F19F00196A11DB11DF2
:101180003FBFBA2FA92F982F8827820F911DA11D2D
:10119000B11DBC01CD0142E0660F771F881F991F6A
:1011A0004A95D1F708954F925F926F927F928F92F6
:1011B0009F92AF92BF92CF92DF92EF92FF92CF9326
:1011C000DF93CDB7DEB7A4970FB6F894DEBF0FBE9E
:1011D000CDBF0E94AE08C0906602D0906702E0903A
:1011E0006802F09069026C197D098E099F090E94BE
:1011F000ED1920E030E048EC52E40E9445196B0103
:101200007C010E94AE08609366027093670280932F
:101210006802909369028091500290915102A091CE
:101220005202B0915302BC01CD019058A701960122
:101230000E94461B2B013C01809154029091550263
:10124000A0915602B0915702BC01CD019058A70160
:1012500096010E94461B4B015C012091580230917F
:10126000590240915A0250915B02C701B6010E9497
:10127000461B6B017C01C301B2010E9440196D83C2
:101280007E838F839887C501B4010E9440196987C6
:101290007A878B879C87C701B6010E9440196D87AA
:1012A0007E878F87988B8091400290914102A09118
:1012B0004202B0914302898B9A8BAB8BBC8BBC01F1
:1012C000CD010E9440196D8B7E8B8F8B988F809102
:1012D0003C0290913D02A0913E02B0913F02898F65
:1012E0009A8FAB8FBC8FBC01CD010E9440196983DE
:1012F0007A838B839C83C301B2010E94B31B6D8FE1
:101300007E8F8F8F98A3C501B4010E94B31B69A380
:101310007AA38BA39CA3C701B6010E94B31B2B0128
:101320003C0169897A898B899C890E94B31B698BEE
:101330007A8B8B8B9C8B698D7A8D8B8D9C8D0E948B
:10134000B31B6B017C0129813A814B815C816D85E6
:101350007E858F8598890E94461B29893A894B8909
:101360005C890E94461B4B015C01A7019601C301E9
:10137000B2010E94461B9B01AC01C501B4010E9451
:1013800042184B015C01A70196016D857E858F8512
:1013900098890E94461B6B017C01A301920169811F
:1013A0007A818B819C810E94461B29893A894B89CD
:1013B0005C890E94461B9B01AC01C701B6010E94DB
:1013C00041186D877E878F87988B9B01AC0169A13F
:1013D0007AA18BA19CA10E94461B6B017C012981F3
:1013E0003A814B815C8169857A858B859C850E94D9
:1013F000461B2D893E894F89588D0E94461B9B01B3
:10140000AC01C701B6010E9441182B013C016D8D52
:101410007E8D8F8D98A19058A50194010E94461B46
:101420006B017C01A30192016D817E818F81988582
:101430000E94461B9B01AC01C701B6010E944118E6
:101440006B017C01A50194016D817E818F8198855E
:101450000E94461B4B015C01A30192016D8D7E8DA4
:101460008F8D98A10E94461B9B01AC01C501B40160
:101470000E9441184B015C01A70196010E94DC18F3
:101480006D837E838F8398876093400270934102BF
:101490008093420290934302A5019401C501B401D7
:1014A0000E94461B4B015C01A7019601C701B601D2
:1014B0000E94461B9B01AC01C501B4010E94421869
:1014C0000E94C11B6B017C0129813A814B815C81A7
:1014D0006D897E898F89988D0E94461B29A13AA12A
:1014E0004BA15CA10E94461B4B015C012D853E85F2
:1014F0004F85588969857A858B859C850E94461B16
:101500009B01AC01C501B4010E944218A7019601DC
:101510000E94DC1869877A878B879C8760933C02DE
:1015200070933D0280933E0290933F02809144026B
:1015300090914502A0914602B091470289839A8317
:10154000AB83BC8320E030E0A901BC01CD010E9447
:10155000391B181634F069817A818B819C819058EF
:1015600004C069817A818B819C819B01AC010E94BE
:10157000461B6B017C018090480290904902A0902C
:101580004A02B0904B0220E030E0A901C501B4014D
:101590000E94391B181624F0C501B401905802C0EE
:1015A000C501B4019B01AC010E94461BA701960135
:1015B0000E9442186B017C0140904C0250904D02F9
:1015C00060904E0270904F0220E030E0A901C3010C
:1015D000B2010E94391B181624F0C301B2019058C1
:1015E00002C0C301B2019B01AC010E94461BA701CE
:1015F00096010E9442180E94C11B6B017C0126E6E5
:1016000036E646E65FE30E94391B18160CF065C00B
:101610002DEC3CEC4CE85FE3C701B6010E943B199E
:1016200087FF5BC0A30192015058C501B4010E941D
:10163000DC182B013C0169817A818B819C81905857
:10164000A70196015F770E9445190E94AE186B01B1
:101650007C0126E636E646E65FE36D817E818F817A
:1016600098850E94461B4B015C012DEC3CEC4CEC38
:101670005DE3C301B2010E94461B9B01AC01C501A1
:10168000B4010E944218609340027093410280931B
:1016900042029093430226E636E646E65FE369851A
:1016A0007A858B859C850E94461B4B015C012DEC45
:1016B0003CEC4CEC5DE3C701B6010E94461B9B016C
:1016C000AC01C501B4010E94421860933C027093C2
:1016D0003D0280933E0290933F02A4960FB6F89489
:1016E000DEBF0FBECDBFDF91CF91FF90EF90DF90B7
:1016F000CF90BF90AF909F908F907F906F905F90B2
:101700004F9008958F929F92AF92BF92CF92DF92A7
:10171000EF92FF926B017C010E94AE084B015C01CD
:10172000C114D104E104F104F1F00E94AE08DC011F
:10173000CB0188199909AA09BB09883E9340A105E4
:10174000B10570F321E0C21AD108E108F10888EE72
:10175000880E83E0981EA11CB11CC114D104E104C1
:10176000F10419F7DDCFFF90EF90DF90CF90BF909D
:10177000AF909F908F9008951F920F920FB60F9287
:1017800011242F933F938F939F93AF93BF93809197
:10179000500490915104A0915204B091530430919F
:1017A0004F0423E0230F2D3720F40196A11DB11D16
:1017B00005C026E8230F0296A11DB11D20934F04FA
:1017C0008093500490935104A0935204B093530417
:1017D0008091540490915504A0915604B0915704FF
:1017E0000196A11DB11D8093540490935504A093BC
:1017F0005604B0935704BF91AF919F918F913F9141
:101800002F910F900FBE0F901F901895CF93DF93DD
:10181000CDB7DEB7C958D1090FB6F894DEBF0FBEF9
:10182000CDBF789484B5826084BD84B5816084BD69
:1018300085B5826085BD85B5816085BD80916E006E
:10184000816080936E00109281008091810082609F
:1018500080938100809181008160809381008091DC
:1018600080008160809380008091B10084608093CB
:10187000B1008091B00081608093B00080917A00C7
:10188000846080937A0080917A00826080937A00ED
:1018900080917A00816080937A0080917A008068DC
:1018A00080937A001092C100E0917B02F0917C025B
:1018B00082E08083E0917702F09178021082E091DB
:1018C0007902F0917A028FEC808310928302E0918A
:1018D0007F02F091800286E08083E0917D02F091AA
:1018E0007E02808180618083E0917D02F0917E02A2
:1018F000808188608083E0917D02F0917E0280810A
:1019000080688083E0917D02F0917E0280818F7DEE
:10191000808320E030E080914D0490914E0484302B
:10192000910590F4AC014F5F5F4F50934E0440938C
:101930004D04FC01EE0FFF1F8E0F9F1FFC01EF5B9C
:10194000FB4F3183208312822F5F3F4F24303105BC
:1019500011F710924B0110924A011092D10110928E
:10196000D0011092D3011092F40110923B0281E059
:1019700080933A021092350261E082E10E94610890
:1019800061E083E10E9461088091B9008E7F8093BD
:10199000B9008091B9008D7F8093B90088E480936D
:1019A000B80085E48093BC0089E092E090934901FF
:1019B000809348018AE092E090934701809346012A
:1019C00088E60E9401088BE690E00E940B0880E008
:1019D00090E00E940B0881E00E94A50764E670E099
:1019E00080E090E00E94820B10923C0480E090E442
:1019F000A9E7B4E480933D0490933E04A0933F0490
:101A0000B093400486E70E9401088EE190E00E94B6
:101A10000B080E941D086AE070E080E090E00E94E0
:101A2000820B5CE1E52E54E0F52E00EA10E086E73B
:101A30000E940108C8010E940B080E941D0841E095
:101A400062E086E70E9463071092D1018093D00183
:101A500088E093E00E941B02B82E88E093E00E9489
:101A60001B02DB2CC12C8C299D29D7018D939D93C2
:101A70007D010E5F1F4F0E3A1105C9F680911C04BF
:101A800090911D049F7090931D0480931C041092EC
:101A90002B0410922A0464E670E080E090E00E943B
:101AA000820B87E2EAE1F4E0DE01D09601900D922C
:101AB0008A95E1F78FE2ECE3F2E0DE011196019006
:101AC0000D928A95E1F768E070E080E893E00E946B
:101AD000A70567E070E085E993E00E94A70564E050
:101AE00070E08AEA93E00E94A70565E070E081E477
:101AF00093E00E94A70566E070E08CE293E00E940C
:101B0000A70563E070E08BE693E00E94A70562E022
:101B100070E086E593E00E94A7058AE291E00E94CA
:101B200020081092140310921503109216031092BD
:101B3000170387E2FE01F096AFEBB3E001900D9240
:101B40008A95E1F78FE2FE013196ABEEB3E00190AA
:101B50000D928A95E1F71092E6036091DD03709192
:101B6000DE038091DF039091E0030E94EF19609300
:101B7000E7037093E8038093E9039093EA0368EE28
:101B800073E080E090E00E94820BF8948CE00E9469
:101B900042088CB580648CBD8FEF8EBD8CB580689B
:101BA0008CBD78940E94AE0800914D0110914E01B9
:101BB00020914F0130915001DC01CB01801B910B32
:101BC000A20BB30B81329E44A105B10560F00E94C7
:101BD000AE0860934D0170934E0180934F01909336
:101BE000500181E001C080E020911A0430911B0473
:101BF000232BA9F4882399F086E70E9401088AE440
:101C000090E00E940B080E941D0880911A04909198
:101C10001B04019690931B0480931A0480E020918A
:101C20001A0430911B042130310509F06BC0882360
:101C300009F468C086E70E94010880E090E00E94F5
:101C40000B080E941D0883E090E00E94100810928B
:101C50002C0410922D0410922E0410922F0488E070
:101C600093E00E941B024C01990FAA08BB088092C6
:101C70002C0490922D04A0922E04B0922F0488E0A0
:101C800093E00E941B02BA2CA92C982C88246C018A
:101C9000990FEE08FF08C828D928EA28FB28C09227
:101CA0002C04D0922D04E0922E04F0922F0488E0B0
:101CB00093E00E941B02FE2CED2CDC2CCC24092E80
:101CC000000CAA0BBB0BC82AD92AEA2AFB2AC0920D
:101CD0002C04D0922D04E0922E04F0922F0486E77B
:101CE0000E9401088AE590E00E940B080E941D08EE
:101CF00080911A0490911B04019690931B04809389
:101D00001A0480E020911A0430911B04223031051E
:101D100009F039C5882309F436C586E70E94010811
:101D200080E090E00E940B080E941D0883E090E094
:101D30000E94100810923004109231041092320464
:101D40001092330488E093E00E941B024C01990F2B
:101D5000AA08BB088092300490923104A092320409
:101D6000B092330488E093E00E941B02BA2CA92CA5
:101D7000982C88246C01990FEE08FF08C828D928F0
:101D8000EA28FB28C0923004D0923104E092320459
:101D9000F092330488E093E00E941B02FE2CED2CAD
:101DA000DC2CCC24092E000CAA0BBB0BC82AD92A88
:101DB000EA2AFB2AC0923004D0923104E092320425
:101DC000F09233048091260490912704A0E0B0E0C3
:101DD000BA2FA92F982F882797018601081B190B66
:101DE0002A0B3B0B6B960CAF1DAF2EAF3FAF6B9723
:101DF00010913C04EC961FAFEC97E0912204F09117
:101E00002304E0901E04F0901F0420912C043091D4
:101E10002D0440912E0450912F04EB962CAF3DAF32
:101E20004EAF5FAFEB97113009F09FC0970140E0D4
:101E300050E060E070E080E090E000E10E94A01DD2
:101E400019012A013B014C01BF0180E090E06B9633
:101E50002CAD3DAD4EAD5FAD6B970E948F1CF22E49
:101E6000032F142FB52FF62FE72FD82EE92EA0E041
:101E70000E94F51D5CF4AFE70E94E01DF22E032FD7
:101E8000142FB52FF62FE72FD82EE92E2F2D302F18
:101E9000412F5B2F6F2F7E2F8D2D9E2D07E00E94EF
:101EA000B91D59016A017B018C019101A201B301A5
:101EB000C4010E94D71DAC962FAFAC97AD963FAF33
:101EC000AD97AE964FAFAE97AF965FAFAF97E09638
:101ED0006FAFE097E1967FAFE197E2968FAFE29721
:101EE000E3969FAFE397E0912404F091250480905E
:101EF000200490902104940140E050E060E070E004
:101F000080E090E001E10E94A01D19012A013B013F
:101F10004C01BF0180E090E06B962CAD3DAD4EAD25
:101F20005FAD6B970E948F1CF22E032F142FB52FDD
:101F3000F62FE72FD82EE92EA0E00E94F51D5CF4C5
:101F4000AFE30E94E01DF22E032F142FB52FF62FC2
:101F5000E72FD82EE92E2F2D302F412F5B2F6F2FFB
:101F60007E2F8D2D9E2D06E0A8C0BF0180E090E061
:101F70006B962CAD3DAD4EAD5FAD6B970E948F1C47
:101F8000D22E032F142FB52FF62FE72FB82EC92EE0
:101F9000A0E00E94F51D84F421503F4F4F4F5F4F4A
:101FA0006F4F7F4F8F4F9F4FD22E032F142FB52F80
:101FB000F62FE72FB82EC92E2D2D302F412F5B2F56
:101FC0006F2F7E2F8B2D9C2D08E00E94B91D3901AB
:101FD0004A01B62FA72FF82FE92FC12CD12C97013A
:101FE000A60160E070E080E090E00FE00E94A01D9C
:101FF00059016A017B018C019301A4016B2F7A2F97
:102000008F2F9E2F0E94D71DAC962FAFAC97AD9609
:102010003FAFAD97AE964FAFAE97AF965FAFAF976E
:10202000E0966FAFE097E1967FAFE197E2968FAFD2
:10203000E297E3969FAFE397E0912404F0912504A3
:102040008090200490902104940140E050E060E0F2
:1020500070E080E090E000E10E94A01D19012A01DB
:102060003B014C01BF0180E090E06B962CAD3DAD93
:102070004EAD5FAD6B970E948F1CF22E032F142F75
:10208000B52FF62FE72FD82EE92EA0E00E94F51DE0
:102090005CF4AFE70E94E01DF22E032F142FB52F42
:1020A000F62FE72FD82EE92E2F2D302F412F5B2F23
:1020B0006F2F7E2F8D2D9E2D07E00E94B91D590197
:1020C0006A017B018C019101A201B301C4010E944C
:1020D000D71DA8962FAFA897A9963FAFA997AA9604
:1020E0004FAFAA97AB965FAFAB97E4966FAFE4970D
:1020F000E5967FAFE597E6968FAFE697E7969FAFB9
:10210000E7976B964CAC5DAC6EAC7FAC6B97770C85
:102110004408542C3201609128047091290480E015
:1021200090E06B962CAD3DAD4EAD5FAD6B970E94D0
:102130008F1CF22E032F142FB52FF62FE72FD82E3A
:10214000E92EA0E00E94F51D84F421503109404899
:102150005F4F6F4F7F4F8F4F9F4FF22E032F142FE4
:10216000B52FF62FE72FD82EE92E2F2D302F412F08
:102170005B2F6F2F7E2F8D2D9E2D07E10E94B91DA5
:1021800049015A01950184010053184F2F4F3F4FC9
:10219000A7960CAF1DAF2EAF3FAFA797EC961FAD24
:1021A000EC97113009F094C0A7962CAD3DAD4EAD23
:1021B0005FADA797203D3740410551050CF066C142
:1021C0006B966CAD7DAD8EAD9FAD6B972BE030E027
:1021D00040E050E00E948F1C6896AFAC689769960B
:1021E000BFAC69976A96CFAC6A976B96DFAC6B977A
:1021F000E42CF42C042D142D0E94361CF22E032FF7
:10220000142FB52FF62FE72FD82EE92EA0E00E942D
:10221000F51D84F42150310941095109684F7F4F60
:102220008F4F9F4FF22E032F142FB52FF62FE72F2E
:10223000D82EE92E2F2D302F412F5B2F6F2F7E2F81
:102240008D2D9E2D03E20E94B91D68962FAF6897D1
:1022500069963FAF69976A964FAF6A976B965FAF83
:102260006B97AFE1B0E0A7968CAC9DACAEACBFACC9
:10227000A79770ED871A77E0970AA108B108A50122
:1022800094010E9405189B01AC01C501B4010E9494
:102290001A1C7B018C01F3E015950795F794E794E0
:1022A000FA95D1F7AFE3B0E0A50194010E940518BB
:1022B0009B01AC01C501B4010E941A1C2B013C0119
:1022C000A5E07594679457944794AA95D1F7EAC00E
:1022D000A7968CAD9DADAEADBFADA797803D9740A5
:1022E000A105B1050CF0BCC06B966CAD7DAD8EAD9B
:1022F0009FAD6B9723E030E040E050E00E948F1CE0
:102300006896AFAC68976996BFAC69976A96CFAC90
:102310006A976B96DFAC6B97E42CF42C042D142D8C
:102320000E94361CF22E032F142FB52FF62FE72F05
:10233000D82EE92EA0E00E94F51D84F42150310929
:10234000410951096E4F7F4F8F4F9F4FF22E032F40
:10235000142FB52FF62FE72FD82EE92E2F2D302F43
:10236000412F5B2F6F2F7E2F8D2D9E2D01E20E941E
:10237000B91D68962FAF689769963FAF69976A96BF
:102380004FAF6A976B965FAF6B97A3E0B0E0A796ED
:102390008CAC9DACAEACBFACA797F0ED8F1AF7E05C
:1023A0009F0AA108B108A50194010E9405189B018C
:1023B000AC01C501B4010E941A1C7B018C0115956A
:1023C0000795F794E794A5E0B0E0A50194010E9479
:1023D00005189B01AC01C501B4010E941A1C2B0118
:1023E0003C01E3E07594679457944794EA95D1F7DC
:1023F000A7962CAD3DAD4EAD5FADA797213C69EFE3
:1024000036076FEF460756070CF04CC0A7E0B0E068
:1024100049015A017CED870E75E0971EA11CB11C85
:10242000A50194010E9405189B01AC01C501B401EE
:102430000E941A1CE60EF71E081F191FA501940121
:1024400062E0220F331F441F551F6A95D1F7C50163
:10245000B4010E941A1C460E571E681E791E22C027
:10246000A5019401C501B4010E941A1C7B018C01D5
:1024700044E015950795F794E7944A95D1F76B9644
:102480001CAE1DAE1EAE1FAE6B9709C06B961CAE88
:102490001DAE1EAE1FAE6B97E12CF12C8701412CB7
:1024A000512C3201D801C701BB0F880B982FDC01DA
:1024B000A3968CAF9DAFAEAFBFAFA397A8962FAD3D
:1024C000A897A9963FADA997AA964FADAA97AB96A4
:1024D0005FADAB97E4966FADE497E5967FADE5977A
:1024E000E6968FADE697E7969FADE79757016801AF
:1024F000A096EFACA097FE2C0E2D1E2D0E94EC1D79
:10250000922E832E342E252EA8966FAFA897A996CB
:102510007FAFA997AA968FAFAA97AB969FAFAB97BD
:1025200083017201110FEE08FE2C8701A396ECAE19
:10253000FDAE0EAF1FAFA397AC962FADAC97AD9687
:102540003FADAD97AE964FADAE97AF965FADAF973F
:10255000E0966FADE097E1967FADE197E2968FADA3
:10256000E297E3969FADE39752016301A096EFAC2B
:10257000A097FE2C0E2D1E2D0E94EC1D59016A0104
:102580007B018C01A7968CAD9DADAEADBFADA7977D
:102590006B962CAD3DAD4EAD5FAD6B97821B930B33
:1025A000A40BB50BEC963FADEC978093340490935D
:1025B0003504A0933604B0933704313009F069C074
:1025C000EB966CAD7DAD8EAD9FADEB97AB01BC01D5
:1025D00080E090E0DC0168964FAF689769965FAF46
:1025E00069976A966FAF6A976B967FAF6B976C9699
:1025F0008FAF6C976D969FAF6D976E96AFAF6E97DE
:102600006F96BFAF6F979A01AB0160E070E080E01A
:1026100090E00E94361CF22E032F142FB52FF62FB8
:10262000E72FD82EE92EA0E00E94F51D84F421505A
:102630003109404E5F4F6F4F7F4F8F4F9F4FF22EAC
:10264000032F142FB52FF62FE72FD82EE92E2F2D7D
:10265000302F412F5B2F6F2F7E2F8D2D9E2D05E16B
:102660000E94B91DA92CB82CC32CD22CA896EFAC73
:10267000A897A996FFACA997AA960FADAA97AB9673
:102680001FADAB970E94EC1DA12CB12CF2E3CF2E15
:1026900067C0EB964CAD5DAD6EAD7FADEB979A012B
:1026A000AB0160E070E0CB0168962FAF6897699648
:1026B0003FAF69976A964FAF6A976B965FAF6B971C
:1026C0006C966FAF6C976D967FAF6D976E968FAF70
:1026D0006E976F969FAF6F9760E070E080E090E03C
:1026E0000E94361CF22E032F142FB52FF62FE72F42
:1026F000D82EE92EA0E00E94F51D84F42150310966
:10270000404E5F4F6F4F7F4F8F4F9F4FF22E032FE3
:10271000142FB52FF62FE72FD82EE92E2F2D302F7F
:10272000412F5B2F6F2F7E2F8D2D9E2D05E10E9457
:10273000B91DA92CB82CC32CD22CA896EFACA89705
:10274000A996FFACA997AA960FADAA97AB961FAD15
:10275000AB970E94EC1DA12CE0E4BE2ECC24C394C8
:10276000D12CE12CF12C00E010E00E94CB1C209336
:1027700038043093390440933A0450933B04109248
:102780001B0410921A0488E60E9401088BE390E073
:102790000E940B0880E00E94A50741E06EE088E6F9
:1027A0000E9463071092D1018093D0010E94AE086D
:1027B0004091640250916502209166023091670257
:1027C000DA01A21BB30B9D01260F371F3093650260
:1027D000209364026093660270936702809368029C
:1027E0009093690288E093E00E941B02182F88E012
:1027F00093E00E941B02EE961FAFEE97ED961FAE80
:10280000ED97EE96EEADFFADEE978E2B9F2BBC01B4
:10281000990F880B990B0E94EF19609344027093F3
:102820004502809346029093470288E093E00E941D
:102830001B02182F88E093E00E941B02C158DF4F53
:102840001883CF57D040EF961FAEEF97C258DF4F97
:10285000E880F980CE57D0408E299F29BC01990F7E
:10286000880B990B0E94EF196093480270934902FC
:1028700080934A0290934B0288E093E00E941B02EF
:10288000182F88E093E00E941B02CF57DF4F188378
:10289000C158D040C058DF4F1882C058D040C058EF
:1028A000DF4F08811981C058D040802B912BBC018B
:1028B000990F880B990B0E94EF1960934C0270934B
:1028C0004D0280934E0290934F0288E093E00E9465
:1028D0001B02182F88E093E00E941B02CD57DF4FA8
:1028E0001883C358D040CE57DF4F1882C258D0400B
:1028F000CE57DF4F28813981C258D040822B932B8D
:10290000BC01990F880B990B0E94EF1960935C0230
:1029100070935D0280935E0290935F0288E093E083
:102920000E941B02182F88E093E00E941B02CB57E5
:10293000DF4F1883C558D040CC57DF4F1882C4589A
:10294000D040CC57DF4F48815981C458D040842BA8
:10295000952BBC01990F880B990B0E94EF1960937E
:10296000500270935102809352029093530288E078
:1029700093E00E941B02182F88E093E00E941B0244
:10298000C957DF4F1883C758D040CA57DF4F188246
:10299000C658D040CA57DF4F68817981C658D040A9
:1029A000862B972BBC01990F880B990B0E94EF196E
:1029B000609354027093550280935602909357028D
:1029C00088E093E00E941B02F82E88E093E00E94CA
:1029D0001B028C0120E030E04AEA53E460915C0283
:1029E00070915D0280915E0290915F020E94451994
:1029F00028EB3EE142E152E40E94421860935C02FF
:102A000070935D0280935E0290935F022DEC3CE236
:102A100048E854E460914402709145028091460276
:102A2000909147020E94411820E038E640E856E4C1
:102A30000E944519609344027093450280934602B8
:102A40009093470223E333E348EF53E46091480255
:102A50007091490280914A0290914B020E94421863
:102A600020E034E94FE756E40E944519609348029C
:102A70007093490280934A0290934B022AE939E904
:102A80004EEA54E460914C0270914D0280914E02E6
:102A900090914F020E94421823E335E443E856E444
:102AA0000E94451960934C0270934D0280934E0230
:102AB00090934F022CEE31E14FE153E460915002CC
:102AC0007091510280915202909153020E944218DB
:102AD00020E030E041EE54E40E944519609350023A
:102AE0007093510280935202909353022DEC3CEC70
:102AF00047EE52E460915402709155028091560263
:102B0000909157020E94411820E030E048EC54E4D4
:102B10000E944519609354027093550280935602A7
:102B200090935702C757DF4FF882C958D040C85713
:102B3000DF4F1882C858D040C857DF4F688179816D
:102B4000C858D040602B712B072E000C880B990BB6
:102B50000E94EF1924EA30E74DE053E40E94421846
:102B600020E030E048EC54E40E944519609358029C
:102B70007093590280935A0290935B020E94D3088B
:102B80000E94D3086091340470913504809136041A
:102B9000909137040E94EF1920E030E048EC52E4B5
:102BA0000E9445190E94BE1960934904609138043F
:102BB0007091390480913A0490913B040E94EF197E
:102BC0000E94BE1960934C0460913C0270913D02DA
:102BD00080913E0290913F020E94BE19609346048C
:102BE00060914002709141028091420290914302B3
:102BF0000E94BE196093430480914C01882309F41C
:102C000089C080911703811115C060E070E08CE2EB
:102C100093E00E945D0660E070E081E493E00E9432
:102C20005D0660E070E086E593E00E945D0660E08E
:102C300070E06AC08091140330911503209116034F
:102C400090E0831B9109820F911D20911E0330910A
:102C50001F03829FB001839F700D929F700D1124FE
:102C60008CE293E00E945D0680911503309114037D
:102C70002091160390E0919581959109831B91090C
:102C8000821B91092091200330912103829FB00182
:102C9000839F700D929F700D112481E493E00E9438
:102CA0005D0680911503309114032091160390E086
:102CB000919581959109831B9109820F911D209116
:102CC000220330912303829FB001839F700D929F56
:102CD000700D112486E593E00E945D068091140337
:102CE000309115032091160390E0831B9109821BFC
:102CF00091092091240330912503829FB001839F85
:102D0000700D929F700D11248BE693E00E945D067A
:102D100010924C0180911703811112C060E070E0A5
:102D200080E893E00E945D0660E070E085E993E052
:102D30000E945D0660E070E08AEA93E00E945D0612
:102D400080911A0390911B03892B09F065C0809133
:102D5000180390911903892B09F05EC08091E60356
:102D60008823A1F06091DD037091DE038091DF0381
:102D70009091E0030E94EF196093E7037093E803DA
:102D80008093E9039093EA031092E60300E010E0D9
:102D90008091E60381111FC06091DD037091DE0315
:102DA0008091DF039091E0030E94EF199B01AC0139
:102DB0006091E7037091E8038091E9039091EA0341
:102DC0000E94411820E030E040E05FE30E94461B93
:102DD0000E94B7198B01B80185E993E00E945D0656
:102DE000B801110F880B990B0E94EF1920E030E019
:102DF000A9010E9442180E94B7196B017C0180E86A
:102E000093E00E945D06B6018AEA93E00E945D06A7
:102E10000E94CD010C94D20D71E07093E603809175
:102E200018039091190320911A0330911B03821B00
:102E3000930B22E3289F8001299F100D1124A8CF16
:102E4000DC0140915501509156011B965C934E93C5
:102E50001A978FEF9FEF1D969C938E931C9720914E
:102E600067012C30A8F481E0820F809367011E96E1
:102E70002C931E9730E0F901EE0FFF1F2E0F3F1F1E
:102E8000F901E759FE4F88EB9BE09283818304C0F0
:102E90008FEF1E968C931E97FA01EE0FFF1FE95AD3
:102EA000FE4FB183A0834F5F5F4F50935601409315
:102EB00055010895CF92DF92EF92FF92EBE6F2E098
:102EC0001382128288EE93E0A0E0B0E084839583C1
:102ED000A683B7832AE031E03183208325EC30E0FC
:102EE0003587248724EC30E03787268720EC30E0D4
:102EF000318B208B21EC30E0338B228B22EC30E0C5
:102F0000358B248B26EC30E0378B268B118E128E7E
:102F1000138E148EE8E0F3E013821282848395838B
:102F2000A683B7838CE191E09183808310924E0455
:102F300010924D04C12C80EAD82E80E8E82E84E45B
:102F4000F82EC0923D04D0923E04E0923F04F092ED
:102F50004004E4E1F3E02FEF3FEF3387228781E085
:102F600090E09587848737872687918B808B938B1A
:102F7000828B958B848B978B868B8CE293E00E945F
:102F8000201781E493E00E94201786E593E00E94D9
:102F900020178BE693E00E94201780E893E00E94C0
:102FA000201785E993E00E9420178AEA93E00E94A7
:102FB0002017C092E203D092E303E092E403F09280
:102FC000E503FF90EF90DF90CF900895052E97FBDB
:102FD0001EF400940E94FD1757FD07D00E941018A0
:102FE00007FC03D04EF40C94FD1750954095309596
:102FF00021953F4F4F4F5F4F089590958095709565
:1030000061957F4F8F4F9F4F08950E943218A59F63
:10301000900DB49F900DA49F800D911D11240895D3
:10302000A1E21A2EAA1BBB1BFD010DC0AA1FBB1FCC
:10303000EE1FFF1FA217B307E407F50720F0A21B3E
:10304000B30BE40BF50B661F771F881F991F1A94AB
:1030500069F760957095809590959B01AC01BD01D5
:10306000CF010895A29FB001B39FC001A39F700D2F
:10307000811D1124911DB29F700D811D1124911D80
:1030800008955058BB27AA270E9459180C94EB1A90
:103090000E94B21A38F00E94B91A20F039F49F3F0A
:1030A00019F426F40C94741A0EF4E095E7FB0C94D2
:1030B0006E1AE92F0E94101B58F3BA1762077307A4
:1030C0008407950720F079F4A6F50C94321B0EF4D2
:1030D000E0950B2EBA2FA02D0B01B90190010C0128
:1030E000CA01A0011124FF27591B99F0593F50F440
:1030F000503E68F11A16F040A22F232F342F442798
:10310000585FF3CF469537952795A795F04053958F
:10311000C9F77EF41F16BA0B620B730B840BBAF05F
:103120009150A1F0FF0FBB1F661F771F881FC2F7CA
:103130000EC0BA0F621F731F841F48F487957795DE
:103140006795B795F7959E3F08F0B0CF9395880F98
:1031500008F09927EE0F9795879508959F939F778D
:10316000EEE389379E0728F4E8E6F0E00E949E1A15
:103170000CC00E942A1A9058A2EA2AED3FE049ECBE
:103180005FE30E9459180E94EB1A0F9007FC9058B9
:1031900008950E94B21A60F080E891E009F49EEF71
:1031A0000E94B91A28F040E851E071F45EEF0CC0BB
:1031B0000C94741A0C94321BE92FE0780E94101BB7
:1031C00040F3092E052AB1F3261737074807590798
:1031D00038F00E2E07F8E02569F0E025E0640AC01B
:1031E000EF6307F8009407FADB01B9019D01DC01E8
:1031F000CA01AD01EF930E945C190E94EB1A0E9474
:103200000C195F91552339F02BED3FE049E450FD57
:1032100049EC0C9442180895DF93DD27B92FBF774E
:1032200040E85FE31616170648075B0718F4D92F26
:103230000E943E1B9F938F937F936F930E94011C6C
:10324000ECE7F0E00E94771A0E94EB1A2F913F9171
:103250004F915F910E94591BDD2351F09058A2EAD3
:103260002AED3FE049EC5FE3D0785D270E945918D2
:10327000DF910C94EB1A0E944A1A08F481E0089539
:103280000E94C21AE3950C94FC1A0E9459190C94DE
:10329000EB1A0E94B91A58F00E94B21A40F029F4B1
:1032A0005F3F29F00C946E1A51110C94331B0C944F
:1032B000741A0E94101B68F39923B1F3552391F3FC
:1032C000951B550BBB27AA2762177307840738F095
:1032D0009F5F5F4F220F331F441FAA1FA9F335D0F2
:1032E0000E2E3AF0E0E832D091505040E695001CA6
:1032F000CAF72BD0FE2F29D0660F771F881FBB1F60
:10330000261737074807AB07B0E809F0BB0B802D3D
:10331000BF01FF2793585F4F3AF09E3F510578F069
:103320000C946E1A0C94331B5F3FE4F3983ED4F375
:10333000869577956795B795F7959F5FC9F7880F3D
:10334000911D9695879597F90895E1E0660F771F8F
:10335000881FBB1F621773078407BA0720F0621B20
:10336000730B840BBA0BEE1F88F7E09508950E944B
:10337000BE196894B1110C94331B08950E94181B58
:1033800088F09F5798F0B92F9927B751B0F0E1F026
:10339000660F771F881F991F1AF0BA95C9F714C0D6
:1033A000B13091F00E94321BB1E008950C94321BB1
:1033B000672F782F8827B85F39F0B93FCCF386950F
:1033C00077956795B395D9F73EF49095809570956C
:1033D00061957F4F8F4F9F4F0895E89409C097FBE9
:1033E0003EF490958095709561957F4F8F4F9F4FDC
:1033F0009923A9F0F92F96E9BB279395F695879520
:1034000077956795B795F111F8CFFAF4BB0F11F4E2
:1034100060FF1BC06F5F7F4F8F4F9F4F16C0882389
:1034200011F096E911C0772321F09EE8872F762FBF
:1034300005C0662371F096E8862F70E060E02AF000
:103440009A95660F771F881FDAF7880F96958795EC
:1034500097F90895DF93CF931F930F938B01EC019E
:10346000E9EAF0E00E94771A0E94EB1A9801AE0197
:103470008B01EC0160E070E080E89FE30E9441185E
:103480000E94C11B9801AE010F911F91CF91DF9156
:103490000C94591B990F0008550FAA0BE0E8FEEF9A
:1034A00016161706E807F907C0F012161306E40708
:1034B000F50798F0621B730B840B950B39F40A2601
:1034C00061F0232B242B252B21F408950A2609F4DF
:1034D000A140A6958FEF811D811D089597F99F67E3
:1034E00080E870E060E008959FEF80EC0895DF933E
:1034F000CF931F930F93FF92EF92DF927B018C018A
:10350000689406C0DA2EEF010E94591BFE01E89470
:10351000A5912591359145915591A6F3EF010E9412
:103520005918FE019701A801DA9469F7DF90EF902E
:10353000FF900F911F91CF91DF9108959F938F93EB
:103540007F936F93FF93EF939B01AC010E94461B07
:10355000EF91FF910E94771A2F913F914F915F91C8
:103560000C94461B00240A94161617061806090622
:10357000089500240A9412161306140605060895E9
:103580000C94741A0E94181BD8F3E894E0E0BB274F
:103590009F57F0F02AED3FE049EC06C0EE0FBB0F5D
:1035A000661F771F881F28F0B23A620773078407E7
:1035B00028F0B25A620B730B840BE3959A9572F75D
:1035C000803830F49A95BB0F661F771F881FD2F79B
:1035D00090480C94071C092E0394000C11F48823C6
:1035E00052F0BB0F40F4BF2B11F460FF04C06F5FBB
:1035F0007F4F8F4F9F4F0895EF93E0FF07C0A2EAE0
:103600002AED3FE049EC5FEB0E9459180E94EB1A4B
:103610000F90039401FC9058E1EDF0E00C949E1A99
:1036200057FD9058440F551F59F05F3F71F0479573
:10363000880F97FB991F61F09F3F79F08795089558
:10364000121613061406551FF2CF4695F1DF08C077
:10365000161617061806991FF1CF86957105610594
:1036600008940895E894BB2766277727CB0197F93C
:1036700008950E944A1A08F48FEF08959B01AC0147
:1036800060E070E080E89FE30C9445190E94591BAC
:103690000C94EB1A0E94B21A38F00E94B91A20F06A
:1036A000952311F00C946E1A0C94741A11240C9436
:1036B000331B0E94101B70F3959FC1F3950F50E0D0
:1036C000551F629FF001729FBB27F00DB11D639FD4
:1036D000AA27F00DB11DAA1F649F6627B00DA11D7A
:1036E000661F829F2227B00DA11D621F739FB00D20
:1036F000A11D621F839FA00D611D221F749F332790
:10370000A00D611D231F849F600D211D822F762F28
:103710006A2F11249F5750409AF0F1F088234AF005
:10372000EE0FFF1FBB1F661F771F881F9150504071
:10373000A9F79E3F510580F00C946E1A0C94331B30
:103740005F3FE4F3983ED4F3869577956795B795F8
:10375000F795E7959F5FC1F7FE2B880F911D969512
:10376000879597F908959F930E94C21A0F9007FCBE
:10377000EE5F0C94FC1A19F416F40C94741A0C9461
:10378000051C0E94181BB8F39923C9F3B6F39F5781
:10379000550B87FF0E94131C0024A0E640EA90010D
:1037A00080585695979528F4805C660F771F881F80
:1037B00020F026173707480730F4621B730B840B81
:1037C000202931294A2BA6951794079420253125C5
:1037D0004A2758F7660F771F881F20F026173707EC
:1037E000480730F4620B730B840B200D311D411D13
:1037F000A09581F7B901842F9158880F96958795E8
:1038000008959B01AC010C94461B9F3F31F09150F1
:1038100020F4879577956795B795880F911D9695B4
:10382000879597F9089591505040660F771F881F2C
:10383000D2F70895DB018F939F930E940518BF91E3
:10384000AF91A29F800D911DA39F900DB29F900DEF
:1038500011240895991B79E004C0991F961708F068
:10386000961B881F7A95C9F780950895DF93CF93AB
:103870001F930F939A9DF02D219FF00D8B9DF00DBE
:103880008A9DE02DF10D039FF00D029FE00DF11DCB
:103890004E9DE00DF11D5E9DF00D4F9DF00D7F934F
:1038A0006F93BF92AF925F934F93D5010E943218EE
:1038B0008B01AC01D7010E943218EB01E80FF91F10
:1038C000D6010E94861C2F913F91D6010E9432188A
:1038D000C60FD71FE81FF91FAF91BF910E94861C2A
:1038E0002F913F910E943218C60FD71FE81FF91F72
:1038F000D6010E943218E60FF71F9801BE01CF01D2
:1039000011240F911F91CF91DF9108950E943218D9
:10391000460F571FC81FD91F08F43196089597FB0B
:1039200057FF0C949F1C9F938F930E949F1C6E1BAC
:103930007F0BAF91BF918A0B9B0B0895E894DF93A7
:10394000CF93FC01DB010E9432187F936F93E90152
:103950009A01AC01BF93AF933F932F93DF010E9475
:10396000321826F46C1B7D0B820B930B9E01EB012E
:10397000FC010E94861CAF91BF912F913F910E9444
:10398000861CBE01CF01F9012F913F91CF91DF91AC
:103990000895689401C0E894F92FF12B12F00C946B
:1039A000FD1CA0E0B0E0E7EDFCE10C946F1D092EDA
:1039B000059422F40E94591D112392F4F0E80F2679
:1039C000FFEFE094F09400951095B094C094D094DB
:1039D000A194BF0ACF0ADF0AEF0AFF0A0F0B1F0BE1
:1039E0000E94081D07FC0E94591DCDB7DEB7ECE010
:1039F0000C948B1D689401C0E8948F929F92CF9392
:103A0000DF930E94081DDF91CF919F908F900895C2
:103A100088249924F401E401B0E49F93AA279A151D
:103A20008B049C04ED05FE05CF05D007A10798F493
:103A3000AD2FDC2FCF2FFE2FE92D982C892E982F1C
:103A4000872F762F652F542F432F322F2227B850E0
:103A500031F7BF9127C01B2EBF91BB27220F331F09
:103A6000441F551F661F771F881F991F881C991CAC
:103A7000EE1FFF1FCC1FDD1FAA1FBB1F8A149B0454
:103A8000EC05FD05CE05DF05A007B10748F08A1853
:103A90009B08EC09FD09CE09DF09A00BB10B2160E1
:103AA0001A94E1F62EF49401AF01BE01CD01000C91
:103AB00008956095709580959095309540955095B6
:103AC00021953F4F4F4F5F4F6F4F7F4F8F4F9F4F0E
:103AD00008952F923F924F925F926F927F928F92B2
:103AE0009F92AF92BF92CF92DF92EF92FF920F938D
:103AF0001F93CF93DF93CDB7DEB7CA1BDB0B0FB697
:103B0000F894DEBF0FBECDBF09942A883988488853
:103B10005F846E847D848C849B84AA84B984C884E9
:103B2000DF80EE80FD800C811B81AA81B981CE0FE0
:103B3000D11D0FB6F894DEBF0FBECDBFED010895C5
:103B40000F93083090F0982F872F762F652F542FE2
:103B5000432F322F22270850F4CF220F331F441F48
:103B6000551F661F771F881F991F0A95B2F70F917F
:103B7000089597FB10F8169400080F93083098F0FA
:103B80000850232F342F452F562F672F782F892F3A
:103B9000902DF4CF059497958795779567955795D0
:103BA0004795379527950A95AAF70F9108952A0DFD
:103BB0003B1D4C1D5D1D6E1D7F1D801F911F0895B7
:103BC0000024A7FD00942A0F301D401D501D601DCC
:103BD000701D801D901D08952A193B094C095D092F
:103BE0006E097F09800B910B08950024A7FD0094B6
:103BF0002A173005400550056005700580059005C1
:103C00000895EE0FFF1F0590F491E02D09940F9396
:103C10001F93CF93DF938230910510F482E090E000
:103C2000E0915B04F0915C0420E030E0A0E0B0E0C3
:103C3000309719F14081518102811381481759074A
:103C4000C8F08417950769F4109731F012960C9319
:103C5000129713961C9327C000935B0410935C0487
:103C600022C02115310519F04217530718F49A01A3
:103C7000BD01EF01DF01F801DBCF21153105F9F0BE
:103C8000281B390B2430310580F48A819B81611512
:103C9000710521F0FB019383828304C090935C043F
:103CA00080935B04FE01329644C0FE01E20FF31FD5
:103CB0008193919322503109398328833AC020910E
:103CC000590430915A04232B41F420910201309180
:103CD000030130935A04209359042091000130913C
:103CE00001012115310541F42DB73EB74091040182
:103CF00050910501241B350BE0915904F0915A04B1
:103D0000E217F307A0F42E1B3F0B2817390778F0B2
:103D1000AC014E5F5F4F2417350748F04E0F5F1F11
:103D200050935A04409359048193919302C0E0E068
:103D3000F0E0CF01DF91CF911F910F910895CF93C4
:103D4000DF93009709F481C0FC013297138212823D
:103D5000A0915B04B0915C04109781F420813181C3
:103D6000820F931F2091590430915A042817390764
:103D700051F5F0935A04E093590467C0ED0120E037
:103D800030E0CE17DF0740F44A815B819E01411588
:103D90005105F1F0EA01F5CFD383C283408151810F
:103DA000840F951FC817D90759F488819981840F0A
:103DB000951F0296918380838A819B81938382835E
:103DC0002115310529F4F0935C04E0935B043DC0B8
:103DD000E901FB83EA8349915991C40FD51FEC1780
:103DE000FD0761F480819181840F951F0296E9019E
:103DF00099838883828193819B838A83E0E0F0E0CA
:103E000012968D919C911397009719F0FD01DC019A
:103E1000F7CF8D919C9111979D012E5F3F4F820F9F
:103E2000931F2091590430915A042817390769F4D7
:103E3000309729F410925C0410925B0402C0138244
:103E40001282B0935A04A0935904DF91CF91089540
:0E3E500081E090E0F8940C942D1FF894FFCFC1
:103E5E0000005D048000000000005E01CB00F50054
:103E6E00AB012601040118010000000064023702B4
:103E7E0094020B022F021B020C0253746F707069B6
:103E8E006E672E2E2E005374617274696E672E2E1D
:063E9E002E000D0A0000D9
:00000001FF
