:100000000C94B2000C94DA000C94DA000C94DA0030
:100010000C94DA000C94DA000C94DA000C94DA00F8
:100020000C94DA000C94DA000C94DA000C94360587
:100030000C94DA000C94DA000C94DA000C94DA00D8
:100040000C94BC0D0C949C070C9406030C94E002D9
:100050000C94DA000C94DA000C94DA000C94DA00B8
:100060000C9438030C94DA0021082E08370849084C
:100070005E085E085E085E085508520858085E086B
:100080005E085E08FC073C084908036EDB363D9AB3
:100090009999993DABAAAA2A3E000000803F084AE0
:1000A000D73B3BCE016E84BCBFFDC12F3D6C74318C
:1000B0009ABD56833DDA3D00C77F11BED9E4BB4CE3
:1000C0003E916BAAAABE000000803F072C7AA5BA19
:1000D0006CC590DA3B9365FC8BBC53F810FD3C5625
:1000E00092834DBD879D3AB63DCBC9BF5BBE73DAE7
:1000F0000FC93F05A84CCDB2D44EB93836A9020C71
:1001000050B9918688083CA6AAAA2ABE00000080A1
:100110003F00000000080002010000030407000087
:1001200000000000000000000000250028002B0057
:1001300000000000240027002A0004040404040432
:100140000404020202020202030303030303010286
:100150000408102040800102040810200102040855
:100160001020591911241FBECFEFD8E0DEBFCDBF3C
:1001700011E0A0E0B1E0E8EFF2E402C005900D92DA
:10018000AC33B107D9F724E0ACE3B1E001C01D9274
:10019000A73BB207E1F710E0C2EBD0E004C0219723
:1001A000FE010E948C1FC13BD107C9F70E94060EB9
:1001B0000C947A210C940000CF92DF92EF92FF9280
:1001C0000F931F93CF93DF936C017A018B01C0E0F3
:1001D000D0E0CE15DF0581F0D8016D918D01D601FB
:1001E000ED91FC910190F081E02DC6010995892BDC
:1001F00011F02196EECF7E01C701DF91CF911F91C3
:100200000F91FF90EF90DF90CF900895FC01538DF8
:10021000448D252F30E0842F90E0821B930B5417E0
:1002200010F0CF96089501970895FC01918D828D6D
:10023000981761F0828DDF01A80FB11D5D968C913A
:10024000928D9F5F9F73928F90E008958FEF9FEF45
:100250000895FC01918D828D981731F0828DE80F01
:10026000F11D858D90E008958FEF9FEF0895FC01BB
:10027000918D228D892F90E0805C9F4F821B910988
:100280008F73992708958EE292E00E94370121E052
:10029000892B09F420E0822F0895FC01848DDF0171
:1002A000A80FB11DA35ABF4F2C91848D90E00196E9
:1002B0008F739927848FA689B7892C93A089B189D8
:1002C0008C91837080648C93938D848D981306C079
:1002D0000288F389E02D80818F7D80830895EF92DD
:1002E000FF920F931F93CF93DF93EC0181E0888FF0
:1002F0009B8D8C8D981305C0E889F989808185FDD7
:1003000026C0F62E0B8D10E00F5F1F4F0F731127C5
:10031000E02E8C8DE8120CC00FB607FCFACFE889EE
:10032000F989808185FFF5CFCE010E944D01F1CF83
:100330008B8DFE01E80FF11DE35AFF4FF0829FB74E
:10034000F8940B8FEA89FB89808180620AC09FB78D
:10035000F894EE89FF896083E889F9898081837048
:10036000806480839FBF81E090E0DF91CF911F91F7
:100370000F91FF90EF900895CF93DF93EC01888D5C
:100380008823C9F0EA89FB89808185FD05C0A88999
:10039000B9898C9186FD0FC00FB607FCF5CF80811F
:1003A00085FFF2CFA889B9898C9185FFEDCFCE0169
:1003B0000E944D01E7CFDF91CF91089580E090E05A
:1003C000892B29F00E94430181110C9400000895AB
:1003D00085ED8093BC008091BC0084FDFCCF109221
:1003E0000802089540917A01262F30E0240F311D34
:1003F00021323105DCF4209108022430C9F4FC01DB
:1004000080E090E0861758F430917A012191DC0168
:10041000A65ABE4FA30FB11D2C930196F3CF809126
:100420007A01680F60937A0180E0089581E0089571
:1004300082E00895089508950895E0919E018091C5
:100440009D01E81730F4F0E0EE53FE4F808190E01C
:1004500008958FEF9FEF089590919E0180919D01E7
:10046000981750F4E92FF0E0EE53FE4F208130E072
:100470009F5F90939E0102C02FEF3FEFC901089547
:1004800080919D0190E020919E01821B9109089529
:10049000CF92DF92EF92FF920F931F93CF93DF9350
:1004A0007C01CB018A0120919F01222389F0EB017D
:1004B0006B01C40ED51ECC15DD0569F06991D7011D
:1004C000ED91FC910190F081E02DC7010995F3CFEA
:1004D000642F0E94F201C801DF91CF911F910F910B
:1004E000FF90EF90DF90CF900895CF93DF931F920E
:1004F000CDB7DEB7698320919F012223D1F02091EF
:10050000C101203240F021E030E0FC01338322833E
:1005100080E090E015C08091A001E82FF0E0EF5559
:10052000FE4F998190838F5F8093A0018093C101DA
:1005300005C061E0CE0101960E94F20181E090E0E9
:100540000F90DF91CF910895089580E090E0089595
:10055000FC0190819C3088F5818128E830E0281BDF
:10056000310987FD3395220F331F220F331F621786
:10057000730784F0828148E552E0481B510987FDEA
:100580005395440F551F440F551F9B01461757079E
:100590000CF49A0122503109220F331F4FB7F894FF
:1005A000892F90E0FC01EE0FFF1F8E0F9F1FFC01B3
:1005B000E75FFD4F328321834FBF08950E9475216D
:1005C0001F920F920FB60F9211242F933F934F93C8
:1005D0005F936F937F938F939F93AF93BF93EF93AB
:1005E000FF938EE292E00E944D01FF91EF91BF9147
:1005F000AF919F918F917F916F915F914F913F91BB
:100600002F910F900FBE0F901F9018951F920F9271
:100610000FB60F9211242F938F939F93EF93FF9315
:10062000E0913E02F0913F028081E0914402F0911E
:10063000450282FD12C09081809147028F5F8F73C7
:1006400020914802821751F0E0914702F0E0E25D0C
:10065000FD4F958F8093470201C08081FF91EF91FC
:100660009F918F912F910F900FBE0F901F90189513
:100670001F920F920FB60F9211242F933F934F9317
:100680005F936F937F938F939F93AF93BF93EF93FA
:10069000FF938091B900887F803609F49CC068F58B
:1006A000883209F45BC090F4803109F454C038F406
:1006B000882309F4F6C0883009F44DC0F6C08831AB
:1006C00009F44CC0803209F45DC0EFC0803409F4F5
:1006D00068C048F4803309F455C0883309F0E5C098
:1006E00080930602D8C0803509F44FC0883509F4DC
:1006F0005DC0883409F0D9C0D6C0883909F4C7C0B4
:10070000A8F4883709F467C038F4883609F463C060
:10071000803709F460C0C9C0883809F4B8C080398E
:1007200009F45FC0803809F0C0C05BC0803B09F4A9
:1007300086C038F4803A09F466C0883A09F47FC06C
:10074000B4C0803C09F4A7C0883C09F4A4C0883B2D
:1007500009F48AC0AAC08091030210C090910502DA
:1007600080910402981770F5E091050281E08E0FE8
:1007700080930502F0E0EE51FE4F80818093BB0034
:1007800085EC86C0809306028EC0E091050281E070
:100790008E0F809305028091BB00F0E0EE51FE4F7A
:1007A000808390910502809104026EC0E091050261
:1007B00081E08E0F809305028091BB00F0E0EE5146
:1007C000FE4F80838091070281116DC081E080938C
:1007D000020284EA61C083E08093080210929C01C7
:1007E000CFCF80919C01803208F051C0E0919C01F4
:1007F00081E08E0F80939C018091BB00F0E0E45873
:10080000FE4F8083BDCF85EC8093BC001092080220
:1008100080919C01803230F4E0919C01F0E0E4583A
:10082000FE4F108260919C0170E0E0913C01F091DC
:100830003D018CE791E0099510929C0136C084E05F
:100840008093080210927B0110927A01E0913E01A0
:10085000F0913F01099580917A01811105C081E0F5
:1008600080937A0110925A01E0917B0181E08E0F12
:1008700080937B01F0E0E65AFE4F80818093BB00BD
:1008800090917B0180917A01981708F479CF85E8DF
:100890008093BC000AC085EC8093BC0010920802D3
:1008A00004C0109206020E94E801FF91EF91BF91EF
:1008B000AF919F918F917F916F915F914F913F91F8
:1008C0002F910F900FBE0F901F9018954F925F922F
:1008D0006F927F928F929F92AF92BF92CF92DF9250
:1008E000EF92FF92CF93DF9300D000D000D0CDB72E
:1008F000DEB79E838D836A017B0120E030E0A90191
:10090000C701B6010E94911C87FF04C0C701B60150
:10091000905802C0C701B601ED81FE81208931895E
:10092000428953890E948F1EED81FE8118160CF0BA
:1009300055C02081318142815381C701B6010E9497
:100940009C1E2B013C01ED81FE8184849584A6844C
:10095000B784208D318D428D538DC701B6010E9421
:10096000971BA50194010E949B1CED81FE812085AF
:100970003185428553850E949C1E69837A838B83CF
:100980009C83A5019401C701B6010E949C1EED81C4
:10099000FE81248D358D468D578D0E94981BED81EB
:1009A000FE81648F758F868F978F24813581468174
:1009B00057810E949C1E4B015C0129813A814B8129
:1009C0005C81C301B2010E94981B9B01AC01C5016F
:1009D000B4010E94981B4B015C0108C0148E158E57
:1009E000168E178E812C912CA12CB12CED81FE81BD
:1009F000C08ED18EE28EF38EC488D588E688F788C3
:100A000020E030E0A901C701B6010E948F1E181630
:100A1000B4F4A7019601B401C5010E948F1E1816F7
:100A200064F0F7FAF094F7F8F094A7019601B40196
:100A3000C5010E94911C87FF02C046015701B40105
:100A4000C50126960FB6F894DEBF0FBECDBFDF916D
:100A5000CF91FF90EF90DF90CF90BF90AF909F909D
:100A60008F907F906F905F904F9008951F920F929C
:100A70000FB60F9211242F933F934F935F936F9371
:100A80007F938F939F93AF93BF93EF93FF93809147
:100A9000590187FF05C010928500109284001BC089
:100AA00020915901022E000C330B80912D0290E011
:100AB0002817390784F480915901082E000C990BEE
:100AC000FC01EE0FFF1F8E0F9F1FFC01E75FFD4F24
:100AD000808186FD15C0809159018F5F80935901F7
:100AE00020915901022E000C330B80912D0290E0D1
:100AF00028173907C4F4809159018C3064F113C070
:100B000080915901082E000C990BFC01EE0FFF1F7C
:100B10008E0F9F1FFC01E75FFD4F808160E08F73A8
:100B20000E94100DD8CF809184009091850004968A
:100B300080349C4918F480E49CE905C080918400CD
:100B400090918500049690938900809388008FEFA0
:100B5000809359013BC020918400309185008091A1
:100B60005901082E000C990BFC01EE0FFF1F8E0F90
:100B70009F1FFC01E75FFD4F81819281820F931FD0
:100B8000909389008093880080915901082E000C71
:100B9000990BFC01EE0FFF1F8E0F9F1FFC01E75FFB
:100BA000FD4F808186FF12C080915901082E000CF4
:100BB000990BFC01EE0FFF1F8E0F9F1FFC01E75FDB
:100BC000FD4F808161E08F730E94100DFF91EF91C6
:100BD000BF91AF919F918F917F916F915F914F9155
:100BE0003F912F910F900FBE0F901F901895FF927D
:100BF0000F931F93CF93DF93EC016D877E878C015A
:100C00000A5F1F4F8E818C3008F050C0F62E862F61
:100C10000E94AA098E81E82FF0E09F01220F331F66
:100C2000E20FF31FE75FFD4F6F2D6F739081907C94
:100C3000F92EF62AF0821F8218866CE00E94801F2F
:100C40009CE0899FB001112440E050E09B01240FFB
:100C5000351FF901EE0FFF1F2E0F3F1FF901E75F50
:100C6000FD4F908196FD16C04F5F5F4F4C30510590
:100C700069F781110FC01092800082E0809381009B
:100C80001092850010928400B19A80916F0082606A
:100C900080936F00EE81F0E0CF01880F991FE80F7D
:100CA000F91FE75FFD4F8081806480836CED75E004
:100CB000C801DF91CF911F910F91FF900C94A80272
:100CC0000F931F93CF93DF93EC014D895E894617F5
:100CD00057072CF4898D9A8D9A87898720C0EB89D4
:100CE000FC890F89188D6E177F071CF41A870987F6
:100CF00016C09B012E1B3F0BA98DBA8DA01BB10BFB
:100D00000E94921F9A012E1B3F0B032E000C440BD6
:100D1000550B0E943C1B200F311F3A872987DF911A
:100D2000CF911F910F910895CF93DF93EC0128810C
:100D300039816A817B814C815D8189859A85EB85CA
:100D4000FC858E1B9F0B820F931F861B970B97FFB3
:100D500003C0919581959109481759071CF0798333
:100D600068830DC0261737071CF4240F351F05C0F4
:100D70006217730724F4241B350B39832883688199
:100D80007981CE0106960E94A80281E048815981AE
:100D90002A813B814217530709F080E0DF91CF9110
:100DA0000895FF920F931F93CF93DF93EC01F42EDE
:100DB0004D895E89461757072CF48F8598899B8348
:100DC0008A8320C0EB89FC8909891A896E177F07FD
:100DD0001CF41B830A8316C09B012E1B3F0BAF859F
:100DE000B889A01BB10B0E94921F9A012E1B3F0BCA
:100DF000032E000C440B550B0E943C1B200F311F8F
:100E00003B832A832A813B8189859A85820F931FA0
:100E10009B838A83FF2041F0CE01DF91CF911F9108
:100E20000F91FF900C949406DF91CF911F910F9139
:100E3000FF900895FC01128611862CED35E0338376
:100E40002283318320836CED75E006960C94A80212
:100E50006536710514F064E670E077FF02C060E06B
:100E600070E0660F771F660F771F2CED35E0261BAD
:100E7000370BFC01328B218B64527A4F708B678762
:100E800008958F929F92AF92BF92EF92FF920F932D
:100E90001F93CF93DF93EC017B018B01000F111F98
:100EA000000F111F0C0F1D1FF801668577858089C3
:100EB00091890E940D1D4B015C01CE018E5A9F4FFE
:100EC0000E942807B401CE01C7960E942807B401EA
:100ED000CE0188579F4F0E942807B401CE01835945
:100EE0009F4F0E942807F801628D738D848D958D28
:100EF0000E940D1D4B015C01CE018D559F4F0E943C
:100F00002807B401CE0182549F4F0E942807B401E4
:100F1000CE0187529F4F0E942807C359DE4FF982A6
:100F2000E882DF91CF911F910F91FF90EF90BF90DA
:100F3000AF909F908F9008951F920F920FB60F92CF
:100F40001124CF92DF92EF92FF920F931F932F9372
:100F50003F934F935F936F937F938F939F93AF9341
:100F6000BF93CF93DF93EF93FF938EB58093580198
:100F700080915701882349F08FEF8EBD1092570161
:100F8000109256011092550118C0E0915501F09150
:100F90005601E05CFE4F80818EBD8091550190919D
:100FA00056018430910521F481E08093570105C0FA
:100FB00001969093560180935501E0915801E111FB
:100FC00004C081E0809354015EC1EF3F21F481E0D1
:100FD0008093530158C180915401882309F471C052
:100FE0008E2F90E0FC013497E131F10508F066C0E6
:100FF000EC5CFF4F0C948C1F80914904882379F09E
:1010000010920C0310920B0310920E0310920D031A
:101010001092100310920F03109249044FC0609178
:1010200045017091460180914701909148010E94CD
:101030000D1D21E020934904709313036093120364
:101040003DC08DEC9CECACE4BFE380934E049093E8
:101050004F04A0935004B093510430C010924E043A
:1010600010924F04109250041092510427C08AE944
:1010700099E9A9E1BFE304C080E090E0A0E8BFE304
:1010800080934A0490934B04A0934C04B0934D0476
:1010900015C010924A0410924B0410924C04109206
:1010A0004D040CC062E070E005C061E070E002C079
:1010B00060E070E085EE92E00E94410710925401DA
:1010C000DEC080915301882309F4DDC0C091510135
:1010D000D0915201C130D10509F449C0C230D105C7
:1010E00009F485C0209709F0C1C0F0E08F010F57C7
:1010F0001109B801012E000C880B990B0E94451DA7
:101100006B017C01609114037091150380911603AB
:1011100090911703A70196010E948F1E18164CF498
:101120006091140370911503809116039091170339
:1011300016C0609118037091190380911A03909161
:101140001B03A70196010E94911C87FF0BC06091B1
:1011500018037091190380911A0390911B030E9448
:101160000D1D8B0110930C0300930B037FC0F0E067
:101170008F010F571109B801012E000C880B990B34
:101180000E94451D6B017C012091140330911503D1
:1011900040911603509117030E94911C87FF09C0CC
:1011A00060911403709115038091160390911703B9
:1011B00016C0209118033091190340911A035091E1
:1011C0001B03C701B6010E948F1E18165CF46091C4
:1011D00018037091190380911A0390911B030E94C8
:1011E0000D1D8B0110930E0300930D033FC0F0E023
:1011F0008F010F571109B801012E000C880B990BB4
:101200000E94451D6B017C01209114033091150350
:1012100040911603509117030E94911C87FF09C04B
:101220006091140370911503809116039091170338
:1012300016C0209118033091190340911A03509160
:101240001B03C701B6010E948F1E18165CF4609143
:1012500018037091190380911A0390911B030E9447
:101260000D1D8B011093100300930F032196D09353
:101270005201C0935101239734F010925301109200
:10128000520110925101FF91EF91DF91CF91BF91E7
:10129000AF919F918F917F916F915F914F913F910E
:1012A0002F911F910F91FF90EF90DF90CF900F90B3
:1012B0000FBE0F901F901895CF93DF93EC01809194
:1012C0002D028C3098F491E0980F90932D028E832C
:1012D00090E0FC01EE0FFF1F8E0F9F1FFC01E75FE8
:1012E000FD4F88EB9BE09283818302C08FEF8E835A
:1012F0007C8B6B8B5E8B4D8BC9012333310514F0D6
:1013000082E390E097FF02C080E090E0880F991F91
:10131000880F991F22273327281B390B388F2F8BD3
:101320009A8F898F1A86198660E070E0CE010E943C
:10133000280784E090E09D838C838CED95E0998371
:1013400088839B838A838FEF9FEF9E878D87DF91B2
:10135000CF91089590E0FC01E25BFE4F2491FC01E7
:10136000E65CFE4F8491882399F090E0880F991FE6
:10137000FC01E05DFE4FA591B491FC01EA5DFE4FDA
:10138000859194918FB7F894EC91E22BEC938FBFF9
:101390000895909108029111FCCF91E0909308027A
:1013A000409307022FEF2093060210920502260FAA
:1013B000209304029093030290910302880F892BDB
:1013C0008093030280910202813061F41092020244
:1013D000809103028093BB008091BC0083FDF8CF15
:1013E00085EC01C085EE8093BC00809108028130BD
:1013F000E1F380910502861710F460910502A2EED8
:10140000B1E0E2ECF1E080E0861721F09D9191934C
:101410008F5FFACF0895282F3091C101313208F043
:101420004AC0809108028111FCCF9091AD0442E046
:1014300040930802209307022FEF20930602109298
:10144000050230930402E1EAF1E0A2EEB1E020E00F
:10145000321721F041914D932F5FFACF1092030282
:1014600020910302990F922B909303029091020214
:10147000913061F410920202909103029093BB00AC
:101480009091BC0093FDF8CF95EC01C095EE909340
:10149000BC00909108029230E1F3909106029F3FC8
:1014A00079F080910602803241F08091060280330B
:1014B00031F084E005C081E003C082E001C083E038
:1014C0001092A0011092C10110929F01089591E025
:1014D00090939F018093AD041092A0011092C101DE
:1014E0000895813208F080E241E0682F86E70E948B
:1014F000C90910929E0180939D01089581E00C948A
:101500000B0A682F8BEC92E00C9475024F925F925D
:101510006F927F928F929F92AF92BF92CF92DF9203
:10152000EF92FF92CF93DF93CDB7DEB7A4970FB6BC
:10153000F894DEBF0FBECDBFC090A404D090A50428
:10154000E090A604F090A7048091940490919504F3
:10155000A0919604B0919704BC01CD019058A701C9
:1015600096010E949C1E2B013C0180919804909151
:101570009904A0919A04B0919B04BC01CD019058AC
:10158000A70196010E949C1E4B015C0120919C04C6
:1015900030919D0440919E0450919F04C701B60173
:1015A0000E949C1E6B017C01C301B2010E94961C2B
:1015B0006D837E838F839887C501B4010E94961C3A
:1015C00069877A878B879C87C701B6010E94961C22
:1015D0006D877E878F87988B80918004909181049E
:1015E000A0918204B0918304898B9A8BAB8BBC8BC6
:1015F000BC01CD010E94961C6D8B7E8B8F8B988FCA
:1016000080917C0490917D04A0917E04B0917F0430
:10161000898F9A8FAB8FBC8FBC01CD010E94961C25
:1016200069837A838B839C83C301B2010E94091F63
:101630006D8F7E8F8F8F98A3C501B4010E94091F03
:1016400069A37AA38BA39CA3C701B6010E94091FBB
:101650002B013C0169897A898B899C890E94091F29
:10166000698B7A8B8B8B9C8B698D7A8D8B8D9C8D06
:101670000E94091F6B017C0129813A814B815C81A9
:101680006D857E858F8598890E949C1E29893A895F
:101690004B895C890E949C1E4B015C01A70196014D
:1016A000C301B2010E949C1E9B01AC01C501B401A3
:1016B0000E94981B4B015C01A70196016D857E85F8
:1016C0008F8598890E949C1E6B017C01A301920169
:1016D00069817A818B819C810E949C1E29893A892B
:1016E0004B895C890E949C1E9B01AC01C701B6011D
:1016F0000E94971B6D877E878F87988B9B01AC011B
:1017000069A17AA18BA19CA10E949C1E6B017C0106
:1017100029813A814B815C8169857A858B859C859D
:101720000E949C1E2D893E894F89588D0E949C1EC7
:101730009B01AC01C701B6010E94971B2B013C0124
:101740006D8D7E8D8F8D98A19058A50194010E947A
:101750009C1E6B017C01A30192016D817E818F81B2
:1017600098850E949C1E9B01AC01C701B6010E9496
:10177000971B6B017C01A50194016D817E818F8196
:1017800098850E949C1E4B015C01A30192016D8D06
:101790007E8D8F8D98A10E949C1E9B01AC01C5017E
:1017A000B4010E94971B4B015C01A70196010E94A6
:1017B000321C6D837E838F8398876093800470933F
:1017C00081048093820490938304A5019401C50150
:1017D000B4010E949C1E4B015C01A7019601C70148
:1017E000B6010E949C1E9B01AC01C501B4010E9480
:1017F000981B6B017C0120E030E0A9010E948F1E44
:10180000181624F0F7FAF094F7F8F094C701B6012F
:101810000E94171F6B017C0129813A814B815C81F9
:101820006D897E898F89988D0E949C1E29A13AA17D
:101830004BA15CA10E949C1E4B015C012D853E8545
:101840004F85588969857A858B859C850E949C1E69
:101850009B01AC01C501B4010E94981BA701960130
:101860000E94321C69877A878B879C8760937C04EF
:1018700070937D0480937E0490937F04809188040C
:1018800090918904A0918A04B0918B0489839A83F2
:10189000AB83BC8340908C0450908D0460908E0488
:1018A00070908F048090900490909104A090920486
:1018B000B09093049C01AD01BC01CD010E949C1E1F
:1018C0006B017C01A3019201C301B2010E949C1E25
:1018D0009B01AC01C701B6010E94981B6B017C0102
:1018E000A5019401C501B4010E949C1E9B01AC019D
:1018F000C701B6010E94981B6B017C0120E030E01B
:10190000A9010E948F1E181624F0F7FAF094F7F838
:10191000F094C701B6010E94171F6B017C0126E6F7
:1019200036E646E65FE30E948F1E18160CF063C091
:101930002DEC3CEC4CE85FE3C701B6010E94911C22
:1019400087FF59C0A5019401C301B2010E94321C56
:101950002B013C0169817A818B819C819058A70180
:1019600096010E949B1C0E94041C6B017C012DECC3
:101970003CEC4CE45FE36D817E818F8198850E9411
:101980009C1E4B015C012DEC3CEC4CE45EE3C3017E
:10199000B2010E949C1E9B01AC01C501B4010E94D2
:1019A000981B6093800470938104809382049093C9
:1019B00083042DEC3CEC4CE45FE369857A858B85F0
:1019C0009C850E949C1E4B015C012DEC3CEC4CE480
:1019D0005EE3C701B6010E949C1E9B01AC01C501DC
:1019E000B4010E94981B60937C0470937D048093E3
:1019F0007E0490937F04A4960FB6F894DEBF0FBECA
:101A0000CDBFDF91CF91FF90EF90DF90CF90BF904F
:101A1000AF909F908F907F906F905F904F900895C0
:101A200090E0FC01EE5EFE4F2491FC01E25BFE4F74
:101A30003491FC01E65CFE4FE491EE2309F43CC0D6
:101A4000222339F1233091F038F42130A9F02230EB
:101A500001F584B58F7D12C0273091F02830A1F0B8
:101A60002430B9F4809180008F7D03C08091800084
:101A70008F77809380000DC084B58F7784BD09C0B7
:101A80008091B0008F7703C08091B0008F7D8093EC
:101A9000B000F0E0EE0FFF1FEA5DFE4FA591B4919C
:101AA0009FB7F894611104C08C913095382302C01F
:101AB000EC913E2B3C939FBF08958F929F92AF92E3
:101AC000BF92CF92DF92EF92FF926B017C010E9456
:101AD000970D4B015C01C114D104E104F104F1F054
:101AE0000E94970DDC01CB0188199909AA09BB094D
:101AF000883E9340A105B10570F321E0C21AD108D8
:101B0000E108F10888EE880E83E0981EA11CB11C44
:101B1000C114D104E104F10419F7DDCFFF90EF9077
:101B2000DF90CF90BF90AF909F908F9008953FB778
:101B3000F8948091B3049091B404A091B504B0914D
:101B4000B60426B5A89B05C02F3F19F00196A11D2C
:101B5000B11D3FBFBA2FA92F982F8827820F911D43
:101B6000A11DB11DBC01CD0142E0660F771F881F8A
:101B7000991F4A95D1F708951F920F920FB60F92B1
:101B800011242F933F938F939F93AF93BF93809193
:101B9000AE049091AF04A091B004B091B104309123
:101BA000B20423E0230F2D3720F40196A11DB11DAF
:101BB00005C026E8230F0296A11DB11D2093B20493
:101BC0008093AE049093AF04A093B004B093B1049B
:101BD0008091B3049091B404A091B504B091B6047F
:101BE0000196A11DB11D8093B3049093B404A093FA
:101BF000B504B093B604BF91AF919F918F913F917F
:101C00002F910F900FBE0F901F901895CF93DF93D9
:101C1000CDB7DEB7E3970FB6F894DEBF0FBECDBFEA
:101C2000789484B5826084BD84B5816084BD85B5B7
:101C3000826085BD85B5816085BD80916E008160C3
:101C400080936E0010928100809181008260809369
:101C5000810080918100816080938100809180006B
:101C60008160809380008091B10084608093B10096
:101C70008091B00081608093B00080917A00846090
:101C800080937A0080917A00826080937A008091BC
:101C90007A00816080937A0080917A0080688093D6
:101CA0007A001092C100E0913E02F0913F0282E082
:101CB0008083E0913A02F0913B021082E0913C0275
:101CC000F0913D028FEC808310924602E091420237
:101CD000F091430286E08083E0914002F09141025E
:101CE000808180618083E0914002F0914102808197
:101CF00088608083E0914002F09141028081806899
:101D00008083E0914002F091410280818F7D808349
:101D100010929E0110929D011092A0011092C1019B
:101D200010920802EE24E394E0920702109202025D
:101D300061E082E10E94100D61E083E10E94100DDC
:101D40008091B9008E7F8093B9008091B9008D7F1A
:101D50008093B90088E48093B80085E48093BC0048
:101D60008AE192E090933F0180933E018BE192E003
:101D700090933D0180933C0188E60E94670A8BE6C0
:101D800090E00E94810A80E090E00E94810A81E058
:101D90000E940B0A64E670E080E090E00E945D0D16
:101DA000E092770480E090E4A9E7B4E480937804BB
:101DB00090937904A0937A04B0937B0486E70E9401
:101DC000670A8EE190E00E94810A0E947E0A6AE022
:101DD00070E080E090E00E945D0D17E5E12E14E0D8
:101DE000F12E20EA30E03A83298386E70E94670AD1
:101DF00089819A810E94810A0E947E0A41E062E004
:101E000086E70E94C90910929E0180939D018BEC88
:101E100092E00E942C02D82E8BEC92E00E942C02C1
:101E20001D2D00E0802B912BD7018D939D937D017B
:101E3000E981FA813296FA83E983EE3AF105A9F64F
:101E400080915704909158049F7090935804809308
:101E50005704109266041092650464E670E080E016
:101E600090E00E945D0D68E070E088E893E00E94D9
:101E7000F70567E070E083EA93E00E94F70564E00D
:101E800070E08EEB93E00E94F70565E070E087E379
:101E900093E00E94F70566E070E08CE193E00E9419
:101EA000F70563E070E08DE693E00E94F70562E0DD
:101EB00070E082E593E00E94F70510920C03109207
:101EC0000B0310920E0310920D0310921003109248
:101ED0000F03109249041092110360E070E085EE48
:101EE00092E00E94410781E08093540468EE73E021
:101EF00080E090E00E945D0DF8948CE00E94AA09B9
:101F00008CB580648CBD8FEF8EBD8CB580688CBD28
:101F100078948CE090E0A0E0B0E08093D7029093BA
:101F2000D802A093D902B093DA022FB7F894809127
:101F3000AE049091AF04A091B004B091B1042FBF52
:101F40008093DB029093DC02A093DD02B093DE026B
:101F50001092E4021092E3021092E1021092E20267
:101F60008091E3029091E402892B31F52FB7F89428
:101F70008091AE049091AF04A091B004B091B104EF
:101F80002FBF4091DB025091DC026091DD02709125
:101F9000DE02841B950BA60BB70B4091D702509124
:101FA000D8026091D9027091DA0284179507A607CA
:101FB000B70710F00C9414198091E3029091E40299
:101FC000019711F00C9410192FB7F8948091AE047A
:101FD0009091AF04A091B004B091B1042FBF809351
:101FE000DB029093DC02A093DD02B093DE0210923C
:101FF000E4021092E3021092E1021092E202F1E494
:10200000F0937C0080917A00806480937A008091C4
:102010007A0086FDFCCF609178008091790070E0B5
:10202000782B072E000C880B990B0E94451D2AEA7D
:1020300031EF42E050E40E949B1C60934D0170938D
:102040004E0180934F01909350010E94970D009193
:10205000490110914A0120914B0130914C01DC0162
:10206000CB01801B910BA20BB30B81329E44A105C7
:10207000B10560F00E94970D6093490170934A0189
:1020800080934B0190934C0181E001C080E020914E
:10209000550430915604232BA9F4882399F086E740
:1020A0000E94670A8AE490E00E94810A0E947E0AE8
:1020B0008091550490915604019690935604809314
:1020C000550480E0209155043091560421303105AB
:1020D00009F06BC0882309F468C086E70E94670A8C
:1020E00080E090E00E94810A0E947E0A83E090E0F6
:1020F0000E94710A10926704109268041092690499
:1021000010926A048BEC92E00E942C026C01990FF1
:10211000EE08FF08C0926704D0926804E092690458
:10212000F0926A048BEC92E00E942C02FE2CED2CC3
:10213000DC2CCC24092E000CAA0BBB0BC82AD92AF4
:10214000EA2AFB2AC0926704D0926804E0926904EC
:10215000F0926A048BEC92E00E942C02FE2CED2C93
:10216000DC2CCC24092E000CAA0BBB0BC82AD92AC4
:10217000EA2AFB2AC0926704D0926804E0926904BC
:10218000F0926A0486E70E94670A8AE590E00E945E
:10219000810A0E947E0A809155049091560401960E
:1021A000909356048093550480E02091550430911B
:1021B00056042230310509F05EC4882309F45BC45B
:1021C00086E70E94670A80E090E00E94810A0E94F0
:1021D0007E0A83E090E00E94710A10926B041092D4
:1021E0006C0410926D0410926E048BEC92E00E94CD
:1021F0002C026C01990FEE08FF08C0926B04D0927C
:102200006C04E0926D04F0926E048BEC92E00E94FC
:102210002C02FE2CED2CDC2CCC24092E000CAA0B5D
:10222000BB0BC82AD92AEA2AFB2AC0926B04D09297
:102230006C04E0926D04F0926E048BEC92E00E94CC
:102240002C02FE2CED2CDC2CCC24092E000CAA0B2D
:10225000BB0BC82AD92AEA2AFB2AC0926B04D09267
:102260006C04E0926D04F0926E0420916104309150
:102270006204C901A0E0B0E0BA2FA92F982F8827E7
:1022800016012701281A390A4A0A5B0A10917704B5
:102290001BA3E0915D04F0915E04E0905904F0907E
:1022A0005A04FA82E982009167041091680420912F
:1022B000690430916A040F8F18A329A33AA31BA1C4
:1022C000113009F08CC0970140E050E060E070E010
:1022D00080E090E000E10E940B2129833D873A01D4
:1022E0004B01898B9987BF0180E090E0A2019101A9
:1022F0000E94FA1FF22E032F142FB52FF62FE72F6F
:10230000D82EE92EA0E00E9469215CF4AFE70E947C
:102310004B21F22E032F142FB52FF62FE72FD82E97
:10232000E92E2F2D302F412F5B2F6F2F7E2F8D2DDC
:102330009E2D07E00E94242159016A017B018C0136
:1023400029813D85A301B401898999850E94422193
:102350002D8B3E8B4F8B588F698F7A8F8B8F9C8FF5
:10236000E0915F04F091600420915B0430915C0483
:1023700040E050E060E070E080E090E001E10E9429
:102380000B2129833D873A014B01898B9987BF0136
:1023900080E090E0A20191010E94FA1FF22E032F2B
:1023A000142FB52FF62FE72FD82EE92EA0E00E948C
:1023B00069215CF4AFE30E944B21F22E032F142F0E
:1023C000B52FF62FE72FD82EE92E2F2D302F412FA6
:1023D0005B2F6F2F7E2F8D2D9E2D06E092C0BF01AB
:1023E00080E090E0A20191010E94FA1FF22E032FDB
:1023F000142FB52FF62FE72FD82EE92EA0E00E943C
:10240000692184F421503F4F4F4F5F4F6F4F7F4FF3
:102410008F4F9F4FF22E032F142FB52FF62FE72F3C
:10242000D82EE92E2F2D302F412F5B2F6F2F7E2F8F
:102430008D2D9E2D08E00E94242139014A01B62FDE
:10244000A72FF82FE92F29813A81C12CD12CA60181
:1024500060E070E080E090E00FE00E940B21590105
:102460006A017B018C019301A4016B2F7A2F8F2FBE
:102470009E2F0E9442212D8B3E8B4F8B588F698F50
:102480007A8F8B8F9C8FE0915F04F0916004209194
:102490005B0430915C0440E050E060E070E080E07C
:1024A00090E000E10E940B2129833D873A014B0116
:1024B000898B9987BF0180E090E0A20191010E9481
:1024C000FA1FF22E032F142FB52FF62FE72FD82E39
:1024D000E92EA0E00E9469215CF4AFE70E944B2145
:1024E000F22E032F142FB52FF62FE72FD82EE92E1B
:1024F0002F2D302F412F5B2F6F2F7E2F8D2D9E2D57
:1025000007E00E94242159016A017B018C01298185
:102510003D85A301B401898999850E9442212AAB96
:102520003BAB498B5A8B6B8B7C8B8D8F9E8FEF8C4B
:10253000F8A009A11AA1A801970160E070E0CB0101
:1025400029833A834B835C836D837E838F83988753
:1025500092018101330F000B102F980109831A8318
:102560002B833C83609163047091640480E090E06D
:10257000A20191010E94FA1FF22E032F142FB52FF2
:10258000F62FE72FD82EE92EA0E00E94692184F4CF
:102590002150310940485F4F6F4F7F4F8F4F9F4F02
:1025A000F22E032F142FB52FF62FE72FD82EE92E5A
:1025B0002F2D302F412F5B2F6F2F7E2F8D2D9E2D96
:1025C00007E10E94242149015A01A50194012053E9
:1025D000384F4F4F5F4F2D873E874F87588B3BA11A
:1025E000313009F07AC04D855E856F857889403D30
:1025F0005740610571050CF030C1C201B1012BE0FB
:1026000030E040E050E00E94FA1F51016201E98091
:10261000FE2C0E2D1E2D0E94A11FF22E032F142F13
:10262000B52FF62FE72FD82EE92EA0E00E946921C2
:1026300084F42150310941095109684F7F4F8F4F70
:102640009F4FF22E032F142FB52FF62FE72FD82EE2
:10265000E92E2F2D302F412F5B2F6F2F7E2F8D2DA9
:102660009E2D03E20E94242129833A834B835C83BD
:10267000AFE1B0E08D849E84AF84B88890ED891A74
:1026800097E0990AA108B108A50194010E945B1B7B
:102690009B01AC01C501B4010E94701F7B018C013C
:1026A00043E015950795F794E7944A95D1F7AFE382
:1026B000B0E0A50194010E945B1B9B01AC01C50128
:1026C000B4010E94701F2B013C0155E07594679482
:1026D000579447945A95D1F7CAC00D851E852F850A
:1026E0003889003D1740210531050CF0A2C0C20118
:1026F000B10123E030E040E050E00E94FA1F5101B8
:102700006201E980FE2C0E2D1E2D0E94A11FF22ECB
:10271000032F142FB52FF62FE72FD82EE92EA0E088
:102720000E94692184F421503109410951096E4FF9
:102730007F4F8F4F9F4FF22E032F142FB52FF62F61
:10274000E72FD82EE92E2F2D302F412F5B2F6F2F03
:102750007E2F8D2D9E2D01E20E94242129833A8314
:102760004B835C83A3E0B0E08D849E84AF84B88803
:1027700050ED851A57E0950AA108B108A50194010A
:102780000E945B1B9B01AC01C501B4010E94701F3C
:102790007B018C0115950795F794E794A5E0B0E0CF
:1027A000A50194010E945B1B9B01AC01C501B40112
:1027B0000E94701F2B013C0133E07594679457947D
:1027C00047943A95D1F76D857E858F859889613CD0
:1027D000A9EF7A07AFEF8A079A070CF048C0A7E085
:1027E000B0E04B015C01ECED8E0EE5E09E1EA11CFD
:1027F000B11CA50194010E945B1B9B01AC01C501AA
:10280000B4010E94701FE60EF71E081F191FA501D4
:10281000940192E0220F331F441F551F9A95D1F760
:10282000C501B4010E94701F460E571E681E791E16
:102830001EC0A5019401C501B4010E94701F7B0157
:102840008C0184E015950795F794E7948A95D1F764
:1028500019821A821B821C8207C019821A821B826B
:102860001C82E12CF12C8701412C512C3201A80152
:102870009701550F220B322FA90129873A874B87E1
:102880005C872AA93BA949895A896B897C898D8DE6
:102890009E8D57016801E984FE2C0E2D1E2D0E948D
:1028A00057214901498B5A8B362E272E8B8B9C8BB7
:1028B000B301A201770F440B542FBA0149875A87FD
:1028C0006B877C872D893E894F89588D698D7A8DDC
:1028D0008B8D9C8D52016301E984FE2C0E2D1E2DE3
:1028E0000E94572159016A017B018C018D859E85CB
:1028F000AF85B88929813A814B815C81821B930B1A
:10290000A40BB50B3BA180936F0490937004A0932C
:102910007104B0937204313009F04EC06F8D78A10C
:1029200089A19AA1AB01BC0180E090E0DC01498360
:102930005A836B837C838D839E83AF83B8879A0190
:10294000AB0160E070E080E090E00E94A11FF22EF9
:10295000032F142FB52FF62FE72FD82EE92EA0E046
:102960000E94692184F421503109404E5F4F6F4F1E
:102970007F4F8F4F9F4FF22E032F142FB52FF62F1F
:10298000E72FD82EE92E2F2D302F412F5B2F6F2FC1
:102990007E2F8D2D9E2D05E10E9424215401C98892
:1029A000DA88E32CF22C0B891C890E945721A12C78
:1029B000B12CF2E3CF2E4CC04F8D58A169A17AA162
:1029C0009A01AB0160E070E0CB0129833A834B832D
:1029D0005C836D837E838F83988760E070E080E006
:1029E00090E00E94A11FF22E032F142FB52FF62F77
:1029F000E72FD82EE92EA0E00E94692184F421500F
:102A00003109404E5F4F6F4F7F4F8F4F9F4FF22ED8
:102A1000032F142FB52FF62FE72FD82EE92E2F2DA9
:102A2000302F412F5B2F6F2F7E2F8D2D9E2D05E197
:102A30000E9424215401C988DA88E32CF22C0B89E6
:102A40001C890E945721A12CE0E4BE2ECC24C39403
:102A5000D12CE12CF12C00E010E00E9436202093D4
:102A60007304309374044093750450937604109269
:102A7000560410925504609173047091740480910F
:102A80007504909176040E94451D609345017093F2
:102A90004601809347019093480188E60E94670AA7
:102AA0008BE390E00E94810A80E00E940B0A41E0E3
:102AB0006EE088E60E94C90910929E0180939D01F4
:102AC0008BEC92E00E942C0289838BEC92E00E94B6
:102AD0002C02E980EDA21CA20CA11DA1802B912B40
:102AE000BC01990F880B990B0E94451D60938804C7
:102AF0007093890480938A0490938B048BEC92E00A
:102B00000E942C0289838BEC92E00E942C02198196
:102B10001FA31EA22EA13FA1822B932BBC01990FB4
:102B2000880B990B0E94451D60938C0470938D0453
:102B300080938E0490938F048BEC92E00E942C0281
:102B400089838BEC92E00E942C02E980E9A618A60A
:102B500008A519A5802B912BBC01990F880B990B07
:102B60000E94451D60939004709391048093920499
:102B7000909393048BEC92E00E942C0289838BEC5F
:102B800092E00E942C0219811BA71AA62AA53BA538
:102B9000822B932BBC01990F880B990B0E94451D2A
:102BA00060938404709385048093860490938704D3
:102BB0008BEC92E00E942C0289838BEC92E00E94C5
:102BC0002C02E980EDA61CA60CA51DA5802B912B3F
:102BD000BC01990F880B990B0E94451D60939404CA
:102BE0007093950480939604909397048BEC92E0F5
:102BF0000E942C0289838BEC92E00E942C021981A6
:102C00001FA71EA62EA53FA5822B932BBC01990FB3
:102C1000880B990B0E94451D60939804709399044A
:102C200080939A0490939B048BEC92E00E942C0278
:102C3000182F8BEC92E00E942C029A83898320E06B
:102C400030E04AEA53E460918404709185048091F5
:102C50008604909187040E949B1C28EB3EE142E190
:102C600052E40E94981B60938404709385048093BF
:102C700086049093870423E333EF48EA53E460919A
:102C800088047091890480918A0490918B040E9439
:102C9000971B90582AE13CEA42E856E40E949B1CAC
:102CA000609388047093890480938A0490938B04C2
:102CB00022EB3DE84FEC53E460918C0470918D045D
:102CC00080918E0490918F040E94971B90582DE95B
:102CD00034EF4CE756E40E949B1C60938C04709385
:102CE0008D0480938E0490938F0429EC3EE84FEC82
:102CF00054E46091900470919104809192049091B9
:102D000093040E94971B24E137EC45E856E40E94A7
:102D10009B1C609390047093910480939204909311
:102D2000930429E831EA4EEA53E4609194047091E7
:102D3000950480919604909197040E94971B905857
:102D400020E030E44CE155E40E949B1C6093940425
:102D50007093950480939604909397042EE03DE839
:102D60004AE153E4609198047091990480919A0427
:102D700090919B040E94971B905820E030E44CE116
:102D800055E40E949B1C609398047093990480936F
:102D90009A0490939B0419AB18AAE980FA8008A9B9
:102DA00019A9E02AF12AB701FF0C880B990B0E94A0
:102DB000451D21ED32E240E353E40E94981B20E0E0
:102DC00030E44CE155E40E949B1C60939C0470939A
:102DD0009D0480939E0490939F040E94860A0E9403
:102DE000860A60914D0170914E0180914F01909142
:102DF00050010E94141D6093430160914501709140
:102E00004601809147019091480120E030E045E77C
:102E100054E40E94971B0E94141D609344012AE908
:102E200039E949E450E460917C0470917D0480911B
:102E30007E0490917F040E94981B20E030E040E2E5
:102E400051E40E949C1E0E94141D609341012AE9D6
:102E500039E949E450E460918004709181048091E3
:102E60008204909183040E94981B20E030E040E2AD
:102E700051E40E949C1E0E94141D609340016091C9
:102E800084047091850480918604909187040E9447
:102E9000141D6093420180914904811111C08CE19D
:102EA00093E00E941A0787E393E00E941A0782E5E5
:102EB00093E00E941A078DE693E00E941A07F4C07F
:102EC00060910F0370911003072E000C880B990B73
:102ED0000E94451D23E333E343E35FE30E949C1E0E
:102EE0000E940D1D6B017C0180910B0390910C03DE
:102EF00020910D0330910E03821B930B8C0D9D1DB1
:102F00002091E5023091E602829FB001839F700D0F
:102F1000929F700D112440E08CE193E00E94D10655
:102F200080910D0390910E0320910B0330910C03BF
:102F3000919581959109821B930B8C199D09209184
:102F4000E7023091E802829FB001839F700D929F4B
:102F5000700D112440E087E393E00E94D106809138
:102F60000D0390910E0320910B0330910C0391956A
:102F700081959109821B930B8C0D9D1D2091E90277
:102F80003091EA02829FB001839F700D929F700D75
:102F9000112440E082E593E00E94D10680910B036A
:102FA00090910C0320910D0330910E03821B930B23
:102FB0008C199D092091EB023091EC02829FB001A7
:102FC000839F700D929F700D112440E08DE693E079
:102FD0000E94D1060E94970D7B018C0120E030E019
:102FE000A9016983FA820B831C832D833E834F835F
:102FF00058879B01A80160E070E080E090E0A0901D
:103000004104B0904204C0904304D0904404E09046
:103010004504F090460400914704109148040E9432
:103020005721A0903904B0903A04C0903B04D0904E
:103030003C04E0903D04F0903E0400913F04109168
:1030400040040E94602181F17CF10E94970D7B0178
:103050008C0120E030E0A9016983FA820B831C8394
:103060002D833E834F83588760934104F09242043E
:1030700000934304109344041092450410924604B4
:1030800010924704109248048CE193E00E94940649
:1030900087E393E00E94940682E593E00E94940601
:1030A0008DE693E00E949406809045019090460141
:1030B000A0904701B090480180915404882309F4FE
:1030C000AFC08091490481110DC088E893E00E944F
:1030D0001A0783EA93E00E941A078EEB93E00E949E
:1030E0001A079EC0C0907C04D0907D04E0907E04BE
:1030F000F0907F044091800450918104609182049B
:103100007091830489ED93E00E9466042B013C01D9
:10311000B701A60189EF93E00E9466046B017C0170
:1031200060914E0470914F0480915004909151042D
:1031300020E030E0A9010E948F1E18160CF47CC01C
:1031400060914A0470914B0480914C0490914D041D
:1031500020E030E0A9010E948F1E18160CF46CC00C
:10316000C501B4010E940D1D20911103222309F411
:103170008BC070931303609312031092110360E0ED
:1031800070E01A861986072E000C880B990B0E9496
:10319000451D4B015C01A30192010E94971B6983AD
:1031A0007A838B839C83A70196010E94971B0E94C0
:1031B0000D1D83EA93E00E94600629813A814B81CC
:1031C0005C81C701B6010E94981B0E940D1D88E812
:1031D00093E00E946006A3019201C301B2010E9424
:1031E000981BA50194010E94981B0E940D1D8EEB57
:1031F00093E00E94600641E069857A8583EA93E066
:103200000E94D10641E069857A8588E893E00E94B2
:10321000D10641E069857A858EEB93E00E94D10664
:103220000E94DE010C94B00F01E010E01093E40264
:103230000093E3020C94DC0F81E080931103609112
:103240004A0470914B0480914C0490914D0420915C
:103250004E0430914F04409150045091510480909D
:10326000180390901903A0901A03B0901B030E94BA
:10327000971BA50194010E949C1E0E940D1D7A8738
:10328000698760E070E07FCF2091120330911303D3
:10329000621B730B072E000C880B990B0E94451DB7
:1032A000AB01BC0189E194E00E9466040E940D1DFF
:1032B00068CF8F929F92AF92BF92CF92DF92EF92A0
:1032C000FF920F931F93CF93DF93EEE2F2E013820E
:1032D000128288EE93E0A0E0B0E084839583A68319
:1032E000B7832CE131E03183208325EC30E0358752
:1032F000248724EC30E03787268720EC30E0318BC0
:10330000208B21EC30E0338B228B22EC30E0358BAC
:10331000248B26EC30E0378B268B118E128E138E89
:10332000148EEBECF2E01382128284839583A683E1
:10333000B7838EE291E09183808386EA882E8BE9C1
:10334000982E84E4A82E8CE3B82E8092A404909248
:10335000A504A092A604B092A70480E090EAA0E899
:10336000B4E48093780490937904A0937A04B093A2
:103370007B04C5EED2E08FEF9FEF998388839B8318
:103380008A8301E010E01D830C831F830E8319875D
:1033900008871B870A871D870C878CE0E0E0F1E037
:1033A000A3EFB2E001900D928A95E1F78CE0ECE09A
:1033B000F1E0AFEFB2E001900D928A95E1F780E085
:1033C00090E0ACEFB2EC8FA798ABA9ABBAABC12C35
:1033D000D12C9EEFE92E92E4F92ECBAADCAAEDAA1D
:1033E000FEAA20E030E04FE750E062E87FEF8CE19A
:1033F00093E00E945C0920E030E04FE750E062E893
:103400007FEF87E393E00E945C0920E030E04FE724
:1034100050E062E87FEF82E593E00E945C0920E0E3
:1034200030E04FE750E062E87FEF8DE693E00E94E6
:103430005C0928E230E04FE750E062E87FEF88E87F
:1034400093E00E945C0928E230E04FE750E062E838
:103450007FEF83EA93E00E945C0928E230E04FE7C7
:1034600050E062E87FEF8EEB93E00E945C0940E061
:1034700050E068EC73E44093D9035093DA0360930F
:10348000DB037093DC031092DD031092DE031092D5
:10349000DF031092E0031092E1031092E203109216
:1034A000E3031092E4038092E5039092E603A09276
:1034B000E703B092E8038FE892ECA5EFBCE38093BA
:1034C000E9039093EA03A093EB03B093EC03C0925B
:1034D000ED03D092EE03E092EF03F092F00310922E
:1034E000F1031092F2031092F3031092F40310927E
:1034F000F5031092F6031092F7031092F80340932D
:10350000F9035093FA036093FB037093FC0310924A
:10351000FD031092FE031092FF031092000410921C
:103520000104109202041092030410920404809289
:10353000050490920604A0920704B09208048093B8
:10354000090490930A04A0930B04B0930C04C09256
:103550000D04D0920E04E0920F04F0921004109229
:103560001104109212041092130410921404109279
:10357000150410921604109217041092180480E09B
:1035800090E0A0EFB1E48093190490931A04A09303
:103590001B04B0931C0410921D0410921E04109280
:1035A0001F04109220041092210410922204109201
:1035B0002304109224048092250490922604A09261
:1035C0002704B09228048DEC9CECACECBDE3809316
:1035D000290490932A04A0932B04B0932C04C09246
:1035E0002D04D0922E04E0922F04F0923004109219
:1035F0003104109232041092330410923404109269
:103600003504109236041092370410923804E9E31E
:10361000F4E080E3808385E7818312821382148241
:10362000158216821782E1E4F4E010821182128280
:103630001382148215821682178210925404E7EDC9
:10364000F2E0108211821282138214821582168295
:103650001782118610861286138615870487DF91DC
:10366000CF911F910F91FF90EF90DF90CF90BF907F
:10367000AF909F908F900895052E97FB1EF40094B5
:103680000E94531B57FD07D00E94661B07FC03D006
:103690004EF40C94531B50954095309521953F4F17
:1036A0004F4F5F4F089590958095709561957F4F2E
:1036B0008F4F9F4F08950E94881BA59F900DB49F28
:1036C000900DA49F800D911D11240895A1E21A2E42
:1036D000AA1BBB1BFD010DC0AA1FBB1FEE1FFF1FB6
:1036E000A217B307E407F50720F0A21BB30BE40B06
:1036F000F50B661F771F881F991F1A9469F760954D
:103700007095809590959B01AC01BD01CF01089506
:10371000A29FB001B39FC001A39F700D811D112412
:10372000911DB29F700D811D1124911D0895505857
:10373000BB27AA270E94AF1B0C94411E0E94081EA3
:1037400038F00E940F1E20F039F49F3F19F426F440
:103750000C94CA1D0EF4E095E7FB0C94C41DE92FF0
:103760000E94661E58F3BA1762077307840795070D
:1037700020F079F4A6F50C94881E0EF4E0950B2E3B
:10378000BA2FA02D0B01B90190010C01CA01A001B3
:103790001124FF27591B99F0593F50F4503E68F10E
:1037A0001A16F040A22F232F342F4427585FF3CF4F
:1037B000469537952795A795F0405395C9F77EF420
:1037C0001F16BA0B620B730B840BBAF09150A1F069
:1037D000FF0FBB1F661F771F881FC2F70EC0BA0FEF
:1037E000621F731F841F48F4879577956795B79577
:1037F000F7959E3F08F0B0CF9395880F08F0992772
:10380000EE0F9795879508959F939F77EEE38937FD
:103810009E0728F4EAE8F0E00E94F41D0CC00E9424
:10382000801D9058A2EA2AED3FE049EC5FE30E9438
:10383000AF1B0E94411E0F9007FC905808950E94F4
:10384000081E60F080E891E009F49EEF0E940F1ED0
:1038500028F040E851E071F45EEF0CC00C94CA1DF2
:103860000C94881EE92FE0780E94661E40F3092E12
:10387000052AB1F3261737074807590738F00E2EE7
:1038800007F8E02569F0E025E0640AC0EF6307F877
:10389000009407FADB01B9019D01DC01CA01AD0109
:1038A000EF930E94B21C0E94411E0E94621C5F9115
:1038B000552339F02BED3FE049E450FD49EC0C94E1
:1038C000981B0895DF93DD27B92FBF7740E85FE3AA
:1038D0001616170648075B0718F4D92F0E94941E86
:1038E0009F938F937F936F930E94571FEEE9F0E0B1
:1038F0000E94CD1D0E94411E2F913F914F915F91DB
:103900000E94AF1EDD2351F09058A2EA2AED3FE05D
:1039100049EC5FE3D0785D270E94AF1BDF910C94E8
:10392000411E0E94A01D08F481E008950E94181E07
:10393000E3950C94521E0E94AF1C0C94411E0E94F1
:103940000F1E58F00E94081E40F029F45F3F29F036
:103950000C94C41D51110C94891E0C94CA1D0E9414
:10396000661E68F39923B1F3552391F3951B550B0C
:10397000BB27AA2762177307840738F09F5F5F4F42
:10398000220F331F441FAA1FA9F335D00E2E3AF081
:10399000E0E832D091505040E695001CCAF72BD099
:1039A000FE2F29D0660F771F881FBB1F26173707EA
:1039B0004807AB07B0E809F0BB0B802DBF01FF271C
:1039C00093585F4F3AF09E3F510578F00C94C41D18
:1039D0000C94891E5F3FE4F3983ED4F38695779567
:1039E0006795B795F7959F5FC9F7880F911D9695D5
:1039F000879597F90895E1E0660F771F881FBB1F31
:103A0000621773078407BA0720F0621B730B840BDD
:103A1000BA0BEE1F88F7E09508950E94141D689474
:103A2000B1110C94891E08950E946E1E88F09F5754
:103A300098F0B92F9927B751B0F0E1F0660F771FD2
:103A4000881F991F1AF0BA95C9F714C0B13091F0C8
:103A50000E94881EB1E008950C94881E672F782F6D
:103A60008827B85F39F0B93FCCF38695779567958D
:103A7000B395D9F73EF490958095709561957F4FF9
:103A80008F4F9F4F0895E89409C097FB3EF490959F
:103A90008095709561957F4F8F4F9F4F9923A9F027
:103AA000F92F96E9BB279395F695879577956795B6
:103AB000B795F111F8CFFAF4BB0F11F460FF1BC0FA
:103AC0006F5F7F4F8F4F9F4F16C0882311F096E98D
:103AD00011C0772321F09EE8872F762F05C066233B
:103AE00071F096E8862F70E060E02AF09A95660FF4
:103AF000771F881FDAF7880F9695879597F90895AD
:103B0000DF93CF931F930F938B01EC01EBECF0E06D
:103B10000E94CD1D0E94411E9801AE018B01EC0157
:103B200060E070E080E89FE30E94971B0E94171FEF
:103B30009801AE010F911F91CF91DF910C94AF1EB0
:103B4000990F0008550FAA0BE0E8FEEF16161706AE
:103B5000E807F907C0F012161306E407F50798F016
:103B6000621B730B840B950B39F40A2661F0232B2F
:103B7000242B252B21F408950A2609F4A140A695AB
:103B80008FEF811D811D089597F99F6780E870E090
:103B900060E008959FEF80EC0895DF93CF931F932B
:103BA0000F93FF92EF92DF927B018C01689406C025
:103BB000DA2EEF010E94AF1EFE01E894A591259137
:103BC000359145915591A6F3EF010E94AF1BFE017F
:103BD0009701A801DA9469F7DF90EF90FF900F91B9
:103BE0001F91CF91DF9108959F938F937F936F9350
:103BF000FF93EF939B01AC010E949C1EEF91FF91FC
:103C00000E94CD1D2F913F914F915F910C949C1E6E
:103C100000240A94161617061806090608950024AB
:103C20000A94121613061406050608950C94CA1D6C
:103C30000E946E1ED8F3E894E0E0BB279F57F0F097
:103C40002AED3FE049EC06C0EE0FBB0F661F771F61
:103C5000881F28F0B23A62077307840728F0B25A27
:103C6000620B730B840BE3959A9572F7803830F4EE
:103C70009A95BB0F661F771F881FD2F790480C9448
:103C80005D1F092E0394000C11F4882352F0BB0F22
:103C900040F4BF2B11F460FF04C06F5F7F4F8F4F64
:103CA0009F4F0895EF93E0FF07C0A2EA2AED3FE09F
:103CB00049EC5FEB0E94AF1B0E94411E0F900394E2
:103CC00001FC9058E3EFF0E00C94F41D57FD905880
:103CD000440F551F59F05F3F71F04795880F97FBD0
:103CE000991F61F09F3F79F087950895121613068A
:103CF0001406551FF2CF4695F1DF08C016161706B9
:103D00001806991FF1CF86957105610508940895ED
:103D1000E894BB2766277727CB0197F908950E947F
:103D2000A01D08F48FEF08959B01AC0160E070E0E6
:103D300080E89FE30C949B1C0E94AF1E0C94411ED4
:103D40000E94081E38F00E940F1E20F0952311F0EB
:103D50000C94C41D0C94CA1D11240C94891E0E943D
:103D6000661E70F3959FC1F3950F50E0551F629F3B
:103D7000F001729FBB27F00DB11D639FAA27F00DC4
:103D8000B11DAA1F649F6627B00DA11D661F829FEB
:103D90002227B00DA11D621F739FB00DA11D621FD0
:103DA000839FA00D611D221F749F3327A00D611DED
:103DB000231F849F600D211D822F762F6A2F1124CF
:103DC0009F5750409AF0F1F088234AF0EE0FFF1F02
:103DD000BB1F661F771F881F91505040A9F79E3F59
:103DE000510580F00C94C41D0C94891E5F3FE4F3D0
:103DF000983ED4F3869577956795B795F795E795AF
:103E00009F5FC1F7FE2B880F911D9695879597F9B7
:103E100008959F930E94181E0F9007FCEE5F0C946C
:103E2000521E19F416F40C94CA1D0C945B1F0E94C8
:103E30006E1EB8F39923C9F3B6F39F57550B87FF4E
:103E40000E94691F0024A0E640EA90018058569520
:103E5000979528F4805C660F771F881F20F026173F
:103E60003707480730F4621B730B840B2029312974
:103E70004A2BA69517940794202531254A2758F7F1
:103E8000660F771F881F20F026173707480730F482
:103E9000620B730B840B200D311D411DA09581F722
:103EA000B901842F9158880F9695879508959B01A5
:103EB000AC010C949C1E9F3F31F0915020F48795EB
:103EC00077956795B795880F911D9695879597F982
:103ED000089591505040660F771F881FD2F70895BC
:103EE000DB018F939F930E945B1BBF91AF91A29FB9
:103EF000800D911DA39F900DB29F900D11240895E8
:103F0000991B79E004C0991F961708F0961B881F2B
:103F10007A95C9F780950895EE0FFF1F0590F491EB
:103F2000E02D09940E94881B332312F48A1B9B0BFB
:103F30000C949C1F0E94881BB7FF0895821B930B53
:103F40000895DF93CF931F930F939A9DF02D219F98
:103F5000F00D8B9DF00D8A9DE02DF10D039FF00D6E
:103F6000029FE00DF11D4E9DE00DF11D5E9DF00DD7
:103F70004F9DF00D7F936F93BF92AF925F934F93DE
:103F8000D5010E94881B8B01AC01D7010E94881BC0
:103F9000EB01E80FF91FD6010E94F11F2F913F910D
:103FA000D6010E94881BC60FD71FE81FF91FAF91CB
:103FB000BF910E94F11F2F913F910E94881BC60F55
:103FC000D71FE81FF91FD6010E94881BE60FF71FB5
:103FD0009801BE01CF0111240F911F91CF91DF9164
:103FE00008950E94881B460F571FC81FD91F08F449
:103FF0003196089597FB57FF0C940A209F938F9357
:104000000E940A206E1B7F0BAF91BF918A0B9B0B06
:104010000895E894DF93CF93FC01DB010E94881B95
:104020007F936F93E9019A01AC01BF93AF933F93E4
:104030002F93DF010E94881B26F46C1B7D0B820BE3
:10404000930B9E01EB01FC010E94F11FAF91BF9108
:104050002F913F910E94F11FBE01CF01F9012F91D5
:104060003F91CF91DF910895689401C0E894F92FB2
:10407000F12B12F00C946820A0E0B0E0E2E4F0E252
:104080000C94DA20092E059422F40E94C4201123F6
:1040900092F4F0E80F26FFEFE094F094009510956D
:1040A000B094C094D094A194BF0ACF0ADF0AEF0A5B
:1040B000FF0A0F0B1F0B0E94732007FC0E94C420F5
:1040C000CDB7DEB7ECE00C94F620689401C0E8941C
:1040D0008F929F92CF93DF930E947320DF91CF91B5
:1040E0009F908F90089588249924F401E401B0E40E
:1040F0009F93AA279A158B049C04ED05FE05CF0516
:10410000D007A10798F4AD2FDC2FCF2FFE2FE92D7C
:10411000982C892E982F872F762F652F542F432F79
:10412000322F2227B85031F7BF9127C01B2EBF91E5
:10413000BB27220F331F441F551F661F771F881F81
:10414000991F881C991CEE1FFF1FCC1FDD1FAA1F83
:10415000BB1F8A149B04EC05FD05CE05DF05A007F7
:10416000B10748F08A189B08EC09FD09CE09DF0960
:10417000A00BB10B21601A94E1F62EF49401AF016B
:10418000BE01CD01000C08956095709580959095C5
:1041900030954095509521953F4F4F4F5F4F6F4F52
:1041A0007F4F8F4F9F4F08952F923F924F925F9274
:1041B0006F927F928F929F92AF92BF92CF92DF9237
:1041C000EF92FF920F931F93CF93DF93CDB7DEB79C
:1041D000CA1BDB0B0FB6F894DEBF0FBECDBF099430
:1041E0002A88398848885F846E847D848C849B8487
:1041F000AA84B984C884DF80EE80FD800C811B8195
:10420000AA81B981CE0FD11D0FB6F894DEBF0FBEC3
:10421000CDBFED0108950F93083090F0982F872FB0
:10422000762F652F542F432F322F22270850F4CF9B
:10423000220F331F441F551F661F771F881F991FAA
:104240000A95B2F70F91089597FB10F8169400089D
:104250000F93083098F00850232F342F452F562FF6
:10426000672F782F892F902DF4CF059497958795F8
:104270007795679557954795379527950A95AAF7A6
:104280000F9108952A0D3B1D4C1D5D1D6E1D7F1D58
:10429000801F911F08950024A7FD00942A0F301D50
:1042A000401D501D601D701D801D901D08952A1910
:1042B0003B094C095D096E097F09800B910B08953C
:1042C0002A153B054C055D056E057F0580079107A6
:1042D00008950024A7FD00942A17300540055005D5
:1042E0006005700580059005089581E090E0F894E0
:0842F0000C947A21F894FFCF31
:1042F8000000A041000048420000C8420000C84138
:10430800000048420000C842000000006F01DC00C5
:104318000601BC01370115012901000000007502E2
:0C4328004802A5021C0240022C021D02EB
:107E0000112484B714BE81FFF0D085E080938100F7
:107E100082E08093C00088E18093C10086E0809377
:107E2000C20080E18093C4008EE0C9D0259A86E02C
:107E300020E33CEF91E0309385002093840096BBD3
:107E4000B09BFECF1D9AA8958150A9F7CC24DD24C4
:107E500088248394B5E0AB2EA1E19A2EF3E0BF2EE7
:107E6000A2D0813461F49FD0082FAFD0023811F036
:107E7000013811F484E001C083E08DD089C08234E0
:107E800011F484E103C0853419F485E0A6D080C0E4
:107E9000853579F488D0E82EFF2485D0082F10E0AE
:107EA000102F00270E291F29000F111F8ED06801E7
:107EB0006FC0863521F484E090D080E0DECF843638
:107EC00009F040C070D06FD0082F6DD080E0C81688
:107ED00080E7D80618F4F601B7BEE895C0E0D1E017
:107EE00062D089930C17E1F7F0E0CF16F0E7DF06D8
:107EF00018F0F601B7BEE89568D007B600FCFDCFD4
:107F0000A601A0E0B1E02C9130E011968C91119780
:107F100090E0982F8827822B932B1296FA010C0160
:107F200087BEE89511244E5F5F4FF1E0A038BF0790
:107F300051F7F601A7BEE89507B600FCFDCF97BE46
:107F4000E89526C08437B1F42ED02DD0F82E2BD052
:107F50003CD0F601EF2C8F010F5F1F4F84911BD097
:107F6000EA94F801C1F70894C11CD11CFA94CF0C13
:107F7000D11C0EC0853739F428D08EE10CD085E9AC
:107F80000AD08FE07ACF813511F488E018D01DD067
:107F900080E101D065CF982F8091C00085FFFCCF94
:107FA0009093C60008958091C00087FFFCCF809118
:107FB000C00084FD01C0A8958091C6000895E0E648
:107FC000F0E098E1908380830895EDDF803219F02E
:107FD00088E0F5DFFFCF84E1DECF1F93182FE3DFCA
:107FE0001150E9F7F2DF1F91089580E0E8DFEE27F6
:047FF000FF270994CA
:027FFE00040479
:0400000300007E007B
:00000001FF
