:100000000C94C8000C94F0000C94F0000C94F000D8
:100010000C94F0000C94F0000C94F0000C94F000A0
:100020000C94F0000C94F0000C94F0000C94630617
:100030000C94F0000C94F0000C94F0000C94F00080
:100040000C94BD100C94DD080C941C030C94F60267
:100050000C94F0000C94F0000C94F0000C94F00060
:100060000C944E030C94F0005B0968097109830934
:10007000A309A309A309A3098F098C099609A30958
:10008000A309A3093D09760983099909036EDB36A3
:100090003D9A9999993DABAAAA2A3E000000803F5B
:1000A000084AD73B3BCE016E84BCBFFDC12F3D6CDF
:1000B00074319ABD56833DDA3D00C77F11BED9E445
:1000C000BB4C3E916BAAAABE000000803F072C7A71
:1000D000A5BA6CC590DA3B9365FC8BBC53F810FD58
:1000E0003C5692834DBD879D3AB63DCBC9BF5BBEA2
:1000F00073DA0FC93F05A84CCDB2D44EB93836A932
:10010000020C50B9918688083CA6AAAA2ABE000013
:1001100000803F00005EBCE2613FDD83C29C7E2028
:10012000A3FD1F41009D23BE46DB65F88C11AF3255
:10013000CA57E974000000002300260029000404C7
:10014000040404040404020202020202030303037F
:10015000030301020408102040800102040810205B
:1001600001020408102000000000240027002A00DB
:1001700000000000250028002B00000000080002FD
:1001800001000003040700000000000000002A1E18
:1001900011241FBECFEFD8E0DEBFCDBF11E0A0E03D
:1001A000B1E0E4E0FCE402C005900D92A234B10796
:1001B000D9F724E0A2E4B1E001C01D92A03EB2074D
:1001C000E1F710E0C8ECD0E004C02197FE010E94E6
:1001D000DE24C73CD107C9F70E9407110C94002602
:1001E0000C940000CF92DF92EF92FF920F931F9337
:1001F000CF93DF936C017A018B01C0E0D0E0CE1584
:10020000DF0581F0D8016D918D01D601ED91FC9152
:100210000190F081E02DC6010995892B11F02196FE
:10022000EECF7E01C701DF91CF911F910F91FF901B
:10023000EF90DF90CF900895FC01538D448D252FD2
:1002400030E0842F90E0821B930B541710F0CF9670
:10025000089501970895FC01918D828D981761F0A2
:10026000828DDF01A80FB11D5D968C91928D9F5FED
:100270009F73928F90E008958FEF9FEF0895FC0198
:10028000918D828D981731F0828DE80FF11D858D4B
:1002900090E008958FEF9FEF0895FC01918D228DDE
:1002A000892F90E0805C9F4F821B91098F73992763
:1002B000089588E392E00E944D0121E0892B09F422
:1002C00020E0822F0895FC01848DDF01A80FB11D6D
:1002D000A35ABF4F2C91848D90E001968F7399277C
:1002E000848FA689B7892C93A089B1898C9183705A
:1002F00080648C93938D848D981306C00288F38953
:10030000E02D80818F7D80830895EF92FF920F937F
:100310001F93CF93DF93EC0181E0888F9B8D8C8DB1
:10032000981305C0E889F989808185FD26C0F62EDD
:100330000B8D10E00F5F1F4F0F731127E02E8C8D78
:10034000E8120CC00FB607FCFACFE889F989808162
:1003500085FFF5CFCE010E946301F1CF8B8DFE01A9
:10036000E80FF11DE35AFF4FF0829FB7F8940B8F0F
:10037000EA89FB89808180620AC09FB7F894EE8980
:10038000FF896083E889F989808183708064808334
:100390009FBF81E090E0DF91CF911F910F91FF907F
:1003A000EF900895CF93DF93EC01888D8823C9F0F7
:1003B000EA89FB89808185FD05C0A889B9898C916E
:1003C00086FD0FC00FB607FCF5CF808185FFF2CF09
:1003D000A889B9898C9185FFEDCFCE010E94630178
:1003E000E7CFDF91CF91089580E090E0892B29F04D
:1003F0000E94590181110C940000089585ED8093AD
:10040000BC008091BC0084FDFCCF10920E020895C8
:1004100040918201262F30E0240F311D2132310519
:10042000DCF420910E022430C9F4FC0180E090E05D
:10043000861758F4309182012191DC01AE59BE4FEC
:10044000A30FB11D2C930196F3CF80918201680F09
:100450006093820180E0089581E0089582E008952C
:10046000089508950895E091DA048091D904E81779
:1004700030F4F0E0E853FE4F808190E008958FEF74
:100480009FEF08959091DA048091D904981750F461
:10049000E92FF0E0E853FE4F208130E09F5F90931A
:1004A000DA0402C02FEF3FEFC90108958091D9040B
:1004B00090E02091DA04821B91090895CF92DF9297
:1004C000EF92FF920F931F93CF93DF937C01CB01A9
:1004D0008A012091A501222389F0EB016B01C40E52
:1004E000D51ECC15DD0569F06991D701ED91FC9120
:1004F0000190F081E02DC7010995F3CF642F0E9490
:100500000802C801DF91CF911F910F91FF90EF90EA
:10051000DF90CF900895CF93DF931F92CDB7DEB7D2
:1005200069832091A5012223D1F02091C7012032B7
:1005300040F021E030E0FC013383228380E090E052
:1005400015C08091A601E82FF0E0E955FE4F998192
:1005500090838F5F8093A6018093C70105C061E0FF
:10056000CE0101960E94080281E090E00F90DF9199
:10057000CF910895089580E090E00895FC01908166
:100580009C3088F5818128E830E0281B310987FDFF
:100590003395220F331F220F331F6217730784F026
:1005A000828148E552E0481B510987FD5395440F6D
:1005B000551F440F551F9B01461757070CF49A010E
:1005C00022503109220F331F4FB7F894892F90E042
:1005D000FC01EE0FFF1F8E0F9F1FFC01ED5EFD4F14
:1005E000328321834FBF08950E94FB251F920F92F3
:1005F0000FB60F9211242F933F934F935F936F93F6
:100600007F938F939F93AF93BF93EF93FF9388E371
:1006100092E00E946301FF91EF91BF91AF919F9192
:100620008F917F916F915F914F913F912F910F909B
:100630000FBE0F901F9018951F920F920FB60F923A
:1006400011242F938F939F93EF93FF93E091480290
:10065000F09149028081E0914E02F0914F0282FDBB
:1006600012C09081809151028F5F8F73209152024E
:10067000821751F0E0915102F0E0E85CFD4F958F58
:100680008093510201C08081FF91EF919F918F91E2
:100690002F910F900FBE0F901F9018951F920F92E1
:1006A0000FB60F9211242F933F934F935F936F9345
:1006B0007F938F939F93AF93BF93EF93FF9380911B
:1006C000B900887F803609F49CC068F5883209F447
:1006D0005BC090F4803109F454C038F4882309F4E5
:1006E000F6C0883009F44DC0F6C0883109F44CC01A
:1006F000803209F45DC0EFC0803409F468C048F46A
:10070000803309F455C0883309F0E5C080930C02AA
:10071000D8C0803509F44FC0883509F45DC08834ED
:1007200009F0D9C0D6C0883909F4C7C0A8F4883701
:1007300009F467C038F4883609F463C0803709F4D7
:1007400060C0C9C0883809F4B8C0803909F45FC0F6
:10075000803809F0C0C05BC0803B09F486C038F423
:10076000803A09F466C0883A09F47FC0B4C0803C7E
:1007700009F4A7C0883C09F4A4C0883B09F48AC0E6
:10078000AAC08091090210C090910B0280910A02C8
:10079000981770F5E0910B0281E08E0F80930B02A9
:1007A000F0E0E851FE4F80818093BB0085EC86C06D
:1007B00080930C028EC0E0910B0281E08E0F80933B
:1007C0000B028091BB00F0E0E851FE4F80839091D6
:1007D0000B0280910A026EC0E0910B0281E08E0F45
:1007E00080930B028091BB00F0E0E851FE4F8083C4
:1007F00080910D0281116DC081E08093080284EA2E
:1008000061C083E080930E021092A401CFCF80914B
:10081000A401803208F051C0E091A40181E08E0F64
:100820008093A4018091BB00F0E0EC57FE4F8083E1
:10083000BDCF85EC8093BC0010920E028091A40184
:10084000803230F4E091A401F0E0EC57FE4F1082CA
:100850006091A40170E0E0914201F091430184E8CD
:1008600091E009951092A40136C084E080930E02B5
:100870001092830110928201E0914401F0914501B0
:10088000099580918201811105C081E080938201E8
:1008900010926201E091830181E08E0F80938301C9
:1008A000F0E0EE59FE4F80818093BB009091830170
:1008B00080918201981708F479CF85E88093BC0075
:1008C0000AC085EC8093BC0010920E0204C0109206
:1008D0000C020E94FE01FF91EF91BF91AF919F9199
:1008E0008F917F916F915F914F913F912F910F90D9
:1008F0000FBE0F901F901895DC0180E0615098F0BA
:100900002D91982F9227E92FEF70F0E0EC5EFE4FCB
:10091000249192959F70E92FF0E0EC5DFE4FE491F9
:10092000822F8E27EBCF0895FC0190810180F28108
:10093000E02DF8948181892B81832281892F8095F4
:1009400028232283A7E0B0E01197F1F721818223C9
:100950008183A3E2B0E01197F1F780817894EFEC06
:10096000F0E03197F1F7982381E009F480E00895F1
:10097000FC0190810180F281E02D892F809560FF3C
:1009800012C0F8942281822382838181892B818302
:10099000A3E2B0E01197F1F78281982B92837894CB
:1009A00087ED90E011C0F8942281822382838181B7
:1009B000892B8183AFEFB0E01197F1F78281982BFB
:1009C000928378948FE090E00197F1F70895DF9299
:1009D000EF92FF920F931F93CF93DF93EC01D62EEC
:1009E000E42E08E010E0FF24F39461E08D2D8F21C8
:1009F00009F460E0CE010E94B804FF0C0150110917
:100A0000A1F7E11010C0F894E981FA819181888101
:100A1000809589238183E981FA81928188818095FB
:100A2000892382837894DF91CF911F910F91FF905A
:100A3000EF90DF900895EF92FF920F931F93CF9363
:100A4000DF938C017B0140E065E50E94E704E7014C
:100A500088E0E80EF11C699140E0C8010E94E704BB
:100A6000CE15DF05C1F7DF91CF911F910F91FF9058
:100A7000EF900895DC012C911196ED91FC91129765
:100A8000F8948181922F90958923818378948DE7C2
:100A900043E050E0815021F1DA011197F1F7308104
:100AA0003223C1F3F8948281892382838181822B4E
:100AB00081837894ABE7B7E01197F1F7F8948181DF
:100AC0009823918383E191E00197F1F780812823B6
:100AD00081E009F080E07894E3E6F6E03197F1F701
:100AE0000895FC0184859585892B01F52FB7F8942D
:100AF00080910F0290911002A0911102B091120208
:100B00002FBF4481558166817781841B950BA60B8D
:100B1000B70B408151816281738184179507A607C5
:100B2000B70720F081E090E0958784870895FC0165
:100B30002FB7F89480910F0290911002A0911102AA
:100B4000B09112022FBF84839583A683B783158645
:100B500014861286138608954F925F926F927F9249
:100B60008F929F92AF92BF92CF92DF92EF92FF92BD
:100B70000F931F93CF93DF9300D000D000D0CDB759
:100B8000DEB79E838D836A017B01C901B801A7018D
:100B900096010E94D5206B017C01ED81FE812081B0
:100BA0003181428153810E94DA232B013C01ED8186
:100BB000FE8184849584A684B784248935894689F6
:100BC0005789C701B6010E94D520A50194010E9452
:100BD000D921ED81FE8120853185428553850E9492
:100BE000DA2369837A838B839C83A5019401C701EF
:100BF000B6010E94DA23ED81FE81208D318D428D78
:100C0000538D0E94D620ED81FE81608F718F828F7F
:100C1000938F24813581468157810E94DA234B01CD
:100C20005C0129813A814B815C81C301B2010E9440
:100C3000D6209B01AC01C501B4010E94D6204B0116
:100C40005C01ED81FE81C48AD58AE68AF78AC08874
:100C5000D188E288F38820E030E0A901C701B6011D
:100C60000E94CD231816B4F4A7019601B401C50162
:100C70000E94CD23181664F0F7FAF094F7F8F09478
:100C8000A7019601B401C5010E94CF2187FF02C0D0
:100C900046015701B401C50126960FB6F894DEBF90
:100CA0000FBECDBFDF91CF911F910F91FF90EF90BD
:100CB000DF90CF90BF90AF909F908F907F906F907C
:100CC0005F904F9008951F920F920FB60F921124CC
:100CD0002F933F934F935F936F937F938F939F9344
:100CE000AF93BF93EF93FF938091610187FF05C09E
:100CF00010928500109284001BC020916101022E89
:100D0000000C330B8091370290E02817390784F4E8
:100D100080916101082E000C990BFC01EE0FFF1F62
:100D20008E0F9F1FFC01ED5EFD4F808186FD15C07B
:100D3000809161018F5F8093610120916101022E9A
:100D4000000C330B8091370290E028173907C4F468
:100D5000809161018C3064F113C080916101082E93
:100D6000000C990BFC01EE0FFF1F8E0F9F1FFC0163
:100D7000ED5EFD4F808160E08F730E94D50FD8CF6C
:100D80008091840090918500049680349C4918F4E9
:100D900080E49CE905C080918400909185000496D0
:100DA00090938900809388008FEF809361013BC00E
:100DB000209184003091850080916101082E000C03
:100DC000990BFC01EE0FFF1F8E0F9F1FFC01ED5EC4
:100DD000FD4F81819281820F931F909389008093B0
:100DE000880080916101082E000C990BFC01EE0F28
:100DF000FF1F8E0F9F1FFC01ED5EFD4F808186FF60
:100E000012C080916101082E000C990BFC01EE0FBD
:100E1000FF1F8E0F9F1FFC01ED5EFD4F808161E083
:100E20008F730E94D50FFF91EF91BF91AF919F916A
:100E30008F917F916F915F914F913F912F910F9083
:100E40000FBE0F901F901895FF920F931F93CF9393
:100E5000DF93EC016D877E878C010A5F1F4F8E81C7
:100E60008C3008F051C0F62E61E08F2D0E942210C8
:100E70008E81E82FF0E09F01220F331FE20FF31F56
:100E8000ED5EFD4F6F2D6F739081907CF92EF62AE9
:100E9000F0821F8218866CE00E94BE249CE0899F2D
:100EA000B001112440E050E09B01240F351FF901EF
:100EB000EE0FFF1F2E0F3F1FF901ED5EFD4F9081DA
:100EC00096FD16C04F5F5F4F4C30510569F7811199
:100ED0000FC01092800082E0809381001092850004
:100EE00010928400B19A80916F00826080936F00AD
:100EF000EE81F0E0CF01880F991FE80FF91FED5E3A
:100F0000FD4F8081806480836CED75E0C801DF91C6
:100F1000CF911F910F91FF900C94BE02FF920F93FF
:100F20001F93CF93DF93EC01F42E4D895E89461712
:100F300057072CF48F8598899B838A8320C0EB897F
:100F4000FC8909891A896E177F071CF41B830A83A1
:100F500016C09B012E1B3F0BAF85B889A01BB10BA0
:100F60000E94E4249A012E1B3F0B032E000C440B1D
:100F7000550B0E947A20200F311F3B832A832A8140
:100F80003B8189859A85820F931F9B838A83FF20EB
:100F900009F456C0288139818D3D45E0940744F01D
:100FA0004C815D81420F531F841795076CF429C053
:100FB0008C3D65E0960741F04C815D81B901641B71
:100FC000750B68177907ECF02C3D75E0370744F492
:100FD0008D3D45E094079CF428173907ECF411C0C7
:100FE0002C3D65E0360781F08C3D75E097073CF0BD
:100FF0008217930734F08D3D45E094072CF48CED77
:1010000095E09983888311C0281739072CF48C81C7
:101010009D81280F391F07C08217930734F48C81F4
:101020009D81281B390B3983288368817981CE0102
:101030000696DF91CF911F910F91FF900C94BE0205
:10104000DF91CF911F910F91FF9008950F931F9300
:10105000CF93DF93EC014D895E89461757072CF437
:10106000898D9A8D9A87898720C0EB89FC890F89A1
:10107000188D6E177F071CF41A87098716C09B010D
:101080002E1B3F0BA98DBA8DA01BB10B0E94E4242F
:101090009A012E1B3F0B032E000C440B550B0E9494
:1010A0007A20200F311F3A872987DF91CF911F9136
:1010B0000F910895FC01128611862CED35E03383E3
:1010C0002283318320836CED75E006960C94BE027A
:1010D0006536710514F064E670E077FF02C060E0E9
:1010E00070E0660F771F660F771F2CED35E0261B2B
:1010F000370BFC01328B218B64527A4F708B6787E0
:1011000008958F929F92AF92BF92EF92FF920F93AA
:101110001F93CF93DF93EC017B018B01000F111F15
:10112000000F111F0C0F1D1FF80166857785808940
:1011300091890E944B224B015C01CE01825A9F4F44
:101140000E946808B401CE018D5B9F4F0E94680821
:10115000B401CE018C569F4F0E946808B401CE01A5
:1011600087589F4F0E946808F801628D738D848DA7
:10117000958D0E944B224B015C01CE0181559F4F02
:101180000E946808B401CE0186539F4F0E946808F0
:10119000B401CE018B519F4F0E946808C259DE4FA7
:1011A000F982E882DF91CF911F910F91FF90EF902C
:1011B000BF90AF909F908F9008951F920F920FB69F
:1011C0000F921124CF92DF92EF92FF920F931F9311
:1011D0002F933F934F935F936F937F938F939F933F
:1011E000AF93BF93CF93DF93EF93FF938EB580932D
:1011F000600180915F01882349F08FEF8EBD1092CE
:101200005F0110925E0110925D0118C0E0915D01D6
:10121000F0915E01EA5BFE4F80818EBD80915D01A1
:1012200090915E018430910521F481E080935F010B
:1012300005C0019690935E0180935D01E09160018D
:10124000E11104C081E080935C0171C1EF3F21F4A2
:1012500081E080935B016BC180915C01882309F47C
:1012600075C08E2F90E0FC013497E231F10508F053
:101270006AC0EC5CFF4F0C94DE24809153048823F9
:1012800079F0109216031092150310921803109221
:10129000170310921A03109219031092530453C0AB
:1012A00080915F04882309F44EC081E08093530449
:1012B00080931D0348C08DEC9CECACE4BFE38093AD
:1012C000590490935A04A0935B04B0935C043BC010
:1012D0001092590410925A0410925B0410925C040C
:1012E00032C08AE999E9A9E1BFE304C080E090E057
:1012F000A0E8BFE38093550490935604A09357044D
:10130000B093580420C010925504109256041092C5
:1013100057041092580417C062E070E002C061E008
:1013200070E08FEE92E00E9481080DC060E070E0F6
:10133000F8CF80915404882319F01092540403C00C
:1013400081E08093540410925C01EDC080915B01B8
:10135000882309F4ECC0C0915901D0915A01C130E1
:10136000D10509F456C01CF4209789F0D3C0C230CF
:10137000D10509F490C0C330D10509F0CBC0F0E02D
:10138000EF57F109F0931C03E0931B03C3C0F0E097
:101390008F010F571109B801012E000C880B990B12
:1013A0000E9483226B017C0160912A0370912B03C0
:1013B00080912C0390912D03A70196010E94CD23CB
:1013C00018164CF460912A0370912B0380912C0322
:1013D00090912D0316C060912E0370912F03809180
:1013E000300390913103A70196010E94CF2187FF1E
:1013F0000BC060912E0370912F0380913003909168
:1014000031030E944B228B011093160300931503A6
:1014100081C0F0E08F010F571109B801012E000CB7
:10142000880B990B0E9483226B017C0160912A0337
:1014300070912B0380912C0390912D03A7019601AD
:101440000E94CD2318164CF460912A0370912B034F
:1014500080912C0390912D0316C020912E03309182
:101460002F034091300350913103C701B6010E9410
:10147000CD2318165CF460912E0370912F03809198
:101480003003909131030E944B228B01109318037B
:10149000009317033FC0F0E08F010F571109B80107
:1014A000012E000C880B990B0E9483226B017C019A
:1014B00020912A0330912B0340912C0350912D034E
:1014C0000E94CF2187FF09C060912A0370912B03EE
:1014D00080912C0390912D0316C020912E03309102
:1014E0002F034091300350913103C701B6010E9490
:1014F000CD2318165CF460912E0370912F03809118
:101500003003909131030E944B228B0110931A03F8
:10151000009319032196D0935A01C093590124973F
:1015200034F010925B0110925A0110925901FF9110
:10153000EF91DF91CF91BF91AF919F918F917F916B
:101540006F915F914F913F912F911F910F91FF905C
:10155000EF90DF90CF900F900FBE0F901F901895D7
:10156000CF93DF93EC01809137028C3098F491E0B7
:10157000980F909337028E8390E0FC01EE0FFF1FCF
:101580008E0F9F1FFC01ED5EFD4F88EB9BE0928369
:10159000818302C08FEF8E837C8B6B8B5E8B4D8B38
:1015A000C9012135310514F080E590E097FF02C0B4
:1015B00080E090E0880F991F880F991F222733271A
:1015C000281B390B388F2F8B9A8F898F1A86198693
:1015D00060E070E0CE010E94680884E090E09D83A6
:1015E0008C838CED95E0998388839B838A838FEF2E
:1015F0009FEF9E878D87DF91CF9108958F929F9265
:10160000AF92BF92CF92DF92EF92FF928091BC0493
:101610009091BD040E943A0540E06CEC8091BC04BE
:101620009091BD040E94E7044091B60464E4809167
:10163000BC049091BD040E94E7048091B804882303
:1016400009F451C0E091B704E950E33040F4F0E010
:10165000EE0FFF1FE85EFE4F6081718102C06EEEEB
:1016600072E08091B904882381F18091B6048111E0
:101670002CC08FB7F89480900F0290901002A09029
:101680001102B09012028FBF6B01770FEE08FF08B6
:101690008091BC049091BD040E949404813019F1A2
:1016A0002FB7F89480910F0290911002A09111022F
:1016B000B09112022FBF8C199D09AE09BF09881580
:1016C0009905AA05BB0520F30EC0072E000C880B58
:1016D000990BFF90EF90DF90CF90BF90AF909F90CD
:1016E0008F900C948310FF90EF90DF90CF90BF907D
:1016F000AF909F908F900895AF92BF92CF92DF925C
:10170000EF92FF920F931F93CF93DF938B01BC0156
:101710008091BC049091BD040E941B0540E06EEBDB
:101720008091BC049091BD040E94E704E801680127
:1017300089E0C80ED11CA090BC04B090BD0488E024
:10174000E82EF12C10E001E0C5010E949404811103
:10175000102B000F81E0E81AF108B1F71993CC16AD
:10176000DD0649F78091BC049091BD040E943A05C2
:1017700091E0813009F090E0892FDF91CF911F91A6
:101780000F91FF90EF90DF90CF90BF90AF900895B2
:101790000F931F93CF93DF93CDB7DEB729970FB683
:1017A000F894DEBF0FBECDBF8C018091BC04909138
:1017B000BD040E943A05882309F1BE016F5F7F4F87
:1017C000C8010E947C0B8823C9F068E0CE01019615
:1017D0000E947C049985891311C08D818F3361F03B
:1017E00020F48F3159F489E00CC08F3519F08F3710
:1017F00039F004C08BE005C08AE003C080E001C07E
:101800008CE029960FB6F894DEBF0FBECDBFDF91F6
:10181000CF911F910F910895BF92CF92DF92EF92D7
:10182000FF920F931F93CF93DF93EC016B018D8594
:10183000811105C0CE010E943A05811105C01B86A9
:101840001D861C8680E060C040E060EFCE010E94F3
:10185000E70401E0E12CB12C11E0CE010E949404D8
:10186000F82ECE010E94940491E0F91203C0813059
:10187000B1F434C02E2D30E0F8121BC08B85181740
:1018800038F4FE01E20FF31F8381802341F402C08C
:10189000811729F0F12C193058F41C8709C0FE017A
:1018A000EE0DF11D8381802B8383FF24F39409C007
:1018B000B12EFE01E20FF31F9381802F80958923C3
:1018C00083836F2DCE010E94B8041F5F000F11F4B7
:1018D000E39401E087E08E1508F0BFCF113408F4DF
:1018E000AECFBB86B11002C081E08D878B8188238B
:1018F00009F4A5CFDE011396F6012B968D91819305
:10190000CA17DB07D9F781E0DF91CF911F910F91C3
:10191000FF90EF90DF90CF90BF90089590910E02CE
:101920009111FCCF91E090930E0240930D022FEFA6
:1019300020930C0210920B02260F20930A02909320
:10194000090290910902880F892B809309028091E6
:101950000802813061F4109208028091090280939C
:10196000BB008091BC0083FDF8CF85EC01C085EE03
:101970008093BC0080910E028130E1F380910B02D4
:10198000861710F460910B02A8EEB1E0E8ECF1E0EC
:1019900080E0861721F09D9191938F5FFACF089593
:1019A000282F3091C701313208F04AC080910E02D1
:1019B0008111FCCF9091CA0442E040930E02209323
:1019C0000D022FEF20930C0210920B0230930A02AB
:1019D000E7EAF1E0A8EEB1E020E0321721F0419112
:1019E0004D932F5FFACF1092090220910902990FAF
:1019F000922B9093090290910802913061F4109219
:101A00000802909109029093BB009091BC0093FD55
:101A1000F8CF95EC01C095EE9093BC0090910E022A
:101A20009230E1F390910C029F3F79F080910C028B
:101A3000803241F080910C02803331F084E005C0A7
:101A400081E003C082E001C083E01092A601109201
:101A5000C7011092A501089591E09093A50180938C
:101A6000CA041092A6011092C7010895813208F0AD
:101A700080E241E0682F86E70E948E0C1092DA0423
:101A80008093D904089581E00C94D00C682F85EDE3
:101A900092E00C948B024F925F926F927F928F92A2
:101AA0009F92AF92BF92CF92DF92EF92FF92CF932D
:101AB000DF93CDB7DEB7A4970FB6F894DEBF0FBEA5
:101AC000CDBFC090AD04D090AE04E090AF04F090D4
:101AD000B00480919D0490919E04A0919F04B091C8
:101AE000A004BC01CD019058A70196010E94DA2301
:101AF0002B013C018091A1049091A204A091A30428
:101B0000B091A404BC01CD019058A70196010E9498
:101B1000DA234B015C012091A5043091A604409189
:101B2000A7045091A804C701B6010E94DA236B01F3
:101B30007C01C301B2010E94D4216D837E838F8317
:101B40009887C501B4010E94D42169877A878B8761
:101B50009C87C701B6010E94D4216D877E878F873D
:101B6000988B8091890490918A04A0918B04B09104
:101B70008C04898B9A8BAB8BBC8BBC01CD010E94F2
:101B8000D4216D8B7E8B8F8B988F80918504909163
:101B90008604A0918704B0918804898F9A8FAB8FB7
:101BA000BC8FBC01CD010E94D42169837A838B83D1
:101BB0009C83C301B2010E9447246D8F7E8F8F8F5B
:101BC00098A3C501B4010E94472469A37AA38BA3FB
:101BD0009CA3C701B6010E9447242B013C016989DF
:101BE0007A898B899C890E944724698B7A8B8B8B9D
:101BF0009C8B698D7A8D8B8D9C8D0E9447246B0107
:101C00007C0129813A814B815C816D857E858F8540
:101C100098890E94DA2329893A894B895C890E9434
:101C2000DA234B015C01A7019601C301B2010E94B6
:101C3000DA239B01AC01C501B4010E94D6204B01FF
:101C40005C01A70196016D857E858F8598890E942C
:101C5000DA236B017C01A301920169817A818B8176
:101C60009C810E94DA2329893A894B895C890E94E8
:101C7000DA239B01AC01C701B6010E94D5206D8714
:101C80007E878F87988B9B01AC0169A17AA18BA17C
:101C90009CA10E94DA236B017C0129813A814B814E
:101CA0005C8169857A858B859C850E94DA232D89E4
:101CB0003E894F89588D0E94DA239B01AC01C701F0
:101CC000B6010E94D5202B013C016D8D7E8D8F8D3C
:101CD00098A19058A50194010E94DA236B017C0120
:101CE000A30192016D817E818F8198850E94DA2304
:101CF0009B01AC01C701B6010E94D5206B017C019C
:101D0000A50194016D817E818F8198850E94DA23DF
:101D10004B015C01A30192016D8D7E8D8F8D98A189
:101D20000E94DA239B01AC01C501B4010E94D520B9
:101D30004B015C01A70196010E9470216D837E8397
:101D40008F8398876093890470938A0480938B04AF
:101D500090938C04A5019401C501B4010E94DA237B
:101D60004B015C01A7019601C701B6010E94DA236D
:101D70009B01AC01C501B4010E94D6206B017C011E
:101D800020E030E0A9010E94CD23181624F0F7FAD4
:101D9000F094F7F8F094C701B6010E9455246B0146
:101DA0007C0129813A814B815C816D897E898F8993
:101DB000988D0E94DA2329A13AA14BA15CA10E942F
:101DC000DA234B015C012D853E854F855889698555
:101DD0007A858B859C850E94DA239B01AC01C50125
:101DE000B4010E94D620A70196010E947021698744
:101DF0007A878B879C876093850470938604809391
:101E00008704909388048091910490919204A0910A
:101E10009304B091940489839A83AB83BC834090EC
:101E20009504509096046090970470909804809068
:101E3000990490909A04A0909B04B0909C049C01FB
:101E4000AD01BC01CD010E94DA236B017C01A3012D
:101E50009201C301B2010E94DA239B01AC01C701C8
:101E6000B6010E94D6206B017C01A5019401C50139
:101E7000B4010E94DA239B01AC01C701B6010E94A4
:101E8000D6206B017C0120E030E0A9010E94CD2327
:101E9000181624F0F7FAF094F7F8F094C701B60199
:101EA0000E9455246B017C0126E636E646E65FE398
:101EB0000E94CD2318160CF063C02DEC3CEC4CE8CE
:101EC0005FE3C701B6010E94CF2187FF59C0A5017A
:101ED0009401C301B2010E9470212B013C01698170
:101EE0007A818B819C819058A70196010E94D9210B
:101EF0000E9442216B017C012DEC3CEC4CE45FE341
:101F00006D817E818F8198850E94DA234B015C016F
:101F10002DEC3CEC4CE45EE3C301B2010E94DA23F9
:101F20009B01AC01C501B4010E94D62060938904D5
:101F300070938A0480938B0490938C042DEC3CEC7A
:101F40004CE45FE369857A858B859C850E94DA2362
:101F50004B015C012DEC3CEC4CE45EE3C701B601A7
:101F60000E94DA239B01AC01C501B4010E94D62076
:101F7000609385047093860480938704909388040B
:101F8000A4960FB6F894DEBF0FBECDBFDF91CF9100
:101F9000FF90EF90DF90CF90BF90AF909F908F9089
:101FA0007F906F905F904F90089590E0FC01E6580D
:101FB000FE4F2491FC01EE5AFE4F3491FC01E25C8D
:101FC000FE4FE491EE2309F43CC0222339F1233083
:101FD00091F038F42130A9F0223001F584B58F7DDD
:101FE00012C0273091F02830A1F02430B9F480914C
:101FF00080008F7D03C0809180008F778093800068
:102000000DC084B58F7784BD09C08091B0008F77F3
:1020100003C08091B0008F7D8093B000F0E0EE0FA0
:10202000FF1FE059FE4FA591B4919FB7F89461113D
:1020300004C08C913095382302C0EC913E2B3C9328
:102040009FBF0895CF93DF9390E0FC01EE5AFE4FBF
:102050002491FC01E25CFE4F8491882361F190E0C1
:10206000880F991FFC01EA59FE4FC591D491FC01DC
:10207000E059FE4FA591B491611109C09FB7F89442
:102080008881209582238883EC912E230BC06230B7
:1020900061F49FB7F8948881322F30958323888329
:1020A000EC912E2B2C939FBF06C08FB7F894E8813C
:1020B0002E2B28838FBFDF91CF9108953FB7F894DF
:1020C0008091DC049091DD04A091DE04B091DF04E6
:1020D00026B5A89B05C02F3F19F00196A11DB11D83
:1020E0003FBFBA2FA92F982F8827820F911DA11DBE
:1020F000B11DBC01CD0142E0660F771F881F991FFB
:102100004A95D1F708958F929F92AF92BF92CF9246
:10211000DF92EF92FF926B017C010E945E104B01F7
:102120005C01C114D104E104F104F1F00E945E10DD
:10213000DC01CB0188199909AA09BB09883E9340A3
:10214000A105B10570F321E0C21AD108E108F10838
:1021500088EE880E83E0981EA11CB11CC114D10426
:10216000E104F10419F7DDCFFF90EF90DF90CF90FD
:10217000BF90AF909F908F9008951F920F920FB6CF
:102180000F9211242F933F938F939F93AF93BF93FD
:1021900080910F0290911002A0911102B091120251
:1021A0003091DB0423E0230F2D3720F40196A11D8D
:1021B000B11D05C026E8230F0296A11DB11D209375
:1021C000DB0480930F0290931002A0931102B0934E
:1021D00012028091DC049091DD04A091DE04B091A4
:1021E000DF040196A11DB11D8093DC049093DD04F2
:1021F000A093DE04B093DF04BF91AF919F918F91C4
:102200003F912F910F900FBE0F901F901895CF9375
:10221000DF93CDB7DEB7C454D1090FB6F894DEBF53
:102220000FBECDBF789484B5826084BD84B58160D3
:1022300084BD85B5826085BD85B5816085BD809191
:102240006E00816080936E00109281008091810009
:102250008260809381008091810081608093810001
:10226000809180008160809380008091B1008460C3
:102270008093B1008091B00081608093B000809124
:102280007A00846080937A0080917A0082608093E3
:102290007A0080917A00816080937A0080917A0040
:1022A000806880937A001092C100E0914802F0911A
:1022B000490282E08083E0914402F091450210825D
:1022C000E0914602F09147028FEC80831092500219
:1022D000E0914C02F0914D0286E08083E0914A0249
:1022E000F0914B02808180618083E0914A02F091FD
:1022F0004B02808188608083E0914A02F0914B021A
:10230000808180688083E0914A02F0914B02808155
:102310008F7D80831092DA041092D9041092A60166
:102320001092C70110920E0211E010930D0210924C
:10233000080261E082E10E94D50F61E083E10E9422
:10234000D50F8091B9008E7F8093B9008091B9003C
:102350008D7F8093B90088E48093B80085E48093F2
:10236000BC0080E392E0909345018093440181E3B7
:1023700092E0909343018093420188E60E942C0DE5
:102380008BE690E00E94460D80E090E00E94460DB2
:1023900081E00E94D00C64E670E080E090E00E9452
:1023A00083101093800480E090E4A9E7B4E4809364
:1023B000810490938204A0938304B093840486E7FD
:1023C0000E942C0D8EE190E00E94460D0E94430D6C
:1023D0006AE070E080E090E00E948310A0E6EA2EC0
:1023E000A4E0FA2E00EA10E086E70E942C0DC80156
:1023F0000E94460D0E94430D41E062E086E70E9484
:102400008E0C1092DA048093D90485ED92E00E943C
:102410004202B82E85ED92E00E944202DB2CC12CD4
:102420008C299D29D7018D939D937D010E5F1F4FB0
:102430000E3A1105C9F680916004909161049F7075
:10244000909361048093600410926F0410926E0464
:1024500064E670E080E090E00E94831068E070E045
:102460008EE993E00E94240767E070E089EB93E037
:102470000E94240764E070E084ED93E00E9424074A
:1024800065E070E08DE493E00E94240766E070E070
:1024900082E393E00E94240763E070E083E893E026
:1024A0000E94240762E070E088E693E00E9424071F
:1024B000109216031092150310921803109217032E
:1024C00010921A03109219031092530410921D03D4
:1024D0001092540460E070E08FEE92E00E94810858
:1024E00081E080935F0468EE73E080E090E00E94FA
:1024F0008310F89461E08CE00E9422108CB5806417
:102500008CBD8FEF8EBD8CB580688CBD78948CE0CF
:1025100090E0A0E0B0E08093E1029093E202A0930B
:10252000E302B093E40281EE92E00E949705E0910D
:10253000BC04F091BD04138615861486DF011B963A
:1025400033961E92AE17BF07E1F71092BA041092AD
:10255000BB0401E0BE016F5F7F4F8091BC0490918E
:10256000BD040E940C0C882309F46CC067E0CE0106
:1025700001960E947C0498858913ECCF8091B60463
:10258000811128C08091BC049091BD040E943A053D
:10259000BE016F5F7F4F8091BC049091BD040E948B
:1025A0001B0540E064EB8091BC049091BD040E9447
:1025B000E7048091BC049091BD040E949404182FFC
:1025C0008091BC049091BD040E943A05112311F43E
:1025D0000C943D1D1091B7048981803111F40C9445
:1025E0001D1ECE0101960E94C80B811718F4809120
:1025F000B70409C08981803111F48CE004C0CE0198
:1026000001960E94C80B8093B7048091BA048F5F33
:102610008093BA048981883211F40C94411D48F4E6
:10262000803111F40C94411D823209F093CF0C9447
:10263000411D8B3311F40C94411D823409F08ACF73
:102640000C94411D1092B8040E94FE0A81EE92E0A3
:102650000E9471058091ED029091EE02019711F0B8
:102660000C94391D81EE92E00E9497058091BC0484
:102670009091BD040E949404813009F089C0E091DA
:10268000BC04F091BD04138615861486DF011B96E9
:10269000CF0103961E928A179B07E1F7BE01665F82
:1026A0007F4FCF010E940C0C882311F40C94481D1D
:1026B00067E0CE010A960E947C04998989130C94E4
:1026C000481D8091BC049091BD040E943A05882366
:1026D00011F40C94261EBE016F5F7F4FCE010A9647
:1026E0000E947C0B882311F40C94261E68E0CE0116
:1026F00001960E947C04998589130C94261E2A81D8
:1027000030E0C901982F8827990F990F990F698197
:10271000B8E06B9FB00111249C01262B372B8A85D2
:10272000803111F00C94231E688570E08F81FB01CD
:10273000E81BF109CF019695982F882797958795E3
:102740000E94CA2460517109207FE3E0220F331FE9
:10275000EA95E1F7620F731F6138F4EE7F0714F416
:102760000C94481D072E000C880B990B0E948322A5
:1027700020E030E040E05CE30E94DA236093510106
:102780007093520180935301909354010E94FE0A6A
:102790000E945E1000914D0110914E0120914F0159
:1027A00030915001DC01CB01801B910BA20BB30BCC
:1027B00081329E44A105B10560F00E945E106093D5
:1027C0004D0170934E0180934F019093500181E031
:1027D00001C080E020914B0130914C01232B91F4FA
:1027E000882381F086E70E942C0D8AE490E00E9405
:1027F000460D0E94430D21E030E030934C012093C0
:102800004B0180E020914B0130914C01213031058A
:1028100009F068C0882309F465C086E70E942C0D82
:1028200080E090E00E94460D0E94430D83E090E01E
:102830000E94360D1092700410927104109272046E
:102840001092730485ED92E00E9442024C01990FB0
:10285000AA08BB088092700490927104A09272043E
:10286000B092730485ED92E00E944202BA2CA92C2A
:10287000982C88246C01990FEE08FF08C828D928E5
:10288000EA28FB28C0927004D0927104E09272048E
:10289000F092730485ED92E00E944202FE2CED2C32
:1028A000DC2CCC24092E000CAA0BBB0BC82AD92A7D
:1028B000EA2AFB2AC0927004D0927104E09272045A
:1028C000F092730486E70E942C0D8AE590E00E9446
:1028D000460D0E94430D42E050E050934C0140935E
:1028E0004B0180E020914B0130914C0122303105A9
:1028F00009F093C4882309F490C486E70E942C0D44
:1029000080E090E00E94460D0E94430D83E090E03D
:102910000E94360D10927404109275041092760481
:102920001092770485ED92E00E9442024C01990FCB
:10293000AA08BB088092740490927504A092760451
:10294000B092770485ED92E00E944202BA2CA92C45
:10295000982C88246C01990FEE08FF08C828D92804
:10296000EA28FB28C0927404D0927504E0927604A1
:10297000F092770485ED92E00E944202FE2CED2C4D
:10298000DC2CCC24092E000CAA0BBB0BC82AD92A9C
:10299000EA2AFB2AC0927404D0927504E09276046D
:1029A000F092770480916A0490916B04A0E0B0E00B
:1029B000BA2FA92F982F882797018601081B190B7A
:1029C0002A0B3B0B0A8B1B8B2C8B3D8B10918004AD
:1029D0001EABE0916604F0916704E0906204F09011
:1029E00063042091700430917104409172045091FD
:1029F00073042AAB3BAB4CAB5DAB113009F08BC021
:102A0000970140E050E060E070E080E090E000E19D
:102A10000E94862519012A013B014C01BF0180E07B
:102A200090E02A893B894C895D890E944C25F22ED1
:102A3000032F142FB52FF62FE72FD82EE92EA0E065
:102A40000E94DB255CF4AFE70E94C625F22E032F1F
:102A5000142FB52FF62FE72FD82EE92E2F2D302F3C
:102A6000412F5B2F6F2F7E2F8D2D9E2D07E00E9413
:102A70009F2559016A017B018C019101A201B301DB
:102A8000C4010E94BD252EA33FA348A759A76AA74A
:102A90007BA78CA79DA7E0916804F09169048090C2
:102AA000640490906504940140E050E060E070E0C0
:102AB00080E090E001E10E94862519012A013B0196
:102AC0004C01BF0180E090E02A893B894C895D89F7
:102AD0000E944C25F22E032F142FB52FF62FE72F2F
:102AE000D82EE92EA0E00E94DB255CF4AFE30E9423
:102AF000C625F22E032F142FB52FF62FE72FD82E31
:102B0000E92E2F2D302F412F5B2F6F2F7E2F8D2DF4
:102B10009E2D06E094C0BF0180E090E02A893B89A9
:102B20004C895D890E944C25D22E032F142FB52F7E
:102B3000F62FE72FB82EC92EA0E00E94DB2584F4E3
:102B400021503F4F4F4F5F4F6F4F7F4F8F4F9F4FE2
:102B5000D22E032F142FB52FF62FE72FB82EC92E04
:102B60002D2D302F412F5B2F6F2F7E2F8B2D9C2DE6
:102B700008E00E949F2539014A01B62FA72FF82FA0
:102B8000E92FC12CD12C9701A60160E070E080E014
:102B900090E00FE00E94862559016A017B018C01BB
:102BA0009301A4016B2F7A2F8F2F9E2F0E94BD259A
:102BB0002EA33FA348A759A76AA77BA78CA79DA7C9
:102BC000E0916804F0916904809064049090650439
:102BD000940140E050E060E070E080E090E000E1CF
:102BE0000E94862519012A013B014C01BF0180E0AA
:102BF00090E02A893B894C895D890E944C25F22E00
:102C0000032F142FB52FF62FE72FD82EE92EA0E093
:102C10000E94DB255CF4AFE70E94C625F22E032F4D
:102C2000142FB52FF62FE72FD82EE92E2F2D302F6A
:102C3000412F5B2F6F2F7E2F8D2D9E2D07E00E9441
:102C40009F2559016A017B018C019101A201B30109
:102C5000C4010E94BD252AA33BA34CA35DA36EA77C
:102C60007FA788AB99AB4A885B886C887D88770C96
:102C70004408542C320160916C0470916D0480E022
:102C800090E02A893B894C895D890E944C25F22E6F
:102C9000032F142FB52FF62FE72FD82EE92EA0E003
:102CA0000E94DB2584F42150310940485F4F6F4F6B
:102CB0007F4F8F4F9F4FF22E032F142FB52FF62FDC
:102CC000E72FD82EE92E2F2D302F412F5B2F6F2F7E
:102CD0007E2F8D2D9E2D07E10E949F2549015A01CF
:102CE000950184010053184F2F4F3F4F0E8F1F8FB8
:102CF00028A339A31EA9113009F07EC02E8D3F8D67
:102D000048A159A1203D3740410551050CF038C17B
:102D10006A897B898C899D892BE030E040E050E016
:102D20000E944C25AA88BB88CC88DD88E42CF42C32
:102D3000042D142D0E94F324F22E032F142FB52FEF
:102D4000F62FE72FD82EE92EA0E00E94DB2584F491
:102D50002150310941095109684F7F4F8F4F9F4FD3
:102D6000F22E032F142FB52FF62FE72FD82EE92E92
:102D70002F2D302F412F5B2F6F2F7E2F8D2D9E2DCE
:102D800003E20E949F252A8B3B8B4C8B5D8BAFE12E
:102D9000B0E08E8C9F8CA8A0B9A070ED871A77E068
:102DA000970AA108B108A50194010E9499209B01EE
:102DB000AC01C501B4010E94AE247B018C01F3E09B
:102DC00015950795F794E794FA95D1F7AFE3B0E03E
:102DD000A50194010E9499209B01AC01C501B40199
:102DE0000E94AE242B013C01A5E075946794579492
:102DF0004794AA95D1F7CEC08E8D9F8DA8A1B9A179
:102E0000803D9740A105B1050CF0A6C06A897B8979
:102E10008C899D8923E030E040E050E00E944C2501
:102E2000AA88BB88CC88DD88E42CF42C042D142DD2
:102E30000E94F324F22E032F142FB52FF62FE72F25
:102E4000D82EE92EA0E00E94DB2584F42150310920
:102E5000410951096E4F7F4F8F4F9F4FF22E032F25
:102E6000142FB52FF62FE72FD82EE92E2F2D302F28
:102E7000412F5B2F6F2F7E2F8D2D9E2D01E20E9403
:102E80009F252A8B3B8B4C8B5D8BA3E0B0E08E8C17
:102E90009F8CA8A0B9A0F0ED8F1AF7E09F0AA108B7
:102EA000B108A50194010E9499209B01AC01C501C4
:102EB000B4010E94AE247B018C0115950795F7940F
:102EC000E794A5E0B0E0A50194010E9499209B0140
:102ED000AC01C501B4010E94AE242B013C01E3E02A
:102EE0007594679457944794EA95D1F72E8D3F8D4A
:102EF00048A159A1213C69EF36076FEF46075607F5
:102F00000CF048C0A7E0B0E049015A017CED870E03
:102F100075E0971EA11CB11CA50194010E94992087
:102F20009B01AC01C501B4010E94AE24E60EF71E60
:102F3000081F191FA501940162E0220F331F441FCF
:102F4000551F6A95D1F7C501B4010E94AE24460E03
:102F5000571E681E791E1EC0A5019401C501B4014B
:102F60000E94AE247B018C0144E015950795F794EF
:102F7000E7944A95D1F71A8A1B8A1C8A1D8A07C0D2
:102F80001A8A1B8A1C8A1D8AE12CF12C8701412C8C
:102F9000512C3201D801C701BB0F880B982FDC01DF
:102FA0008A8F9B8FAC8FBD8F2AA13BA14CA15DA1C5
:102FB0006EA57FA588A999A957016801EA8CFE2C06
:102FC0000E2D1E2D0E94D225922E832E342E252EBC
:102FD0006AA37BA38CA39DA383017201110FEE084A
:102FE000FE2C8701EA8EFB8E0C8F1D8F2EA13FA138
:102FF00048A559A56AA57BA58CA59DA5520163018D
:10300000EA8CFE2C0E2D1E2D0E94D22559016A013C
:103010007B018C018E8D9F8DA8A1B9A12A893B8946
:103020004C895D89821B930BA40BB50B80937804AC
:1030300090937904A0937A04B0937B043EA9313035
:1030400009F070C06AA97BA98CA99DA9AB01BC013C
:1030500080E090E0DC014A8B5B8B6C8B7D8B8E8BF0
:103060009F8BA88FB98F9A01AB0160E070E080E080
:1030700090E00E94F324F22E032F142FB52FF62F89
:10308000E72FD82EE92EA0E00E94DB2584F4215002
:103090003109404E5F4F6F4F7F4F8F4F9F4FF22E42
:1030A000032F142FB52FF62FE72FD82EE92E2F2D13
:1030B000302F412F5B2F6F2F7E2F8D2D9E2D05E101
:1030C0000E949F25A92CB82CC32CD22CEAA0FBA0CF
:1030D0000CA11DA10E94D225F22E032F142FB52F73
:1030E000F62FE72FD82EE92EA0E00E94DB2584F4EE
:1030F000215030484F4F5F4F6F4F7F4F8F4F9F4F43
:10310000F22E032F142FB52FF62FE72FD82EE92EEE
:103110002F2D302F412F5B2F6F2F7E2F8D2D9E2D2A
:103120000FE06DC04AA95BA96CA97DA99A01AB010A
:1031300060E070E0CB012A8B3B8B4C8B5D8B6E8B00
:103140007F8B888F998F60E070E080E090E00E9434
:10315000F324F22E032F142FB52FF62FE72FD82E9E
:10316000E92EA0E00E94DB2584F421503109404E75
:103170005F4F6F4F7F4F8F4F9F4FF22E032F142FB4
:10318000B52FF62FE72FD82EE92E2F2D302F412FD8
:103190005B2F6F2F7E2F8D2D9E2D05E10E949F2589
:1031A000A92CB82CC32CD22CEAA0FBA00CA11DA1E9
:1031B0000E94D225F22E032F142FB52FF62FE72FC2
:1031C000D82EE92EA0E00E94DB2584F42150304E59
:1031D0004F4F5F4F6F4F7F4F8F4F9F4FF22E032FF9
:1031E000142FB52FF62FE72FD82EE92E2F2D302FA5
:1031F000412F5B2F6F2F7E2F8D2D9E2D0DE00E9476
:103200009F2520937C0430937D0440937E0450934B
:103210007F0410924C0110924B0180918004813008
:1032200079F460917C0470917D0480917E0490918A
:103230007F040E94832220E030E048EC52E40EC07C
:1032400060917C0470917D0480917E0490917F0454
:103250000E94832220E030E040E251E40E94D92124
:1032600060935501709356018093570190935801D4
:1032700088E60E942C0D8BE390E00E94460D80E0D2
:103280000E94D00C41E06EE088E60E948E0C109205
:10329000DA048093D90485ED92E00E944202182F4F
:1032A00085ED92E00E94420218AF1FAA6FA978AD87
:1032B000862B972BBC01990F880B990B0E948322B8
:1032C0006093910470939204809393049093940478
:1032D00085ED92E00E944202182F85ED92E00E9457
:1032E00042021AAF19AEA9ADBAAD8A2B9B2BBC0115
:1032F000990F880B990B0E94832260939504709319
:103300009604809397049093980485ED92E00E9430
:103310004202182F85ED92E00E9442021CAF1BAEC4
:10332000EBADFCAD8E2B9F2BBC01990F880B990B3D
:103330000E9483226093990470939A0480939B0463
:1033400090939C0485ED92E00E944202182F85ED37
:1033500092E00E9442021EAF1DAEEDACFEAC8E2983
:103360009F29BC01990F880B990B0E9483226093BF
:103370008D0470938E0480938F049093900485ED58
:1033800092E00E944202182F85ED92E00E944202D4
:1033900021961FAF21971FAE21960EAD1FAD21972D
:1033A000802B912BBC01990F880B990B0E948322D3
:1033B00060939D0470939E0480939F049093A00457
:1033C00085ED92E00E944202182F85ED92E00E9466
:1033D000420223961FAF239722961FAE2297239671
:1033E0002EAD3FAD2397822B932BBC01990F880BF9
:1033F000990B0E9483226093A1047093A20480938E
:10340000A3049093A40485ED92E00E944202F82E5A
:1034100085ED92E00E9442028C0120E030E04AEA11
:1034200053E460918D0470918E0480918F0490918B
:1034300090040E94D92128EB3EE142E152E40E942F
:10344000D62060938D0470938E0480938F049093A4
:10345000900423E333EF48EA53E4609191047091C0
:10346000920480919304909194040E94D5209058E6
:103470002AE13CEA42E856E40E94D9216093910493
:1034800070939204809393049093940422EB3DE80C
:103490004FEC53E4609195047091960480919704E9
:1034A000909198040E94D52090582DE934EF4CE774
:1034B00056E40E94D92160939504709396048093FA
:1034C00097049093980429EC3EE84FEC54E4609103
:1034D000990470919A0480919B0490919C040E949D
:1034E000D52024E137EC45E856E40E94D9216093C9
:1034F000990470939A0480939B0490939C0429E808
:1035000031EA4EEA53E460919D0470919E048091EB
:103510009F049091A0040E94D520905820E030E4B0
:103520004CE155E40E94D92160939D0470939E0460
:1035300080939F049093A0042EE03DE84AE153E479
:103540006091A1047091A2048091A3049091A404BD
:103550000E94D520905820E030E44CE155E40E94D0
:10356000D9216093A1047093A2048093A304909343
:10357000A4042596FFAE259724961FAE2497259682
:103580006EAD7FAD2597602B712B072E000C880B3D
:10359000990B0E94832221ED32E240E353E40E9422
:1035A000D62020E030E44CE155E40E94D92160931C
:1035B000A5047093A6048093A7049093A8040E9486
:1035C0004B0D0E944B0D6091510170915201809101
:1035D0005301909154010E945222609349016091DD
:1035E000550170915601809157019091580120E04A
:1035F00030E045E754E40E94D5200E9452226093B7
:103600004A012AE939E949E450E46091890470915A
:103610008A0480918B0490918C040E94D62020E033
:1036200030E040E251E40E94DA230E94522260938B
:1036300047012AE939E949E450E460918504709131
:10364000860480918704909188040E94D62020E00F
:1036500030E040E251E40E94DA230E94522260935B
:10366000460160918D0470918E0480918F04909139
:1036700090040E94522260934801D0905304D110CC
:1036800011C082E393E00E945A088DE493E00E9407
:103690005A0888E693E00E945A0883E893E00E9463
:1036A0005A08F9C00091190310911A0380915D0422
:1036B00090915E0481309105C9F068F0029729F578
:1036C000B801110F880B990B0E9483222DEC3CEC62
:1036D0004CEC5EE315C0B801110F880B990B0E94EA
:1036E00083222DEC3CEC4CE45FE30AC0B801110FDF
:1036F000880B990B0E9483222AE939E949E15FE3AB
:103700000E94DA230E944B228B0183E494E00E9402
:10371000710580914F0490915004019729F483E43E
:1037200094E00E94970501C0D12C809115039091DF
:1037300016032091170330911803821B930B800FFF
:10374000911F2091EF023091F002829FB001839F80
:10375000700D929F700D11244D2D82E393E00E9415
:103760008E078091170390911803209115033091D3
:103770001603919581959109821B930B801B910BE8
:103780002091F1023091F202829FB001839F700D6F
:10379000929F700D11244D2D8DE493E00E948E07B1
:1037A000809117039091180320911503309116030F
:1037B000A801481B590BCA01821B930B2091F302ED
:1037C0003091F402829F7001839FF00C929FF00C65
:1037D00011248091150390911603209117033091C5
:1037E0001803821B930B801B910B2091F5023091E3
:1037F000F602829F8001839F100D929F100D11246D
:103800004D2DB70188E693E00E948E074D2DB8013B
:1038100083E893E00E948E0780915D0490915E049E
:103820000297C9F560914D0370914E038091320368
:1038300090913303680F791F8091830390918403E3
:10384000680F791F8091680390916903680F791F51
:1038500080919E0390919F03680F791F8091B90317
:103860009091BA03680F791F8091D4039091D5038A
:10387000680F791F64507942072E000C880B990B52
:103880000E94832220E030E443E055E40E94CD23EF
:1038900018160CF403C140905501509056016090E9
:1038A0005701709058018091530481110DC08EE929
:1038B00093E00E945A0889EB93E00E945A0884ED35
:1038C00093E00E945A08D5C06091890470918A04DF
:1038D00080918B0490918C046A8B7B8B8C8B9D8B5D
:1038E0008091850490918604A0918704B09188040A
:1038F0008E8F9F8FA8A3B9A36091590470915A0429
:1039000080915B0490915C0420E030E0A9010E946A
:10391000CD2318160CF4E9C060915504709156043B
:10392000809157049091580420E030E0A9010E9452
:10393000CD2318160CF4D9C080911D03882309F4F7
:1039400018C1109252041092510410921D0300915C
:103950002603109127032091280330912903B301F6
:10396000A20187E294E00E94AC052B013C0177FAAA
:10397000709477F87094212C312C80915404882312
:1039800009F4DBC060911B0370911C03072E000C2F
:10399000880B990B0E9483226B017C0110923F04DB
:1039A00010924004109241041092420410923B0481
:1039B00010923C0410923D0410923E0410920704B1
:1039C000109208041092090410920A041092030441
:1039D000109204041092050410920604412C512CFC
:1039E000320153014201A3019201C701B6010E94B5
:1039F000D6206A8B7B8B8C8B9D8BA50194010E94BA
:103A0000D6200E944B2289EB93E00E942608A50154
:103A100094016A897B898C899D890E94D5200E94A6
:103A20004B228EE993E00E942608A7019601C70168
:103A3000B6010E94D6209B01AC01C301B2010E94D5
:103A4000D5200E944B2284ED93E00E94260841E09D
:103A5000B10189EB93E00E948E0741E0B1018EE94C
:103A600093E00E948E0741E0B10184ED93E00E9453
:103A70008E070E94F4010C9426130093B6040C9454
:103A8000EA128091BB048F5F8093BB040C94AA124E
:103A900060E070E08EEF92EC0C94BE13B701FF0C67
:103AA000880B990B0E9483222DEC3CEC4CEC5EE3DE
:103AB0000E94DA230E944B2241E088E693E00E94B4
:103AC0008E07B801110F880B990B0E9483222DECF1
:103AD0003CEC4CEC5EE30E94DA230E944B2241E076
:103AE00083E893E00E948E07D6CE81E080931D0389
:103AF0006091550470915604809157049091580438
:103B00002091590430915A0440915B0450915C0417
:103B1000C0902E03D0902F03E0903003F09031033B
:103B20000E94D520A70196010E94DA230E944B2211
:103B30001B01412C512C320120CF0AE017ED23EA62
:103B40003CE34A895B896C897D898FEE93E00E9412
:103B5000AC056B017C0100E010E098014E8D5F8D9B
:103B600068A179A18BE094E00E94AC054B015C0157
:103B70003ACF809151049091520405970CF0E7CE12
:103B80000E945E104B015C019B01A50160E070E0AA
:103B900080E090E0A0901E03B0901F03C09020032F
:103BA000D0902103E0902203F0902303009124039E
:103BB000109125030E94D225203C374249405105EF
:103BC000610571058105910509F00CF4C0CE4092A4
:103BD00026035092270360922803709229030E94C3
:103BE0005E108B019C0160931E0310931F032093B2
:103BF000200330932103109222031092230310928A
:103C000024031092250310923F0410924004109256
:103C100041041092420410923B0410923C04109212
:103C20003D0410923E0480915104909152040196FB
:103C300090935204809351048ACE1D3010F00C945E
:103C4000F7120C94FD12B9010C94AC1360E874EEF9
:103C50000C94AC138F929F92AF92BF92CF92DF924F
:103C6000EF92FF92CF93DF9310923B0210923A02B1
:103C700088EE93E0A0E0B0E080933C0290933D0298
:103C8000A0933E02B0933F0222E231E0309339022A
:103C90002093380225EC30E0309345022093440213
:103CA00024EC30E0309347022093460220EC30E0D1
:103CB000309349022093480221EC30E030934B02CC
:103CC00020934A0222EC30E030934D0220934C02C4
:103CD00026EC30E030934F0220934E0210925102B6
:103CE0001092520210925302109254021092D80273
:103CF0001092D7028093D9029093DA02A093DB024C
:103D0000B093DC0284E391E09093D6028093D502D5
:103D100060E082E00E942210E4E5F1E0E491E093AB
:103D2000CB04E0E4F1E0E491F0E0EE0FFF1FEC5C87
:103D3000FE4F859194919093CD048093CC04109282
:103D4000D6041092D8041092D704E6EDF4E08EEC7D
:103D500094E012928E179F07E1F78BEC94E090931A
:103D6000BD048093BC041092BA041092BB0410925C
:103D7000B60489E08093B70481E08093B80480930F
:103D8000B9041092C9041092C80486EA882E8BE9FF
:103D9000982E84E4A82E8CE3B82E8092AD049092E5
:103DA000AE04A092AF04B092B00480E090EAA0E824
:103DB000B4E48093810490938204A0938304B0932D
:103DC00084048FEF9FEF9093F0028093EF02909323
:103DD000F2028093F102C1E0D0E0D093F402C093EC
:103DE000F302D093F602C093F502D093F802C09389
:103DF000F702D093FA02C093F902D093FC02C09369
:103E0000FB028CE0E0E0F1E0ADEFB2E001900D925A
:103E10008A95E1F78CE0ECE0F1E0A9E0B3E00190F5
:103E20000D928A95E1F780E090E0ACEFB2EC8093E0
:103E30002A0390932B03A0932C03B0932D03C12C42
:103E4000D12C9EEFE92E92E4F92EC0922E03D0924F
:103E50002F03E0923003F092310320E030E04FE78F
:103E600050E062E87FEF82E393E00E94B00A20E036
:103E700030E04FE750E062E87FEF8DE493E00E948E
:103E8000B00A20E030E04FE750E062E87FEF88E6DC
:103E900093E00E94B00A20E030E04FE750E062E893
:103EA0007FEF83E893E00E94B00A20E530E04FE71F
:103EB00050E062E87FEF8EE993E00E94B00A20E5CF
:103EC00030E04FE750E062E87FEF89EB93E00E943B
:103ED000B00A20E530E04FE750E062E87FEF84ED84
:103EE00093E00E94B00A80E090E0A0E7B2E4809303
:103EF000EF039093F003A093F103B093F2031092B9
:103F0000F3031092F4031092F5031092F60310924B
:103F1000F7031092F8031092F9031092FA038092BB
:103F2000FB039092FC03A092FD03B092FE03C092AB
:103F3000FF03D0920004E0920104F0920204109278
:103F400003041092040410920504109206041092C7
:103F50000704109208041092090410920A04809336
:103F60000B0490930C04A0930D04B0930E041092D4
:103F70000F04109210041092110410921204109267
:103F800013041092140410921504109216048092D7
:103F9000170490921804A0921904B0921A04C092C7
:103FA0001B04D0921C04E0921D04F0921E04109297
:103FB0001F041092200410922104109222041092E7
:103FC000230410922404109225041092260480E009
:103FD00090E0A0E1B2E48093270490932804A0939A
:103FE0002904B0932A048BE895ECA2EEB1E4809307
:103FF0002B0490932C04A0932D04B0932E0488E4FA
:1040000091EEA6E3B1E480932F0490933004A09343
:104010003104B09332048092330490923404A0921D
:104020003504B0923604C0923704D0923804E0923E
:104030003904F0923A0410923B0410923C0410921E
:104040003D0410923E0410923F04109240041092DE
:1040500041041092420410924704109248041092B6
:10406000490410924A0410924C0410924B0410928E
:104070004D0410924E04D0935004C0934F041092FC
:10408000540410925F048EE190E0A0E0B0E08093D1
:10409000430490934404A0934504B093460483E4FE
:1040A00094E00E9497051092E1021092E2021092B1
:1040B000E3021092E4021092E5021092E6021092DE
:1040C000E7021092E8021092EA021092E9021092BE
:1040D000EB021092EC02D093EE02C093ED02DF915E
:1040E000CF91FF90EF90DF90CF90BF90AF909F90D7
:1040F0008F900895052E97FB1EF400940E94912046
:1041000057FD07D00E94A42007FC03D04EF40C9466
:10411000912050954095309521953F4F4F4F5F4FDF
:10412000089590958095709561957F4F8F4F9F4F23
:1041300008950E94C620A59F900DB49F900DA49F46
:10414000800D911D11240895A1E21A2EAA1BBB1BFC
:10415000FD010DC0AA1FBB1FEE1FFF1FA217B30753
:10416000E407F50720F0A21BB30BE40BF50B661F69
:10417000771F881F991F1A9469F76095709580952D
:1041800090959B01AC01BD01CF010895A29FB001A4
:10419000B39FC001A39F700D811D1124911DB29F7B
:1041A000700D811D1124911D08955058BB27AA2719
:1041B0000E94ED200C947F230E94462338F00E9439
:1041C0004D2320F039F49F3F19F426F40C94082372
:1041D0000EF4E095E7FB0C940223E92F0E94A42340
:1041E00058F3BA17620773078407950720F079F42C
:1041F000A6F50C94C6230EF4E0950B2EBA2FA02D35
:104200000B01B90190010C01CA01A0011124FF2783
:10421000591B99F0593F50F4503E68F11A16F0407E
:10422000A22F232F342F4427585FF3CF469537957D
:104230002795A795F0405395C9F77EF41F16BA0B42
:10424000620B730B840BBAF09150A1F0FF0FBB1FF0
:10425000661F771F881FC2F70EC0BA0F621F731F39
:10426000841F48F4879577956795B795F7959E3F96
:1042700008F0B0CF9395880F08F09927EE0F979527
:10428000879508959F939F77EEE389379E0728F4DB
:10429000ECE8F0E00E9432230CC00E94BE2290584D
:1042A000A2EA2AED3FE049EC5FE30E94ED200E9484
:1042B0007F230F9007FC905808950E94462360F0DA
:1042C00080E891E009F49EEF0E944D2328F040E839
:1042D00051E071F45EEF0CC00C9408230C94C623DB
:1042E000E92FE0780E94A42340F3092E052AB1F3B8
:1042F000261737074807590738F00E2E07F8E0252C
:1043000069F0E025E0640AC0EF6307F8009407FA5B
:10431000DB01B9019D01DC01CA01AD01EF930E94EF
:10432000F0210E947F230E94A0215F91552339F044
:104330002BED3FE049E450FD49EC0C94D620089564
:10434000DF93DD27B92FBF7740E85FE31616170626
:1043500048075B0718F4D92F0E94D2239F938F93AD
:104360007F936F930E949524E0EAF0E00E940B2374
:104370000E947F232F913F914F915F910E94ED23E7
:10438000DD2351F09058A2EA2AED3FE049EC5FE3CB
:10439000D0785D270E94ED20DF910C947F230E944E
:1043A000DE2208F481E008950E945623E3950C94E0
:1043B00090230E94ED210C947F230E944D2358F0FE
:1043C0000E94462340F029F45F3F29F00C94022319
:1043D00051110C94C7230C9408230E94A42368F362
:1043E0009923B1F3552391F3951B550BBB27AA27AE
:1043F00062177307840738F09F5F5F4F220F331FE8
:10440000441FAA1FA9F335D00E2E3AF0E0E832D0AF
:1044100091505040E695001CCAF72BD0FE2F29D0B2
:10442000660F771F881FBB1F261737074807AB0784
:10443000B0E809F0BB0B802DBF01FF2793585F4FF9
:104440003AF09E3F510578F00C9402230C94C72358
:104450005F3FE4F3983ED4F3869577956795B795DB
:10446000F7959F5FC9F7880F911D9695879597F9E6
:104470000895E1E0660F771F881FBB1F621773075F
:104480008407BA0720F0621B730B840BBA0BEE1F74
:1044900088F7E09508950E9452226894B1110C9417
:1044A000C72308950E94AC2388F09F5798F0B92F36
:1044B0009927B751B0F0E1F0660F771F881F991F59
:1044C0001AF0BA95C9F714C0B13091F00E94C62312
:1044D000B1E008950C94C623672F782F8827B85F22
:1044E00039F0B93FCCF3869577956795B395D9F7B1
:1044F0003EF490958095709561957F4F8F4F9F4FBB
:104500000895E89409C097FB3EF4909580957095C6
:1045100061957F4F8F4F9F4F9923A9F0F92F96E90F
:10452000BB279395F695879577956795B795F11184
:10453000F8CFFAF4BB0F11F460FF1BC06F5F7F4F21
:104540008F4F9F4F16C0882311F096E911C0772333
:1045500021F09EE8872F762F05C0662371F096E83C
:10456000862F70E060E02AF09A95660F771F881F0B
:10457000DAF7880F9695879597F90895DF93CF938B
:104580001F930F938B01EC01EDECF0E00E940B23E5
:104590000E947F239801AE018B01EC0160E070E086
:1045A00080E89FE30E94D5200E9455249801AE0127
:1045B0000F911F91CF91DF910C94ED23990F00087B
:1045C000550FAA0BE0E8FEEF16161706E807F907E5
:1045D000C0F012161306E407F50798F0621B730B80
:1045E000840B950B39F40A2661F0232B242B252B01
:1045F00021F408950A2609F4A140A6958FEF811DA4
:10460000811D089597F99F6780E870E060E0089544
:104610009FEF80EC0895DF93CF931F930F93FF924A
:10462000EF92DF927B018C01689406C0DA2EEF01D5
:104630000E94ED23FE01E894A591259135914591C5
:104640005591A6F3EF010E94ED20FE019701A8010C
:10465000DA9469F7DF90EF90FF900F911F91CF915F
:10466000DF9108959F938F937F936F93FF93EF93C1
:104670009B01AC010E94DA23EF91FF910E940B2372
:104680002F913F914F915F910C94DA2300240A946B
:104690001616170618060906089500240A9412161D
:1046A00013061406050608950C9408230E94AC23F3
:1046B000D8F3E894E0E0BB279F57F0F02AED3FE005
:1046C00049EC06C0EE0FBB0F661F771F881F28F04E
:1046D000B23A62077307840728F0B25A620B730B71
:1046E000840BE3959A9572F7803830F49A95BB0F56
:1046F000661F771F881FD2F790480C949B24092EC1
:104700000394000C11F4882352F0BB0F40F4BF2B2C
:1047100011F460FF04C06F5F7F4F8F4F9F4F08956C
:10472000EF93E0FF07C0A2EA2AED3FE049EC5FEB20
:104730000E94ED200E947F230F90039401FC90586B
:10474000E5EFF0E00C94322357FD9058440F551FCD
:1047500059F05F3F71F04795880F97FB991F61F003
:104760009F3F79F087950895121613061406551F7A
:10477000F2CF4695F1DF08C0161617061806991FE6
:10478000F1CF86957105610508940895E894BB27DB
:1047900066277727CB0197F908950E94DE2208F457
:1047A0008FEF08959B01AC0160E070E080E89FE32B
:1047B0000C94D9210E94ED230C947F230E94462360
:1047C00038F00E944D2320F0952311F00C94022321
:1047D0000C94082311240C94C7230E94A42370F383
:1047E000959FC1F3950F50E0551F629FF001729F96
:1047F000BB27F00DB11D639FAA27F00DB11DAA1FA5
:10480000649F6627B00DA11D661F829F2227B00DF1
:10481000A11D621F739FB00DA11D621F839FA00D7C
:10482000611D221F749F3327A00D611D231F849FCC
:10483000600D211D822F762F6A2F11249F57504023
:104840009AF0F1F088234AF0EE0FFF1FBB1F661F9E
:10485000771F881F91505040A9F79E3F510580F067
:104860000C9402230C94C7235F3FE4F3983ED4F3E7
:10487000869577956795B795F795E7959F5FC1F70B
:10488000FE2B880F911D9695879597F908959F9314
:104890000E9456230F9007FCEE5F0C94902319F4AE
:1048A00016F40C9408230C9499240E94AC23B8F3BA
:1048B0009923C9F3B6F39F57550B87FF0E94A7248E
:1048C0000024A0E640EA900180585695979528F478
:1048D000805C660F771F881F20F026173707480770
:1048E00030F4621B730B840B202931294A2BA695C7
:1048F00017940794202531254A2758F7660F771F0C
:10490000881F20F026173707480730F4620B730B17
:10491000840B200D311D411DA09581F7B901842F15
:104920009158880F9695879508959B01AC010C943A
:10493000DA239F3F31F0915020F487957795679562
:10494000B795880F911D9695879597F90895915081
:104950005040660F771F881FD2F70895DB018F93B1
:104960009F930E949920BF91AF91A29F800D911DAE
:10497000A39F900DB29F900D11240895991B79E08B
:1049800004C0991F961708F0961B881F7A95C9F7DF
:104990008095089597FB072E16F4009407D077FDB5
:1049A00009D00E94E72507FC05D03EF4909581953B
:1049B0009F4F0895709561957F4F0895EE0FFF1FEB
:1049C0000590F491E02D09940E94C620332312F43F
:1049D0008A1B9B0B0C94EE240E94C620B7FF0895FF
:1049E000821B930B0895DF93CF931F930F939A9D90
:1049F000F02D219FF00D8B9DF00D8A9DE02DF10D86
:104A0000039FF00D029FE00DF11D4E9DE00DF11D85
:104A10005E9DF00D4F9DF00D7F936F93BF92AF920F
:104A20005F934F93D5010E94C6208B01AC01D70143
:104A30000E94C620EB01E80FF91FD6010E94432512
:104A40002F913F91D6010E94C620C60FD71FE81FA5
:104A5000F91FAF91BF910E9443252F913F910E9472
:104A6000C620C60FD71FE81FF91FD6010E94C62017
:104A7000E60FF71F9801BE01CF0111240F911F917E
:104A8000CF91DF9108950E94C620460F571FC81F7F
:104A9000D91F08F43196089597FB57FF0C945C25B5
:104AA0009F938F930E945C256E1B7F0BAF91BF91EC
:104AB0008A0B9B0B0895E894DF93CF93FC01DB01F5
:104AC0000E94C6207F936F93E9019A01AC01BF93C6
:104AD000AF933F932F93DF010E94C62026F46C1BF7
:104AE0007D0B820B930B9E01EB01FC010E94432581
:104AF000AF91BF912F913F910E944325BE01CF01FD
:104B0000F9012F913F91CF91DF9108950F930830D4
:104B100090F0982F872F762F652F542F432F322F09
:104B200022270850F4CF220F331F441F551F661F42
:104B3000771F881F991F0A95B2F70F91089597FB69
:104B400010F8169400080F93083098F00850232F9F
:104B5000342F452F562F672F782F892F902DF4CF84
:104B600005949795879577956795579547953795C8
:104B700027950A95AAF70F9108952A0D3B1D4C1D04
:104B80005D1D6E1D7F1D801F911F08950024A7FDD0
:104B900000942A0F301D401D501D601D701D801D8A
:104BA000901D08952A193B094C095D096E097F097A
:104BB000800B910B08950024A7FD00942A1730055F
:104BC0004005500560057005800590050895AA1BF5
:104BD000BB1B51E107C0AA1FBB1FA617B70710F0E8
:104BE000A61BB70B881F991F5A95A9F7809590951A
:104BF000BC01CD01089581E090E0F8940C9400266A
:044C0000F894FFCF56
:104C04000000F041000048420000B4420000F041BE
:104C14000000A0420000C8425E00BC007701000012
:104C240000008501F2001C01D2014D012B013F015E
:104C3400000000008B025E02BB02320256024202F6
:024C4400330239
:107E0000112484B714BE81FFF0D085E080938100F7
:107E100082E08093C00088E18093C10086E0809377
:107E2000C20080E18093C4008EE0C9D0259A86E02C
:107E300020E33CEF91E0309385002093840096BBD3
:107E4000B09BFECF1D9AA8958150A9F7CC24DD24C4
:107E500088248394B5E0AB2EA1E19A2EF3E0BF2EE7
:107E6000A2D0813461F49FD0082FAFD0023811F036
:107E7000013811F484E001C083E08DD089C08234E0
:107E800011F484E103C0853419F485E0A6D080C0E4
:107E9000853579F488D0E82EFF2485D0082F10E0AE
:107EA000102F00270E291F29000F111F8ED06801E7
:107EB0006FC0863521F484E090D080E0DECF843638
:107EC00009F040C070D06FD0082F6DD080E0C81688
:107ED00080E7D80618F4F601B7BEE895C0E0D1E017
:107EE00062D089930C17E1F7F0E0CF16F0E7DF06D8
:107EF00018F0F601B7BEE89568D007B600FCFDCFD4
:107F0000A601A0E0B1E02C9130E011968C91119780
:107F100090E0982F8827822B932B1296FA010C0160
:107F200087BEE89511244E5F5F4FF1E0A038BF0790
:107F300051F7F601A7BEE89507B600FCFDCF97BE46
:107F4000E89526C08437B1F42ED02DD0F82E2BD052
:107F50003CD0F601EF2C8F010F5F1F4F84911BD097
:107F6000EA94F801C1F70894C11CD11CFA94CF0C13
:107F7000D11C0EC0853739F428D08EE10CD085E9AC
:107F80000AD08FE07ACF813511F488E018D01DD067
:107F900080E101D065CF982F8091C00085FFFCCF94
:107FA0009093C60008958091C00087FFFCCF809118
:107FB000C00084FD01C0A8958091C6000895E0E648
:107FC000F0E098E1908380830895EDDF803219F02E
:107FD00088E0F5DFFFCF84E1DECF1F93182FE3DFCA
:107FE0001150E9F7F2DF1F91089580E0E8DFEE27F6
:047FF000FF270994CA
:027FFE00040479
:0400000300007E007B
:00000001FF
