:100000000C94B2000C94DA000C94DA000C94DA0030
:100010000C94DA000C94DA000C94DA000C94AB0621
:100020000C94DA000C94DA000C94DA000C9460055D
:100030000C94DA000C94DA000C94DA000C94DA00D8
:100040000C94720E0C9436080C9430030C940A0332
:100050000C94DA000C94DA000C94DA000C94DA00B8
:100060000C9462030C94DA00BB08C808D108E308BA
:10007000F808F808F808F808EF08EC08F208F8089B
:10008000F808F8089608D608E308036EDB363D9AB0
:100090009999993DABAAAA2A3E000000803F084AE0
:1000A000D73B3BCE016E84BCBFFDC12F3D6C74318C
:1000B0009ABD56833DDA3D00C77F11BED9E4BB4CE3
:1000C0003E916BAAAABE000000803F072C7AA5BA19
:1000D0006CC590DA3B9365FC8BBC53F810FD3C5625
:1000E00092834DBD879D3AB63DCBC9BF5BBE73DAE7
:1000F0000FC93F05A84CCDB2D44EB93836A9020C71
:1001000050B9918688083CA6AAAA2ABE00000080A1
:100110003F00000000080002010000030407000087
:1001200000000000000000000000250028002B0057
:1001300000000000240027002A0004040404040432
:100140000404020202020202030303030303010286
:100150000408102040800102040810200102040855
:100160001020A81911241FBECFEFD8E0DEBFCDBFED
:1001700011E0A0E0B1E0EAEBF5E402C005900D92D9
:10018000A234B107D9F724E0A2E4B1E001C01D9286
:10019000A43CB207E1F710E0C2EBD0E004C0219725
:1001A000FE010E94C11FC13BD107C9F70E94BC0ECE
:1001B0000C94DB220C940000CF92DF92EF92FF921E
:1001C0000F931F93CF93DF936C017A018B01C0E0F3
:1001D000D0E0CE15DF0581F0D8016D918D01D601FB
:1001E000ED91FC910190F081E02DC6010995892BDC
:1001F00011F02196EECF7E01C701DF91CF911F91C3
:100200000F91FF90EF90DF90CF900895FC01538DF8
:10021000448D252F30E0842F90E0821B930B5417E0
:1002200010F0CF96089501970895FC01918D828D6D
:10023000981761F0828DDF01A80FB11D5D968C913A
:10024000928D9F5F9F73928F90E008958FEF9FEF45
:100250000895FC01918D828D981731F0828DE80F01
:10026000F11D858D90E008958FEF9FEF0895FC01BB
:10027000918D228D892F90E0805C9F4F821B910988
:100280008F739927089585E492E00E94370121E059
:10029000892B09F420E0822F0895FC01848DDF0171
:1002A000A80FB11DA35ABF4F2C91848D90E00196E9
:1002B0008F739927848FA689B7892C93A089B189D8
:1002C0008C91837080648C93938D848D981306C079
:1002D0000288F389E02D80818F7D80830895EF92DD
:1002E000FF920F931F93CF93DF93EC0181E0888FF0
:1002F0009B8D8C8D981305C0E889F989808185FDD7
:1003000026C0F62E0B8D10E00F5F1F4F0F731127C5
:10031000E02E8C8DE8120CC00FB607FCFACFE889EE
:10032000F989808185FFF5CFCE010E944D01F1CF83
:100330008B8DFE01E80FF11DE35AFF4FF0829FB74E
:10034000F8940B8FEA89FB89808180620AC09FB78D
:10035000F894EE89FF896083E889F9898081837048
:10036000806480839FBF81E090E0DF91CF911F91F7
:100370000F91FF90EF900895CF93DF93EC01888D5C
:100380008823C9F0EA89FB89808185FD05C0A88999
:10039000B9898C9186FD0FC00FB607FCF5CF80811F
:1003A00085FFF2CFA889B9898C9185FFEDCFCE0169
:1003B0000E944D01E7CFDF91CF91089580E090E05A
:1003C000892B29F00E94430181110C9400000895AB
:1003D00085ED8093BC008091BC0084FDFCCF109221
:1003E0001102089540918301262F30E0240F311D22
:1003F00021323105DCF4209111022430C9F4FC01D2
:1004000080E090E0861758F4309183012191DC015F
:10041000AD59BE4FA30FB11D2C930196F3CF809120
:100420008301680F6093830180E0089581E008955F
:1004300082E00895089508950895E091A7018091BC
:10044000A601E81730F4F0E0E553FE4F808190E01C
:1004500008958FEF9FEF08959091A7018091A601D5
:10046000981750F4E92FF0E0E553FE4F208130E07B
:100470009F5F9093A70102C02FEF3FEFC90108953E
:100480008091A60190E02091A701821B9109089517
:10049000CF92DF92EF92FF920F931F93CF93DF9350
:1004A0007C01CB018A012091A801222389F0EB0174
:1004B0006B01C40ED51ECC15DD0569F06991D7011D
:1004C000ED91FC910190F081E02DC7010995F3CFEA
:1004D000642F0E94F201C801DF91CF911F910F910B
:1004E000FF90EF90DF90CF900895CF93DF931F920E
:1004F000CDB7DEB769832091A8012223D1F02091E6
:10050000CA01203240F021E030E0FC013383228335
:1005100080E090E015C08091A901E82FF0E0E65559
:10052000FE4F998190838F5F8093A9018093CA01C8
:1005300005C061E0CE0101960E94F20181E090E0E9
:100540000F90DF91CF910895089580E090E0089595
:10055000FC0190819C3088F5818128E830E0281BDF
:10056000310987FD3395220F331F220F331F621786
:10057000730784F0828148E552E0481B510987FDEA
:100580005395440F551F440F551F9B01461757079E
:100590000CF49A0122503109220F331F4FB7F894FF
:1005A000892F90E0FC01EE0FFF1F8E0F9F1FFC01B3
:1005B000EE5EFD4F328321834FBF08950E94D62205
:1005C0000F931F93CF93DF938C01C0915F01D09164
:1005D0006001209749F484E090E00E94B521909357
:1005E000600180935F010CC08A819B81009711F0AC
:1005F000EC01FACF84E090E00E94B5219B838A83CE
:10060000FC011183008313821282DF91CF911F912D
:100610000F9108951F920F920FB60F9211242F93EE
:100620003F934F935F936F937F938F939F93AF937A
:10063000BF93EF93FF9385E492E00E944D01FF91F9
:10064000EF91BF91AF919F918F917F916F915F914A
:100650004F913F912F910F900FBE0F901F901895C3
:100660001F920F920FB60F9211242F938F939F9387
:10067000EF93FF93E0915502F09156028081E09153
:100680005B02F0915C0282FD12C0908180915E025B
:100690008F5F8F7320915F02821751F0E0915E02AD
:1006A000F0E0EB5BFD4F958F80935E0201C080818F
:1006B000FF91EF919F918F912F910F900FBE0F900F
:1006C0001F9018951F920F920FB60F9211242F931F
:1006D0003F934F935F936F937F938F939F93AF93CA
:1006E000BF93EF93FF938091B900887F803609F420
:1006F0009CC068F5883209F45BC090F4803109F43D
:1007000054C038F4882309F4F6C0883009F44DC089
:10071000F6C0883109F44CC0803209F45DC0EFC0E6
:10072000803409F468C048F4803309F455C0883334
:1007300009F0E5C080930F02D8C0803509F44FC09E
:10074000883509F45DC0883409F0D9C0D6C088392D
:1007500009F4C7C0A8F4883709F467C038F48836AC
:1007600009F463C0803709F460C0C9C0883809F44F
:10077000B8C0803909F45FC0803809F0C0C05BC0E0
:10078000803B09F486C038F4803A09F466C0883AA0
:1007900009F47FC0B4C0803C09F4A7C0883C09F4C8
:1007A000A4C0883B09F48AC0AAC080910C0210C082
:1007B00090910E0280910D02981770F5E0910E0253
:1007C00081E08E0F80930E02F0E0E551FE4F8081B4
:1007D0008093BB0085EC86C080930F028EC0E091B1
:1007E0000E0281E08E0F80930E028091BB00F0E03C
:1007F000E551FE4F808390910E0280910D026EC0F4
:10080000E0910E0281E08E0F80930E028091BB007A
:10081000F0E0E551FE4F80838091100281116DC0A0
:1008200081E080930B0284EA61C083E0809311022F
:100830001092A501CFCF8091A501803208F051C060
:10084000E091A50181E08E0F8093A5018091BB000E
:10085000F0E0EB57FE4F8083BDCF85EC8093BC006A
:10086000109211028091A501803230F4E091A5012F
:10087000F0E0EB57FE4F10826091A50170E0E0912F
:100880004201F091430185E891E009951092A5019C
:1008900036C084E08093110210928401109283018B
:1008A000E0914401F0914501099580918301811106
:1008B00005C081E08093830110926301E09184017F
:1008C00081E08E0F80938401F0E0ED59FE4F80812E
:1008D0008093BB009091840180918301981708F464
:1008E00079CF85E88093BC000AC085EC8093BC007A
:1008F0001092110204C010920F020E94E801FF91B1
:10090000EF91BF91AF919F918F917F916F915F9187
:100910004F913F912F910F900FBE0F901F90189500
:100920004F925F926F927F928F929F92AF92BF92FF
:10093000CF92DF92EF92FF92CF93DF9300D000D05F
:1009400000D0CDB7DEB79E838D836A017B0120E0A6
:1009500030E0A901C701B6010E94B21C87FF04C0A4
:10096000C701B601905802C0C701B601ED81FE81F2
:1009700020893189428953890E94B01EED81FE8110
:1009800018160CF055C02081318142815381C70176
:10099000B6010E94BD1E2B013C01ED81FE818484C5
:1009A0009584A684B784208D318D428D538DC701E7
:1009B000B6010E94B81BA50194010E94BC1CED81E8
:1009C000FE8120853185428553850E94BD1E698345
:1009D0007A838B839C83A5019401C701B6010E9491
:1009E000BD1EED81FE81248D358D468D578D0E9473
:1009F000B91BED81FE81648F758F868F978F24815F
:100A00003581468157810E94BD1E4B015C012981C1
:100A10003A814B815C81C301B2010E94B91B9B01E9
:100A2000AC01C501B4010E94B91B4B015C0108C0B7
:100A3000148E158E168E178E812C912CA12CB12C14
:100A4000ED81FE81C08ED18EE28EF38EC488D58872
:100A5000E688F78820E030E0A901C701B6010E94CE
:100A6000B01E1816B4F4A7019601B401C5010E9486
:100A7000B01E181664F0F7FAF094F7F8F094A70196
:100A80009601B401C5010E94B21C87FF02C0460155
:100A90005701B401C50126960FB6F894DEBF0FBE0C
:100AA000CDBFDF91CF91FF90EF90DF90CF90BF90BF
:100AB000AF909F908F907F906F905F904F90089530
:100AC0001F920F920FB60F9211242F933F934F93C3
:100AD0005F936F937F938F939F93AF93BF93EF93A6
:100AE000FF938091620187FF05C0109285001092EC
:100AF00084001BC020916201022E000C330B8091F8
:100B0000360290E02817390784F480916201082E9C
:100B1000000C990BFC01EE0FFF1F8E0F9F1FFC01B5
:100B2000EE5EFD4F808186FD15C0809162018F5F72
:100B30008093620120916201022E000C330B8091A0
:100B4000360290E028173907C4F4809162018C3096
:100B500064F113C080916201082E000C990BFC0116
:100B6000EE0FFF1F8E0F9F1FFC01EE5EFD4F808179
:100B700060E08F730E94C60DD8CF80918400909161
:100B80008500049680349C4918F480E49CE905C0F3
:100B900080918400909185000496909389008093C1
:100BA00088008FEF809362013BC0209184003091D8
:100BB000850080916201082E000C990BFC01EE0F5C
:100BC000FF1F8E0F9F1FFC01EE5EFD4F8181928102
:100BD000820F931F90938900809388008091620117
:100BE000082E000C990BFC01EE0FFF1F8E0F9F1FAC
:100BF000FC01EE5EFD4F808186FF12C08091620194
:100C0000082E000C990BFC01EE0FFF1F8E0F9F1F8B
:100C1000FC01EE5EFD4F808161E08F730E94C60D86
:100C2000FF91EF91BF91AF919F918F917F916F91C4
:100C30005F914F913F912F910F900FBE0F901F909A
:100C40001895FF920F931F93CF93DF93EC01809140
:100C5000610181111DC0F8941092B0001092B10092
:100C60001092B2008FEF8093B3008091B100886042
:100C70008093B1008091B10085608093B100809134
:100C800070008D7F80937000789481E08093610183
:100C90006D877E878E01085F1F4F88858C3008F036
:100CA00050C0F62E862F0E94600A8885E82FF0E05B
:100CB0009F01220F331FE20FF31FEE5EFD4F6F2DDA
:100CC0006F739081907CF92EF62AF08219861A862D
:100CD0006CE00E94A11F9CE0899FB001112440E0BC
:100CE00050E09B01240F351FF901EE0FFF1F2E0F5F
:100CF0003F1FF901EE5EFD4F908196FD16C04F5FDC
:100D00005F4F4C30510569F781110FC01092800080
:100D100082E0809381001092850010928400B19A45
:100D200080916F00826080936F00E885F0E0CF01D2
:100D3000880F991FE80FF91FEE5EFD4F80818064D8
:100D400080836CED75E0C801DF91CF911F910F9109
:100D5000FF900C94A8021F920F920FB60F921124CD
:100D60000F931F932F933F934F935F936F937F93B3
:100D70008F939F93AF93BF93CF93DF93EF93FF93A3
:100D800000915F01109160010115110509F461C026
:100D9000D801ED91FC91EE0FFF1FE95CFD4FC08182
:100DA000D181888199812A813B81821B930B1816FE
:100DB00019062CF4888199812A813B8104C08A819B
:100DC0009B8128813981821B930B2C813D812817BF
:100DD00039071CF08A819B811BC0288139818A8157
:100DE0009B81281739073CF42C813D8188819981AA
:100DF000820F931F0DC0288139818A819B818217C0
:100E0000930744F42C813D8188819981821B930B47
:100E10009983888368817981CE0108960E94A8020F
:100E2000288139818A819B812817390729F0F801A7
:100E3000808191810E94E002D80112968D919C914F
:100E400013979093600180935F01C8010E944D2227
:100E500004C08091700010927000FF91EF91DF91BB
:100E6000CF91BF91AF919F918F917F916F915F9142
:100E70004F913F912F911F910F910F900FBE0F90A7
:100E80001F9018950F931F93CF93DF93EC014D891B
:100E90005E89461757072CF48F8598899B838A8330
:100EA00020C0EB89FC8909891A896E177F071CF419
:100EB0001B830A8316C09B012E1B3F0BAF85B8898D
:100EC000A01BB10B0E94C71F9A012E1B3F0B032EC4
:100ED000000C440B550B0E945D1B200F311F3B8300
:100EE0002A832B853C858A819B81820F931F9B835C
:100EF0008A83288139818A819B812817390749F0A3
:100F00008E819F810E94E0028091700082608093B8
:100F10007000DF91CF911F910F9108950F931F9350
:100F2000CF93DF93EC014D895E89461757072CF468
:100F3000898D9A8D9C878B8720C0EB89FC890F89CE
:100F4000188D6E177F071CF41C870B8716C09B013A
:100F50002E1B3F0BA98DBA8DA01BB10B0E94C71F82
:100F60009A012E1B3F0B032E000C440B550B0E94C5
:100F70005D1B200F311F3C872B87DF91CF911F9185
:100F80000F9108956536710514F064E670E077FFFF
:100F900002C060E070E0660F771F660F771F2CEDD0
:100FA00035E0261B370BFC01328B218B64527A4FC4
:100FB000708B678708958F929F92AF92BF92EF9246
:100FC000FF920F931F93CF93DF93EC017B018B0173
:100FD000000F111F000F111F0C0F1D1FF801668558
:100FE0007785808991890E942E1D4B015C01CE017D
:100FF0008E5A9F4F0E94C207B401CE01C7960E942D
:10100000C207B401CE0188579F4F0E94C207B401A6
:10101000CE0183599F4F0E94C207F801628D738DE4
:10102000848D958D0E942E1D4B015C01CE018D5546
:101030009F4F0E94C207B401CE0182549F4F0E946D
:10104000C207B401CE0187529F4F0E94C207C35A04
:10105000DE4FF982E882DF91CF911F910F91FF90CF
:10106000EF90BF90AF909F908F9008951F920F9236
:101070000FB60F921124CF92DF92EF92FF920F934F
:101080001F932F933F934F935F936F937F938F9310
:101090009F93AF93BF93CF93DF93EF93FF938EB55F
:1010A00080935E0180915D01882349F08FEF8EBDB2
:1010B00010925D0110925C0110925B0118C0E091EA
:1010C0005B01F0915C01EA5BFE4F80818EBD8091F7
:1010D0005B0190915C018430910521F481E0809363
:1010E0005D0105C0019690935C0180935B01E091E6
:1010F0005E01E11104C081E080935A015EC1EF3FBF
:1011000021F481E08093590158C180915A018823CC
:1011100009F471C08E2F90E0FC013497E131F105A4
:1011200008F066C0EC5CFF4F0C94C11F8091500426
:10113000882379F010922303109222031092250342
:101140001092240310922703109226031092500449
:101150004FC060914B0170914C0180914D01909175
:101160004E010E942E1D21E02093500470932A030B
:10117000609329033DC08DEC9CECACE4BFE380930D
:10118000550490935604A0935704B093580430C06C
:10119000109255041092560410925704109258045D
:1011A00027C08AE999E9A9E1BFE304C080E090E0A3
:1011B000A0E8BFE38093510490935204A09353049A
:1011C000B093540415C0109251041092520410921E
:1011D0005304109254040CC062E070E005C061E05A
:1011E00070E002C060E070E08CEF92E00E94DB07EC
:1011F00010925A01DEC080915901882309F4DDC0A4
:10120000C0915701D0915801C130D10509F449C0AE
:10121000C230D10509F485C0209709F0C1C0F0E0C3
:101220008F010F571109B801012E000C880B990B83
:101230000E94661D6B017C0160912B0370912C0351
:1012400080912D0390912E03A70196010E94B01E5C
:1012500018164CF460912B0370912C0380912D0390
:1012600090912E0316C060912F03709130038091EE
:10127000310390913203A70196010E94B21C87FFAF
:101280000BC060912F0370913003809131039091D6
:1012900032030E942E1D8B0110932303009322031F
:1012A0007FC0F0E08F010F571109B801012E000C2B
:1012B000880B990B0E94661D6B017C0120912B030A
:1012C00030912C0340912D0350912E030E94B21CAB
:1012D00087FF09C060912B0370912C0380912D032F
:1012E00090912E0316C020912F033091300340912E
:1012F000310350913203C701B6010E94B01E181687
:101300005CF460912F0370913003809131039091D0
:1013100032030E942E1D8B0110932503009324039A
:101320003FC0F0E08F010F571109B801012E000CEA
:10133000880B990B0E94661D6B017C0120912B0389
:1013400030912C0340912D0350912E030E94B21C2A
:1013500087FF09C060912B0370912C0380912D03AE
:1013600090912E0316C020912F03309130034091AD
:10137000310350913203C701B6010E94B01E181606
:101380005CF460912F037091300380913103909150
:1013900032030E942E1D8B01109327030093260316
:1013A0002196D0935801C0935701239734F010929F
:1013B00059011092580110925701FF91EF91DF915E
:1013C000CF91BF91AF919F918F917F916F915F91DD
:1013D0004F913F912F911F910F91FF90EF90DF90D0
:1013E000CF900F900FBE0F901F901895CF93DF9363
:1013F000EC01809136028C3098F491E0980F909334
:101400003602888790E0FC01EE0FFF1F8E0F9F1FB2
:10141000FC01EE5EFD4F88EB9BE09283818302C06E
:101420008FEF88877C8B6B8B5E8B4D8BC901203156
:10143000310514F08FE090E097FF02C080E090E06B
:10144000880F991F880F991F22273327281B390BD4
:10145000388F2F8B9A8F898F1C861B866EE170E0E8
:10146000CE010E94C2078F85988929893A89821BFB
:10147000930B64E670E00E94AD1F7D836C838CED5E
:1014800095E099838883888199819B838A838FEFF4
:101490009FEF9E878D878091B5049091B6049F83BE
:1014A0008E83FC01EE0FFF1FE95CFD4FD183C083EB
:1014B00001969093B6048093B504DF91CF9108957F
:1014C00090E0FC01E25BFE4F2491FC01E65CFE4FE4
:1014D0008491882399F090E0880F991FFC01E05DCA
:1014E000FE4FA591B491FC01EA5DFE4F8591949168
:1014F0008FB7F894EC91E22BEC938FBF0895909105
:1015000011029111FCCF91E09093110240931002CF
:101510002FEF20930F0210920E02260F20930D0240
:1015200090930C0290910C02880F892B80930C02EF
:1015300080910B02813061F410920B0280910C02B9
:101540008093BB008091BC0083FDF8CF85EC01C087
:1015500085EE8093BC00809111028130E1F380918F
:101560000E02861710F460910E02ABEEB1E0EBECC8
:10157000F1E080E0861721F09D9191938F5FFACF83
:101580000895282F3091CA01313208F04AC0809165
:1015900011028111FCCF9091B40442E040931102FA
:1015A000209310022FEF20930F0210920E0230931F
:1015B0000D02EAEAF1E0ABEEB1E020E0321721F0F3
:1015C00041914D932F5FFACF10920C0220910C02A3
:1015D000990F922B90930C0290910B02913061F431
:1015E00010920B0290910C029093BB009091BC0062
:1015F00093FDF8CF95EC01C095EE9093BC009091CF
:1016000011029230E1F390910F029F3F79F08091A7
:101610000F02803241F080910F02803331F084E07C
:1016200005C081E003C082E001C083E01092A901FF
:101630001092CA011092A801089591E09093A80118
:101640008093B4041092A9011092CA0108958132C6
:1016500008F080E241E0682F86E70E947F0A10923E
:10166000A7018093A601089581E00C94C10A682F18
:1016700082EE92E00C9475024F925F926F927F928D
:101680008F929F92AF92BF92CF92DF92EF92FF9292
:10169000CF93DF93CDB7DEB7A4970FB6F894DEBF34
:1016A0000FBECDBFC090AB04D090AC04E090AD04B1
:1016B000F090AE0480919B0490919C04A0919D04B5
:1016C000B0919E04BC01CD019058A70196010E94E3
:1016D000BD1E2B013C0180919F049091A004A0911C
:1016E000A104B091A204BC01CD019058A7019601BC
:1016F0000E94BD1E4B015C012091A3043091A40403
:101700004091A5045091A604C701B6010E94BD1ED8
:101710006B017C01C301B2010E94B71C6D837E8303
:101720008F839887C501B4010E94B71C69877A87A7
:101730008B879C87C701B6010E94B71C6D877E8787
:101740008F87988B8091870490918804A091890459
:10175000B0918A04898B9A8BAB8BBC8BBC01CD0179
:101760000E94B71C6D8B7E8B8F8B988F809183042A
:1017700090918404A0918504B0918604898F9A8FFA
:10178000AB8FBC8FBC01CD010E94B71C69837A83EB
:101790008B839C83C301B2010E942A1F6D8F7E8FB1
:1017A0008F8F98A3C501B4010E942A1F69A37AA351
:1017B0008BA39CA3C701B6010E942A1F2B013C01E9
:1017C00069897A898B899C890E942A1F698B7A8B07
:1017D0008B8B9C8B698D7A8D8B8D9C8D0E942A1FA3
:1017E0006B017C0129813A814B815C816D857E850D
:1017F0008F8598890E94BD1E29893A894B895C8909
:101800000E94BD1E4B015C01A7019601C301B201FC
:101810000E94BD1E9B01AC01C501B4010E94B91B11
:101820004B015C01A70196016D857E858F859889A6
:101830000E94BD1E6B017C01A301920169817A8126
:101840008B819C810E94BD1E29893A894B895C89C4
:101850000E94BD1E9B01AC01C701B6010E94B81BCE
:101860006D877E878F87988B9B01AC0169A17AA1D8
:101870008BA19CA10E94BD1E6B017C0129813A8134
:101880004B815C8169857A858B859C850E94BD1E14
:101890002D893E894F89588D0E94BD1E9B01AC0148
:1018A000C701B6010E94B81B2B013C016D8D7E8DD6
:1018B0008F8D98A19058A50194010E94BD1E6B01C7
:1018C0007C01A30192016D817E818F8198850E94A8
:1018D000BD1E9B01AC01C701B6010E94B81B6B0184
:1018E0007C01A50194016D817E818F8198850E9484
:1018F000BD1E4B015C01A30192016D8D7E8D8F8D0C
:1019000098A10E94BD1E9B01AC01C501B4010E94BB
:10191000B81B4B015C01A70196010E94531C6D830B
:101920007E838F8398876093870470938804809365
:10193000890490938A04A5019401C501B4010E9411
:10194000BD1E4B015C01A7019601C701B6010E94B3
:10195000BD1E9B01AC01C501B4010E94B91B6B0106
:101960007C0120E030E0A9010E94B01E181624F08E
:10197000F7FAF094F7F8F094C701B6010E94381F07
:101980006B017C0129813A814B815C816D897E8963
:101990008F89988D0E94BD1E29A13AA14BA15CA1FF
:1019A0000E94BD1E4B015C012D853E854F855889E7
:1019B00069857A858B859C850E94BD1E9B01AC0143
:1019C000C501B4010E94B91BA70196010E94531CD6
:1019D00069877A878B879C876093830470938404DC
:1019E000809385049093860480918F049091900455
:1019F000A0919104B091920489839A83AB83BC83B4
:101A000040909304509094046090950470909604D4
:101A10008090970490909804A0909904B0909A04B4
:101A20009C01AD01BC01CD010E94BD1E6B017C017A
:101A3000A3019201C301B2010E94BD1E9B01AC0132
:101A4000C701B6010E94B91B6B017C01A50194017D
:101A5000C501B4010E94BD1E9B01AC01C701B601C6
:101A60000E94B91B6B017C0120E030E0A9010E94BB
:101A7000B01E181624F0F7FAF094F7F8F094C701A6
:101A8000B6010E94381F6B017C0126E636E646E669
:101A90005FE30E94B01E18160CF063C02DEC3CEC06
:101AA0004CE85FE3C701B6010E94B21C87FF59C032
:101AB000A5019401C301B2010E94531C2B013C01FA
:101AC00069817A818B819C819058A70196010E943F
:101AD000BC1C0E94251C6B017C012DEC3CEC4CE4F1
:101AE0005FE36D817E818F8198850E94BD1E4B01D1
:101AF0005C012DEC3CEC4CE45EE3C301B2010E94BE
:101B0000BD1E9B01AC01C501B4010E94B91B6093CD
:101B10008704709388048093890490938A042DEC41
:101B20003CEC4CE45FE369857A858B859C850E945B
:101B3000BD1E4B015C012DEC3CEC4CE45EE3C701A7
:101B4000B6010E94BD1E9B01AC01C501B4010E94FB
:101B5000B91B6093830470938404809385049093ED
:101B60008604A4960FB6F894DEBF0FBECDBFDF91FA
:101B7000CF91FF90EF90DF90CF90BF90AF909F906C
:101B80008F907F906F905F904F90089590E0FC0150
:101B9000EE5EFE4F2491FC01E25BFE4F3491FC01AE
:101BA000E65CFE4FE491EE2309F43CC0222339F1B8
:101BB000233091F038F42130A9F0223001F584B5BA
:101BC0008F7D12C0273091F02830A1F02430B9F475
:101BD000809180008F7D03C0809180008F778093FB
:101BE00080000DC084B58F7784BD09C08091B0009E
:101BF0008F7703C08091B0008F7D8093B000F0E0BC
:101C0000EE0FFF1FEA5DFE4FA591B4919FB7F894C8
:101C1000611104C08C913095382302C0EC913E2BA9
:101C20003C939FBF08958F929F92AF92BF92CF92A5
:101C3000DF92EF92FF926B017C010E944D0E4B01EF
:101C40005C01C114D104E104F104F1F00E944D0ED5
:101C5000DC01CB0188199909AA09BB09883E934088
:101C6000A105B10570F321E0C21AD108E108F1081D
:101C700088EE880E83E0981EA11CB11CC114D1040B
:101C8000E104F10419F7DDCFFF90EF90DF90CF90E2
:101C9000BF90AF909F908F9008953FB7F894809138
:101CA000BC049091BD04A091BE04B091BF0426B5C0
:101CB000A89B05C02F3F19F00196A11DB11D3FBF84
:101CC000BA2FA92F982F8827820F911DA11DB11D12
:101CD000BC01CD0142E0660F771F881F991F4A950E
:101CE000D1F708951F920F920FB60F9211242F93E0
:101CF0003F938F939F93AF93BF938091B70490913D
:101D0000B804A091B904B091BA043091BB0423E0A7
:101D1000230F2D3720F40196A11DB11D05C026E823
:101D2000230F0296A11DB11D2093BB048093B7041D
:101D30009093B804A093B904B093BA048091BC0402
:101D40009091BD04A091BE04B091BF040196A11D65
:101D5000B11D8093BC049093BD04A093BE04B093C6
:101D6000BF04BF91AF919F918F913F912F910F90A1
:101D70000FBE0F901F901895CF93DF93CDB7DEB7AE
:101D8000E3970FB6F894DEBF0FBECDBF789484B54D
:101D9000826084BD84B5816084BD85B5826085BD67
:101DA00085B5816085BD80916E00816080936E00F5
:101DB00010928100809181008260809381008091E7
:101DC0008100816080938100809180008160809398
:101DD00080008091B10084608093B1008091B00058
:101DE00081608093B00080917A00846080937A0053
:101DF00080917A00826080937A0080917A0081607D
:101E000080937A0080917A00806880937A001092A3
:101E1000C100E0915502F091560282E08083E0918A
:101E20005102F09152021082E0915302F09154025B
:101E30008FEC808310925D02E0915902F0915A027A
:101E400086E08083E0915702F091580280818061A2
:101E50008083E0915702F0915802808188608083EE
:101E6000E0915702F0915802808180688083E09170
:101E70005702F091580280818F7D80831092A701D4
:101E80001092A6011092A9011092CA01109211029B
:101E9000EE24E394E092100210920B0261E082E1E2
:101EA0000E94C60D61E083E10E94C60D8091B900D9
:101EB0008E7F8093B9008091B9008D7F8093B900A7
:101EC00088E48093B80085E48093BC008AE192E0C6
:101ED00090934501809344018BE192E090934301FC
:101EE0008093420188E60E941D0B8BE690E00E94E1
:101EF000370B80E090E00E94370B81E00E94C10A1E
:101F000068EE73E080E090E00E94130EE0927E04A1
:101F100080E090E4A9E7B4E480937F049093800488
:101F2000A0938104B093820486E70E941D0B8EE18A
:101F300090E00E94370B0E94340B6AE070E080E072
:101F400090E00E94130E1EE5E12E14E0F12E20EA2F
:101F500030E03A83298386E70E941D0B89819A81AC
:101F60000E94370B0E94340B41E062E086E70E943A
:101F70007F0A1092A7018093A60182EE92E00E9450
:101F80002C02D82E82EE92E00E942C021D2D00E041
:101F9000802B912BD7018D939D937D01E981FA814F
:101FA0003296FA83E983EE3AF105A9F680915E0450
:101FB00090915F049F7090935F0480935E041092F1
:101FC0006D0410926C0468EE73E080E090E00E9473
:101FD000130E68E070E08FE993E00E94210667E04D
:101FE00070E08AEB93E00E94210664E070E085EDEA
:101FF00093E00E94210665E070E08EE493E00E9489
:10200000210666E070E083E393E00E94210663E02E
:1020100070E084E893E00E94210662E070E089E6C7
:1020200093E00E9421061092230310922203109243
:102030002503109224031092270310922603109276
:1020400050041092280360E070E08CEF92E00E9450
:10205000DB0781E080935B0468EB7BE080E090E04D
:102060000E94130EF8948CE00E94600A8CB5806484
:102070008CBD8FEF8EBD8CB580688CBD78948CE064
:1020800090E0A0E0B0E08093EE029093EF02A09386
:10209000F002B093F1022FB7F8948091B7049091B9
:1020A000B804A091B904B091BA042FBF8093F20292
:1020B0009093F302A093F402B093F5021092FB0206
:1020C0001092FA021092F8021092F9028091FA022C
:1020D0009091FB02892B31F52FB7F8948091B704CA
:1020E0009091B804A091B904B091BA042FBF409167
:1020F000F2025091F3026091F4027091F502841B98
:10210000950BA60BB70B4091EE025091EF02609138
:10211000F0027091F10284179507A607B70710F037
:102120000C9463198091FA029091FB02019711F0CF
:102130000C945F192FB7F8948091B7049091B8046C
:10214000A091B904B091BA042FBF8093F20290938A
:10215000F302A093F402B093F5021092FB021092E6
:10216000FA021092F8021092F902F1E4F0937C0066
:1021700080917A00806480937A0080917A0086FD55
:10218000FCCF609178008091790070E0782B072E69
:10219000000C880B990B0E94661D2AEA31EF42E081
:1021A00050E40E94BC1C60935301709354018093CF
:1021B0005501909356010E944D0E00914F011091D0
:1021C00050012091510130915201DC01CB01801B63
:1021D000910BA20BB30B81329E44A105B10560F0B7
:1021E0000E944D0E60934F017093500180935101F6
:1021F0009093520181E001C080E020915C04309115
:102200005D04232BA9F4882399F086E70E941D0B17
:102210008AE490E00E94370B0E94340B80915C04AA
:1022200090915D04019690935D0480935C0480E03E
:1022300020915C0430915D042130310509F06BC0C0
:10224000882309F468C086E70E941D0B80E090E0B7
:102250000E94370B0E94340B83E090E00E94270B12
:1022600010926E0410926F04109270041092710418
:1022700082EE92E00E942C026C01990FEE08FF089A
:10228000C0926E04D0926F04E0927004F0927104D8
:1022900082EE92E00E942C02FE2CED2CDC2CCC2451
:1022A000092E000CAA0BBB0BC82AD92AEA2AFB2A42
:1022B000C0926E04D0926F04E0927004F0927104A8
:1022C00082EE92E00E942C02FE2CED2CDC2CCC2421
:1022D000092E000CAA0BBB0BC82AD92AEA2AFB2A12
:1022E000C0926E04D0926F04E0927004F092710478
:1022F00086E70E941D0B8AE590E00E94370B0E9442
:10230000340B80915C0490915D04019690935D0480
:1023100080935C0480E020915C0430915D04223065
:10232000310509F05EC4882309F45BC486E70E9486
:102330001D0B80E090E00E94370B0E94340B83E07D
:1023400090E00E94270B1092720410927304109276
:1023500074041092750482EE92E00E942C026C01CB
:10236000990FEE08FF08C0927204D0927304E092B5
:102370007404F092750482EE92E00E942C02FE2C0E
:10238000ED2CDC2CCC24092E000CAA0BBB0BC82A8C
:10239000D92AEA2AFB2AC0927204D0927304E092EE
:1023A0007404F092750482EE92E00E942C02FE2CDE
:1023B000ED2CDC2CCC24092E000CAA0BBB0BC82A5C
:1023C000D92AEA2AFB2AC0927204D0927304E092BE
:1023D0007404F09275042091680430916904C90175
:1023E000A0E0B0E0BA2FA92F982F88271601270167
:1023F000281A390A4A0A5B0A10917E041BA3E0914D
:102400006404F0916504E0906004F0906104FA8245
:10241000E98200916E0410916F0420917004309154
:1024200071040F8F18A329A33AA31BA1113009F03F
:102430008CC0970140E050E060E070E080E090E008
:1024400000E10E94402129833D873A014B01898B9D
:102450009987BF0180E090E0A20191010E942F20A6
:10246000F22E032F142FB52FF62FE72FD82EE92E9B
:10247000A0E00E9495215CF4AFE70E948021F22E3B
:10248000032F142FB52FF62FE72FD82EE92E2F2D3F
:10249000302F412F5B2F6F2F7E2F8D2D9E2D07E02C
:1024A0000E94592159016A017B018C0129813D85D6
:1024B000A301B401898999850E9477212D8B3E8BD8
:1024C0004F8B588F698F7A8F8B8F9C8FE09166042A
:1024D000F0916704209162043091630440E050E081
:1024E00060E070E080E090E001E10E9440212983FB
:1024F0003D873A014B01898B9987BF0180E090E0CD
:10250000A20191010E942F20F22E032F142FB52F2C
:10251000F62FE72FD82EE92EA0E00E9495215CF43B
:10252000AFE30E948021F22E032F142FB52FF62F38
:10253000E72FD82EE92E2F2D302F412F5B2F6F2F15
:102540007E2F8D2D9E2D06E092C0BF0180E090E091
:10255000A20191010E942F20F22E032F142FB52FDC
:10256000F62FE72FD82EE92EA0E00E94952184F4C3
:1025700021503F4F4F4F5F4F6F4F7F4F8F4F9F4FB8
:10258000F22E032F142FB52FF62FE72FD82EE92E7A
:102590002F2D302F412F5B2F6F2F7E2F8D2D9E2DB6
:1025A00008E00E94592139014A01B62FA72FF82FC0
:1025B000E92F29813A81C12CD12CA60160E070E07D
:1025C00080E090E00FE00E94402159016A017B0108
:1025D0008C019301A4016B2F7A2F8F2F9E2F0E94C5
:1025E00077212D8B3E8B4F8B588F698F7A8F8B8FF6
:1025F0009C8FE0916604F091670420916204309111
:10260000630440E050E060E070E080E090E000E1D2
:102610000E94402129833D873A014B01898B99878C
:10262000BF0180E090E0A20191010E942F20F22ED4
:10263000032F142FB52FF62FE72FD82EE92EA0E069
:102640000E9495215CF4AFE70E948021F22E032FB7
:10265000142FB52FF62FE72FD82EE92E2F2D302F40
:10266000412F5B2F6F2F7E2F8D2D9E2D07E00E9417
:10267000592159016A017B018C0129813D85A30102
:10268000B401898999850E9477212AAB3BAB498B9C
:102690005A8B6B8B7C8B8D8F9E8FEF8CF8A009A152
:1026A0001AA1A801970160E070E0CB0129833A8369
:1026B0004B835C836D837E838F8398879201810136
:1026C000330F000B102F980109831A832B833C834F
:1026D00060916A0470916B0480E090E0A201910126
:1026E0000E942F20F22E032F142FB52FF62FE72F45
:1026F000D82EE92EA0E00E94952184F421503109C2
:1027000040485F4F6F4F7F4F8F4F9F4FF22E032FE9
:10271000142FB52FF62FE72FD82EE92E2F2D302F7F
:10272000412F5B2F6F2F7E2F8D2D9E2D07E10E9455
:10273000592149015A01A50194012053384F4F4FA7
:102740005F4F2D873E874F87588B3BA1313009F073
:102750007AC04D855E856F857889403D574061051B
:1027600071050CF030C1C201B1012BE030E040E056
:1027700050E00E942F2051016201E980FE2C0E2DB5
:102780001E2D0E94D61FF22E032F142FB52FF62FC9
:10279000E72FD82EE92EA0E00E94952184F4215045
:1027A000310941095109684F7F4F8F4F9F4FF22EDA
:1027B000032F142FB52FF62FE72FD82EE92E2F2D0C
:1027C000302F412F5B2F6F2F7E2F8D2D9E2D03E2FB
:1027D0000E94592129833A834B835C83AFE1B0E0A7
:1027E0008D849E84AF84B88890ED891A97E0990A09
:1027F000A108B108A50194010E947C1B9B01AC01BA
:10280000C501B4010E94911F7B018C0143E0159525
:102810000795F794E7944A95D1F7AFE3B0E0A501A7
:1028200094010E947C1B9B01AC01C501B4010E9474
:10283000911F2B013C0155E0759467945794479480
:102840005A95D1F7CAC00D851E852F853889003D60
:102850001740210531050CF0A2C0C201B10123E0EF
:1028600030E040E050E00E942F2051016201E980F9
:10287000FE2C0E2D1E2D0E94D61FF22E032F142F7C
:10288000B52FF62FE72FD82EE92EA0E00E94952134
:1028900084F421503109410951096E4F7F4F8F4F08
:1028A0009F4FF22E032F142FB52FF62FE72FD82E80
:1028B000E92E2F2D302F412F5B2F6F2F7E2F8D2D47
:1028C0009E2D01E20E94592129833A834B835C8328
:1028D000A3E0B0E08D849E84AF84B88850ED851A63
:1028E00057E0950AA108B108A50194010E947C1B3C
:1028F0009B01AC01C501B4010E94911F7B018C01B9
:1029000015950795F794E794A5E0B0E0A50194012B
:102910000E947C1B9B01AC01C501B4010E94911F68
:102920002B013C0133E075946794579447943A9592
:10293000D1F76D857E858F859889613CA9EF7A07EF
:10294000AFEF8A079A070CF048C0A7E0B0E04B0150
:102950005C01ECED8E0EE5E09E1EA11CB11CA501F4
:1029600094010E947C1B9B01AC01C501B4010E9433
:10297000911FE60EF71E081F191FA501940192E092
:10298000220F331F441F551F9A95D1F7C501B4017B
:102990000E94911F460E571E681E791E1EC0A5017B
:1029A0009401C501B4010E94911F7B018C0184E058
:1029B00015950795F794E7948A95D1F719821A82AD
:1029C0001B821C8207C019821A821B821C82E12C86
:1029D000F12C8701412C512C3201A8019701550F90
:1029E000220B322FA90129873A874B875C872AA9B6
:1029F0003BA949895A896B897C898D8D9E8D5701A8
:102A00006801E984FE2C0E2D1E2D0E948C214901A7
:102A1000498B5A8B362E272E8B8B9C8BB301A201B0
:102A2000770F440B542FBA0149875A876B877C87ED
:102A30002D893E894F89588D698D7A8D8B8D9C8D1E
:102A400052016301E984FE2C0E2D1E2D0E948C2163
:102A500059016A017B018C018D859E85AF85B889FE
:102A600029813A814B815C81821B930BA40BB50BAE
:102A70003BA18093760490937704A0937804B0935D
:102A80007904313009F04EC06F8D78A189A19AA1E7
:102A9000AB01BC0180E090E0DC0149835A836B8389
:102AA0007C838D839E83AF83B8879A01AB0160E0FE
:102AB00070E080E090E00E94D61FF22E032F142FCA
:102AC000B52FF62FE72FD82EE92EA0E00E949521F2
:102AD00084F421503109404E5F4F6F4F7F4F8F4F2D
:102AE0009F4FF22E032F142FB52FF62FE72FD82E3E
:102AF000E92E2F2D302F412F5B2F6F2F7E2F8D2D05
:102B00009E2D05E10E9459215401C988DA88E32CE1
:102B1000F22C0B891C890E948C21A12CB12CF2E390
:102B2000CF2E4CC04F8D58A169A17AA19A01AB015B
:102B300060E070E0CB0129833A834B835C836D8333
:102B40007E838F83988760E070E080E090E00E9451
:102B5000D61FF22E032F142FB52FF62FE72FD82EC6
:102B6000E92EA0E00E94952184F421503109404EC5
:102B70005F4F6F4F7F4F8F4F9F4FF22E032F142FBA
:102B8000B52FF62FE72FD82EE92E2F2D302F412FDE
:102B90005B2F6F2F7E2F8D2D9E2D05E10E945921D9
:102BA0005401C988DA88E32CF22C0B891C890E9415
:102BB0008C21A12CE0E4BE2ECC24C394D12CE12C9A
:102BC000F12C00E010E00E946B2020937A043093F7
:102BD0007B0440937C0450937D0410925D0410921A
:102BE0005C0460917A0470917B0480917C049091E4
:102BF0007D040E94661D60934B0170934C0180938D
:102C00004D0190934E0188E60E941D0B8BE390E0EE
:102C10000E94370B80E00E94C10A41E06EE088E626
:102C20000E947F0A1092A7018093A60182EE92E093
:102C30000E942C02898382EE92E00E942C02E9809D
:102C4000EDA21CA20CA11DA1802B912BBC01990F00
:102C5000880B990B0E94661D60938F0470939004FB
:102C6000809391049093920482EE92E00E942C0251
:102C7000898382EE92E00E942C0219811FA31EA27A
:102C80002EA13FA1822B932BBC01990F880B990B8E
:102C90000E94661D6093930470939404809395043E
:102CA0009093960482EE92E00E942C02898382EE39
:102CB00092E00E942C02E980E9A618A608A519A5B1
:102CC000802B912BBC01990F880B990B0E94661DDC
:102CD00060939704709398048093990490939A0456
:102CE00082EE92E00E942C02898382EE92E00E94A2
:102CF0002C0219811BA71AA62AA53BA5822B932B70
:102D0000BC01990F880B990B0E94661D60938B0480
:102D100070938C0480938D0490938E0482EE92E0E5
:102D20000E942C02898382EE92E00E942C02E980AC
:102D3000EDA61CA60CA51DA5802B912BBC01990FFF
:102D4000880B990B0E94661D60939B0470939C04F2
:102D500080939D0490939E0482EE92E00E942C0248
:102D6000898382EE92E00E942C0219811FA71EA681
:102D70002EA53FA5822B932BBC01990F880B990B95
:102D80000E94661D60939F047093A0048093A10429
:102D90009093A20482EE92E00E942C02182F82EE01
:102DA00092E00E942C029A83898320E030E04AEA74
:102DB00053E460918B0470918C0480918D04909108
:102DC0008E040E94BC1C28EB3EE142E152E40E94CA
:102DD000B91B60938B0470938C0480938D04909343
:102DE0008E0423E333EF48EA53E460918F0470913B
:102DF000900480919104909192040E94B81B905885
:102E00002AE13CEA42E856E40E94BC1C60938F042D
:102E100070939004809391049093920422EB3DE888
:102E20004FEC53E460919304709194048091950465
:102E3000909196040E94B81B90582DE934EF4CE70E
:102E400056E40E94BC1C6093930470939404809396
:102E500095049093960429EC3EE84FEC54E460917D
:102E60009704709198048091990490919A040E941B
:102E7000B81B24E137EC45E856E40E94BC1C609383
:102E80009704709398048093990490939A0429E886
:102E900031EA4EEA53E460919B0470919C04809166
:102EA0009D0490919E040E94B81B905820E030E44D
:102EB0004CE155E40E94BC1C60939B0470939C04FD
:102EC00080939D0490939E042EE03DE84AE153E4F4
:102ED00060919F047091A0048091A1049091A2043C
:102EE0000E94B81B905820E030E44CE155E40E9469
:102EF000BC1C60939F047093A0048093A1049093E2
:102F0000A20419AB18AAE980FA8008A919A9E02A35
:102F1000F12AB701FF0C880B990B0E94661D21ED69
:102F200032E240E353E40E94B91B20E030E44CE17C
:102F300055E40E94BC1C6093A3047093A404809386
:102F4000A5049093A6040E943C0B0E943C0B609148
:102F500053017091540180915501909156010E9446
:102F6000351D6093490160914B0170914C01809136
:102F70004D0190914E0120E030E045E754E40E947D
:102F8000B81B0E94351D60934A012AE939E949E4DA
:102F900050E4609183047091840480918504909141
:102FA00086040E94B91B20E030E040E251E40E9418
:102FB000BD1E0E94351D609347012AE939E949E4A5
:102FC00050E4609187047091880480918904909105
:102FD0008A040E94B91B20E030E040E251E40E94E4
:102FE000BD1E0E94351D6093460160918B04709157
:102FF0008C0480918D0490918E040E94351D609305
:10300000480180915004811115C060E070E083E3B5
:1030100093E00E94420760E070E08EE493E00E943B
:10302000420760E070E089E693E00E94420760E0BA
:1030300070E082C06091260370912703072E000C78
:10304000880B990B0E94661D23E333E343E35FE3A0
:103050000E94BD1E0E942E1D6B017C0180912203E7
:10306000909123032091240330912503821B930B1D
:103070008C0D9D1D2091FC023091FD02829FB001BC
:10308000839F700D929F700D112483E393E00E9443
:1030900042078091240390912503209122033091CF
:1030A0002303919581959109821B930B8C199D099E
:1030B0002091FE023091FF02829FB001839F700D2C
:1030C000929F700D11248EE493E00E94420780913C
:1030D000240390912503209122033091230391959D
:1030E00081959109821B930B8C0D9D1D20910003EE
:1030F00030910103829FB001839F700D929F700DEC
:10310000112489E693E00E94420780912203909166
:1031100023032091240330912503821B930B8C19E8
:103120009D092091020330910303829FB001839F88
:10313000700D929F700D112484E893E00E94420765
:1031400080904B0190904C01A0904D01B0904E01A9
:1031500080915B04882309F4B2C0809150048111EE
:103160000FC060E070E08FE993E00E94420760E0EA
:1031700070E08AEB93E00E94420760E070E09BC041
:10318000C0908304D0908404E0908504F09086047D
:1031900040918704509188046091890470918A0459
:1031A00080EF93E00E94900469837A838B839C83F1
:1031B000B701A60180E194E00E9490046B017C01BC
:1031C0006091550470915604809157049091580471
:1031D00020E030E0A9010E94B01E18160CF47BC05C
:1031E0006091510470915204809153049091540461
:1031F00020E030E0A9010E94B01E18160CF46BC04C
:10320000C501B4010E942E1D20912803222309F438
:103210008AC070932A03609329031092280360E008
:1032200070E01A861986072E000C880B990B0E94F5
:10323000661D4B015C0129813A814B815C810E94B2
:10324000B81B2B013C01A70196010E94B81B0E94EC
:103250002E1D8AEB93E00E948E07A3019201C70105
:10326000B6010E94B91B0E942E1D8FE993E00E94B7
:103270008E0726E636E646EE5FE369817A818B812A
:103280009C810E94BD1EA50194010E94B91B0E9451
:103290002E1D85ED93E00E948E0769857A858AEB65
:1032A00093E00E94420769857A858FE993E00E9446
:1032B000420769857A8585ED93E00E9442070E9466
:1032C000DE010C94661021E030E03093FB02209385
:1032D000FA020C94921081E08093280360915104CB
:1032E000709152048091530490915404209155049C
:1032F00030915604409157045091580480902F0308
:1033000090903003A0903103B09032030E94B81B1C
:10331000A50194010E94BD1E0E942E1D7A87698717
:1033200060E070E080CF2091290330912A03621B76
:10333000730B072E000C880B990B0E94661DAB01C6
:10334000BC0180E394E00E9490040E942E1D69CF8E
:103350008F929F92AF92BF92CF92DF92EF92FF92A5
:103360000F931F93CF93DF93E5E4F2E01382128271
:1033700088EE93E0A0E0B0E084839583A683B783D2
:1033800022E231E03183208325EC30E03587248749
:1033900024EC30E03787268720EC30E0318B208B1F
:1033A00021EC30E0338B228B22EC30E0358B248B08
:1033B00026EC30E0378B268B118E128E138E148EF6
:1033C000E2EEF2E01382128284839583A683B783B0
:1033D00084E391E09183808386EA882E8BE9982E9E
:1033E00084E4A82E8CE3B82E8092AB049092AC04B7
:1033F000A092AD04B092AE0480E090EAA0E8B4E4FC
:1034000080937F0490938004A0938104B0938204FE
:10341000CCEFD2E08FEF9FEF998388839B838A83E1
:1034200001E010E01D830C831F830E83198708873A
:103430001B870A871D870C878CE0E6E0F1E0AAE095
:10344000B3E001900D928A95E1F78CE0E2E1F1E0C2
:10345000A6E1B3E001900D928A95E1F780E090E05B
:10346000ACEFB2EC8FA798ABA9ABBAABC12CD12C07
:103470009EEFE92E92E4F92ECBAADCAAEDAAFEAAD1
:1034800020E030E04FE750E062E87FEF83E393E035
:103490000E94F60920E030E04FE750E062E87FEF5D
:1034A0008EE493E00E94F60920E030E04FE750E020
:1034B00062E87FEF89E693E00E94F60920E030E0C1
:1034C0004FE750E062E87FEF84E893E00E94F6095E
:1034D0002FE030E04FE750E062E87FEF8FE993E0C4
:1034E0000E94F6092FE030E04FE750E062E87FEFFE
:1034F0008AEB93E00E94F6092FE030E04FE750E0BE
:1035000062E87FEF85ED93E00E94F60940E050E02D
:103510006AE773E44093F0035093F1036093F2037E
:103520007093F3031092F4031092F5031092F603D4
:103530001092F7031092F8031092F9031092FA0315
:103540001092FB038092FC039092FD03A092FE0375
:10355000B092FF038DEC9CECACE4BDE380930004DF
:1035600090930104A0930204B0930304C092040456
:10357000D0920504E0920604F09207041092080429
:103580001092090410920A0410920B044093100444
:103590005093110460931204709313041092140456
:1035A0001092150410921604109217041092180429
:1035B0001092190410921A0410921B0480921C0499
:1035C00090921D04A0921E04B0921F0480932004C8
:1035D00090932104A0932204B0932304C092240466
:1035E000D0922504E0922604F09227041092280439
:1035F0001092290410922A0410922B0480E090E08B
:10360000A8E4B2E48093300490933104A093320490
:10361000B09333041092340410923504109236049F
:1036200010923704109238041092390410923A0420
:1036300010923B0480923C0490923D04A0923E0480
:10364000B0923F048DEC9CECACECBDE38093400465
:1036500090934104A0934204B0934304C092440465
:10366000D0924504E0924604F09247041092480438
:103670001092490410924A0410924B0410925B0479
:10368000EEEEF2E010821182128213821482158211
:103690001682178211861086128613861587048774
:1036A000DF91CF911F910F91FF90EF90DF90CF901E
:1036B000BF90AF909F908F900895052E97FB1EF4BA
:1036C00000940E94741B57FD07D00E94871B07FCC3
:1036D00003D04EF40C94741B509540953095219571
:1036E0003F4F4F4F5F4F089590958095709561952E
:1036F0007F4F8F4F9F4F08950E94A91BA59F900D4C
:10370000B49F900DA49F800D911D11240895A1E2F6
:103710001A2EAA1BBB1BFD010DC0AA1FBB1FEE1F4B
:10372000FF1FA217B307E407F50720F0A21BB30B96
:10373000E40BF50B661F771F881F991F1A9469F712
:1037400060957095809590959B01AC01BD01CF016E
:103750000895A29FB001B39FC001A39F700D811D6A
:103760001124911DB29F700D811D1124911D08958A
:103770005058BB27AA270E94D01B0C94621E0E949F
:10378000291E38F00E94301E20F039F49F3F19F4B2
:1037900026F40C94EB1D0EF4E095E7FB0C94E51D6C
:1037A000E92F0E94871E58F3BA1762077307840730
:1037B000950720F079F4A6F50C94A91E0EF4E09577
:1037C0000B2EBA2FA02D0B01B90190010C01CA01DB
:1037D000A0011124FF27591B99F0593F50F4503E86
:1037E00068F11A16F040A22F232F342F4427585F78
:1037F000F3CF469537952795A795F0405395C9F790
:103800007EF41F16BA0B620B730B840BBAF0915047
:10381000A1F0FF0FBB1F661F771F881FC2F70EC0E6
:10382000BA0F621F731F841F48F4879577956795B9
:10383000B795F7959E3F08F0B0CF9395880F08F0A5
:103840009927EE0F9795879508959F939F77EEE3BD
:1038500089379E0728F4EAE8F0E00E94151E0CC0A4
:103860000E94A11D9058A2EA2AED3FE049EC5FE3D7
:103870000E94D01B0E94621E0F9007FC9058089572
:103880000E94291E60F080E891E009F49EEF0E94FA
:10389000301E28F040E851E071F45EEF0CC00C944B
:1038A000EB1D0C94A91EE92FE0780E94871E40F3BF
:1038B000092E052AB1F3261737074807590738F0AC
:1038C0000E2E07F8E02569F0E025E0640AC0EF63FA
:1038D00007F8009407FADB01B9019D01DC01CA0178
:1038E000AD01EF930E94D31C0E94621E0E94831CB4
:1038F0005F91552339F02BED3FE049E450FD49EC51
:103900000C94B91B0895DF93DD27B92FBF7740E8EA
:103910005FE31616170648075B0718F4D92F0E94B5
:10392000B51E9F938F937F936F930E94781FEEE94C
:10393000F0E00E94EE1D0E94621E2F913F914F9178
:103940005F910E94D01EDD2351F09058A2EA2AED2B
:103950003FE049EC5FE3D0785D270E94D01BDF9108
:103960000C94621E0E94C11D08F481E008950E941B
:10397000391EE3950C94731E0E94D01C0C94621E99
:103980000E94301E58F00E94291E40F029F45F3F2B
:1039900029F00C94E51D51110C94AA1E0C94EB1DFA
:1039A0000E94871E68F39923B1F3552391F3951B69
:1039B000550BBB27AA2762177307840738F09F5F50
:1039C0005F4F220F331F441FAA1FA9F335D00E2EBD
:1039D0003AF0E0E832D091505040E695001CCAF72A
:1039E0002BD0FE2F29D0660F771F881FBB1F2617ED
:1039F00037074807AB07B0E809F0BB0B802DBF01C4
:103A0000FF2793585F4F3AF09E3F510578F00C9492
:103A1000E51D0C94AA1E5F3FE4F3983ED4F386950F
:103A200077956795B795F7959F5FC9F7880F911DB3
:103A30009695879597F90895E1E0660F771F881F9F
:103A4000BB1F621773078407BA0720F0621B730B52
:103A5000840BBA0BEE1F88F7E09508950E94351D80
:103A60006894B1110C94AA1E08950E948F1E88F0CC
:103A70009F5798F0B92F9927B751B0F0E1F0660F32
:103A8000771F881F991F1AF0BA95C9F714C0B13073
:103A900091F00E94A91EB1E008950C94A91E672F11
:103AA000782F8827B85F39F0B93FCCF386957795A2
:103AB0006795B395D9F73EF490958095709561958B
:103AC0007F4F8F4F9F4F0895E89409C097FB3EF4B6
:103AD00090958095709561957F4F8F4F9F4F99235B
:103AE000A9F0F92F96E9BB279395F69587957795D9
:103AF0006795B795F111F8CFFAF4BB0F11F460FF99
:103B00001BC06F5F7F4F8F4F9F4F16C0882311F0F0
:103B100096E911C0772321F09EE8872F762F05C004
:103B2000662371F096E8862F70E060E02AF09A959F
:103B3000660F771F881FDAF7880F9695879597F994
:103B40000895DF93CF931F930F938B01EC01EBEC60
:103B5000F0E00E94EE1D0E94621E9801AE018B01F2
:103B6000EC0160E070E080E89FE30E94B81B0E94D7
:103B7000381F9801AE010F911F91CF91DF910C94E6
:103B8000D01E990F0008550FAA0BE0E8FEEF16169D
:103B90001706E807F907C0F012161306E407F50741
:103BA00098F0621B730B840B950B39F40A2661F0B5
:103BB000232B242B252B21F408950A2609F4A14058
:103BC000A6958FEF811D811D089597F99F6780E865
:103BD00070E060E008959FEF80EC0895DF93CF934D
:103BE0001F930F93FF92EF92DF927B018C016894F9
:103BF00006C0DA2EEF010E94D01EFE01E894A591C6
:103C00002591359145915591A6F3EF010E94D01B66
:103C1000FE019701A801DA9469F7DF90EF90FF9019
:103C20000F911F91CF91DF9108959F938F937F9371
:103C30006F93FF93EF939B01AC010E94BD1EEF9128
:103C4000FF910E94EE1D2F913F914F915F910C9437
:103C5000BD1E00240A9416161706180609060895B4
:103C600000240A94121613061406050608950C94EF
:103C7000EB1D0E948F1ED8F3E894E0E0BB279F570E
:103C8000F0F02AED3FE049EC06C0EE0FBB0F661FD7
:103C9000771F881F28F0B23A62077307840728F05D
:103CA000B25A620B730B840BE3959A9572F78038C6
:103CB00030F49A95BB0F661F771F881FD2F7904884
:103CC0000C947E1F092E0394000C11F4882352F0EB
:103CD000BB0F40F4BF2B11F460FF04C06F5F7F4F38
:103CE0008F4F9F4F0895EF93E0FF07C0A2EA2AEDA0
:103CF0003FE049EC5FEB0E94D01B0E94621E0F90D8
:103D0000039401FC9058E3EFF0E00C94151E57FD6E
:103D10009058440F551F59F05F3F71F04795880F39
:103D200097FB991F61F09F3F79F0879508951216D0
:103D300013061406551FF2CF4695F1DF08C016167C
:103D400017061806991FF1CF86957105610508942D
:103D50000895E894BB2766277727CB0197F9089544
:103D60000E94C11D08F48FEF08959B01AC0160E033
:103D700070E080E89FE30C94BC1C0E94D01E0C9461
:103D8000621E0E94291E38F00E94301E20F09523EA
:103D900011F00C94E51D0C94EB1D11240C94AA1E3B
:103DA0000E94871E70F3959FC1F3950F50E0551F39
:103DB000629FF001729FBB27F00DB11D639FAA2780
:103DC000F00DB11DAA1F649F6627B00DA11D661FCF
:103DD000829F2227B00DA11D621F739FB00DA11DF0
:103DE000621F839FA00D611D221F749F3327A00DAA
:103DF000611D231F849F600D211D822F762F6A2F46
:103E000011249F5750409AF0F1F088234AF0EE0FAA
:103E1000FF1FBB1F661F771F881F91505040A9F7D7
:103E20009E3F510580F00C94E51D0C94AA1E5F3F47
:103E3000E4F3983ED4F3869577956795B795F79513
:103E4000E7959F5FC1F7FE2B880F911D969587958B
:103E500097F908959F930E94391E0F9007FCEE5F1B
:103E60000C94731E19F416F40C94EB1D0C947C1F27
:103E70000E948F1EB8F39923C9F3B6F39F57550BD1
:103E800087FF0E948A1F0024A0E640EA9001805824
:103E90005695979528F4805C660F771F881F20F051
:103EA00026173707480730F4621B730B840B202951
:103EB00031294A2BA69517940794202531254A27A6
:103EC00058F7660F771F881F20F026173707480717
:103ED00030F4620B730B840B200D311D411DA09536
:103EE00081F7B901842F9158880F96958795089589
:103EF0009B01AC010C94BD1E9F3F31F0915020F40A
:103F0000879577956795B795880F911D96958795B5
:103F100097F9089591505040660F771F881FD2F788
:103F20000895DB018F939F930E947C1BBF91AF91FB
:103F3000A29F800D911DA39F900DB29F900D112403
:103F40000895991B79E004C0991F961708F0961BF5
:103F5000881F7A95C9F78095089597FB072E16F468
:103F6000009407D077FD09D00E94A12107FC05D05D
:103F70003EF4909581959F4F0895709561957F4F80
:103F80000895EE0FFF1F0590F491E02D09940E9413
:103F9000A91B332312F48A1B9B0B0C94D11F0E9484
:103FA000A91BB7FF0895821B930B0895DF93CF934E
:103FB0001F930F939A9DF02D219FF00D8B9DF00D77
:103FC0008A9DE02DF10D039FF00D029FE00DF11D84
:103FD0004E9DE00DF11D5E9DF00D4F9DF00D7F9308
:103FE0006F93BF92AF925F934F93D5010E94A91B2D
:103FF0008B01AC01D7010E94A91BEB01E80FF91F4F
:10400000D6010E9426202F913F91D6010E94A91B24
:10401000C60FD71FE81FF91FAF91BF910E9426203E
:104020002F913F910E94A91BC60FD71FE81FF91FB0
:10403000D6010E94A91BE60FF71F9801BE01CF0110
:1040400011240F911F91CF91DF9108950E94A91B18
:10405000460F571FC81FD91F08F43196089597FBC4
:1040600057FF0C943F209F938F930E943F206E1B1D
:104070007F0BAF91BF918A0B9B0B0895E894DF9360
:10408000CF93FC01DB010E94A91B7F936F93E90191
:104090009A01AC01BF93AF933F932F93DF010E942E
:1040A000A91B26F46C1B7D0B820B930B9E01EB016D
:1040B000FC010E942620AF91BF912F913F910E9459
:1040C0002620BE01CF01F9012F913F91CF91DF91C1
:1040D0000895689401C0E894F92FF12B12F00C9424
:1040E0009D20A0E0B0E0E7E7F0E20C940F21092E5C
:1040F000059422F40E94F920112392F4F0E80F268F
:10410000FFEFE094F09400951095B094C094D09493
:10411000A194BF0ACF0ADF0AEF0AFF0A0F0B1F0B99
:104120000E94A82007FC0E94F920CDB7DEB7ECE082
:104130000C942B21689401C0E8948F929F92CF93A6
:10414000DF930E94A820DF91CF919F908F900895D8
:1041500088249924F401E401B0E49F93AA279A15D6
:104160008B049C04ED05FE05CF05D007A10798F44C
:10417000AD2FDC2FCF2FFE2FE92D982C892E982FD5
:10418000872F762F652F542F432F322F2227B85099
:1041900031F7BF9127C01B2EBF91BB27220F331FC2
:1041A000441F551F661F771F881F991F881C991C65
:1041B000EE1FFF1FCC1FDD1FAA1FBB1F8A149B040D
:1041C000EC05FD05CE05DF05A007B10748F08A180C
:1041D0009B08EC09FD09CE09DF09A00BB10B21609A
:1041E0001A94E1F62EF49401AF01BE01CD01000C4A
:1041F000089560957095809590953095409550956F
:1042000021953F4F4F4F5F4F6F4F7F4F8F4F9F4FC6
:1042100008952F923F924F925F926F927F928F926A
:104220009F92AF92BF92CF92DF92EF92FF920F9345
:104230001F93CF93DF93CDB7DEB7CA1BDB0B0FB64F
:10424000F894DEBF0FBECDBF09942A88398848880C
:104250005F846E847D848C849B84AA84B984C884A2
:10426000DF80EE80FD800C811B81AA81B981CE0F99
:10427000D11D0FB6F894DEBF0FBECDBFED0108957E
:104280000F93083090F0982F872F762F652F542F9B
:10429000432F322F22270850F4CF220F331F441F01
:1042A000551F661F771F881F991F0A95B2F70F9138
:1042B000089597FB10F8169400080F93083098F0B3
:1042C0000850232F342F452F562F672F782F892FF3
:1042D000902DF4CF05949795879577956795579589
:1042E0004795379527950A95AAF70F9108952A0DB6
:1042F0003B1D4C1D5D1D6E1D7F1D801F911F089570
:104300000024A7FD00942A0F301D401D501D601D84
:10431000701D801D901D08952A193B094C095D09E7
:104320006E097F09800B910B08950024A7FD00946E
:104330002A17300540055005600570058005900579
:104340000895AA1BBB1B51E107C0AA1FBB1FA617DC
:10435000B70710F0A61BB70B881F991F5A95A9F72E
:1043600080959095BC01CD0108950F931F93CF9335
:10437000DF938230910510F482E090E0E091C20476
:10438000F091C30420E030E0A0E0B0E0309719F1F4
:10439000408151810281138148175907C8F0841761
:1043A000950769F4109731F012960C9312971396B3
:1043B0001C9327C00093C2041093C30422C021158C
:1043C000310519F04217530718F49A01BD01EF01A6
:1043D000DF01F801DBCF21153105F9F0281B390B7E
:1043E0002430310580F48A819B816115710521F0AB
:1043F000FB019383828304C09093C3048093C2041F
:10440000FE01329644C0FE01E20FF31F81939193A7
:1044100022503109398328833AC02091C004309159
:10442000C104232B41F42091020130910301309308
:10443000C1042093C0042091000130910101211595
:10444000310541F42DB73EB740910401509105016B
:10445000241B350BE091C004F091C104E217F3076F
:10446000A0F42E1B3F0B2817390778F0AC014E5FE4
:104470005F4F2417350748F04E0F5F1F5093C1045C
:104480004093C0048193919302C0E0E0F0E0CF013B
:10449000DF91CF911F910F910895CF93DF930097F4
:1044A00009F481C0FC01329713821282A091C204E8
:1044B000B091C304109781F420813181820F931F42
:1044C0002091C0043091C1042817390751F5F093A9
:1044D000C104E093C00467C0ED0120E030E0CE17D6
:1044E000DF0740F44A815B819E0141155105F1F0DF
:1044F000EA01F5CFD383C28340815181840F951F98
:10450000C817D90759F488819981840F951F02969D
:10451000918380838A819B819383828321153105D6
:1045200029F4F093C304E093C2043DC0E901FB8386
:10453000EA8349915991C40FD51FEC17FD0761F427
:1045400080819181840F951F0296E9019983888368
:10455000828193819B838A83E0E0F0E012968D91C3
:104560009C911397009719F0FD01DC01F7CF8D9115
:104570009C9111979D012E5F3F4F820F931F2091B9
:10458000C0043091C1042817390769F4309729F421
:104590001092C3041092C20402C013821282B0931C
:1045A000C104A093C004DF91CF91089581E090E011
:0A45B000F8940C94DB22F894FFCF7E
:1045BA000000C40480000000A0410000484200003E
:1045CA00C8420000C841000048420000C84200003A
:1045DA0000006F01DC000601BC0137011501290149
:1045EA000000000075024802A5021C0240022C02CB
:0245FA001D02A0
:107E0000112484B714BE81FFF0D085E080938100F7
:107E100082E08093C00088E18093C10086E0809377
:107E2000C20080E18093C4008EE0C9D0259A86E02C
:107E300020E33CEF91E0309385002093840096BBD3
:107E4000B09BFECF1D9AA8958150A9F7CC24DD24C4
:107E500088248394B5E0AB2EA1E19A2EF3E0BF2EE7
:107E6000A2D0813461F49FD0082FAFD0023811F036
:107E7000013811F484E001C083E08DD089C08234E0
:107E800011F484E103C0853419F485E0A6D080C0E4
:107E9000853579F488D0E82EFF2485D0082F10E0AE
:107EA000102F00270E291F29000F111F8ED06801E7
:107EB0006FC0863521F484E090D080E0DECF843638
:107EC00009F040C070D06FD0082F6DD080E0C81688
:107ED00080E7D80618F4F601B7BEE895C0E0D1E017
:107EE00062D089930C17E1F7F0E0CF16F0E7DF06D8
:107EF00018F0F601B7BEE89568D007B600FCFDCFD4
:107F0000A601A0E0B1E02C9130E011968C91119780
:107F100090E0982F8827822B932B1296FA010C0160
:107F200087BEE89511244E5F5F4FF1E0A038BF0790
:107F300051F7F601A7BEE89507B600FCFDCF97BE46
:107F4000E89526C08437B1F42ED02DD0F82E2BD052
:107F50003CD0F601EF2C8F010F5F1F4F84911BD097
:107F6000EA94F801C1F70894C11CD11CFA94CF0C13
:107F7000D11C0EC0853739F428D08EE10CD085E9AC
:107F80000AD08FE07ACF813511F488E018D01DD067
:107F900080E101D065CF982F8091C00085FFFCCF94
:107FA0009093C60008958091C00087FFFCCF809118
:107FB000C00084FD01C0A8958091C6000895E0E648
:107FC000F0E098E1908380830895EDDF803219F02E
:107FD00088E0F5DFFFCF84E1DECF1F93182FE3DFCA
:107FE0001150E9F7F2DF1F91089580E0E8DFEE27F6
:047FF000FF270994CA
:027FFE00040479
:0400000300007E007B
:00000001FF
