:100000000C94B2000C94DA000C94DA000C94DA0030
:100010000C94DA000C94DA000C94DA000C94BC0610
:100020000C94DA000C94DA000C94DA000C948F052E
:100030000C94DA000C94DA000C94DA000C94DA00D8
:100040000C94990C0C9458070C942F040C940904EC
:100050000C94DA000C94DA000C94DA000C94DA00B8
:100060000C9461040C94DA00E607ED070808F20727
:10007000190819081908190810080D081308190893
:1000800019081908BF07FB070808036EDB363D9AFD
:100090009999993DABAAAA2A3E000000803F084AE0
:1000A000D73B3BCE016E84BCBFFDC12F3D6C74318C
:1000B0009ABD56833DDA3D00C77F11BED9E4BB4CE3
:1000C0003E916BAAAABE000000803F072C7AA5BA19
:1000D0006CC590DA3B9365FC8BBC53F810FD3C5625
:1000E00092834DBD879D3AB63DCBC9BF5BBE73DAE7
:1000F0000FC93F05A84CCDB2D44EB93836A9020C71
:1001000050B9918688083CA6AAAA2ABE00000080A1
:100110003F00000000080002010000030407000087
:1001200000000000000000000000250028002B0057
:1001300000000000240027002A0004040404040432
:100140000404020202020202030303030303010286
:100150000408102040800102040810200102040855
:100160001020021911241FBECFEFD8E0DEBFCDBF93
:1001700011E0A0E0B1E0E6E1F2E402C005900D92EA
:10018000A633B107D9F725E0A6E3B1E001C01D927F
:10019000AB33B207E1F710E0C2EBD0E004C0219727
:1001A000FE010E94FE1DC13BD107C9F70E94E30C6E
:1001B0000C9409210C940000CF92DF92EF92FF92F1
:1001C0000F931F93CF93DF936C017A018B01C0E0F3
:1001D000D0E0CE15DF0581F0D8016D918D01D601FB
:1001E000ED91FC910190F081E02DC6010995892BDC
:1001F00011F02196EECF7E01C701DF91CF911F91C3
:100200000F91FF90EF90DF90CF900895FC01538DF8
:10021000448D252F30E0842F90E0821B930B5417E0
:1002200010F0CF96089501970895FC01918D828D6D
:10023000981761F0828DDF01A80FB11D5D968C913A
:10024000928D9F5F9F73928F90E008958FEF9FEF45
:100250000895FC01918D828D981731F0828DE80F01
:10026000F11D858D90E008958FEF9FEF0895FC01BB
:10027000918D228D892F90E0805C9F4F821B910988
:100280008F73992708958AE692E00E94370121E052
:10029000892B09F420E0822F0895FC01848DDF0171
:1002A000A80FB11DA35ABF4F2C91848D90E00196E9
:1002B0008F739927848FA689B7892C93A089B189D8
:1002C0008C91837080648C93938D848D981306C079
:1002D0000288F389E02D80818F7D80830895EF92DD
:1002E000FF920F931F93CF93DF93EC0181E0888FF0
:1002F0009B8D8C8D981305C0E889F989808185FDD7
:1003000026C0F62E0B8D10E00F5F1F4F0F731127C5
:10031000E02E8C8DE8120CC00FB607FCFACFE889EE
:10032000F989808185FFF5CFCE010E944D01F1CF83
:100330008B8DFE01E80FF11DE35AFF4FF0829FB74E
:10034000F8940B8FEA89FB89808180620AC09FB78D
:10035000F894EE89FF896083E889F9898081837048
:10036000806480839FBF81E090E0DF91CF911F91F7
:100370000F91FF90EF900895CF93DF93EC01888D5C
:100380008823C9F0EA89FB89808185FD05C0A88999
:10039000B9898C9186FD0FC00FB607FCF5CF80811F
:1003A00085FFF2CFA889B9898C9185FFEDCFCE0169
:1003B0000E944D01E7CFDF91CF91089580E090E05A
:1003C000892B29F00E94430181110C9400000895AB
:1003D00085ED8093BC008091BC0084FDFCCF109221
:1003E0003A0208954091A801262F30E0240F311DD4
:1003F00021323105DCF420913A022430C9F4FC01A9
:1004000080E090E0861758F43091A8012191DC013A
:10041000A857BE4FA30FB11D2C930196F3CF809127
:10042000A801680F6093A80180E0089581E0089515
:1004300082E00895089508950895E091D001809193
:10044000CF01E81730F4F0E0EC50FE4F808190E0EF
:1004500008958FEF9FEF08959091D0018091CF0183
:10046000981750F4E92FF0E0EC50FE4F208130E077
:100470009F5F9093D00102C02FEF3FEFC901089515
:100480008091CF0190E02091D001821B91090895C5
:10049000CF92DF92EF92FF920F931F93CF93DF9350
:1004A0007C01CB018A012091D101222389F0EB014B
:1004B0006B01C40ED51ECC15DD0569F06991D7011D
:1004C000ED91FC910190F081E02DC7010995F3CFEA
:1004D000642F0E94F201C801DF91CF911F910F910B
:1004E000FF90EF90DF90CF900895CF93DF931F920E
:1004F000CDB7DEB769832091D1012223D1F02091BD
:10050000F301203240F021E030E0FC01338322830C
:1005100080E090E015C08091D201E82FF0E0ED522C
:10052000FE4F998190838F5F8093D2018093F30176
:1005300005C061E0CE0101960E94F20181E090E0E9
:100540000F90DF91CF910895089580E090E0089595
:10055000FC0190819C3088F5818128E830E0281BDF
:10056000310987FD3395220F331F220F331F621786
:10057000730784F0828148E552E0481B510987FDEA
:100580005395440F551F440F551F9B01461757079E
:100590000CF49A0122503109220F331F4FB7F894FF
:1005A000892F90E0FC01EE0FFF1F8E0F9F1FFC01B3
:1005B000EC59FE4F328321834FBF0895CF93DF93D1
:1005C000EC01288139818A819B812817390704F53C
:1005D000888199812A813B81821B930B1816190609
:1005E0002CF4888199812A813B8104C08A819B8176
:1005F00028813981821B930B2C813D8182179307BF
:100600003CF12C813D8188819981820F931F29C003
:10061000288139818A819B818217930724F58881FB
:1006200099812A813B81821B930B181619062CF4A1
:10063000888199812A813B8104C08A819B8128819C
:100640003981821B930B2C813D81821793071CF407
:100650008A819B8106C02C813D8188819981821B82
:10066000930B9983888368817981CE010E960E94CD
:10067000A802488159812A813B8181E042175307B2
:1006800009F080E0DF91CF910895613921E0720790
:1006900014F060E971E077FF02C060E070E02CEDDB
:1006A00035E0261B370BFC013187208764527A4FD7
:1006B0007783668308958F929F92AF92BF92CF9275
:1006C000DF92EF92FF920F931F93CF93DF93FC0182
:1006D000EB55FF4F2081222309F462C08B01EC010E
:1006E000FB01EE0FFF1FEE0FFF1FEC0FFD1F8788B2
:1006F000908CA18CB28C20E030E040EF52E4C50138
:10070000B4010E94FA1C0E946B1B6B017C01CE019C
:10071000C4960E944503B601CE0183960E9445030C
:10072000B601CE018A5A9F4F0E944503B601CE0101
:100730008B5B9F4F0E9445030115110591F42F8992
:10074000388D498D5A8D6B8D7C8D8D8D9E8D0E943F
:10075000F61920E030E040E05FE30E94FA1C4B0114
:100760005C0120E030E040EF52E4C501B4010E949A
:10077000FA1C0E946B1B6B017C01CE0189599F4FB3
:100780000E944503B601CE0188589F4F0E94450341
:10079000B601CE0187579F4F0E94450318870F83EC
:1007A000DF91CF911F910F91FF90EF90DF90CF904D
:1007B000BF90AF909F908F9008950E9404210F9357
:1007C0001F93CF93DF938C01C0916001D0916101A1
:1007D000209749F484E090E00E94E31F9093610128
:1007E000809360010CC08A819B81009711F0EC011D
:1007F000FACF84E090E00E94E31F9B838A83FC0190
:100800001183008313821282DF91CF911F910F9188
:1008100008951F920F920FB60F9211242F933F93BA
:100820004F935F936F937F938F939F93AF93BF93F8
:10083000EF93FF938AE692E00E944D01FF91EF91C2
:10084000BF91AF919F918F917F916F915F914F91E8
:100850003F912F910F900FBE0F901F9018951F92F0
:100860000F920FB60F9211242F938F939F93EF93B4
:10087000FF93E0917A02F0917B028081E091800207
:10088000F091810282FD12C09081809183028F5F7E
:100890008F7320918402821751F0E0918302F0E07F
:1008A000E659FD4F958F8093830201C08081FF91AF
:1008B000EF919F918F912F910F900FBE0F901F90EE
:1008C00018951F920F920FB60F9211242F933F93FA
:1008D0004F935F936F937F938F939F93AF93BF9348
:1008E000EF93FF938091B900887F803609F49CC014
:1008F00068F5883209F45BC090F4803109F454C083
:1009000038F4882309F4F6C0883009F44DC0F6C0E5
:10091000883109F44CC0803209F45DC0EFC08034E6
:1009200009F468C048F4803309F455C0883309F0ED
:10093000E5C080933802D8C0803509F44FC08835AF
:1009400009F45DC0883409F0D9C0D6C0883909F4EB
:10095000C7C0A8F4883709F467C038F4883609F4AA
:1009600063C0803709F460C0C9C0883809F4B8C0D2
:10097000803909F45FC0803809F0C0C05BC0803B9B
:1009800009F486C038F4803A09F466C0883A09F45C
:100990007FC0B4C0803C09F4A7C0883C09F4A4C05F
:1009A000883B09F48AC0AAC08091350210C090919A
:1009B000370280913602981770F5E091370281E096
:1009C0008E0F80933702F0E0EC5EFD4F80818093C4
:1009D000BB0085EC86C0809338028EC0E091370260
:1009E00081E08E0F809337028091BB00F0E0EC5ED7
:1009F000FD4F808390913702809136026EC0E09166
:100A0000370281E08E0F809337028091BB00F0E0C7
:100A1000EC5EFD4F80838091390281116DC081E0D1
:100A20008093340284EA61C083E080933A0210929A
:100A3000CA01CFCF8091CA01803208F051C0E09145
:100A4000CA0181E08E0F8093CA018091BB00F0E063
:100A5000E655FE4F8083BDCF85EC8093BC0010929D
:100A60003A028091CA01803230F4E091CA01F0E08C
:100A7000E655FE4F10826091CA0170E0E0913601A8
:100A8000F09137018AEA91E009951092CA0136C0C7
:100A900084E080933A021092A9011092A801E0919B
:100AA0003801F091390109958091A801811105C0A3
:100AB00081E08093A80110928801E091A90181E072
:100AC0008E0F8093A901F0E0E857FE4F808180935C
:100AD000BB009091A9018091A801981708F479CFE3
:100AE00085E88093BC000AC085EC8093BC0010921E
:100AF0003A0204C0109238020E94E801FF91EF917F
:100B0000BF91AF919F918F917F916F915F914F9125
:100B10003F912F910F900FBE0F901F9018951F922D
:100B20000F920FB60F9211242F933F934F935F9321
:100B30006F937F938F939F93AF93BF93EF93FF93A5
:100B40008091630187FF05C0109285001092840098
:100B50001BC020916301022E000C330B80916201B7
:100B600090E02817390784F480916301082E000C67
:100B7000990BFC01EE0FFF1F8E0F9F1FFC01EC591C
:100B8000FE4F808186FD15C0809163018F5F809349
:100B9000630120916301022E000C330B80916201EE
:100BA00090E028173907C4F4809163018C3064F118
:100BB00013C080916301082E000C990BFC01EE0F0D
:100BC000FF1F8E0F9F1FFC01EC59FE4F808160E0DC
:100BD0008F730E944E09D8CF809184009091850038
:100BE000049680349C4918F480E49CE905C0809107
:100BF00084009091850004969093890080938800EA
:100C00008FEF809363013BC0209184003091850079
:100C100080916301082E000C990BFC01EE0FFF1F61
:100C20008E0F9F1FFC01EC59FE4F81819281820F34
:100C3000931F909389008093880080916301082E10
:100C4000000C990BFC01EE0FFF1F8E0F9F1FFC0184
:100C5000EC59FE4F808186FF12C080916301082EFF
:100C6000000C990BFC01EE0FFF1F8E0F9F1FFC0164
:100C7000EC59FE4F808161E08F730E944E09FF9115
:100C8000EF91BF91AF919F918F917F916F915F9104
:100C90004F913F912F910F900FBE0F901F9018957D
:100CA000EF92FF920F931F93CF93DF93EC017D8719
:100CB0006C87EC84FD848C01025F1F4F8E858C3025
:100CC00008F04FC08E2D0E942F098E85E82FF0E08E
:100CD0009F01220F331FE20FF31FEC59FE4F9E2D91
:100CE0009F732081207CE22EE92AE0821F86188AE9
:100CF0006CE00E94DE1D9CE0899FB001112440E061
:100D000050E09B01240F351FF901EE0FFF1F2E0F3E
:100D10003F1FF901EC59FE4F908196FD16C04F5FC1
:100D20005F4F4C30510569F781110FC01092800060
:100D300082E0809381001092850010928400B19A25
:100D400080916F00826080936F00EE85F0E0CF01AC
:100D5000880F991FE80FF91FEC59FE4F80818064BE
:100D600080836CED75E0C801DF91CF911F910F91E9
:100D7000FF90EF900C94A8021F920F920FB60F9263
:100D800011242F933F934F935F936F937F938F9390
:100D90009F93AF93BF93CF93DF93EF93FF93C09154
:100DA0006001D09161012097D1F0E881F981EE0FC7
:100DB000FF1FEE5AFE4F808191810E94DE02811159
:100DC00004C0888199810E94DF038A819B8190936E
:100DD000610180936001CE010E947B2004C080915C
:100DE000700010927000FF91EF91DF91CF91BF9151
:100DF000AF919F918F917F916F915F914F913F91B3
:100E00002F910F900FBE0F901F901895CF92DF92E9
:100E1000EF92FF92CF93DF93EC01603871053CF4C1
:100E200062388FEF78072CF462E87FEF02C06FE73B
:100E300070E08E819F81C884D9840D2C000CEE084F
:100E4000FF08AB01770F660B770B9A01AB012258B5
:100E50003F4F4F4F5F4F092E000CAA0BBB0BBC013D
:100E6000CD016C197D098E099F090E94CE1D2DEFC1
:100E700030E040E050E00E949A19C20ED31EE41EFA
:100E8000F51EDB82CA82CE010E94DE02811109C0FA
:100E90008A859B850E94DF03809170008260809329
:100EA0007000DF91CF91FF90EF90DF90CF90089589
:100EB0001F920F920FB60F9211242F933F934F93CF
:100EC0005F936F937F938F939F93AF93BF93EF93B2
:100ED000FF938EB580934F0180914E01882351F08E
:100EE0008FEF8EBD10924E0110924D0110924C0169
:100EF00018950FC080914C0190914D01FC01EE0FAF
:100F0000FF1F8E0F9F1FFC01E15FFB4F828181500D
:100F10008EBD80914C0190914D01019690934D01B1
:100F200080934C0104971CF081E080934E0181E096
:100F300080934B0190914F01911103C080934A011E
:100F40000AC090914F019F3F39F48093490110925C
:100F5000480110924701189580914A01882309F4AD
:100F60006FC0E0914F018E2F90E0FC013497E1318A
:100F7000F10508F05EC0EC5CFF4F0C94FE1D809103
:100F80001303882379F01092AE031092AD031092F0
:100F9000B0031092AF031092B2031092B1031092FB
:100FA000130347C080913A0190913B01A0913C010D
:100FB000B0913D0121E0209313038093B4039093FB
:100FC000B503A093B603B093B70333C081E090E0BC
:100FD00090931903809318032CC010921903109258
:100FE000180327C0109214031092150310921603D1
:100FF000109217031EC080E090E0A0ECBFE3809346
:10100000140390931503A0931603B093170311C014
:1010100080E090E0A0E8BFE3F2CF62E070E005C0BE
:1010200061E070E002C060E070E083E193E00E9464
:101030005B0310924A01109248011092470141C08F
:10104000809149018823E9F18091470190914801FD
:101050009C012F5F3F4F309348012093470181301F
:10106000910579F082309105B1F0892BF1F48091EE
:101070004F0190E08F5791099093AE038093AD0399
:101080001DC080914F0190E08F5791099093B0035C
:101090008093AF0313C080914F0190E08F57910967
:1010A0009093B2038093B10303C02330310534F031
:1010B00010924801109247011092490181E08093FB
:1010C0003E01FF91EF91BF91AF919F918F917F91E1
:1010D0006F915F914F913F912F910F900FBE0F90A5
:1010E0001F90189590913A029111FCCF91E0909346
:1010F0003A02409339022FEF2093380210923702C0
:10110000260F209336029093350290913502880F76
:10111000892B8093350280913402813061F41092E2
:101120003402809135028093BB008091BC0083FD26
:10113000F8CF85EC01C085EE8093BC0080913A0227
:101140008130E1F380913702861710F46091370205
:10115000A4E1B2E0E4EFF1E080E0861721F09D9198
:1011600091938F5FFACF0895282F3091F301313298
:1011700008F04AC080913A028111FCCF909130046E
:1011800042E040933A02209339022FEF2093380235
:101190001092370230933602E3EDF1E0A4E1B2E0C1
:1011A00020E0321721F041914D932F5FFACF10923A
:1011B000350220913502990F922B90933502909130
:1011C0003402913061F41092340290913502909380
:1011D000BB009091BC0093FDF8CF95EC01C095EE5B
:1011E0009093BC0090913A029230E1F390913802D2
:1011F0009F3F79F080913802803241F0809138022F
:10120000803331F084E005C081E003C082E001C09A
:1012100083E01092D2011092F3011092D10108954F
:1012200091E09093D101809330041092D2011092FA
:10123000F3010895682F87E093E00C9475028132E2
:1012400008F080E241E0682F86E70E947208109261
:10125000D0018093CF01089581E00C94B40890E010
:10126000FC01E25BFE4F2491FC01E65CFE4F8491A1
:10127000882399F090E0880F991FFC01E05DFE4FF4
:10128000A591B491FC01EA5DFE4F859194918FB7D1
:10129000F894EC91E22BEC938FBF089590E0FC0161
:1012A000EE5EFE4F2491FC01E25BFE4F3491FC01A7
:1012B000E65CFE4FE491EE2309F43CC0222339F1B1
:1012C000233091F038F42130A9F0223001F584B5B3
:1012D0008F7D12C0273091F02830A1F02430B9F46E
:1012E000809180008F7D03C0809180008F778093F4
:1012F00080000DC084B58F7784BD09C08091B00097
:101300008F7703C08091B0008F7D8093B000F0E0B4
:10131000EE0FFF1FEA5DFE4FA591B4919FB7F894C1
:10132000611104C08C913095382302C0EC913E2BA2
:101330003C939FBF08953FB7F89480912C049091FF
:101340002D04A0912E04B0912F0426B5A89B05C0B2
:101350002F3F19F00196A11DB11D3FBFBA2FA92F34
:10136000982F8827820F911DA11DB11DBC01CD01B1
:1013700042E0660F771F881F991F4A95D1F708959D
:101380004F925F926F927F928F929F92AF92BF9295
:10139000CF92DF92EF92FF92CF93DF93CDB7DEB77C
:1013A000A4970FB6F894DEBF0FBECDBF0E949B0975
:1013B0000E949B09609365027093660280936702A6
:1013C0009093680280914F0290915002A091510237
:1013D000B0915202BC01CD0190582FE832EC45EF9C
:1013E0005CE30E94FA1C2B013C0180915302909116
:1013F0005402A0915502B0915602BC01CD01905803
:101400002FE832EC45EF5CE30E94FA1C4B015C01D3
:101410002FE832EC45EF5CE360915702709158027F
:101420008091590290915A020E94FA1C6B017C0132
:10143000C301B2010E94F41A6D837E838F83988763
:10144000C501B4010E94F41A69877A878B879C874B
:10145000C701B6010E94F41A6D877E878F87988B2B
:1014600080913F0290914002A0914102B0914202CE
:10147000898B9A8BAB8BBC8BBC01CD010E94F41A7B
:101480006D8B7E8B8F8B988F80913B0290913C026D
:10149000A0913D02B0913E02898F9A8FAB8FBC8F95
:1014A000BC01CD010E94F41A69837A838B839C83EB
:1014B000C301B2010E94671D6D8F7E8F8F8F98A32D
:1014C000C501B4010E94671D69A37AA38BA39CA3E5
:1014D000C701B6010E94671D2B013C0169897A8909
:1014E0008B899C890E94671D698B7A8B8B8B9C8B67
:1014F000698D7A8D8B8D9C8D0E94671D6B017C019F
:1015000029813A814B815C816D857E858F859889A3
:101510000E94FA1C29893A894B895C890E94FA1C2D
:101520004B015C01A7019601C301B2010E94FA1CA4
:101530009B01AC01C501B4010E94F6194B015C018D
:10154000A70196016D857E858F8598890E94FA1C7A
:101550006B017C01A301920169817A818B819C815D
:101560000E94FA1C29893A894B895C890E94FA1CDD
:101570009B01AC01C701B6010E94F5196D877E87FA
:101580008F87988B9B01AC0169A17AA18BA19CA14B
:101590000E94FA1C6B017C0129813A814B815C819C
:1015A00069857A858B859C850E94FA1C2D893E89E8
:1015B0004F89588D0E94FA1C9B01AC01C701B601EE
:1015C0000E94F5192B013C016D8D7E8D8F8D98A1A8
:1015D0009058A50194010E94FA1C6B017C01A301A3
:1015E00092016D817E818F8198850E94FA1C9B01FA
:1015F000AC01C701B6010E94F5196B017C01A50180
:1016000094016D817E818F8198850E94FA1C4B0127
:101610005C01A30192016D8D7E8D8F8D98A10E943A
:10162000FA1C9B01AC01C501B4010E94F5194B01E4
:101630005C01A70196010E94901A6D837E838F83BF
:10164000988760933F027093400280934102909389
:101650004202A5019401C501B4010E94FA1C4B018C
:101660005C01A7019601C701B6010E94FA1C9B010B
:10167000AC01C501B4010E94F6190E94751D6B01F1
:101680007C0129813A814B815C816D897E898F89BA
:10169000988D0E94FA1C29A13AA14BA15CA10E943D
:1016A000FA1C4B015C012D853E854F855889698563
:1016B0007A858B859C850E94FA1C9B01AC01C50133
:1016C000B4010E94F619A70196010E94901A698739
:1016D0007A878B879C8760933B0270933C02809350
:1016E0003D0290933E028091430290914402A0916A
:1016F0004502B091460289839A83AB83BC8320E084
:1017000030E0A901BC01CD010E94ED1C181634F097
:1017100069817A818B819C81905804C069817A812A
:101720008B819C819B01AC010E94FA1C6B017C01A6
:101730008090470290904802A0904902B0904A02DF
:1017400020E030E0A901C501B4010E94ED1C18168B
:1017500024F0C501B401905802C0C501B4019B0139
:10176000AC010E94FA1CA70196010E94F6196B01B8
:101770007C0140904B0250904C0260904D02709062
:101780004E0220E030E0A901C301B2010E94ED1C2D
:10179000181624F0C301B201905802C0C301B2016F
:1017A0009B01AC010E94FA1CA70196010E94F61948
:1017B0000E94751D6B017C0126E636E646E65FE376
:1017C0000E94ED1C18160CF065C02DEC3CEC4CE8AA
:1017D0005FE3C701B6010E94EF1A87FF5BC0A30158
:1017E00092015058C501B4010E94901A2B013C018E
:1017F00069817A818B819C819058A70196015F77DE
:101800000E94F91A0E94621A6B017C0126E636E6F4
:1018100046E65FE36D817E818F8198850E94FA1C88
:101820004B015C012DEC3CEC4CEC5DE3C301B201DF
:101830000E94FA1C9B01AC01C501B4010E94F6197B
:1018400060933F0270934002809341029093420262
:1018500026E636E646E65FE369857A858B859C85D4
:101860000E94FA1C4B015C012DEC3CEC4CEC5DE35E
:10187000C701B6010E94FA1C9B01AC01C501B4016D
:101880000E94F61960933B0270933C0280933D02E4
:1018900090933E02A4960FB6F894DEBF0FBECDBF64
:1018A000DF91CF91FF90EF90DF90CF90BF90AF90FE
:1018B0009F908F907F906F905F904F9008958F9240
:1018C0009F92AF92BF92CF92DF92EF92FF926B0105
:1018D0007C010E949B094B015C01C114D104E1040D
:1018E000F104F1F00E949B09DC01CB0188199909F0
:1018F000AA09BB09883E9340A105B10570F321E018
:10190000C21AD108E108F10888EE880E83E0981E1B
:10191000A11CB11CC114D104E104F10419F7DDCFFD
:10192000FF90EF90DF90CF90BF90AF909F908F90FF
:1019300008951F920F920FB60F9211242F933F9389
:101940008F939F93AF93BF938091CB019091CC01E4
:10195000A091CD01B091CE0130912B0423E0230F53
:101960002D3720F40196A11DB11D05C026E8230FD7
:101970000296A11DB11D20932B048093CB0190935F
:10198000CC01A093CD01B093CE0180912C04909115
:101990002D04A0912E04B0912F040196A11DB11D1C
:1019A00080932C0490932D04A0932E04B0932F04C5
:1019B000BF91AF919F918F913F912F910F900FBE4B
:1019C0000F901F901895CF93DF93CDB7DEB7C25617
:1019D000D1090FB6F894DEBF0FBECDBF789484B5A1
:1019E000826084BD84B5816084BD85B5826085BD1B
:1019F00085B5816085BD80916E00816080936E00A9
:101A0000109281008091810082608093810080919A
:101A1000810081608093810080918000816080934B
:101A200080008091B10084608093B1008091B0000B
:101A300081608093B00080917A00846080937A0006
:101A400080917A00826080937A0080917A00816030
:101A500080937A0080917A00806880937A00109257
:101A6000C100E0917A02F0917B0282E08083E091F4
:101A70007602F09177021082E0917802F09179027B
:101A80008FEC808310928202E0917E02F0917F02BF
:101A900086E08083E0917C02F0917D02808180610C
:101AA0008083E0917C02F0917D0280818860808358
:101AB000E0917C02F0917D02808180688083E091DA
:101AC0007C02F0917D0280818F7D808320E030E078
:101AD0003901812C80911B0490911C048430910564
:101AE00090F4AC014F5F5F4F50931C0440931B0474
:101AF000FC01EE0FFF1F8E0F9F1FFC01E15FFB4FEC
:101B00006082718282822F5F3F4F2430310501F75E
:101B10001092D0011092CF011092D2011092F301D5
:101B200010923A0211E0109339021092340261E0EF
:101B300082E10E944E0961E083E10E944E0980919A
:101B4000B9008E7F8093B9008091B9008D7F80931A
:101B5000B90088E48093B80085E48093BC008AE1F2
:101B600092E090933901809338018BE192E0909359
:101B700037018093360188E60E9410098BE690E0D9
:101B80000E941A0980E090E00E941A0981E00E94F8
:101B9000B40868EE73E080E090E00E945F0C109360
:101BA0000A0480E090E4A9E7B4E480930B049093E6
:101BB0000C04A0930D04B0930E0486E70E94100954
:101BC0008EE190E00E941A090E942C096AE070E000
:101BD00080E090E00E945F0C5AEEE52E53E0F52E77
:101BE00000EA10E086E70E941009C8010E941A0965
:101BF0000E942C0941E062E086E70E947208109280
:101C0000D0018093CF0187E093E00E942C02B82E90
:101C100087E093E00E942C02DB2CC12C8C299D29AB
:101C2000D7018D939D937D010E5F1F4F0E3A1105D5
:101C3000C9F68091EA039091EB039F709093EB03B8
:101C40008093EA031092F9031092F80368EE73E0B0
:101C500080E090E00E945F0C8FE2EBE3F2E0DE01B7
:101C6000119601900D928A95E1F768E070E08AE79D
:101C700093E00E94500667E070E08BE893E00E94DA
:101C8000500664E070E08CE993E00E94500665E045
:101C900070E087E493E00E94500666E070E086E31F
:101CA00093E00E94500663E070E089E693E00E94B2
:101CB000500662E070E088E593E00E9450061092C2
:101CC000AE031092AD031092B0031092AF031092C6
:101CD000B2031092B103109213038FE2FE0131960A
:101CE000A9EBB3E001900D928A95E1F71092B3034E
:101CF00081E090E090931B0380931A038093B803D4
:101D000068EB7BE080E090E00E945F0CF8948CE050
:101D10000E942F098CB580648CBD8FEF8EBD8CB571
:101D200080688CBD78948EE190E0A0E0B0E0809374
:101D30001D0490931E04A0931F04B09320042FB79A
:101D4000F8948091CB019091CC01A091CD01B091FC
:101D5000CE012FBF8093210490932204A0932304EB
:101D6000B093240410922A0410922904109227049C
:101D7000109228048091290490912A04892B31F52E
:101D80002FB7F8948091CB019091CC01A091CD0117
:101D9000B091CE012FBF4091210450912204609157
:101DA000230470912404841B950BA60BB70B409160
:101DB0001D0450911E0460911F047091200484172B
:101DC0009507A607B70710F00C94641880912904B2
:101DD00090912A04019711F00C9460182FB7F89491
:101DE0008091CB019091CC01A091CD01B091CE0119
:101DF0002FBF8093210490932204A0932304B093D7
:101E0000240410922A04109229041092270410929C
:101E10002804B1E4B0937C0080917A0080648093C0
:101E20007A0080917A0086FDFCCF609178008091E5
:101E3000790070E0782B072E000C880B990B0E941C
:101E4000A31B2AEA31EF42E050E40E94F91A6093A2
:101E500043017093440180934501909346010E9491
:101E60009B0900913F011091400120914101309167
:101E70004201DC01CB01801B910BA20BB30B813221
:101E80009E44A105B10560F00E949B0960933F014B
:101E900070934001809341019093420181E001C021
:101EA00080E02091E8033091E903232BA9F48823F3
:101EB00099F086E70E9410098AE490E00E941A09CE
:101EC0000E942C098091E8039091E9030196909378
:101ED000E9038093E80380E02091E8033091E9036F
:101EE0002130310509F06BC0882309F468C086E70A
:101EF0000E94100980E090E00E941A090E942C09BB
:101F000083E090E00E941F091092FA031092FB03F5
:101F10001092FC031092FD0387E093E00E942C02D4
:101F20004C01990FAA08BB088092FA039092FB0318
:101F3000A092FC03B092FD0387E093E00E942C0284
:101F4000BA2CA92C982C88246C01990FEE08FF0854
:101F5000C828D928EA28FB28C092FA03D092FB03AC
:101F6000E092FC03F092FD0387E093E00E942C02D4
:101F7000FE2CED2CDC2CCC24092E000CAA0BBB0B68
:101F8000C82AD92AEA2AFB2AC092FA03D092FB0374
:101F9000E092FC03F092FD0386E70E9410098AE5B7
:101FA00090E00E941A090E942C098091E803909108
:101FB000E90301969093E9038093E80380E0209180
:101FC000E8033091E9032230310509F0CBC48823BE
:101FD00009F4C8C486E70E94100980E090E00E94DE
:101FE0001A090E942C0983E090E00E941F091092B8
:101FF000FE031092FF03109200041092010487E088
:1020000093E00E942C024C01990FAA08BB08809211
:10201000FE039092FF03A0920004B092010487E0B7
:1020200093E00E942C02BA2CA92C982C88246C01D5
:10203000990FEE08FF08C828D928EA28FB28C09283
:10204000FE03D092FF03E0920004F092010487E0C7
:1020500093E00E942C02FE2CED2CDC2CCC24092ECB
:10206000000CAA0BBB0BC82AD92AEA2AFB2AC09269
:10207000FE03D092FF03E0920004F09201048091ED
:10208000F4039091F503A0E0B0E0BA2FA92F982FA8
:10209000882797018601081B190B2A0B3B0B08ABFD
:1020A00019AB2AAB3BAB10910A0465961FAF65973D
:1020B000E091F003F091F103E090EC03F090ED0378
:1020C0002091FA033091FB034091FC035091FD03F2
:1020D00064962CAF3DAF4EAF5FAF6497113009F0FF
:1020E0009BC0970140E050E060E070E080E090E04D
:1020F00000E10E946E1F19012A013B014C01BF0142
:1021000080E090E028A939A94AA95BA90E945D1E38
:10211000F22E032F142FB52FF62FE72FD82EE92EEE
:10212000A0E00E94C31F5CF4AFE70E94AE1FF22E36
:10213000032F142FB52FF62FE72FD82EE92E2F2D92
:10214000302F412F5B2F6F2F7E2F8D2D9E2D07E07F
:102150000E94871F59016A017B018C019101A20134
:10216000B301C4010E94A51F25962FAF259726967F
:102170003FAF269727964FAF279728965FAF2897B0
:1021800029966FAF29972A967FAF2A972B968FAF04
:102190002B972C969FAF2C97E091F203F091F303CD
:1021A0008090EE039090EF03940140E050E060E0F7
:1021B00070E080E090E001E10E946E1F19012A01A9
:1021C0003B014C01BF0180E090E028A939A94AA950
:1021D0005BA90E945D1EF22E032F142FB52FF62F40
:1021E000E72FD82EE92EA0E00E94C31F5CF4AFE3D6
:1021F0000E94AE1FF22E032F142FB52FF62FE72FBC
:10220000D82EE92E2F2D302F412F5B2F6F2F7E2FB1
:102210008D2D9E2D06E0A4C0BF0180E090E028A98E
:1022200039A94AA95BA90E945D1ED22E032F142F43
:10223000B52FF62FE72FB82EC92EA0E00E94C31F9E
:1022400084F421503F4F4F4F5F4F6F4F7F4F8F4F61
:102250009F4FD22E032F142FB52FF62FE72FB82E16
:10226000C92E2D2D302F412F5B2F6F2F7E2F8B2DC1
:102270009C2D08E00E94871F39014A01B62FA72F25
:10228000F82FE92FC12CD12C9701A60160E070E056
:1022900080E090E00FE00E946E1F59016A017B010F
:1022A0008C019301A4016B2F7A2F8F2F9E2F0E94F8
:1022B000A51F25962FAF259726963FAF26972796E1
:1022C0004FAF279728965FAF289729966FAF29972A
:1022D0002A967FAF2A972B968FAF2B972C969FAF7E
:1022E0002C97E091F203F091F3038090EE0390902D
:1022F000EF03940140E050E060E070E080E090E0A7
:1023000000E10E946E1F19012A013B014C01BF012F
:1023100080E090E028A939A94AA95BA90E945D1E26
:10232000F22E032F142FB52FF62FE72FD82EE92EDC
:10233000A0E00E94C31F5CF4AFE70E94AE1FF22E24
:10234000032F142FB52FF62FE72FD82EE92E2F2D80
:10235000302F412F5B2F6F2F7E2F8D2D9E2D07E06D
:102360000E94871F59016A017B018C019101A20122
:10237000B301C4010E94A51F21962FAF2197229679
:102380003FAF229723964FAF239724965FAF2497B2
:102390002D966FAF2D972E967FAF2E972F968FAFDE
:1023A0002F9760969FAF609748A859A86AA87BA806
:1023B000770C4408542C32016091F6037091F703B6
:1023C00080E090E028A939A94AA95BA90E945D1E76
:1023D000F22E032F142FB52FF62FE72FD82EE92E2C
:1023E000A0E00E94C31F84F42150310940485F4F90
:1023F0006F4F7F4F8F4F9F4FF22E032F142FB52F0C
:10240000F62FE72FD82EE92E2F2D302F412F5B2FBF
:102410006F2F7E2F8D2D9E2D07E10E94871F490172
:102420005A01950184010053184F2F4F3F4F0CAFB5
:102430001DAF2EAF3FAF65961FAD6597113009F008
:102440007EC02CAD3DAD4EAD5FAD203D374041056A
:1024500051050CF038C168A979A98AA99BA92BE07C
:1024600030E040E050E00E945D1EA8A8B9A8CAA8CC
:10247000DBA8E42CF42C042D142D0E94041EF22E53
:10248000032F142FB52FF62FE72FD82EE92EA0E01B
:102490000E94C31F84F42150310941095109684F3A
:1024A0007F4F8F4F9F4FF22E032F142FB52FF62FF4
:1024B000E72FD82EE92E2F2D302F412F5B2F6F2F96
:1024C0007E2F8D2D9E2D03E20E94871F28AB39ABF6
:1024D0004AAB5BABAFE1B0E08CAC9DACAEACBFAC9B
:1024E00070ED871A77E0970AA108B108A501940159
:1024F0000E94B9199B01AC01C501B4010E94CE1D17
:102500007B018C01F3E015950795F794E794FA9514
:10251000D1F7AFE3B0E0A50194010E94B9199B0186
:10252000AC01C501B4010E94CE1D2B013C01A5E008
:102530007594679457944794AA95D1F7CEC08CAD03
:102540009DADAEADBFAD803D9740A105B1050CF08E
:10255000A6C068A979A98AA99BA923E030E040E038
:1025600050E00E945D1EA8A8B9A8CAA8DBA8E42C68
:10257000F42C042D142D0E94041EF22E032F142F70
:10258000B52FF62FE72FD82EE92EA0E00E94C31F0B
:1025900084F421503109410951096E4F7F4F8F4F0B
:1025A0009F4FF22E032F142FB52FF62FE72FD82E83
:1025B000E92E2F2D302F412F5B2F6F2F7E2F8D2D4A
:1025C0009E2D01E20E94871F28AB39AB4AAB5BAB63
:1025D000A3E0B0E08CAC9DACAEACBFACF0ED8F1A1C
:1025E000F7E09F0AA108B108A50194010E94B9195A
:1025F0009B01AC01C501B4010E94CE1D7B018C0181
:1026000015950795F794E794A5E0B0E0A50194012E
:102610000E94B9199B01AC01C501B4010E94CE1DF5
:102620002B013C01E3E07594679457944794EA9535
:10263000D1F72CAD3DAD4EAD5FAD213C69EF360716
:102640006FEF460756070CF048C0A7E0B0E049011D
:102650005A017CED870E75E0971EA11CB11CA501E7
:1026600094010E94B9199B01AC01C501B4010E94FB
:10267000CE1DE60EF71E081F191FA501940162E08A
:10268000220F331F441F551F6A95D1F7C501B401AE
:102690000E94CE1D460E571E681E791E1EC0A50143
:1026A0009401C501B4010E94CE1D7B018C0144E060
:1026B00015950795F794E7944A95D1F718AA19AAA2
:1026C0001AAA1BAA07C018AA19AA1AAA1BAAE12C9F
:1026D000F12C8701412C512C3201D801C701BB0FCD
:1026E000880B982FDC0188AF99AFAAAFBBAF2196BA
:1026F0002FAD219722963FAD229723964FAD23977A
:1027000024965FAD24972D966FAD2D972E967FADB5
:102710002E972F968FAD2F9760969FAD609757019C
:102720006801E8ACFE2C0E2D1E2D0E94BA1F922EC1
:10273000832E342E252E21966FAF219722967FAFC0
:10274000229723968FAF239724969FAF24978301D8
:102750007201110FEE08FE2C8701E8AEF9AE0AAF48
:102760001BAF25962FAD259726963FAD269727962A
:102770004FAD279728965FAD289729966FAD29977B
:102780002A967FAD2A972B968FAD2B972C969FADCF
:102790002C9752016301E8ACFE2C0E2D1E2D0E94D9
:1027A000BA1F59016A017B018C018CAD9DADAEADA4
:1027B000BFAD28A939A94AA95BA9821B930BA40B19
:1027C000B50B65963FAD6597809302049093030423
:1027D000A0930404B0930504313009F059C0649605
:1027E0006CAD7DAD8EAD9FAD6497AB01BC0180E05B
:1027F00090E0DC0148AB59AB6AAB7BAB8CAB9DABDB
:10280000AEABBFAB9A01AB0160E070E080E090E05E
:102810000E94041EF22E032F142FB52FF62FE72F40
:10282000D82EE92EA0E00E94C31F84F42150310964
:10283000404E5F4F6F4F7F4F8F4F9F4FF22E032FB2
:10284000142FB52FF62FE72FD82EE92E2F2D302F4E
:10285000412F5B2F6F2F7E2F8D2D9E2D05E10E9426
:10286000871FA92CB82CC32CD22C2196EFAC219712
:102870002296FFAC229723960FAD239724961FAD87
:1028800024970E94BA1FA12CB12CF2E3CF2E57C07F
:1028900064964CAD5DAD6EAD7FAD64979A01AB01B2
:1028A00060E070E0CB0128AB39AB4AAB5BAB6CAB03
:1028B0007DAB8EAB9FAB60E070E080E090E00E946B
:1028C000041EF22E032F142FB52FF62FE72FD82E2C
:1028D000E92EA0E00E94C31F84F421503109404E2C
:1028E0005F4F6F4F7F4F8F4F9F4FF22E032F142F4D
:1028F000B52FF62FE72FD82EE92E2F2D302F412F71
:102900005B2F6F2F7E2F8D2D9E2D05E10E94871F3F
:10291000A92CB82CC32CD22C2196EFAC219722964F
:10292000FFAC229723960FAD239724961FAD2497D3
:102930000E94BA1FA12CE0E4BE2ECC24C394D12C5B
:10294000E12CF12C00E010E00E94991E2093060477
:102950003093070440930804509309041092E9034C
:102960001092E803609106047091070480910804B6
:10297000909109040E94A31B60933A0170933B015C
:1029800080933C0190933D0188E60E9410098BE3FF
:1029900090E00E941A0980E00E94B40841E06EE0D5
:1029A00088E60E9472081092D0018093CF010E94A5
:1029B0009B0940916302509164022091650230911D
:1029C0006602DA01A21BB30B9D01260F371F30935D
:1029D00064022093630260936502709366028093A1
:1029E00067029093680287E093E00E942C02182F00
:1029F00087E093E00E942C0267961FAF6797669668
:102A00001FAE66976796EEADFFAD67978E2B9F2B37
:102A1000BC01990F880B990B0E94A31B6093430282
:102A200070934402809345029093460287E093E0BE
:102A30000E942C02182F87E093E00E942C026996D6
:102A40001FAF699768961FAE68976996EEACFFACAA
:102A500069978E299F29BC01990F880B990B0E94B9
:102A6000A31B60934702709348028093490290939E
:102A70004A0287E093E00E942C02182F87E093E03F
:102A80000E942C026B961FAF6B976A961FAE6A97D7
:102A90006B960EAD1FAD6B97802B912BBC01990FE0
:102AA000880B990B0E94A31B60934B0270934C02FE
:102AB00080934D0290934E0287E093E00E942C0297
:102AC000182F87E093E00E942C026D961FAF6D9740
:102AD0006C961FAE6C976D962EAD3FAD6D97822BA9
:102AE000932BBC01990F880B990B0E94A31B609339
:102AF0005B0270935C0280935D0290935E0287E0BC
:102B000093E00E942C02182F87E093E00E942C0291
:102B10006F961FAF6F976E961FAE6E976F964EAD06
:102B20005FAD6F97842B952BBC01990F880B990B88
:102B30000E94A31B60934F02709350028093510236
:102B40009093520287E093E00E942C02182F87E0B6
:102B500093E00E942C02A1961FAFA197A0961FAEF2
:102B6000A097A1966EAD7FADA197862B972BBC0148
:102B7000990F880B990B0E94A31B609353027093CB
:102B80005402809355029093560287E093E00E948E
:102B90002C02F82E87E093E00E942C028C0120E0AA
:102BA00030E04AEA53E460915B0270915C028091EC
:102BB0005D0290915E020E94F91A28EB3EE142E12B
:102BC00052E40E94F61960935B0270935C0280935A
:102BD0005D0290935E0220E138E044EA53E46091A4
:102BE00043027091440280914502909146020E94F6
:102BF000F5190E946B1B072E000C880B990B0E9485
:102C0000A31B2BE73EEF43E856E40E94F91A6093BA
:102C1000430270934402809345029093460222E55A
:102C200038EB47EA53E46091470270914802809183
:102C3000490290914A020E94F5190E946B1B072ECF
:102C4000000C880B990B0E94A31B25E838EB41E888
:102C500056E40E94F91A60934702709348028093E9
:102C6000490290934A0229EC3EE44AEB54E4609115
:102C70004B0270914C0280914D0290914E020E9445
:102C8000F5190E946B1B719561957109072E000C57
:102C9000880B990B0E94A31B25E034E744E856E417
:102CA0000E94F91A60934B0270934C0280934D027C
:102CB00090934E0229E831EA4EEA53E460914F02C4
:102CC0007091500280915102909152020E94F51928
:102CD00020E030E44EE455E40E94F91A60934F027C
:102CE0007093500280935102909352022EE03DE87F
:102CF0004AE153E46091530270915402809155026D
:102D0000909156020E94F51920E030E641E555E425
:102D10000E94F91A609353027093540280935502F3
:102D200090935602A396FFAEA397A2961FAEA297CA
:102D3000A3966EAD7FADA397602B712B072E000C71
:102D4000880B990B0E94A31B21ED32E240E353E470
:102D50000E94F61920E030E048E455E40E94F91A98
:102D600060935702709358028093590290935A02CD
:102D70000E94C0090E94C009609143017091440102
:102D800080914501909146010E94721B6093170447
:102D900060913A0170913B0180913C0190913D011D
:102DA00020E030E045E754E40E94F5190E94721BD0
:102DB00060931A0460913B0270913C0280913D0245
:102DC00090913E020E94721B6093140460913F0236
:102DD0007091400280914102909142020E94721BC8
:102DE0006093110480913E01882309F49AC0809178
:102DF0001303811115C060E070E086E393E00E9448
:102E0000060760E070E087E493E00E94060760E058
:102E100070E088E593E00E94060760E070E07BC008
:102E20008091AD039091AE034091AF035091B003F8
:102E30002091B1033091B203841B950B820F931F35
:102E400020911C0330911D03829FB001839F700D60
:102E5000929F700D112486E393E00E9406078091F3
:102E6000AF039091B0034091AD035091AE03209118
:102E7000B1033091B203919581959109841B950B13
:102E8000821B930B20911E0330911F03829FB00180
:102E9000839F700D929F700D112487E493E00E9430
:102EA00006072091AF033091B0034091AD035091DC
:102EB000AE038091B1039091B203841B950B821BEA
:102EC000930B2091200330912103829FB001839FB7
:102ED000700D929F700D112488E593E00E94060703
:102EE0008091AD039091AE034091AF035091B00338
:102EF0002091B1033091B203841B950B821B930B7D
:102F00002091220330912303829FB001839F700D93
:102F1000929F700D112489E693E00E94060710929B
:102F20003E01C0903A01D0903B01E0903C01F0900E
:102F30003D018091B803882309F4C2C08091130336
:102F400081110FC060E070E08AE793E00E940607FD
:102F500060E070E08BE893E00E94060760E070E0BC
:102F6000ABC08091180390911903181619060CF440
:102F7000B3C0609114037091150380911603909172
:102F8000170320E030E0A9010E94ED1C18160CF494
:102F9000A3C08091B303882351F0C092B403D092B0
:102FA000B503E092B603F092B7031092B30300E0CA
:102FB00010E08091B3038111B4C06091B4037091AB
:102FC000B5038091B6039091B703A70196010E94C3
:102FD000F519905820E030E040E252E40E94FA1CDB
:102FE0000E946B1B7B01B801110F880B990B0E948B
:102FF000A31B4B015C01B701FF0C880B990B0E94CE
:10300000A31B6B017C01E0911A03F0911B03EE0FEF
:10301000FF1FEE0FFF1FED5EFC4F2789308D418DA6
:10302000528DC701B6010E94F91AA50194010E94B0
:10303000F6190E946B1B8BE893E00E94060720E0C4
:1030400030E0A901C701B6010E94F6196B017C01AD
:10305000E0911A03F0911B03EE0FFF1FEE0FFF1F0D
:10306000ED5EFC4F2789308D418D528DC701B60131
:103070000E94F91AA50194010E94F6190E946B1B87
:103080008AE793E00E940607E0911A03F0911B0380
:10309000EE0FFF1FEE0FFF1FED5EFC4F2789308DF7
:1030A000418D528DC701B6010E94F91AA501940104
:1030B0000E94F6190E946B1B8CE993E00E940607A0
:1030C0000E94DE010C94BA0E81E090E090932A04F5
:1030D000809329040C94E60E81E08093B3038090E2
:1030E000140390901503A0901603B09017036091FD
:1030F000180370911903072E000C880B990B0E947E
:10310000A31B9B01AC01C501B4010E94F51920E08D
:1031100030E04EEF52E40E94FA1C0E946B1B8B01C0
:1031200048CFE12CF12C5FCFFC01809162018C3003
:10313000A8F491E0980F90936201868790E0DC01FB
:10314000AA0FBB1F8A0F9B1FDC01AC59BE4F88EB37
:103150009BE012969C938E93119702C08FEF868707
:10316000F8941092B0001092B1001092B2008FEF5C
:103170008093B3008091B10088608093B10080910A
:10318000B10085608093B100809170001092700052
:1031900084EA96E09783868384E195E0918780872F
:1031A0002681378180859185281B390B4AE0429F13
:1031B000C001439F900D112464E670E00E94EA1D57
:1031C000758364838CED95E0918380838081918108
:1031D000938382838FEF9FEF95878487809150013F
:1031E0009091510193878287DC01AA0FBB1FAE5AD1
:1031F000BE4FED93FC930196909351018093500143
:1032000078940895EAE6F2E01382128288EE93E061
:10321000A0E0B0E084839583A683B78326E131E004
:103220003183208325EC30E03587248724EC30E09F
:103230003787268720EC30E0318B208B21EC30E083
:10324000338B228B22EC30E0358B248B26EC30E064
:10325000378B268B118E128E138E148EE7E0F3E0DF
:103260001382128284839583A683B78388E291E0D8
:1032700091838083EDE1F4E0108211821282138247
:103280001482158216821782118610861286138682
:1032900081E090E09587848710921C0410921B04B3
:1032A000109236051092350540E050EA60E874E46B
:1032B00040930B0450930C0460930D0470930E0420
:1032C000E3E1F3E02FEF3FEF328721873487238755
:1032D00096878587908B8787928B818B948B838B46
:1032E000968B858B8CE0E6E0F1E0AAE2B3E00190FA
:1032F0000D928A95E1F786E393E00E94941887E4A3
:1033000093E00E94941888E593E00E94941889E65F
:1033100093E00E9494188AE793E00E9494188BE847
:1033200093E00E9494188CE993E00E949418109204
:10333000B8030895052E97FB1EF400940E94B1195E
:1033400057FD07D00E94C41907FC03D04EF40C941B
:10335000B11950954095309521953F4F4F4F5F4F94
:10336000089590958095709561957F4F8F4F9F4FF1
:1033700008950E94E619A59F900DB49F900DA49FFB
:10338000800D911D11240895A1E21A2EAA1BBB1BCA
:10339000FD010DC0AA1FBB1FEE1FFF1FA217B30721
:1033A000E407F50720F0A21BB30BE40BF50B661F37
:1033B000771F881F991F1A9469F7609570958095FB
:1033C00090959B01AC01BD01CF010895A29FB00172
:1033D000B39FC001A39F700D811D1124911DB29F49
:1033E000700D811D1124911D08955058BB27AA27E7
:1033F0000E940D1A0C949F1C0E94661C38F00E94BB
:103400006D1C20F039F49F3F19F426F40C94281C0D
:103410000EF4E095E7FB0C94221CE92F0E94C41CDB
:1034200058F3BA17620773078407950720F079F4F9
:10343000A6F50C94E61C0EF4E0950B2EBA2FA02DE9
:103440000B01B90190010C01CA01A0011124FF2751
:10345000591B99F0593F50F4503E68F11A16F0404C
:10346000A22F232F342F4427585FF3CF469537954B
:103470002795A795F0405395C9F77EF41F16BA0B10
:10348000620B730B840BBAF09150A1F0FF0FBB1FBE
:10349000661F771F881FC2F70EC0BA0F621F731F07
:1034A000841F48F4879577956795B795F7959E3F64
:1034B00008F0B0CF9395880F08F09927EE0F9795F5
:1034C000879508959F939F77EEE389379E0728F4A9
:1034D000EAE8F0E00E94521C0CC00E94DE1B9058EB
:1034E000A2EA2AED3FE049EC5FE30E940D1A0E9438
:1034F0009F1C0F9007FC905808950E94661C60F076
:1035000080E891E009F49EEF0E946D1C28F040E8ED
:1035100051E071F45EEF0CC00C94281C0C94E61C76
:10352000E92FE0780E94C41C40F3092E052AB1F36C
:10353000261737074807590738F00E2E07F8E025F9
:1035400069F0E025E0640AC0EF6307F8009407FA29
:10355000DB01B9019D01DC01CA01AD01EF930E94BD
:10356000101B0E949F1C0E94C01A5F91552339F0C6
:103570002BED3FE049E450FD49EC0C94F619089519
:10358000DF93DD27B92FBF7740E85FE316161706F4
:1035900048075B0718F4D92F0E94F21C9F938F9362
:1035A0007F936F930E94B51DEEE9F0E00E942B1C03
:1035B0000E949F1C2F913F914F915F910E940D1D82
:1035C000DD2351F09058A2EA2AED3FE049EC5FE399
:1035D000D0785D270E940D1ADF910C949F1C0E94E9
:1035E000FE1B08F481E008950E94761CE3950C947C
:1035F000B01C0E940D1B0C949F1C0E946D1C58F067
:103600000E94661C40F029F45F3F29F00C94221CB4
:1036100051110C94E71C0C94281C0E94C41C68F3E4
:103620009923B1F3552391F3951B550BBB27AA277B
:1036300062177307840738F09F5F5F4F220F331FB5
:10364000441FAA1FA9F335D00E2E3AF0E0E832D07D
:1036500091505040E695001CCAF72BD0FE2F29D080
:10366000660F771F881FBB1F261737074807AB0752
:10367000B0E809F0BB0B802DBF01FF2793585F4FC7
:103680003AF09E3F510578F00C94221C0C94E71CF4
:103690005F3FE4F3983ED4F3869577956795B795A9
:1036A000F7959F5FC9F7880F911D9695879597F9B4
:1036B0000895E1E0660F771F881FBB1F621773072D
:1036C0008407BA0720F0621B730B840BBA0BEE1F42
:1036D00088F7E09508950E94721B6894B1110C94CC
:1036E000E71C08950E94CC1C88F09F5798F0B92FD2
:1036F0009927B751B0F0E1F0660F771F881F991F27
:103700001AF0BA95C9F714C0B13091F00E94E61CC6
:10371000B1E008950C94E61C672F782F8827B85FD6
:1037200039F0B93FCCF3869577956795B395D9F77E
:103730003EF490958095709561957F4F8F4F9F4F88
:103740000895E89409C097FB3EF490958095709594
:1037500061957F4F8F4F9F4F9923A9F0F92F96E9DD
:10376000BB279395F695879577956795B795F11152
:10377000F8CFFAF4BB0F11F460FF1BC06F5F7F4FEF
:103780008F4F9F4F16C0882311F096E911C0772301
:1037900021F09EE8872F762F05C0662371F096E80A
:1037A000862F70E060E02AF09A95660F771F881FD9
:1037B000DAF7880F9695879597F90895DF93CF9359
:1037C0001F930F938B01EC01EBECF0E00E942B1C9C
:1037D0000E949F1C9801AE018B01EC0160E070E03B
:1037E00080E89FE30E94F5190E94751D9801AE01C3
:1037F0000F911F91CF91DF910C940D1D990F00082F
:10380000550FAA0BE0E8FEEF16161706E807F907B2
:10381000C0F012161306E407F50798F0621B730B4D
:10382000840B950B39F40A2661F0232B242B252BCE
:1038300021F408950A2609F4A140A6958FEF811D71
:10384000811D089597F99F6780E870E060E0089512
:103850009FEF80EC0895DF93CF931F930F93FF9218
:10386000EF92DF927B018C01689406C0DA2EEF01A3
:103870000E940D1DFE01E894A59125913591459179
:103880005591A6F3EF010E940D1AFE019701A801C0
:10389000DA9469F7DF90EF90FF900F911F91CF912D
:1038A000DF9108959F938F937F936F93FF93EF938F
:1038B0009B01AC010E94FA1CEF91FF910E942B1C0E
:1038C0002F913F914F915F910C94FA1C00240A9420
:1038D0001616170618060906089500240A941216EB
:1038E00013061406050608950C94281C0E94CC1C8F
:1038F000D8F3E894E0E0BB279F57F0F02AED3FE0D3
:1039000049EC06C0EE0FBB0F661F771F881F28F01B
:10391000B23A62077307840728F0B25A620B730B3E
:10392000840BE3959A9572F7803830F49A95BB0F23
:10393000661F771F881FD2F790480C94BB1D092E75
:103940000394000C11F4882352F0BB0F40F4BF2BFA
:1039500011F460FF04C06F5F7F4F8F4F9F4F08953A
:10396000EF93E0FF07C0A2EA2AED3FE049EC5FEBEE
:103970000E940D1A0E949F1C0F90039401FC905806
:10398000E3EFF0E00C94521C57FD9058440F551F84
:1039900059F05F3F71F04795880F97FB991F61F0D1
:1039A0009F3F79F087950895121613061406551F48
:1039B000F2CF4695F1DF08C0161617061806991FB4
:1039C000F1CF86957105610508940895E894BB27A9
:1039D00066277727CB0197F908950E94FE1B08F40C
:1039E0008FEF08959B01AC0160E070E080E89FE3F9
:1039F0000C94F91A0E940D1D0C949F1C0E94661CC9
:103A000038F00E946D1C20F0952311F00C94221CBC
:103A10000C94281C11240C94E71C0E94C41C70F305
:103A2000959FC1F3950F50E0551F629FF001729F63
:103A3000BB27F00DB11D639FAA27F00DB11DAA1F72
:103A4000649F6627B00DA11D661F829F2227B00DBF
:103A5000A11D621F739FB00DA11D621F839FA00D4A
:103A6000611D221F749F3327A00D611D231F849F9A
:103A7000600D211D822F762F6A2F11249F575040F1
:103A80009AF0F1F088234AF0EE0FFF1FBB1F661F6C
:103A9000771F881F91505040A9F79E3F510580F035
:103AA0000C94221C0C94E71C5F3FE4F3983ED4F383
:103AB000869577956795B795F795E7959F5FC1F7D9
:103AC000FE2B880F911D9695879597F908959F93E2
:103AD0000E94761C0F9007FCEE5F0C94B01C19F44A
:103AE00016F40C94281C0C94B91D0E94CC1CB8F33D
:103AF0009923C9F3B6F39F57550B87FF0E94C71D43
:103B00000024A0E640EA900180585695979528F445
:103B1000805C660F771F881F20F02617370748073D
:103B200030F4621B730B840B202931294A2BA69594
:103B300017940794202531254A2758F7660F771FD9
:103B4000881F20F026173707480730F4620B730BE5
:103B5000840B200D311D411DA09581F7B901842FE3
:103B60009158880F9695879508959B01AC010C9408
:103B7000FA1C9F3F31F0915020F487957795679517
:103B8000B795880F911D9695879597F9089591504F
:103B90005040660F771F881FD2F70895DB018F937F
:103BA0009F930E94B919BF91AF91A29F800D911D63
:103BB000A39F900DB29F900D11240895991B79E059
:103BC00004C0991F961708F0961B881F7A95C9F7AD
:103BD0008095089597FB072E16F4009407D077FD83
:103BE00009D00E94CF1F07FC05D03EF49095819527
:103BF0009F4F0895709561957F4F0895EE0FFF1FB9
:103C00000590F491E02D0994DF93CF931F930F93C8
:103C10009A9DF02D219FF00D8B9DF00D8A9DE02D3A
:103C2000F10D039FF00D029FE00DF11D4E9DE00D83
:103C3000F11D5E9DF00D4F9DF00D7F936F93BF9230
:103C4000AF925F934F93D5010E94E6198B01AC01AF
:103C5000D7010E94E619EB01E80FF91FD6010E9477
:103C6000541E2F913F91D6010E94E619C60FD71F0F
:103C7000E81FF91FAF91BF910E94541E2F913F91F1
:103C80000E94E619C60FD71FE81FF91FD6010E9430
:103C9000E619E60FF71F9801BE01CF0111240F911D
:103CA0001F91CF91DF9108950E94E619460F571F8B
:103CB000C81FD91F08F43196089597FB57FF0C943D
:103CC0006D1E9F938F930E946D1E6E1B7F0BAF9195
:103CD000BF918A0B9B0B0895E894DF93CF93FC016F
:103CE000DB010E94E6197F936F93E9019A01AC0111
:103CF000BF93AF933F932F93DF010E94E61926F401
:103D00006C1B7D0B820B930B9E01EB01FC010E944F
:103D1000541EAF91BF912F913F910E94541EBE013E
:103D2000CF01F9012F913F91CF91DF9108956894D0
:103D300001C0E894F92FF12B12F00C94CB1EA0E0F7
:103D4000B0E0E5EAFEE10C943D1F092E059422F453
:103D50000E94271F112392F4F0E80F26FFEFE09452
:103D6000F09400951095B094C094D094A194BF0A9B
:103D7000CF0ADF0AEF0AFF0A0F0B1F0B0E94D61EA5
:103D800007FC0E94271FCDB7DEB7ECE00C94591F4B
:103D9000689401C0E8948F929F92CF93DF930E9422
:103DA000D61EDF91CF919F908F90089588249924FB
:103DB000F401E401B0E49F93AA279A158B049C04B4
:103DC000ED05FE05CF05D007A10798F4AD2FDC2F38
:103DD000CF2FFE2FE92D982C892E982F872F762F05
:103DE000652F542F432F322F2227B85031F7BF9120
:103DF00027C01B2EBF91BB27220F331F441F551F07
:103E0000661F771F881F991F881C991CEE1FFF1FB4
:103E1000CC1FDD1FAA1FBB1F8A149B04EC05FD05E8
:103E2000CE05DF05A007B10748F08A189B08EC090A
:103E3000FD09CE09DF09A00BB10B21601A94E1F650
:103E40002EF49401AF01BE01CD01000C08956095E0
:103E500070958095909530954095509521953F4F60
:103E60004F4F5F4F6F4F7F4F8F4F9F4F08952F9250
:103E70003F924F925F926F927F928F929F92AF92FA
:103E8000BF92CF92DF92EF92FF920F931F93CF9347
:103E9000DF93CDB7DEB7CA1BDB0B0FB6F894DEBFDE
:103EA0000FBECDBF09942A88398848885F846E8404
:103EB0007D848C849B84AA84B984C884DF80EE804E
:103EC000FD800C811B81AA81B981CE0FD11D0FB657
:103ED000F894DEBF0FBECDBFED0108950F930830FB
:103EE00090F0982F872F762F652F542F432F322F46
:103EF00022270850F4CF220F331F441F551F661F7F
:103F0000771F881F991F0A95B2F70F91089597FBA5
:103F100010F8169400080F93083098F00850232FDB
:103F2000342F452F562F672F782F892F902DF4CFC0
:103F30000594979587957795679557954795379504
:103F400027950A95AAF70F9108952A0D3B1D4C1D40
:103F50005D1D6E1D7F1D801F911F08950024A7FD0C
:103F600000942A0F301D401D501D601D701D801DC6
:103F7000901D08952A193B094C095D096E097F09B6
:103F8000800B910B08950024A7FD00942A1730059B
:103F90004005500560057005800590050895AA1B31
:103FA000BB1B51E107C0AA1FBB1FA617B70710F024
:103FB000A61BB70B881F991F5A95A9F78095909556
:103FC000BC01CD0108950F931F93CF93DF938230EF
:103FD000910510F482E090E0E0913905F0913A0506
:103FE00020E030E0A0E0B0E0309719F1408151814D
:103FF0000281138148175907C8F08417950769F49F
:10400000109731F012960C93129713961C9327C0B9
:104010000093390510933A0522C02115310519F096
:104020004217530718F49A01BD01EF01DF01F801AF
:10403000DBCF21153105F9F0281B390B2430310570
:1040400080F48A819B816115710521F0FB019383C6
:10405000828304C090933A0580933905FE0132961D
:1040600044C0FE01E20FF31F819391932250310966
:10407000398328833AC02091370530913805232BA6
:1040800041F42091020130910301309338052093CF
:10409000370520910001309101012115310541F4CE
:1040A0002DB73EB74091040150910501241B350BFB
:1040B000E0913705F0913805E217F307A0F42E1BC5
:1040C0003F0B2817390778F0AC014E5F5F4F24177C
:1040D000350748F04E0F5F1F509338054093370562
:1040E0008193919302C0E0E0F0E0CF01DF91CF91A6
:1040F0001F910F910895CF93DF93009709F481C02A
:10410000FC01329713821282A0913905B0913A05D1
:10411000109781F420813181820F931F2091370500
:10412000309138052817390751F5F0933805E09399
:10413000370567C0ED0120E030E0CE17DF0740F41F
:104140004A815B819E0141155105F1F0EA01F5CFED
:10415000D383C28340815181840F951FC817D9072B
:1041600059F488819981840F951F029691838083E9
:104170008A819B81938382832115310529F4F093F1
:104180003A05E09339053DC0E901FB83EA83499193
:104190005991C40FD51FEC17FD0761F480819181FF
:1041A000840F951F0296E901998388838281938108
:1041B0009B838A83E0E0F0E012968D919C911397A7
:1041C000009719F0FD01DC01F7CF8D919C911197BB
:1041D0009D012E5F3F4F820F931F20913705309135
:1041E00038052817390769F4309729F410923A05F1
:1041F0001092390502C013821282B0933805A09341
:104200003705DF91CF91089581E090E0F8940C9408
:064210000921F894FFCF24
:1042160000003B0580000000003F6666A63F333382
:104226005340000000006F01DC000601BC013701AD
:10423600150129010000000075024802A5021C02B2
:0642460040022C021D02E3
:00000001FF
