:100000000C94B2000C94DA000C94DA000C94DA0030
:100010000C94DA000C94DA000C94DA000C94FA06D2
:100020000C94DA000C94DA000C94DA000C94D005ED
:100030000C94DA000C94DA000C94DA000C94DA00D8
:100040000C94810E0C9436080C9497030C94710355
:100050000C94DA000C94DA000C94DA000C94DA00B8
:100060000C94C9030C94DA00BB08C808E708D1084F
:10007000F808F808F808F808EF08EC08F208F8089B
:10008000F808F8089608DA08E708036EDB363D9AA8
:100090009999993DABAAAA2A3E000000803F084AE0
:1000A000D73B3BCE016E84BCBFFDC12F3D6C74318C
:1000B0009ABD56833DDA3D00C77F11BED9E4BB4CE3
:1000C0003E916BAAAABE000000803F072C7AA5BA19
:1000D0006CC590DA3B9365FC8BBC53F810FD3C5625
:1000E00092834DBD879D3AB63DCBC9BF5BBE73DAE7
:1000F0000FC93F05A84CCDB2D44EB93836A9020C71
:1001000050B9918688083CA6AAAA2ABE00000080A1
:100110003F00000000080002010000030407000087
:1001200000000000000000000000250028002B0057
:1001300000000000240027002A0004040404040432
:100140000404020202020202030303030303010286
:100150000408102040800102040810200102040855
:100160001020BA1911241FBECFEFD8E0DEBFCDBFDB
:1001700011E0A0E0B1E0E6E0F6E402C005900D92E7
:10018000A633B107D9F724E0A6E3B1E001C01D9280
:10019000AB3AB207E1F710E0C2EBD0E004C0219720
:1001A000FE010E94F61FC13BD107C9F70E94CB0E8A
:1001B0000C9401230C940000CF92DF92EF92FF92F7
:1001C0000F931F93CF93DF936C017A018B01C0E0F3
:1001D000D0E0CE15DF0581F0D8016D918D01D601FB
:1001E000ED91FC910190F081E02DC6010995892BDC
:1001F00011F02196EECF7E01C701DF91CF911F91C3
:100200000F91FF90EF90DF90CF900895FC01538DF8
:10021000448D252F30E0842F90E0821B930B5417E0
:1002200010F0CF96089501970895FC01918D828D6D
:10023000981761F0828DDF01A80FB11D5D968C913A
:10024000928D9F5F9F73928F90E008958FEF9FEF45
:100250000895FC01918D828D981731F0828DE80F01
:10026000F11D858D90E008958FEF9FEF0895FC01BB
:10027000918D228D892F90E0805C9F4F821B910988
:100280008F739927089588E392E00E94370121E057
:10029000892B09F420E0822F0895FC01848DDF0171
:1002A000A80FB11DA35ABF4F2C91848D90E00196E9
:1002B0008F739927848FA689B7892C93A089B189D8
:1002C0008C91837080648C93938D848D981306C079
:1002D0000288F389E02D80818F7D80830895EF92DD
:1002E000FF920F931F93CF93DF93EC0181E0888FF0
:1002F0009B8D8C8D981305C0E889F989808185FDD7
:1003000026C0F62E0B8D10E00F5F1F4F0F731127C5
:10031000E02E8C8DE8120CC00FB607FCFACFE889EE
:10032000F989808185FFF5CFCE010E944D01F1CF83
:100330008B8DFE01E80FF11DE35AFF4FF0829FB74E
:10034000F8940B8FEA89FB89808180620AC09FB78D
:10035000F894EE89FF896083E889F9898081837048
:10036000806480839FBF81E090E0DF91CF911F91F7
:100370000F91FF90EF900895CF93DF93EC01888D5C
:100380008823C9F0EA89FB89808185FD05C0A88999
:10039000B9898C9186FD0FC00FB607FCF5CF80811F
:1003A00085FFF2CFA889B9898C9185FFEDCFCE0169
:1003B0000E944D01E7CFDF91CF91089580E090E05A
:1003C000892B29F00E94430181110C9400000895AB
:1003D00085ED8093BC008091BC0084FDFCCF109221
:1003E0000402089540917601262F30E0240F311D3C
:1003F00021323105DCF4209104022430C9F4FC01DF
:1004000080E090E0861758F4309176012191DC016C
:10041000AA5ABE4FA30FB11D2C930196F3CF809122
:100420007601680F6093760180E0089581E0089579
:1004300082E00895089508950895E0919A018091C9
:100440009901E81730F4F0E0E254FE4F808190E02B
:1004500008958FEF9FEF089590919A0180919901EF
:10046000981750F4E92FF0E0E254FE4F208130E07D
:100470009F5F90939A0102C02FEF3FEFC90108954B
:100480008091990190E020919A01821B9109089531
:10049000CF92DF92EF92FF920F931F93CF93DF9350
:1004A0007C01CB018A0120919B01222389F0EB0181
:1004B0006B01C40ED51ECC15DD0569F06991D7011D
:1004C000ED91FC910190F081E02DC7010995F3CFEA
:1004D000642F0E94F201C801DF91CF911F910F910B
:1004E000FF90EF90DF90CF900895CF93DF931F920E
:1004F000CDB7DEB7698320919B012223D1F02091F3
:10050000BD01203240F021E030E0FC013383228342
:1005100080E090E015C080919C01E82FF0E0E35668
:10052000FE4F998190838F5F80939C018093BD01E2
:1005300005C061E0CE0101960E94F20181E090E0E9
:100540000F90DF91CF910895089580E090E0089595
:10055000FC0190819C3088F5818128E830E0281BDF
:10056000310987FD3395220F331F220F331F621786
:10057000730784F0828148E552E0481B510987FDEA
:100580005395440F551F440F551F9B01461757079E
:100590000CF49A0122503109220F331F4FB7F894FF
:1005A000892F90E0FC01EE0FFF1F8E0F9F1FFC01B3
:1005B000EB5FFD4F328321834FBF0895CF93DF93CD
:1005C000EC01288139818A819B812817390704F53C
:1005D000888199812A813B81821B930B1816190609
:1005E0002CF4888199812A813B8104C08A819B8176
:1005F00028813981821B930B2C813D8182179307BF
:100600003CF12C813D8188819981820F931F29C003
:10061000288139818A819B818217930724F58881FB
:1006200099812A813B81821B930B181619062CF4A1
:10063000888199812A813B8104C08A819B8128819C
:100640003981821B930B2C813D81821793071CF407
:100650008A819B8106C02C813D8188819981821B82
:10066000930B9983888368817981CE0108960E94D3
:10067000A802488159812A813B8181E042175307B2
:1006800009F080E0DF91CF9108950E94FC220F9342
:100690001F93CF93DF938C01C0915301D0915401EC
:1006A000209749F484E090E00E94DB21909354016C
:1006B000809353010CC08A819B81009711F0EC015B
:1006C000FACF84E090E00E94DB219B838A83FC01C7
:1006D0001183008313821282DF91CF911F910F91BA
:1006E00008951F920F920FB60F9211242F933F93EC
:1006F0004F935F936F937F938F939F93AF93BF932A
:10070000EF93FF9388E392E00E944D01FF91EF91F8
:10071000BF91AF919F918F917F916F915F914F9119
:100720003F912F910F900FBE0F901F9018951F9221
:100730000F920FB60F9211242F938F939F93EF93E5
:10074000FF93E0914802F09149028081E0914E02CE
:10075000F0914F0282FD12C09081809151028F5F13
:100760008F7320915202821751F0E0915102F0E014
:10077000E85CFD4F958F8093510201C08081FF910D
:10078000EF919F918F912F910F900FBE0F901F901F
:1007900018951F920F920FB60F9211242F933F932B
:1007A0004F935F936F937F938F939F93AF93BF9379
:1007B000EF93FF938091B900887F803609F49CC045
:1007C00068F5883209F45BC090F4803109F454C0B4
:1007D00038F4882309F4F6C0883009F44DC0F6C017
:1007E000883109F44CC0803209F45DC0EFC0803418
:1007F00009F468C048F4803309F455C0883309F01F
:10080000E5C080930202D8C0803509F44FC0883516
:1008100009F45DC0883409F0D9C0D6C0883909F41C
:10082000C7C0A8F4883709F467C038F4883609F4DB
:1008300063C0803709F460C0C9C0883809F4B8C003
:10084000803909F45FC0803809F0C0C05BC0803BCC
:1008500009F486C038F4803A09F466C0883A09F48D
:100860007FC0B4C0803C09F4A7C0883C09F4A4C090
:10087000883B09F48AC0AAC08091FF0110C0909102
:10088000010280910002981770F5E091010281E069
:100890008E0F80930102F0E0E252FE4F8081809340
:1008A000BB0085EC86C0809302028EC0E0910102FD
:1008B00081E08E0F809301028091BB00F0E0E25254
:1008C000FE4F808390910102809100026EC0E09102
:1008D000010281E08E0F809301028091BB00F0E065
:1008E000E252FE4F80838091030281116DC081E04E
:1008F0008093FE0184EA61C083E080930402109239
:100900009801CFCF80919801803208F051C0E091DA
:10091000980181E08E0F809398018091BB00F0E0F8
:10092000E858FE4F8083BDCF85EC8093BC001092C9
:10093000040280919801803230F4E0919801F0E057
:10094000E858FE4F10826091980170E0E091360106
:10095000F091370188E791E009951092980136C02F
:1009600084E0809304021092770110927601E09166
:100970003801F0913901099580917601811105C006
:1009800081E08093760110925601E091770181E039
:100990008E0F80937701F0E0EA5AFE4F80818093BA
:1009A000BB009091770180917601981708F479CF78
:1009B00085E88093BC000AC085EC8093BC0010924F
:1009C000040204C0109202020E94E801FF91EF911C
:1009D000BF91AF919F918F917F916F915F914F9157
:1009E0003F912F910F900FBE0F901F9018954F922F
:1009F0005F926F927F928F929F92AF92BF92CF92AF
:100A0000DF92EF92FF92CF93DF9300D000D000D01F
:100A1000CDB7DEB79E838D836A017B0120E030E095
:100A2000A901C701B6010E94E71C87FF04C0C701E6
:100A3000B601905802C0C701B601ED81FE81208940
:100A40003189428953890E94E51EED81FE81181685
:100A50000CF055C02081318142815381C701B6011C
:100A60000E94F21E2B013C01ED81FE81848495845D
:100A7000A684B784208D318D428D538DC701B60178
:100A80000E94ED1BA50194010E94F11CED81FE81E5
:100A900020853185428553850E94F21E69837A83C1
:100AA0008B839C83A5019401C701B6010E94F21EAD
:100AB000ED81FE81248D358D468D578D0E94EE1B74
:100AC000ED81FE81648F758F868F978F24813581AC
:100AD000468157810E94F21E4B015C0129813A81B7
:100AE0004B815C81C301B2010E94EE1B9B01AC01F2
:100AF000C501B4010E94EE1B4B015C0107C0148EBE
:100B0000158E168E178E812C912C5401ED81FE814D
:100B1000C08ED18EE28EF38ED488E588F688F78970
:100B2000F98320E030E0A9016D2D7E2D8F2D9F2FC0
:100B30000E94E51E1816BCF420E030E0A901C501B2
:100B4000B4010E94E71C87FF04C0C501B40190589E
:100B500002C0C501B4012D2D3E2D4F2D59810E949B
:100B6000E51E181624F0D82CE92CFA2CB9826D2D2C
:100B70007E2D8F2D998126960FB6F894DEBF0FBE7D
:100B8000CDBFDF91CF91FF90EF90DF90CF90BF90DE
:100B9000AF909F908F907F906F905F904F9008954F
:100BA0001F920F920FB60F9211242F933F934F93E2
:100BB0005F936F937F938F939F93AF93BF93EF93C5
:100BC000FF938091550187FF05C010928500109218
:100BD00084001BC020915501022E000C330B809124
:100BE000290290E02817390784F480915501082ED6
:100BF000000C990BFC01EE0FFF1F8E0F9F1FFC01D5
:100C0000EB5FFD4F808186FD15C0809155018F5FA0
:100C10008093550120915501022E000C330B8091D9
:100C2000290290E028173907C4F4809155018C30CF
:100C300064F113C080915501082E000C990BFC0142
:100C4000EE0FFF1F8E0F9F1FFC01EB5FFD4F80819A
:100C500060E08F730E94D50DD8CF80918400909171
:100C60008500049680349C4918F480E49CE905C012
:100C700080918400909185000496909389008093E0
:100C800088008FEF809355013BC020918400309104
:100C9000850080915501082E000C990BFC01EE0F88
:100CA000FF1F8E0F9F1FFC01EB5FFD4F8181928123
:100CB000820F931F90938900809388008091550143
:100CC000082E000C990BFC01EE0FFF1F8E0F9F1FCB
:100CD000FC01EB5FFD4F808186FF12C080915501C2
:100CE000082E000C990BFC01EE0FFF1F8E0F9F1FAB
:100CF000FC01EB5FFD4F808161E08F730E94D50D99
:100D0000FF91EF91BF91AF919F918F917F916F91E3
:100D10005F914F913F912F910F900FBE0F901F90B9
:100D20001895FF920F931F93CF93DF93EC016B877E
:100D30007C878C01085F1F4F88858C3008F050C07D
:100D4000F62E862F0E94650A8885E82FF0E09F0125
:100D5000220F331FE20FF31FEB5FFD4F6F2D6F73F9
:100D60009081907CF92EF62AF08219861A866CE022
:100D70000E94D61F9CE0899FB001112440E050E002
:100D80009B01240F351FF901EE0FFF1F2E0F3F1F90
:100D9000F901EB5FFD4F908196FD16C04F5F5F4FED
:100DA0004C30510569F781110FC01092800082E02C
:100DB000809381001092850010928400B19A8091F6
:100DC0006F00826080936F00E885F0E0CF01880FAC
:100DD000991FE80FF91FEB5FFD4F808180648083CE
:100DE0006CED75E0C801DF91CF911F910F91FF90DD
:100DF0000C94A8021F920F920FB60F9211242F93FA
:100E00003F934F935F936F937F938F939F93AF9392
:100E1000BF93CF93DF93EF93FF93C0915301D09192
:100E200054012097D1F0E881F981EE0FFF1FE65DB4
:100E3000FD4F808191810E94DE02811104C0888172
:100E400099810E9447038A819B81909354018093EA
:100E50005301CE010E94732204C080917000109251
:100E60007000FF91EF91DF91CF91BF91AF919F9172
:100E70008F917F916F915F914F913F912F910F9043
:100E80000FBE0F901F9018958F929F92AF92BF92B6
:100E9000CF92DF92EF92FF920F931F93CF93DF9346
:100EA000EC01ED89FE898B889C88E617F7072CF00A
:100EB000681579051CF4B40101C0BF01C988DA883E
:100EC0000D2C000CEE08FF08092C000CAA08BB082A
:100ED0002F853889C901330FAA0BBB0B9C01AD01CB
:100EE0002C193D094E095F09CB01770FAA0BBB0BEB
:100EF000BC01CD01681979098A099B090E94C61FA6
:100F00008F01FF0F220B330BA90198012819390912
:100F10004A095B090E94921BC20ED31EE41EF51EF5
:100F2000DB82CA82CE010E94DE02811109C08E815D
:100F30009F810E94470380917000826080937000BF
:100F4000DF91CF911F910F91FF90EF90DF90CF90A5
:100F5000BF90AF909F908F9008956536710514F003
:100F600064E670E077FF02C060E070E0660F771F14
:100F7000660F771F2CED35E0261B370BFC01328BFB
:100F8000218B64527A4F708B678708958F929F925E
:100F9000AF92BF92EF92FF920F931F93CF93DF9385
:100FA000FC01ED5AFE4F2081222309F454C08B012D
:100FB000EC01FB01EE0FFF1FEE0FFF1FEC0FFD1FFB
:100FC00066857785808991890E94631D4B015C014C
:100FD0007B01CE018A5B9F4F0E94AD07B401CE0119
:100FE0008B960E94AD07B401CE0184589F4F0E949A
:100FF000AD07B401CE018F599F4F0E94AD07011577
:10100000110599F42E853F85488959896A897B891C
:101010008C899D890E94EE1B20E030E040E05FE378
:101020000E94F21E0E94631D7B01B701CE0189560A
:101030009F4F0E94AD07B701CE018E549F4F0E9473
:10104000AD07B701CE0183539F4F0E94AD07CF5A22
:10105000DE4F19830883DF91CF911F910F91FF908D
:10106000EF90BF90AF909F908F9008951F920F9236
:101070000FB60F921124CF92DF92EF92FF920F934F
:101080001F932F933F934F935F936F937F938F9310
:101090009F93AF93BF93CF93DF93EF93FF938EB55F
:1010A0008093520180915101882349F08FEF8EBDCA
:1010B000109251011092500110924F0118C0E0910E
:1010C0004F01F0915001E65CFE4F80818EBD809112
:1010D0004F01909150018430910521F481E080937B
:1010E000510105C001969093500180934F01E0910A
:1010F0005201E11104C081E080934E015EC1EF3FD7
:1011000021F481E080934D0158C180914E018823E4
:1011100009F471C08E2F90E0FC013497E131F105A4
:1011200008F066C0EC5CFF4F0C94F61F809137040A
:10113000882379F010920A031092090310920C038D
:1011400010920B0310920E0310920D0310923704AD
:101150004FC060913F017091400180914101909199
:1011600042010E94631D21E0209337047093110314
:10117000609310033DC08DEC9CECACE4BFE3809326
:101180003C0490933D04A0933E04B0933F0430C0D0
:1011900010923C0410923D0410923E0410923F04C1
:1011A00027C0109238041092390410923A04109219
:1011B0003B041EC080E090E0A0E8BFE380933804C9
:1011C00090933904A0933A04B0933B0411C08AE988
:1011D00099E9A9E1BFE3F2CF62E070E005C061E008
:1011E00070E002C060E070E08FEE92E00E94C607FF
:1011F00010924E01DEC080914D01882309F4DDC0BC
:10120000C0914B01D0914C01C130D10509F449C0C6
:10121000C230D10509F485C0209709F0C1C0F0E0C3
:101220008F010F571109B801012E000C880B990B83
:101230000E949B1D6B017C0160911203709113034E
:101240008091140390911503A70196010E94E51E59
:1012500018164CF4609112037091130380911403DB
:101260009091150316C06091160370911703809139
:10127000180390911903A70196010E94E71C87FFAC
:101280000BC0609116037091170380911803909121
:1012900019030E94631D8B0110930A030093090335
:1012A0007FC0F0E08F010F571109B801012E000C2B
:1012B000880B990B0E949B1D6B017C0120911203EE
:1012C0003091130340911403509115030E94E71CC1
:1012D00087FF09C06091120370911303809114037A
:1012E0009091150316C02091160330911703409179
:1012F000180350911903C701B6010E94E51E181684
:101300005CF460911603709117038091180390911B
:1013100019030E94631D8B0110930C0300930B03B0
:101320003FC0F0E08F010F571109B801012E000CEA
:10133000880B990B0E949B1D6B017C01209112036D
:101340003091130340911403509115030E94E71C40
:1013500087FF09C0609112037091130380911403F9
:101360009091150316C020911603309117034091F8
:10137000180350911903C701B6010E94E51E181603
:101380005CF460911603709117038091180390919B
:1013900019030E94631D8B0110930E0300930D032C
:1013A0002196D0934C01C0934B01239734F01092B7
:1013B0004D0110924C0110924B01FF91EF91DF9182
:1013C000CF91BF91AF919F918F917F916F915F91DD
:1013D0004F913F912F911F910F91FF90EF90DF90D0
:1013E000CF900F900FBE0F901F901895CF93DF9363
:1013F000EC01809129028C3098F491E0980F909341
:101400002902888790E0FC01EE0FFF1F8E0F9F1FBF
:10141000FC01EB5FFD4F88EB9BE09283818302C070
:101420008FEF88877C8B6B8B5E8B4D8BB90125365C
:10143000310514F064E670E077FF02C060E070E010
:10144000CE010E94AD078F85988929893A89821B30
:10145000930B64E670E00E94E21F7D836C83F89436
:101460001092B0001092B1001092B2008FEF8093F2
:10147000B3008091B10088608093B1008091B10089
:1014800085608093B1008CED95E099838883888195
:1014900099819B838A838FEF9FEF9C878B878091B5
:1014A0009C0490919D049F838E83FC01EE0FFF1F8F
:1014B000E65DFD4FD183C083019690939D04809398
:1014C0009C047894DF91CF91089590E0FC01E25B59
:1014D000FE4F2491FC01E65CFE4F8491882399F035
:1014E00090E0880F991FFC01E05DFE4FA591B4913B
:1014F000FC01EA5DFE4F859194918FB7F894EC91D1
:10150000E22BEC938FBF0895909104029111FCCFD0
:1015100091E090930402409303022FEF2093020284
:1015200010920102260F209300029093FF019091E8
:10153000FF01880F892B8093FF018091FE0181308C
:1015400061F41092FE018091FF018093BB008091B5
:10155000BC0083FDF8CF85EC01C085EE8093BC0014
:10156000809104028130E1F380910102861710F42A
:1015700060910102AEEDB1E0EEEBF1E080E08617A4
:1015800021F09D9191938F5FFACF0895282F30918C
:10159000BD01313208F04AC0809104028111FCCFB4
:1015A00090919B0442E040930402209303022FEFAA
:1015B000209302021092010230930002EDE9F1E063
:1015C000AEEDB1E020E0321721F041914D932F5F55
:1015D000FACF1092FF012091FF01990F922B909367
:1015E000FF019091FE01913061F41092FE01909103
:1015F000FF019093BB009091BC0093FDF8CF95EC58
:1016000001C095EE9093BC00909104029230E1F3FA
:10161000909102029F3F79F080910202803241F066
:1016200080910202803331F084E005C081E003C084
:1016300082E001C083E010929C011092BD011092E3
:101640009B01089591E090939B0180939B041092DD
:101650009C011092BD010895813208F080E241E0C2
:10166000682F86E70E94840A10929A01809399015C
:10167000089581E00C94C60A682F85ED92E00C94E1
:1016800075024F925F926F927F928F929F92AF926C
:10169000BF92CF92DF92EF92FF92CF93DF93CDB7BD
:1016A000DEB7A4970FB6F894DEBF0FBECDBFC090D3
:1016B0009204D0909304E0909404F090950480916B
:1016C000820490918304A0918404B0918504BC01AC
:1016D000CD019058A70196010E94F21E2B013C01FA
:1016E0008091860490918704A0918804B091890428
:1016F000BC01CD019058A70196010E94F21E4B013A
:101700005C0120918A0430918B0440918C045091AB
:101710008D04C701B6010E94F21E6B017C01C3015A
:10172000B2010E94EC1C6D837E838F839887C50174
:10173000B4010E94EC1C69877A878B879C87C7015C
:10174000B6010E94EC1C6D877E878F87988B8091F5
:101750006E0490916F04A0917004B0917104898B14
:101760009A8BAB8BBC8BBC01CD010E94EC1C6D8BAA
:101770007E8B8F8B988F80916A0490916B04A091DF
:101780006C04B0916D04898F9A8FAB8FBC8FBC01B4
:10179000CD010E94EC1C69837A838B839C83C301F7
:1017A000B2010E945F1F6D8F7E8F8F8F98A3C5013E
:1017B000B4010E945F1F69A37AA38BA39CA3C701F6
:1017C000B6010E945F1F2B013C0169897A898B89D0
:1017D0009C890E945F1F698B7A8B8B8B9C8B698D98
:1017E0007A8D8B8D9C8D0E945F1F6B017C012981FE
:1017F0003A814B815C816D857E858F8598890E94B9
:10180000F21E29893A894B895C890E94F21E4B019C
:101810005C01A7019601C301B2010E94F21E9B0167
:10182000AC01C501B4010E94EE1B4B015C01A70194
:1018300096016D857E858F8598890E94F21E6B01C9
:101840007C01A301920169817A818B819C810E9434
:10185000F21E29893A894B895C890E94F21E9B01FC
:10186000AC01C701B6010E94ED1B6D877E878F8793
:10187000988B9B01AC0169A17AA18BA19CA10E94CC
:10188000F21E6B017C0129813A814B815C81698563
:101890007A858B859C850E94F21E2D893E894F8911
:1018A000588D0E94F21E9B01AC01C701B6010E9437
:1018B000ED1B2B013C016D8D7E8D8F8D98A1905875
:1018C000A50194010E94F21E6B017C01A30192010B
:1018D0006D817E818F8198850E94F21E9B01AC01F3
:1018E000C701B6010E94ED1B6B017C01A5019401AB
:1018F0006D817E818F8198850E94F21E4B015C0173
:10190000A30192016D8D7E8D8F8D98A10E94F21E94
:101910009B01AC01C501B4010E94ED1B4B015C01B0
:10192000A70196010E94881C6D837E838F83988710
:1019300060936E0470936F048093700490937104AD
:10194000A5019401C501B4010E94F21E4B015C0186
:10195000A7019601C701B6010E94F21E9B01AC01CE
:10196000C501B4010E94EE1B0E946D1F6B017C013A
:1019700029813A814B815C816D897E898F89988D1F
:101980000E94F21E29A13AA14BA15CA10E94F21E65
:101990004B015C012D853E854F85588969857A8587
:1019A0008B859C850E94F21E9B01AC01C501B40190
:1019B0000E94EE1BA70196010E94881C69877A8706
:1019C0008B879C8760936A0470936B0480936C048C
:1019D00090936D048091760490917704A09178049F
:1019E000B091790489839A83AB83BC8320E030E093
:1019F000A901BC01CD010E94E51E181634F06981D1
:101A00007A818B819C81905804C069817A818B8115
:101A10009C819B01AC010E94F21E6B017C018090B5
:101A20007A0490907B04A0907C04B0907D0420E028
:101A300030E0A901C501B4010E94E51E181624F08A
:101A4000C501B401905802C0C501B4019B01AC01AD
:101A50000E94F21EA70196010E94EE1B6B017C0101
:101A600040907E0450907F046090800470908104C8
:101A700020E030E0A901C301B2010E94E51E181662
:101A800024F0C301B201905802C0C301B2019B010E
:101A9000AC010E94F21EA70196010E94EE1B0E945B
:101AA0006D1F6B017C0126E636E646E65FE30E9489
:101AB000E51E18160CF064C020E030E040E85FE35B
:101AC000C701B6010E94E71C87FF5AC0A30192011B
:101AD000C501B4010E94881C2B013C0169817A81F7
:101AE0008B819C819058A70196015F770E94F11C21
:101AF0000E945A1C6B017C012DEC3CEC4CE45FE332
:101B00006D817E818F8198850E94F21E4B015C0160
:101B10002DEC3CEC4CE45EE3C301B2010E94F21EEA
:101B20009B01AC01C501B4010E94EE1B60936E04E1
:101B300070936F0480937004909371042DEC3CECCF
:101B40004CE45FE369857A858B859C850E94F21E53
:101B50004B015C012DEC3CEC4CE45EE3C701B601AB
:101B60000E94F21E9B01AC01C501B4010E94EE1B54
:101B700060936A0470936B0480936C0490936D047B
:101B8000A4960FB6F894DEBF0FBECDBFDF91CF9104
:101B9000FF90EF90DF90CF90BF90AF909F908F908D
:101BA0007F906F905F904F90089590E0FC01EE5E03
:101BB000FE4F2491FC01E25BFE4F3491FC01E65C98
:101BC000FE4FE491EE2309F43CC0222339F1233087
:101BD00091F038F42130A9F0223001F584B58F7DE1
:101BE00012C0273091F02830A1F02430B9F4809150
:101BF00080008F7D03C0809180008F77809380006C
:101C00000DC084B58F7784BD09C08091B0008F77F7
:101C100003C08091B0008F7D8093B000F0E0EE0FA4
:101C2000FF1FEA5DFE4FA591B4919FB7F894611133
:101C300004C08C913095382302C0EC913E2B3C932C
:101C40009FBF08958F929F92AF92BF92CF92DF92E3
:101C5000EF92FF926B017C010E945C0E4B015C01D4
:101C6000C114D104E104F104F1F00E945C0EDC0126
:101C7000CB0188199909AA09BB09883E9340A1059F
:101C8000B10570F321E0C21AD108E108F10888EE2D
:101C9000880E83E0981EA11CB11CC114D104E1047C
:101CA000F10419F7DDCFFF90EF90DF90CF90BF9058
:101CB000AF909F908F9008953FB7F8948091A304C0
:101CC0009091A404A091A504B091A60426B5A89B68
:101CD00005C02F3F19F00196A11DB11D3FBFBA2FBE
:101CE000A92F982F8827820F911DA11DB11DBC011E
:101CF000CD0142E0660F771F881F991F4A95D1F7E3
:101D000008951F920F920FB60F9211242F933F93B5
:101D10008F939F93AF93BF9380919E0490919F0464
:101D2000A091A004B091A1043091A20423E0230F5C
:101D30002D3720F40196A11DB11D05C026E8230F03
:101D40000296A11DB11D2093A20480939E0490933E
:101D50009F04A093A004B093A1048091A304909148
:101D6000A404A091A504B091A6040196A11DB11DE3
:101D70008093A3049093A404A093A504B093A60415
:101D8000BF91AF919F918F913F912F910F900FBE77
:101D90000F901F901895CF93DF93CDB7DEB7E397E1
:101DA0000FB6F894DEBF0FBECDBF789484B58260C5
:101DB00084BD84B5816084BD85B5826085BD85B5EF
:101DC000816085BD80916E00816080936E0010926D
:101DD00081008091810082608093810080918100E8
:101DE0008160809381008091800081608093800079
:101DF0008091B10084608093B1008091B0008160D7
:101E00008093B00080917A00846080937A00809102
:101E10007A00826080937A0080917A00816080935A
:101E20007A0080917A00806880937A001092C100D5
:101E3000E0914802F091490282E08083E0914402FF
:101E4000F09145021082E0914602F09147028FEC3A
:101E5000808310925002E0914C02F0914D0286E096
:101E60008083E0914A02F0914B02808180618083FF
:101E7000E0914A02F0914B02808188608083E0917A
:101E80004A02F0914B02808180688083E0914A028F
:101E9000F0914B0280818F7D808310929A01109285
:101EA000990110929C011092BD0110920402EE243F
:101EB000E394E09203021092FE0161E082E10E944D
:101EC000D50D61E083E10E94D50D8091B9008E7F30
:101ED0008093B9008091B9008D7F8093B90088E428
:101EE0008093B80085E48093BC008AE192E09093EF
:101EF0003901809338018BE192E090933701809310
:101F0000360188E60E94220B8BE690E00E943C0B93
:101F100080E090E00E943C0B81E00E94C60A64EFE2
:101F200071E080E090E00E94220EE092650480E083
:101F300090E4A9E7B4E48093660490936704A093C7
:101F40006804B093690486E70E94220B8EE190E05A
:101F50000E943C0B0E94390B6AE070E080E090E048
:101F60000E94220E15E4E12E14E0F12E20EA30E06A
:101F70003A83298386E70E94220B89819A810E94F5
:101F80003C0B0E94390B41E062E086E70E94840A24
:101F900010929A018093990185ED92E00E942C02A3
:101FA000D82E85ED92E00E942C021D2D00E0802BA2
:101FB000912BD7018D939D937D01E981FA81329612
:101FC000FA83E983EE3AF105A9F6809145049091F0
:101FD00046049F70909346048093450410925404E5
:101FE0001092530464EF71E080E090E00E94220EB2
:101FF00068E070E086E893E00E94910667E070E098
:1020000081EA93E00E94910664E070E08CEB93E03B
:102010000E94910665E070E085E393E00E949106DE
:1020200066E070E08AE193E00E94910663E070E070
:102030008BE693E00E94910662E070E080E593E019
:102040000E94910610920A031092090310920C0349
:1020500010920B0310920E0310920D03109237048E
:1020600010920F0360E070E08FEE92E00E94C607CE
:1020700081E0809342046CED75E080E090E00E9486
:10208000220EF8948CE00E94650A8CB580648CBDA9
:102090008FEF8EBD8CB580688CBD78948CE090E01D
:1020A000A0E0B0E08093E1029093E202A093E3020B
:1020B000B093E4022FB7F89480919E0490919F040E
:1020C000A091A004B091A1042FBF8093E50290934A
:1020D000E602A093E702B093E8021092EE0210929B
:1020E000ED021092EB021092EC028091ED029091C1
:1020F000EE02892B31F52FB7F89480919E049091D0
:102100009F04A091A004B091A1042FBF4091E502CB
:102110005091E6026091E7027091E802841B950BF2
:10212000A60BB70B4091E1025091E2026091E302ED
:102130007091E40284179507A607B70710F00C9476
:1021400075198091ED029091EE02019711F00C94B7
:1021500071192FB7F89480919E0490919F04A091DB
:10216000A004B091A1042FBF8093E5029093E602F2
:10217000A093E702B093E8021092EE021092ED02F3
:102180001092EB021092EC02F1E4F0937C0080914B
:102190007A00806480937A0080917A0086FDFCCF7B
:1021A000609178008091790070E0782B072E000C08
:1021B000880B990B0E949B1D2AEA31EF42E050E404
:1021C0000E94F11C6093470170934801809349017C
:1021D00090934A010E945C0E0091430110914401CA
:1021E0002091450130914601DC01CB01801B910B10
:1021F000A20BB30B81329E44A105B10560F00E9491
:102200005C0E609343017093440180934501909369
:10221000460181E001C080E02091430430914404F4
:10222000232BA9F4882399F086E70E94220B8AE4E5
:1022300090E00E943C0B0E94390B809143049091E6
:1022400044040196909344048093430480E02091D9
:102250004304309144042130310509F06BC08823D8
:1022600009F468C086E70E94220B80E090E00E949B
:102270003C0B0E94390B83E090E00E942C0B1092E3
:10228000550410925604109257041092580485ED8C
:1022900092E00E942C026C01990FEE08FF08C09298
:1022A0005504D0925604E0925704F092580485EDFC
:1022B00092E00E942C02FE2CED2CDC2CCC24092E6A
:1022C000000CAA0BBB0BC82AD92AEA2AFB2AC09207
:1022D0005504D0925604E0925704F092580485EDCC
:1022E00092E00E942C02FE2CED2CDC2CCC24092E3A
:1022F000000CAA0BBB0BC82AD92AEA2AFB2AC092D7
:102300005504D0925604E0925704F092580486E7A0
:102310000E94220B8AE590E00E943C0B0E94390B40
:1023200080914304909144040196909344048093D7
:10233000430480E02091430430914404223031056D
:1023400009F05EC4882309F45BC486E70E94220B6F
:1023500080E090E00E943C0B0E94390B83E090E00B
:102360000E942C0B1092590410925A0410925B0494
:1023700010925C0485ED92E00E942C026C01990F92
:10238000EE08FF08C0925904D0925A04E0925B0410
:10239000F0925C0485ED92E00E942C02FE2CED2C64
:1023A000DC2CCC24092E000CAA0BBB0BC82AD92A82
:1023B000EA2AFB2AC0925904D0925A04E0925B04A4
:1023C000F0925C0485ED92E00E942C02FE2CED2C34
:1023D000DC2CCC24092E000CAA0BBB0BC82AD92A52
:1023E000EA2AFB2AC0925904D0925A04E0925B0474
:1023F000F0925C0420914F0430915004C901A0E098
:10240000B0E0BA2FA92F982F882716012701281A84
:10241000390A4A0A5B0A109165041BA3E0914B0438
:10242000F0914C04E0904704F0904804FA82E9826D
:10243000009155041091560420915704309158048E
:102440000F8F18A329A33AA31BA1113009F08CC048
:10245000970140E050E060E070E080E090E000E153
:102460000E946621298339873A014B01898B9D8718
:10247000BF0180E090E0A20191010E945520F22E60
:10248000032F142FB52FF62FE72FD82EE92EA0E01B
:102490000E94BB215CF4AFE70E94A621F22E032F1D
:1024A000142FB52FF62FE72FD82EE92E2F2D302FF2
:1024B000412F5B2F6F2F7E2F8D2D9E2D07E00E94C9
:1024C0007F2159016A017B018C0129813985A30192
:1024D000B40189899D850E949D212D8B3E8B4F8B58
:1024E000588F698F7A8F8B8F9C8FE0914D04F0917C
:1024F0004E042091490430914A0440E050E060E0ED
:1025000070E080E090E001E10E9466212983398734
:102510003A014B01898B9D87BF0180E090E0A201C9
:1025200091010E945520F22E032F142FB52FF62F64
:10253000E72FD82EE92EA0E00E94BB215CF4AFE388
:102540000E94A621F22E032F142FB52FF62FE72F6E
:10255000D82EE92E2F2D302F412F5B2F6F2F7E2F5E
:102560008D2D9E2D06E092C0BF0180E090E0A2017B
:1025700091010E945520F22E032F142FB52FF62F14
:10258000E72FD82EE92EA0E00E94BB2184F4215031
:102590003F4F4F4F5F4F6F4F7F4F8F4F9F4FF22EE9
:1025A000032F142FB52FF62FE72FD82EE92E2F2D1E
:1025B000302F412F5B2F6F2F7E2F8D2D9E2D08E00A
:1025C0000E947F2139014A01B62FA72FF82FE92F4A
:1025D00029813A81C12CD12CA60160E070E080E015
:1025E00090E00FE00E94662159016A017B018C0195
:1025F0009301A4016B2F7A2F8F2F9E2F0E949D2174
:102600002D8B3E8B4F8B588F698F7A8F8B8F9C8F42
:10261000E0914D04F0914E042091490430914A0418
:1026200040E050E060E070E080E090E000E10E9477
:102630006621298339873A014B01898B9D87BF0128
:1026400080E090E0A20191010E945520F22E032F1C
:10265000142FB52FF62FE72FD82EE92EA0E00E94D9
:10266000BB215CF4AFE70E94A621F22E032F142FAA
:10267000B52FF62FE72FD82EE92E2F2D302F412FF3
:102680005B2F6F2F7E2F8D2D9E2D07E00E947F21C7
:1026900059016A017B018C0129813985A301B401AB
:1026A00089899D850E949D212AAB3BAB498B5A8B22
:1026B0006B8B7C8B8D8F9E8FEF8CF8A009A11AA15C
:1026C000A801970160E070E0CB0129833A834B8336
:1026D0005C836D837E838F83988792018101330FA2
:1026E000000B102F980109831A832B833C83609180
:1026F00051047091520480E090E0A20191010E9487
:102700005520F22E032F142FB52FF62FE72FD82E9A
:10271000E92EA0E00E94BB2184F4215031094048F9
:102720005F4F6F4F7F4F8F4F9F4FF22E032F142F0E
:10273000B52FF62FE72FD82EE92E2F2D302F412F32
:102740005B2F6F2F7E2F8D2D9E2D07E10E947F2105
:1027500049015A01A50194012053384F4F4F5F4F53
:1027600029873A874B875C873BA1313009F07AC0D3
:1027700049855A856B857C85403D574061057105CB
:102780000CF030C1C201B1012BE030E040E050E07C
:102790000E94552051016201E980FE2C0E2D1E2D54
:1027A0000E94FC1FF22E032F142FB52FF62FE72FB8
:1027B000D82EE92EA0E00E94BB2184F421503109DB
:1027C00041095109684F7F4F8F4F9F4FF22E032FC2
:1027D000142FB52FF62FE72FD82EE92E2F2D302FBF
:1027E000412F5B2F6F2F7E2F8D2D9E2D03E20E9498
:1027F0007F2129833A834B835C83AFE1B0E08984F6
:102800009A84AB84BC8490ED891A97E0990AA10858
:10281000B108A50194010E94B11B9B01AC01C50147
:10282000B4010E94C61F7B018C0143E015950795FA
:10283000F794E7944A95D1F7AFE3B0E0A50194018E
:102840000E94B11B9B01AC01C501B4010E94C61FCF
:102850002B013C0155E075946794579447945A9521
:10286000D1F7CAC009851A852B853C85003D1740E4
:10287000210531050CF0A2C0C201B10123E030E016
:1028800040E050E00E94552051016201E980FE2C99
:102890000E2D1E2D0E94FC1FF22E032F142FB52F7C
:1028A000F62FE72FD82EE92EA0E00E94BB2184F45A
:1028B00021503109410951096E4F7F4F8F4F9F4F72
:1028C000F22E032F142FB52FF62FE72FD82EE92E37
:1028D0002F2D302F412F5B2F6F2F7E2F8D2D9E2D73
:1028E00001E20E947F2129833A834B835C83A3E02A
:1028F000B0E089849A84AB84BC8450ED851A57E09B
:10290000950AA108B108A50194010E94B11B9B0181
:10291000AC01C501B4010E94C61F7B018C01159555
:102920000795F794E794A5E0B0E0A50194010E9413
:10293000B11B9B01AC01C501B4010E94C61F2B0154
:102940003C0133E075946794579447943A95D1F7D6
:1029500069857A858B859C85613CA9EF7A07AFEF05
:102960008A079A070CF048C0A7E0B0E04B015C0171
:10297000ECED8E0EE5E09E1EA11CB11CA50194019C
:102980000E94B11B9B01AC01C501B4010E94C61F8E
:10299000E60EF71E081F191FA501940192E0220FF1
:1029A000331F441F551F9A95D1F7C501B4010E94EA
:1029B000C61F460E571E681E791E1EC0A501940133
:1029C000C501B4010E94C61F7B018C0184E01595EE
:1029D0000795F794E7948A95D1F719821A821B829A
:1029E0001C8207C019821A821B821C82E12CF12CE6
:1029F0008701412C512C3201A8019701550F220B60
:102A0000322FA9012D873E874F87588B2AA93BA9D2
:102A100049895A896B897C898D8D9E8D5701680102
:102A2000ED84FE2C0E2D1E2D0E94B2214901498BF2
:102A30005A8B362E272E8B8B9C8BB301A201770FDE
:102A4000440B542FBA014D875E876F87788B2D8991
:102A50003E894F89588D698D7A8D8B8D9C8D520161
:102A60006301ED84FE2C0E2D1E2D0E94B221590112
:102A70006A017B018C0189859A85AB85BC8529819A
:102A80003A814B815C81821B930BA40BB50B3BA15C
:102A900080935D0490935E04A0935F04B093600400
:102AA000313009F04EC06F8D78A189A19AA1AB0198
:102AB000BC0180E090E0DC0149835A836B837C8316
:102AC0008D839E83AF83B8879A01AB0160E070E08D
:102AD00080E090E00E94FC1FF22E032F142FB52FF0
:102AE000F62FE72FD82EE92EA0E00E94BB2184F418
:102AF00021503109404E5F4F6F4F7F4F8F4F9F4F97
:102B0000F22E032F142FB52FF62FE72FD82EE92EF4
:102B10002F2D302F412F5B2F6F2F7E2F8D2D9E2D30
:102B200005E10E947F215401C988DA88E32CF22C48
:102B30000B891C890E94B221A12CB12CF2E3CF2E6B
:102B40004CC04F8D58A169A17AA19A01AB0160E0F8
:102B500070E0CB0129833A834B835C836D837E8352
:102B60008F83988760E070E080E090E00E94FC1F17
:102B7000F22E032F142FB52FF62FE72FD82EE92E84
:102B8000A0E00E94BB2184F421503109404E5F4FE8
:102B90006F4F7F4F8F4F9F4FF22E032F142FB52F64
:102BA000F62FE72FD82EE92E2F2D302F412F5B2F18
:102BB0006F2F7E2F8D2D9E2D05E10E947F215401C8
:102BC000C988DA88E32CF22C0B891C890E94B22177
:102BD000A12CE0E4BE2ECC24C394D12CE12CF12C0A
:102BE00000E010E00E949120209361043093620481
:102BF000409363045093640410924404109243047D
:102C00006091610470916204809163049091640406
:102C10000E949B1D60933F0170934001809341018E
:102C20009093420188E60E94220B8BE390E00E9481
:102C30003C0B80E00E94C60A41E06EE088E60E94FC
:102C4000840A10929A018093990185ED92E00E9486
:102C50002C02898385ED92E00E942C02E980EDA28E
:102C60001CA20CA11DA1802B912BBC01990F880BDC
:102C7000990B0E949B1D6093760470937704809358
:102C800078049093790485ED92E00E942C02898368
:102C900085ED92E00E942C0219811FA31EA22EA195
:102CA0003FA1822B932BBC01990F880B990B0E949B
:102CB0009B1D60937A0470937B0480937C049093B3
:102CC0007D0485ED92E00E942C02898385ED92E0DF
:102CD0000E942C02E980E9A618A608A519A5802B58
:102CE000912BBC01990F880B990B0E949B1D60933F
:102CF0007E0470937F04809380049093810485ED1B
:102D000092E00E942C02898385ED92E00E942C02C1
:102D100019811BA71AA62AA53BA5822B932BBC01C0
:102D2000990F880B990B0E949B1D609372047093FE
:102D30007304809374049093750485ED92E00E946F
:102D40002C02898385ED92E00E942C02E980EDA699
:102D50001CA60CA51DA5802B912BBC01990F880BDF
:102D6000990B0E949B1D609382047093830480934F
:102D700084049093850485ED92E00E942C0289835F
:102D800085ED92E00E942C0219811FA71EA62EA598
:102D90003FA5822B932BBC01990F880B990B0E94A6
:102DA0009B1D60938604709387048093880490939E
:102DB000890485ED92E00E942C02182F85ED92E0A7
:102DC0000E942C029A83898320E030E04AEA53E48F
:102DD00060917204709173048091740490917504F1
:102DE0000E94F11C28EB3EE142E152E40E94EE1BFE
:102DF00060937204709373048093740490937504C9
:102E000023E333EF48EA53E460917604709177044A
:102E100080917804909179040E94ED1B90582AE1EA
:102E20003CEA42E856E40E94F11C609376047093F9
:102E30007704809378049093790422EB3DE84FEC7B
:102E400053E460917A0470917B0480917C049091AA
:102E50007D040E94ED1B90582DE934EF4CE756E4B9
:102E60000E94F11C60937A0470937B0480937C042D
:102E700090937D0429EC3EE84FEC54E460917E048D
:102E800070917F0480918004909181040E94ED1BD9
:102E900024E137EC45E856E40E94F11C60937E047F
:102EA00070937F04809380049093810429E831EA31
:102EB0004EEA53E46091820470918304809184040B
:102EC000909185040E94ED1B905820E030E44CE185
:102ED00055E40E94F11C60938204709383048093F4
:102EE0008404909385042EE03DE84AE153E4609128
:102EF00086047091870480918804909189040E94CF
:102F0000ED1B905820E030E44CE155E40E94F11CA8
:102F10006093860470938704809388049093890457
:102F200019AB18AAE980FA8008A919A9E02AF12AA0
:102F3000B701FF0C880B990B0E949B1D21ED32E21B
:102F400040E353E40E94EE1B20E030E44CE155E402
:102F50000E94F11C60938A0470938B0480938C040C
:102F600090938D040E94410B0E94410B6091470198
:102F7000709148018091490190914A010E946A1D17
:102F800060933D0160913F0170914001809141014A
:102F90009091420120E030E045E754E40E94ED1BAF
:102FA0000E946A1D60933E012AE939E949E450E430
:102FB00060916A0470916B0480916C0490916D042F
:102FC0000E94EE1B20E030E040E251E40E94F21E3D
:102FD0000E946A1D60933B012AE939E949E450E403
:102FE00060916E0470916F048091700490917104EF
:102FF0000E94EE1B20E030E040E251E40E94F21E0D
:103000000E946A1D60933A0160917204709173048A
:1030100080917404909175040E946A1D60933C0134
:1030200080913704811115C060E070E08AE193E07F
:103030000E94440760E070E085E393E00E9444074B
:1030400060E070E080E593E00E94440760E070E09B
:103050007DC02091090330910A0380910B03909168
:103060000C0340910D0350910E03B901681B790BBD
:10307000CB01840F951F2091EF023091F002829FC7
:10308000B001839F700D929F700D11248AE193E02F
:103090000E94440780910B0390910C034091090317
:1030A00050910A0320910D0330910E039195819563
:1030B0009109841B950B821B930B2091F102309197
:1030C000F202829FB001839F700D929F700D1124B8
:1030D00085E393E00E94440720910B0330910C0399
:1030E0004091090350910A0380910D0390910E03C2
:1030F000841B950B821B930B2091F3023091F402F9
:10310000829FB001839F700D929F700D112480E506
:1031100093E00E9444078091090390910A03409133
:103120000B0350910C0320910D0330910E03841B6F
:10313000950B821B930B2091F5023091F602829F32
:10314000B001839F700D929F700D11248BE693E068
:103150000E944407C0903F01D0904001E09041019F
:10316000F090420180914204882309F4BAC0809112
:10317000370481110FC060E070E086E893E00E94A0
:10318000440760E070E081EA93E00E94440760E059
:1031900070E0A3C080906A0490906B04A0906C04CF
:1031A000B0906D0440916E0450916F046091700472
:1031B0007091710487ED93E00E94F70469837A832C
:1031C0008B839C83B501A40187EF93E00E94F704F1
:1031D0004B015C0160913C0470913D0480913E0480
:1031E00090913F0420E030E0A9010E94E51E1816EE
:1031F0000CF483C0609138047091390480913A04D2
:1032000090913B0420E030E0A9010E94E51E1816D1
:103210000CF473C0C701B6010E94631D20910F0317
:10322000222309F490C0709311036093100310924D
:103230000F031A86198660E070E0072E000C880BD9
:10324000990B0E949B1D6B017C0109851A85B801B1
:10325000110F880B990B0E949B1D69877A878B87BA
:103260009C8729813A814B815C810E94ED1B2B0157
:103270003C01A50194010E94ED1BA70196010E944B
:10328000EE1B0E94631D81EA93E00E944407A301A4
:103290009201C501B4010E94EE1BA70196010E9494
:1032A000EE1B0E94631D86E893E00E94440726E619
:1032B00036E646EE5FE369817A818B819C810E94CC
:1032C000F21E29853A854B855C850E94EE1BA7017D
:1032D00096010E94EE1B0E94631D8CEB93E00E94FE
:1032E00044070E94DE010C94751021E030E0309319
:1032F000EE022093ED020C94A11081E080930F0365
:10330000609138047091390480913A0490913B04A3
:1033100020913C0430913D0440913E0450913F0483
:10332000C0901603D0901703E0901803F090190393
:103330000E94ED1BA70196010E94F21E0E94631DD0
:103340001A8619867ACF2091100330911103621BDF
:10335000730B072E000C880B990B0E949B1DAB0171
:10336000BC0187E194E00E94F7040E94631D7A8704
:10337000698761CF4F925F926F927F928F929F92F7
:10338000AF92BF92CF92DF92EF92FF920F931F9373
:10339000CF93DF93E8E3F2E01382128288EE93E0AA
:1033A000A0E0B0E084839583A683B78326E131E073
:1033B0003183208325EC30E03587248724EC30E00E
:1033C0003787268720EC30E0318B208B21EC30E0F2
:1033D000338B228B22EC30E0358B248B26EC30E0D3
:1033E000378B268B118E128E138E148EE5EDF2E044
:1033F0001382128284839583A683B78388E291E047
:103400009183808386EAC82E8BE9D82E84E4E82E47
:103410008CE3F82EC0929204D0929304E09294042C
:10342000F092950480E090EAA0E8B4E4809366040A
:1034300090936704A0936804B0936904CFEED2E040
:103440008FEF9FEF998388839B838A8301E010E04D
:103450001D830C831F830E83198708871B870A87A8
:103460001D870C878CE0E6E0F1E0ADEFB2E0019063
:103470000D928A95E1F780E090E0ACEFB2EC8BA37F
:103480009CA3ADA3BEA3812C912C9EEFA92E92E408
:10349000B92E8FA298A6A9A6BAA62EE130E04FE7D2
:1034A00050E062E87FEF8AE193E00E94F6096E85C2
:1034B0007F85888999890E94631D9B014FE750E0B1
:1034C00062E87FEF85E393E00E94F6096E857F85D1
:1034D000888999890E94631D9B014FE750E062E84B
:1034E0007FEF80E593E00E94F6096E857F858889ED
:1034F00099890E94631D9B014FE750E062E87FEFCE
:103500008BE693E00E94F6096E857F85888999890C
:103510000E94631D9B014FE750E062E87FEF86E861
:1035200093E00E94F6096E857F85888999890E94BB
:10353000631D9B014FE750E062E87FEF81EA93E073
:103540000E94F6096E857F85888999890E94631D8E
:103550009B014FE750E062E87FEF8CEB93E00E9425
:10356000F609412C512C2AE7622E23E4722E409258
:10357000D7035092D8036092D9037092DA03109265
:10358000DB031092DC031092DD031092DE03109235
:10359000DF031092E0031092E1031092E203C09265
:1035A000E303D092E403E092E503F092E6034DECEE
:1035B0005CEC6CE47DE34093E7035093E803609395
:1035C000E9037093EA0380E090E0A0EAB2E480931C
:1035D000EB039093EC03A093ED03B093EE031092F2
:1035E000EF031092F0031092F1031092F203409255
:1035F000F7035092F8036092F9037092FA03109265
:10360000FB031092FC031092FD031092FE03109234
:10361000FF03109200041092010410920204C09261
:103620000304D0920404E0920504F092060440934F
:103630000704509308046093090470930A0480936C
:103640000B0490930C04A0930D04B0930E041092FD
:103650000F0410921004109211041092120480E0D2
:1036600090E0A8E4B2E48093170490931804A09328
:103670001904B0931A0410921B0410921C041092A7
:103680001D0410921E0410921F0410922004109228
:10369000210410922204C0922304D0922404E092C8
:1036A0002504F09226048DEC9CECACECBDE38093F9
:1036B000270490932804A0932904B0932A048092AD
:1036C0002B0490922C04A0922D04B0922E04109200
:1036D0002F04109230041092310410923204109290
:1036E0004204E1EEF2E0108211821282138214820F
:1036F0001582168217821186108612861386158708
:103700000487DF91CF911F910F91FF90EF90DF9091
:10371000CF90BF90AF909F908F907F906F905F9071
:103720004F900895052E97FB1EF400940E94A91B4C
:1037300057FD07D00E94BC1B07FC03D04EF40C942D
:10374000A91B50954095309521953F4F4F4F5F4FA6
:10375000089590958095709561957F4F8F4F9F4FFD
:1037600008950E94DE1BA59F900DB49F900DA49F0D
:10377000800D911D11240895A1E21A2EAA1BBB1BD6
:10378000FD010DC0AA1FBB1FEE1FFF1FA217B3072D
:10379000E407F50720F0A21BB30BE40BF50B661F43
:1037A000771F881F991F1A9469F760957095809507
:1037B00090959B01AC01BD01CF010895A29FB0017E
:1037C000B39FC001A39F700D811D1124911DB29F55
:1037D000700D811D1124911D08955058BB27AA27F3
:1037E0000E94051C0C94971E0E945E1E38F00E94D9
:1037F000651E20F039F49F3F19F426F40C94201E26
:103800000EF4E095E7FB0C941A1EE92F0E94BC1EF3
:1038100058F3BA17620773078407950720F079F405
:10382000A6F50C94DE1E0EF4E0950B2EBA2FA02DFB
:103830000B01B90190010C01CA01A0011124FF275D
:10384000591B99F0593F50F4503E68F11A16F04058
:10385000A22F232F342F4427585FF3CF4695379557
:103860002795A795F0405395C9F77EF41F16BA0B1C
:10387000620B730B840BBAF09150A1F0FF0FBB1FCA
:10388000661F771F881FC2F70EC0BA0F621F731F13
:10389000841F48F4879577956795B795F7959E3F70
:1038A00008F0B0CF9395880F08F09927EE0F979501
:1038B000879508959F939F77EEE389379E0728F4B5
:1038C000EAE8F0E00E944A1E0CC00E94D61D905803
:1038D000A2EA2AED3FE049EC5FE30E94051C0E944A
:1038E000971E0F9007FC905808950E945E1E60F08E
:1038F00080E891E009F49EEF0E94651E28F040E800
:1039000051E071F45EEF0CC00C94201E0C94DE1E8E
:10391000E92FE0780E94BC1E40F3092E052AB1F37E
:10392000261737074807590738F00E2E07F8E02505
:1039300069F0E025E0640AC0EF6307F8009407FA35
:10394000DB01B9019D01DC01CA01AD01EF930E94C9
:10395000081D0E94971E0E94B81C5F91552339F0E4
:103960002BED3FE049E450FD49EC0C94EE1B08952B
:10397000DF93DD27B92FBF7740E85FE31616170600
:1039800048075B0718F4D92F0E94EA1E9F938F9374
:103990007F936F930E94AD1FEEE9F0E00E94231E1B
:1039A0000E94971E2F913F914F915F910E94051F9A
:1039B000DD2351F09058A2EA2AED3FE049EC5FE3A5
:1039C000D0785D270E94051CDF910C94971E0E9401
:1039D000F61D08F481E008950E946E1EE3950C9494
:1039E000A81E0E94051D0C94971E0E94651E58F08B
:1039F0000E945E1E40F029F45F3F29F00C941A1ECD
:103A000051110C94DF1E0C94201E0E94BC1E68F302
:103A10009923B1F3552391F3951B550BBB27AA2787
:103A200062177307840738F09F5F5F4F220F331FC1
:103A3000441FAA1FA9F335D00E2E3AF0E0E832D089
:103A400091505040E695001CCAF72BD0FE2F29D08C
:103A5000660F771F881FBB1F261737074807AB075E
:103A6000B0E809F0BB0B802DBF01FF2793585F4FD3
:103A70003AF09E3F510578F00C941A1E0C94DF1E0C
:103A80005F3FE4F3983ED4F3869577956795B795B5
:103A9000F7959F5FC9F7880F911D9695879597F9C0
:103AA0000895E1E0660F771F881FBB1F6217730739
:103AB0008407BA0720F0621B730B840BBA0BEE1F4E
:103AC00088F7E09508950E946A1D6894B1110C94DE
:103AD000DF1E08950E94C41E88F09F5798F0B92FEA
:103AE0009927B751B0F0E1F0660F771F881F991F33
:103AF0001AF0BA95C9F714C0B13091F00E94DE1ED9
:103B0000B1E008950C94DE1E672F782F8827B85FE8
:103B100039F0B93FCCF3869577956795B395D9F78A
:103B20003EF490958095709561957F4F8F4F9F4F94
:103B30000895E89409C097FB3EF4909580957095A0
:103B400061957F4F8F4F9F4F9923A9F0F92F96E9E9
:103B5000BB279395F695879577956795B795F1115E
:103B6000F8CFFAF4BB0F11F460FF1BC06F5F7F4FFB
:103B70008F4F9F4F16C0882311F096E911C077230D
:103B800021F09EE8872F762F05C0662371F096E816
:103B9000862F70E060E02AF09A95660F771F881FE5
:103BA000DAF7880F9695879597F90895DF93CF9365
:103BB0001F930F938B01EC01EBECF0E00E94231EAE
:103BC0000E94971E9801AE018B01EC0160E070E04D
:103BD00080E89FE30E94ED1B0E946D1F9801AE01DB
:103BE0000F911F91CF91DF910C94051F990F000841
:103BF000550FAA0BE0E8FEEF16161706E807F907BF
:103C0000C0F012161306E407F50798F0621B730B59
:103C1000840B950B39F40A2661F0232B242B252BDA
:103C200021F408950A2609F4A140A6958FEF811D7D
:103C3000811D089597F99F6780E870E060E008951E
:103C40009FEF80EC0895DF93CF931F930F93FF9224
:103C5000EF92DF927B018C01689406C0DA2EEF01AF
:103C60000E94051FFE01E894A5912591359145918B
:103C70005591A6F3EF010E94051CFE019701A801D2
:103C8000DA9469F7DF90EF90FF900F911F91CF9139
:103C9000DF9108959F938F937F936F93FF93EF939B
:103CA0009B01AC010E94F21EEF91FF910E94231E26
:103CB0002F913F914F915F910C94F21E00240A9432
:103CC0001616170618060906089500240A941216F7
:103CD00013061406050608950C94201E0E94C41EA7
:103CE000D8F3E894E0E0BB279F57F0F02AED3FE0DF
:103CF00049EC06C0EE0FBB0F661F771F881F28F028
:103D0000B23A62077307840728F0B25A620B730B4A
:103D1000840BE3959A9572F7803830F49A95BB0F2F
:103D2000661F771F881FD2F790480C94B31F092E87
:103D30000394000C11F4882352F0BB0F40F4BF2B06
:103D400011F460FF04C06F5F7F4F8F4F9F4F089546
:103D5000EF93E0FF07C0A2EA2AED3FE049EC5FEBFA
:103D60000E94051C0E94971E0F90039401FC90581E
:103D7000E3EFF0E00C944A1E57FD9058440F551F96
:103D800059F05F3F71F04795880F97FB991F61F0DD
:103D90009F3F79F087950895121613061406551F54
:103DA000F2CF4695F1DF08C0161617061806991FC0
:103DB000F1CF86957105610508940895E894BB27B5
:103DC00066277727CB0197F908950E94F61D08F41E
:103DD0008FEF08959B01AC0160E070E080E89FE305
:103DE0000C94F11C0E94051F0C94971E0E945E1EED
:103DF00038F00E94651E20F0952311F00C941A1ED5
:103E00000C94201E11240C94DF1E0E94BC1E70F323
:103E1000959FC1F3950F50E0551F629FF001729F6F
:103E2000BB27F00DB11D639FAA27F00DB11DAA1F7E
:103E3000649F6627B00DA11D661F829F2227B00DCB
:103E4000A11D621F739FB00DA11D621F839FA00D56
:103E5000611D221F749F3327A00D611D231F849FA6
:103E6000600D211D822F762F6A2F11249F575040FD
:103E70009AF0F1F088234AF0EE0FFF1FBB1F661F78
:103E8000771F881F91505040A9F79E3F510580F041
:103E90000C941A1E0C94DF1E5F3FE4F3983ED4F39B
:103EA000869577956795B795F795E7959F5FC1F7E5
:103EB000FE2B880F911D9695879597F908959F93EE
:103EC0000E946E1E0F9007FCEE5F0C94A81E19F462
:103ED00016F40C94201E0C94B11F0E94C41EB8F35B
:103EE0009923C9F3B6F39F57550B87FF0E94BF1F55
:103EF0000024A0E640EA900180585695979528F452
:103F0000805C660F771F881F20F026173707480749
:103F100030F4621B730B840B202931294A2BA695A0
:103F200017940794202531254A2758F7660F771FE5
:103F3000881F20F026173707480730F4620B730BF1
:103F4000840B200D311D411DA09581F7B901842FEF
:103F50009158880F9695879508959B01AC010C9414
:103F6000F21E9F3F31F0915020F487957795679529
:103F7000B795880F911D9695879597F9089591505B
:103F80005040660F771F881FD2F70895DB018F938B
:103F90009F930E94B11BBF91AF91A29F800D911D75
:103FA000A39F900DB29F900D11240895991B79E065
:103FB00004C0991F961708F0961B881F7A95C9F7B9
:103FC0008095089597FB072E16F4009407D077FD8F
:103FD00009D00E94C72107FC05D03EF49095819539
:103FE0009F4F0895709561957F4F0895EE0FFF1FC5
:103FF0000590F491E02D0994DF93CF931F930F93D5
:104000009A9DF02D219FF00D8B9DF00D8A9DE02D46
:10401000F10D039FF00D029FE00DF11D4E9DE00D8F
:10402000F11D5E9DF00D4F9DF00D7F936F93BF923C
:10403000AF925F934F93D5010E94DE1B8B01AC01C1
:10404000D7010E94DE1BEB01E80FF91FD6010E9489
:104050004C202F913F91D6010E94DE1BC60FD71F27
:10406000E81FF91FAF91BF910E944C202F913F9103
:104070000E94DE1BC60FD71FE81FF91FD6010E9442
:10408000DE1BE60FF71F9801BE01CF0111240F912F
:104090001F91CF91DF9108950E94DE1B460F571F9D
:1040A000C81FD91F08F43196089597FB57FF0C9449
:1040B00065209F938F930E9465206E1B7F0BAF91AD
:1040C000BF918A0B9B0B0895E894DF93CF93FC017B
:1040D000DB010E94DE1B7F936F93E9019A01AC0123
:1040E000BF93AF933F932F93DF010E94DE1B26F413
:1040F0006C1B7D0B820B930B9E01EB01FC010E945C
:104100004C20AF91BF912F913F910E944C20BE0156
:10411000CF01F9012F913F91CF91DF9108956894DC
:1041200001C0E894F92FF12B12F00C94C320A0E009
:10413000B0E0EDE9F0E20C943521092E059422F46B
:104140000E941F21112392F4F0E80F26FFEFE09464
:10415000F09400951095B094C094D094A194BF0AA7
:10416000CF0ADF0AEF0AFF0A0F0B1F0B0E94CE20B7
:1041700007FC0E941F21CDB7DEB7ECE00C94512163
:10418000689401C0E8948F929F92CF93DF930E942E
:10419000CE20DF91CF919F908F900895882499240D
:1041A000F401E401B0E49F93AA279A158B049C04C0
:1041B000ED05FE05CF05D007A10798F4AD2FDC2F44
:1041C000CF2FFE2FE92D982C892E982F872F762F11
:1041D000652F542F432F322F2227B85031F7BF912C
:1041E00027C01B2EBF91BB27220F331F441F551F13
:1041F000661F771F881F991F881C991CEE1FFF1FC1
:10420000CC1FDD1FAA1FBB1F8A149B04EC05FD05F4
:10421000CE05DF05A007B10748F08A189B08EC0916
:10422000FD09CE09DF09A00BB10B21601A94E1F65C
:104230002EF49401AF01BE01CD01000C08956095EC
:1042400070958095909530954095509521953F4F6C
:104250004F4F5F4F6F4F7F4F8F4F9F4F08952F925C
:104260003F924F925F926F927F928F929F92AF9206
:10427000BF92CF92DF92EF92FF920F931F93CF9353
:10428000DF93CDB7DEB7CA1BDB0B0FB6F894DEBFEA
:104290000FBECDBF09942A88398848885F846E8410
:1042A0007D848C849B84AA84B984C884DF80EE805A
:1042B000FD800C811B81AA81B981CE0FD11D0FB663
:1042C000F894DEBF0FBECDBFED0108950F93083007
:1042D00090F0982F872F762F652F542F432F322F52
:1042E00022270850F4CF220F331F441F551F661F8B
:1042F000771F881F991F0A95B2F70F91089597FBB2
:1043000010F8169400080F93083098F00850232FE7
:10431000342F452F562F672F782F892F902DF4CFCC
:104320000594979587957795679557954795379510
:1043300027950A95AAF70F9108952A0D3B1D4C1D4C
:104340005D1D6E1D7F1D801F911F08950024A7FD18
:1043500000942A0F301D401D501D601D701D801DD2
:10436000901D08952A193B094C095D096E097F09C2
:10437000800B910B08950024A7FD00942A173005A7
:104380004005500560057005800590050895AA1B3D
:10439000BB1B51E107C0AA1FBB1FA617B70710F030
:1043A000A61BB70B881F991F5A95A9F78095909562
:1043B000BC01CD0108950F931F93CF93DF938230FB
:1043C000910510F482E090E0E091A904F091AA0434
:1043D00020E030E0A0E0B0E0309719F14081518159
:1043E0000281138148175907C8F08417950769F4AB
:1043F000109731F012960C93129713961C9327C0C6
:104400000093A9041093AA0422C02115310519F0C4
:104410004217530718F49A01BD01EF01DF01F801BB
:10442000DBCF21153105F9F0281B390B243031057C
:1044300080F48A819B816115710521F0FB019383D2
:10444000828304C09093AA048093A904FE0132964B
:1044500044C0FE01E20FF31F819391932250310972
:10446000398328833AC02091A7043091A804232BD4
:1044700041F420910201309103013093A80420936C
:10448000A70420910001309101012115310541F46B
:104490002DB73EB74091040150910501241B350B07
:1044A000E091A704F091A804E217F307A0F42E1BF3
:1044B0003F0B2817390778F0AC014E5F5F4F241788
:1044C000350748F04E0F5F1F5093A8044093A70490
:1044D0008193919302C0E0E0F0E0CF01DF91CF91B2
:1044E0001F910F910895CF93DF93009709F481C036
:1044F000FC01329713821282A091A904B091AA0400
:10450000109781F420813181820F931F2091A7049D
:104510003091A8042817390751F5F093A804E093C7
:10452000A70467C0ED0120E030E0CE17DF0740F4BC
:104530004A815B819E0141155105F1F0EA01F5CFF9
:10454000D383C28340815181840F951FC817D90737
:1045500059F488819981840F951F029691838083F5
:104560008A819B81938382832115310529F4F093FD
:10457000AA04E093A9043DC0E901FB83EA834991C1
:104580005991C40FD51FEC17FD0761F4808191810B
:10459000840F951F0296E901998388838281938114
:1045A0009B838A83E0E0F0E012968D919C911397B3
:1045B000009719F0FD01DC01F7CF8D919C911197C7
:1045C0009D012E5F3F4F820F931F2091A7043091D2
:1045D000A8042817390769F4309729F41092AA041F
:1045E0001092A90402C013821282B093A804A0936F
:1045F000A704DF91CF91089581E090E0F8940C94A6
:064600000123F894FFCF36
:104606000000AB0480000000F04100007042000092
:10461600C842000000006F01DC000601BC01370142
:10462600150129010000000075024802A5021C02BE
:0646360040022C021D02EF
:00000001FF
