:100000000C94B2000C94DA000C94DA000C94DA0030
:100010000C94DA000C94DA000C94DA000C94A40628
:100020000C94DA000C94DA000C94DA000C94770546
:100030000C94DA000C94DA000C94DA000C94DA00D8
:100040000C948A0C0C9440070C9417040C94F10344
:100050000C94DA000C94DA000C94DA000C94DA00B8
:100060000C9449040C94DA00AB07B207CD07B7072C
:10007000DE07DE07DE07DE07D507D207D807DE0773
:10008000DE07DE078C07C007CD07036EDB363D9A1F
:100090009999993DABAAAA2A3E000000803F084AE0
:1000A000D73B3BCE016E84BCBFFDC12F3D6C74318C
:1000B0009ABD56833DDA3D00C77F11BED9E4BB4CE3
:1000C0003E916BAAAABE000000803F072C7AA5BA19
:1000D0006CC590DA3B9365FC8BBC53F810FD3C5625
:1000E00092834DBD879D3AB63DCBC9BF5BBE73DAE7
:1000F0000FC93F05A84CCDB2D44EB93836A9020C71
:1001000050B9918688083CA6AAAA2ABE00000080A1
:100110003F00000000080002010000030407000087
:1001200000000000000000000000250028002B0057
:1001300000000000240027002A0004040404040432
:100140000404020202020202030303030303010286
:100150000408102040800102040810200102040855
:100160001020001911241FBECFEFD8E0DEBFCDBF95
:1001700011E0A0E0B1E0EEEFF1E402C005900D92D5
:10018000A634B107D9F724E0A6E4B1E001C01D927E
:10019000A734B207E1F710E0C2EBD0E004C021972A
:1001A000FE010E94F21DC13BD107C9F70E94D40C89
:1001B0000C94FD200C940000CF92DF92EF92FF92FE
:1001C0000F931F93CF93DF936C017A018B01C0E0F3
:1001D000D0E0CE15DF0581F0D8016D918D01D601FB
:1001E000ED91FC910190F081E02DC6010995892BDC
:1001F00011F02196EECF7E01C701DF91CF911F91C3
:100200000F91FF90EF90DF90CF900895FC01538DF8
:10021000448D252F30E0842F90E0821B930B5417E0
:1002200010F0CF96089501970895FC01918D828D6D
:10023000981761F0828DDF01A80FB11D5D968C913A
:10024000928D9F5F9F73928F90E008958FEF9FEF45
:100250000895FC01918D828D981731F0828DE80F01
:10026000F11D858D90E008958FEF9FEF0895FC01BB
:10027000918D228D892F90E0805C9F4F821B910988
:100280008F73992708958BE692E00E94370121E051
:10029000892B09F420E0822F0895FC01848DDF0171
:1002A000A80FB11DA35ABF4F2C91848D90E00196E9
:1002B0008F739927848FA689B7892C93A089B189D8
:1002C0008C91837080648C93938D848D981306C079
:1002D0000288F389E02D80818F7D80830895EF92DD
:1002E000FF920F931F93CF93DF93EC0181E0888FF0
:1002F0009B8D8C8D981305C0E889F989808185FDD7
:1003000026C0F62E0B8D10E00F5F1F4F0F731127C5
:10031000E02E8C8DE8120CC00FB607FCFACFE889EE
:10032000F989808185FFF5CFCE010E944D01F1CF83
:100330008B8DFE01E80FF11DE35AFF4FF0829FB74E
:10034000F8940B8FEA89FB89808180620AC09FB78D
:10035000F894EE89FF896083E889F9898081837048
:10036000806480839FBF81E090E0DF91CF911F91F7
:100370000F91FF90EF900895CF93DF93EC01888D5C
:100380008823C9F0EA89FB89808185FD05C0A88999
:10039000B9898C9186FD0FC00FB607FCF5CF80811F
:1003A00085FFF2CFA889B9898C9185FFEDCFCE0169
:1003B0000E944D01E7CFDF91CF91089580E090E05A
:1003C000892B29F00E94430181110C9400000895AB
:1003D00085ED8093BC008091BC0084FDFCCF109221
:1003E0003B0208954091AD01262F30E0240F311DCE
:1003F00021323105DCF420913B022430C9F4FC01A8
:1004000080E090E0861758F43091AD012191DC0135
:10041000A357BE4FA30FB11D2C930196F3CF80912C
:10042000AD01680F6093AD0180E0089581E008950B
:1004300082E00895089508950895E091D101809192
:10044000D001E81730F4F0E0EB50FE4F808190E0EF
:1004500008958FEF9FEF08959091D1018091D00181
:10046000981750F4E92FF0E0EB50FE4F208130E078
:100470009F5F9093D10102C02FEF3FEFC901089514
:100480008091D00190E02091D101821B91090895C3
:10049000CF92DF92EF92FF920F931F93CF93DF9350
:1004A0007C01CB018A012091D201222389F0EB014A
:1004B0006B01C40ED51ECC15DD0569F06991D7011D
:1004C000ED91FC910190F081E02DC7010995F3CFEA
:1004D000642F0E94F201C801DF91CF911F910F910B
:1004E000FF90EF90DF90CF900895CF93DF931F920E
:1004F000CDB7DEB769832091D2012223D1F02091BC
:10050000F401203240F021E030E0FC01338322830B
:1005100080E090E015C08091D301E82FF0E0EC522C
:10052000FE4F998190838F5F8093D3018093F40174
:1005300005C061E0CE0101960E94F20181E090E0E9
:100540000F90DF91CF910895089580E090E0089595
:10055000FC0190819C3088F5818128E830E0281BDF
:10056000310987FD3395220F331F220F331F621786
:10057000730784F0828148E552E0481B510987FDEA
:100580005395440F551F440F551F9B01461757079E
:100590000CF49A0122503109220F331F4FB7F894FF
:1005A000892F90E0FC01EE0FFF1F8E0F9F1FFC01B3
:1005B000E759FE4F328321834FBF0895CF93DF93D6
:1005C000EC01288139818A819B812817390704F53C
:1005D000888199812A813B81821B930B1816190609
:1005E0002CF4888199812A813B8104C08A819B8176
:1005F00028813981821B930B2C813D8182179307BF
:100600003CF12C813D8188819981820F931F29C003
:10061000288139818A819B818217930724F58881FB
:1006200099812A813B81821B930B181619062CF4A1
:10063000888199812A813B8104C08A819B8128819C
:100640003981821B930B2C813D81821793071CF407
:100650008A819B8106C02C813D8188819981821B82
:10066000930B9983888368817981CE010E960E94CD
:10067000A802488159812A813B8181E042175307B2
:1006800009F080E0DF91CF910895613921E0720790
:1006900014F060E971E077FF02C060E070E02CEDDB
:1006A00035E0261B370BFC013187208764527A4FD7
:1006B000778366830895CF92DF92EF92FF920F9334
:1006C0001F93CF93DF93EC018B01FC01E054FF4FAC
:1006D0008081882309F450C062307105B9F063301D
:1006E000710541F06130710551F460E070E080E027
:1006F0009FE310C066E676E686E290E40BC060E019
:1007000070E080E89FE301E010E004C060E070E08A
:1007100080EA9FE320E030E048EC52E40E94EE1CC7
:100720000E945F1B6B017C01CE01855A9F4F0E9486
:100730004503B601CE0184599F4F0E944503B6017F
:10074000CE0183589F4F0E944503B601CE01889683
:100750000E944503B601CE0147960E944503B601AB
:10076000CE01865B9F4F0E944503B601CE01C9961C
:100770000E94450318870F83DF91CF911F910F913E
:10078000FF90EF90DF90CF9008950E94F8200F9394
:100790001F93CF93DF938C01C0916501D0916601C7
:1007A000209749F484E090E00E94D71F909366015F
:1007B000809365010CC08A819B81009711F0EC0148
:1007C000FACF84E090E00E94D71F9B838A83FC01CC
:1007D0001183008313821282DF91CF911F910F91B9
:1007E00008951F920F920FB60F9211242F933F93EB
:1007F0004F935F936F937F938F939F93AF93BF9329
:10080000EF93FF938BE692E00E944D01FF91EF91F1
:10081000BF91AF919F918F917F916F915F914F9118
:100820003F912F910F900FBE0F901F9018951F9220
:100830000F920FB60F9211242F938F939F93EF93E4
:10084000FF93E0917B02F0917C028081E091810234
:10085000F091820282FD12C09081809184028F5FAC
:100860008F7320918502821751F0E0918402F0E0AD
:10087000E559FD4F958F8093840201C08081FF91DF
:10088000EF919F918F912F910F900FBE0F901F901E
:1008900018951F920F920FB60F9211242F933F932A
:1008A0004F935F936F937F938F939F93AF93BF9378
:1008B000EF93FF938091B900887F803609F49CC044
:1008C00068F5883209F45BC090F4803109F454C0B3
:1008D00038F4882309F4F6C0883009F44DC0F6C016
:1008E000883109F44CC0803209F45DC0EFC0803417
:1008F00009F468C048F4803309F455C0883309F01E
:10090000E5C080933902D8C0803509F44FC08835DE
:1009100009F45DC0883409F0D9C0D6C0883909F41B
:10092000C7C0A8F4883709F467C038F4883609F4DA
:1009300063C0803709F460C0C9C0883809F4B8C002
:10094000803909F45FC0803809F0C0C05BC0803BCB
:1009500009F486C038F4803A09F466C0883A09F48C
:100960007FC0B4C0803C09F4A7C0883C09F4A4C08F
:10097000883B09F48AC0AAC08091360210C09091C9
:10098000380280913702981770F5E091380281E0C3
:100990008E0F80933802F0E0EB5EFD4F80818093F4
:1009A000BB0085EC86C0809339028EC0E09138028E
:1009B00081E08E0F809338028091BB00F0E0EB5E07
:1009C000FD4F808390913802809137026EC0E09194
:1009D000380281E08E0F809338028091BB00F0E0F6
:1009E000EB5EFD4F808380913A0281116DC081E002
:1009F0008093350284EA61C083E080933B021092C9
:100A0000CF01CFCF8091CF01803208F051C0E0916B
:100A1000CF0181E08E0F8093CF018091BB00F0E089
:100A2000E155FE4F8083BDCF85EC8093BC001092D2
:100A30003B028091CF01803230F4E091CF01F0E0B1
:100A4000E155FE4F10826091CF0170E0E0914601C8
:100A5000F09147018FEA91E009951092CF0136C0DD
:100A600084E080933B021092AE011092AD01E091C0
:100A70004801F091490109958091AD01811105C0AE
:100A800081E08093AD0110928D01E091AE0181E093
:100A90008E0F8093AE01F0E0E357FE4F808180938C
:100AA000BB009091AE018091AD01981708F479CF09
:100AB00085E88093BC000AC085EC8093BC0010924E
:100AC0003B0204C0109239020E94E801FF91EF91AD
:100AD000BF91AF919F918F917F916F915F914F9156
:100AE0003F912F910F900FBE0F901F9018951F925E
:100AF0000F920FB60F9211242F933F934F935F9352
:100B00006F937F938F939F93AF93BF93EF93FF93D5
:100B10008091680187FF05C01092850010928400C3
:100B20001BC020916801022E000C330B80916701DD
:100B300090E02817390784F480916801082E000C92
:100B4000990BFC01EE0FFF1F8E0F9F1FFC01E75951
:100B5000FE4F808186FD15C0809168018F5F809374
:100B6000680120916801022E000C330B809167010F
:100B700090E028173907C4F4809168018C3064F143
:100B800013C080916801082E000C990BFC01EE0F38
:100B9000FF1F8E0F9F1FFC01E759FE4F808160E011
:100BA0008F730E942F09D8CF809184009091850087
:100BB000049680349C4918F480E49CE905C0809137
:100BC000840090918500049690938900809388001A
:100BD0008FEF809368013BC02091840030918500A5
:100BE00080916801082E000C990BFC01EE0FFF1F8D
:100BF0008E0F9F1FFC01E759FE4F81819281820F6A
:100C0000931F909389008093880080916801082E3B
:100C1000000C990BFC01EE0FFF1F8E0F9F1FFC01B4
:100C2000E759FE4F808186FF12C080916801082E2F
:100C3000000C990BFC01EE0FFF1F8E0F9F1FFC0194
:100C4000E759FE4F808161E08F730E942F09FF9169
:100C5000EF91BF91AF919F918F917F916F915F9134
:100C60004F913F912F910F900FBE0F901F901895AD
:100C7000EF92FF920F931F93CF93DF93EC017D8749
:100C80006C87EC84FD848C01025F1F4F8E858C3055
:100C900008F04FC08E2D0E9410098E85E82FF0E0DD
:100CA0009F01220F331FE20FF31FE759FE4F9E2DC6
:100CB0009F732081207CE22EE92AE0821F86188A19
:100CC0006CE00E94D21D9CE0899FB001112440E09D
:100CD00050E09B01240F351FF901EE0FFF1F2E0F6F
:100CE0003F1FF901E759FE4F908196FD16C04F5FF7
:100CF0005F4F4C30510569F781110FC01092800091
:100D000082E0809381001092850010928400B19A55
:100D100080916F00826080936F00EE85F0E0CF01DC
:100D2000880F991FE80FF91FE759FE4F80818064F3
:100D300080836CED75E0C801DF91CF911F910F9119
:100D4000FF90EF900C94A8021F920F920FB60F9293
:100D500011242F933F934F935F936F937F938F93C0
:100D60009F93AF93BF93CF93DF93EF93FF93C09184
:100D70006501D09166012097D1F0E881F981EE0FED
:100D8000FF1FE95AFE4F808191810E94DE0281118E
:100D900004C0888199810E94C7038A819B819093B6
:100DA000660180936501CE010E946F2004C080918E
:100DB000700010927000FF91EF91DF91CF91BF9181
:100DC000AF919F918F917F916F915F914F913F91E3
:100DD0002F910F900FBE0F901F901895CF92DF921A
:100DE000EF92FF92CF93DF93EC01603871053CF4F2
:100DF00062388FEF78072CF462E87FEF02C06FE76C
:100E000070E08E819F81C884D9840D2C000CEE087F
:100E1000FF08AB01770F660B770B9A01AB012258E5
:100E20003F4F4F4F5F4F092E000CAA0BBB0BBC016D
:100E3000CD016C197D098E099F090E94C21D2DEFFD
:100E400030E040E050E00E948E19C20ED31EE41E36
:100E5000F51EDB82CA82CE010E94DE02811109C02A
:100E60008A859B850E94C703809170008260809371
:100E70007000DF91CF91FF90EF90DF90CF900895B9
:100E80001F920F920FB60F9211242F933F934F93FF
:100E90005F936F937F938F939F93AF93BF93EF93E2
:100EA000FF938EB58093540180914A0190914B013C
:100EB000FC01EE0FFF1F8E0F9F1FFC01E55DFB4F36
:100EC00082818EBD80914A0190914B010196909351
:100ED0004B0180934A01039724F010924B0110922A
:100EE0004A0180915401811104C081E08093530133
:100EF000A7C080915301882309F467C0E091540191
:100F00008E2F90E0FC013497E131F10508F056C0D6
:100F1000EC5CFF4F0C94F21D80911403882399F030
:100F20008AE291E00E94EE081092A3031092A203BD
:100F30001092A5031092A4031092A7031092A60387
:100F4000109214033BC086E391E00E94EE0881E01A
:100F50008093140333C081E090E090931A03809350
:100F600019032CC010921A031092190327C0109273
:100F700015031092160310921703109218031EC047
:100F800080E090E0A0ECBFE38093150390931603FC
:100F9000A0931703B093180311C080E090E0A0E87D
:100FA000BFE3F2CF63E070E005C062E070E002C032
:100FB00061E070E084E193E00E945B0310925301D2
:100FC00010925201109251013BC0809151019091B9
:100FD00052018130910579F082309105B1F0892B71
:100FE000E9F48091540190E08F5791099093A30305
:100FF0008093A20313C08091540190E08F57910910
:101000009093A5038093A40309C08091540190E0BC
:101010008F5791099093A7038093A6038091510164
:101020009091520101969093520180935101039740
:1010300024F0109252011092510181E080934C01F2
:10104000FF91EF91BF91AF919F918F917F916F91A0
:101050005F914F913F912F910F900FBE0F901F9076
:10106000189590913B029111FCCF91E090933B0237
:1010700040933A022FEF2093390210923802260F44
:10108000209337029093360290913602880F892B75
:101090008093360280913502813061F410923502DE
:1010A000809136028093BB008091BC0083FDF8CF15
:1010B00085EC01C085EE8093BC0080913B028130BD
:1010C000E1F380913802861710F460913802A5E1AF
:1010D000B2E0E5EFF1E080E0861721F09D91919379
:1010E0008F5FFACF0895282F3091F401313208F044
:1010F0004AC080913B028111FCCF9091420442E0B2
:1011000040933B0220933A022FEF20933902109232
:10111000380230933702E4EDF1E0A5E1B2E020E0DF
:10112000321721F041914D932F5FFACF1092360282
:1011300020913602990F922B9093360290913502AE
:10114000913061F410923502909136029093BB0079
:101150009091BC0093FDF8CF95EC01C095EE909373
:10116000BC0090913B029230E1F3909139029F3F95
:1011700079F080913902803241F0809139028033D8
:1011800031F084E005C081E003C082E001C083E06B
:101190001092D3011092F4011092D201089591E0BF
:1011A0009093D201809342041092D3011092F401E3
:1011B0000895682F88E093E00C947502813208F05E
:1011C00080E241E0682F86E70E9431081092D10149
:1011D0008093D001089581E00C947308CF93DF933E
:1011E000009779F0FC0101900020E9F73197AF01F9
:1011F000481B590BBC018BE692E00E94DC00EC011D
:1012000002C0C0E0D0E042E050E062E471E08BE672
:1012100092E00E94DC008C0F9D1FDF91CF9108951A
:1012200090E0FC01E25BFE4F2491FC01E65CFE4F86
:101230008491882399F090E0880F991FFC01E05D6C
:10124000FE4FA591B491FC01EA5DFE4F859194910A
:101250008FB7F894EC91E22BEC938FBF089590E058
:10126000FC01EE5EFE4F2491FC01E25BFE4F3491E7
:10127000FC01E65CFE4FE491EE2309F43CC022231E
:1012800039F1233091F038F42130A9F0223001F502
:1012900084B58F7D12C0273091F02830A1F0243022
:1012A000B9F4809180008F7D03C0809180008F779A
:1012B000809380000DC084B58F7784BD09C0809174
:1012C000B0008F7703C08091B0008F7D8093B00015
:1012D000F0E0EE0FFF1FEA5DFE4FA591B4919FB7BE
:1012E000F894611104C08C913095382302C0EC91C0
:1012F0003E2B3C939FBF08953FB7F89480913E04E6
:1013000090913F04A0914004B091410426B5A89B60
:1013100005C02F3F19F00196A11DB11D3FBFBA2F87
:10132000A92F982F8827820F911DA11DB11DBC01E7
:10133000CD0142E0660F771F881F991F4A95D1F7AC
:1013400008954F925F926F927F928F929F92AF9289
:10135000BF92CF92DF92EF92FF92CF93DF93CDB700
:10136000DEB7A4970FB6F894DEBF0FBECDBF0E94C4
:101370007C09C0906602D0906702E0906802F0900D
:1013800069026C197D098E099F090E94951B20E056
:1013900030E048EC52E40E94ED1A6B017C010E949F
:1013A0007C09609366027093670280936802909351
:1013B00069028091500290915102A0915202B09125
:1013C0005302BC01CD019058A70196010E94EE1C6A
:1013D0002B013C018091540290915502A09156023C
:1013E000B0915702BC01CD019058A70196010E940F
:1013F000EE1C4B015C012091580230915902409142
:101400005A0250915B02C701B6010E94EE1C6B01AB
:101410007C01C301B2010E94E81A6D837E838F8331
:101420009887C501B4010E94E81A69877A878B877B
:101430009C87C701B6010E94E81A6D877E878F8757
:10144000988B8091400290914102A0914202B0910C
:101450004302898B9A8BAB8BBC8BBC01CD010E9464
:10146000E81A6D8B7E8B8F8B988F80913C029091C8
:101470003D02A0913E02B0913F02898F9A8FAB8FBF
:10148000BC8FBC01CD010E94E81A69837A838B83EB
:101490009C83C301B2010E945B1D6D8F7E8F8F8F75
:1014A00098A3C501B4010E945B1D69A37AA38BA315
:1014B0009CA3C701B6010E945B1D2B013C016989F9
:1014C0007A898B899C890E945B1D698B7A8B8B8BB7
:1014D0009C8B698D7A8D8B8D9C8D0E945B1D6B0121
:1014E0007C0129813A814B815C816D857E858F8568
:1014F00098890E94EE1C29893A894B895C890E944F
:10150000EE1C4B015C01A7019601C301B2010E94D0
:10151000EE1C9B01AC01C501B4010E94EA194B010C
:101520005C01A70196016D857E858F8598890E9453
:10153000EE1C6B017C01A301920169817A818B8190
:101540009C810E94EE1C29893A894B895C890E9402
:10155000EE1C9B01AC01C701B6010E94E9196D8721
:101560007E878F87988B9B01AC0169A17AA18BA1A3
:101570009CA10E94EE1C6B017C0129813A814B8168
:101580005C8169857A858B859C850E94EE1C2D89FE
:101590003E894F89588D0E94EE1C9B01AC01C7010A
:1015A000B6010E94E9192B013C016D8D7E8D8F8D56
:1015B00098A19058A50194010E94EE1C6B017C013A
:1015C000A30192016D817E818F8198850E94EE1C1E
:1015D0009B01AC01C701B6010E94E9196B017C01B6
:1015E000A50194016D817E818F8198850E94EE1CFA
:1015F0004B015C01A30192016D8D7E8D8F8D98A1B1
:101600000E94EE1C9B01AC01C501B4010E94E919C6
:101610004B015C01A70196010E94841A6D837E83B1
:101620008F839887609340027093410280934202B7
:1016300090934302A5019401C501B4010E94EE1CE0
:101640004B015C01A7019601C701B6010E94EE1C87
:101650009B01AC01C501B4010E94EA190E94691DF9
:101660006B017C0129813A814B815C816D897E8986
:101670008F89988D0E94EE1C29A13AA14BA15CA1F3
:101680000E94EE1C4B015C012D853E854F855889DB
:1016900069857A858B859C850E94EE1C9B01AC0137
:1016A000C501B4010E94EA19A70196010E94841A9B
:1016B00069877A878B879C8760933C0270933D0291
:1016C00080933E0290933F028091440290914502A4
:1016D000A0914602B091470289839A83AB83BC8371
:1016E00020E030E0A901BC01CD010E94E11C1816E8
:1016F00034F069817A818B819C81905804C0698122
:101700007A818B819C819B01AC010E94EE1C6B0154
:101710007C018090480290904902A0904A02B090CB
:101720004B0220E030E0A901C501B4010E94E11C98
:10173000181624F0C501B401905802C0C501B401C7
:101740009B01AC010E94EE1CA70196010E94EA19C0
:101750006B017C0140904C0250904D0260904E0213
:1017600070904F0220E030E0A901C301B2010E9455
:10177000E11C181624F0C301B201905802C0C30145
:10178000B2019B01AC010E94EE1CA70196010E94D0
:10179000EA190E94691D6B017C0126E636E646E6E1
:1017A0005FE30E94E11C18160CF065C02DEC3CECC8
:1017B0004CE85FE3C701B6010E94E31A87FF5BC0F4
:1017C000A30192015058C501B4010E94841A2B0153
:1017D0003C0169817A818B819C819058A701960197
:1017E0005F770E94ED1A0E94561A6B017C0126E673
:1017F00036E646E65FE36D817E818F8198850E94A3
:10180000EE1C4B015C012DEC3CEC4CEC5DE3C301A8
:10181000B2010E94EE1C9B01AC01C501B4010E9403
:10182000EA196093400270934102809342029093C0
:10183000430226E636E646E65FE369857A858B85D0
:101840009C850E94EE1C4B015C012DEC3CEC4CECA9
:101850005DE3C701B6010E94EE1C9B01AC01C5010E
:10186000B4010E94EA1960933C0270933D02809398
:101870003E0290933F02A4960FB6F894DEBF0FBECF
:10188000CDBFDF91CF91FF90EF90DF90CF90BF90D1
:10189000AF909F908F907F906F905F904F90089542
:1018A0008F929F92AF92BF92CF92DF92EF92FF9270
:1018B0006B017C010E947C094B015C01C114D104C5
:1018C000E104F104F1F00E947C09DC01CB018819EC
:1018D0009909AA09BB09883E9340A105B10570F397
:1018E00021E0C21AD108E108F10888EE880E83E0F1
:1018F000981EA11CB11CC114D104E104F10419F714
:10190000DDCFFF90EF90DF90CF90BF90AF909F9092
:101910008F9008951F920F920FB60F9211242F935C
:101920003F938F939F93AF93BF9380913A0490918D
:101930003B04A0913C04B0913D043091390423E074
:10194000230F2D3720F40196A11DB11D05C026E8F7
:10195000230F0296A11DB11D2093390480933A04F0
:1019600090933B04A0933C04B0933D0480913E04CB
:1019700090913F04A0914004B09141040196A11DB3
:10198000B11D80933E0490933F04A0934004B09314
:101990004104BF91AF919F918F913F912F910F90F3
:1019A0000FBE0F901F901895CF93DF93CDB7DEB782
:1019B000C958D1090FB6F894DEBF0FBECDBF7894D9
:1019C00084B5826084BD84B5816084BD85B5826044
:1019D00085BD85B5816085BD80916E0081608093F5
:1019E0006E0010928100809181008260809381005E
:1019F000809181008160809381008091800081606E
:101A0000809380008091B10084608093B1008091C8
:101A1000B00081608093B00080917A0084608093F0
:101A20007A0080917A00826080937A0080917A00B7
:101A3000816080937A0080917A00806880937A0038
:101A40001092C100E0917B02F0917C0282E08083E1
:101A5000E0917702F09178021082E0917902F091A2
:101A60007A028FEC808310928302E0917F02F091E2
:101A7000800286E08083E0917D02F0917E02808189
:101A800080618083E0917D02F0917E028081886098
:101A90008083E0917D02F0917E0280818068808366
:101AA000E0917D02F0917E0280818F7D808320E035
:101AB00030E080913704909138048430910590F49F
:101AC000AC014F5F5F4F5093380440933704FC01E3
:101AD000EE0FFF1F8E0F9F1FFC01E55DFB4F318353
:101AE000208312822F5F3F4F2430310511F710926F
:101AF0004B0110924A011092D1011092D001109224
:101B0000D3011092F40110923B0281E080933A02DB
:101B10001092350261E082E10E942F0961E083E1C9
:101B20000E942F098091B9008E7F8093B900809127
:101B3000B9008D7F8093B90088E48093B80085E474
:101B40008093BC008AE192E0909349018093480120
:101B50008BE192E0909347018093460188E60E94D2
:101B6000CF088BE690E00E94D90880E090E00E94C8
:101B7000D90881E00E94730868EE73E080E090E08D
:101B80000E94500C1092260480E090E4A9E7B4E48F
:101B90008093270490932804A0932904B0932A04E7
:101BA00086E70E94CF088EE190E00E94D9080E944B
:101BB000EB086AE070E080E090E00E94500C56E094
:101BC000E52E54E0F52E00EA10E086E70E94CF08EB
:101BD000C8010E94D9080E94EB0841E062E086E754
:101BE0000E9431081092D1018093D00188E093E0E7
:101BF0000E942C02B82E88E093E00E942C02DB2C7D
:101C0000C12C8C299D29D7018D939D937D010E5F59
:101C10001F4F0E3A1105C9F68091060490910704F2
:101C20009F709093070480930604109215041092FD
:101C3000140468EE73E080E090E00E94500C87E2AC
:101C4000E4E0F4E0DE01D09601900D928A95E1F790
:101C50008FE2ECE3F2E0DE01119601900D928A959D
:101C6000E1F768E070E08FE693E00E94380667E0F5
:101C700070E080E893E00E94380664E070E081E95B
:101C800093E00E94380665E070E08CE393E00E94E8
:101C9000380666E070E08BE293E00E94380663E06D
:101CA00070E08EE593E00E94380662E070E08DE41B
:101CB00093E00E9438068AE291E00E94EE081092BA
:101CC000A3031092A2031092A5031092A4031092F2
:101CD000A7031092A6031092140387E2FE01F09668
:101CE000A8EAB3E001900D928A95E1F78FE2FE0138
:101CF0003196A5EDB3E001900D928A95E1F710922F
:101D0000CF036091C6037091C7038091C80390917F
:101D1000C9030E94971B6093D0037093D1038093F3
:101D2000D2039093D30381E090E090931C038093BF
:101D30001B038093D40368EB7BE080E090E00E947B
:101D4000500CF8948CE00E9410098CB580648CBD16
:101D50008FEF8EBD8CB580688CBD78940E947C0915
:101D600000914D0110914E0120914F013091500191
:101D7000DC01CB01801B910BA20BB30B81329E4483
:101D8000A105B10560F00E947C0960934D0170933C
:101D90004E0180934F019093500181E001C080E09B
:101DA0002091040430910504232BA9F4882399F091
:101DB00086E70E94CF088AE490E00E94D9080E943A
:101DC000EB0880910404909105040196909305041A
:101DD0008093040480E020910404309105042130B4
:101DE000310509F06BC0882309F468C086E70E94BA
:101DF000CF0880E090E00E94D9080E94EB0883E0C1
:101E000090E00E94DE0810921604109217041092BF
:101E100018041092190488E093E00E942C024C01EF
:101E2000990FAA08BB088092160490921704A092FA
:101E30001804B092190488E093E00E942C02BA2C96
:101E4000A92C982C88246C01990FEE08FF08C8284B
:101E5000D928EA28FB28C0921604D0921704E092F1
:101E60001804F092190488E093E00E942C02FE2CE2
:101E7000ED2CDC2CCC24092E000CAA0BBB0BC82AA1
:101E8000D92AEA2AFB2AC0921604D0921704E092BB
:101E90001804F092190486E70E94CF088AE590E0C2
:101EA0000E94D9080E94EB088091040490910504D7
:101EB0000196909305048093040480E0209104042B
:101EC000309105042230310509F039C5882309F421
:101ED00036C586E70E94CF0880E090E00E94D908CE
:101EE0000E94EB0883E090E00E94DE0810921A0442
:101EF00010921B0410921C0410921D0488E093E0C1
:101F00000E942C024C01990FAA08BB0880921A0467
:101F100090921B04A0921C04B0921D0488E093E0F0
:101F20000E942C02BA2CA92C982C88246C01990FA1
:101F3000EE08FF08C828D928EA28FB28C0921A040E
:101F4000D0921B04E0921C04F0921D0488E093E000
:101F50000E942C02FE2CED2CDC2CCC24092E000C33
:101F6000AA0BBB0BC82AD92AEA2AFB2AC0921A0458
:101F7000D0921B04E0921C04F0921D048091100486
:101F800090911104A0E0B0E0BA2FA92F982F8827D4
:101F900097018601081B190B2A0B3B0B6B960CAFA4
:101FA0001DAF2EAF3FAF6B9710912604EC961FAF7D
:101FB000EC97E0910C04F0910D04E0900804F0908F
:101FC000090420911604309117044091180450918F
:101FD0001904EB962CAF3DAF4EAF5FAFEB971130CE
:101FE00009F09FC0970140E050E060E070E080E0C1
:101FF00090E000E10E94621F19012A013B014C019F
:10200000BF0180E090E06B962CAD3DAD4EAD5FAD75
:102010006B970E94511EF22E032F142FB52FF62F0F
:10202000E72FD82EE92EA0E00E94B71F5CF4AFE79F
:102030000E94A21FF22E032F142FB52FF62FE72F89
:10204000D82EE92E2F2D302F412F5B2F6F2F7E2F73
:102050008D2D9E2D07E00E947B1F59016A017B0197
:102060008C019101A201B301C4010E94991FAC9699
:102070002FAFAC97AD963FAFAD97AE964FAFAE9743
:10208000AF965FAFAF97E0966FAFE097E1967FAF07
:10209000E197E2968FAFE297E3969FAFE397E091E7
:1020A0000E04F0910F0480900A0490900B049401A8
:1020B00040E050E060E070E080E090E001E10E94EC
:1020C000621F19012A013B014C01BF0180E090E031
:1020D0006B962CAD3DAD4EAD5FAD6B970E94511E22
:1020E000F22E032F142FB52FF62FE72FD82EE92E1F
:1020F000A0E00E94B71F5CF4AFE30E94A21FF22E83
:10210000032F142FB52FF62FE72FD82EE92E2F2DC2
:10211000302F412F5B2F6F2F7E2F8D2D9E2D06E0B0
:10212000A8C0BF0180E090E06B962CAD3DAD4EADF8
:102130005FAD6B970E94511ED22E032F142FB52F27
:10214000F62FE72FB82EC92EA0E00E94B71F84F407
:1021500021503F4F4F4F5F4F6F4F7F4F8F4F9F4FDC
:10216000D22E032F142FB52FF62FE72FB82EC92EFE
:102170002D2D302F412F5B2F6F2F7E2F8B2D9C2DE0
:1021800008E00E947B1F39014A01B62FA72FF82FC4
:10219000E92FC12CD12C9701A60160E070E080E00E
:1021A00090E00FE00E94621F59016A017B018C01DF
:1021B0009301A4016B2F7A2F8F2F9E2F0E94991FBE
:1021C000AC962FAFAC97AD963FAFAD97AE964FAFF5
:1021D000AE97AF965FAFAF97E0966FAFE097E1969F
:1021E0007FAFE197E2968FAFE297E3969FAFE397D9
:1021F000E0910E04F0910F0480900A0490900B047B
:10220000940140E050E060E070E080E090E000E1A8
:102210000E94621F19012A013B014C01BF0180E0AD
:1022200090E06B962CAD3DAD4EAD5FAD6B970E94CF
:10223000511EF22E032F142FB52FF62FE72FD82E75
:10224000E92EA0E00E94B71F5CF4AFE70E94A21F36
:10225000F22E032F142FB52FF62FE72FD82EE92EAD
:102260002F2D302F412F5B2F6F2F7E2F8D2D9E2DE9
:1022700007E00E947B1F59016A017B018C019101DB
:10228000A201B301C4010E94991FA8962FAFA8977D
:10229000A9963FAFA997AA964FAFAA97AB965FAF03
:1022A000AB97E4966FAFE497E5967FAFE597E69638
:1022B0008FAFE697E7969FAFE7976B964CAC5DAC18
:1022C0006EAC7FAC6B97770C4408542C3201609154
:1022D00012047091130480E090E06B962CAD3DAD3C
:1022E0004EAD5FAD6B970E94511EF22E032F142F3F
:1022F000B52FF62FE72FD82EE92EA0E00E94B71FAA
:1023000084F42150310940485F4F6F4F7F4F8F4F0A
:102310009F4FF22E032F142FB52FF62FE72FD82E15
:10232000E92E2F2D302F412F5B2F6F2F7E2F8D2DDC
:102330009E2D07E10E947B1F49015A0195018401EE
:102340000053184F2F4F3F4FA7960CAF1DAF2EAF26
:102350003FAFA797EC961FADEC97113009F094C0F2
:10236000A7962CAD3DAD4EAD5FADA797203D374054
:10237000410551050CF066C16B966CAD7DAD8EAD1F
:102380009FAD6B972BE030E040E050E00E94511E83
:102390006896AFAC68976996BFAC69976A96CFAC00
:1023A0006A976B96DFAC6B97E42CF42C042D142DFC
:1023B0000E94F81DF22E032F142FB52FF62FE72FB2
:1023C000D82EE92EA0E00E94B71F84F421503109D5
:1023D00041095109684F7F4F8F4F9F4FF22E032FB6
:1023E000142FB52FF62FE72FD82EE92E2F2D302FB3
:1023F000412F5B2F6F2F7E2F8D2D9E2D03E20E948C
:102400007B1F68962FAF689769963FAF69976A966A
:102410004FAF6A976B965FAF6B97AFE1B0E0A7964F
:102420008CAC9DACAEACBFACA79770ED871A77E0D3
:10243000970AA108B108A50194010E94AD199B015A
:10244000AC01C501B4010E94C21D7B018C01F3E007
:1024500015950795F794E794FA95D1F7AFE3B0E0B7
:10246000A50194010E94AD199B01AC01C501B40105
:102470000E94C21D2B013C01A5E0759467945794FE
:102480004794AA95D1F7EAC0A7968CAD9DADAEADA5
:10249000BFADA797803D9740A105B1050CF0BCC02A
:1024A0006B966CAD7DAD8EAD9FAD6B9723E030E04C
:1024B00040E050E00E94511E6896AFAC6897699664
:1024C000BFAC69976A96CFAC6A976B96DFAC6B9797
:1024D000E42CF42C042D142D0E94F81DF22E032F51
:1024E000142FB52FF62FE72FD82EE92EA0E00E944B
:1024F000B71F84F421503109410951096E4F7F4FB4
:102500008F4F9F4FF22E032F142FB52FF62FE72F4B
:10251000D82EE92E2F2D302F412F5B2F6F2F7E2F9E
:102520008D2D9E2D01E20E947B1F68962FAF68972C
:1025300069963FAF69976A964FAF6A976B965FAFA0
:102540006B97A3E0B0E0A7968CAC9DACAEACBFACF3
:10255000A797F0ED8F1AF7E09F0AA108B108A5012F
:1025600094010E94AD199B01AC01C501B4010E9408
:10257000C21D7B018C0115950795F794E794A5E0A2
:10258000B0E0A50194010E94AD199B01AC01C50109
:10259000B4010E94C21D2B013C01E3E075946794D5
:1025A00057944794EA95D1F7A7962CAD3DAD4EAD23
:1025B0005FADA797213C69EF36076FEF46075607D7
:1025C0000CF04CC0A7E0B0E049015A017CED870E49
:1025D00075E0971EA11CB11CA50194010E94AD19C4
:1025E0009B01AC01C501B4010E94C21DE60EF71E9D
:1025F000081F191FA501940162E0220F331F441F19
:10260000551F6A95D1F7C501B4010E94C21D460E3F
:10261000571E681E791E22C0A5019401C501B40190
:102620000E94C21D7B018C0144E015950795F7942B
:10263000E7944A95D1F76B961CAE1DAE1EAE1FAE49
:102640006B9709C06B961CAE1DAE1EAE1FAE6B978E
:10265000E12CF12C8701412C512C3201D801C7010A
:10266000BB0F880B982FDC01A3968CAF9DAFAEAF4C
:10267000BFAFA397A8962FADA897A9963FADA997EE
:10268000AA964FADAA97AB965FADAB97E4966FADA8
:10269000E497E5967FADE597E6968FADE697E796EA
:1026A0009FADE79757016801A096EFACA097FE2C6D
:1026B0000E2D1E2D0E94AE1F922E832E342E252EFF
:1026C000A8966FAFA897A9967FAFA997AA968FAF44
:1026D000AA97AB969FAFAB9783017201110FEE08DB
:1026E000FE2C8701A396ECAEFDAE0EAF1FAFA397F5
:1026F000AC962FADAC97AD963FADAD97AE964FADC6
:10270000AE97AF965FADAF97E0966FADE097E1966D
:102710007FADE197E2968FADE297E3969FADE397A9
:1027200052016301A096EFACA097FE2C0E2D1E2D3A
:102730000E94AE1F59016A017B018C01A7968CADE6
:102740009DADAEADBFADA7976B962CAD3DAD4EAD7B
:102750005FAD6B97821B930BA40BB50BEC963FAD53
:10276000EC9780931E0490931F04A0932004B093D1
:102770002104313009F069C0EB966CAD7DAD8EADB2
:102780009FADEB97AB01BC0180E090E0DC01689667
:102790004FAF689769965FAF69976A966FAF6A9710
:1027A0006B967FAF6B976C968FAF6C976D969FAF64
:1027B0006D976E96AFAF6E976F96BFAF6F979A019A
:1027C000AB0160E070E080E090E00E94F81DF22E26
:1027D000032F142FB52FF62FE72FD82EE92EA0E0C8
:1027E0000E94B71F84F421503109404E5F4F6F4F54
:1027F0007F4F8F4F9F4FF22E032F142FB52FF62FA1
:10280000E72FD82EE92E2F2D302F412F5B2F6F2F42
:102810007E2F8D2D9E2D05E10E947B1FA92CB82CAB
:10282000C32CD22CA896EFACA897A996FFACA99779
:10283000AA960FADAA97AB961FADAB970E94AE1F9D
:10284000A12CB12CF2E3CF2E67C0EB964CAD5DAD61
:102850006EAD7FADEB979A01AB0160E070E0CB010C
:1028600068962FAF689769963FAF69976A964FAFA2
:102870006A976B965FAF6B976C966FAF6C976D9620
:102880007FAF6D976E968FAF6E976F969FAF6F9776
:1028900060E070E080E090E00E94F81DF22E032FCF
:1028A000142FB52FF62FE72FD82EE92EA0E00E9487
:1028B000B71F84F421503109404E5F4F6F4F7F4F57
:1028C0008F4F9F4FF22E032F142FB52FF62FE72F88
:1028D000D82EE92E2F2D302F412F5B2F6F2F7E2FDB
:1028E0008D2D9E2D05E10E947B1FA92CB82CC32C99
:1028F000D22CA896EFACA897A996FFACA997AA9658
:102900000FADAA97AB961FADAB970E94AE1FA12C3F
:10291000E0E4BE2ECC24C394D12CE12CF12C00E0B9
:1029200010E00E948D1E20932204309323044093D4
:10293000240450932504109205041092040488E6A0
:102940000E94CF088BE390E00E94D90880E00E94AB
:10295000730841E06EE088E60E9431081092D101D0
:102960008093D0010E947C094091640250916502DD
:102970002091660230916702DA01A21BB30B9D0120
:10298000260F371F3093650220936402609366021E
:1029900070936702809368029093690288E093E0E5
:1029A0000E942C02182F88E093E00E942C02EE96E1
:1029B0001FAFEE97ED961FAEED97EE96EEADFFAD25
:1029C000EE978E2B9F2BBC01990F880B990B0E94C1
:1029D000971B609344027093450280934602909344
:1029E000470288E093E00E942C02182F88E093E0D1
:1029F0000E942C02C158DF4F1883CF57D040EF966A
:102A00001FAEEF97C258DF4FE880F980CE57D04015
:102A10008E299F29BC01990F880B990B0E94971B47
:102A2000609348027093490280934A0290934B024C
:102A300088E093E00E942C02182F88E093E00E9427
:102A40002C02CF57DF4F1883C158D040C058DF4FFA
:102A50001882C058D040C058DF4F08811981C05833
:102A6000D040802B912BBC01990F880B990B0E94B1
:102A7000971B60934C0270934D0280934E0290938B
:102A80004F0288E093E00E942C02182F88E093E028
:102A90000E942C02CD57DF4F1883C358D040CE5729
:102AA000DF4F1882C258D040CE57DF4F288139817E
:102AB000C258D040822B932BBC01990F880B990BE5
:102AC0000E94971B60935C0270935D0280935E028C
:102AD00090935F0288E093E00E942C02182F88E018
:102AE00093E00E942C02CB57DF4F1883C558D0408B
:102AF000CC57DF4F1882C458D040CC57DF4F4881A5
:102B00005981C458D040842B952BBC01990F880B58
:102B1000990B0E94971B609350027093510280930F
:102B200052029093530288E093E00E942C02182FE7
:102B300088E093E00E942C02C957DF4F1883C758E2
:102B4000D040CA57DF4F1882C658D040CA57DF4F0F
:102B500068817981C658D040862B972BBC01990F8C
:102B6000880B990B0E94971B609354027093550237
:102B7000809356029093570288E093E00E942C02C3
:102B8000F82E88E093E00E942C028C0120E030E0D7
:102B90004AEA53E460915C0270915D0280915E02AA
:102BA00090915F020E94ED1A28EB3EE142E152E46F
:102BB0000E94EA1960935C0270935D0280935E024A
:102BC00090935F022DEC3CE248E854E460914402AB
:102BD0007091450280914602909147020E94E91946
:102BE00020E038E640E856E40E94ED1A6093440283
:102BF00070934502809346029093470223E333E3A8
:102C000048EF53E4609148027091490280914A0272
:102C100090914B020E94EA1920E034E94FE756E414
:102C20000E94ED1A609348027093490280934A0211
:102C300090934B022AE939E94EEA54E460914C0240
:102C400070914D0280914E0290914F020E94EA19BC
:102C500023E335E443E856E40E94ED1A60934C0206
:102C600070934D0280934E0290934F022CEE31E10F
:102C70004FE153E4609150027091510280915202F1
:102C8000909153020E94EA1920E030E041EE54E4B2
:102C90000E94ED1A60935002709351028093520289
:102CA000909353022DEC3CEC47EE52E460915402B9
:102CB0007091550280915602909157020E94E91935
:102CC00020E030E048EC54E40E94ED1A6093540296
:102CD000709355028093560290935702C757DF4F67
:102CE000F882C958D040C857DF4F1882C858D04022
:102CF000C857DF4F68817981C858D040602B712B4D
:102D0000072E000C880B990B0E94971B24EA30E7D2
:102D10004DE053E40E94EA1920E030E048EC54E42E
:102D20000E94ED1A609358027093590280935A02E0
:102D300090935B020E94A1090E94A10980E4809304
:102D40007C0080917A00806480937A0080917A0080
:102D500086FDFCCF609178008091790070E0782B3F
:102D6000072E000C880B990B0E94971B2AEA31EF63
:102D700042E050E40E94ED1A0E94661B6093330407
:102D80006091220470912304809124049091250481
:102D90000E94971B0E94661B6093360460913C0260
:102DA00070913D0280913E0290913F020E94661B0D
:102DB0006093300460914002709141028091420220
:102DC000909143020E94661B60932D0480914C01F8
:102DD000882309F49AC080911403811115C060E022
:102DE00070E08BE293E00E94EE0660E070E08CE31E
:102DF00093E00E94EE0660E070E08DE493E00E94B4
:102E0000EE0660E070E07BC08091A2039091A30386
:102E10004091A4035091A5032091A6033091A703EC
:102E2000841B950B820F931F20911D0330911E036D
:102E3000829FB001839F700D929F700D11248BE2D1
:102E400093E00E94EE068091A4039091A503409127
:102E5000A2035091A3032091A6033091A70391955B
:102E600081959109841B950B821B930B20911F0365
:102E700030912003829FB001839F700D929F700D4F
:102E800011248CE393E00E94EE062091A40330917C
:102E9000A5034091A2035091A3038091A6039091B2
:102EA000A703841B950B821B930B20912103309168
:102EB0002203829FB001839F700D929F700D112499
:102EC0008DE493E00E94EE068091A2039091A3030B
:102ED0004091A4035091A5032091A6033091A7032C
:102EE000841B950B821B930B2091230330912403A9
:102EF000829FB001839F700D929F700D11248EE50B
:102F000093E00E94EE0610924C018091D403882336
:102F100009F4E0C08091140381110FC060E070E0FB
:102F20008FE693E00E94EE0660E070E080E893E0B8
:102F30000E94EE0660E070E0C9C060911B037091D2
:102F40001C03072E000C880B990B0E94971B9B01FA
:102F5000AC0160E070E0CB010E94ED1A6B017C01D6
:102F600060911B0370911C03072E000C880B990BBA
:102F70000E94971B9B01AC0160E070E0CB010E94B6
:102F8000ED1A6B966CAF7DAF8EAF9FAF6B97809154
:102F9000190390911A03181619060CF49FC060913A
:102FA000150370911603809117039091180320E088
:102FB00030E0A9010E94E11C18160CF48FC080912A
:102FC000CF038823A1F06091C6037091C70380915D
:102FD000C8039091C9030E94971B6093D00370931C
:102FE000D1038093D2039093D3031092CF0360E078
:102FF00070E08091CF03811131C0A0901B03B0908D
:103000001C036091C6037091C7038091C80390911F
:10301000C9030E94971B9B01AC016091D003709182
:10302000D1038091D2039091D3030E94E919905863
:1030300020E030E040E752E40E94EE1C2B013C010E
:10304000B501BB0C880B990B0E94971B9B01AC012F
:10305000C301B2010E94ED1A0E945F1B072E000CF3
:10306000880B990B0E94971B4B015C01A7019601ED
:103070000E94E9192B013C016B962CAD3DAD4EAD84
:103080005FAD6B970E94E9190E945F1B80E893E097
:103090000E94EE06A30192016B966CAD7DAD8EADE4
:1030A0009FAD6B970E94EA190E945F1B8FE693E029
:1030B0000E94EE06A7019601C701B6010E94EA1917
:1030C000A50194010E94EA190E945F1B81E993E027
:1030D0000E94EE060E94DE010C94AE0E71E0709329
:1030E000CF038090150390901603A0901703B09023
:1030F00018036091190370911A03072E000C880BB6
:10310000990B0E94971B9B01AC01C501B4010E9461
:10311000E91920E030E040EF52E40E94EE1C0E94EA
:103120005F1B67CFFC01809167018C30A8F491E0B0
:10313000980F90936701868790E0DC01AA0FBB1F70
:103140008A0F9B1FDC01A759BE4F88EB9BE01296AC
:103150009C938E93119702C08FEF8687F8941092FC
:10316000B0001092B1001092B2008FEF8093B300C4
:103170008091B10088608093B1008091B10085603A
:103180008093B100809170001092700084EA96E004
:103190009783868384E195E09187808726813781B4
:1031A00080859185281B390B4AE0429FC001439FCF
:1031B000900D112464E670E00E94DE1D7583648327
:1031C0008CED95E0918380838081918193838283CC
:1031D0008FEF9FEF958784878091550190915601DD
:1031E00093878287DC01AA0FBB1FA95ABE4FED93BC
:1031F000FC9301969093560180935501789408951D
:10320000CF92DF92EF92FF92EBE6F2E0138212820E
:1032100088EE93E0A0E0B0E084839583A683B78333
:103220002AE031E03183208325EC30E035872487A4
:1032300024EC30E03787268720EC30E0318B208B80
:1032400021EC30E0338B228B22EC30E0358B248B69
:1032500026EC30E0378B268B118E128E138E148E57
:10326000E8E0F3E01382128284839583A683B78318
:103270008CE191E09183808310923804109237049E
:10328000C12C80EAD82E80E8E82E84E4F82EC09283
:103290002704D0922804E0922904F0922A04E4E161
:1032A000F3E08FEF9FEF928781879487838781E098
:1032B00090E096878587908B8787928B818B948B04
:1032C000838B968B858B8BE293E00E9492188CE324
:1032D00093E00E9492188DE493E00E9492188EE58C
:1032E00093E00E9492188FE693E00E94921880E883
:1032F00093E00E94921881E993E00E949218C09294
:10330000CB03D092CC03E092CD03F092CE03109287
:10331000D403FF90EF90DF90CF900895052E97FB98
:103320001EF400940E94A51957FD07D00E94B819F9
:1033300007FC03D04EF40C94A51950954095309598
:1033400021953F4F4F4F5F4F089590958095709511
:1033500061957F4F8F4F9F4F08950E94DA19A59F67
:10336000900DB49F900DA49F800D911D1124089580
:10337000A1E21A2EAA1BBB1BFD010DC0AA1FBB1F79
:10338000EE1FFF1FA217B307E407F50720F0A21BEB
:10339000B30BE40BF50B661F771F881F991F1A9458
:1033A00069F760957095809590959B01AC01BD0182
:1033B000CF010895A29FB001B39FC001A39F700DDC
:1033C000811D1124911DB29F700D811D1124911D2D
:1033D00008955058BB27AA270E94011A0C94931CE9
:1033E0000E945A1C38F00E94611C20F039F49F3F63
:1033F00019F426F40C941C1C0EF4E095E7FB0C94D5
:10340000161CE92F0E94B81C58F3BA1762077307FD
:103410008407950720F079F4A6F50C94DA1C0EF4D5
:10342000E0950B2EBA2FA02D0B01B90190010C01D4
:10343000CA01A0011124FF27591B99F0593F50F4EC
:10344000503E68F11A16F040A22F232F342F442744
:10345000585FF3CF469537952795A795F04053953C
:10346000C9F77EF41F16BA0B620B730B840BBAF00C
:103470009150A1F0FF0FBB1F661F771F881FC2F777
:103480000EC0BA0F621F731F841F48F4879577958B
:103490006795B795F7959E3F08F0B0CF9395880F45
:1034A00008F09927EE0F9795879508959F939F773A
:1034B000EEE389379E0728F4EAE8F0E00E94461C14
:1034C0000CC00E94D21B9058A2EA2AED3FE049ECC2
:1034D0005FE30E94011A0E94931C0F9007FC905812
:1034E00008950E945A1C60F080E891E009F49EEF74
:1034F0000E94611C28F040E851E071F45EEF0CC0BE
:103500000C941C1C0C94DA1CE92FE0780E94B81C67
:1035100040F3092E052AB1F3261737074807590744
:1035200038F00E2E07F8E02569F0E025E0640AC0C7
:10353000EF6307F8009407FADB01B9019D01DC0194
:10354000CA01AD01EF930E94041B0E94931C0E94CC
:10355000B41A5F91552339F02BED3FE049E450FD5B
:1035600049EC0C94EA190895DF93DD27B92FBF7752
:1035700040E85FE31616170648075B0718F4D92FD3
:103580000E94E61C9F938F937F936F930E94A91DC7
:10359000EEE9F0E00E941F1C0E94931C2F913F91C6
:1035A0004F915F910E94011DDD2351F09058A2EAD6
:1035B0002AED3FE049EC5FE3D0785D270E94011AD5
:1035C000DF910C94931C0E94F21B08F481E0089593
:1035D0000E946A1CE3950C94A41C0E94011B0C948D
:1035E000931C0E94611C58F00E945A1C40F029F460
:1035F0005F3F29F00C94161C51110C94DB1C0C94A9
:103600001C1C0E94B81C68F39923B1F3552391F355
:10361000951B550BBB27AA2762177307840738F041
:103620009F5F5F4F220F331F441FAA1FA9F335D09E
:103630000E2E3AF0E0E832D091505040E695001C52
:10364000CAF72BD0FE2F29D0660F771F881FBB1F0C
:10365000261737074807AB07B0E809F0BB0B802DEA
:10366000BF01FF2793585F4F3AF09E3F510578F016
:103670000C94161C0C94DB1C5F3FE4F3983ED4F3CF
:10368000869577956795B795F7959F5FC9F7880FEA
:10369000911D9695879597F90895E1E0660F771F3C
:1036A000881FBB1F621773078407BA0720F0621BCD
:1036B000730B840BBA0BEE1F88F7E09508950E94F8
:1036C000661B6894B1110C94DB1C08950E94C01C09
:1036D00088F09F5798F0B92F9927B751B0F0E1F0D3
:1036E000660F771F881F991F1AF0BA95C9F714C083
:1036F000B13091F00E94DA1CB1E008950C94DA1C0C
:10370000672F782F8827B85F39F0B93FCCF38695BB
:1037100077956795B395D9F73EF490958095709518
:1037200061957F4F8F4F9F4F0895E89409C097FB95
:103730003EF490958095709561957F4F8F4F9F4F88
:103740009923A9F0F92F96E9BB279395F6958795CC
:1037500077956795B795F111F8CFFAF4BB0F11F48F
:1037600060FF1BC06F5F7F4F8F4F9F4F16C0882336
:1037700011F096E911C0772321F09EE8872F762F6C
:1037800005C0662371F096E8862F70E060E02AF0AD
:103790009A95660F771F881FDAF7880F9695879599
:1037A00097F90895DF93CF931F930F938B01EC014B
:1037B000EBECF0E00E941F1C0E94931C9801AE01EC
:1037C0008B01EC0160E070E080E89FE30E94E91962
:1037D0000E94691D9801AE010F911F91CF91DF9159
:1037E0000C94011D990F0008550FAA0BE0E8FEEF9D
:1037F00016161706E807F907C0F012161306E407B5
:10380000F50798F0621B730B840B950B39F40A26AD
:1038100061F0232B242B252B21F408950A2609F48B
:10382000A140A6958FEF811D811D089597F99F678F
:1038300080E870E060E008959FEF80EC0895DF93EA
:10384000CF931F930F93FF92EF92DF927B018C0136
:10385000689406C0DA2EEF010E94011DFE01E89473
:10386000A5912591359145915591A6F3EF010E94BF
:10387000011AFE019701A801DA9469F7DF90EF9031
:10388000FF900F911F91CF91DF9108959F938F9398
:103890007F936F93FF93EF939B01AC010E94EE1C0B
:1038A000EF91FF910E941F1C2F913F914F915F91CB
:1038B0000C94EE1C00240A94161617061806090626
:1038C000089500240A941216130614060506089596
:1038D0000C941C1C0E94C01CD8F3E894E0E0BB27A9
:1038E0009F57F0F02AED3FE049EC06C0EE0FBB0F0A
:1038F000661F771F881F28F0B23A62077307840794
:1039000028F0B25A620B730B840BE3959A9572F709
:10391000803830F49A95BB0F661F771F881FD2F747
:1039200090480C94AF1D092E0394000C11F48823C9
:1039300052F0BB0F40F4BF2B11F460FF04C06F5F67
:103940007F4F8F4F9F4F0895EF93E0FF07C0A2EA8C
:103950002AED3FE049EC5FEB0E94011A0E94931CA4
:103960000F90039401FC9058E3EFF0E00C94461C98
:1039700057FD9058440F551F59F05F3F71F0479520
:10398000880F97FB991F61F09F3F79F08795089505
:10399000121613061406551FF2CF4695F1DF08C024
:1039A000161617061806991FF1CF86957105610541
:1039B00008940895E894BB2766277727CB0197F9E9
:1039C00008950E94F21B08F48FEF08959B01AC014B
:1039D00060E070E080E89FE30C94ED1A0E94011D06
:1039E0000C94931C0E945A1C38F00E94611C20F019
:1039F000952311F00C94161C0C941C1C11240C948F
:103A0000DB1C0E94B81C70F3959FC1F3950F50E02A
:103A1000551F629FF001729FBB27F00DB11D639F80
:103A2000AA27F00DB11DAA1F649F6627B00DA11D26
:103A3000661F829F2227B00DA11D621F739FB00DCC
:103A4000A11D621F839FA00D611D221F749F33273C
:103A5000A00D611D231F849F600D211D822F762FD5
:103A60006A2F11249F5750409AF0F1F088234AF0B2
:103A7000EE0FFF1FBB1F661F771F881F915050401E
:103A8000A9F79E3F510580F00C94161C0C94DB1C8A
:103A90005F3FE4F3983ED4F3869577956795B795A5
:103AA000F795E7959F5FC1F7FE2B880F911D9695BF
:103AB000879597F908959F930E946A1C0F9007FCC1
:103AC000EE5F0C94A41C19F416F40C941C1C0C94BA
:103AD000AD1D0E94C01CB8F39923C9F3B6F39F57DC
:103AE000550B87FF0E94BB1D0024A0E640EA900111
:103AF00080585695979528F4805C660F771F881F2D
:103B000020F026173707480730F4621B730B840B2D
:103B1000202931294A2BA695179407942025312571
:103B20004A2758F7660F771F881F20F02617370798
:103B3000480730F4620B730B840B200D311D411DBF
:103B4000A09581F7B901842F9158880F9695879594
:103B500008959B01AC010C94EE1C9F3F31F09150F5
:103B600020F4879577956795B795880F911D969561
:103B7000879597F9089591505040660F771F881FD9
:103B8000D2F70895DB018F939F930E94AD19BF91E7
:103B9000AF91A29F800D911DA39F900DB29F900D9C
:103BA00011240895991B79E004C0991F961708F015
:103BB000961B881F7A95C9F78095089597FB072E65
:103BC00016F4009407D077FD09D00E94C31F07FCAC
:103BD00005D03EF4909581959F4F0895709561951D
:103BE0007F4F0895EE0FFF1F0590F491E02D09948B
:103BF000DF93CF931F930F939A9DF02D219FF00D8C
:103C00008B9DF00D8A9DE02DF10D039FF00D029F1D
:103C1000E00DF11D4E9DE00DF11D5E9DF00D4F9DDF
:103C2000F00D7F936F93BF92AF925F934F93D50147
:103C30000E94DA198B01AC01D7010E94DA19EB015D
:103C4000E80FF91FD6010E94481E2F913F91D6011F
:103C50000E94DA19C60FD71FE81FF91FAF91BF9155
:103C60000E94481E2F913F910E94DA19C60FD71F5C
:103C7000E81FF91FD6010E94DA19E60FF71F980115
:103C8000BE01CF0111240F911F91CF91DF910895B3
:103C90000E94DA19460F571FC81FD91F08F4319622
:103CA000089597FB57FF0C94611E9F938F930E947A
:103CB000611E6E1B7F0BAF91BF918A0B9B0B08950A
:103CC000E894DF93CF93FC01DB010E94DA197F9324
:103CD0006F93E9019A01AC01BF93AF933F932F9388
:103CE000DF010E94DA1926F46C1B7D0B820B930B0B
:103CF0009E01EB01FC010E94481EAF91BF912F91E4
:103D00003F910E94481EBE01CF01F9012F913F91C2
:103D1000CF91DF910895689401C0E894F92FF12BB9
:103D200012F00C94BF1EA0E0B0E0E9E9FEE10C94B3
:103D3000311F092E059422F40E941B1F112392F4B7
:103D4000F0E80F26FFEFE094F09400951095B09402
:103D5000C094D094A194BF0ACF0ADF0AEF0AFF0AE9
:103D60000F0B1F0B0E94CA1E07FC0E941B1FCDB722
:103D7000DEB7ECE00C944D1F689401C0E8948F927C
:103D80009F92CF93DF930E94CA1EDF91CF919F90A5
:103D90008F90089588249924F401E401B0E49F935E
:103DA000AA279A158B049C04ED05FE05CF05D007C4
:103DB000A10798F4AD2FDC2FCF2FFE2FE92D982CE3
:103DC000892E982F872F762F652F542F432F322F30
:103DD0002227B85031F7BF9127C01B2EBF91BB27B8
:103DE000220F331F441F551F661F771F881F991FFF
:103DF000881C991CEE1FFF1FCC1FDD1FAA1FBB1FB5
:103E00008A149B04EC05FD05CE05DF05A007B1076C
:103E100048F08A189B08EC09FD09CE09DF09A00BC0
:103E2000B10B21601A94E1F62EF49401AF01BE01AA
:103E3000CD01000C08956095709580959095309512
:103E40004095509521953F4F4F4F5F4F6F4F7F4F9C
:103E50008F4F9F4F08952F923F924F925F926F9294
:103E60007F928F929F92AF92BF92CF92DF92EF920A
:103E7000FF920F931F93CF93DF93CDB7DEB7CA1B8B
:103E8000DB0B0FB6F894DEBF0FBECDBF09942A88B6
:103E9000398848885F846E847D848C849B84AA845E
:103EA000B984C884DF80EE80FD800C811B81AA81EB
:103EB000B981CE0FD11D0FB6F894DEBF0FBECDBFB6
:103EC000ED0108950F93083090F0982F872F762FEB
:103ED000652F542F432F322F22270850F4CF220F63
:103EE000331F441F551F661F771F881F991F0A9590
:103EF000B2F70F91089597FB10F8169400080F93EE
:103F0000083098F00850232F342F452F562F672F55
:103F1000782F892F902DF4CF0594979587957795D5
:103F2000679557954795379527950A95AAF70F9165
:103F300008952A0D3B1D4C1D5D1D6E1D7F1D801FAC
:103F4000911F08950024A7FD00942A0F301D401DE5
:103F5000501D601D701D801D901D08952A193B097C
:103F60004C095D096E097F09800B910B08950024AF
:103F7000A7FD00942A17300540055005600570051F
:103F8000800590050895AA1BBB1B51E107C0AA1F1D
:103F9000BB1FA617B70710F0A61BB70B881F991FEA
:103FA0005A95A9F780959095BC01CD0108950F937E
:103FB0001F93CF93DF938230910510F482E090E05D
:103FC000E0914504F091460420E030E0A0E0B0E04C
:103FD000309719F1408151810281138148175907A7
:103FE000C8F08417950769F4109731F012960C9376
:103FF000129713961C9327C0009345041093460410
:1040000022C02115310519F04217530718F49A01FF
:10401000BD01EF01DF01F801DBCF21153105F9F01A
:10402000281B390B2430310580F48A819B8161156E
:10403000710521F0FB019383828304C090934604B1
:1040400080934504FE01329644C0FE01E20FF31F47
:104050008193919322503109398328833AC020916A
:10406000430430914404232B41F420910201309108
:1040700003013093440420934304209100013091C4
:1040800001012115310541F42DB73EB740910401DE
:1040900050910501241B350BE0914304F091440439
:1040A000E217F307A0F42E1B3F0B2817390778F00F
:1040B000AC014E5F5F4F2417350748F04E0F5F1F6E
:1040C00050934404409343048193919302C0E0E0F1
:1040D000F0E0CF01DF91CF911F910F910895CF9321
:1040E000DF93009709F481C0FC013297138212829A
:1040F000A0914504B0914604109781F4208131814C
:10410000820F931F209143043091440428173907EC
:1041100051F5F0934404E093430467C0ED0120E0BF
:1041200030E0CE17DF0740F44A815B819E014115E4
:104130005105F1F0EA01F5CFD383C283408151816B
:10414000840F951FC817D90759F488819981840F66
:10415000951F0296918380838A819B8193838283BA
:104160002115310529F4F0934604E09345043DC040
:10417000E901FB83EA8349915991C40FD51FEC17DC
:10418000FD0761F480819181840F951F0296E901FA
:1041900099838883828193819B838A83E0E0F0E026
:1041A00012968D919C911397009719F0FD01DC01F7
:1041B000F7CF8D919C9111979D012E5F3F4F820FFC
:1041C000931F20914304309144042817390769F460
:1041D000309729F4109246041092450402C01382CD
:1041E0001282B0934404A0934304DF91CF910895C9
:0E41F00081E090E0F8940C94FD20F894FFCF4D
:1041FE00000047048000000000006F01DC00060193
:10420E00BC013701150129010000000075024802AA
:10421E00A5021C0240022C021D0253746F707069BD
:10422E006E672E2E2E005374617274696E672E2E79
:06423E002E000D0A000035
:107E0000112484B714BE81FFF0D085E080938100F7
:107E100082E08093C00088E18093C10086E0809377
:107E2000C20080E18093C4008EE0C9D0259A86E02C
:107E300020E33CEF91E0309385002093840096BBD3
:107E4000B09BFECF1D9AA8958150A9F7CC24DD24C4
:107E500088248394B5E0AB2EA1E19A2EF3E0BF2EE7
:107E6000A2D0813461F49FD0082FAFD0023811F036
:107E7000013811F484E001C083E08DD089C08234E0
:107E800011F484E103C0853419F485E0A6D080C0E4
:107E9000853579F488D0E82EFF2485D0082F10E0AE
:107EA000102F00270E291F29000F111F8ED06801E7
:107EB0006FC0863521F484E090D080E0DECF843638
:107EC00009F040C070D06FD0082F6DD080E0C81688
:107ED00080E7D80618F4F601B7BEE895C0E0D1E017
:107EE00062D089930C17E1F7F0E0CF16F0E7DF06D8
:107EF00018F0F601B7BEE89568D007B600FCFDCFD4
:107F0000A601A0E0B1E02C9130E011968C91119780
:107F100090E0982F8827822B932B1296FA010C0160
:107F200087BEE89511244E5F5F4FF1E0A038BF0790
:107F300051F7F601A7BEE89507B600FCFDCF97BE46
:107F4000E89526C08437B1F42ED02DD0F82E2BD052
:107F50003CD0F601EF2C8F010F5F1F4F84911BD097
:107F6000EA94F801C1F70894C11CD11CFA94CF0C13
:107F7000D11C0EC0853739F428D08EE10CD085E9AC
:107F80000AD08FE07ACF813511F488E018D01DD067
:107F900080E101D065CF982F8091C00085FFFCCF94
:107FA0009093C60008958091C00087FFFCCF809118
:107FB000C00084FD01C0A8958091C6000895E0E648
:107FC000F0E098E1908380830895EDDF803219F02E
:107FD00088E0F5DFFFCF84E1DECF1F93182FE3DFCA
:107FE0001150E9F7F2DF1F91089580E0E8DFEE27F6
:047FF000FF270994CA
:027FFE00040479
:0400000300007E007B
:00000001FF
