:100000000C94B2000C94DA000C94DA000C94DA0030
:100010000C94DA000C94DA000C94DA000C94BC0610
:100020000C94DA000C94DA000C94DA000C948F052E
:100030000C94DA000C94DA000C94DA000C94DA00D8
:100040000C94B80D0C9458070C942F040C940904CC
:100050000C94DA000C94DA000C94DA000C94DA00B8
:100060000C9461040C94DA00C807CF07EA07D407A0
:10007000FB07FB07FB07FB07F207EF07F507FB078B
:10008000FB07FB07A907DD07EA07036EDB363D9A8E
:100090009999993DABAAAA2A3E000000803F084AE0
:1000A000D73B3BCE016E84BCBFFDC12F3D6C74318C
:1000B0009ABD56833DDA3D00C77F11BED9E4BB4CE3
:1000C0003E916BAAAABE000000803F072C7AA5BA19
:1000D0006CC590DA3B9365FC8BBC53F810FD3C5625
:1000E00092834DBD879D3AB63DCBC9BF5BBE73DAE7
:1000F0000FC93F05A84CCDB2D44EB93836A9020C71
:1001000050B9918688083CA6AAAA2ABE00000080A1
:100110003F00000000080002010000030407000087
:1001200000000000000000000000250028002B0057
:1001300000000000240027002A0004040404040432
:100140000404020202020202030303030303010286
:100150000408102040800102040810200102040855
:100160001020CF1911241FBECFEFD8E0DEBFCDBFC6
:1001700011E0A0E0B1E0E2E9F3E402C005900D92E5
:10018000A036B107D9F724E0A0E6B1E001C01D9286
:10019000A834B207E1F710E0C2EBD0E004C0219729
:1001A000FE010E94BC1EC13BD107C9F70E94020E8E
:1001B0000C94C7210C940000CF92DF92EF92FF9233
:1001C0000F931F93CF93DF936C017A018B01C0E0F3
:1001D000D0E0CE15DF0581F0D8016D918D01D601FB
:1001E000ED91FC910190F081E02DC6010995892BDC
:1001F00011F02196EECF7E01C701DF91CF911F91C3
:100200000F91FF90EF90DF90CF900895FC01538DF8
:10021000448D252F30E0842F90E0821B930B5417E0
:1002200010F0CF96089501970895FC01918D828D6D
:10023000981761F0828DDF01A80FB11D5D968C913A
:10024000928D9F5F9F73928F90E008958FEF9FEF45
:100250000895FC01918D828D981731F0828DE80F01
:10026000F11D858D90E008958FEF9FEF0895FC01BB
:10027000918D228D892F90E0805C9F4F821B910988
:100280008F739927089589E892E00E94370121E051
:10029000892B09F420E0822F0895FC01848DDF0171
:1002A000A80FB11DA35ABF4F2C91848D90E00196E9
:1002B0008F739927848FA689B7892C93A089B189D8
:1002C0008C91837080648C93938D848D981306C079
:1002D0000288F389E02D80818F7D80830895EF92DD
:1002E000FF920F931F93CF93DF93EC0181E0888FF0
:1002F0009B8D8C8D981305C0E889F989808185FDD7
:1003000026C0F62E0B8D10E00F5F1F4F0F731127C5
:10031000E02E8C8DE8120CC00FB607FCFACFE889EE
:10032000F989808185FFF5CFCE010E944D01F1CF83
:100330008B8DFE01E80FF11DE35AFF4FF0829FB74E
:10034000F8940B8FEA89FB89808180620AC09FB78D
:10035000F894EE89FF896083E889F9898081837048
:10036000806480839FBF81E090E0DF91CF911F91F7
:100370000F91FF90EF900895CF93DF93EC01888D5C
:100380008823C9F0EA89FB89808185FD05C0A88999
:10039000B9898C9186FD0FC00FB607FCF5CF80811F
:1003A00085FFF2CFA889B9898C9185FFEDCFCE0169
:1003B0000E944D01E7CFDF91CF91089580E090E05A
:1003C000892B29F00E94430181110C9400000895AB
:1003D00085ED8093BC008091BC0084FDFCCF109221
:1003E000590208954091C701262F30E0240F311D96
:1003F00021323105DCF4209159022430C9F4FC018A
:1004000080E090E0861758F43091C7012191DC011B
:10041000A955BE4FA30FB11D2C930196F3CF809128
:10042000C701680F6093C70180E0089581E00895D7
:1004300082E00895089508950895E091EF01809174
:10044000EE01E81730F4F0E0ED5EFD4F808190E0C2
:1004500008958FEF9FEF08959091EF018091EE0145
:10046000981750F4E92FF0E0ED5EFD4F208130E069
:100470009F5F9093EF0102C02FEF3FEFC9010895F6
:100480008091EE0190E02091EF01821B9109089587
:10049000CF92DF92EF92FF920F931F93CF93DF9350
:1004A0007C01CB018A012091F001222389F0EB012C
:1004B0006B01C40ED51ECC15DD0569F06991D7011D
:1004C000ED91FC910190F081E02DC7010995F3CFEA
:1004D000642F0E94F201C801DF91CF911F910F910B
:1004E000FF90EF90DF90CF900895CF93DF931F920E
:1004F000CDB7DEB769832091F0012223D1F020919E
:100500001202203240F021E030E0FC0133832283EC
:1005100080E090E015C08091F101E82FF0E0EE500E
:10052000FE4F998190838F5F8093F1018093120237
:1005300005C061E0CE0101960E94F20181E090E0E9
:100540000F90DF91CF910895089580E090E0089595
:10055000FC0190819C3088F5818128E830E0281BDF
:10056000310987FD3395220F331F220F331F621786
:10057000730784F0828148E552E0481B510987FDEA
:100580005395440F551F440F551F9B01461757079E
:100590000CF49A0122503109220F331F4FB7F894FF
:1005A000892F90E0FC01EE0FFF1F8E0F9F1FFC01B3
:1005B000ED57FE4F328321834FBF0895CF93DF93D2
:1005C000EC01288139818A819B812817390704F53C
:1005D000888199812A813B81821B930B1816190609
:1005E0002CF4888199812A813B8104C08A819B8176
:1005F00028813981821B930B2C813D8182179307BF
:100600003CF12C813D8188819981820F931F29C003
:10061000288139818A819B818217930724F58881FB
:1006200099812A813B81821B930B181619062CF4A1
:10063000888199812A813B8104C08A819B8128819C
:100640003981821B930B2C813D81821793071CF407
:100650008A819B8106C02C813D8188819981821B82
:10066000930B9983888368817981CE010E960E94CD
:10067000A802488159812A813B8181E042175307B2
:1006800009F080E0DF91CF910895613921E0720790
:1006900014F060E971E077FF02C060E070E02CEDDB
:1006A00035E0261B370BFC013187208764527A4FD7
:1006B0007783668308958F929F92AF92BF92CF9275
:1006C000DF92EF92FF920F931F93CF93DF93FC0182
:1006D000E955FF4F2081222309F462C08B01EC0110
:1006E000FB01EE0FFF1FEE0FFF1FEC0FFD1F8788B2
:1006F000908CA18CB28C20E030E040EF52E4C50138
:10070000B4010E94B31D0E94241C6B017C01CE0128
:10071000C4960E944503B601CE0183960E9445030C
:10072000B601CE018A5A9F4F0E944503B601CE0101
:100730008B5B9F4F0E9445030115110591F42F8992
:10074000388D498D5A8D6B8D7C8D8D8D9E8D0E943F
:10075000AF1A20E030E040E05FE30E94B31D4B01A0
:100760005C0120E030E040EF52E4C501B4010E949A
:10077000B31D0E94241C6B017C01CE0189599F4F3F
:100780000E944503B601CE0188589F4F0E94450341
:10079000B601CE0187579F4F0E94450318870F83EC
:1007A000DF91CF911F910F91FF90EF90DF90CF904D
:1007B000BF90AF909F908F9008950E94C2210F9399
:1007C0001F93CF93DF938C01C0917F01D091800163
:1007D000209749F484E090E00E94A120909380014A
:1007E00080937F010CC08A819B81009711F0EC01FE
:1007F000FACF84E090E00E94A1209B838A83FC01D1
:100800001183008313821282DF91CF911F910F9188
:1008100008951F920F920FB60F9211242F933F93BA
:100820004F935F936F937F938F939F93AF93BF93F8
:10083000EF93FF9389E892E00E944D01FF91EF91C1
:10084000BF91AF919F918F917F916F915F914F91E8
:100850003F912F910F900FBE0F901F9018951F92F0
:100860000F920FB60F9211242F938F939F93EF93B4
:10087000FF93E0919902F0919A028081E0919F02AA
:10088000F091A00282FD12C090818091A2028F5F40
:100890008F732091A302821751F0E091A202F0E041
:1008A000E757FD4F958F8093A20201C08081FF9191
:1008B000EF919F918F912F910F900FBE0F901F90EE
:1008C00018951F920F920FB60F9211242F933F93FA
:1008D0004F935F936F937F938F939F93AF93BF9348
:1008E000EF93FF938091B900887F803609F49CC014
:1008F00068F5883209F45BC090F4803109F454C083
:1009000038F4882309F4F6C0883009F44DC0F6C0E5
:10091000883109F44CC0803209F45DC0EFC08034E6
:1009200009F468C048F4803309F455C0883309F0ED
:10093000E5C080935702D8C0803509F44FC0883590
:1009400009F45DC0883409F0D9C0D6C0883909F4EB
:10095000C7C0A8F4883709F467C038F4883609F4AA
:1009600063C0803709F460C0C9C0883809F4B8C0D2
:10097000803909F45FC0803809F0C0C05BC0803B9B
:1009800009F486C038F4803A09F466C0883A09F45C
:100990007FC0B4C0803C09F4A7C0883C09F4A4C05F
:1009A000883B09F48AC0AAC08091540210C090917B
:1009B000560280915502981770F5E091560281E039
:1009C0008E0F80935602F0E0ED5CFD4F80818093A6
:1009D000BB0085EC86C0809357028EC0E091560222
:1009E00081E08E0F809356028091BB00F0E0ED5CB9
:1009F000FD4F808390915602809155026EC0E09128
:100A0000560281E08E0F809356028091BB00F0E089
:100A1000ED5CFD4F80838091580281116DC081E0B3
:100A20008093530284EA61C083E08093590210925C
:100A3000E901CFCF8091E901803208F051C0E09107
:100A4000E90181E08E0F8093E9018091BB00F0E025
:100A5000E753FE4F8083BDCF85EC8093BC0010929E
:100A600059028091E901803230F4E091E901F0E02F
:100A7000E753FE4F10826091E90170E0E091600160
:100A8000F091610189EC91E009951092E90136C07D
:100A900084E0809359021092C8011092C701E0913E
:100AA0006201F091630109958091C701811105C030
:100AB00081E08093C7011092A701E091C80181E015
:100AC0008E0F8093C801F0E0E955FE4F808180933E
:100AD000BB009091C8018091C701981708F479CFA5
:100AE00085E88093BC000AC085EC8093BC0010921E
:100AF000590204C0109257020E94E801FF91EF9141
:100B0000BF91AF919F918F917F916F915F914F9125
:100B10003F912F910F900FBE0F901F9018951F922D
:100B20000F920FB60F9211242F933F934F935F9321
:100B30006F937F938F939F93AF93BF93EF93FF93A5
:100B40008091820187FF05C0109285001092840079
:100B50001BC020918201022E000C330B8091810179
:100B600090E02817390784F480918201082E000C48
:100B7000990BFC01EE0FFF1F8E0F9F1FFC01ED571D
:100B8000FE4F808186FD15C0809182018F5F80932A
:100B9000820120918201022E000C330B8091810191
:100BA00090E028173907C4F4809182018C3064F1F9
:100BB00013C080918201082E000C990BFC01EE0FEE
:100BC000FF1F8E0F9F1FFC01ED57FE4F808160E0DD
:100BD0008F730E945D0AD8CF809184009091850028
:100BE000049680349C4918F480E49CE905C0809107
:100BF00084009091850004969093890080938800EA
:100C00008FEF809382013BC020918400309185005A
:100C100080918201082E000C990BFC01EE0FFF1F42
:100C20008E0F9F1FFC01ED57FE4F81819281820F35
:100C3000931F909389008093880080918201082EF1
:100C4000000C990BFC01EE0FFF1F8E0F9F1FFC0184
:100C5000ED57FE4F808186FF12C080918201082EE1
:100C6000000C990BFC01EE0FFF1F8E0F9F1FFC0164
:100C7000ED57FE4F808161E08F730E945D0AFF9106
:100C8000EF91BF91AF919F918F917F916F915F9104
:100C90004F913F912F910F900FBE0F901F9018957D
:100CA000EF92FF920F931F93CF93DF93EC017D8719
:100CB0006C87EC84FD848C01025F1F4F8E858C3025
:100CC00008F04FC08E2D0E943E0A8E85E82FF0E07E
:100CD0009F01220F331FE20FF31FED57FE4F9E2D92
:100CE0009F732081207CE22EE92AE0821F86188AE9
:100CF0006CE00E949C1E9CE0899FB001112440E0A2
:100D000050E09B01240F351FF901EE0FFF1F2E0F3E
:100D10003F1FF901ED57FE4F908196FD16C04F5FC2
:100D20005F4F4C30510569F781110FC01092800060
:100D300082E0809381001092850010928400B19A25
:100D400080916F00826080936F00EE85F0E0CF01AC
:100D5000880F991FE80FF91FED57FE4F80818064BF
:100D600080836CED75E0C801DF91CF911F910F91E9
:100D7000FF90EF900C94A8021F920F920FB60F9263
:100D800011242F933F934F935F936F937F938F9390
:100D90009F93AF93BF93CF93DF93EF93FF93C09154
:100DA0007F01D09180012097D1F0E881F981EE0F89
:100DB000FF1FEF58FE4F808191810E94DE0281115A
:100DC00004C0888199810E94DF038A819B8190936E
:100DD000800180937F01CE010E94392104C080915F
:100DE000700010927000FF91EF91DF91CF91BF9151
:100DF000AF919F918F917F916F915F914F913F91B3
:100E00002F910F900FBE0F901F901895CF92DF92E9
:100E1000EF92FF92CF93DF93EC01603871053CF4C1
:100E200062388FEF78072CF462E87FEF02C06FE73B
:100E300070E08E819F81C884D9840D2C000CEE084F
:100E4000FF08AB01770F660B770B9A01AB012258B5
:100E50003F4F4F4F5F4F092E000CAA0BBB0BBC013D
:100E6000CD016C197D098E099F090E948C1E2DEF02
:100E700030E040E050E00E94531AC20ED31EE41E40
:100E8000F51EDB82CA82CE010E94DE02811109C0FA
:100E90008A859B850E94DF03809170008260809329
:100EA0007000DF91CF91FF90EF90DF90CF90089589
:100EB0001F920F920FB60F9211242F933F934F93CF
:100EC0005F936F937F938F939F93AF93BF93EF93B2
:100ED000FF938EB580936E018091640190916501BE
:100EE000FC01EE0FFF1F8E0F9F1FFC01E05DFB4F0B
:100EF00082818EBD809164019091650103972CF0F1
:100F0000109265011092640109C080916401909172
:100F100065010196909365018093640180916E0153
:100F2000811104C081E080936D01A7C080916D01A3
:100F3000882309F467C0E0916E018E2F90E0FC01D8
:100F40003497E131F10508F056C0EC5CFF4F0C948A
:100F5000BC1E80913203882399F086E391E00E94C1
:100F6000300A1092CD031092CC031092CF0310924E
:100F7000CE031092D1031092D003109232033BC0E3
:100F800087E491E00E94300A81E08093320333C00D
:100F900081E090E090933803809337032CC0109247
:100FA00038031092370327C0109233031092340392
:100FB00010923503109236031EC080E090E0A0EC42
:100FC000BFE38093330390933403A0933503B0932E
:100FD000360311C080E090E0A0E8BFE3F2CF62E00A
:100FE00070E005C061E070E002C060E070E082E3A4
:100FF00093E00E945B0310926D0110926C011092BD
:101000006B013BC080916B0190916C018130910527
:1010100079F082309105B1F0892BE9F480916E016D
:1010200090E08F5791099093CD038093CC0313C028
:1010300080916E0190E08F5791099093CF03809338
:10104000CE0309C080916E0190E08F579109909373
:10105000D1038093D00380916B0190916C01019634
:1010600090936C0180936B01039724F010926C01B4
:1010700010926B0181E080936601FF91EF91BF9127
:10108000AF919F918F917F916F915F914F913F9120
:101090002F910F900FBE0F901F90189590915902AD
:1010A0009111FCCF91E090935902409358022FEF99
:1010B0002093570210925602260F209355029093C8
:1010C000540290915402880F892B8093540280918E
:1010D0005302813061F41092530280915402809344
:1010E000BB008091BC0083FDF8CF85EC01C085EE8C
:1010F0008093BC00809159028130E1F380915602C7
:10110000861710F460915602A3E3B2E0E3E1F2E047
:1011100080E0861721F09D9191938F5FFACF08951B
:10112000282F30911202313208F04AC080915902C2
:101130008111FCCF90913E0442E0409359022093EC
:1011400058022FEF20935702109256023093550207
:10115000E2EFF1E0A3E3B2E020E0321721F04191A9
:101160004D932F5FFACF1092540220915402990FA1
:10117000922B9093540290915302913061F410920B
:101180005302909154029093BB009091BC0093FD48
:10119000F8CF95EC01C095EE9093BC009091590268
:1011A0009230E1F3909157029F3F79F0809157027E
:1011B000803241F080915702803331F084E005C0E5
:1011C00081E003C082E001C083E01092F10110923F
:1011D00012021092F001089591E09093F001809333
:1011E0003E041092F101109212020895682F86E2D7
:1011F00093E00C947502813208F080E241E0682FA0
:1012000086E70E944E081092EF018093EE01089548
:1012100081E00C949008009769F0FC010190002097
:10122000E9F73197AF01481B590BBC0189E892E0FF
:101230000C94DC0080E090E008958F929F92AF9232
:10124000BF920F931F93CF93DF93CDB7DEB7A197D4
:101250000FB6F894DEBF0FBECDBF19A2423008F41E
:101260004AE08E010F5D1F4F842E912CA12CB12CD2
:10127000A50194010E947D1AE62FB901CA0101500F
:101280001109EA3014F4E05D01C0E95CD801EC9387
:10129000232B242B252B61F7C8010E940B09A19653
:1012A0000FB6F894DEBF0FBECDBFDF91CF911F9177
:1012B0000F91BF90AF909F908F9008958F929F92C3
:1012C000AF92BF92CF92DF92EF92FF920F931F9354
:1012D000CF93DF936B017C01142F9B01AC010E9423
:1012E000721E882319F083E591E027C0460157015B
:1012F000E894B7F82FEF3FEF4FE75FE7C501B40180
:101300000E94721E81110DC02FEF3FEF4FE75FE784
:10131000C501B4010E94A81B18161CF487E591E0D2
:101320000CC02FEF3FEF4FE75FE4C701B6010E940B
:10133000A61D181684F48BE591E0DF91CF911F91E3
:101340000F91FF90EF90DF90CF90BF90AF909F9064
:101350008F900C940B092FEF3FEF4FE75FECC70125
:10136000B6010E94A81B87FDE6CF20E030E0A9016E
:10137000C701B6010E94A81B87FF0BC06DE289E878
:1013800092E00E946F01EC01F7FAF094F7F8F09404
:1013900002C0C0E0D0E000E060E070E080E09FE3E9
:1013A000101741F020E030E040E251E40E94B21B0F
:1013B0000F5FF6CFA70196010E94AF1A6B017C0167
:1013C0000E942B1C4B015C014AE00E941D09C80FC2
:1013D000D91F1123B9F1C501B4010E945A1C9B0108
:1013E000AC01C701B6010E94AE1A6B017C016EE22E
:1013F00089E892E00E946F01C80FD91F20E030E019
:1014000040E251E4C701B6010E94B31D4B015C01EB
:101410000E942B1C6B01E12CF12C4AE0C701B601A4
:101420000E941D09C80FD91FC701B6010E945A1C8E
:101430009B01AC01C501B4010E94AE1A6B017C0195
:101440001150E1F6CE01DF91CF911F910F91FF90E6
:10145000EF90DF90CF90BF90AF909F908F900895C6
:10146000CF93DF930E940B09EC0184E491E00E948A
:101470000B098C0F9D1FDF91CF91089590E0FC0127
:10148000E25BFE4F2491FC01E65CFE4F84918823D1
:1014900099F090E0880F991FFC01E05DFE4FA59147
:1014A000B491FC01EA5DFE4F859194918FB7F89459
:1014B000EC91E22BEC938FBF089590E0FC01EE5E7F
:1014C000FE4F2491FC01E25BFE4F3491FC01E65C8F
:1014D000FE4FE491EE2309F43CC0222339F123307E
:1014E00091F038F42130A9F0223001F584B58F7DD8
:1014F00012C0273091F02830A1F02430B9F4809147
:1015000080008F7D03C0809180008F778093800062
:101510000DC084B58F7784BD09C08091B0008F77EE
:1015200003C08091B0008F7D8093B000F0E0EE0F9B
:10153000FF1FEA5DFE4FA591B4919FB7F89461112A
:1015400004C08C913095382302C0EC913E2B3C9323
:101550009FBF08953FB7F8948091EA019091EB0105
:10156000A091EC01B091ED0126B5A89B05C02F3FDD
:1015700019F00196A11DB11D3FBFBA2FA92F982FB9
:101580008827820F911DA11DB11DBC01CD0142E034
:10159000660F771F881F991F4A95D1F708954F92BC
:1015A0005F926F927F928F929F92AF92BF92CF92F3
:1015B000DF92EF92FF92CF93DF93CDB7DEB7A49780
:1015C0000FB6F894DEBF0FBECDBF0E94AA0AC0902E
:1015D0008402D0908502E0908602F09087026C1918
:1015E0007D098E099F090E945A1C20E030E048ECDA
:1015F00052E40E94B21B6B017C010E94AA0A609314
:101600008402709385028093860290938702809172
:101610006E0290916F02A0917002B0917102BC01B4
:10162000CD019058A70196010E94B31D2B013C01EA
:101630008091720290917302A0917402B091750230
:10164000BC01CD019058A70196010E94B31D4B012A
:101650005C0120917602309177024091780250919E
:101660007902C701B6010E94B31D6B017C01C30161
:10167000B2010E94AD1B6D837E838F839887C50165
:10168000B4010E94AD1B69877A878B879C87C7014D
:10169000B6010E94AD1B6D877E878F87988B8091E6
:1016A0005E0290915F02A0916002B0916102898B0D
:1016B0009A8BAB8BBC8BBC01CD010E94AD1B6D8B9B
:1016C0007E8B8F8B988F80915A0290915B02A091B4
:1016D0005C02B0915D02898F9A8FAB8FBC8FBC0189
:1016E000CD010E94AD1B69837A838B839C83C301E8
:1016F000B2010E94201E6D8F7E8F8F8F98A3C5012F
:10170000B4010E94201E69A37AA38BA39CA3C701E6
:10171000B6010E94201E2B013C0169897A898B89C0
:101720009C890E94201E698B7A8B8B8B9C8B698D88
:101730007A8D8B8D9C8D0E94201E6B017C012981EE
:101740003A814B815C816D857E858F8598890E9469
:10175000B31D29893A894B895C890E94B31D4B01CD
:101760005C01A7019601C301B2010E94B31D9B0158
:10177000AC01C501B4010E94AF1A4B015C01A70185
:1017800096016D857E858F8598890E94B31D6B01BA
:101790007C01A301920169817A818B819C810E94E5
:1017A000B31D29893A894B895C890E94B31D9B012D
:1017B000AC01C701B6010E94AE1A6D877E878F8784
:1017C000988B9B01AC0169A17AA18BA19CA10E947D
:1017D000B31D6B017C0129813A814B815C81698554
:1017E0007A858B859C850E94B31D2D893E894F8902
:1017F000588D0E94B31D9B01AC01C701B6010E9428
:10180000AE1A2B013C016D8D7E8D8F8D98A1905865
:10181000A50194010E94B31D6B017C01A3019201FB
:101820006D817E818F8198850E94B31D9B01AC01E3
:10183000C701B6010E94AE1A6B017C01A50194019B
:101840006D817E818F8198850E94B31D4B015C0163
:10185000A30192016D8D7E8D8F8D98A10E94B31D85
:101860009B01AC01C501B4010E94AE1A4B015C01A1
:10187000A70196010E94491B6D837E838F83988701
:1018800060935E0270935F028093600290936102A6
:10189000A5019401C501B4010E94B31D4B015C0177
:1018A000A7019601C701B6010E94B31D9B01AC01BF
:1018B000C501B4010E94AF1A0E942E1E6B017C016B
:1018C00029813A814B815C816D897E898F89988DD0
:1018D0000E94B31D29A13AA14BA15CA10E94B31D96
:1018E0004B015C012D853E854F85588969857A8538
:1018F0008B859C850E94B31D9B01AC01C501B40181
:101900000E94AF1AA70196010E94491B69877A8736
:101910008B879C8760935A0270935B0280935C0272
:1019200090935D028091620290916302A0916402A3
:10193000B091650289839A83AB83BC8320E030E059
:10194000A901BC01CD010E94A61D181634F06981C1
:101950007A818B819C81905804C069817A818B81C6
:101960009C819B01AC010E94B31D6B017C018090A6
:10197000660290906702A0906802B090690220E031
:1019800030E0A901C501B4010E94A61D181624F07B
:10199000C501B401905802C0C501B4019B01AC015E
:1019A0000E94B31DA70196010E94AF1A6B017C0132
:1019B00040906A0250906B0260906C0270906D02D1
:1019C00020E030E0A901C301B2010E94A61D181653
:1019D00024F0C301B201905802C0C301B2019B01BF
:1019E000AC010E94B31DA70196010E94AF1A0E948C
:1019F0002E1E6B017C0126E636E646E65FE30E947A
:101A0000A61D18160CF065C02DEC3CEC4CE85FE30D
:101A1000C701B6010E94A81B87FF5BC0A30192010A
:101A20005058C501B4010E94491B2B013C0169813A
:101A30007A818B819C819058A70196015F770E94E3
:101A4000B21B0E941B1B6B017C0126E636E646E6B4
:101A50005FE36D817E818F8198850E94B31D4B016C
:101A60005C012DEC3CEC4CEC5DE3C301B2010E9447
:101A7000B31D9B01AC01C501B4010E94AF1A609374
:101A80005E0270935F02809360029093610226E68B
:101A900036E646E65FE369857A858B859C850E94FC
:101AA000B31D4B015C012DEC3CEC4CEC5DE3C7013C
:101AB000B6010E94B31D9B01AC01C501B4010E9497
:101AC000AF1A60935A0270935B0280935C0290930A
:101AD0005D02A4960FB6F894DEBF0FBECDBFDF91B6
:101AE000CF91FF90EF90DF90CF90BF90AF909F90FD
:101AF0008F907F906F905F904F9008958F929F92FC
:101B0000AF92BF92CF92DF92EF92FF926B017C0176
:101B10000E94AA0A4B015C01C114D104E104F10442
:101B2000F1F00E94AA0ADC01CB0188199909AA09DF
:101B3000BB09883E9340A105B10570F321E0C21AAC
:101B4000D108E108F10888EE880E83E0981EA11CF8
:101B5000B11CC114D104E104F10419F7DDCFFF90E9
:101B6000EF90DF90CF90BF90AF909F908F900895AF
:101B70001F920F920FB60F9211242F933F938F93C2
:101B80009F93AF93BF938091400490914104A091A3
:101B90004204B091430430913F0423E0230F2D37DA
:101BA00020F40196A11DB11D05C026E8230F029661
:101BB000A11DB11D20933F048093400490934104E4
:101BC000A0934204B09343048091EA019091EB0109
:101BD000A091EC01B091ED010196A11DB11D809382
:101BE000EA019093EB01A093EC01B093ED01BF915A
:101BF000AF919F918F913F912F910F900FBE0F90BA
:101C00001F901895CF93DF93CDB7DEB7C256D10999
:101C10000FB6F894DEBF0FBECDBF789484B5826056
:101C200084BD84B5816084BD85B5826085BD85B580
:101C3000816085BD80916E00816080936E001092FE
:101C40008100809181008260809381008091810079
:101C5000816080938100809180008160809380000A
:101C60008091B10084608093B1008091B000816068
:101C70008093B00080917A00846080937A00809194
:101C80007A00826080937A0080917A0081608093EC
:101C90007A0080917A00806880937A001092C10067
:101CA000E0919902F0919A0282E08083E09195029E
:101CB000F09196021082E0919702F09198028FECD9
:101CC00080831092A102E0919D02F0919E0286E035
:101CD0008083E0919B02F0919C02808180618083EF
:101CE000E0919B02F0919C02808188608083E0916A
:101CF0009B02F0919C02808180688083E0919B022E
:101D0000F0919C0280818F7D808320E030E0809183
:101D10003C0490913D048430910590F4AC014F5FF8
:101D20005F4F50933D0440933C04FC01EE0FFF1FB6
:101D30008E0F9F1FFC01E05DFB4F318320831282D9
:101D40002F5F3F4F2430310511F71092650110923B
:101D500064011092EF011092EE011092F1011092C5
:101D600012021092590211E010935802109253027D
:101D700061E082E10E945D0A61E083E10E945D0A08
:101D80008091B9008E7F8093B9008091B9008D7FDA
:101D90008093B90088E48093B80085E48093BC0008
:101DA0008AE192E090936301809362018BE192E07B
:101DB000909361018093600188E60E94EC088BE6B5
:101DC00090E00E94F60880E090E00E94F60881E032
:101DD0000E94900868EE73E080E090E00E947E0D23
:101DE00010932B0480E090E4A9E7B4E480932C04E2
:101DF00090932D04A0932E04B0932F0486E70E94A5
:101E0000EC088EE190E00E94F6080E9408096AE062
:101E100070E080E090E00E947E0D5BE0E52E54E0F3
:101E2000F52E00EA10E086E70E94EC08C8010E9447
:101E3000F6080E94080941E062E086E70E944E0829
:101E40001092EF018093EE0186E293E00E942C0253
:101E5000B82E86E293E00E942C02DB2CC12C8C2948
:101E60009D29D7018D939D937D010E5F1F4F0E3AE3
:101E70001105C9F680910B0490910C049F7090930A
:101E80000C0480930B0410921A041092190468EE4B
:101E900073E080E090E00E947E0D8FE2EAE5F2E0E0
:101EA000DE01119601900D928A95E1F768E070E0ED
:101EB00089E993E00E94500667E070E08AEA93E0C7
:101EC0000E94500664E070E08BEB93E00E945006A5
:101ED00065E070E086E693E00E94500666E070E000
:101EE00085E593E00E94500663E070E088E893E0A7
:101EF0000E94500662E070E087E793E00E9450067F
:101F000086E391E00E94300A1092CD031092CC0338
:101F10001092CF031092CE031092D1031092D003EF
:101F20001092320389E094E09093D3038093D2031C
:101F30008FE2FE013196AAEDB3E001900D928A95F1
:101F4000E1F71092D40360912704709128048091E6
:101F5000290490912A040E945C1C6093D50370931D
:101F6000D6038093D7039093D80381E090E09093B9
:101F70003A03809339038093D90368EB7BE080E0D8
:101F800090E00E947E0DF8948CE00E943E0A8CB591
:101F900080648CBD8FEF8EBD8CB580688CBD7894CD
:101FA0000E94AA0A009167011091680120916901BD
:101FB00030916A01DC01CB01801B910BA20BB30BAA
:101FC00081329E44A105B10560F00E94AA0A609387
:101FD0006701709368018093690190936A0181E0C1
:101FE00001C080E02091090430910A04232BA9F458
:101FF000882399F086E70E94EC088AE490E00E942A
:10200000F6080E9408098091090490910A0401963B
:1020100090930A048093090480E020910904309190
:102020000A042130310509F06BC0882309F468C027
:1020300086E70E94EC0880E090E00E94F6080E948B
:10204000080983E090E00E94FB0810921B041092A4
:102050001C0410921D0410921E0486E293E00E945C
:102060002C024C01990FAA08BB0880921B04909285
:102070001C04A0921D04B0921E0486E293E00E940C
:102080002C02BA2CA92C982C88246C01990FEE08EC
:10209000FF08C828D928EA28FB28C0921B04D09240
:1020A0001C04E0921D04F0921E0486E293E00E945C
:1020B0002C02FE2CED2CDC2CCC24092E000CAA0BBF
:1020C000BB0BC82AD92AEA2AFB2AC0921B04D09249
:1020D0001C04E0921D04F0921E0486E70E94EC08A6
:1020E0008AE590E00E94F6080E94080980910904A0
:1020F00090910A04019690930A048093090480E069
:102100002091090430910A042230310509F0CBC432
:10211000882309F4C8C486E70E94EC0880E090E0B8
:102120000E94F6080E94080983E090E00E94FB08E4
:1021300010921F0410922004109221041092220485
:1021400086E293E00E942C024C01990FAA08BB087A
:1021500080921F0490922004A0922104B092220445
:1021600086E293E00E942C02BA2CA92C982C882499
:102170006C01990FEE08FF08C828D928EA28FB2827
:10218000C0921F04D0922004E0922104F092220415
:1021900086E293E00E942C02FE2CED2CDC2CCC2459
:1021A000092E000CAA0BBB0BC82AD92AEA2AFB2A43
:1021B000C0921F04D0922004E0922104F0922204E5
:1021C0008091150490911604A0E0B0E0BA2FA92FD9
:1021D000982F882797018601081B190B2A0B3B0BA8
:1021E00008AB19AB2AAB3BAB10912B0465961FAF24
:1021F0006597E0911104F0911204E0900D04F090C5
:102200000E0420911B0430911C0440911D04509138
:102210001E0464962CAF3DAF4EAF5FAF6497113094
:1022200009F09BC0970140E050E060E070E080E082
:1022300090E000E10E942C2019012A013B014C0191
:10224000BF0180E090E028A939A94AA95BA90E94B2
:102250001B1FF22E032F142FB52FF62FE72FD82E8A
:10226000E92EA0E00E9481205CF4AFE70E946C2080
:10227000F22E032F142FB52FF62FE72FD82EE92E8D
:102280002F2D302F412F5B2F6F2F7E2F8D2D9E2DC9
:1022900007E00E94452059016A017B018C019101F0
:1022A000A201B301C4010E94632025962FAF259798
:1022B00026963FAF269727964FAF279728965FAF72
:1022C000289729966FAF29972A967FAF2A972B9642
:1022D0008FAF2B972C969FAF2C97E0911304F09122
:1022E000140480900F0490901004940140E050E09A
:1022F00060E070E080E090E001E10E942C20190194
:102300002A013B014C01BF0180E090E028A939A9D6
:102310004AA95BA90E941B1FF22E032F142FB52F71
:10232000F62FE72FD82EE92EA0E00E9481205CF442
:10233000AFE30E946C20F22E032F142FB52FF62F3F
:10234000E72FD82EE92E2F2D302F412F5B2F6F2F07
:102350007E2F8D2D9E2D06E0A4C0BF0180E090E071
:1023600028A939A94AA95BA90E941B1FD22E032FB5
:10237000142FB52FF62FE72FB82EC92EA0E00E94FC
:10238000812084F421503F4F4F4F5F4F6F4F7F4F5D
:102390008F4F9F4FD22E032F142FB52FF62FE72FDD
:1023A000B82EC92E2D2D302F412F5B2F6F2F7E2F52
:1023B0008B2D9C2D08E00E94452039014A01B62F43
:1023C000A72FF82FE92FC12CD12C9701A60160E08F
:1023D00070E080E090E00FE00E942C2059016A013B
:1023E0007B018C019301A4016B2F7A2F8F2F9E2FDD
:1023F0000E94632025962FAF259726963FAF2697FC
:1024000027964FAF279728965FAF289729966FAFEB
:1024100029972A967FAF2A972B968FAF2B972C96CA
:102420009FAF2C97E0911304F091140480900F0457
:1024300090901004940140E050E060E070E080E093
:1024400090E000E10E942C2019012A013B014C017F
:10245000BF0180E090E028A939A94AA95BA90E94A0
:102460001B1FF22E032F142FB52FF62FE72FD82E78
:10247000E92EA0E00E9481205CF4AFE70E946C206E
:10248000F22E032F142FB52FF62FE72FD82EE92E7B
:102490002F2D302F412F5B2F6F2F7E2F8D2D9E2DB7
:1024A00007E00E94452059016A017B018C019101DE
:1024B000A201B301C4010E94632021962FAF21978E
:1024C00022963FAF229723964FAF239724965FAF74
:1024D00024972D966FAF2D972E967FAF2E972F9620
:1024E0008FAF2F9760969FAF609748A859A86AA8AA
:1024F0007BA8770C4408542C32016091170470912A
:10250000180480E090E028A939A94AA95BA90E9493
:102510001B1FF22E032F142FB52FF62FE72FD82EC7
:10252000E92EA0E00E94812084F421503109404826
:102530005F4F6F4F7F4F8F4F9F4FF22E032F142F00
:10254000B52FF62FE72FD82EE92E2F2D302F412F24
:102550005B2F6F2F7E2F8D2D9E2D07E10E94452032
:1025600049015A01950184010053184F2F4F3F4FE5
:102570000CAF1DAF2EAF3FAF65961FAD6597113005
:1025800009F07EC02CAD3DAD4EAD5FAD203D374076
:10259000410551050CF038C168A979A98AA99BA900
:1025A0002BE030E040E050E00E941B1FA8A8B9A833
:1025B000CAA8DBA8E42CF42C042D142D0E94C21E02
:1025C000F22E032F142FB52FF62FE72FD82EE92E3A
:1025D000A0E00E94812084F4215031094109510971
:1025E000684F7F4F8F4F9F4FF22E032F142FB52F21
:1025F000F62FE72FD82EE92E2F2D302F412F5B2FCE
:102600006F2F7E2F8D2D9E2D03E20E94452028AB3B
:1026100039AB4AAB5BABAFE1B0E08CAC9DACAEACE0
:10262000BFAC70ED871A77E0970AA108B108A50141
:1026300094010E94721A9B01AC01C501B4010E9471
:102640008C1E7B018C01F3E015950795F794E794B8
:10265000FA95D1F7AFE3B0E0A50194010E94721A98
:102660009B01AC01C501B4010E948C1E2B013C01F1
:10267000A5E07594679457944794AA95D1F7CEC076
:102680008CAD9DADAEADBFAD803D9740A105B10510
:102690000CF0A6C068A979A98AA99BA923E030E01B
:1026A00040E050E00E941B1FA8A8B9A8CAA8DBA858
:1026B000E42CF42C042D142D0E94C21EF22E032FA4
:1026C000142FB52FF62FE72FD82EE92EA0E00E9469
:1026D000812084F421503109410951096E4F7F4F07
:1026E0008F4F9F4FF22E032F142FB52FF62FE72F6A
:1026F000D82EE92E2F2D302F412F5B2F6F2F7E2FBD
:102700008D2D9E2D01E20E94452028AB39AB4AABAE
:102710005BABA3E0B0E08CAC9DACAEACBFACF0ED7D
:102720008F1AF7E09F0AA108B108A50194010E9441
:10273000721A9B01AC01C501B4010E948C1E7B0181
:102740008C0115950795F794E794A5E0B0E0A501F5
:1027500094010E94721A9B01AC01C501B4010E9450
:102760008C1E2B013C01E3E07594679457944794C9
:10277000EA95D1F72CAD3DAD4EAD5FAD213C69EF93
:1027800036076FEF460756070CF048C0A7E0B0E0E9
:1027900049015A017CED870E75E0971EA11CB11C02
:1027A000A50194010E94721A9B01AC01C501B401FC
:1027B0000E948C1EE60EF71E081F191FA50194012A
:1027C00062E0220F331F441F551F6A95D1F7C501E0
:1027D000B4010E948C1E460E571E681E791E1EC034
:1027E000A5019401C501B4010E948C1E7B018C01DE
:1027F00044E015950795F794E7944A95D1F718AA00
:1028000019AA1AAA1BAA07C018AA19AA1AAA1BAAA7
:10281000E12CF12C8701412C512C3201D801C70148
:10282000BB0F880B982FDC0188AF99AFAAAFBBAF65
:1028300021962FAD219722963FAD229723964FAD3B
:10284000239724965FAD24972D966FAD2D972E96E6
:102850007FAD2E972F968FAD2F9760969FAD609787
:1028600057016801E8ACFE2C0E2D1E2D0E94782029
:10287000922E832E342E252E21966FAF21972296ED
:102880007FAF229723968FAF239724969FAF2497ED
:1028900083017201110FEE08FE2C8701E8AEF9AE3C
:1028A0000AAF1BAF25962FAD259726963FAD2697ED
:1028B00027964FAD279728965FAD289729966FAD3D
:1028C00029972A967FAD2A972B968FAD2B972C961A
:1028D0009FAD2C9752016301E8ACFE2C0E2D1E2DEE
:1028E0000E94782059016A017B018C018CAD9DAD5D
:1028F000AEADBFAD28A939A94AA95BA9821B930B2C
:10290000A40BB50B65963FAD659780932304909318
:102910002404A0932504B0932604313009F059C053
:1029200064966CAD7DAD8EAD9FAD6497AB01BC017F
:1029300080E090E0DC0148AB59AB6AAB7BAB8CAB81
:102940009DABAEABBFAB9A01AB0160E070E080E045
:1029500090E00E94C21EF22E032F142FB52FF62FE7
:10296000E72FD82EE92EA0E00E94812084F4215088
:102970003109404E5F4F6F4F7F4F8F4F9F4FF22E69
:10298000032F142FB52FF62FE72FD82EE92E2F2D3A
:10299000302F412F5B2F6F2F7E2F8D2D9E2D05E128
:1029A0000E944520A92CB82CC32CD22C2196EFAC28
:1029B00021972296FFAC229723960FAD239724965A
:1029C0001FAD24970E947820A12CB12CF2E3CF2ECA
:1029D00057C064964CAD5DAD6EAD7FAD64979A0106
:1029E000AB0160E070E0CB0128AB39AB4AAB5BAB2D
:1029F0006CAB7DAB8EAB9FAB60E070E080E090E0B5
:102A00000E94C21EF22E032F142FB52FF62FE72F90
:102A1000D82EE92EA0E00E94812084F421503109B3
:102A2000404E5F4F6F4F7F4F8F4F9F4FF22E032FC0
:102A3000142FB52FF62FE72FD82EE92E2F2D302F5C
:102A4000412F5B2F6F2F7E2F8D2D9E2D05E10E9434
:102A50004520A92CB82CC32CD22C2196EFAC219761
:102A60002296FFAC229723960FAD239724961FAD95
:102A700024970E947820A12CE0E4BE2ECC24C3949D
:102A8000D12CE12CF12C00E010E00E94571F209384
:102A90002704309328044093290450932A04109269
:102AA0000A041092090488E60E94EC088BE390E087
:102AB0000E94F60880E00E94900841E06EE088E6FF
:102AC0000E944E081092EF018093EE010E94AA0A24
:102AD00040918202509183022091840230918502BC
:102AE000DA01A21BB30B9D01260F371F309383021F
:102AF0002093820260938402709385028093860201
:102B00009093870286E293E00E942C02182F86E2BF
:102B100093E00E942C0267961FAF679766961FAEE0
:102B200066976796EEADFFAD67978E2B9F2BBC0126
:102B3000990F880B990B0E945C1C60936202709342
:102B40006302809364029093650286E293E00E94A0
:102B50002C02182F86E293E00E942C0269961FAF88
:102B6000699768961FAE68976996EEACFFAC699757
:102B70008E299F29BC01990F880B990B0E945C1C20
:102B80006093660270936702809368029093690273
:102B900086E293E00E942C02182F86E293E00E94C6
:102BA0002C026B961FAF6B976A961FAE6A976B9657
:102BB0000EAD1FAD6B97802B912BBC01990F880B2D
:102BC000990B0E945C1C60936A0270936B02809365
:102BD0006C0290936D0286E293E00E942C02182F03
:102BE00086E293E00E942C026D961FAF6D976C9663
:102BF0001FAE6C976D962EAD3FAD6D97822B932BCC
:102C0000BC01990F880B990B0E945C1C60937A029F
:102C100070937B0280937C0290937D0286E293E026
:102C20000E942C02182F86E293E00E942C026F96DD
:102C30001FAF6F976E961FAE6E976F964EAD5FADDE
:102C40006F97842B952BBC01990F880B990B0E94D1
:102C50005C1C60936E0270936F028093700290937D
:102C6000710286E293E00E942C02182F86E293E024
:102C70000E942C02A1961FAFA197A0961FAEA0970D
:102C8000A1966EAD7FADA197862B972BBC01990FB6
:102C9000880B990B0E945C1C609372027093730204
:102CA000809374029093750286E293E00E942C0256
:102CB000F82E86E293E00E942C028C0120E030E0A6
:102CC0004AEA53E460917A0270917B0280917C021F
:102CD00090917D020E94B21B28EB3EE142E152E45A
:102CE0000E94AF1A60937A0270937B0280937C02F9
:102CF00090937D022DEC3CE248E854E4609162023E
:102D00007091630280916402909165020E94AE1AF4
:102D100020E038E640E856E40E94B21B609362026D
:102D200070936302809364029093650223E333E31C
:102D300048EF53E4609166027091670280916802E7
:102D4000909169020E94AF1A20E034E94FE756E4FF
:102D50000E94B21B609366027093670280936802C0
:102D6000909369022AE939E94EEA54E460916A02D3
:102D700070916B0280916C0290916D020E94AF1A6B
:102D800023E335E443E856E40E94B21B60936A02F1
:102D900070936B0280936C0290936D022CEE31E184
:102DA0004FE153E460916E0270916F028091700266
:102DB000909171020E94AF1A20E030E041EE54E49D
:102DC0000E94B21B60936E0270936F028093700238
:102DD000909371022DEC3CEC47EE52E4609172024C
:102DE0007091730280917402909175020E94AE1AE4
:102DF00020E030E048EC54E40E94B21B6093720281
:102E0000709373028093740290937502A396FFAE41
:102E1000A397A2961FAEA297A3966EAD7FADA39780
:102E2000602B712B072E000C880B990B0E945C1CE9
:102E300024EA30E74DE053E40E94AF1A20E030E08E
:102E400048EC54E40E94B21B6093760270937702C0
:102E500080937802909379020E94CF0A0E94CF0A51
:102E600071E470937C0080917A00806480937A0092
:102E700080917A0086FDFCCF609178008091790086
:102E800070E0782B072E000C880B990B0E945C1CBD
:102E90002AEA31EF42E050E40E94B21B0E942B1C50
:102EA000609338046091270470912804809129046C
:102EB00090912A040E945C1C20E030E040E251E442
:102EC0000E94B21B0E942B1C60933B0460915A022B
:102ED00070915B0280915C0290915D020E942B1CBC
:102EE0006093350460915E0270915F028091600290
:102EF000909161020E942B1C6093320480916601C4
:102F0000882309F49AC080913203811115C060E0D2
:102F100070E085E593E00E94060760E070E086E6D9
:102F200093E00E94060760E070E087E793E00E946C
:102F3000060760E070E07BC08091CC039091CD03E8
:102F40004091CE035091CF032091D0033091D10313
:102F5000841B950B820F931F20913B0330913C0300
:102F6000829FB001839F700D929F700D112485E5A3
:102F700093E00E9406078091CE039091CF03409189
:102F8000CC035091CD032091D0033091D103919582
:102F900081959109841B950B821B930B20913D0316
:102FA00030913E03829FB001839F700D929F700D00
:102FB000112486E693E00E9406072091CE0330910B
:102FC000CF034091CC035091CD038091D0039091D9
:102FD000D103841B950B821B930B20913F033091EF
:102FE0004003829FB001839F700D929F700D11244A
:102FF00087E793E00E9406078091CC039091CD0370
:103000004091CE035091CF032091D0033091D10352
:10301000841B950B821B930B20914103309142033B
:10302000829FB001839F700D929F700D112488E8DC
:1030300093E00E940607109266018091D9038823CD
:1030400009F40FC18091320381110FC060E070E07C
:1030500089E993E00E94060760E070E08AEA93E065
:103060000E94060760E070E0F8C0809137039091FD
:103070003803181619060CF4F8C0609133037091E8
:103080003403809135039091360320E030E0A901AC
:103090000E94A61D18160CF4E8C08091D403882362
:1030A000A1F0E091D203F091D303668D778D80A1DA
:1030B00091A10E945C1C6093D5037093D60380930A
:1030C000D7039093D8031092D40300E010E08091CE
:1030D000D4038111EFC0E091D203F091D303668D48
:1030E000778D80A191A10E945C1C9B01AC01609135
:1030F000D5037091D6038091D7039091D8030E9495
:10310000AE1A905820E030E046E154E40E94B31D2E
:103110000E94241C6B016091D5037091D6038091AD
:10312000D7039091D80342E00E945E0982E491E0C7
:103130000E940B09E091D203F091D303668D778D45
:1031400080A191A10E945C1C42E00E945E0982E481
:1031500091E00E940B090D2C000CEE08FF08F7FE11
:10316000ACC06DE289E892E00E946F018827992740
:10317000DC018C199D09AE09BF094AE0BC01CD01F3
:103180000E941D0984E491E00E940B09B801110F0F
:10319000880B990B0E945C1C4B015C01C701B601B6
:1031A0000E945C1C6B017C01E0913903F0913A03B1
:1031B000EE0FFF1FEE0FFF1FEE5CFC4F2789308DD7
:1031C000418D528DC701B6010E94B21BA501940129
:1031D0000E94AF1A0E94241C8AEA93E00E9406070C
:1031E00020E030E0A901C701B6010E94AF1A6B01CF
:1031F0007C01E0913903F0913A03EE0FFF1FEE0FCF
:10320000FF1FEE5CFC4F2789308D418D528DC70129
:10321000B6010E94B21BA50194010E94AF1A0E9440
:10322000241C89E993E00E940607E0913903F0919C
:103230003A03EE0FFF1FEE0FFF1FEE5CFC4F2789D6
:10324000308D418D528DC701B6010E94B21BA50180
:1032500094010E94AF1A0E94241C8BEB93E00E9401
:1032600006070E94DE010C94D00F81E08093D40306
:10327000C0903303D0903403E0903503F0903603D0
:103280006091370370913803072E000C880B990B5F
:103290000E945C1C9B01AC01C701B6010E94AE1AE2
:1032A00020E030E040EF52E40E94B31D0E94241C55
:1032B0008B010DCFC12CD12C2ECF4AE0C701B60116
:1032C0005FCFFC01809181018C30A8F491E0980FD0
:1032D00090938101868790E0DC01AA0FBB1F8A0FC3
:1032E0009B1FDC01AD57BE4F88EB9BE012969C9371
:1032F0008E93119702C08FEF8687F8941092B000DA
:103300001092B1001092B2008FEF8093B3008091C1
:10331000B10088608093B1008091B1008560809396
:10332000B100809170001092700084EA96E097835B
:10333000868384E195E09187808726813781808527
:103340009185281B390B4AE0429FC001439F900D95
:10335000112464E670E00E94A81E758364838CEDDE
:1033600095E09183808380819181938382838FEF25
:103370009FEF9587848780916F019091700193876B
:103380008287DC01AA0FBB1FAF58BE4FED93FC93A1
:1033900001969093700180936F0178940895E9E805
:1033A000F2E01382128288EE93E0A0E0B0E0848322
:1033B0009583A683B78326E131E03183208325EC12
:1033C00030E03587248724EC30E03787268720ECEF
:1033D00030E0318B208B21EC30E0338B228B22ECE0
:1033E00030E0358B248B26EC30E0378B268B118E2A
:1033F000128E138E148EE6E2F3E01382128284831F
:103400009583A683B78388E291E0918380831092AD
:103410003D0410923C0480E090EAA0E8B4E480937C
:103420002C0490932D04A0932E04B0932F04E2E378
:10343000F3E08FEF9FEF928781879487838781E006
:1034400090E096878587908B8787928B818B948B72
:10345000838B968B858B8CE0E6E0F1E0A9E4B3E00A
:1034600001900D928A95E1F785E593E00E9461193C
:1034700086E693E00E94611987E793E00E94611954
:1034800088E893E00E94611989E993E00E9461193C
:103490008AEA93E00E9461198BEB93E00E94611924
:1034A0001092D9030895052E97FB1EF400940E94F4
:1034B0006A1A57FD07D00E947D1A07FC03D04EF40C
:1034C0000C946A1A50954095309521953F4F4F4F77
:1034D0005F4F089590958095709561957F4F8F4FC0
:1034E0009F4F08950E949F1AA59F900DB49F900D25
:1034F000A49F800D911D11240895A1E21A2EAA1BEC
:10350000BB1BFD010DC0AA1FBB1FEE1FFF1FA21793
:10351000B307E407F50720F0A21BB30BE40BF50B90
:10352000661F771F881F991F1A9469F76095709519
:10353000809590959B01AC01BD01CF010895A29F9C
:10354000B001B39FC001A39F700D811D1124911D77
:10355000B29F700D811D1124911D08955058BB27F5
:10356000AA270E94C61A0C94581D0E941F1D38F0ED
:103570000E94261D20F039F49F3F19F426F40C9484
:10358000E11C0EF4E095E7FB0C94DB1CE92F0E9494
:103590007D1D58F3BA17620773078407950720F05B
:1035A00079F4A6F50C949F1D0EF4E0950B2EBA2F1E
:1035B000A02D0B01B90190010C01CA01A001112439
:1035C000FF27591B99F0593F50F4503E68F11A16E5
:1035D000F040A22F232F342F4427585FF3CF469576
:1035E00037952795A795F0405395C9F77EF41F1698
:1035F000BA0B620B730B840BBAF09150A1F0FF0F62
:10360000BB1F661F771F881FC2F70EC0BA0F621F4D
:10361000731F841F48F4879577956795B795F7953D
:103620009E3F08F0B0CF9395880F08F09927EE0FD2
:103630009795879508959F939F77EEE389379E0727
:1036400028F4EAE8F0E00E940B1D0CC00E94971CD1
:103650009058A2EA2AED3FE049EC5FE30E94C61AC7
:103660000E94581D0F9007FC905808950E941F1D3E
:1036700060F080E891E009F49EEF0E94261D28F09A
:1036800040E851E071F45EEF0CC00C94E11C0C9426
:103690009F1DE92FE0780E947D1D40F3092E052A29
:1036A000B1F3261737074807590738F00E2E07F8E9
:1036B000E02569F0E025E0640AC0EF6307F80094B4
:1036C00007FADB01B9019D01DC01CA01AD01EF93ED
:1036D0000E94C91B0E94581D0E94791B5F915523AF
:1036E00039F02BED3FE049E450FD49EC0C94AF1A62
:1036F0000895DF93DD27B92FBF7740E85FE3161603
:10370000170648075B0718F4D92F0E94AB1D9F933B
:103710008F937F936F930E946E1EEEE9F0E00E94FC
:10372000E41C0E94581D2F913F914F915F910E9480
:10373000C61DDD2351F09058A2EA2AED3FE049EC86
:103740005FE3D0785D270E94C61ADF910C94581D64
:103750000E94B71C08F481E008950E942F1DE39594
:103760000C94691D0E94C61B0C94581D0E94261DB6
:1037700058F00E941F1D40F029F45F3F29F00C947F
:10378000DB1C51110C94A01D0C94E11C0E947D1DAA
:1037900068F39923B1F3552391F3951B550BBB2780
:1037A000AA2762177307840738F09F5F5F4F220FC5
:1037B000331F441FAA1FA9F335D00E2E3AF0E0E8BC
:1037C00032D091505040E695001CCAF72BD0FE2F06
:1037D00029D0660F771F881FBB1F2617370748079A
:1037E000AB07B0E809F0BB0B802DBF01FF27935852
:1037F0005F4F3AF09E3F510578F00C94DB1C0C941F
:10380000A01D5F3FE4F3983ED4F3869577956795C6
:10381000B795F7959F5FC9F7880F911D9695879586
:1038200097F90895E1E0660F771F881FBB1F6217A5
:1038300073078407BA0720F0621B730B840BBA0B63
:10384000EE1F88F7E09508950E942B1C6894B11133
:103850000C94A01D08950E94851D88F09F5798F034
:10386000B92F9927B751B0F0E1F0660F771F881F85
:10387000991F1AF0BA95C9F714C0B13091F00E949F
:103880009F1DB1E008950C949F1D672F782F882706
:10389000B85F39F0B93FCCF3869577956795B395C6
:1038A000D9F73EF490958095709561957F4F8F4F35
:1038B0009F4F0895E89409C097FB3EF4909580953A
:1038C000709561957F4F8F4F9F4F9923A9F0F92FE6
:1038D00096E9BB279395F695879577956795B79564
:1038E000F111F8CFFAF4BB0F11F460FF1BC06F5F4A
:1038F0007F4F8F4F9F4F16C0882311F096E911C05C
:10390000772321F09EE8872F762F05C0662371F07C
:1039100096E8862F70E060E02AF09A95660F771F90
:10392000881FDAF7880F9695879597F90895DF93A2
:10393000CF931F930F938B01EC01EBECF0E00E940F
:10394000E41C0E94581D9801AE018B01EC0160E05F
:1039500070E080E89FE30E94AE1A0E942E1E98013C
:10396000AE010F911F91CF91DF910C94C61D990F5D
:103970000008550FAA0BE0E8FEEF16161706E80739
:10398000F907C0F012161306E407F50798F0621B5A
:10399000730B840B950B39F40A2661F0232B242B2F
:1039A000252B21F408950A2609F4A140A6958FEF4E
:1039B000811D811D089597F99F6780E870E060E0A0
:1039C00008959FEF80EC0895DF93CF931F930F939B
:1039D000FF92EF92DF927B018C01689406C0DA2E91
:1039E000EF010E94C61DFE01E894A5912591359135
:1039F00045915591A6F3EF010E94C61AFE01970169
:103A0000A801DA9469F7DF90EF90FF900F911F9172
:103A1000CF91DF9108959F938F937F936F93FF933F
:103A2000EF939B01AC010E94B31DEF91FF910E94A7
:103A3000E41C2F913F914F915F910C94B31D002492
:103A40000A941616170618060906089500240A9403
:103A5000121613061406050608950C94E11C0E9424
:103A6000851DD8F3E894E0E0BB279F57F0F02AEDDE
:103A70003FE049EC06C0EE0FBB0F661F771F881FA3
:103A800028F0B23A62077307840728F0B25A620B33
:103A9000730B840BE3959A9572F7803830F49A95FE
:103AA000BB0F661F771F881FD2F790480C94791EB2
:103AB000092E0394000C11F4882352F0BB0F40F43C
:103AC000BF2B11F460FF04C06F5F7F4F8F4F9F4F7C
:103AD0000895EF93E0FF07C0A2EA2AED3FE049EC2A
:103AE0005FEB0E94C61A0E94581D0F90039401FCC0
:103AF0009058E3EFF0E00C940B1D57FD9058440FE5
:103B0000551F59F05F3F71F04795880F97FB991F3C
:103B100061F09F3F79F087950895121613061406F9
:103B2000551FF2CF4695F1DF08C016161706180686
:103B3000991FF1CF86957105610508940895E89461
:103B4000BB2766277727CB0197F908950E94B71CFA
:103B500008F48FEF08959B01AC0160E070E080E80D
:103B60009FE30C94B21B0E94C61D0C94581D0E942A
:103B70001F1D38F00E94261D20F0952311F00C9493
:103B8000DB1C0C94E11C11240C94A01D0E947D1DD3
:103B900070F3959FC1F3950F50E0551F629FF001A0
:103BA000729FBB27F00DB11D639FAA27F00DB11DB9
:103BB000AA1F649F6627B00DA11D661F829F222742
:103BC000B00DA11D621F739FB00DA11D621F839FC9
:103BD000A00D611D221F749F3327A00D611D231F9F
:103BE000849F600D211D822F762F6A2F11249F57ED
:103BF00050409AF0F1F088234AF0EE0FFF1FBB1FF0
:103C0000661F771F881F91505040A9F79E3F5105AE
:103C100080F00C94DB1C0C94A01D5F3FE4F3983EF5
:103C2000D4F3869577956795B795F795E7959F5F58
:103C3000C1F7FE2B880F911D9695879597F90895EA
:103C40009F930E942F1D0F9007FCEE5F0C94691D3F
:103C500019F416F40C94E11C0C94771E0E94851D37
:103C6000B8F39923C9F3B6F39F57550B87FF0E940A
:103C7000851E0024A0E640EA90018058569597954D
:103C800028F4805C660F771F881F20F026173707FF
:103C9000480730F4621B730B840B202931294A2B0F
:103CA000A69517940794202531254A2758F7660FC3
:103CB000771F881F20F026173707480730F4620B5C
:103CC000730B840B200D311D411DA09581F7B901A7
:103CD000842F9158880F9695879508959B01AC0184
:103CE0000C94B31D0E94B71C880B990B08959F3F3D
:103CF00031F0915020F4879577956795B795880FA7
:103D0000911D9695879597F9089591505040660FAB
:103D1000771F881FD2F70895DB018F939F930E942E
:103D2000721ABF91AF91A29F800D911DA39F900D1C
:103D3000B29F900D11240895991B79E004C0991F3A
:103D4000961708F0961B881F7A95C9F780950895F5
:103D500097FB072E16F4009407D077FD09D00E9438
:103D60008D2007FC05D03EF4909581959F4F0895D6
:103D7000709561957F4F0895EE0FFF1F0590F491A8
:103D8000E02D0994DF93CF931F930F939A9DF02D0D
:103D9000219FF00D8B9DF00D8A9DE02DF10D039F6D
:103DA000F00D029FE00DF11D4E9DE00DF11D5E9D99
:103DB000F00D4F9DF00D7F936F93BF92AF925F9385
:103DC0004F93D5010E949F1A8B01AC01D7010E942D
:103DD0009F1AEB01E80FF91FD6010E94121F2F91C5
:103DE0003F91D6010E949F1AC60FD71FE81FF91FE7
:103DF000AF91BF910E94121F2F913F910E949F1A75
:103E0000C60FD71FE81FF91FD6010E949F1AE60FA1
:103E1000F71F9801BE01CF0111240F911F91CF917F
:103E2000DF9108950E949F1A460F571FC81FD91F80
:103E300008F43196089597FB57FF0C942B1F9F931E
:103E40008F930E942B1F6E1B7F0BAF91BF918A0B2C
:103E50009B0B0895E894DF93CF93FC01DB010E9454
:103E60009F1A7F936F93E9019A01AC01BF93AF93BF
:103E70003F932F93DF010E949F1A26F46C1B7D0B4A
:103E8000820B930B9E01EB01FC010E94121FAF916C
:103E9000BF912F913F910E94121FBE01CF01F901E6
:103EA0002F913F91CF91DF910895689401C0E894DC
:103EB000F92FF12B12F00C94891FA0E0B0E0E3E69B
:103EC000FFE10C94FB1F092E059422F40E94E51FCC
:103ED000112392F4F0E80F26FFEFE094F0940095A0
:103EE0001095B094C094D094A194BF0ACF0ADF0A71
:103EF000EF0AFF0A0F0B1F0B0E94941F07FC0E9482
:103F0000E51FCDB7DEB7ECE00C941720689401C034
:103F1000E8948F929F92CF93DF930E94941FDF913A
:103F2000CF919F908F90089588249924F401E40103
:103F3000B0E49F93AA279A158B049C04ED05FE0517
:103F4000CF05D007A10798F4AD2FDC2FCF2FFE2F80
:103F5000E92D982C892E982F872F762F652F542F97
:103F6000432F322F2227B85031F7BF9127C01B2E85
:103F7000BF91BB27220F331F441F551F661F771F9A
:103F8000881F991F881C991CEE1FFF1FCC1FDD1F67
:103F9000AA1FBB1F8A149B04EC05FD05CE05DF0597
:103FA000A007B10748F08A189B08EC09FD09CE0963
:103FB000DF09A00BB10B21601A94E1F62EF49401F5
:103FC000AF01BE01CD01000C0895609570958095FC
:103FD000909530954095509521953F4F4F4F5F4FAD
:103FE0006F4F7F4F8F4F9F4F08952F923F924F9269
:103FF0005F926F927F928F929F92AF92BF92CF9279
:10400000DF92EF92FF920F931F93CF93DF93CDB781
:10401000DEB7CA1BDB0B0FB6F894DEBF0FBECDBFF9
:1040200009942A88398848885F846E847D848C84CA
:104030009B84AA84B984C884DF80EE80FD800C81D3
:104040001B81AA81B981CE0FD11D0FB6F894DEBFB6
:104050000FBECDBFED0108950F93083090F0982F5B
:10406000872F762F652F542F432F322F222708506A
:10407000F4CF220F331F441F551F661F771F881F61
:10408000991F0A95B2F70F91089597FB10F81694AF
:1040900000080F93083098F00850232F342F452F35
:1040A000562F672F782F892F902DF4CF0594979551
:1040B00087957795679557954795379527950A95ED
:1040C000AAF70F9108952A0D3B1D4C1D5D1D6E1D15
:1040D0007F1D801F911F08950024A7FD00942A0FC3
:1040E000301D401D501D601D701D801D901D0895C8
:1040F0002A193B094C095D096E097F09800B910B58
:1041000008950024A7FD00942A17300540055005A6
:1041100060057005800590050895AA1BBB1B51E141
:1041200007C0AA1FBB1FA617B70710F0A61BB70B27
:10413000881F991F5A95A9F780959095BC01CD01CC
:1041400008950F931F93CF93DF938230910510F45E
:1041500082E090E0E0914604F091470420E030E0F6
:10416000A0E0B0E0309719F14081518102811381C4
:1041700048175907C8F08417950769F4109731F06C
:1041800012960C93129713961C9327C00093460423
:104190001093470422C02115310519F04217530727
:1041A00018F49A01BD01EF01DF01F801DBCF211501
:1041B0003105F9F0281B390B2430310580F48A8150
:1041C0009B816115710521F0FB019383828304C0FB
:1041D0009093470480934604FE01329644C0FE014A
:1041E000E20FF31F81939193225031093983288381
:1041F0003AC02091440430914504232B41F420918E
:10420000020130910301309345042093440420912E
:104210000001309101012115310541F42DB73EB760
:104220004091040150910501241B350BE091440499
:10423000F0914504E217F307A0F42E1B3F0B28175B
:10424000390778F0AC014E5F5F4F2417350748F00F
:104250004E0F5F1F50934504409344048193919304
:1042600002C0E0E0F0E0CF01DF91CF911F910F910C
:104270000895CF93DF93009709F481C0FC01329732
:1042800013821282A0914604B0914704109781F4E2
:1042900020813181820F931F209144043091450485
:1042A0002817390751F5F0934504E093440467C09B
:1042B000ED0120E030E0CE17DF0740F44A815B815A
:1042C0009E0141155105F1F0EA01F5CFD383C28378
:1042D00040815181840F951FC817D90759F48881EF
:1042E0009981840F951F0296918380838A819B8197
:1042F000938382832115310529F4F0934704E093D9
:1043000046043DC0E901FB83EA8349915991C40FFA
:10431000D51FEC17FD0761F480819181840F951FF3
:104320000296E90199838883828193819B838A83A2
:10433000E0E0F0E012968D919C911397009719F0B0
:10434000FD01DC01F7CF8D919C9111979D012E5FAE
:104350003F4F820F931F209144043091450428174A
:10436000390769F4309729F41092470410924604F3
:1043700002C013821282B0934504A0934404DF91DB
:10438000CF91089581E090E0F8940C94C721F894BF
:02439000FFCF5D
:104392000000480480000000003F6666A63F3333F9
:1043A2005340000000006F01DC000601BC01370130
:1043B200150129010000000075024802A5021C0235
:1043C20040022C021D0253746F7070696E672E2EAC
:1043D2002E0009000D0A005374617274696E672E13
:1043E2002E2E006E616E00696E66006F76660000AA
:00000001FF
