:100000000C94B0000C94D8000C94D8000C94D80038
:100010000C94D8000C94D8000C94D8000C94F404E0
:100020000C94D8000C94D8000C94D8000C94C703FE
:100030000C94D8000C94D8000C94D8000C94D800E0
:100040000C94540C0C942E070C9495030C946F0391
:100050000C94D8000C94D8000C94D8000C94D800C0
:100060000C9400060C94D8009307A1079A07A107E7
:10007000B607B607B607B607AD07AA07B007B607B3
:10008000B607B6077A07036EDB363D9A9999993D14
:10009000ABAAAA2A3E000000803F084AD73B3BCECD
:1000A000016E84BCBFFDC12F3D6C74319ABD568377
:1000B0003DDA3D00C77F11BED9E4BB4C3E916BAA2F
:1000C000AABE000000803F072C7AA5BA6CC590DA62
:1000D0003B9365FC8BBC53F810FD3C5692834DBDA1
:1000E000879D3AB63DCBC9BF5BBE73DA0FC93F05EA
:1000F000A84CCDB2D44EB93836A9020C50B991866D
:1001000088083CA6AAAA2ABE000000803F00000082
:1001100000080002010000030407000000000000C6
:10012000000000000000250028002B000000000057
:10013000240027002A000404040404040404020226
:100140000202020203030303030301020408102056
:100150004080010204081020010204081020261823
:1001600011241FBECFEFD8E0DEBFCDBF11E0A0E06D
:10017000B1E0E6E4F0E402C005900D92AA35B107C3
:10018000D9F724E0AAE5B1E001C01D92A535B20778
:10019000E1F710E0C0EBD0E004C02197FE010E941F
:1001A000161DCF3AD107C9F70E949E0C0C9421204E
:1001B0000C940000CF92DF92EF92FF920F931F9367
:1001C000CF93DF936C017A018B01C0E0D0E0CE15B4
:1001D000DF0581F0D8016D918D01D601ED91FC9183
:1001E0000190F081E02DC6010995892B11F021962F
:1001F000EECF7E01C701DF91CF911F910F91FF904C
:10020000EF90DF90CF900895FC01538D448D252F02
:1002100030E0842F90E0821B930B541710F0CF96A0
:10022000089501970895FC01918D828D981761F0D2
:10023000828DDF01A80FB11D5D968C91928D9F5F1D
:100240009F73928F90E008958FEF9FEF0895FC01C8
:10025000918D828D981731F0828DE80FF11D858D7B
:1002600090E008958FEF9FEF0895FC01918D228D0E
:10027000892F90E0805C9F4F821B91098F73992793
:1002800008958FE792E00E94350121E0892B09F45F
:1002900020E0822F0895FC01848DDF01A80FB11D9D
:1002A000A35ABF4F2C91848D90E001968F739927AC
:1002B000848FA689B7892C93A089B1898C9183708A
:1002C00080648C93938D848D981306C00288F38983
:1002D000E02D80818F7D80830895EF92FF920F93B0
:1002E0001F93CF93DF93EC0181E0888F9B8D8C8DE2
:1002F000981305C0E889F989808185FD26C0F62E0E
:100300000B8D10E00F5F1F4F0F731127E02E8C8DA8
:10031000E8120CC00FB607FCFACFE889F989808192
:1003200085FFF5CFCE010E944B01F1CF8B8DFE01F1
:10033000E80FF11DE35AFF4FF0829FB7F8940B8F3F
:10034000EA89FB89808180620AC09FB7F894EE89B0
:10035000FF896083E889F989808183708064808364
:100360009FBF81E090E0DF91CF911F910F91FF90AF
:10037000EF900895CF93DF93EC01888D8823C9F027
:10038000EA89FB89808185FD05C0A889B9898C919E
:1003900086FD0FC00FB607FCF5CF808185FFF2CF39
:1003A000A889B9898C9185FFEDCFCE010E944B01C0
:1003B000E7CFDF91CF91089580E090E0892B29F07D
:1003C0000E94410181110C9400000895FC0190816C
:1003D0009C3088F5818128E830E0281B310987FDB1
:1003E0003395220F331F220F331F6217730784F0D8
:1003F000828148E552E0481B510987FD5395440F1F
:10040000551F440F551F9B01461757070CF49A01BF
:1004100022503109220F331F4FB7F894892F90E0F3
:10042000FC01EE0FFF1F8E0F9F1FFC01E054FE4FDB
:10043000328321834FBF0895CF93DF93EC0128814E
:1004400039818A819B812817390704F58881998130
:100450002A813B81821B930B181619062CF4888184
:1004600099812A813B8104C08A819B8128813981BD
:10047000821B930B2C813D81821793073CF12C81C9
:100480003D8188819981820F931F29C028813981FC
:100490008A819B818217930724F5888199812A811B
:1004A0003B81821B930B181619062CF488819981C5
:1004B0002A813B8104C08A819B8128813981821BEA
:1004C000930B2C813D81821793071CF48A819B81B9
:1004D00006C02C813D8188819981821B930B998371
:1004E000888368817981CE010E960E94E601488159
:1004F00059812A813B8181E04217530709F080E04E
:10050000DF91CF91089585ED8093BC008091BC0070
:1005100084FDFCCF10924F02089540918901262F4F
:1005200030E0240F311D21323105DCF420914F02DF
:100530002430C9F4FC0180E090E0861758F4309133
:1005400089012191DC01A759BE4FA30FB11D2C9346
:100550000196F3CF80918901680F6093890180E053
:10056000089581E0089582E008950895089508951A
:10057000E091E5018091E401E81730F4F0E0E75FF5
:10058000FD4F808190E008958FEF9FEF0895909147
:10059000E5018091E401981750F4E92FF0E0E75F5E
:1005A000FD4F208130E09F5F9093E50102C02FEF67
:1005B0003FEFC90108958091E40190E02091E501A9
:1005C000821B91090895CF92DF92EF92FF920F93D1
:1005D0001F93CF93DF937C01CB018A012091E60129
:1005E000222389F0EB016B01C40ED51ECC15DD056D
:1005F00069F06991D701ED91FC910190F081E02DB6
:10060000C7010995F3CF642F0E948D02C801DF91C5
:10061000CF911F910F91FF90EF90DF90CF900895B1
:10062000CF93DF931F92CDB7DEB769832091E601A8
:100630002223D1F020910802203240F021E030E066
:10064000FC013383228380E090E015C08091E701B4
:10065000E82FF0E0E851FE4F998190838F5F8093FF
:10066000E7018093080205C061E0CE0101960E9477
:100670008D0281E090E00F90DF91CF910895089571
:1006800080E090E008950E941C200F931F93CF9369
:10069000DF938C01C091BC01D091BD01209749F43A
:1006A00084E090E00E94FB1E9093BD018093BC010A
:1006B0000CC08A819B81009711F0EC01FACF84E095
:1006C00090E00E94FB1E9B838A83FC0111830083C0
:1006D00013821282DF91CF911F910F9108951F9283
:1006E0000F920FB60F9211242F933F934F935F9366
:1006F0006F937F938F939F93AF93BF93EF93FF93EA
:100700008FE792E00E944B01FF91EF91BF91AF9173
:100710009F918F917F916F915F914F913F912F9119
:100720000F900FBE0F901F9018951F920F920FB64B
:100730000F9211242F938F939F93EF93FF93E09148
:100740008F02F09190028081E0919502F0919602E3
:1007500082FD12C09081809198028F5F8F732091EB
:100760009902821751F0E0919802F0E0E158FD4FB4
:10077000958F8093980201C08081FF91EF919F91A6
:100780008F912F910F900FBE0F901F9018951F9271
:100790000F920FB60F9211242F933F934F935F93B5
:1007A0006F937F938F939F93AF93BF93EF93FF9339
:1007B0008091BF0187FF05C01092850010928400D0
:1007C0001BC02091BF01022E000C330B8091BE0193
:1007D00090E02817390784F48091BF01082E000C9F
:1007E000990BFC01EE0FFF1F8E0F9F1FFC01E054C1
:1007F000FE4F808186FD15C08091BF018F5F809381
:10080000BF012091BF01022E000C330B8091BE016D
:1008100090E028173907C4F48091BF018C3064F14F
:1008200013C08091BF01082E000C990BFC01EE0F44
:10083000FF1F8E0F9F1FFC01E054FE4F808160E080
:100840008F730E94F908D8CF809184009091850021
:10085000049680349C4918F480E49CE905C080919A
:10086000840090918500049690938900809388007D
:100870008FEF8093BF013BC02091840030918500B1
:100880008091BF01082E000C990BFC01EE0FFF1F99
:100890008E0F9F1FFC01E054FE4F81819281820FD9
:1008A000931F90938900809388008091BF01082E48
:1008B000000C990BFC01EE0FFF1F8E0F9F1FFC0118
:1008C000E054FE4F808186FF12C08091BF01082E48
:1008D000000C990BFC01EE0FFF1F8E0F9F1FFC01F8
:1008E000E054FE4F808161E08F730E94F908FF9110
:1008F000EF91BF91AF919F918F917F916F915F9198
:100900004F913F912F910F900FBE0F901F90189510
:10091000EF92FF920F931F93CF93DF93EC017D87AC
:100920006C87EC84FD848C01025F1F4F8E858C30B8
:1009300008F04FC08E2D0E94DA088E85E82FF0E077
:100940009F01220F331FE20FF31FE054FE4F9E2D35
:100950009F732081207CE22EE92AE0821F86188A7C
:100960006CE00E94F61C9CE0899FB001112440E0DD
:1009700050E09B01240F351FF901EE0FFF1F2E0FD2
:100980003F1FF901E054FE4F908196FD16C04F5F66
:100990005F4F4C30510569F781110FC010928000F4
:1009A00082E0809381001092850010928400B19AB9
:1009B00080916F00826080936F00EE85F0E0CF0140
:1009C000880F991FE80FF91FE054FE4F8081806463
:1009D00080836CED75E0C801DF91CF911F910F917D
:1009E000FF90EF900C94E6011F920F920FB60F92BA
:1009F00011242F933F934F935F936F937F938F9324
:100A00009F93AF93BF93CF93DF93EF93FF93C091E7
:100A1000BC01D091BD012097D1F0E881F981EE0FA2
:100A2000FF1FE255FE4F808191810E941C028111BF
:100A300004C0888199810E9445038A819B8190939B
:100A4000BD018093BC01CE010E94931F04C0809120
:100A5000700010927000FF91EF91DF91CF91BF91E4
:100A6000AF919F918F917F916F915F914F913F9146
:100A70002F910F900FBE0F901F9018958F929F92FD
:100A8000AF92BF92CF92DF92EF92FF920F931F939C
:100A9000CF93DF93CDB7DEB7A1970FB6F894DEBF43
:100AA0000FBECDBF8C01603871053CF461388FEF0B
:100AB00078072CF461E87FEF02C06FE770E0F8017F
:100AC00086819781C084D1840D2C000CEE08FF082C
:100AD000AB01770F660B770B9A01AB0121583F4FA3
:100AE0004F4F5F4F092E000CAA0BBB0BBC01CD0171
:100AF0006C197D098E099F090E94E61C2EEF30E0DB
:100B000040E050E00E94B218C20ED31EE41EF51E53
:100B1000F801D382C28286E391E00E94BA08F8010C
:100B2000C280D3800D2C000CEE08FF08F7FE25C014
:100B30006DE28FE792E00E946D0122273327A90121
:100B40002C193D094E095F0919A2CE0181967C013D
:100B50009AE0892E912CA12CB12CCA01B901A501D2
:100B600094010E94DC18605DF70162937F012115FA
:100B700031054105510589F71AC0A701960119A24F
:100B8000CE0181967C018AE0882E912CA12CB12C7B
:100B9000CA01B901A50194010E94DC18605DF7014A
:100BA00062937F01211531054105510589F7C70180
:100BB0000E94BA088BE491E00E94BA08C8010E9422
:100BC0001C0281110AC0F801828593850E944503A9
:100BD00080917000826080937000A1960FB6F894A7
:100BE000DEBF0FBECDBFDF91CF911F910F91FF9060
:100BF000EF90DF90CF90BF90AF909F908F9008952F
:100C00001F920F920FB60F9211242F933F934F9381
:100C10005F936F937F938F939F93AF93BF93EF9364
:100C2000FF938091B900887F803609F49CC068F5F5
:100C3000883209F45BC090F4803109F454C038F470
:100C4000882309F4F6C0883009F44DC0F6C0883115
:100C500009F44CC0803209F45DC0EFC0803409F45F
:100C600068C048F4803309F455C0883309F0E5C002
:100C700080934D02D8C0803509F44FC0883509F4FF
:100C80005DC0883409F0D9C0D6C0883909F4C7C01E
:100C9000A8F4883709F467C038F4883609F463C0CB
:100CA000803709F460C0C9C0883809F4B8C08039F9
:100CB00009F45FC0803809F0C0C05BC0803B09F414
:100CC00086C038F4803A09F466C0883A09F47FC0D7
:100CD000B4C0803C09F4A7C0883C09F4A4C0883B98
:100CE00009F48AC0AAC080914A0210C090914C02B7
:100CF00080914B02981770F5E0914C0281E08E0FC5
:100D000080934C02F0E0E75DFD4F80818093BB0053
:100D100085EC86C080934D028EC0E0914C0281E04C
:100D20008E0F80934C028091BB00F0E0E75DFD4F99
:100D3000808390914C0280914B026EC0E0914C02F6
:100D400081E08E0F80934C028091BB00F0E0E75D64
:100D5000FD4F808380914E0281116DC081E08093B0
:100D6000490284EA61C083E080934F021092AB0194
:100D7000CFCF8091AB01803208F051C0E091AB0140
:100D800081E08E0F8093AB018091BB00F0E0E557CE
:100D9000FE4F8083BDCF85EC8093BC0010924F0244
:100DA0008091AB01803230F4E091AB01F0E0E55787
:100DB000FE4F10826091AB0170E0E0915A01F0911A
:100DC0005B018BE891E009951092AB0136C084E09D
:100DD00080934F0210928A0110928901E0915C0188
:100DE000F0915D01099580918901811105C081E033
:100DF0008093890110926901E0918A0181E08E0F50
:100E000080938A01F0E0E759FE4F80818093BB0018
:100E100090918A0180918901981708F479CF85E82B
:100E20008093BC000AC085EC8093BC0010924F02F6
:100E300004C010924D020E948302FF91EF91BF9176
:100E4000AF919F918F917F916F915F914F913F9162
:100E50002F910F900FBE0F901F9018951F920F9219
:100E60000FB60F9211242F933F934F935F936F937D
:100E70007F938F939F93AF93BF93EF93FF938EB521
:100E80008093680180915E0190915F01FC01EE0FFB
:100E9000FF1F8E0F9F1FFC01E75CFB4F82818EBD01
:100EA00080915E0190915F01019690935F01809324
:100EB0005E01049724F010925F0110925E01809110
:100EC0006801811104C081E08093670185C0809131
:100ED0006701882309F451C0E09168018E2F90E0EA
:100EE000FC013497EF30F10508F040C0EC5CFF4F97
:100EF0000C94161D80912B03882369F08AE291E0FF
:100F00000E94CC08109228031092290310922A0301
:100F100010922B032BC08EE491E00E94CC0881E05C
:100F200080932B0323C081E090E090932F03809364
:100F30002E031CC081E090E090932D0380932C033E
:100F400015C010922D0310922C0310922F031092B3
:100F50002E030CC083E090E005C082E090E002C068
:100F600081E090E090933103809330031092670109
:100F700010926601109265012FC0809165019091D9
:100F800066018130910559F08230910571F0892B0D
:100F900089F4809168018F57809328030BC080915A
:100FA00068018F578093290305C0809168018F578E
:100FB00080932A0380916501909166010196909338
:100FC000660180936501039724F0109266011092E8
:100FD000650181E080936001FF91EF91BF91AF9136
:100FE0009F918F917F916F915F914F913F912F9141
:100FF0000F900FBE0F901F90189590914F02911176
:10100000FCCF91E090934F0240934E022FEF20933C
:101010004D0210924C02260F20934B0290934A02ED
:1010200090914A02880F892B80934A02809149024D
:10103000813061F41092490280914A028093BB0092
:101040008091BC0083FDF8CF85EC01C085EE8093D4
:10105000BC0080914F028130E1F380914C028617F1
:1010600010F460914C02A9E2B2E0E9E0F2E080E025
:10107000861721F09D9191938F5FFACF0895282FC5
:1010800030910802313208F04AC080914F0281113C
:10109000FCCF9091500442E040934F0220934E02C7
:1010A0002FEF20934D0210924C0230934B02E8EE4A
:1010B000F1E0A9E2B2E020E0321721F041914D9336
:1010C0002F5FFACF10924A0220914A02990F922B79
:1010D00090934A0290914902913061F41092490232
:1010E00090914A029093BB009091BC0093FDF8CF81
:1010F00095EC01C095EE9093BC0090914F02923018
:10110000E1F390914D029F3F79F080914D02803242
:1011100041F080914D02803331F084E005C081E0E0
:1011200003C082E001C083E01092E7011092080240
:101130001092E601089591E09093E60180935004A7
:101140001092E701109208020895682F8CE193E055
:101150000C941003813208F080E241E0682F86E7AA
:101160000E94FD071092E5018093E401089581E05B
:101170000C943F08009769F0FC0101900020E9F70A
:101180003197AF01481B590BBC018FE792E00C94DB
:10119000DA0080E090E00895CF93DF930E94BA08D0
:1011A000EC018BE491E00E94BA088C0F9D1FDF9147
:1011B000CF91089590E0FC01E65BFE4F2491FC0185
:1011C000EA5CFE4F8491882399F090E0880F991F84
:1011D000FC01E45DFE4FA591B491FC01EE5DFE4F74
:1011E000859194918FB7F894EC91E22BEC938FBF9B
:1011F000089590E0FC01E25FFE4F2491FC01E65B64
:10120000FE4F3491FC01EA5CFE4FE491EE2309F4B9
:101210003CC0222339F1233091F038F42130A9F079
:10122000223001F584B58F7D12C0273091F028302F
:10123000A1F02430B9F4809180008F7D03C08091AB
:1012400080008F77809380000DC084B58F7784BD38
:1012500009C08091B0008F7703C08091B0008F7D6E
:101260008093B000F0E0EE0FFF1FEE5DFE4FA59102
:10127000B4919FB7F894611104C08C9130953823D4
:1012800002C0EC913E2B3C939FBF08953FB7F8946A
:1012900080914C0490914D04A0914E04B0914F0464
:1012A00026B5A89B05C02F3F19F00196A11DB11DC1
:1012B0003FBFBA2FA92F982F8827820F911DA11DFC
:1012C000B11DBC01CD0142E0660F771F881F991F39
:1012D0004A95D1F708954F925F926F927F928F92C5
:1012E0009F92AF92BF92CF92DF92EF92FF92CF93F5
:1012F000DF93CDB7DEB7A4970FB6F894DEBF0FBE6D
:10130000CDBF0E944609C0907A02D0907B02E09047
:101310007C02F0907D026C197D098E099F090E9464
:10132000B91A20E030E048EC52E40E94111A6B0137
:101330007C010E94460960937A0270937B0280933D
:101340007C0290937D028091640290916502A0914D
:101350006602B0916702BC01CD019058A7019601C9
:101360000E94121C2B013C0180916802909169023D
:10137000A0916A02B0916B02BC01CD019058A70107
:1013800096010E94121C4B015C0120916C0230916D
:101390006D0240916E0250916F02C701B6010E942A
:1013A000121C6B017C01C301B2010E940C1A6D83F7
:1013B0007E838F839887C501B4010E940C1A6987C8
:1013C0007A878B879C87C701B6010E940C1A6D87AC
:1013D0007E878F87988B8091540290915502A091BF
:1013E0005602B0915702898B9A8BAB8BBC8BBC0198
:1013F000CD010E940C1A6D8B7E8B8F8B988F809104
:10140000500290915102A0915202B0915302898FE3
:101410009A8FAB8FBC8FBC01CD010E940C1A6983DF
:101420007A838B839C83C301B2010E947F1C6D8FE2
:101430007E8F8F8F98A3C501B4010E947F1C69A382
:101440007AA38BA39CA3C701B6010E947F1C2B012A
:101450003C0169897A898B899C890E947F1C698BF0
:101460007A8B8B8B9C8B698D7A8D8B8D9C8D0E945A
:101470007F1C6B017C0129813A814B815C816D85E8
:101480007E858F8598890E94121C29893A894B890B
:101490005C890E94121C4B015C01A7019601C301EB
:1014A000B2010E94121C9B01AC01C501B4010E9453
:1014B0000E194B015C01A70196016D857E858F8514
:1014C00098890E94121C6B017C01A3019201698121
:1014D0007A818B819C810E94121C29893A894B89CF
:1014E0005C890E94121C9B01AC01C701B6010E94DD
:1014F0000D196D877E878F87988B9B01AC0169A141
:101500007AA18BA19CA10E94121C6B017C012981F4
:101510003A814B815C8169857A858B859C850E94A7
:10152000121C2D893E894F89588D0E94121C9B01E7
:10153000AC01C701B6010E940D192B013C016D8D54
:101540007E8D8F8D98A19058A50194010E94121C48
:101550006B017C01A30192016D817E818F81988551
:101560000E94121C9B01AC01C701B6010E940D191B
:101570006B017C01A50194016D817E818F8198852D
:101580000E94121C4B015C01A30192016D8D7E8DA6
:101590008F8D98A10E94121C9B01AC01C501B40162
:1015A0000E940D194B015C01A70196010E94A81928
:1015B0006D837E838F839887609354027093550266
:1015C0008093560290935702A5019401C501B4017E
:1015D0000E94121C4B015C01A7019601C701B601D4
:1015E0000E94121C9B01AC01C501B4010E940E199E
:1015F0000E948D1C6B017C0129813A814B815C81A9
:101600006D897E898F89988D0E94121C29A13AA12B
:101610004BA15CA10E94121C4B015C012D853E85F3
:101620004F85588969857A858B859C850E94121C17
:101630009B01AC01C501B4010E940E19A7019601DE
:101640000E94A81969877A878B879C8760935002CC
:1016500070935102809352029093530280915802EA
:1016600090915902A0915A02B0915B0289839A83AA
:10167000AB83BC8320E030E0A901BC01CD010E9416
:10168000051C181634F069817A818B819C819058F1
:1016900004C069817A818B819C819B01AC010E948D
:1016A000121C6B017C0180905C0290905D02A09006
:1016B0005E02B0905F0220E030E0A901C501B401F4
:1016C0000E94051C181624F0C501B401905802C0F0
:1016D000C501B4019B01AC010E94121CA701960137
:1016E0000E940E196B017C014090600250906102D3
:1016F000609062027090630220E030E0A901C301B3
:10170000B2010E94051C181624F0C301B2019058C2
:1017100002C0C301B2019B01AC010E94121CA701CF
:1017200096010E940E190E948D1C6B017C0126E619
:1017300036E646E65FE30E94051C18160CF065C00D
:101740002DEC3CEC4CE85FE3C701B6010E94071AA0
:1017500087FF5BC0A30192015058C501B4010E94EC
:10176000A8192B013C0169817A818B819C81905859
:10177000A70196015F770E94111A0E947A196B01E6
:101780007C0126E636E646E65FE36D817E818F8149
:1017900098850E94121C4B015C012DEC3CEC4CEC3A
:1017A0005DE3C301B2010E94121C9B01AC01C501A3
:1017B000B4010E940E1960935402709355028093F5
:1017C00056029093570226E636E646E65FE36985C1
:1017D0007A858B859C850E94121C4B015C012DEC47
:1017E0003CEC4CEC5DE3C701B6010E94121C9B016E
:1017F000AC01C501B4010E940E19609350027093B0
:1018000051028093520290935302A4960FB6F8941B
:10181000DEBF0FBECDBFDF91CF91FF90EF90DF9085
:10182000CF90BF90AF909F908F907F906F905F9080
:101830004F9008958F929F92AF92BF92CF92DF9276
:10184000EF92FF926B017C010E9446094B015C0103
:10185000C114D104E104F104F1F00E944609DC0155
:10186000CB0188199909AA09BB09883E9340A105B3
:10187000B10570F321E0C21AD108E108F10888EE41
:10188000880E83E0981EA11CB11CC114D104E10490
:10189000F10419F7DDCFFF90EF90DF90CF90BF906C
:1018A000AF909F908F9008951F920F920FB60F9256
:1018B00011242F933F938F939F93AF93BF93809166
:1018C000480490914904A0914A04B0914B0430918E
:1018D000470423E0230F2D3720F40196A11DB11DED
:1018E00005C026E8230F0296A11DB11D20934704D1
:1018F0008093480490934904A0934A04B0934B0406
:1019000080914C0490914D04A0914E04B0914F04ED
:101910000196A11DB11D80934C0490934D04A0939A
:101920004E04B0934F04BF91AF919F918F913F911F
:101930002F910F900FBE0F901F901895CF93DF93AC
:10194000CDB7DEB7C958D1090FB6F894DEBF0FBEC8
:10195000CDBF789484B5826084BD84B5816084BD38
:1019600085B5826085BD85B5816085BD80916E003D
:10197000816080936E00109281008091810082606E
:1019800080938100809181008160809381008091AB
:1019900080008160809380008091B100846080939A
:1019A000B1008091B00081608093B00080917A0096
:1019B000846080937A0080917A00826080937A00BC
:1019C00080917A00816080937A0080917A008068AB
:1019D00080937A001092C100E0918F02F091900202
:1019E00082E08083E0918B02F0918C021082E09182
:1019F0008D02F0918E028FEC808310929702E0911D
:101A00009302F091940286E08083E0919102F0913C
:101A10009202808180618083E0919102F091920234
:101A2000808188608083E0919102F09192028081B0
:101A300080688083E0919102F091920280818F7D95
:101A4000808320E030E0809145049091460484300A
:101A5000910590F4AC014F5F5F4F50934604409363
:101A60004504FC01EE0FFF1F8E0F9F1FFC01E75C7A
:101A7000FB4F3183208312822F5F3F4F243031058B
:101A800011F710925F0110925E011092E501109221
:101A9000E4011092E7011092080210924F0281E0D7
:101AA00080934E021092490261E082E10E94F9089F
:101AB00061E083E10E94F9088091B9008E7F8093F4
:101AC000B9008091B9008D7F8093B90088E480933C
:101AD000B80085E48093BC0085EB92E090935D01B3
:101AE00080935C0186EB92E090935B0180935A01B6
:101AF00088E60E949B088BE690E00E94A50880E0A3
:101B000090E00E94A50881E00E943F0868EE73E023
:101B100080E090E00E941A0C1092340480E090E47F
:101B2000A9E7B4E48093350490933604A093370476
:101B3000B093380486E70E949B088EE190E00E94F3
:101B4000A5080E94B7086AE070E080E090E00E947B
:101B50001A0C54E1E52E54E0F52E00EA10E086E779
:101B60000E949B08C8010E94A5080E94B70841E096
:101B700062E086E70E94FD071092E5018093E40190
:101B80008CE193E00E94C702B82E8CE193E00E94A2
:101B9000C702DB2CC12C8C299D29D7018D939D93E5
:101BA0007D010E5F1F4F0E3A1105C9F68091140496
:101BB000909115049F7090931504809314041092D3
:101BC00023041092220468EE73E080E090E00E940B
:101BD0001A0C87E2E2E1F4E0DE01D09601900D926A
:101BE0008A95E1F78FE2E0E5F2E0DE0111960190DF
:101BF0000D928A95E1F768E070E084E893E00E9436
:101C0000880467E070E085E993E00E94880464E05E
:101C100070E086EA93E00E94880465E070E081E568
:101C200093E00E94880466E070E080E493E00E9404
:101C3000880463E070E083E793E00E94880462E038
:101C400070E082E693E00E9488048AE291E00E94BC
:101C5000CC08109228031092290310922A031092A4
:101C60002B0387E2FE01F096A7EBB3E001900D9203
:101C70008A95E1F78FE2FE013196A3EEB3E0019081
:101C80000D928A95E1F71092DE036091D503709171
:101C9000D6038091D7039091D8030E94BB1A60931A
:101CA000DF037093E0038093E1039093E20368EB1A
:101CB0007BE080E090E00E941A0CF8948CE00E9497
:101CC000DA088CB580648CBD8FEF8EBD8CB58068D2
:101CD0008CBD78940E9446090091610110916201C7
:101CE0002091630130916401DC01CB01801B910BD9
:101CF000A20BB30B81329E44A105B10560F00E9496
:101D0000460960936101709362018093630190932F
:101D1000640181E001C080E020911204309113043D
:101D2000232BA9F4882399F086E70E949B088AE474
:101D300090E00E94A5080E94B7088091120490913B
:101D400013040196909313048093120480E0209171
:101D50001204309113042130310509F06BC088233F
:101D600009F468C086E70E949B0880E090E00E942A
:101D7000A5080E94B70883E090E00E94AA0810928C
:101D800024041092250410922604109227048CE15A
:101D900093E00E94C7024C01990FAA08BB088092E9
:101DA000240490922504A0922604B09227048CE18A
:101DB00093E00E94C702BA2CA92C982C88246C01AD
:101DC000990FEE08FF08C828D928EA28FB28C092F6
:101DD0002404D0922504E0922604F09227048CE19A
:101DE00093E00E94C702FE2CED2CDC2CCC24092EA3
:101DF000000CAA0BBB0BC82AD92AEA2AFB2AC092DC
:101E00002404D0922504E0922604F092270486E769
:101E10000E949B088AE590E00E94A5080E94B708EE
:101E2000809112049091130401969093130480936F
:101E3000120480E020911204309113042230310505
:101E400009F039C5882309F436C586E70E949B0846
:101E500080E090E00E94A5080E94B70883E090E02F
:101E60000E94AA08109228041092290410922A04B1
:101E700010922B048CE193E00E94C7024C01990F51
:101E8000AA08BB088092280490922904A0922A04F0
:101E9000B0922B048CE193E00E94C702BA2CA92CCB
:101EA000982C88246C01990FEE08FF08C828D928BF
:101EB000EA28FB28C0922804D0922904E0922A0440
:101EC000F0922B048CE193E00E94C702FE2CED2CD3
:101ED000DC2CCC24092E000CAA0BBB0BC82AD92A57
:101EE000EA2AFB2AC0922804D0922904E0922A040C
:101EF000F0922B0480911E0490911F04A0E0B0E0AA
:101F0000BA2FA92F982F882797018601081B190B34
:101F10002A0B3B0B6B960CAF1DAF2EAF3FAF6B97F1
:101F200010913404EC961FAFEC97E0911A04F091F5
:101F30001B04E0901604F0901704209124043091C3
:101F400025044091260450912704EB962CAF3DAF19
:101F50004EAF5FAFEB97113009F09FC0970140E0A3
:101F600050E060E070E080E090E000E10E94861EBA
:101F700019012A013B014C01BF0180E090E06B9602
:101F80002CAD3DAD4EAD5FAD6B970E94751DF22E31
:101F9000032F142FB52FF62FE72FD82EE92EA0E010
:101FA0000E94DB1E5CF4AFE70E94C61EF22E032FD8
:101FB000142FB52FF62FE72FD82EE92E2F2D302FE7
:101FC000412F5B2F6F2F7E2F8D2D9E2D07E00E94BE
:101FD0009F1E59016A017B018C019101A201B3018D
:101FE000C4010E94BD1EAC962FAFAC97AD963FAF1B
:101FF000AD97AE964FAFAE97AF965FAFAF97E09607
:102000006FAFE097E1967FAFE197E2968FAFE297EF
:10201000E3969FAFE397E0911C04F0911D0480903C
:10202000180490901904940140E050E060E070E0E2
:1020300080E090E001E10E94861E19012A013B0127
:102040004C01BF0180E090E06B962CAD3DAD4EADF4
:102050005FAD6B970E94751DF22E032F142FB52FC5
:10206000F62FE72FD82EE92EA0E00E94DB1E5CF4AD
:10207000AFE30E94C61EF22E032F142FB52FF62FAA
:10208000E72FD82EE92E2F2D302F412F5B2F6F2FCA
:102090007E2F8D2D9E2D06E0A8C0BF0180E090E030
:1020A0006B962CAD3DAD4EAD5FAD6B970E94751D2F
:1020B000D22E032F142FB52FF62FE72FB82EC92EAF
:1020C000A0E00E94DB1E84F421503F4F4F4F5F4F32
:1020D0006F4F7F4F8F4F9F4FD22E032F142FB52F4F
:1020E000F62FE72FB82EC92E2D2D302F412F5B2F25
:1020F0006F2F7E2F8B2D9C2D08E00E949F1E390193
:102100004A01B62FA72FF82FE92FC12CD12C970108
:10211000A60160E070E080E090E00FE00E94861E83
:1021200059016A017B018C019301A4016B2F7A2F65
:102130008F2F9E2F0E94BD1EAC962FAFAC97AD96F1
:102140003FAFAD97AE964FAFAE97AF965FAFAF973D
:10215000E0966FAFE097E1967FAFE197E2968FAFA1
:10216000E297E3969FAFE397E0911C04F0911D0482
:102170008090180490901904940140E050E060E0D1
:1021800070E080E090E000E10E94861E19012A01C3
:102190003B014C01BF0180E090E06B962CAD3DAD62
:1021A0004EAD5FAD6B970E94751DF22E032F142F5D
:1021B000B52FF62FE72FD82EE92EA0E00E94DB1EC8
:1021C0005CF4AFE70E94C61EF22E032F142FB52F2A
:1021D000F62FE72FD82EE92E2F2D302F412F5B2FF2
:1021E0006F2F7E2F8D2D9E2D07E00E949F1E59017F
:1021F0006A017B018C019101A201B301C4010E941B
:10220000BD1EA8962FAFA897A9963FAFA997AA96EB
:102210004FAFAA97AB965FAFAB97E4966FAFE497DB
:10222000E5967FAFE597E6968FAFE697E7969FAF87
:10223000E7976B964CAC5DAC6EAC7FAC6B97770C54
:102240004408542C3201609120047091210480E0F4
:1022500090E06B962CAD3DAD4EAD5FAD6B970E949F
:10226000751DF22E032F142FB52FF62FE72FD82E22
:10227000E92EA0E00E94DB1E84F421503109404881
:102280005F4F6F4F7F4F8F4F9F4FF22E032F142FB3
:10229000B52FF62FE72FD82EE92E2F2D302F412FD7
:1022A0005B2F6F2F7E2F8D2D9E2D07E10E949F1E8D
:1022B00049015A01950184010053184F2F4F3F4F98
:1022C000A7960CAF1DAF2EAF3FAFA797EC961FADF3
:1022D000EC97113009F094C0A7962CAD3DAD4EADF2
:1022E0005FADA797203D3740410551050CF066C111
:1022F0006B966CAD7DAD8EAD9FAD6B972BE030E0F6
:1023000040E050E00E94751D6896AFAC68976996F2
:10231000BFAC69976A96CFAC6A976B96DFAC6B9748
:10232000E42CF42C042D142D0E941C1DF22E032FDE
:10233000142FB52FF62FE72FD82EE92EA0E00E94FC
:10234000DB1E84F42150310941095109684F7F4F48
:102350008F4F9F4FF22E032F142FB52FF62FE72FFD
:10236000D82EE92E2F2D302F412F5B2F6F2F7E2F50
:102370008D2D9E2D03E20E949F1E68962FAF6897B9
:1023800069963FAF69976A964FAF6A976B965FAF52
:102390006B97AFE1B0E0A7968CAC9DACAEACBFAC98
:1023A000A79770ED871A77E0970AA108B108A501F1
:1023B00094010E94D1189B01AC01C501B4010E9497
:1023C000E61C7B018C01F3E015950795F794E794E3
:1023D000FA95D1F7AFE3B0E0A50194010E94D118BE
:1023E0009B01AC01C501B4010E94E61C2B013C011C
:1023F000A5E07594679457944794AA95D1F7EAC0DD
:10240000A7968CAD9DADAEADBFADA797803D974073
:10241000A105B1050CF0BCC06B966CAD7DAD8EAD69
:102420009FAD6B9723E030E040E050E00E94751DC7
:102430006896AFAC68976996BFAC69976A96CFAC5F
:102440006A976B96DFAC6B97E42CF42C042D142D5B
:102450000E941C1DF22E032F142FB52FF62FE72FED
:10246000D82EE92EA0E00E94DB1E84F42150310911
:10247000410951096E4F7F4F8F4F9F4FF22E032F0F
:10248000142FB52FF62FE72FD82EE92E2F2D302F12
:10249000412F5B2F6F2F7E2F8D2D9E2D01E20E94ED
:1024A0009F1E68962FAF689769963FAF69976A96A7
:1024B0004FAF6A976B965FAF6B97A3E0B0E0A796BC
:1024C0008CAC9DACAEACBFACA797F0ED8F1AF7E02B
:1024D0009F0AA108B108A50194010E94D1189B018F
:1024E000AC01C501B4010E94E61C7B018C0115956D
:1024F0000795F794E794A5E0B0E0A50194010E9448
:10250000D1189B01AC01C501B4010E94E61C2B014E
:102510003C01E3E07594679457944794EA95D1F7AA
:10252000A7962CAD3DAD4EAD5FADA797213C69EFB1
:1025300036076FEF460756070CF04CC0A7E0B0E037
:1025400049015A017CED870E75E0971EA11CB11C54
:10255000A50194010E94D1189B01AC01C501B401F1
:102560000E94E61CE60EF71E081F191FA501940124
:1025700062E0220F331F441F551F6A95D1F7C50132
:10258000B4010E94E61C460E571E681E791E22C02A
:10259000A5019401C501B4010E94E61C7B018C01D8
:1025A00044E015950795F794E7944A95D1F76B9613
:1025B0001CAE1DAE1EAE1FAE6B9709C06B961CAE57
:1025C0001DAE1EAE1FAE6B97E12CF12C8701412C86
:1025D000512C3201D801C701BB0F880B982FDC01A9
:1025E000A3968CAF9DAFAEAFBFAFA397A8962FAD0C
:1025F000A897A9963FADA997AA964FADAA97AB9673
:102600005FADAB97E4966FADE497E5967FADE59748
:10261000E6968FADE697E7969FADE797570168017D
:10262000A096EFACA097FE2C0E2D1E2D0E94D21E60
:10263000922E832E342E252EA8966FAFA897A9969A
:102640007FAFA997AA968FAFAA97AB969FAFAB978C
:1026500083017201110FEE08FE2C8701A396ECAEE8
:10266000FDAE0EAF1FAFA397AC962FADAC97AD9656
:102670003FADAD97AE964FADAE97AF965FADAF970E
:10268000E0966FADE097E1967FADE197E2968FAD72
:10269000E297E3969FADE39752016301A096EFACFA
:1026A000A097FE2C0E2D1E2D0E94D21E59016A01EC
:1026B0007B018C01A7968CAD9DADAEADBFADA7974C
:1026C0006B962CAD3DAD4EAD5FAD6B97821B930B02
:1026D000A40BB50BEC963FADEC9780932C04909334
:1026E0002D04A0932E04B0932F04313009F069C05B
:1026F000EB966CAD7DAD8EAD9FADEB97AB01BC01A4
:1027000080E090E0DC0168964FAF689769965FAF14
:1027100069976A966FAF6A976B967FAF6B976C9667
:102720008FAF6C976D969FAF6D976E96AFAF6E97AC
:102730006F96BFAF6F979A01AB0160E070E080E0E9
:1027400090E00E941C1DF22E032F142FB52FF62FA0
:10275000E72FD82EE92EA0E00E94DB1E84F4215042
:102760003109404E5F4F6F4F7F4F8F4F9F4FF22E7B
:10277000032F142FB52FF62FE72FD82EE92E2F2D4C
:10278000302F412F5B2F6F2F7E2F8D2D9E2D05E13A
:102790000E949F1EA92CB82CC32CD22CA896EFAC5B
:1027A000A897A996FFACA997AA960FADAA97AB9642
:1027B0001FADAB970E94D21EA12CB12CF2E3CF2EFD
:1027C00067C0EB964CAD5DAD6EAD7FADEB979A01FA
:1027D000AB0160E070E0CB0168962FAF6897699617
:1027E0003FAF69976A964FAF6A976B965FAF6B97EB
:1027F0006C966FAF6C976D967FAF6D976E968FAF3F
:102800006E976F969FAF6F9760E070E080E090E00A
:102810000E941C1DF22E032F142FB52FF62FE72F29
:10282000D82EE92EA0E00E94DB1E84F4215031094D
:10283000404E5F4F6F4F7F4F8F4F9F4FF22E032FB2
:10284000142FB52FF62FE72FD82EE92E2F2D302F4E
:10285000412F5B2F6F2F7E2F8D2D9E2D05E10E9426
:102860009F1EA92CB82CC32CD22CA896EFACA897ED
:10287000A996FFACA997AA960FADAA97AB961FADE4
:10288000AB970E94D21EA12CE0E4BE2ECC24C394B0
:10289000D12CE12CF12C00E010E00E94B11D20931E
:1028A0003004309331044093320450933304109237
:1028B00013041092120488E60E949B088BE390E0B8
:1028C0000E94A50880E00E943F0841E06EE088E693
:1028D0000E94FD071092E5018093E4010E944609E1
:1028E000409178025091790220917A0230917B02D6
:1028F000DA01A21BB30B9D01260F371F309379021B
:102900002093780260937A0270937B0280937C021A
:1029100090937D028CE193E00E94C702182F8CE116
:1029200093E00E94C702EE961FAFEE97ED961FAEA2
:10293000ED97EE96EEADFFADEE978E2B9F2BBC0183
:10294000990F880B990B0E94BB1A609358027093E1
:10295000590280935A0290935B028CE193E00E94AB
:10296000C702182F8CE193E00E94C702C158DF4FC5
:102970001883CF57D040EF961FAEEF97C258DF4F66
:10298000E880F980CE57D0408E299F29BC01990F4D
:10299000880B990B0E94BB1A60935C0270935D02D6
:1029A00080935E0290935F028CE193E00E94C702E5
:1029B000182F8CE193E00E94C702CF57DF4F188396
:1029C000C158D040C058DF4F1882C058D040C058BE
:1029D000DF4F08811981C058D040802B912BBC015A
:1029E000990F880B990B0E94BB1A60936002709339
:1029F000610280936202909363028CE193E00E94F3
:102A0000C702182F8CE193E00E94C702CD57DF4F19
:102A10001883C358D040CE57DF4F1882C258D040D9
:102A2000CE57DF4F28813981C258D040822B932B5B
:102A3000BC01990F880B990B0E94BB1A609370021E
:102A40007093710280937202909373028CE193E011
:102A50000E94C702182F8CE193E00E94C702CB5757
:102A6000DF4F1883C558D040CC57DF4F1882C45869
:102A7000D040CC57DF4F48815981C458D040842B77
:102A8000952BBC01990F880B990B0E94BB1A609380
:102A900064027093650280936602909367028CE1F2
:102AA00093E00E94C702182F8CE193E00E94C702B6
:102AB000C957DF4F1883C758D040CA57DF4F188215
:102AC000C658D040CA57DF4F68817981C658D04078
:102AD000862B972BBC01990F880B990B0E94BB1A70
:102AE000609368027093690280936A0290936B020C
:102AF0008CE193E00E94C702F82E8CE193E00E94E3
:102B0000C7028C0120E030E04AEA53E46091700291
:102B10007091710280917202909173020E94111A59
:102B200028EB3EE142E152E40E940E1960937002EC
:102B30007093710280937202909373022DEC3CE2C9
:102B400048E854E4609158027091590280915A0209
:102B500090915B020E940D1920E038E640E856E4AF
:102B60000E94111A609358027093590280935A027E
:102B700090935B0223E333E348EF53E460915C02FC
:102B800070915D0280915E0290915F020E940E1929
:102B900020E034E94FE756E40E94111A60935C028A
:102BA00070935D0280935E0290935F022AE939E997
:102BB0004EEA54E460916002709161028091620279
:102BC000909163020E940E1923E335E443E856E432
:102BD0000E94111A609360027093610280936202F6
:102BE000909363022CEE31E14FE153E46091640273
:102BF0007091650280916602909167020E940E19A1
:102C000020E030E041EE54E40E94111A6093640227
:102C10007093650280936602909367022DEC3CEC02
:102C200047EE52E4609168027091690280916A02F5
:102C300090916B020E940D1920E030E048EC54E4C2
:102C40000E94111A609368027093690280936A026D
:102C500090936B02C757DF4FF882C958D040C857CE
:102C6000DF4F1882C858D040C857DF4F688179813C
:102C7000C858D040602B712B072E000C880B990B85
:102C80000E94BB1A24EA30E74DE053E40E940E197B
:102C900020E030E048EC54E40E94111A60936C028A
:102CA00070936D0280936E0290936F020E946B0985
:102CB0000E946B0960912C0470912D0480912E0468
:102CC00090912F040E94BB1A20E030E048EC52E4BF
:102CD0000E94111A0E948A1A609341046091300484
:102CE0007091310480913204909133040E94BB1A98
:102CF0000E948A1A609344046091500270915102BC
:102D000080915202909153020E948A1A60933E046D
:102D10006091540270915502809156029091570231
:102D20000E948A1A60933B0480916001882309F411
:102D300089C080912B03811115C060E070E080E4B0
:102D400093E00E943E0560E070E081E593E00E9420
:102D50003E0560E070E082E693E00E943E0560E0A0
:102D600070E06AC0809128033091290320912A03E2
:102D700090E0831B9109820F911D209132033091C5
:102D80003303829FB001839F700D929F700D1124B9
:102D900080E493E00E943E0580912903309128034E
:102DA00020912A0390E0919581959109831B9109C7
:102DB000821B91092091340330913503829FB00129
:102DC000839F700D929F700D112481E593E00E9406
:102DD0003E05809129033091280320912A0390E039
:102DE000919581959109831B9109820F911D2091E5
:102DF000360330913703829FB001839F700D929FFD
:102E0000700D112482E693E00E943E058091280314
:102E10003091290320912A0390E0831B9109821BA2
:102E200091092091380330913903829FB001839F2B
:102E3000700D929F700D112483E793E00E943E0570
:102E40001092600180912B03811112C060E070E04C
:102E500084E893E00E943E0560E070E085E993E03D
:102E60000E943E0560E070E086EA93E00E943E0525
:102E700080912E0390912F03892B09F065C08091DA
:102E80002C0390912D03892B09F05EC08091DE0305
:102E90008823A1F06091D5037091D6038091D70368
:102EA0009091D8030E94BB1A6093DF037093E003F4
:102EB0008093E1039093E2031092DE0300E010E0C0
:102EC0008091DE0381111FC06091D5037091D603FC
:102ED0008091D7039091D8030E94BB1A9B01AC014B
:102EE0006091DF037091E0038091E1039091E20330
:102EF0000E940D1920E030E040E05FE30E94121CC8
:102F00000E94831A8B01B80185E993E00E943E0577
:102F1000B801110F880B990B0E94BB1A20E030E01A
:102F2000A9010E940E190E94831A6B017C0184E89A
:102F300093E00E943E05B60186EA93E00E943E05BA
:102F40000E94DC010C946A0E71E07093DE038091A4
:102F50002C0390912D0320912E0330912F03821B7F
:102F6000930B22E3289F8001299F100D1124A8CFE5
:102F7000FC018091BE018C30A8F491E0980F9093F1
:102F8000BE01868790E0DC01AA0FBB1F8A0F9B1F42
:102F9000DC01A054BE4F88EB9BE012969C938E936D
:102FA000119702C08FEF8687F8941092B0001092AC
:102FB000B1001092B2008FEF8093B3008091B10006
:102FC00088608093B1008091B10085608093B100EA
:102FD000809170008093700084EA96E097838683E6
:102FE00084E195E09187808726813781808591856E
:102FF000281B390B4AE0429FC001439F900D1124CA
:1030000064E670E00E94021D758364838CED95E098
:103010009183808380819181938382838FEF9FEF5F
:10302000958784878091AC019091AD0193878287C9
:10303000DC01AA0FBB1FA255BE4FED93FC93019676
:103040009093AD018093AC0178940895CF92DF9274
:10305000EF92FF92EFE7F2E01382128288EE93E0A4
:10306000A0E0B0E084839583A683B7832AE031E0B3
:103070003183208325EC30E03587248724EC30E051
:103080003787268720EC30E0318B208B21EC30E035
:10309000338B228B22EC30E0358B248B26EC30E016
:1030A000378B268B118E128E138E148EECE1F3E08B
:1030B0001382128284839583A683B7838CE191E087
:1030C000918380831092460410924504C12C80EABB
:1030D000D82E80E8E82E84E4F82EC0923504D092F1
:1030E0003604E0923704F0923804E8E2F3E02FEF80
:1030F0003FEF3387228781E090E095878487378789
:103100002687918B808B938B828B958B848B978B6F
:10311000868B80E493E00E94B81781E593E00E94DB
:10312000B81782E693E00E94B81783E793E00E9405
:10313000B81784E893E00E94B81785E993E00E94ED
:10314000B81786EA93E00E94B817C092DA03D092CB
:10315000DB03E092DC03F092DD03FF90EF90DF9061
:10316000CF900895052E97FB1EF400940E94C91875
:1031700057FD07D00E94DC1807FC03D04EF40C94D6
:10318000C91850954095309521953F4F4F4F5F4F4F
:10319000089590958095709561957F4F8F4F9F4FC3
:1031A00008950E94FE18A59F900DB49F900DA49FB6
:1031B000800D911D11240895A1E21A2EAA1BBB1B9C
:1031C000FD010DC0AA1FBB1FEE1FFF1FA217B307F3
:1031D000E407F50720F0A21BB30BE40BF50B661F09
:1031E000771F881F991F1A9469F7609570958095CD
:1031F00090959B01AC01BD01CF010895A29FB00144
:10320000B39FC001A39F700D811D1124911DB29F1A
:10321000700D811D1124911D08955058BB27AA27B8
:103220000E9425190C94B71B0E947E1B38F00E9447
:10323000851B20F039F49F3F19F426F40C94401BB1
:103240000EF4E095E7FB0C943A1BE92F0E94DC1B7F
:1032500058F3BA17620773078407950720F079F4CB
:10326000A6F50C94FE1B0EF4E0950B2EBA2FA02DA4
:103270000B01B90190010C01CA01A0011124FF2723
:10328000591B99F0593F50F4503E68F11A16F0401E
:10329000A22F232F342F4427585FF3CF469537951D
:1032A0002795A795F0405395C9F77EF41F16BA0BE2
:1032B000620B730B840BBAF09150A1F0FF0FBB1F90
:1032C000661F771F881FC2F70EC0BA0F621F731FD9
:1032D000841F48F4879577956795B795F7959E3F36
:1032E00008F0B0CF9395880F08F09927EE0F9795C7
:1032F000879508959F939F77EEE389379E0728F47B
:10330000E6E8F0E00E946A1B0CC00E94F61A905892
:10331000A2EA2AED3FE049EC5FE30E9425190E94F2
:10332000B71B0F9007FC905808950E947E1B60F019
:1033300080E891E009F49EEF0E94851B28F040E8A8
:1033400051E071F45EEF0CC00C94401B0C94FE1B1A
:10335000E92FE0780E94DC1B40F3092E052AB1F327
:10336000261737074807590738F00E2E07F8E025CB
:1033700069F0E025E0640AC0EF6307F8009407FAFB
:10338000DB01B9019D01DC01CA01AD01EF930E948F
:10339000281A0E94B71B0E94D8195F91552339F053
:1033A0002BED3FE049E450FD49EC0C940E190895D3
:1033B000DF93DD27B92FBF7740E85FE316161706C6
:1033C00048075B0718F4D92F0E940A1C9F938F931C
:1033D0007F936F930E94CD1CEAE9F0E00E94431BAB
:1033E0000E94B71B2F913F914F915F910E94251C26
:1033F000DD2351F09058A2EA2AED3FE049EC5FE36B
:10340000D0785D270E942519DF910C94B71B0E948C
:10341000161B08F481E008950E948E1BE3950C941E
:10342000C81B0E94251A0C94B71B0E94851B58F0DC
:103430000E947E1B40F029F45F3F29F00C943A1B58
:1034400051110C94FF1B0C94401B0E94DC1B68F371
:103450009923B1F3552391F3951B550BBB27AA274D
:1034600062177307840738F09F5F5F4F220F331F87
:10347000441FAA1FA9F335D00E2E3AF0E0E832D04F
:1034800091505040E695001CCAF72BD0FE2F29D052
:10349000660F771F881FBB1F261737074807AB0724
:1034A000B0E809F0BB0B802DBF01FF2793585F4F99
:1034B0003AF09E3F510578F00C943A1B0C94FF1B98
:1034C0005F3FE4F3983ED4F3869577956795B7957B
:1034D000F7959F5FC9F7880F911D9695879597F986
:1034E0000895E1E0660F771F881FBB1F62177307FF
:1034F0008407BA0720F0621B730B840BBA0BEE1F14
:1035000088F7E09508950E948A1A6894B1110C9486
:10351000FF1B08950E94E41B88F09F5798F0B92F75
:103520009927B751B0F0E1F0660F771F881F991FF8
:103530001AF0BA95C9F714C0B13091F00E94FE1B81
:10354000B1E008950C94FE1B672F782F8827B85F91
:1035500039F0B93FCCF3869577956795B395D9F750
:103560003EF490958095709561957F4F8F4F9F4F5A
:103570000895E89409C097FB3EF490958095709566
:1035800061957F4F8F4F9F4F9923A9F0F92F96E9AF
:10359000BB279395F695879577956795B795F11124
:1035A000F8CFFAF4BB0F11F460FF1BC06F5F7F4FC1
:1035B0008F4F9F4F16C0882311F096E911C07723D3
:1035C00021F09EE8872F762F05C0662371F096E8DC
:1035D000862F70E060E02AF09A95660F771F881FAB
:1035E000DAF7880F9695879597F90895DF93CF932B
:1035F0001F930F938B01EC01E7ECF0E00E94431B5B
:103600000E94B71B9801AE018B01EC0160E070E0F5
:1036100080E89FE30E940D190E948D1C9801AE0165
:103620000F911F91CF91DF910C94251C990F0008E9
:10363000550FAA0BE0E8FEEF16161706E807F90784
:10364000C0F012161306E407F50798F0621B730B1F
:10365000840B950B39F40A2661F0232B242B252BA0
:1036600021F408950A2609F4A140A6958FEF811D43
:10367000811D089597F99F6780E870E060E00895E4
:103680009FEF80EC0895DF93CF931F930F93FF92EA
:10369000EF92DF927B018C01689406C0DA2EEF0175
:1036A0000E94251CFE01E894A59125913591459134
:1036B0005591A6F3EF010E942519FE019701A8017B
:1036C000DA9469F7DF90EF90FF900F911F91CF91FF
:1036D000DF9108959F938F937F936F93FF93EF9361
:1036E0009B01AC010E94121CEF91FF910E94431BB1
:1036F0002F913F914F915F910C94121C00240A94DA
:103700001616170618060906089500240A941216BC
:1037100013061406050608950C94401B0E94E41B32
:10372000D8F3E894E0E0BB279F57F0F02AED3FE0A4
:1037300049EC06C0EE0FBB0F661F771F881F28F0ED
:10374000B23A62077307840728F0B25A620B730B10
:10375000840BE3959A9572F7803830F49A95BB0FF5
:10376000661F771F881FD2F790480C94D31C092E30
:103770000394000C11F4882352F0BB0F40F4BF2BCC
:1037800011F460FF04C06F5F7F4F8F4F9F4F08950C
:10379000EF93E0FF07C0A2EA2AED3FE049EC5FEBC0
:1037A0000E9425190E94B71B0F90039401FC9058AA
:1037B000EFEEF0E00C946A1B57FD9058440F551F34
:1037C00059F05F3F71F04795880F97FB991F61F0A3
:1037D0009F3F79F087950895121613061406551F1A
:1037E000F2CF4695F1DF08C0161617061806991F86
:1037F000F1CF86957105610508940895E894BB277B
:1038000066277727CB0197F908950E94161B08F4C5
:103810008FEF08959B01AC0160E070E080E89FE3CA
:103820000C94111A0E94251C0C94B71B0E947E1B3D
:1038300038F00E94851B20F0952311F00C943A1B60
:103840000C94401B11240C94FF1B0E94DC1B70F392
:10385000959FC1F3950F50E0551F629FF001729F35
:10386000BB27F00DB11D639FAA27F00DB11DAA1F44
:10387000649F6627B00DA11D661F829F2227B00D91
:10388000A11D621F739FB00DA11D621F839FA00D1C
:10389000611D221F749F3327A00D611D231F849F6C
:1038A000600D211D822F762F6A2F11249F575040C3
:1038B0009AF0F1F088234AF0EE0FFF1FBB1F661F3E
:1038C000771F881F91505040A9F79E3F510580F007
:1038D0000C943A1B0C94FF1B5F3FE4F3983ED4F327
:1038E000869577956795B795F795E7959F5FC1F7AB
:1038F000FE2B880F911D9695879597F908959F93B4
:103900000E948E1B0F9007FCEE5F0C94C81B19F4ED
:1039100016F40C94401B0C94D11C0E94E41BB8F3C9
:103920009923C9F3B6F39F57550B87FF0E94DF1CFD
:103930000024A0E640EA900180585695979528F417
:10394000805C660F771F881F20F02617370748070F
:1039500030F4621B730B840B202931294A2BA69566
:1039600017940794202531254A2758F7660F771FAB
:10397000881F20F026173707480730F4620B730BB7
:10398000840B200D311D411DA09581F7B901842FB5
:103990009158880F9695879508959B01AC010C94DA
:1039A000121C9F3F31F0915020F4879577956795D1
:1039B000B795880F911D9695879597F90895915021
:1039C0005040660F771F881FD2F70895DB018F9351
:1039D0009F930E94D118BF91AF91A29F800D911D1E
:1039E000A39F900DB29F900D11240895991B79E02B
:1039F00004C0991F961708F0961B881F7A95C9F77F
:103A00008095089597FB072E16F4009407D077FD54
:103A100009D00E94E71E07FC05D03EF490958195E1
:103A20009F4F0895709561957F4F0895EE0FFF1F8A
:103A30000590F491E02D0994DF93CF931F930F939A
:103A40009A9DF02D219FF00D8B9DF00D8A9DE02D0C
:103A5000F10D039FF00D029FE00DF11D4E9DE00D55
:103A6000F11D5E9DF00D4F9DF00D7F936F93BF9202
:103A7000AF925F934F93D5010E94FE188B01AC016A
:103A8000D7010E94FE18EB01E80FF91FD6010E9432
:103A90006C1D2F913F91D6010E94FE18C60FD71FB3
:103AA000E81FF91FAF91BF910E946C1D2F913F91AC
:103AB0000E94FE18C60FD71FE81FF91FD6010E94EB
:103AC000FE18E60FF71F9801BE01CF0111240F91D8
:103AD0001F91CF91DF9108950E94FE18460F571F46
:103AE000C81FD91F08F43196089597FB57FF0C940F
:103AF000851D9F938F930E94851D6E1B7F0BAF9139
:103B0000BF918A0B9B0B0895E894DF93CF93FC0140
:103B1000DB010E94FE187F936F93E9019A01AC01CB
:103B2000BF93AF933F932F93DF010E94FE1826F4BB
:103B30006C1B7D0B820B930B9E01EB01FC010E9421
:103B40006C1DAF91BF912F913F910E946C1DBE01E2
:103B5000CF01F9012F913F91CF91DF9108956894A2
:103B600001C0E894F92FF12B12F00C94E31DA0E0B2
:103B7000B0E0EDEBFDE10C94551E092E059422F406
:103B80000E943F1E112392F4F0E80F26FFEFE0940D
:103B9000F09400951095B094C094D094A194BF0A6D
:103BA000CF0ADF0AEF0AFF0A0F0B1F0B0E94EE1D60
:103BB00007FC0E943F1ECDB7DEB7ECE00C94711EEF
:103BC000689401C0E8948F929F92CF93DF930E94F4
:103BD000EE1DDF91CF919F908F90089588249924B6
:103BE000F401E401B0E49F93AA279A158B049C0486
:103BF000ED05FE05CF05D007A10798F4AD2FDC2F0A
:103C0000CF2FFE2FE92D982C892E982F872F762FD6
:103C1000652F542F432F322F2227B85031F7BF91F1
:103C200027C01B2EBF91BB27220F331F441F551FD8
:103C3000661F771F881F991F881C991CEE1FFF1F86
:103C4000CC1FDD1FAA1FBB1F8A149B04EC05FD05BA
:103C5000CE05DF05A007B10748F08A189B08EC09DC
:103C6000FD09CE09DF09A00BB10B21601A94E1F622
:103C70002EF49401AF01BE01CD01000C08956095B2
:103C800070958095909530954095509521953F4F32
:103C90004F4F5F4F6F4F7F4F8F4F9F4F08952F9222
:103CA0003F924F925F926F927F928F929F92AF92CC
:103CB000BF92CF92DF92EF92FF920F931F93CF9319
:103CC000DF93CDB7DEB7CA1BDB0B0FB6F894DEBFB0
:103CD0000FBECDBF09942A88398848885F846E84D6
:103CE0007D848C849B84AA84B984C884DF80EE8020
:103CF000FD800C811B81AA81B981CE0FD11D0FB629
:103D0000F894DEBF0FBECDBFED0108950F930830CC
:103D100090F0982F872F762F652F542F432F322F17
:103D200022270850F4CF220F331F441F551F661F50
:103D3000771F881F991F0A95B2F70F91089597FB77
:103D400010F8169400080F93083098F00850232FAD
:103D5000342F452F562F672F782F892F902DF4CF92
:103D600005949795879577956795579547953795D6
:103D700027950A95AAF70F9108952A0D3B1D4C1D12
:103D80005D1D6E1D7F1D801F911F08950024A7FDDE
:103D900000942A0F301D401D501D601D701D801D98
:103DA000901D08952A193B094C095D096E097F0988
:103DB000800B910B08950024A7FD00942A1730056D
:103DC0004005500560057005800590050895AA1B03
:103DD000BB1B51E107C0AA1FBB1FA617B70710F0F6
:103DE000A61BB70B881F991F5A95A9F78095909528
:103DF000BC01CD0108950F931F93CF93DF938230C1
:103E0000910510F482E090E0E0915304F0915404A5
:103E100020E030E0A0E0B0E0309719F1408151811E
:103E20000281138148175907C8F08417950769F470
:103E3000109731F012960C93129713961C9327C08B
:103E4000009353041093540422C02115310519F036
:103E50004217530718F49A01BD01EF01DF01F80181
:103E6000DBCF21153105F9F0281B390B2430310542
:103E700080F48A819B816115710521F0FB01938398
:103E8000828304C09093540480935304FE013296BD
:103E900044C0FE01E20FF31F819391932250310938
:103EA000398328833AC02091510430915204232B46
:103EB00041F4209102013091030130935204209388
:103EC000510420910001309101012115310541F487
:103ED0002DB73EB74091040150910501241B350BCD
:103EE000E0915104F0915204E217F307A0F42E1B65
:103EF0003F0B2817390778F0AC014E5F5F4F24174E
:103F0000350748F04E0F5F1F509352044093510401
:103F10008193919302C0E0E0F0E0CF01DF91CF9177
:103F20001F910F910895CF93DF93009709F481C0FB
:103F3000FC01329713821282A0915304B091540471
:103F4000109781F420813181820F931F20915104B9
:103F5000309152042817390751F5F0935204E09339
:103F6000510467C0ED0120E030E0CE17DF0740F4D8
:103F70004A815B819E0141155105F1F0EA01F5CFBF
:103F8000D383C28340815181840F951FC817D907FD
:103F900059F488819981840F951F029691838083BB
:103FA0008A819B81938382832115310529F4F093C3
:103FB0005404E09353043DC0E901FB83EA83499133
:103FC0005991C40FD51FEC17FD0761F480819181D1
:103FD000840F951F0296E9019983888382819381DA
:103FE0009B838A83E0E0F0E012968D919C91139779
:103FF000009719F0FD01DC01F7CF8D919C9111978D
:104000009D012E5F3F4F820F931F209151043091ED
:1040100052042817390769F4309729F41092540490
:104020001092530402C013821282B0935204A093E0
:104030005104DF91CF91089581E090E0F8940C94C1
:064040002120F894FFCFDF
:10404600000055048000000000006D01DA00040144
:10405600BA01350113012701000000001003E30235
:104066004003B702DB02C702B80253746F7070696F
:104076006E672E2E2E00094D6F746F722072656169
:1040860063682076616C75653A09000D0A00537401
:0A409600617274696E672E2E2E0011
:00000001FF
