:100000000C94B2000C94DA000C94DA000C94DA0030
:100010000C94DA000C94DA000C94DA000C942406A8
:100020000C94DA000C94DA000C94DA000C94F704C7
:100030000C94DA000C94DA000C94DA000C94DA00D8
:100040000C946C0C0C9430070C9497030C94710373
:100050000C94DA000C94DA000C94DA000C94DA00B8
:100060000C94C9030C94DA009D07A407BF07A907E5
:10007000DC07DC07DC07DC07CB07C407D207DC079B
:10008000DC07DC077C07B207BF07036EDB363D9A4F
:100090009999993DABAAAA2A3E000000803F084AE0
:1000A000D73B3BCE016E84BCBFFDC12F3D6C74318C
:1000B0009ABD56833DDA3D00C77F11BED9E4BB4CE3
:1000C0003E916BAAAABE000000803F072C7AA5BA19
:1000D0006CC590DA3B9365FC8BBC53F810FD3C5625
:1000E00092834DBD879D3AB63DCBC9BF5BBE73DAE7
:1000F0000FC93F05A84CCDB2D44EB93836A9020C71
:1001000050B9918688083CA6AAAA2ABE00000080A1
:100110003F00000000080002010000030407000087
:1001200000000000000000000000250028002B0057
:1001300000000000240027002A0004040404040432
:100140000404020202020202030303030303010286
:100150000408102040800102040810200102040855
:100160001020C01811241FBECFEFD8E0DEBFCDBFD6
:1001700011E0A0E0B1E0EEE7F1E402C005900D92DD
:10018000AA35B107D9F724E0AAE5B1E001C01D9274
:10019000A835B207E1F710E0C2EBD0E004C0219728
:1001A000FE010E94B21DC13BD107C9F70E94240D78
:1001B0000C94BD200C940000CF92DF92EF92FF923E
:1001C0000F931F93CF93DF936C017A018B01C0E0F3
:1001D000D0E0CE15DF0581F0D8016D918D01D601FB
:1001E000ED91FC910190F081E02DC6010995892BDC
:1001F00011F02196EECF7E01C701DF91CF911F91C3
:100200000F91FF90EF90DF90CF900895FC01538DF8
:10021000448D252F30E0842F90E0821B930B5417E0
:1002200010F0CF96089501970895FC01918D828D6D
:10023000981761F0828DDF01A80FB11D5D968C913A
:10024000928D9F5F9F73928F90E008958FEF9FEF45
:100250000895FC01918D828D981731F0828DE80F01
:10026000F11D858D90E008958FEF9FEF0895FC01BB
:10027000918D228D892F90E0805C9F4F821B910988
:100280008F73992708958FE792E00E94370121E04C
:10029000892B09F420E0822F0895FC01848DDF0171
:1002A000A80FB11DA35ABF4F2C91848D90E00196E9
:1002B0008F739927848FA689B7892C93A089B189D8
:1002C0008C91837080648C93938D848D981306C079
:1002D0000288F389E02D80818F7D80830895EF92DD
:1002E000FF920F931F93CF93DF93EC0181E0888FF0
:1002F0009B8D8C8D981305C0E889F989808185FDD7
:1003000026C0F62E0B8D10E00F5F1F4F0F731127C5
:10031000E02E8C8DE8120CC00FB607FCFACFE889EE
:10032000F989808185FFF5CFCE010E944D01F1CF83
:100330008B8DFE01E80FF11DE35AFF4FF0829FB74E
:10034000F8940B8FEA89FB89808180620AC09FB78D
:10035000F894EE89FF896083E889F9898081837048
:10036000806480839FBF81E090E0DF91CF911F91F7
:100370000F91FF90EF900895CF93DF93EC01888D5C
:100380008823C9F0EA89FB89808185FD05C0A88999
:10039000B9898C9186FD0FC00FB607FCF5CF80811F
:1003A00085FFF2CFA889B9898C9185FFEDCFCE0169
:1003B0000E944D01E7CFDF91CF91089580E090E05A
:1003C000892B29F00E94430181110C9400000895AB
:1003D00085ED8093BC008091BC0084FDFCCF109221
:1003E0004F0208954091B601262F30E0240F311DB1
:1003F00021323105DCF420914F022430C9F4FC0194
:1004000080E090E0861758F43091B6012191DC012C
:10041000AA56BE4FA30FB11D2C930196F3CF809126
:10042000B601680F6093B60180E0089581E00895F9
:1004300082E00895089508950895E091E50180917E
:10044000E401E81730F4F0E0E75FFD4F808190E0D1
:1004500008958FEF9FEF08959091E5018091E40159
:10046000981750F4E92FF0E0E75FFD4F208130E06E
:100470009F5F9093E50102C02FEF3FEFC901089500
:100480008091E40190E02091E501821B910908959B
:10049000CF92DF92EF92FF920F931F93CF93DF9350
:1004A0007C01CB018A012091E601222389F0EB0136
:1004B0006B01C40ED51ECC15DD0569F06991D7011D
:1004C000ED91FC910190F081E02DC7010995F3CFEA
:1004D000642F0E94F201C801DF91CF911F910F910B
:1004E000FF90EF90DF90CF900895CF93DF931F920E
:1004F000CDB7DEB769832091E6012223D1F02091A8
:100500000802203240F021E030E0FC0133832283F6
:1005100080E090E015C08091E701E82FF0E0E8511D
:10052000FE4F998190838F5F8093E701809308024B
:1005300005C061E0CE0101960E94F20181E090E0E9
:100540000F90DF91CF910895089580E090E0089595
:10055000FC0190819C3088F5818128E830E0281BDF
:10056000310987FD3395220F331F220F331F621786
:10057000730784F0828148E552E0481B510987FDEA
:100580005395440F551F440F551F9B01461757079E
:100590000CF49A0122503109220F331F4FB7F894FF
:1005A000892F90E0FC01EE0FFF1F8E0F9F1FFC01B3
:1005B000EE58FE4F328321834FBF0895CF93DF93D0
:1005C000EC01288139818A819B812817390704F53C
:1005D000888199812A813B81821B930B1816190609
:1005E0002CF4888199812A813B8104C08A819B8176
:1005F00028813981821B930B2C813D8182179307BF
:100600003CF12C813D8188819981820F931F29C003
:10061000288139818A819B818217930724F58881FB
:1006200099812A813B81821B930B181619062CF4A1
:10063000888199812A813B8104C08A819B8128819C
:100640003981821B930B2C813D81821793071CF407
:100650008A819B8106C02C813D8188819981821B82
:10066000930B9983888368817981CE010E960E94CD
:10067000A802488159812A813B8181E042175307B2
:1006800009F080E0DF91CF9108950E94B8200F9388
:100690001F93CF93DF938C01C0916E01D0916F01B6
:1006A000209749F484E090E00E94971F90936F0197
:1006B00080936E010CC08A819B81009711F0EC0140
:1006C000FACF84E090E00E94971F9B838A83FC010D
:1006D0001183008313821282DF91CF911F910F91BA
:1006E00008951F920F920FB60F9211242F933F93EC
:1006F0004F935F936F937F938F939F93AF93BF932A
:10070000EF93FF938FE792E00E944D01FF91EF91ED
:10071000BF91AF919F918F917F916F915F914F9119
:100720003F912F910F900FBE0F901F9018951F9221
:100730000F920FB60F9211242F938F939F93EF93E5
:10074000FF93E0918F02F09190028081E0919502F9
:10075000F091960282FD12C09081809198028F5F85
:100760008F7320919902821751F0E0919802F0E086
:10077000E158FD4F958F8093980201C08081FF91D1
:10078000EF919F918F912F910F900FBE0F901F901F
:1007900018951F920F920FB60F9211242F933F932B
:1007A0004F935F936F937F938F939F93AF93BF9379
:1007B000EF93FF938091B900887F803609F49CC045
:1007C00068F5883209F45BC090F4803109F454C0B4
:1007D00038F4882309F4F6C0883009F44DC0F6C017
:1007E000883109F44CC0803209F45DC0EFC0803418
:1007F00009F468C048F4803309F455C0883309F01F
:10080000E5C080934D02D8C0803509F44FC08835CB
:1008100009F45DC0883409F0D9C0D6C0883909F41C
:10082000C7C0A8F4883709F467C038F4883609F4DB
:1008300063C0803709F460C0C9C0883809F4B8C003
:10084000803909F45FC0803809F0C0C05BC0803BCC
:1008500009F486C038F4803A09F466C0883A09F48D
:100860007FC0B4C0803C09F4A7C0883C09F4A4C090
:10087000883B09F48AC0AAC080914A0210C09091B6
:100880004C0280914B02981770F5E0914C0281E088
:100890008E0F80934C02F0E0E75DFD4F80818093E6
:1008A000BB0085EC86C080934D028EC0E0914C0267
:1008B00081E08E0F80934C028091BB00F0E0E75DF9
:1008C000FD4F808390914C0280914B026EC0E0916D
:1008D0004C0281E08E0F80934C028091BB00F0E0CF
:1008E000E75DFD4F808380914E0281116DC081E0F4
:1008F0008093490284EA61C083E080934F021092A2
:10090000D801CFCF8091D801803208F051C0E0915A
:10091000D80181E08E0F8093D8018091BB00F0E078
:10092000E854FE4F8083BDCF85EC8093BC001092CD
:100930004F028091D801803230F4E091D801F0E08C
:10094000E854FE4F10826091D80170E0E091D90127
:10095000F091DA0188EB91E009951092D80136C048
:1009600084E080934F021092B7011092B601E0919B
:10097000DB01F091DC0109958091B601811105C080
:1009800081E08093B60110929601E091B70181E079
:100990008E0F8093B701F0E0EA56FE4F808180937E
:1009A000BB009091B7018091B601981708F479CFF8
:1009B00085E88093BC000AC085EC8093BC0010924F
:1009C0004F0204C010924D020E94E801FF91EF9186
:1009D000BF91AF919F918F917F916F915F914F9157
:1009E0003F912F910F900FBE0F901F9018951F925F
:1009F0000F920FB60F9211242F933F934F935F9353
:100A00006F937F938F939F93AF93BF93EF93FF93D6
:100A10008091710187FF05C01092850010928400BB
:100A20001BC020917101022E000C330B80917001CC
:100A300090E02817390784F480917101082E000C8A
:100A4000990BFC01EE0FFF1F8E0F9F1FFC01EE584C
:100A5000FE4F808186FD15C0809171018F5F80936C
:100A6000710120917101022E000C330B80917001F5
:100A700090E028173907C4F4809171018C3064F13B
:100A800013C080917101082E000C990BFC01EE0F30
:100A9000FF1F8E0F9F1FFC01EE58FE4F808160E00C
:100AA0008F730E941109D8CF8091840090918500A6
:100AB000049680349C4918F480E49CE905C0809138
:100AC000840090918500049690938900809388001B
:100AD0008FEF809371013BC020918400309185009D
:100AE00080917101082E000C990BFC01EE0FFF1F85
:100AF0008E0F9F1FFC01EE58FE4F81819281820F65
:100B0000931F909389008093880080917101082E33
:100B1000000C990BFC01EE0FFF1F8E0F9F1FFC01B5
:100B2000EE58FE4F808186FF12C080917101082E21
:100B3000000C990BFC01EE0FFF1F8E0F9F1FFC0195
:100B4000EE58FE4F808161E08F730E941109FF9182
:100B5000EF91BF91AF919F918F917F916F915F9135
:100B60004F913F912F910F900FBE0F901F901895AE
:100B7000EF92FF920F931F93CF93DF93EC017D874A
:100B80006C87EC84FD848C01025F1F4F8E858C3056
:100B900008F04FC08E2D0E94F2088E85E82FF0E0FD
:100BA0009F01220F331FE20FF31FEE58FE4F9E2DC1
:100BB0009F732081207CE22EE92AE0821F86188A1A
:100BC0006CE00E94921D9CE0899FB001112440E0DE
:100BD00050E09B01240F351FF901EE0FFF1F2E0F70
:100BE0003F1FF901EE58FE4F908196FD16C04F5FF2
:100BF0005F4F4C30510569F781110FC01092800092
:100C000082E0809381001092850010928400B19A56
:100C100080916F00826080936F00EE85F0E0CF01DD
:100C2000880F991FE80FF91FEE58FE4F80818064EE
:100C300080836CED75E0C801DF91CF911F910F911A
:100C4000FF90EF900C94A8021F920F920FB60F9294
:100C500011242F933F934F935F936F937F938F93C1
:100C60009F93AF93BF93CF93DF93EF93FF93C09185
:100C70006E01D0916F012097D1F0E881F981EE0FDC
:100C8000FF1FE05AFE4F808191810E94DE02811198
:100C900004C0888199810E9447038A819B81909337
:100CA0006F0180936E01CE010E942F2004C08091BD
:100CB000700010927000FF91EF91DF91CF91BF9182
:100CC000AF919F918F917F916F915F914F913F91E4
:100CD0002F910F900FBE0F901F9018958F929F929B
:100CE000AF92BF92CF92DF92EF92FF920F931F933A
:100CF000CF93DF93CDB7DEB7A1970FB6F894DEBFE1
:100D00000FBECDBF8C01603871053CF461388FEFA8
:100D100078072CF461E87FEF02C06FE770E0F8011C
:100D200086819781C084D1840D2C000CEE08FF08C9
:100D3000AB01770F660B770B9A01AB0121583F4F40
:100D40004F4F5F4F092E000CAA0BBB0BBC01CD010E
:100D50006C197D098E099F090E94821D2EEF30E0DB
:100D600040E050E00E944E19C20ED31EE41EF51E54
:100D7000F801D382C2828AE291E00E94E008F80181
:100D8000C280D3800D2C000CEE08FF08F7FE25C0B2
:100D90006DE28FE792E00E946F0122273327A901BD
:100DA0002C193D094E095F0919A2CE0181967C01DB
:100DB0009AE0892E912CA12CB12CCA01B901A50170
:100DC00094010E947819605DF70162937F012115FB
:100DD00031054105510589F71AC0A701960119A2ED
:100DE000CE0181967C018AE0882E912CA12CB12C19
:100DF000CA01B901A50194010E947819605DF7014B
:100E000062937F01211531054105510589F7C7011D
:100E10000E94E0088FE391E00E94E008C8010E9470
:100E2000DE0281110AC0F801828593850E94470382
:100E300080917000826080937000A1960FB6F89444
:100E4000DEBF0FBECDBFDF91CF911F910F91FF90FD
:100E5000EF90DF90CF90BF90AF909F908F900895CC
:100E60001F920F920FB60F9211242F933F934F931F
:100E70005F936F937F938F939F93AF93BF93EF9302
:100E8000FF938EB580935D018091DD019091DE012D
:100E9000FC01EE0FFF1F8E0F9F1FFC01E45CFB4F58
:100EA00082818EBD8091DD019091DE01019690934B
:100EB000DE018093DD01049724F01092DE01109290
:100EC000DD0180915D01811104C081E080935C01AE
:100ED000A9C080915C01882309F475C0E0915D018F
:100EE0008E2F90E0FC013497E131F10508F064C0E9
:100EF000EC5CFF4F0C94B21D80912803882389F08D
:100F000082E491E00E94E0088FE391E00E94E00813
:100F10001092B6031092B7031092B80310922803F0
:100F20004BC08EE491E00E94E0088FE391E00E94C4
:100F3000E00881E0809328033FC081E090E0909337
:100F40002E0380932D0338C010922E0310922D0390
:100F500033C01092290310922A0310922B0310928F
:100F60002C032AC080E090E0A0ECBFE3809329032B
:100F700090932A03A0932B03B0932C031DC080E011
:100F800090E0A0E8BFE3F2CF8091E5038823A1F0D1
:100F900083E090E00DC08091E503882369F082E052
:100FA00090E006C08091E503882331F081E090E075
:100FB0009093300380932F0310925C0110925B0199
:100FC00010925A012FC080915A0190915B0181309B
:100FD000910559F08230910571F0892B89F4809147
:100FE0005D018F578093B6030BC080915D018F57D1
:100FF0008093B70305C080915D018F578093B8033C
:1010000080915A0190915B01019690935B018093CE
:101010005A01039724F010925B0110925A0181E06B
:101020008093DF01FF91EF91BF91AF919F918F91DD
:101030007F916F915F914F913F912F910F900FBED4
:101040000F901F90189590914F029111FCCF91E055
:1010500090934F0240934E022FEF20934D02109237
:101060004C02260F20934B0290934A0290914A0221
:10107000880F892B80934A0280914902813061F464
:101080001092490280914A028093BB008091BC007B
:1010900083FDF8CF85EC01C085EE8093BC00809184
:1010A0004F028130E1F380914C02861710F4609179
:1010B0004C02A9E2B2E0E9E0F2E080E0861721F01C
:1010C0009D9191938F5FFACF0895282F3091080258
:1010D000313208F04AC080914F028111FCCF9091CB
:1010E000530442E040934F0220934E022FEF20938F
:1010F0004D0210924C0230934B02E8EEF1E0A9E26F
:10110000B2E020E0321721F041914D932F5FFACFEA
:1011100010924A0220914A02990F922B90934A0210
:1011200090914902913061F41092490290914A02E3
:101130009093BB009091BC0093FDF8CF95EC01C05B
:1011400095EE9093BC0090914F029230E1F3909114
:101150004D029F3F79F080914D02803241F08091A5
:101160004D02803331F084E005C081E003C082E0AD
:1011700001C083E01092E701109208021092E6018C
:10118000089591E09093E601809353041092E70153
:10119000109208020895682F8CE193E00C94750278
:1011A000813208F080E241E0682F86E70E94230840
:1011B0001092E5018093E401089581E00C946508A4
:1011C000009769F0FC0101900020E9F73197AF0129
:1011D000481B590BBC018FE792E00C94DC0080E0C7
:1011E00090E0089590E0FC01E25BFE4F2491FC0149
:1011F000E65CFE4F8491882399F090E0880F991F58
:10120000FC01E05DFE4FA591B491FC01EA5DFE4F4B
:10121000859194918FB7F894EC91E22BEC938FBF6A
:10122000089590E0FC01EE5EFE4F2491FC01E25B2C
:10123000FE4F3491FC01E65CFE4FE491EE2309F48D
:101240003CC0222339F1233091F038F42130A9F049
:10125000223001F584B58F7D12C0273091F02830FF
:10126000A1F02430B9F4809180008F7D03C080917B
:1012700080008F77809380000DC084B58F7784BD08
:1012800009C08091B0008F7703C08091B0008F7D3E
:101290008093B000F0E0EE0FFF1FEA5DFE4FA591D6
:1012A000B4919FB7F894611104C08C9130953823A4
:1012B00002C0EC913E2B3C939FBF08953FB7F8943A
:1012C00080914F0490915004A0915104B091520428
:1012D00026B5A89B05C02F3F19F00196A11DB11D91
:1012E0003FBFBA2FA92F982F8827820F911DA11DCC
:1012F000B11DBC01CD0142E0660F771F881F991F09
:101300004A95D1F708954F925F926F927F928F9294
:101310009F92AF92BF92CF92DF92EF92FF92CF93C4
:10132000DF93CDB7DEB7A4970FB6F894DEBF0FBE3C
:10133000CDBF0E945E09C0907A02D0907B02E090FF
:101340007C02F0907D026C197D098E099F090E9434
:10135000551B20E030E048EC52E40E94AD1A6B01CE
:101360007C010E945E0960937A0270937B028093F5
:101370007C0290937D028091640290916502A0911D
:101380006602B0916702BC01CD019058A701960199
:101390000E94AE1C2B013C01809168029091690271
:1013A000A0916A02B0916B02BC01CD019058A701D7
:1013B00096010E94AE1C4B015C0120916C023091A1
:1013C0006D0240916E0250916F02C701B6010E94FA
:1013D000AE1C6B017C01C301B2010E94A81A6D838F
:1013E0007E838F839887C501B4010E94A81A6987FC
:1013F0007A878B879C87C701B6010E94A81A6D87E0
:101400007E878F87988B8091540290915502A0918E
:101410005602B0915702898B9A8BAB8BBC8BBC0167
:10142000CD010E94A81A6D8B7E8B8F8B988F809137
:10143000500290915102A0915202B0915302898FB3
:101440009A8FAB8FBC8FBC01CD010E94A81A698313
:101450007A838B839C83C301B2010E941B1D6D8F15
:101460007E8F8F8F98A3C501B4010E941B1D69A3B5
:101470007AA38BA39CA3C701B6010E941B1D2B015D
:101480003C0169897A898B899C890E941B1D698B23
:101490007A8B8B8B9C8B698D7A8D8B8D9C8D0E942A
:1014A0001B1D6B017C0129813A814B815C816D851B
:1014B0007E858F8598890E94AE1C29893A894B893F
:1014C0005C890E94AE1C4B015C01A7019601C3011F
:1014D000B2010E94AE1C9B01AC01C501B4010E9487
:1014E000AA194B015C01A70196016D857E858F8548
:1014F00098890E94AE1C6B017C01A3019201698155
:101500007A818B819C810E94AE1C29893A894B8902
:101510005C890E94AE1C9B01AC01C701B6010E9410
:10152000A9196D877E878F87988B9B01AC0169A174
:101530007AA18BA19CA10E94AE1C6B017C01298128
:101540003A814B815C8169857A858B859C850E9477
:10155000AE1C2D893E894F89588D0E94AE1C9B017F
:10156000AC01C701B6010E94A9192B013C016D8D88
:101570007E8D8F8D98A19058A50194010E94AE1C7C
:101580006B017C01A30192016D817E818F81988521
:101590000E94AE1C9B01AC01C701B6010E94A919B3
:1015A0006B017C01A50194016D817E818F819885FD
:1015B0000E94AE1C4B015C01A30192016D8D7E8DDA
:1015C0008F8D98A10E94AE1C9B01AC01C501B40196
:1015D0000E94A9194B015C01A70196010E94441ABF
:1015E0006D837E838F839887609354027093550236
:1015F0008093560290935702A5019401C501B4014E
:101600000E94AE1C4B015C01A7019601C701B60107
:101610000E94AE1C9B01AC01C501B4010E94AA1935
:101620000E94291D6B017C0129813A814B815C81DB
:101630006D897E898F89988D0E94AE1C29A13AA15F
:101640004BA15CA10E94AE1C4B015C012D853E8527
:101650004F85588969857A858B859C850E94AE1C4B
:101660009B01AC01C501B4010E94AA19A701960112
:101670000E94441A69877A878B879C8760935002FF
:1016800070935102809352029093530280915802BA
:1016900090915902A0915A02B0915B0289839A837A
:1016A000AB83BC8320E030E0A901BC01CD010E94E6
:1016B000A11C181634F069817A818B819C81905825
:1016C00004C069817A818B819C819B01AC010E945D
:1016D000AE1C6B017C0180905C0290905D02A0903A
:1016E0005E02B0905F0220E030E0A901C501B401C4
:1016F0000E94A11C181624F0C501B401905802C024
:10170000C501B4019B01AC010E94AE1CA70196016A
:101710000E94AA196B017C01409060025090610206
:10172000609062027090630220E030E0A901C30182
:10173000B2010E94A11C181624F0C301B2019058F6
:1017400002C0C301B2019B01AC010E94AE1CA70103
:1017500096010E94AA190E94291D6B017C0126E6B0
:1017600036E646E65FE30E94A11C18160CF065C041
:101770002DEC3CEC4CE85FE3C701B6010E94A31AD4
:1017800087FF5BC0A30192015058C501B4010E94BC
:10179000441A2B013C0169817A818B819C8190588C
:1017A000A70196015F770E94AD1A0E94161A6B017D
:1017B0007C0126E636E646E65FE36D817E818F8119
:1017C00098850E94AE1C4B015C012DEC3CEC4CEC6E
:1017D0005DE3C301B2010E94AE1C9B01AC01C501D7
:1017E000B4010E94AA196093540270935502809329
:1017F00056029093570226E636E646E65FE3698591
:101800007A858B859C850E94AE1C4B015C012DEC7A
:101810003CEC4CEC5DE3C701B6010E94AE1C9B01A1
:10182000AC01C501B4010E94AA19609350027093E3
:1018300051028093520290935302A4960FB6F894EB
:10184000DEBF0FBECDBFDF91CF91FF90EF90DF9055
:10185000CF90BF90AF909F908F907F906F905F9050
:101860004F9008958F929F92AF92BF92CF92DF9246
:10187000EF92FF926B017C010E945E094B015C01BB
:10188000C114D104E104F104F1F00E945E09DC010D
:10189000CB0188199909AA09BB09883E9340A10583
:1018A000B10570F321E0C21AD108E108F10888EE11
:1018B000880E83E0981EA11CB11CC114D104E10460
:1018C000F10419F7DDCFFF90EF90DF90CF90BF903C
:1018D000AF909F908F9008951F920F920FB60F9226
:1018E00011242F933F938F939F93AF93BF93809136
:1018F0004B0490914C04A0914D04B0914E04309152
:101900004A0423E0230F2D3720F40196A11DB11DB9
:1019100005C026E8230F0296A11DB11D20934A049D
:1019200080934B0490934C04A0934D04B0934E04C9
:1019300080914F0490915004A0915104B0915204B1
:101940000196A11DB11D80934F0490935004A09364
:101950005104B0935204BF91AF919F918F913F91E9
:101960002F910F900FBE0F901F901895FC01809142
:1019700070018C30A8F491E0980F909370018687E5
:1019800090E0DC01AA0FBB1F8A0F9B1FDC01AE5841
:10199000BE4F88EB9BE012969C938E93119702C0EA
:1019A0008FEF8687F8941092B0001092B1001092D9
:1019B000B2008FEF8093B3008091B1008860809374
:1019C000B1008091B10085608093B100809170007A
:1019D0008093700084EA96E09783868384E195E0A3
:1019E000918780872681378180859185281B390BD7
:1019F0004AE0429FC001439F900D112464E670E0CD
:101A00000E949E1D758364838CED95E09183808395
:101A100080819181938382838FEF9FEF9587848765
:101A200080915E0190915F0193878287DC01AA0F0C
:101A3000BB1FA05ABE4FED93FC93019690935F019C
:101A400080935E0178940895CF93DF93CDB7DEB78E
:101A5000C958D1090FB6F894DEBF0FBECDBF789438
:101A600084B5826084BD84B5816084BD85B58260A3
:101A700085BD85B5816085BD80916E008160809354
:101A80006E001092810080918100826080938100BD
:101A900080918100816080938100809180008160CD
:101AA000809380008091B10084608093B100809128
:101AB000B00081608093B00080917A008460809350
:101AC0007A0080917A00826080937A0080917A0017
:101AD000816080937A0080917A00806880937A0098
:101AE0001092C100E0918F02F091900282E0808319
:101AF000E0918B02F0918C021082E0918D02F091C6
:101B00008E028FEC808310929702E0919302F09105
:101B1000940286E08083E0919102F09192028081AC
:101B200080618083E0919102F091920280818860CF
:101B30008083E0919102F09192028081806880839D
:101B4000E0919102F091920280818F7D808320E06C
:101B500030E080914804909149048430910590F4DC
:101B6000AC014F5F5F4F5093490440934804FC0120
:101B7000EE0FFF1F8E0F9F1FFC01E45CFB4F3183B4
:101B8000208312822F5F3F4F2430310511F71092CE
:101B9000DE011092DD011092E5011092E401109235
:101BA000E7011092080210924F0281E080934E02EA
:101BB0001092490261E082E10E94110961E083E133
:101BC0000E9411098091B9008E7F8093B9008091A5
:101BD000B9008D7F8093B90088E48093B80085E4D4
:101BE0008093BC008AE192E09093DC018093DB015A
:101BF0008BE192E09093DA018093D90188E60E940C
:101C0000C1088BE690E00E94CB0880E090E00E9443
:101C1000CB0881E00E94650868EE73E080E090E008
:101C20000E94320C1092370480E090E4A9E7B4E4FB
:101C30008093380490933904A0933A04B0933B0402
:101C400086E70E94C1088EE190E00E94CB080E94C6
:101C5000DD086AE070E080E090E00E94320C57E11D
:101C6000E52E54E0F52E00EA10E086E70E94C10858
:101C7000C8010E94CB080E94DD0841E062E086E7CF
:101C80000E9423081092E5018093E4018CE193E027
:101C90000E942C02B82E8CE193E00E942C02DB2CD7
:101CA000C12C8C299D29D7018D939D937D010E5FB9
:101CB0001F4F0E3A1105C9F6809117049091180430
:101CC0009F7090931804809317041092260410922A
:101CD000250468EE73E080E090E00E94320C87E219
:101CE000E5E1F4E0DE01D09601900D928A95E1F7EE
:101CF0008FE2E0E5F2E0DE01119601900D928A9507
:101D0000E1F768E070E083E893E00E94B80567E0DF
:101D100070E084E993E00E94B80564E070E085EA31
:101D200093E00E94B80565E070E080E593E00E94D2
:101D3000B80566E070E08FE393E00E94B80563E0C9
:101D400070E082E793E00E94B80562E070E081E60F
:101D500093E00E94B80582E491E00E94E0088FE3DE
:101D600091E00E94E0081092B6031092B70310921F
:101D7000B8031092280387E2FE01F096A9EBB3E0C6
:101D800001900D928A95E1F78FE2FE013196A6EE61
:101D9000B3E001900D928A95E1F71092E003609113
:101DA000D7037091D8038091D9039091DA030E94F0
:101DB000571B6093E1037093E2038093E3039093D6
:101DC000E40381E090E09093300380932F038093AD
:101DD000E50368EB7BE080E090E00E94320CF89431
:101DE0008CE00E94F2088CB580648CBD8FEF8EBDB4
:101DF0008CB580688CBD78940E945E090091E001EA
:101E00001091E1012091E2013091E301DC01CB016D
:101E1000801B910BA20BB30B81329E44A105B1052F
:101E200060F00E945E096093E0017093E10180938D
:101E3000E2019093E30181E001C080E0209115046C
:101E400030911604232BA9F4882399F086E70E9489
:101E5000C1088AE490E00E94CB080E94DD088091CE
:101E6000150490911604019690931604809315041E
:101E700080E020911504309116042130310509F0DD
:101E80006BC0882309F468C086E70E94C10880E01F
:101E900090E00E94CB080E94DD0883E090E00E9461
:101EA000D00810922704109228041092290410924E
:101EB0002A048CE193E00E942C024C01990FAA089D
:101EC000BB088092270490922804A0922904B09223
:101ED0002A048CE193E00E942C02BA2CA92C982CA5
:101EE00088246C01990FEE08FF08C828D928EA2831
:101EF000FB28C0922704D0922804E0922904F09293
:101F00002A048CE193E00E942C02FE2CED2CDC2CA8
:101F1000CC24092E000CAA0BBB0BC82AD92AEA2A0A
:101F2000FB2AC0922704D0922804E0922904F09260
:101F30002A0486E70E94C1088AE590E00E94CB0847
:101F40000E94DD08809115049091160401969093EB
:101F500016048093150480E0209115043091160436
:101F60002230310509F039C5882309F436C586E7E2
:101F70000E94C10880E090E00E94CB080E94DD082A
:101F800083E090E00E94D00810922B0410922C0461
:101F900010922D0410922E048CE193E00E942C02EA
:101FA0004C01990FAA08BB0880922B0490922C0434
:101FB000A0922D04B0922E048CE193E00E942C029A
:101FC000BA2CA92C982C88246C01990FEE08FF08D4
:101FD000C828D928EA28FB28C0922B04D0922C04C8
:101FE000E0922D04F0922E048CE193E00E942C02EA
:101FF000FE2CED2CDC2CCC24092E000CAA0BBB0BE8
:10200000C82AD92AEA2AFB2AC0922B04D0922C048F
:10201000E0922D04F0922E048091210490912204EC
:10202000A0E0B0E0BA2FA92F982F8827970186014A
:10203000081B190B2A0B3B0B6B960CAF1DAF2EAF79
:102040003FAF6B9710913704EC961FAFEC97E09180
:102050001D04F0911E04E0901904F0901A042091E0
:102060002704309128044091290450912A04EB96CA
:102070002CAF3DAF4EAF5FAFEB97113009F09FC073
:10208000970140E050E060E070E080E090E000E127
:102090000E94221F19012A013B014C01BF0180E06F
:1020A00090E06B962CAD3DAD4EAD5FAD6B970E9451
:1020B000111EF22E032F142FB52FF62FE72FD82E37
:1020C000E92EA0E00E94771F5CF4AFE70E94621F38
:1020D000F22E032F142FB52FF62FE72FD82EE92E2F
:1020E0002F2D302F412F5B2F6F2F7E2F8D2D9E2D6B
:1020F00007E00E943B1F59016A017B018C0191019D
:10210000A201B301C4010E94591FAC962FAFAC9736
:10211000AD963FAFAD97AE964FAFAE97AF965FAF70
:10212000AF97E0966FAFE097E1967FAFE197E296C9
:102130008FAFE297E3969FAFE397E0911F04F09192
:10214000200480901B0490901C04940140E050E017
:1021500060E070E080E090E001E10E94221F190140
:102160002A013B014C01BF0180E090E06B962CAD51
:102170003DAD4EAD5FAD6B970E94111EF22E032F49
:10218000142FB52FF62FE72FD82EE92EA0E00E94AE
:10219000771F5CF4AFE30E94621FF22E032F142F0F
:1021A000B52FF62FE72FD82EE92E2F2D302F412FC8
:1021B0005B2F6F2F7E2F8D2D9E2D06E0A8C0BF01B7
:1021C00080E090E06B962CAD3DAD4EAD5FAD6B9772
:1021D0000E94111ED22E032F142FB52FF62FE72F9A
:1021E000B82EC92EA0E00E94771F84F421503F4FE3
:1021F0004F4F5F4F6F4F7F4F8F4F9F4FD22E032F09
:10220000142FB52FF62FE72FB82EC92E2D2D302FD6
:10221000412F5B2F6F2F7E2F8B2D9C2D08E00E946E
:102220003B1F39014A01B62FA72FF82FE92FC12CE8
:10223000D12C9701A60160E070E080E090E00FE013
:102240000E94221F59016A017B018C019301A401A4
:102250006B2F7A2F8F2F9E2F0E94591FAC962FAF76
:10226000AC97AD963FAFAD97AE964FAFAE97AF96EA
:102270005FAFAF97E0966FAFE097E1967FAFE197E2
:10228000E2968FAFE297E3969FAFE397E0911F044A
:10229000F091200480901B0490901C04940140E075
:1022A00050E060E070E080E090E000E10E94221FDA
:1022B00019012A013B014C01BF0180E090E06B96BF
:1022C0002CAD3DAD4EAD5FAD6B970E94111EF22E51
:1022D000032F142FB52FF62FE72FD82EE92EA0E0CD
:1022E0000E94771F5CF4AFE70E94621FF22E032F5B
:1022F000142FB52FF62FE72FD82EE92E2F2D302FA4
:10230000412F5B2F6F2F7E2F8D2D9E2D07E00E947A
:102310003B1F59016A017B018C019101A201B301AC
:10232000C4010E94591FA8962FAFA897A9963FAF46
:10233000A997AA964FAFAA97AB965FAFAB97E496D3
:102340006FAFE497E5967FAFE597E6968FAFE69798
:10235000E7969FAFE7976B964CAC5DAC6EAC7FACED
:102360006B97770C4408542C3201609123047091D0
:10237000240480E090E06B962CAD3DAD4EAD5FAD9A
:102380006B970E94111EF22E032F142FB52FF62FDC
:10239000E72FD82EE92EA0E00E94771F84F4215069
:1023A000310940485F4F6F4F7F4F8F4F9F4FF22E45
:1023B000032F142FB52FF62FE72FD82EE92E2F2D10
:1023C000302F412F5B2F6F2F7E2F8D2D9E2D07E1FC
:1023D0000E943B1F49015A01950184010053184F87
:1023E0002F4F3F4FA7960CAF1DAF2EAF3FAFA79714
:1023F000EC961FADEC97113009F094C0A7962CAD68
:102400003DAD4EAD5FADA797203D3740410551052D
:102410000CF066C16B966CAD7DAD8EAD9FAD6B97CC
:102420002BE030E040E050E00E94111E6896AFAC17
:1024300068976996BFAC69976A96CFAC6A976B96B6
:10244000DFAC6B97E42CF42C042D142D0E94B81DE6
:10245000F22E032F142FB52FF62FE72FD82EE92EAB
:10246000A0E00E94771F84F42150310941095109ED
:10247000684F7F4F8F4F9F4FF22E032F142FB52F92
:10248000F62FE72FD82EE92E2F2D302F412F5B2F3F
:102490006F2F7E2F8D2D9E2D03E20E943B1F68968D
:1024A0002FAF689769963FAF69976A964FAF6A9763
:1024B0006B965FAF6B97AFE1B0E0A7968CAC9DAC2D
:1024C000AEACBFACA79770ED871A77E0970AA1086A
:1024D000B108A50194010E946D199B01AC01C501D1
:1024E000B4010E94821D7B018C01F3E015950795D4
:1024F000F794E794FA95D1F7AFE3B0E0A501940122
:102500000E946D199B01AC01C501B4010E94821D9E
:102510002B013C01A5E07594679457944794AA95C4
:10252000D1F7EAC0A7968CAD9DADAEADBFADA79774
:10253000803D9740A105B1050CF0BCC06B966CAD19
:102540007DAD8EAD9FAD6B9723E030E040E050E075
:102550000E94111E6896AFAC68976996BFAC6997E8
:102560006A96CFAC6A976B96DFAC6B97E42CF42C31
:10257000042D142D0E94B81DF22E032F142FB52FF9
:10258000F62FE72FD82EE92EA0E00E94771F84F4C3
:1025900021503109410951096E4F7F4F8F4F9F4F95
:1025A000F22E032F142FB52FF62FE72FD82EE92E5A
:1025B0002F2D302F412F5B2F6F2F7E2F8D2D9E2D96
:1025C00001E20E943B1F68962FAF689769963FAF64
:1025D00069976A964FAF6A976B965FAF6B97A3E068
:1025E000B0E0A7968CAC9DACAEACBFACA797F0EDBD
:1025F0008F1AF7E09F0AA108B108A50194010E9473
:102600006D199B01AC01C501B4010E94821D7B01C3
:102610008C0115950795F794E794A5E0B0E0A50126
:1026200094010E946D199B01AC01C501B4010E9487
:10263000821D2B013C01E3E0759467945794479405
:10264000EA95D1F7A7962CAD3DAD4EAD5FADA797FE
:10265000213C69EF36076FEF460756070CF04CC078
:10266000A7E0B0E049015A017CED870E75E0971EA6
:10267000A11CB11CA50194010E946D199B01AC0124
:10268000C501B4010E94821DE60EF71E081F191F26
:10269000A501940162E0220F331F441F551F6A9564
:1026A000D1F7C501B4010E94821D460E571E681E57
:1026B000791E22C0A5019401C501B4010E94821DAA
:1026C0007B018C0144E015950795F794E7944A95B2
:1026D000D1F76B961CAE1DAE1EAE1FAE6B9709C038
:1026E0006B961CAE1DAE1EAE1FAE6B97E12CF12C8F
:1026F0008701412C512C3201D801C701BB0F880B37
:10270000982FDC01A3968CAF9DAFAEAFBFAFA39760
:10271000A8962FADA897A9963FADA997AA964FADB9
:10272000AA97AB965FADAB97E4966FADE497E5964D
:102730007FADE597E6968FADE697E7969FADE79775
:1027400057016801A096EFACA097FE2C0E2D1E2D10
:102750000E946E1F922E832E342E252EA8966FAFC8
:10276000A897A9967FAFA997AA968FAFAA97AB967D
:102770009FAFAB9783017201110FEE08FE2C87010A
:10278000A396ECAEFDAE0EAF1FAFA397AC962FADE8
:10279000AC97AD963FADAD97AE964FADAE97AF96B9
:1027A0005FADAF97E0966FADE097E1967FADE197B3
:1027B000E2968FADE297E3969FADE39752016301F6
:1027C000A096EFACA097FE2C0E2D1E2D0E946E1F22
:1027D00059016A017B018C01A7968CAD9DADAEAD10
:1027E000BFADA7976B962CAD3DAD4EAD5FAD6B9772
:1027F000821B930BA40BB50BEC963FADEC9780932B
:102800002F0490933004A0933104B09332043130FC
:1028100009F069C0EB966CAD7DAD8EAD9FADEB97C9
:10282000AB01BC0180E090E0DC0168964FAF689797
:1028300069965FAF69976A966FAF6A976B967FAF3D
:102840006B976C968FAF6C976D969FAF6D976E96EA
:10285000AFAF6E976F96BFAF6F979A01AB0160E015
:1028600070E080E090E00E94B81DF22E032F142F3C
:10287000B52FF62FE72FD82EE92EA0E00E94771F64
:1028800084F421503109404E5F4F6F4F7F4F8F4F7F
:102890009F4FF22E032F142FB52FF62FE72FD82E90
:1028A000E92E2F2D302F412F5B2F6F2F7E2F8D2D57
:1028B0009E2D05E10E943B1FA92CB82CC32CD22CC5
:1028C000A896EFACA897A996FFACA997AA960FADCA
:1028D000AA97AB961FADAB970E946E1FA12CB12C8F
:1028E000F2E3CF2E67C0EB964CAD5DAD6EAD7FAD24
:1028F000EB979A01AB0160E070E0CB0168962FAFD7
:10290000689769963FAF69976A964FAF6A976B96DB
:102910005FAF6B976C966FAF6C976D967FAF6D974F
:102920006E968FAF6E976F969FAF6F9760E070E077
:1029300080E090E00E94B81DF22E032F142FB52FD7
:10294000F62FE72FD82EE92EA0E00E94771F84F4FF
:1029500021503109404E5F4F6F4F7F4F8F4F9F4F38
:10296000F22E032F142FB52FF62FE72FD82EE92E96
:102970002F2D302F412F5B2F6F2F7E2F8D2D9E2DD2
:1029800005E10E943B1FA92CB82CC32CD22CA89681
:10299000EFACA897A996FFACA997AA960FADAA97F6
:1029A000AB961FADAB970E946E1FA12CE0E4BE2E2C
:1029B000CC24C394D12CE12CF12C00E010E00E9437
:1029C0004D1E2093330430933404409335045093C8
:1029D0003604109216041092150488E60E94C1086D
:1029E0008BE390E00E94CB0880E00E94650841E004
:1029F0006EE088E60E9423081092E5018093E401CE
:102A00000E945E09409178025091790220917A02E9
:102A100030917B02DA01A21BB30B9D01260F371FF9
:102A2000309379022093780260937A0270937B024C
:102A300080937C0290937D028CE193E00E942C02B3
:102A4000182F8CE193E00E942C02EE961FAFEE97B8
:102A5000ED961FAEED97EE96EEADFFADEE978E2B99
:102A60009F2BBC01990F880B990B0E94571B6093F9
:102A700058027093590280935A0290935B028CE142
:102A800093E00E942C02182F8CE193E00E942C020C
:102A9000C158DF4F1883CF57D040EF961FAEEF9746
:102AA000C258DF4FE880F980CE57D0408E299F2949
:102AB000BC01990F880B990B0E94571B60935C0215
:102AC00070935D0280935E0290935F028CE193E0CD
:102AD0000E942C02182F8CE193E00E942C02CF5709
:102AE000DF4F1883C158D040C058DF4F1882C058FC
:102AF000D040C058DF4F08811981C058D040802B8A
:102B0000912BBC01990F880B990B0E94571B609366
:102B100060027093610280936202909363028CE181
:102B200093E00E942C02182F8CE193E00E942C026B
:102B3000CD57DF4F1883C358D040CE57DF4F188290
:102B4000C258D040CE57DF4F28813981C258D0407B
:102B5000822B932BBC01990F880B990B0E94571B5A
:102B6000609370027093710280937202909373026B
:102B70008CE193E00E942C02182F8CE193E00E94DC
:102B80002C02CB57DF4F1883C558D040CC57DF4FAE
:102B90001882C458D040CC57DF4F48815981C4585F
:102BA000D040842B952BBC01990F880B990B0E9468
:102BB000571B609364027093650280936602909342
:102BC00067028CE193E00E942C02182F8CE193E0C5
:102BD0000E942C02C957DF4F1883C758D040CA57EC
:102BE000DF4F1882C658D040CA57DF4F68817981BD
:102BF000C658D040862B972BBC01990F880B990B98
:102C00000E94571B609368027093690280936A0266
:102C100090936B028CE193E00E942C02F82E8CE1E1
:102C200093E00E942C028C0120E030E04AEA53E459
:102C300060917002709171028091720290917302A2
:102C40000E94AD1A28EB3EE142E152E40E94AA192B
:102C5000609370027093710280937202909373027A
:102C60002DEC3CE248E854E460915802709159021E
:102C700080915A0290915B020E94A91920E038E6E7
:102C800040E856E40E94AD1A6093580270935902CE
:102C900080935A0290935B0223E333E348EF53E4BB
:102CA00060915C0270915D0280915E0290915F0282
:102CB0000E94AA1920E034E94FE756E40E94AD1AB9
:102CC00060935C0270935D0280935E0290935F025A
:102CD0002AE939E94EEA54E4609160027091610298
:102CE00080916202909163020E94AA1923E335E465
:102CF00043E856E40E94AD1A60936002709361024B
:102D000080936202909363022CEE31E14FE153E431
:102D100060916402709165028091660290916702F1
:102D20000E94AA1920E030E041EE54E40E94AD1A5E
:102D300060936402709365028093660290936702C9
:102D40002DEC3CEC47EE52E4609168027091690210
:102D500080916A0290916B020E94A91920E030E0F4
:102D600048EC54E40E94AD1A6093680270936902C3
:102D700080936A0290936B02C757DF4FF882C9585D
:102D8000D040C857DF4F1882C858D040C857DF4FCF
:102D900068817981C858D040602B712B072E000CB8
:102DA000880B990B0E94571B24EA30E74DE053E44F
:102DB0000E94AA1920E030E048EC54E40E94AD1AC9
:102DC00060936C0270936D0280936E0290936F0219
:102DD0000E9483090E94830960912F04709130043E
:102DE00080913104909132040E94571B20E030E022
:102DF00048EC52E40E94AD1A0E94261B60934404E2
:102E000060913304709134048091350490913604BC
:102E10000E94571B0E94261B60934704609150023A
:102E20007091510280915202909153020E94261B90
:102E30006093410460915402709155028091560252
:102E4000909157020E94261B60933E048091DF01FF
:102E5000882309F489C080912803811115C060E09E
:102E600070E08FE393E00E946E0660E070E080E522
:102E700093E00E946E0660E070E081E693E00E94BD
:102E80006E0660E070E06AC08091B6033091B703CF
:102E90002091B80390E0831B9109820F911D20912E
:102EA000310330913203829FB001839F700D929F56
:102EB000700D11248FE393E00E946E068091B7039A
:102EC0003091B6032091B80390E0919581959109D6
:102ED000831B9109821B91092091330330913403A4
:102EE000829FB001839F700D929F700D112480E529
:102EF00093E00E946E068091B7033091B603209153
:102F0000B80390E0919581959109831B9109820FF7
:102F1000911D2091350330913603829FB001839F2C
:102F2000700D929F700D112481E693E00E946E0651
:102F30008091B6033091B7032091B80390E0831BD2
:102F40009109821B91092091370330913803829FA8
:102F5000B001839F700D929F700D112482E793E062
:102F60000E946E061092DF018091E503882309F428
:102F7000DFC08091280381110FC060E070E083E81A
:102F800093E00E946E0660E070E084E993E00E94A6
:102F90006E0660E070E0C8C060912F03709130034E
:102FA000072E000C880B990B0E94571B9B01AC014C
:102FB00060E070E0CB010E94AD1A6B017C01609172
:102FC0002F0370913003072E000C880B990B0E9481
:102FD000571B9B01AC0160E070E0CB010E94AD1A71
:102FE0006B966CAF7DAF8EAF9FAF6B9780912D03CB
:102FF00090912E03181619060CF49EC060912903B7
:1030000070912A0380912B0390912C0320E030E0F3
:10301000A9010E94A11C18160CF48EC08091E00337
:103020008823A1F06091D7037091D8038091D903D0
:103030009091DA030E94571B6093E1037093E203BF
:103040008093E3039093E4031092E00360E070E068
:103050008091E003811130C0A0902F03B090300325
:103060006091D7037091D8038091D9039091DA03CE
:103070000E94571B9B01AC016091E1037091E20338
:103080008091E3039091E4030E94A91920E030E0CD
:1030900040EA51E40E94AE1C2B013C01B501BB0C7F
:1030A000880B990B0E94571B9B01AC01C301B20115
:1030B0000E94AD1A0E941F1B072E000C880B990B53
:1030C0000E94571B4B015C01A70196010E94A919A0
:1030D0002B013C016B962CAD3DAD4EAD5FAD6B97BA
:1030E0000E94A9190E941F1B84E993E00E946E06AA
:1030F000A30192016B966CAD7DAD8EAD9FAD6B97CC
:103100000E94AA190E941F1B83E893E00E946E068A
:10311000A7019601C701B6010E94AA19A501940151
:103120000E94AA190E941F1B85EA93E00E946E0666
:103130000E94DE010C94FC0E71E07093E00380901D
:10314000290390902A03A0902B03B0902C03609148
:103150002D0370912E03072E000C880B990B0E94F3
:10316000571B9B01AC01C501B4010E94A91920E0C5
:1031700030E040EA52E40E94AE1C0E941F1B68CF60
:10318000CF92DF92EF92FF92EFE7F2E0138212828A
:1031900088EE93E0A0E0B0E084839583A683B783B4
:1031A0002AE031E03183208325EC30E03587248725
:1031B00024EC30E03787268720EC30E0318B208B01
:1031C00021EC30E0338B228B22EC30E0358B248BEA
:1031D00026EC30E0378B268B118E128E138E148ED8
:1031E000ECE1F3E01382128284839583A683B78394
:1031F0008CE191E0918380831092490410924804FD
:10320000C12C80EAD82E80E8E82E84E4F82EC09203
:103210003804D0923904E0923A04F0923B04E8E298
:10322000F3E02FEF3FEF3287218781E090E0948732
:10323000838736872587908B8787928B818B948BAA
:10324000838B968B858B8FE393E00E94B60C80E591
:1032500093E00E94B60C81E693E00E94B60C82E7F0
:1032600093E00E94B60C83E893E00E94B60C84E9D8
:1032700093E00E94B60C85EA93E00E94B60CC092DF
:10328000DC03D092DD03E092DE03F092DF031092C4
:10329000E503FF90EF90DF90CF900895052E97FB08
:1032A0001EF400940E94651957FD07D00E947819FA
:1032B00007FC03D04EF40C94651950954095309559
:1032C00021953F4F4F4F5F4F089590958095709592
:1032D00061957F4F8F4F9F4F08950E949A19A59F28
:1032E000900DB49F900DA49F800D911D1124089501
:1032F000A1E21A2EAA1BBB1BFD010DC0AA1FBB1FFA
:10330000EE1FFF1FA217B307E407F50720F0A21B6B
:10331000B30BE40BF50B661F771F881F991F1A94D8
:1033200069F760957095809590959B01AC01BD0102
:10333000CF010895A29FB001B39FC001A39F700D5C
:10334000811D1124911DB29F700D811D1124911DAD
:1033500008955058BB27AA270E94C1190C94531CEA
:103360000E941A1C38F00E94211C20F039F49F3F63
:1033700019F426F40C94DC1B0EF4E095E7FB0C9496
:10338000D61BE92F0E94781C58F3BA1762077307FF
:103390008407950720F079F4A6F50C949A1C0EF496
:1033A000E0950B2EBA2FA02D0B01B90190010C0155
:1033B000CA01A0011124FF27591B99F0593F50F46D
:1033C000503E68F11A16F040A22F232F342F4427C5
:1033D000585FF3CF469537952795A795F0405395BD
:1033E000C9F77EF41F16BA0B620B730B840BBAF08D
:1033F0009150A1F0FF0FBB1F661F771F881FC2F7F8
:103400000EC0BA0F621F731F841F48F4879577950B
:103410006795B795F7959E3F08F0B0CF9395880FC5
:1034200008F09927EE0F9795879508959F939F77BA
:10343000EEE389379E0728F4EAE8F0E00E94061CD4
:103440000CC00E94921B9058A2EA2AED3FE049EC82
:103450005FE30E94C1190E94531C0F9007FC905813
:1034600008950E941A1C60F080E891E009F49EEF34
:103470000E94211C28F040E851E071F45EEF0CC07E
:103480000C94DC1B0C949A1CE92FE0780E94781CA9
:1034900040F3092E052AB1F32617370748075907C5
:1034A00038F00E2E07F8E02569F0E025E0640AC048
:1034B000EF6307F8009407FADB01B9019D01DC0115
:1034C000CA01AD01EF930E94C41A0E94531C0E94CE
:1034D000741A5F91552339F02BED3FE049E450FD1C
:1034E00049EC0C94AA190895DF93DD27B92FBF7713
:1034F00040E85FE31616170648075B0718F4D92F54
:103500000E94A61C9F938F937F936F930E94691DC7
:10351000EEE9F0E00E94DF1B0E94531C2F913F91C7
:103520004F915F910E94C11CDD2351F09058A2EA97
:103530002AED3FE049EC5FE3D0785D270E94C11996
:10354000DF910C94531C0E94B21B08F481E0089593
:103550000E942A1CE3950C94641C0E94C11A0C94CE
:10356000531C0E94211C58F00E941A1C40F029F4A0
:103570005F3F29F00C94D61B51110C949B1C0C94AA
:10358000DC1B0E94781C68F39923B1F3552391F357
:10359000951B550BBB27AA2762177307840738F0C2
:1035A0009F5F5F4F220F331F441FAA1FA9F335D01F
:1035B0000E2E3AF0E0E832D091505040E695001CD3
:1035C000CAF72BD0FE2F29D0660F771F881FBB1F8D
:1035D000261737074807AB07B0E809F0BB0B802D6B
:1035E000BF01FF2793585F4F3AF09E3F510578F097
:1035F0000C94D61B0C949B1C5F3FE4F3983ED4F3D1
:10360000869577956795B795F7959F5FC9F7880F6A
:10361000911D9695879597F90895E1E0660F771FBC
:10362000881FBB1F621773078407BA0720F0621B4D
:10363000730B840BBA0BEE1F88F7E09508950E9478
:10364000261B6894B1110C949B1C08950E94801C49
:1036500088F09F5798F0B92F9927B751B0F0E1F053
:10366000660F771F881F991F1AF0BA95C9F714C003
:10367000B13091F00E949A1CB1E008950C949A1C0C
:10368000672F782F8827B85F39F0B93FCCF386953C
:1036900077956795B395D9F73EF490958095709599
:1036A00061957F4F8F4F9F4F0895E89409C097FB16
:1036B0003EF490958095709561957F4F8F4F9F4F09
:1036C0009923A9F0F92F96E9BB279395F69587954D
:1036D00077956795B795F111F8CFFAF4BB0F11F410
:1036E00060FF1BC06F5F7F4F8F4F9F4F16C08823B7
:1036F00011F096E911C0772321F09EE8872F762FED
:1037000005C0662371F096E8862F70E060E02AF02D
:103710009A95660F771F881FDAF7880F9695879519
:1037200097F90895DF93CF931F930F938B01EC01CB
:10373000EBECF0E00E94DF1B0E94531C9801AE01ED
:103740008B01EC0160E070E080E89FE30E94A91922
:103750000E94291D9801AE010F911F91CF91DF9119
:103760000C94C11C990F0008550FAA0BE0E8FEEF5E
:1037700016161706E807F907C0F012161306E40735
:10378000F50798F0621B730B840B950B39F40A262E
:1037900061F0232B242B252B21F408950A2609F40C
:1037A000A140A6958FEF811D811D089597F99F6710
:1037B00080E870E060E008959FEF80EC0895DF936B
:1037C000CF931F930F93FF92EF92DF927B018C01B7
:1037D000689406C0DA2EEF010E94C11CFE01E89435
:1037E000A5912591359145915591A6F3EF010E9440
:1037F000C119FE019701A801DA9469F7DF90EF90F3
:10380000FF900F911F91CF91DF9108959F938F9318
:103810007F936F93FF93EF939B01AC010E94AE1CCB
:10382000EF91FF910E94DF1B2F913F914F915F918C
:103830000C94AE1C00240A941616170618060906E6
:10384000089500240A941216130614060506089516
:103850000C94DC1B0E94801CD8F3E894E0E0BB27AA
:103860009F57F0F02AED3FE049EC06C0EE0FBB0F8A
:10387000661F771F881F28F0B23A62077307840714
:1038800028F0B25A620B730B840BE3959A9572F78A
:10389000803830F49A95BB0F661F771F881FD2F7C8
:1038A00090480C946F1D092E0394000C11F488238A
:1038B00052F0BB0F40F4BF2B11F460FF04C06F5FE8
:1038C0007F4F8F4F9F4F0895EF93E0FF07C0A2EA0D
:1038D0002AED3FE049EC5FEB0E94C1190E94531CA6
:1038E0000F90039401FC9058E3EFF0E00C94061C59
:1038F00057FD9058440F551F59F05F3F71F04795A1
:10390000880F97FB991F61F09F3F79F08795089585
:10391000121613061406551FF2CF4695F1DF08C0A4
:10392000161617061806991FF1CF869571056105C1
:1039300008940895E894BB2766277727CB0197F969
:1039400008950E94B21B08F48FEF08959B01AC010B
:1039500060E070E080E89FE30C94AD1A0E94C11C07
:103960000C94531C0E941A1C38F00E94211C20F059
:10397000952311F00C94D61B0C94DC1B11240C9491
:103980009B1C0E94781C70F3959FC1F3950F50E02B
:10399000551F629FF001729FBB27F00DB11D639F01
:1039A000AA27F00DB11DAA1F649F6627B00DA11DA7
:1039B000661F829F2227B00DA11D621F739FB00D4D
:1039C000A11D621F839FA00D611D221F749F3327BD
:1039D000A00D611D231F849F600D211D822F762F56
:1039E0006A2F11249F5750409AF0F1F088234AF033
:1039F000EE0FFF1FBB1F661F771F881F915050409F
:103A0000A9F79E3F510580F00C94D61B0C949B1C8B
:103A10005F3FE4F3983ED4F3869577956795B79525
:103A2000F795E7959F5FC1F7FE2B880F911D96953F
:103A3000879597F908959F930E942A1C0F9007FC81
:103A4000EE5F0C94641C19F416F40C94DC1B0C94BB
:103A50006D1D0E94801CB8F39923C9F3B6F39F57DC
:103A6000550B87FF0E947B1D0024A0E640EA9001D1
:103A700080585695979528F4805C660F771F881FAD
:103A800020F026173707480730F4621B730B840BAE
:103A9000202931294A2BA6951794079420253125F2
:103AA0004A2758F7660F771F881F20F02617370719
:103AB000480730F4620B730B840B200D311D411D40
:103AC000A09581F7B901842F9158880F9695879515
:103AD00008959B01AC010C94AE1C9F3F31F09150B6
:103AE00020F4879577956795B795880F911D9695E2
:103AF000879597F9089591505040660F771F881F5A
:103B0000D2F70895DB018F939F930E946D19BF91A7
:103B1000AF91A29F800D911DA39F900DB29F900D1C
:103B200011240895991B79E004C0991F961708F095
:103B3000961B881F7A95C9F78095089597FB072EE5
:103B400016F4009407D077FD09D00E94831F07FC6C
:103B500005D03EF4909581959F4F0895709561959D
:103B60007F4F0895EE0FFF1F0590F491E02D09940B
:103B7000DF93CF931F930F939A9DF02D219FF00D0C
:103B80008B9DF00D8A9DE02DF10D039FF00D029F9E
:103B9000E00DF11D4E9DE00DF11D5E9DF00D4F9D60
:103BA000F00D7F936F93BF92AF925F934F93D501C8
:103BB0000E949A198B01AC01D7010E949A19EB015E
:103BC000E80FF91FD6010E94081E2F913F91D601E0
:103BD0000E949A19C60FD71FE81FF91FAF91BF9116
:103BE0000E94081E2F913F910E949A19C60FD71F5D
:103BF000E81FF91FD6010E949A19E60FF71F9801D6
:103C0000BE01CF0111240F911F91CF91DF91089533
:103C10000E949A19460F571FC81FD91F08F43196E2
:103C2000089597FB57FF0C94211E9F938F930E943A
:103C3000211E6E1B7F0BAF91BF918A0B9B0B0895CA
:103C4000E894DF93CF93FC01DB010E949A197F93E4
:103C50006F93E9019A01AC01BF93AF933F932F9308
:103C6000DF010E949A1926F46C1B7D0B820B930BCB
:103C70009E01EB01FC010E94081EAF91BF912F91A4
:103C80003F910E94081EBE01CF01F9012F913F9183
:103C9000CF91DF910895689401C0E894F92FF12B3A
:103CA00012F00C947F1EA0E0B0E0E9E5FEE10C9478
:103CB000F11E092E059422F40E94DB1E112392F4BA
:103CC000F0E80F26FFEFE094F09400951095B09483
:103CD000C094D094A194BF0ACF0ADF0AEF0AFF0A6A
:103CE0000F0B1F0B0E948A1E07FC0E94DB1ECDB724
:103CF000DEB7ECE00C940D1F689401C0E8948F923D
:103D00009F92CF93DF930E948A1EDF91CF919F9065
:103D10008F90089588249924F401E401B0E49F93DE
:103D2000AA279A158B049C04ED05FE05CF05D00744
:103D3000A10798F4AD2FDC2FCF2FFE2FE92D982C63
:103D4000892E982F872F762F652F542F432F322FB0
:103D50002227B85031F7BF9127C01B2EBF91BB2738
:103D6000220F331F441F551F661F771F881F991F7F
:103D7000881C991CEE1FFF1FCC1FDD1FAA1FBB1F35
:103D80008A149B04EC05FD05CE05DF05A007B107ED
:103D900048F08A189B08EC09FD09CE09DF09A00B41
:103DA000B10B21601A94E1F62EF49401AF01BE012B
:103DB000CD01000C08956095709580959095309593
:103DC0004095509521953F4F4F4F5F4F6F4F7F4F1D
:103DD0008F4F9F4F08952F923F924F925F926F9215
:103DE0007F928F929F92AF92BF92CF92DF92EF928B
:103DF000FF920F931F93CF93DF93CDB7DEB7CA1B0C
:103E0000DB0B0FB6F894DEBF0FBECDBF09942A8836
:103E1000398848885F846E847D848C849B84AA84DE
:103E2000B984C884DF80EE80FD800C811B81AA816B
:103E3000B981CE0FD11D0FB6F894DEBF0FBECDBF36
:103E4000ED0108950F93083090F0982F872F762F6B
:103E5000652F542F432F322F22270850F4CF220FE3
:103E6000331F441F551F661F771F881F991F0A9510
:103E7000B2F70F91089597FB10F8169400080F936E
:103E8000083098F00850232F342F452F562F672FD6
:103E9000782F892F902DF4CF059497958795779556
:103EA000679557954795379527950A95AAF70F91E6
:103EB00008952A0D3B1D4C1D5D1D6E1D7F1D801F2D
:103EC000911F08950024A7FD00942A0F301D401D66
:103ED000501D601D701D801D901D08952A193B09FD
:103EE0004C095D096E097F09800B910B0895002430
:103EF000A7FD00942A1730054005500560057005A0
:103F0000800590050895AA1BBB1B51E107C0AA1F9D
:103F1000BB1FA617B70710F0A61BB70B881F991F6A
:103F20005A95A9F780959095BC01CD0108950F93FE
:103F30001F93CF93DF938230910510F482E090E0DD
:103F4000E0915604F091570420E030E0A0E0B0E0AA
:103F5000309719F140815181028113814817590727
:103F6000C8F08417950769F4109731F012960C93F6
:103F7000129713961C9327C000935604109357046E
:103F800022C02115310519F04217530718F49A0180
:103F9000BD01EF01DF01F801DBCF21153105F9F09B
:103FA000281B390B2430310580F48A819B816115EF
:103FB000710521F0FB019383828304C09093570421
:103FC00080935604FE01329644C0FE01E20FF31FB7
:103FD0008193919322503109398328833AC02091EB
:103FE000540430915504232B41F420910201309167
:103FF0000301309355042093540420910001309123
:1040000001012115310541F42DB73EB7409104015E
:1040100050910501241B350BE0915404F091550497
:10402000E217F307A0F42E1B3F0B2817390778F08F
:10403000AC014E5F5F4F2417350748F04E0F5F1FEE
:1040400050935504409354048193919302C0E0E04F
:10405000F0E0CF01DF91CF911F910F910895CF93A1
:10406000DF93009709F481C0FC013297138212821A
:10407000A0915604B0915704109781F420813181AA
:10408000820F931F2091540430915504281739074B
:1040900051F5F0935504E093540467C0ED0120E01E
:1040A00030E0CE17DF0740F44A815B819E01411565
:1040B0005105F1F0EA01F5CFD383C28340815181EC
:1040C000840F951FC817D90759F488819981840FE7
:1040D000951F0296918380838A819B81938382833B
:1040E0002115310529F4F0935704E09356043DC09F
:1040F000E901FB83EA8349915991C40FD51FEC175D
:10410000FD0761F480819181840F951F0296E9017A
:1041100099838883828193819B838A83E0E0F0E0A6
:1041200012968D919C911397009719F0FD01DC0177
:10413000F7CF8D919C9111979D012E5F3F4F820F7C
:10414000931F20915404309155042817390769F4BE
:10415000309729F4109257041092560402C013822B
:104160001282B0935504A0935404DF91CF91089527
:0E41700081E090E0F8940C94BD20F894FFCF0D
:10417E00000058048000000000006F01DC00060102
:10418E00BC0137011501290100000000750248022B
:10419E00A5021C0240022C021D02094D6F746F72A3
:1041AE002072656163682076616C75653A09000D51
:1041BE000A0053746F7070696E672E2E2E00537442
:0A41CE00617274696E672E2E2E00D8
:00000001FF
