:100000000C94B2000C94DA000C94DA000C94DA0030
:100010000C94DA000C94DA000C94DA000C94BC0610
:100020000C94DA000C94DA000C94DA000C948F052E
:100030000C94DA000C94DA000C94DA000C94DA00D8
:100040000C948E0C0C9458070C942F040C940904F7
:100050000C94DA000C94DA000C94DA000C94DA00B8
:100060000C9461040C94DA00CD07D407EF07D9078C
:100070000008000800080008F707F407FA0700085E
:1000800000080008A607E207EF07036EDB363D9A7B
:100090009999993DABAAAA2A3E000000803F084AE0
:1000A000D73B3BCE016E84BCBFFDC12F3D6C74318C
:1000B0009ABD56833DDA3D00C77F11BED9E4BB4CE3
:1000C0003E916BAAAABE000000803F072C7AA5BA19
:1000D0006CC590DA3B9365FC8BBC53F810FD3C5625
:1000E00092834DBD879D3AB63DCBC9BF5BBE73DAE7
:1000F0000FC93F05A84CCDB2D44EB93836A9020C71
:1001000050B9918688083CA6AAAA2ABE00000080A1
:100110003F00000000080002010000030407000087
:1001200000000000000000000000250028002B0057
:1001300000000000240027002A0004040404040432
:100140000404020202020202030303030303010286
:100150000408102040800102040810200102040855
:100160001020BA1911241FBECFEFD8E0DEBFCDBFDB
:1001700011E0A0E0B1E0EEE7F3E402C005900D92DB
:10018000AC33B107D9F724E0ACE3B1E001C01D9274
:10019000A933B207E1F710E0C2EBD0E004C0219729
:1001A000FE010E94B21EC13BD107C9F70E94D80CC4
:1001B0000C94BD210C940000CF92DF92EF92FF923D
:1001C0000F931F93CF93DF936C017A018B01C0E0F3
:1001D000D0E0CE15DF0581F0D8016D918D01D601FB
:1001E000ED91FC910190F081E02DC6010995892BDC
:1001F00011F02196EECF7E01C701DF91CF911F91C3
:100200000F91FF90EF90DF90CF900895FC01538DF8
:10021000448D252F30E0842F90E0821B930B5417E0
:1002200010F0CF96089501970895FC01918D828D6D
:10023000981761F0828DDF01A80FB11D5D968C913A
:10024000928D9F5F9F73928F90E008958FEF9FEF45
:100250000895FC01918D828D981731F0828DE80F01
:10026000F11D858D90E008958FEF9FEF0895FC01BB
:10027000918D228D892F90E0805C9F4F821B910988
:100280008F73992708958EE692E00E94370121E04E
:10029000892B09F420E0822F0895FC01848DDF0171
:1002A000A80FB11DA35ABF4F2C91848D90E00196E9
:1002B0008F739927848FA689B7892C93A089B189D8
:1002C0008C91837080648C93938D848D981306C079
:1002D0000288F389E02D80818F7D80830895EF92DD
:1002E000FF920F931F93CF93DF93EC0181E0888FF0
:1002F0009B8D8C8D981305C0E889F989808185FDD7
:1003000026C0F62E0B8D10E00F5F1F4F0F731127C5
:10031000E02E8C8DE8120CC00FB607FCFACFE889EE
:10032000F989808185FFF5CFCE010E944D01F1CF83
:100330008B8DFE01E80FF11DE35AFF4FF0829FB74E
:10034000F8940B8FEA89FB89808180620AC09FB78D
:10035000F894EE89FF896083E889F9898081837048
:10036000806480839FBF81E090E0DF91CF911F91F7
:100370000F91FF90EF900895CF93DF93EC01888D5C
:100380008823C9F0EA89FB89808185FD05C0A88999
:10039000B9898C9186FD0FC00FB607FCF5CF80811F
:1003A00085FFF2CFA889B9898C9185FFEDCFCE0169
:1003B0000E944D01E7CFDF91CF91089580E090E05A
:1003C000892B29F00E94430181110C9400000895AB
:1003D00085ED8093BC008091BC0084FDFCCF109221
:1003E0003E0208954091AC01262F30E0240F311DCC
:1003F00021323105DCF420913E022430C9F4FC01A5
:1004000080E090E0861758F43091AC012191DC0136
:10041000A457BE4FA30FB11D2C930196F3CF80912B
:10042000AC01680F6093AC0180E0089581E008950D
:1004300082E00895089508950895E091D40180918F
:10044000D301E81730F4F0E0E850FE4F808190E0EF
:1004500008958FEF9FEF08959091D4018091D3017B
:10046000981750F4E92FF0E0E850FE4F208130E07B
:100470009F5F9093D40102C02FEF3FEFC901089511
:100480008091D30190E02091D401821B91090895BD
:10049000CF92DF92EF92FF920F931F93CF93DF9350
:1004A0007C01CB018A012091D501222389F0EB0147
:1004B0006B01C40ED51ECC15DD0569F06991D7011D
:1004C000ED91FC910190F081E02DC7010995F3CFEA
:1004D000642F0E94F201C801DF91CF911F910F910B
:1004E000FF90EF90DF90CF900895CF93DF931F920E
:1004F000CDB7DEB769832091D5012223D1F02091B9
:10050000F701203240F021E030E0FC013383228308
:1005100080E090E015C08091D601E82FF0E0E9522C
:10052000FE4F998190838F5F8093D6018093F7016E
:1005300005C061E0CE0101960E94F20181E090E0E9
:100540000F90DF91CF910895089580E090E0089595
:10055000FC0190819C3088F5818128E830E0281BDF
:10056000310987FD3395220F331F220F331F621786
:10057000730784F0828148E552E0481B510987FDEA
:100580005395440F551F440F551F9B01461757079E
:100590000CF49A0122503109220F331F4FB7F894FF
:1005A000892F90E0FC01EE0FFF1F8E0F9F1FFC01B3
:1005B000E859FE4F328321834FBF0895CF93DF93D5
:1005C000EC01288139818A819B812817390704F53C
:1005D000888199812A813B81821B930B1816190609
:1005E0002CF4888199812A813B8104C08A819B8176
:1005F00028813981821B930B2C813D8182179307BF
:100600003CF12C813D8188819981820F931F29C003
:10061000288139818A819B818217930724F58881FB
:1006200099812A813B81821B930B181619062CF4A1
:10063000888199812A813B8104C08A819B8128819C
:100640003981821B930B2C813D81821793071CF407
:100650008A819B8106C02C813D8188819981821B82
:10066000930B9983888368817981CE010E960E94CD
:10067000A802488159812A813B8181E042175307B2
:1006800009F080E0DF91CF910895613921E0720790
:1006900014F060E971E077FF02C060E070E02CEDDB
:1006A00035E0261B370BFC013187208764527A4FD7
:1006B0007783668308958F929F92AF92BF92CF9275
:1006C000DF92EF92FF920F931F93CF93DF93FC0182
:1006D000EB55FF4F2081222309F462C08B01EC010E
:1006E000FB01EE0FFF1FEE0FFF1FEC0FFD1F8788B2
:1006F000908CA18CB28C20E030E040EF52E4C50138
:10070000B4010E94AE1D0E941F1C6B017C01CE0132
:10071000C4960E944503B601CE0183960E9445030C
:10072000B601CE018A5A9F4F0E944503B601CE0101
:100730008B5B9F4F0E9445030115110591F42F8992
:10074000388D498D5A8D6B8D7C8D8D8D9E8D0E943F
:10075000AA1A20E030E040E05FE30E94AE1D4B01AA
:100760005C0120E030E040EF52E4C501B4010E949A
:10077000AE1D0E941F1C6B017C01CE0189599F4F49
:100780000E944503B601CE0188589F4F0E94450341
:10079000B601CE0187579F4F0E94450318870F83EC
:1007A000DF91CF911F910F91FF90EF90DF90CF904D
:1007B000BF90AF909F908F9008950E94B8210F93A3
:1007C0001F93CF93DF938C01C0916401D091650199
:1007D000209749F484E090E00E949720909365016F
:1007E000809364010CC08A819B81009711F0EC0119
:1007F000FACF84E090E00E9497209B838A83FC01DB
:100800001183008313821282DF91CF911F910F9188
:1008100008951F920F920FB60F9211242F933F93BA
:100820004F935F936F937F938F939F93AF93BF93F8
:10083000EF93FF938EE692E00E944D01FF91EF91BE
:10084000BF91AF919F918F917F916F915F914F91E8
:100850003F912F910F900FBE0F901F9018951F92F0
:100860000F920FB60F9211242F938F939F93EF93B4
:10087000FF93E0917E02F0917F028081E0918402FB
:10088000F091850282FD12C09081809187028F5F76
:100890008F7320918802821751F0E0918702F0E077
:1008A000E259FD4F958F8093870201C08081FF91AF
:1008B000EF919F918F912F910F900FBE0F901F90EE
:1008C00018951F920F920FB60F9211242F933F93FA
:1008D0004F935F936F937F938F939F93AF93BF9348
:1008E000EF93FF938091B900887F803609F49CC014
:1008F00068F5883209F45BC090F4803109F454C083
:1009000038F4882309F4F6C0883009F44DC0F6C0E5
:10091000883109F44CC0803209F45DC0EFC08034E6
:1009200009F468C048F4803309F455C0883309F0ED
:10093000E5C080933C02D8C0803509F44FC08835AB
:1009400009F45DC0883409F0D9C0D6C0883909F4EB
:10095000C7C0A8F4883709F467C038F4883609F4AA
:1009600063C0803709F460C0C9C0883809F4B8C0D2
:10097000803909F45FC0803809F0C0C05BC0803B9B
:1009800009F486C038F4803A09F466C0883A09F45C
:100990007FC0B4C0803C09F4A7C0883C09F4A4C05F
:1009A000883B09F48AC0AAC08091390210C0909196
:1009B0003B0280913A02981770F5E0913B0281E08A
:1009C0008E0F80933B02F0E0E85EFD4F80818093C4
:1009D000BB0085EC86C080933C028EC0E0913B0258
:1009E00081E08E0F80933B028091BB00F0E0E85ED7
:1009F000FD4F808390913B0280913A026EC0E0915E
:100A00003B0281E08E0F80933B028091BB00F0E0BF
:100A1000E85EFD4F808380913D0281116DC081E0D1
:100A20008093380284EA61C083E080933E02109292
:100A3000CE01CFCF8091CE01803208F051C0E0913D
:100A4000CE0181E08E0F8093CE018091BB00F0E05B
:100A5000E255FE4F8083BDCF85EC8093BC001092A1
:100A60003E028091CE01803230F4E091CE01F0E080
:100A7000E255FE4F10826091CE0170E0E0913C01A2
:100A8000F0913D018EEA91E009951092CE0136C0B9
:100A900084E080933E021092AD011092AC01E0918F
:100AA0003E01F0913F0109958091AC01811105C093
:100AB00081E08093AC0110928C01E091AD0181E066
:100AC0008E0F8093AD01F0E0E457FE4F808180935C
:100AD000BB009091AD018091AC01981708F479CFDB
:100AE00085E88093BC000AC085EC8093BC0010921E
:100AF0003E0204C010923C020E94E801FF91EF9177
:100B0000BF91AF919F918F917F916F915F914F9125
:100B10003F912F910F900FBE0F901F9018951F922D
:100B20000F920FB60F9211242F933F934F935F9321
:100B30006F937F938F939F93AF93BF93EF93FF93A5
:100B40008091670187FF05C0109285001092840094
:100B50001BC020916701022E000C330B80916601AF
:100B600090E02817390784F480916701082E000C63
:100B7000990BFC01EE0FFF1F8E0F9F1FFC01E85920
:100B8000FE4F808186FD15C0809167018F5F809345
:100B9000670120916701022E000C330B80916601E2
:100BA00090E028173907C4F4809167018C3064F114
:100BB00013C080916701082E000C990BFC01EE0F09
:100BC000FF1F8E0F9F1FFC01E859FE4F808160E0E0
:100BD0008F730E944309D8CF809184009091850043
:100BE000049680349C4918F480E49CE905C0809107
:100BF00084009091850004969093890080938800EA
:100C00008FEF809367013BC0209184003091850075
:100C100080916701082E000C990BFC01EE0FFF1F5D
:100C20008E0F9F1FFC01E859FE4F81819281820F38
:100C3000931F909389008093880080916701082E0C
:100C4000000C990BFC01EE0FFF1F8E0F9F1FFC0184
:100C5000E859FE4F808186FF12C080916701082EFF
:100C6000000C990BFC01EE0FFF1F8E0F9F1FFC0164
:100C7000E859FE4F808161E08F730E944309FF9124
:100C8000EF91BF91AF919F918F917F916F915F9104
:100C90004F913F912F910F900FBE0F901F9018957D
:100CA000EF92FF920F931F93CF93DF93EC017D8719
:100CB0006C87EC84FD848C01025F1F4F8E858C3025
:100CC00008F04FC08E2D0E9424098E85E82FF0E099
:100CD0009F01220F331FE20FF31FE859FE4F9E2D95
:100CE0009F732081207CE22EE92AE0821F86188AE9
:100CF0006CE00E94921E9CE0899FB001112440E0AC
:100D000050E09B01240F351FF901EE0FFF1F2E0F3E
:100D10003F1FF901E859FE4F908196FD16C04F5FC5
:100D20005F4F4C30510569F781110FC01092800060
:100D300082E0809381001092850010928400B19A25
:100D400080916F00826080936F00EE85F0E0CF01AC
:100D5000880F991FE80FF91FE859FE4F80818064C2
:100D600080836CED75E0C801DF91CF911F910F91E9
:100D7000FF90EF900C94A8021F920F920FB60F9263
:100D800011242F933F934F935F936F937F938F9390
:100D90009F93AF93BF93CF93DF93EF93FF93C09154
:100DA0006401D09165012097D1F0E881F981EE0FBF
:100DB000FF1FEA5AFE4F808191810E94DE0281115D
:100DC00004C0888199810E94DF038A819B8190936E
:100DD000650180936401CE010E942F2104C080919F
:100DE000700010927000FF91EF91DF91CF91BF9151
:100DF000AF919F918F917F916F915F914F913F91B3
:100E00002F910F900FBE0F901F901895CF92DF92E9
:100E1000EF92FF92CF93DF93EC01603871053CF4C1
:100E200062388FEF78072CF462E87FEF02C06FE73B
:100E300070E08E819F81C884D9840D2C000CEE084F
:100E4000FF08AB01770F660B770B9A01AB012258B5
:100E50003F4F4F4F5F4F092E000CAA0BBB0BBC013D
:100E6000CD016C197D098E099F090E94821E2DEF0C
:100E700030E040E050E00E944E1AC20ED31EE41E45
:100E8000F51EDB82CA82CE010E94DE02811109C0FA
:100E90008A859B850E94DF03809170008260809329
:100EA0007000DF91CF91FF90EF90DF90CF90089589
:100EB0001F920F920FB60F9211242F933F934F93CF
:100EC0005F936F937F938F939F93AF93BF93EF93B2
:100ED000FF938EB580935301809140019091410121
:100EE00001969093410180934001FC01EE0FFF1F9A
:100EF0008E0F9F1FFC01ED5EFB4F82818EBD8091A6
:100F0000400190914101039724F010924101109209
:100F1000400181E08093420190915301911103C0FF
:100F200080935201189580915201882309F46FC073
:100F3000E09153018E2F90E0FC013497E131F105EF
:100F400008F05EC0EC5CFF4F0C94B21E809117035A
:100F5000882379F01092B2031092B1031092B40377
:100F60001092B3031092B6031092B50310921703B8
:100F700047C08091430190914401A0914501B091F7
:100F8000460121E0209317038093B8039093B9039F
:100F9000A093BA03B093BB0333C081E090E0909379
:100FA0001D0380931C032CC010921D0310921C0380
:100FB00027C0109218031092190310921A0310926E
:100FC0001B031EC080E090E0A0ECBFE380931803F9
:100FD00090931903A0931A03B0931B0311C080E0F0
:100FE00090E0A0E8BFE3F2CF62E070E005C061E00E
:100FF00070E002C060E070E087E193E00E945B0374
:101000001092520110925101109250013DC08091F6
:101010005001909151019C012F5F3F4F309351013E
:10102000209350018130910579F082309105B1F023
:10103000892BE9F48091530190E08F5791099093A7
:10104000B2038093B10313C08091530190E08F5796
:1010500091099093B4038093B30309C08091530125
:1010600090E08F5791099093B6038093B5038091D8
:10107000500190915101039724F010925101109268
:10108000500181E080934701FF91EF91BF91AF91B3
:101090009F918F917F916F915F914F913F912F9190
:1010A0000F900FBE0F901F901895009769F0FC01EC
:1010B00001900020E9F73197AF01481B590BBC01A3
:1010C0008EE692E00C94DC0080E090E00895909130
:1010D0003E029111FCCF91E090933E0240933D027D
:1010E0002FEF20933C0210923B02260F20933A02EE
:1010F0009093390290913902880F892B809339029D
:1011000080913802813061F4109238028091390266
:101110008093BB008091BC0083FDF8CF85EC01C0BB
:1011200085EE8093BC0080913E028130E1F3809196
:101130003B02861710F460913B02A8E1B2E0E8EFB1
:10114000F1E080E0861721F09D9191938F5FFACFB7
:101150000895282F3091F701313208F04AC080916C
:101160003E028111FCCF9091340442E040933E0254
:1011700020933D022FEF20933C0210923B023093CC
:101180003A02E7EDF1E0A8E1B2E020E0321721F009
:1011900041914D932F5FFACF10923902209139027D
:1011A000990F922B9093390290913802913061F40B
:1011B00010923802909139029093BB009091BC003C
:1011C00093FDF8CF95EC01C095EE9093BC00909103
:1011D0003E029230E1F390913C029F3F79F0809182
:1011E0003C02803241F080913C02803331F084E057
:1011F00005C081E003C082E001C083E01092D60107
:101200001092F7011092D501089591E09093D501C5
:10121000809334041092D6011092F7010895682F3C
:101220008BE093E00C947502813208F080E241E09B
:10123000682F86E70E9467081092D4018093D3013B
:10124000089581E00C94A90890E0FC01E25BFE4F58
:101250002491FC01E65CFE4F8491882399F090E094
:10126000880F991FFC01E05DFE4FA591B491FC0130
:10127000EA5DFE4F859194918FB7F894EC91E22B43
:10128000EC938FBF089590E0FC01EE5EFE4F249139
:10129000FC01E25BFE4F3491FC01E65CFE4FE49101
:1012A000EE2309F43CC0222339F1233091F038F4C5
:1012B0002130A9F0223001F584B58F7D12C027308E
:1012C00091F02830A1F02430B9F4809180008F7D16
:1012D00003C0809180008F77809380000DC084B51B
:1012E0008F7784BD09C08091B0008F7703C0809153
:1012F000B0008F7D8093B000F0E0EE0FFF1FEA5D3D
:10130000FE4FA591B4919FB7F894611104C08C91E0
:101310003095382302C0EC913E2B3C939FBF08953B
:101320003FB7F8948091300490913104A091320439
:10133000B091330426B5A89B05C02F3F19F0019644
:10134000A11DB11D3FBFBA2FA92F982F8827820F4B
:10135000911DA11DB11DBC01CD0142E0660F771F9B
:10136000881F991F4A95D1F708954F925F926F9207
:101370007F928F929F92AF92BF92CF92DF92EF9225
:10138000FF92CF93DF93CDB7DEB7A4970FB6F89453
:10139000DEBF0FBECDBF0E9490090E9490096093EE
:1013A000690270936A0280936B0290936C02809141
:1013B000530290915402A0915502B0915602BC0183
:1013C000CD0190582FE832EC45EF5CE30E94AE1D52
:1013D0002B013C018091570290915802A091590233
:1013E000B0915A02BC01CD0190582FE832EC45EF84
:1013F0005CE30E94AE1D4B015C012FE832EC45EF2F
:101400005CE360915B0270915C0280915D0290915F
:101410005E020E94AE1D6B017C01C301B2010E94FD
:10142000A81B6D837E838F839887C501B4010E94BA
:10143000A81B69877A878B879C87C701B6010E94A2
:10144000A81B6D877E878F87988B80914302909130
:101450004402A0914502B0914602898B9A8BAB8BD6
:10146000BC8BBC01CD010E94A81B6D8B7E8B8F8B2A
:10147000988F80913F0290914002A0914102B091DB
:101480004202898F9A8FAB8FBC8FBC01CD010E9425
:10149000A81B69837A838B839C83C301B2010E945A
:1014A0001B1E6D8F7E8F8F8F98A3C501B4010E9484
:1014B0001B1E69A37AA38BA39CA3C701B6010E943C
:1014C0001B1E2B013C0169897A898B899C890E94AA
:1014D0001B1E698B7A8B8B8B9C8B698D7A8D8B8D88
:1014E0009C8D0E941B1E6B017C0129813A814B81DE
:1014F0005C816D857E858F8598890E94AE1D2989C6
:101500003A894B895C890E94AE1D4B015C01A701A1
:101510009601C301B2010E94AE1D9B01AC01C50141
:10152000B4010E94AA1A4B015C01A70196016D85C6
:101530007E858F8598890E94AE1D6B017C01A30179
:10154000920169817A818B819C810E94AE1D2989DB
:101550003A894B895C890E94AE1D9B01AC01C70191
:10156000B6010E94A91A6D877E878F87988B9B0191
:10157000AC0169A17AA18BA19CA10E94AE1D6B0157
:101580007C0129813A814B815C8169857A858B85D3
:101590009C850E94AE1D2D893E894F89588D0E94E1
:1015A000AE1D9B01AC01C701B6010E94A91A2B0117
:1015B0003C016D8D7E8D8F8D98A19058A501940171
:1015C0000E94AE1D6B017C01A30192016D817E81A1
:1015D0008F8198850E94AE1D9B01AC01C701B601A9
:1015E0000E94A91A6B017C01A50194016D817E8185
:1015F0008F8198850E94AE1D4B015C01A301920171
:101600006D8D7E8D8F8D98A10E94AE1D9B01AC01CA
:10161000C501B4010E94A91A4B015C01A701960102
:101620000E94441B6D837E838F839887609343025F
:10163000709344028093450290934602A501940161
:10164000C501B4010E94AE1D4B015C01A7019601CA
:10165000C701B6010E94AE1D9B01AC01C501B401DA
:101660000E94AA1A0E94291E6B017C0129813A81DD
:101670004B815C816D897E898F89988D0E94AE1D1A
:1016800029A13AA14BA15CA10E94AE1D4B015C01B6
:101690002D853E854F85588969857A858B859C8502
:1016A0000E94AE1D9B01AC01C501B4010E94AA1AA3
:1016B000A70196010E94441B69877A878B879C87C4
:1016C00060933F02709340028093410290934202E4
:1016D0008091470290914802A0914902B0914A023C
:1016E00089839A83AB83BC8320E030E0A901BC01ED
:1016F000CD010E94A11D181634F069817A818B8179
:101700009C81905804C069817A818B819C819B0166
:10171000AC010E94AE1D6B017C0180904B02909049
:101720004C02A0904D02B0904E0220E030E0A901A2
:10173000C501B4010E94A11D181624F0C501B40111
:10174000905802C0C501B4019B01AC010E94AE1DBE
:10175000A70196010E94AA1A6B017C0140904F02DA
:1017600050905002609051027090520220E030E0A0
:10177000A901C301B2010E94A11D181624F0C301E2
:10178000B201905802C0C301B2019B01AC010E949A
:10179000AE1DA70196010E94AA1A0E94291E6B0184
:1017A0007C0126E636E646E65FE30E94A11D181698
:1017B0000CF065C02DEC3CEC4CE85FE3C701B601D2
:1017C0000E94A31B87FF5BC0A30192015058C50173
:1017D000B4010E94441B2B013C0169817A818B81F9
:1017E0009C819058A70196015F770E94AD1B0E94D3
:1017F000161B6B017C0126E636E646E65FE36D814B
:101800007E818F8198850E94AE1D4B015C012DEC7D
:101810003CEC4CEC5DE3C301B2010E94AE1D9B01A8
:10182000AC01C501B4010E94AA1A609343027093EF
:101830004402809345029093460226E636E646E649
:101840005FE369857A858B859C850E94AE1D4B017F
:101850005C012DEC3CEC4CEC5DE3C701B6010E9451
:10186000AE1D9B01AC01C501B4010E94AA1A609390
:101870003F02709340028093410290934202A496EB
:101880000FB6F894DEBF0FBECDBFDF91CF91FF90B2
:10189000EF90DF90CF90BF90AF909F908F907F9010
:1018A0006F905F904F9008958F929F92AF92BF92EA
:1018B000CF92DF92EF92FF926B017C010E94900920
:1018C0004B015C01C114D104E104F104F1F00E9468
:1018D0009009DC01CB0188199909AA09BB09883E46
:1018E0009340A105B10570F321E0C21AD108E108C7
:1018F000F10888EE880E83E0981EA11CB11CC1146B
:10190000D104E104F10419F7DDCFFF90EF90DF90EF
:10191000CF90BF90AF909F908F9008951F920F929D
:101920000FB60F9211242F933F938F939F93AF93F2
:10193000BF938091CF019091D001A091D101B0913E
:10194000D20130912F0423E0230F2D3720F401968C
:10195000A11DB11D05C026E8230F0296A11DB11DD2
:1019600020932F048093CF019093D001A093D101B5
:10197000B093D2018091300490913104A09132044F
:10198000B09133040196A11DB11D80933004909352
:101990003104A0933204B0933304BF91AF919F916F
:1019A0008F913F912F910F900FBE0F901F90189520
:1019B000CF93DF93CDB7DEB7C358D1090FB6F894F4
:1019C000DEBF0FBECDBF789484B5826084BD84B580
:1019D000816084BD85B5826085BD85B5816085BD2A
:1019E00080916E00816080936E00109281008091E2
:1019F000810082608093810080918100816080936A
:101A00008100809180008160809380008091B1008E
:101A100084608093B1008091B00081608093B000B9
:101A200080917A00846080937A0080917A0082604D
:101A300080937A0080917A00816080937A0080910F
:101A40007A00806880937A001092C100E0917E0253
:101A5000F0917F0282E08083E0917A02F0917B0234
:101A60001082E0917C02F0917D028FEC80831092D5
:101A70008602E0918202F091830286E08083E09109
:101A80008002F0918102808180618083E0918002F8
:101A9000F0918102808188608083E0918002F091E2
:101AA0008102808180688083E0918002F0918102D0
:101AB00080818F7D808320E030E080911F049091B1
:101AC00020048430910590F4AC014F5F5F4F509338
:101AD000200440931F04FC01EE0FFF1F8E0F9F1F79
:101AE000FC01ED5EFB4F3183208312822F5F3F4F5D
:101AF0002430310511F710924101109240011092EB
:101B0000D4011092D3011092D6011092F7011092D5
:101B10003E0211E010933D021092380261E082E132
:101B20000E94430961E083E10E9443098091B9006A
:101B30008E7F8093B9008091B9008D7F8093B9002A
:101B400088E48093B80085E48093BC008AE192E049
:101B500090933F0180933E018BE192E090933D0191
:101B600080933C0188E60E9405098BE690E00E9484
:101B70000F0980E090E00E940F0981E00E94A9080F
:101B800068EE73E080E090E00E94540C10930E0425
:101B900080E090E4A9E7B4E480930F0490931004EC
:101BA000A0931104B093120486E70E9405098EE108
:101BB00090E00E940F090E9421096AE070E080E035
:101BC00090E00E94540C5EEEE52E53E0F52E00EA04
:101BD00010E086E70E940509C8010E940F090E94D3
:101BE000210941E062E086E70E9467081092D40173
:101BF0008093D3018BE093E00E942C02B82E8BE0FF
:101C000093E00E942C02DB2CC12C8C299D29D7014A
:101C10008D939D937D010E5F1F4F0E3A1105C9F6FE
:101C20008091EE039091EF039F709093EF03809368
:101C3000EE031092FD031092FC0368EE73E080E067
:101C400090E00E94540C8FE2EFE3F2E0DE01119687
:101C500001900D928A95E1F768E070E08EE793E0DD
:101C60000E94500667E070E08FE893E00E94500603
:101C700064E070E080EA93E00E94500665E070E066
:101C80008BE493E00E94500666E070E08AE393E004
:101C90000E94500663E070E08DE693E00E945006DB
:101CA00062E070E08CE593E00E9450061092B2036F
:101CB0001092B1031092B4031092B3031092B603C2
:101CC0001092B503109217038FE2FE013196ADEB2F
:101CD000B3E001900D928A95E1F71092B70381E08D
:101CE00090E090931F0380931E038093BC0368EBE6
:101CF0007BE080E090E00E94540CF8948CE00E941D
:101D000024098CB580648CBD8FEF8EBD8CB5806846
:101D10008CBD78948EE190E0A0E0B0E08093210447
:101D200090932204A0932304B09324042FB7F89433
:101D30008091CF019091D001A091D101B091D201B9
:101D40002FBF8093250490932604A0932704B0937B
:101D5000280410922E0410922D0410922B0410923D
:101D60002C0480912D0490912E04892B31F52FB7EE
:101D7000F8948091CF019091D001A091D101B091C0
:101D8000D2012FBF40912504509126046091270471
:101D900070912804841B950BA60BB70B409121046E
:101DA00050912204609123047091240484179507B4
:101DB000A607B70710F00C941C1980912D04909180
:101DC0002E04019711F00C9418192FB7F8948091F4
:101DD000CF019091D001A091D101B091D2012FBF3C
:101DE0008093250490932604A0932704B09328049D
:101DF00010922E0410922D0410922B0410922C0499
:101E0000B1E4B0937C0080917A00806480937A0082
:101E100080917A0086FDFCCF6091780080917900F6
:101E200070E0782B072E000C880B990B0E94571C32
:101E30002AEA31EF42E050E40E94AD1B60934C016E
:101E400070934D0180934E0190934F010E94900931
:101E5000009148011091490120914A0130914B01B4
:101E6000DC01CB01801B910BA20BB30B81329E4492
:101E7000A105B10560F00E9490096093480170933C
:101E8000490180934A0190934B0181E001C080E0B9
:101E90002091EC033091ED03232BA9F4882399F0D2
:101EA00086E70E9405098AE490E00E940F090E94DB
:101EB00021098091EC039091ED0301969093ED033D
:101EC0008093EC0380E02091EC033091ED0321300E
:101ED000310509F06BC0882309F468C086E70E94C9
:101EE000050980E090E00E940F090E94210983E02B
:101EF00090E00E9414091092FE031092FF031092CA
:101F00000004109201048BE093E00E942C024C012B
:101F1000990FAA08BB088092FE039092FF03A0923B
:101F20000004B09201048BE093E00E942C02BA2CD2
:101F3000A92C982C88246C01990FEE08FF08C8285A
:101F4000D928EA28FB28C092FE03D092FF03E09232
:101F50000004F09201048BE093E00E942C02FE2C1E
:101F6000ED2CDC2CCC24092E000CAA0BBB0BC82AB0
:101F7000D92AEA2AFB2AC092FE03D092FF03E092FC
:101F80000004F092010486E70E9405098AE590E0CA
:101F90000E940F090E9421098091EC039091ED03AA
:101FA00001969093ED038093EC0380E02091EC0385
:101FB0003091ED032230310509F039C5882309F449
:101FC00036C586E70E94050980E090E00E940F096F
:101FD0000E94210983E090E00E94140910920204FB
:101FE0001092030410920404109205048BE093E015
:101FF0000E942C024C01990FAA08BB08809202048F
:1020000090920304A0920404B09205048BE093E044
:102010000E942C02BA2CA92C982C88246C01990FB0
:10202000EE08FF08C828D928EA28FB28C092020435
:10203000D0920304E0920404F09205048BE093E054
:102040000E942C02FE2CED2CDC2CCC24092E000C42
:10205000AA0BBB0BC82AD92AEA2AFB2AC09202047F
:10206000D0920304E0920404F09205048091F803F6
:102070009091F903A0E0B0E0BA2FA92F982F8827FC
:1020800097018601081B190B2A0B3B0B65960CAFB9
:102090001DAF2EAF3FAF659710910E04E6961FAFB0
:1020A000E697E091F403F091F503E090F003F090EF
:1020B000F1032091FE033091FF0340910004509101
:1020C0000104E5962CAF3DAF4EAF5FAFE597113001
:1020D00009F09FC0970140E050E060E070E080E0D0
:1020E00090E000E10E94222019012A013B014C01ED
:1020F000BF0180E090E065962CAD3DAD4EAD5FAD8B
:1021000065970E94111FF22E032F142FB52FF62F63
:10211000E72FD82EE92EA0E00E9477205CF4AFE7ED
:102120000E946220F22E032F142FB52FF62FE72FD7
:10213000D82EE92E2F2D302F412F5B2F6F2F7E2F82
:102140008D2D9E2D07E00E943B2059016A017B01E5
:102150008C019101A201B301C4010E945920A696ED
:102160002FAFA697A7963FAFA797A8964FAFA89770
:10217000A9965FAFA997AA966FAFAA97AB967FAFC4
:10218000AB97AC968FAFAC97AD969FAFAD97E09104
:10219000F603F091F7038090F2039090F30394011B
:1021A00040E050E060E070E080E090E001E10E94FB
:1021B000222019012A013B014C01BF0180E090E07F
:1021C00065962CAD3DAD4EAD5FAD65970E94111F7C
:1021D000F22E032F142FB52FF62FE72FD82EE92E2E
:1021E000A0E00E9477205CF4AFE30E946220F22E10
:1021F000032F142FB52FF62FE72FD82EE92E2F2DD2
:10220000302F412F5B2F6F2F7E2F8D2D9E2D06E0BF
:10221000A8C0BF0180E090E065962CAD3DAD4EAD0D
:102220005FAD65970E94111FD22E032F142FB52F7B
:10223000F62FE72FB82EC92EA0E00E94772084F455
:1022400021503F4F4F4F5F4F6F4F7F4F8F4F9F4FEB
:10225000D22E032F142FB52FF62FE72FB82EC92E0D
:102260002D2D302F412F5B2F6F2F7E2F8B2D9C2DEF
:1022700008E00E943B2039014A01B62FA72FF82F12
:10228000E92FC12CD12C9701A60160E070E080E01D
:1022900090E00FE00E94222059016A017B018C012D
:1022A0009301A4016B2F7A2F8F2F9E2F0E9459200C
:1022B000A6962FAFA697A7963FAFA797A8964FAF22
:1022C000A897A9965FAFA997AA966FAFAA97AB9662
:1022D0007FAFAB97AC968FAFAC97AD969FAFAD97F6
:1022E000E091F603F091F7038090F2039090F303EE
:1022F000940140E050E060E070E080E090E000E1B8
:102300000E94222019012A013B014C01BF0180E0FB
:1023100090E065962CAD3DAD4EAD5FAD65970E94EA
:10232000111FF22E032F142FB52FF62FE72FD82EC3
:10233000E92EA0E00E9477205CF4AFE70E946220C3
:10234000F22E032F142FB52FF62FE72FD82EE92EBC
:102350002F2D302F412F5B2F6F2F7E2F8D2D9E2DF8
:1023600007E00E943B2059016A017B018C01910129
:10237000A201B301C4010E945920A2962FAFA297D7
:10238000A3963FAFA397A4964FAFA497A5965FAF30
:10239000A597AE966FAFAE97AF967FAFAF97E0962B
:1023A0008FAFE097E1969FAFE19765964CAC5DAC3F
:1023B0006EAC7FAC6597770C4408542C3201609169
:1023C000FA037091FB0380E090E065962CAD3DAD83
:1023D0004EAD5FAD65970E94111FF22E032F142F93
:1023E000B52FF62FE72FD82EE92EA0E00E947720F8
:1023F00084F42150310940485F4F6F4F7F4F8F4F1A
:102400009F4FF22E032F142FB52FF62FE72FD82E24
:10241000E92E2F2D302F412F5B2F6F2F7E2F8D2DEB
:102420009E2D07E10E943B2049015A01950184013C
:102430000053184F2F4F3F4FA1960CAF1DAF2EAF3B
:102440003FAFA197E6961FADE697113009F094C013
:10245000A1962CAD3DAD4EAD5FADA197203D37406F
:10246000410551050CF066C165966CAD7DAD8EAD34
:102470009FAD65972BE030E040E050E00E94111FD7
:102480006296AFAC62976396BFAC63976496CFAC2D
:1024900064976596DFAC6597E42CF42C042D142D1D
:1024A0000E94B81EF22E032F142FB52FF62FE72F00
:1024B000D82EE92EA0E00E94772084F42150310923
:1024C00041095109684F7F4F8F4F9F4FF22E032FC5
:1024D000142FB52FF62FE72FD82EE92E2F2D302FC2
:1024E000412F5B2F6F2F7E2F8D2D9E2D03E20E949B
:1024F0003B2062962FAF629763963FAF63976496D7
:102500004FAF649765965FAF6597AFE1B0E0A19676
:102510008CAC9DACAEACBFACA19770ED871A77E0E8
:10252000970AA108B108A50194010E946D1A9B01A8
:10253000AC01C501B4010E94821E7B018C01F3E055
:1025400015950795F794E794FA95D1F7AFE3B0E0C6
:10255000A50194010E946D1A9B01AC01C501B40153
:102560000E94821E2B013C01A5E07594679457944C
:102570004794AA95D1F7EAC0A1968CAD9DADAEADBA
:10258000BFADA197803D9740A105B1050CF0BCC03F
:1025900065966CAD7DAD8EAD9FAD659723E030E067
:1025A00040E050E00E94111F6296AFAC62976396C4
:1025B000BFAC63976496CFAC64976596DFAC6597C4
:1025C000E42CF42C042D142D0E94B81EF22E032F9F
:1025D000142FB52FF62FE72FD82EE92EA0E00E945A
:1025E000772084F421503109410951096E4F7F4F02
:1025F0008F4F9F4FF22E032F142FB52FF62FE72F5B
:10260000D82EE92E2F2D302F412F5B2F6F2F7E2FAD
:102610008D2D9E2D01E20E943B2062962FAF629786
:1026200063963FAF639764964FAF649765965FAFCD
:102630006597A3E0B0E0A1968CAC9DACAEACBFAC0E
:10264000A197F0ED8F1AF7E09F0AA108B108A50144
:1026500094010E946D1A9B01AC01C501B4010E9456
:10266000821E7B018C0115950795F794E794A5E0F0
:10267000B0E0A50194010E946D1A9B01AC01C50157
:10268000B4010E94821E2B013C01E3E07594679423
:1026900057944794EA95D1F7A1962CAD3DAD4EAD38
:1026A0005FADA197213C69EF36076FEF46075607EC
:1026B0000CF04CC0A7E0B0E049015A017CED870E58
:1026C00075E0971EA11CB11CA50194010E946D1A12
:1026D0009B01AC01C501B4010E94821EE60EF71EEB
:1026E000081F191FA501940162E0220F331F441F28
:1026F000551F6A95D1F7C501B4010E94821E460E8E
:10270000571E681E791E22C0A5019401C501B4019F
:102710000E94821E7B018C0144E015950795F79479
:10272000E7944A95D1F765961CAE1DAE1EAE1FAE5E
:10273000659709C065961CAE1DAE1EAE1FAE6597AF
:10274000E12CF12C8701412C512C3201D801C70119
:10275000BB0F880B982FDC016D968CAF9DAFAEAF91
:10276000BFAF6D97A2962FADA297A3963FADA3974B
:10277000A4964FADA497A5965FADA597AE966FAD05
:10278000AE97AF967FADAF97E0968FADE097E196AD
:102790009FADE197570168016A96EFAC6A97FE2CEE
:1027A0000E2D1E2D0E946E20922E832E342E252E4D
:1027B000A2966FAFA297A3967FAFA397A4968FAF71
:1027C000A497A5969FAFA59783017201110FEE08FC
:1027D000FE2C87016D96ECAEFDAE0EAF1FAF6D9770
:1027E000A6962FADA697A7963FADA797A8964FADF3
:1027F000A897A9965FADA997AA966FADAA97AB9631
:102800007FADAB97AC968FADAC97AD969FADAD97C6
:10281000520163016A96EFAC6A97FE2C0E2D1E2DB5
:102820000E946E2059016A017B018C01A1968CAD3A
:102830009DADAEADBFADA19765962CAD3DAD4EAD96
:102840005FAD6597821B930BA40BB50BE6963FAD6E
:10285000E6978093060490930704A0930804B0932E
:102860000904313009F069C0E5966CAD7DAD8EADDF
:102870009FADE597AB01BC0180E090E0DC01629682
:102880004FAF629763965FAF639764966FAF64973D
:1028900065967FAF659766968FAF669767969FAF91
:1028A00067976896AFAF68976996BFAF69979A01C7
:1028B000AB0160E070E080E090E00E94B81EF22E74
:1028C000032F142FB52FF62FE72FD82EE92EA0E0D7
:1028D0000E94772084F421503109404E5F4F6F4FA2
:1028E0007F4F8F4F9F4FF22E032F142FB52FF62FB0
:1028F000E72FD82EE92E2F2D302F412F5B2F6F2F52
:102900007E2F8D2D9E2D05E10E943B20A92CB82CF9
:10291000C32CD22CA296EFACA297A396FFACA397A0
:10292000A4960FADA497A5961FADA5970E946E2003
:10293000A12CB12CF2E3CF2E67C0E5964CAD5DAD76
:102940006EAD7FADE5979A01AB0160E070E0CB0121
:1029500062962FAF629763963FAF639764964FAFCF
:10296000649765965FAF659766966FAF6697679653
:102970007FAF679768968FAF689769969FAF6997A3
:1029800060E070E080E090E00E94B81EF22E032F1D
:10299000142FB52FF62FE72FD82EE92EA0E00E9496
:1029A000772084F421503109404E5F4F6F4F7F4FA5
:1029B0008F4F9F4FF22E032F142FB52FF62FE72F97
:1029C000D82EE92E2F2D302F412F5B2F6F2F7E2FEA
:1029D0008D2D9E2D05E10E943B20A92CB82CC32CE7
:1029E000D22CA296EFACA297A396FFACA397A49685
:1029F0000FADA497A5961FADA5970E946E20A12CA0
:102A0000E0E4BE2ECC24C394D12CE12CF12C00E0C8
:102A100010E00E944D1F20930A0430930B04409352
:102A20000C0450930D041092ED031092EC0360918E
:102A30000A0470910B0480910C0490910D040E9483
:102A4000571C609343017093440180934501909318
:102A5000460188E60E9405098BE390E00E940F0979
:102A600080E00E94A90841E06EE088E60E946708C5
:102A70001092D4018093D3010E9490094091670283
:102A8000509168022091690230916A02DA01A21B1A
:102A9000B30B9D01260F371F309368022093670206
:102AA0006093690270936A0280936B0290936C0248
:102AB0008BE093E00E942C02182F8BE093E00E94A1
:102AC0002C02E8961FAFE897E7961FAEE797E896C7
:102AD000EEADFFADE8978E2B9F2BBC01990F880BB5
:102AE000990B0E94571C6093470270934802809391
:102AF000490290934A028BE093E00E942C02182F27
:102B00008BE093E00E942C02EA961FAFEA97E996C9
:102B10001FAEE997EA96EEACFFACEA978E299F29A3
:102B2000BC01990F880B990B0E94571C60934B02B4
:102B300070934C0280934D0290934E028BE093E091
:102B40000E942C02182F8BE093E00E942C02EC963E
:102B50001FAFEC97EB961FAEEB97EC960EAD1FAD4B
:102B6000EC97802B912BBC01990F880B990B0E943D
:102B7000571C60934F0270935002809351029093C0
:102B800052028BE093E00E942C02182F8BE093E01E
:102B90000E942C02EE961FAFEE97ED961FAEED97BA
:102BA000EE962EAD3FADEE97822B932BBC01990F85
:102BB000880B990B0E94571C60935F027093600210
:102BC00080936102909362028BE093E00E942C025A
:102BD000182F8BE093E00E942C02C158DF4F18831E
:102BE000CF57D040EF961FAEEF97C258DF4F4881C6
:102BF0005981CE57D040842B952BBC01990F880B5F
:102C0000990B0E94571C6093530270935402809357
:102C10005502909356028BE093E00E942C02182FED
:102C20008BE093E00E942C02CF57DF4F1883C158EE
:102C3000D040C058DF4F1882C058D040C058DF4F36
:102C400068817981C058D040862B972BBC01990FA1
:102C5000880B990B0E94571C60935702709358027F
:102C60008093590290935A028BE093E00E942C02C9
:102C7000F82E8BE093E00E942C028C0120E030E0E3
:102C80004AEA53E460915F027091600280916102B0
:102C9000909162020E94AD1B28EB3EE142E152E4BA
:102CA0000E94AA1A60935F0270936002809361028F
:102CB0009093620220E138E044EA53E460914702D5
:102CC000709148028091490290914A020E94A91A8B
:102CD0000E941F1C072E000C880B990B0E94571C8A
:102CE0002BE73EEF43E856E40E94AD1B609347029A
:102CF000709348028093490290934A0222E538EB90
:102D000047EA53E460914B0270914C0280914D026E
:102D100090914E020E94A91A0E941F1C072E000CBF
:102D2000880B990B0E94571C25E838EB41E856E4C4
:102D30000E94AD1B60934B0270934C0280934D0236
:102D400090934E0229EC3EE44AEB54E460914F022A
:102D50007091500280915102909152020E94A91AE2
:102D60000E941F1C719561957109072E000C880B3C
:102D7000990B0E94571C25E034E744E856E40E9472
:102D8000AD1B60934F027093500280935102909359
:102D9000520229E831EA4EEA53E4609153027091FD
:102DA000540280915502909156020E94A91A20E087
:102DB00030E44EE455E40E94AD1B609353027093DF
:102DC000540280935502909356022EE03DE84AE16A
:102DD00053E460915702709158028091590290918A
:102DE0005A020E94A91A20E030E641E555E40E940B
:102DF000AD1B6093570270935802809359029093D1
:102E00005A02CD57DF4FF882C358D040CE57DF4F1C
:102E10001882C258D040CE57DF4F68817981C2589E
:102E2000D040602B712B072E000C880B990B0E9451
:102E3000571C21ED32E240E353E40E94AA1A20E03D
:102E400030E048E455E40E94AD1B60935B02709350
:102E50005C0280935D0290935E020E94B5090E941D
:102E6000B50960914C0170914D0180914E01909196
:102E70004F010E94261C60931B04609143017091D6
:102E80004401809145019091460120E030E045E702
:102E900054E40E94A91A0E94261C60931E046091AB
:102EA0003F027091400280914102909142020E9443
:102EB000261C609318046091430270914402809133
:102EC0004502909146020E94261C60931504809151
:102ED0004701882309F49AC080911703811115C016
:102EE00060E070E08AE393E00E94060760E070E033
:102EF0008BE493E00E94060760E070E08CE593E0CD
:102F00000E94060760E070E07BC08091B103909161
:102F1000B2034091B3035091B4032091B5033091B3
:102F2000B603841B950B820F931F209120033091D1
:102F30002103829FB001839F700D929F700D112419
:102F40008AE393E00E9406078091B3039091B40353
:102F50004091B1035091B2032091B5033091B60373
:102F6000919581959109841B950B821B930B209160
:102F7000220330912303829FB001839F700D929FA3
:102F8000700D11248BE493E00E9406072091B30397
:102F90003091B4034091B1035091B2038091B503D5
:102FA0009091B603841B950B821B930B20912403F5
:102FB00030912503829FB001839F700D929F700D09
:102FC00011248CE593E00E9406078091B103909153
:102FD000B2034091B3035091B4032091B5033091F3
:102FE000B603841B950B821B930B20912603309113
:102FF0002703829FB001839F700D929F700D112453
:103000008DE693E00E94060710924701C0904301AD
:10301000D0904401E0904501F09046018091BC03BE
:10302000882309F4BEC08091170381110FC060E0AE
:1030300070E08EE793E00E94060760E070E08FE8A2
:1030400093E00E94060760E070E0A7C080911C0337
:1030500090911D03181619060CF4F6C06091180320
:103060007091190380911A0390911B0320E030E0C6
:10307000A9010E94A11D18160CF4E6C08091B703A7
:10308000882351F0C092B803D092B903E092BA03FA
:10309000F092BB031092B70300E010E08091B703F9
:1030A0008111F7C06091B8037091B9038091BA03A0
:1030B0009091BB03A70196010E94A91A905820E0A5
:1030C00030E040E252E40E94AE1D0E941F1C7B01D2
:1030D000B801110F880B990B0E94571C4B015C0122
:1030E000B701FF0C880B990B0E94571C6B017C01E8
:1030F000E0911E03F0911F03EE0FFF1FEE0FFF1F65
:10310000E95EFC4F2789308D418D528D0E94AD1BA9
:10311000A50194010E94AA1A0E941F1C8FE893E047
:103120000E94060720E030E0A901C701B6010E9415
:10313000AA1A6B017C01E0911E03F0911F03EE0FB0
:10314000FF1FEE0FFF1FE95EFC4F2789308D418D79
:10315000528D0E94AD1BA50194010E94AA1A0E94E3
:103160001F1C8EE793E00E940607E0911E03F0917A
:103170001F03EE0FFF1FEE0FFF1FE95EFC4F2789B5
:10318000308D418D528DC701B6010E94AD1BA50146
:1031900094010E94AA1A0E941F1C80EA93E00E94D8
:1031A000060780914201882309F442C003E114E03C
:1031B000D80112962C9130E040E050E061961FAEAD
:1031C000619790E3E92EF12CEC0EFD1EB0E2EB0EC0
:1031D000F11CCA01B9012AE030E040E050E00E9451
:1031E000781A605DF70162937F0121153105410571
:1031F000510579F7CF010E94550886E391E00E94BE
:1032000055080D5F1F4F8FE1E82E84E0F82EE01681
:10321000F10671F687E391E00E94550888E391E09A
:103220000E945508109241011092400110924201F3
:103230000E94DE010C94B10E01E010E010932E0408
:1032400000932D040C94DD0E81E08093B7038090F1
:10325000180390901903A0901A03B0901B0360917B
:103260001C0370911D03072E000C880B990B0E9404
:10327000571C9B01AC01C501B4010E94A91A20E0B2
:1032800030E04EEF52E40E94AE1D0E941F1C8B01E5
:1032900005CFE12CF12C1CCFFC01809166018C3014
:1032A000A8F491E0980F90936601868790E0DC0186
:1032B000AA0FBB1F8A0F9B1FDC01A859BE4F88EBCA
:1032C0009BE012969C938E93119702C08FEF868796
:1032D000F8941092B0001092B1001092B2008FEFEB
:1032E0008093B3008091B10088608093B100809199
:1032F000B10085608093B1008091700010927000E1
:1033000084EA96E09783868384E195E091878087BD
:103310002681378180859185281B390B4AE0429FA1
:10332000C001439F900D112464E670E00E949E1E30
:10333000758364838CED95E0918380838081918196
:10334000938382838FEF9FEF9587848780915401C9
:103350009091550193878287DC01AA0FBB1FAA5A5F
:10336000BE4FED93FC9301969093550180935401C9
:1033700078940895EEE6F2E01382128288EE93E0EC
:10338000A0E0B0E084839583A683B78326E131E093
:103390003183208325EC30E03587248724EC30E02E
:1033A0003787268720EC30E0318B208B21EC30E012
:1033B000338B228B22EC30E0358B248B26EC30E0F3
:1033C000378B268B118E128E138E148EEBE0F3E06A
:1033D0001382128284839583A683B78388E291E067
:1033E00091838083E1E2F4E01082118212821382E1
:1033F0001482158216821782118610861286138611
:1034000081E090E0958784871092200410921F0439
:1034100040E050EA60E874E440930F0450931004D5
:103420006093110470931204E7E1F3E02FEF3FEF94
:10343000328721873487238796878587908B878774
:10344000928B818B948B838B968B858B8CE0E6E0C3
:10345000F1E0AEE2B3E001900D928A95E1F78AE3E4
:1034600093E00E944C198BE493E00E944C198CE588
:1034700093E00E944C198DE693E00E944C198EE770
:1034800093E00E944C198FE893E00E944C1980EA67
:1034900093E00E944C191092BC030895052E97FBEF
:1034A0001EF400940E94651A57FD07D00E94781AF6
:1034B00007FC03D04EF40C94651A50954095309556
:1034C00021953F4F4F4F5F4F089590958095709590
:1034D00061957F4F8F4F9F4F08950E949A1AA59F25
:1034E000900DB49F900DA49F800D911D11240895FF
:1034F000A1E21A2EAA1BBB1BFD010DC0AA1FBB1FF8
:10350000EE1FFF1FA217B307E407F50720F0A21B69
:10351000B30BE40BF50B661F771F881F991F1A94D6
:1035200069F760957095809590959B01AC01BD0100
:10353000CF010895A29FB001B39FC001A39F700D5A
:10354000811D1124911DB29F700D811D1124911DAB
:1035500008955058BB27AA270E94C11A0C94531DE6
:103560000E941A1D38F00E94211D20F039F49F3F5F
:1035700019F426F40C94DC1C0EF4E095E7FB0C9493
:10358000D61CE92F0E94781D58F3BA1762077307FB
:103590008407950720F079F4A6F50C949A1D0EF493
:1035A000E0950B2EBA2FA02D0B01B90190010C0153
:1035B000CA01A0011124FF27591B99F0593F50F46B
:1035C000503E68F11A16F040A22F232F342F4427C3
:1035D000585FF3CF469537952795A795F0405395BB
:1035E000C9F77EF41F16BA0B620B730B840BBAF08B
:1035F0009150A1F0FF0FBB1F661F771F881FC2F7F6
:103600000EC0BA0F621F731F841F48F48795779509
:103610006795B795F7959E3F08F0B0CF9395880FC3
:1036200008F09927EE0F9795879508959F939F77B8
:10363000EEE389379E0728F4EAE8F0E00E94061DD1
:103640000CC00E94921C9058A2EA2AED3FE049EC7F
:103650005FE30E94C11A0E94531D0F9007FC90580F
:1036600008950E941A1D60F080E891E009F49EEF31
:103670000E94211D28F040E851E071F45EEF0CC07B
:103680000C94DC1C0C949A1DE92FE0780E94781DA4
:1036900040F3092E052AB1F32617370748075907C3
:1036A00038F00E2E07F8E02569F0E025E0640AC046
:1036B000EF6307F8009407FADB01B9019D01DC0113
:1036C000CA01AD01EF930E94C41B0E94531D0E94CA
:1036D000741B5F91552339F02BED3FE049E450FD19
:1036E00049EC0C94AA1A0895DF93DD27B92FBF7710
:1036F00040E85FE31616170648075B0718F4D92F52
:103700000E94A61D9F938F937F936F930E94691EC3
:10371000EEE9F0E00E94DF1C0E94531D2F913F91C3
:103720004F915F910E94C11DDD2351F09058A2EA94
:103730002AED3FE049EC5FE3D0785D270E94C11A93
:10374000DF910C94531D0E94B21C08F481E008958F
:103750000E942A1DE3950C94641D0E94C11B0C94C9
:10376000531D0E94211D58F00E941A1D40F029F49B
:103770005F3F29F00C94D61C51110C949B1D0C94A6
:10378000DC1C0E94781D68F39923B1F3552391F353
:10379000951B550BBB27AA2762177307840738F0C0
:1037A0009F5F5F4F220F331F441FAA1FA9F335D01D
:1037B0000E2E3AF0E0E832D091505040E695001CD1
:1037C000CAF72BD0FE2F29D0660F771F881FBB1F8B
:1037D000261737074807AB07B0E809F0BB0B802D69
:1037E000BF01FF2793585F4F3AF09E3F510578F095
:1037F0000C94D61C0C949B1D5F3FE4F3983ED4F3CD
:10380000869577956795B795F7959F5FC9F7880F68
:10381000911D9695879597F90895E1E0660F771FBA
:10382000881FBB1F621773078407BA0720F0621B4B
:10383000730B840BBA0BEE1F88F7E09508950E9476
:10384000261C6894B1110C949B1D08950E94801D44
:1038500088F09F5798F0B92F9927B751B0F0E1F051
:10386000660F771F881F991F1AF0BA95C9F714C001
:10387000B13091F00E949A1DB1E008950C949A1D08
:10388000672F782F8827B85F39F0B93FCCF386953A
:1038900077956795B395D9F73EF490958095709597
:1038A00061957F4F8F4F9F4F0895E89409C097FB14
:1038B0003EF490958095709561957F4F8F4F9F4F07
:1038C0009923A9F0F92F96E9BB279395F69587954B
:1038D00077956795B795F111F8CFFAF4BB0F11F40E
:1038E00060FF1BC06F5F7F4F8F4F9F4F16C08823B5
:1038F00011F096E911C0772321F09EE8872F762FEB
:1039000005C0662371F096E8862F70E060E02AF02B
:103910009A95660F771F881FDAF7880F9695879517
:1039200097F90895DF93CF931F930F938B01EC01C9
:10393000EBECF0E00E94DF1C0E94531D9801AE01E9
:103940008B01EC0160E070E080E89FE30E94A91A1F
:103950000E94291E9801AE010F911F91CF91DF9116
:103960000C94C11D990F0008550FAA0BE0E8FEEF5B
:1039700016161706E807F907C0F012161306E40733
:10398000F50798F0621B730B840B950B39F40A262C
:1039900061F0232B242B252B21F408950A2609F40A
:1039A000A140A6958FEF811D811D089597F99F670E
:1039B00080E870E060E008959FEF80EC0895DF9369
:1039C000CF931F930F93FF92EF92DF927B018C01B5
:1039D000689406C0DA2EEF010E94C11DFE01E89432
:1039E000A5912591359145915591A6F3EF010E943E
:1039F000C11AFE019701A801DA9469F7DF90EF90F0
:103A0000FF900F911F91CF91DF9108959F938F9316
:103A10007F936F93FF93EF939B01AC010E94AE1DC8
:103A2000EF91FF910E94DF1C2F913F914F915F9189
:103A30000C94AE1D00240A941616170618060906E3
:103A4000089500240A941216130614060506089514
:103A50000C94DC1C0E94801DD8F3E894E0E0BB27A6
:103A60009F57F0F02AED3FE049EC06C0EE0FBB0F88
:103A7000661F771F881F28F0B23A62077307840712
:103A800028F0B25A620B730B840BE3959A9572F788
:103A9000803830F49A95BB0F661F771F881FD2F7C6
:103AA00090480C946F1E092E0394000C11F4882387
:103AB00052F0BB0F40F4BF2B11F460FF04C06F5FE6
:103AC0007F4F8F4F9F4F0895EF93E0FF07C0A2EA0B
:103AD0002AED3FE049EC5FEB0E94C11A0E94531DA2
:103AE0000F90039401FC9058E3EFF0E00C94061D56
:103AF00057FD9058440F551F59F05F3F71F047959F
:103B0000880F97FB991F61F09F3F79F08795089583
:103B1000121613061406551FF2CF4695F1DF08C0A2
:103B2000161617061806991FF1CF869571056105BF
:103B300008940895E894BB2766277727CB0197F967
:103B400008950E94B21C08F48FEF08959B01AC0108
:103B500060E070E080E89FE30C94AD1B0E94C11D03
:103B60000C94531D0E941A1D38F00E94211D20F054
:103B7000952311F00C94D61C0C94DC1C11240C948D
:103B80009B1D0E94781D70F3959FC1F3950F50E027
:103B9000551F629FF001729FBB27F00DB11D639FFF
:103BA000AA27F00DB11DAA1F649F6627B00DA11DA5
:103BB000661F829F2227B00DA11D621F739FB00D4B
:103BC000A11D621F839FA00D611D221F749F3327BB
:103BD000A00D611D231F849F600D211D822F762F54
:103BE0006A2F11249F5750409AF0F1F088234AF031
:103BF000EE0FFF1FBB1F661F771F881F915050409D
:103C0000A9F79E3F510580F00C94D61C0C949B1D87
:103C10005F3FE4F3983ED4F3869577956795B79523
:103C2000F795E7959F5FC1F7FE2B880F911D96953D
:103C3000879597F908959F930E942A1D0F9007FC7E
:103C4000EE5F0C94641D19F416F40C94DC1C0C94B7
:103C50006D1E0E94801DB8F39923C9F3B6F39F57D8
:103C6000550B87FF0E947B1E0024A0E640EA9001CE
:103C700080585695979528F4805C660F771F881FAB
:103C800020F026173707480730F4621B730B840BAC
:103C9000202931294A2BA6951794079420253125F0
:103CA0004A2758F7660F771F881F20F02617370717
:103CB000480730F4620B730B840B200D311D411D3E
:103CC000A09581F7B901842F9158880F9695879513
:103CD00008959B01AC010C94AE1D9F3F31F09150B3
:103CE00020F4879577956795B795880F911D9695E0
:103CF000879597F9089591505040660F771F881F58
:103D0000D2F70895DB018F939F930E946D1ABF91A4
:103D1000AF91A29F800D911DA39F900DB29F900D1A
:103D200011240895991B79E004C0991F961708F093
:103D3000961B881F7A95C9F78095089597FB072EE3
:103D400016F4009407D077FD09D00E94832007FC69
:103D500005D03EF4909581959F4F0895709561959B
:103D60007F4F0895EE0FFF1F0590F491E02D099409
:103D7000DF93CF931F930F939A9DF02D219FF00D0A
:103D80008B9DF00D8A9DE02DF10D039FF00D029F9C
:103D9000E00DF11D4E9DE00DF11D5E9DF00D4F9D5E
:103DA000F00D7F936F93BF92AF925F934F93D501C6
:103DB0000E949A1A8B01AC01D7010E949A1AEB015A
:103DC000E80FF91FD6010E94081F2F913F91D601DD
:103DD0000E949A1AC60FD71FE81FF91FAF91BF9113
:103DE0000E94081F2F913F910E949A1AC60FD71F59
:103DF000E81FF91FD6010E949A1AE60FF71F9801D3
:103E0000BE01CF0111240F911F91CF91DF91089531
:103E10000E949A1A460F571FC81FD91F08F43196DF
:103E2000089597FB57FF0C94211F9F938F930E9437
:103E3000211F6E1B7F0BAF91BF918A0B9B0B0895C7
:103E4000E894DF93CF93FC01DB010E949A1A7F93E1
:103E50006F93E9019A01AC01BF93AF933F932F9306
:103E6000DF010E949A1A26F46C1B7D0B820B930BC8
:103E70009E01EB01FC010E94081FAF91BF912F91A1
:103E80003F910E94081FBE01CF01F9012F913F9180
:103E9000CF91DF910895689401C0E894F92FF12B38
:103EA00012F00C947F1FA0E0B0E0E9E5FFE10C9474
:103EB000F11F092E059422F40E94DB1F112392F4B6
:103EC000F0E80F26FFEFE094F09400951095B09481
:103ED000C094D094A194BF0ACF0ADF0AEF0AFF0A68
:103EE0000F0B1F0B0E948A1F07FC0E94DB1FCDB720
:103EF000DEB7ECE00C940D20689401C0E8948F923A
:103F00009F92CF93DF930E948A1FDF91CF919F9062
:103F10008F90089588249924F401E401B0E49F93DC
:103F2000AA279A158B049C04ED05FE05CF05D00742
:103F3000A10798F4AD2FDC2FCF2FFE2FE92D982C61
:103F4000892E982F872F762F652F542F432F322FAE
:103F50002227B85031F7BF9127C01B2EBF91BB2736
:103F6000220F331F441F551F661F771F881F991F7D
:103F7000881C991CEE1FFF1FCC1FDD1FAA1FBB1F33
:103F80008A149B04EC05FD05CE05DF05A007B107EB
:103F900048F08A189B08EC09FD09CE09DF09A00B3F
:103FA000B10B21601A94E1F62EF49401AF01BE0129
:103FB000CD01000C08956095709580959095309591
:103FC0004095509521953F4F4F4F5F4F6F4F7F4F1B
:103FD0008F4F9F4F08952F923F924F925F926F9213
:103FE0007F928F929F92AF92BF92CF92DF92EF9289
:103FF000FF920F931F93CF93DF93CDB7DEB7CA1B0A
:10400000DB0B0FB6F894DEBF0FBECDBF09942A8834
:10401000398848885F846E847D848C849B84AA84DC
:10402000B984C884DF80EE80FD800C811B81AA8169
:10403000B981CE0FD11D0FB6F894DEBF0FBECDBF34
:10404000ED0108950F93083090F0982F872F762F69
:10405000652F542F432F322F22270850F4CF220FE1
:10406000331F441F551F661F771F881F991F0A950E
:10407000B2F70F91089597FB10F8169400080F936C
:10408000083098F00850232F342F452F562F672FD4
:10409000782F892F902DF4CF059497958795779554
:1040A000679557954795379527950A95AAF70F91E4
:1040B00008952A0D3B1D4C1D5D1D6E1D7F1D801F2B
:1040C000911F08950024A7FD00942A0F301D401D64
:1040D000501D601D701D801D901D08952A193B09FB
:1040E0004C095D096E097F09800B910B089500242E
:1040F000A7FD00942A17300540055005600570059E
:10410000800590050895AA1BBB1B51E107C0AA1F9B
:10411000BB1FA617B70710F0A61BB70B881F991F68
:104120005A95A9F780959095BC01CD0108950F93FC
:104130001F93CF93DF938230910510F482E090E0DB
:10414000E0913704F091380420E030E0A0E0B0E0E6
:10415000309719F140815181028113814817590725
:10416000C8F08417950769F4109731F012960C93F4
:10417000129713961C9327C00093370410933804AA
:1041800022C02115310519F04217530718F49A017E
:10419000BD01EF01DF01F801DBCF21153105F9F099
:1041A000281B390B2430310580F48A819B816115ED
:1041B000710521F0FB019383828304C0909338043E
:1041C00080933704FE01329644C0FE01E20FF31FD4
:1041D0008193919322503109398328833AC02091E9
:1041E000350430913604232B41F4209102013091A3
:1041F000030130933604209335042091000130915F
:1042000001012115310541F42DB73EB7409104015C
:1042100050910501241B350BE0913504F0913604D3
:10422000E217F307A0F42E1B3F0B2817390778F08D
:10423000AC014E5F5F4F2417350748F04E0F5F1FEC
:1042400050933604409335048193919302C0E0E08B
:10425000F0E0CF01DF91CF911F910F910895CF939F
:10426000DF93009709F481C0FC0132971382128218
:10427000A0913704B0913804109781F420813181E6
:10428000820F931F20913504309136042817390787
:1042900051F5F0933604E093350467C0ED0120E05A
:1042A00030E0CE17DF0740F44A815B819E01411563
:1042B0005105F1F0EA01F5CFD383C28340815181EA
:1042C000840F951FC817D90759F488819981840FE5
:1042D000951F0296918380838A819B819383828339
:1042E0002115310529F4F0933804E09337043DC0DB
:1042F000E901FB83EA8349915991C40FD51FEC175B
:10430000FD0761F480819181840F951F0296E90178
:1043100099838883828193819B838A83E0E0F0E0A4
:1043200012968D919C911397009719F0FD01DC0175
:10433000F7CF8D919C9111979D012E5F3F4F820F7A
:10434000931F20913504309136042817390769F4FA
:10435000309729F4109238041092370402C0138267
:104360001282B0933604A0933504DF91CF91089563
:0E43700081E090E0F8940C94BD21F894FFCF0A
:10437E000000390480000000003F6666A63F33331C
:10438E005340000000006F01DC000601BC01370144
:10439E00150129010000000075024802A5021C0249
:0C43AE0040022C021D0209000D0A000054
:00000001FF
