:100000000C94B2000C94DA000C94DA000C94DA0030
:100010000C94DA000C94DA000C94DA000C943A0692
:100020000C94DA000C94DA000C94DA000C940D05B0
:100030000C94DA000C94DA000C94DA000C94DA00D8
:100040000C94C40C0C9458070C94AD030C948703C7
:100050000C94DA000C94DA000C94DA000C94DA00B8
:100060000C94DF030C94DA00D707DE07F907E307E7
:100070000A080A080A080A080108FE0704080A080C
:100080000A080A08B007EC07F907036EDB363D9A49
:100090009999993DABAAAA2A3E000000803F084AE0
:1000A000D73B3BCE016E84BCBFFDC12F3D6C74318C
:1000B0009ABD56833DDA3D00C77F11BED9E4BB4CE3
:1000C0003E916BAAAABE000000803F072C7AA5BA19
:1000D0006CC590DA3B9365FC8BBC53F810FD3C5625
:1000E00092834DBD879D3AB63DCBC9BF5BBE73DAE7
:1000F0000FC93F05A84CCDB2D44EB93836A9020C71
:1001000050B9918688083CA6AAAA2ABE00000080A1
:100110003F00000000080002010000030407000087
:1001200000000000000000000000250028002B0057
:1001300000000000240027002A0004040404040432
:100140000404020202020202030303030303010286
:100150000408102040800102040810200102040855
:100160001020661911241FBECFEFD8E0DEBFCDBF2F
:1001700011E0A0E0B1E0E6EDF2E402C005900D92DE
:10018000AA33B107D9F724E0AAE3B1E001C01D9278
:10019000A830B207E1F710E0C2EBD0E004C021972D
:1001A000FE010E945E1EC13BD107C9F70E940E0DE1
:1001B0000C9469210C940000CF92DF92EF92FF9291
:1001C0000F931F93CF93DF936C017A018B01C0E0F3
:1001D000D0E0CE15DF0581F0D8016D918D01D601FB
:1001E000ED91FC910190F081E02DC6010995892BDC
:1001F00011F02196EECF7E01C701DF91CF911F91C3
:100200000F91FF90EF90DF90CF900895FC01538DF8
:10021000448D252F30E0842F90E0821B930B5417E0
:1002200010F0CF96089501970895FC01918D828D6D
:10023000981761F0828DDF01A80FB11D5D968C913A
:10024000928D9F5F9F73928F90E008958FEF9FEF45
:100250000895FC01918D828D981731F0828DE80F01
:10026000F11D858D90E008958FEF9FEF0895FC01BB
:10027000918D228D892F90E0805C9F4F821B910988
:100280008F73992708958AE792E00E94370121E051
:10029000892B09F420E0822F0895FC01848DDF0171
:1002A000A80FB11DA35ABF4F2C91848D90E00196E9
:1002B0008F739927848FA689B7892C93A089B189D8
:1002C0008C91837080648C93938D848D981306C079
:1002D0000288F389E02D80818F7D80830895EF92DD
:1002E000FF920F931F93CF93DF93EC0181E0888FF0
:1002F0009B8D8C8D981305C0E889F989808185FDD7
:1003000026C0F62E0B8D10E00F5F1F4F0F731127C5
:10031000E02E8C8DE8120CC00FB607FCFACFE889EE
:10032000F989808185FFF5CFCE010E944D01F1CF83
:100330008B8DFE01E80FF11DE35AFF4FF0829FB74E
:10034000F8940B8FEA89FB89808180620AC09FB78D
:10035000F894EE89FF896083E889F9898081837048
:10036000806480839FBF81E090E0DF91CF911F91F7
:100370000F91FF90EF900895CF93DF93EC01888D5C
:100380008823C9F0EA89FB89808185FD05C0A88999
:10039000B9898C9186FD0FC00FB607FCF5CF80811F
:1003A00085FFF2CFA889B9898C9185FFEDCFCE0169
:1003B0000E944D01E7CFDF91CF91089580E090E05A
:1003C000892B29F00E94430181110C9400000895AB
:1003D00085ED8093BC008091BC0084FDFCCF109221
:1003E000790208954091B801262F30E0240F311D85
:1003F00021323105DCF4209179022430C9F4FC016A
:1004000080E090E0861758F43091B8012191DC012A
:10041000A856BE4FA30FB11D2C930196F3CF809128
:10042000B801680F6093B80180E0089581E00895F5
:1004300082E00895089508950895E0910F02809153
:100440000E02E81730F4F0E0ED5CFD4F808190E0A3
:1004500008958FEF9FEF089590910F0280910E0203
:10046000981750F4E92FF0E0ED5CFD4F208130E06B
:100470009F5F90930F0202C02FEF3FEFC9010895D5
:1004800080910E0290E020910F02821B9109089545
:10049000CF92DF92EF92FF920F931F93CF93DF9350
:1004A0007C01CB018A0120911002222389F0EB010B
:1004B0006B01C40ED51ECC15DD0569F06991D7011D
:1004C000ED91FC910190F081E02DC7010995F3CFEA
:1004D000642F0E94F201C801DF91CF911F910F910B
:1004E000FF90EF90DF90CF900895CF93DF931F920E
:1004F000CDB7DEB76983209110022223D1F020917D
:100500003202203240F021E030E0FC0133832283CC
:1005100080E090E015C080911102E82FF0E0EE5EDF
:10052000FD4F998190838F5F8093110280933202F7
:1005300005C061E0CE0101960E94F20181E090E0E9
:100540000F90DF91CF910895089580E090E0089595
:10055000FC0190819C3088F5818128E830E0281BDF
:10056000310987FD3395220F331F220F331F621786
:10057000730784F0828148E552E0481B510987FDEA
:100580005395440F551F440F551F9B01461757079E
:100590000CF49A0122503109220F331F4FB7F894FF
:1005A000892F90E0FC01EE0FFF1F8E0F9F1FFC01B3
:1005B000EC58FE4F328321834FBF0895CF93DF93D2
:1005C000EC01288139818A819B812817390704F53C
:1005D000888199812A813B81821B930B1816190609
:1005E0002CF4888199812A813B8104C08A819B8176
:1005F00028813981821B930B2C813D8182179307BF
:100600003CF12C813D8188819981820F931F29C003
:10061000288139818A819B818217930724F58881FB
:1006200099812A813B81821B930B181619062CF4A1
:10063000888199812A813B8104C08A819B8128819C
:100640003981821B930B2C813D81821793071CF407
:100650008A819B8106C02C813D8188819981821B82
:10066000930B9983888368817981CE010E960E94CD
:10067000A802488159812A813B8181E042175307B2
:1006800009F080E0DF91CF910895613921E0720790
:1006900014F060E971E077FF02C060E070E02CEDDB
:1006A00035E0261B370BFC013187208764527A4FD7
:1006B0007783668308950E9464210F931F93CF93DD
:1006C000DF938C01C0917001D0917101209749F4A2
:1006D00084E090E00E944320909371018093700128
:1006E0000CC08A819B81009711F0EC01FACF84E065
:1006F00090E00E9443209B838A83FC011183008346
:1007000013821282DF91CF911F910F9108951F9252
:100710000F920FB60F9211242F933F934F935F9335
:100720006F937F938F939F93AF93BF93EF93FF93B9
:100730008AE792E00E944D01FF91EF91BF91AF9146
:100740009F918F917F916F915F914F913F912F91E9
:100750000F900FBE0F901F9018951F920F920FB61B
:100760000F9211242F938F939F93EF93FF93E09118
:100770008A02F0918B028081E0919002F0919102C7
:1007800082FD12C09081809193028F5F8F732091C0
:100790009402821751F0E0919302F0E0E658FD4F89
:1007A000958F8093930201C08081FF91EF919F917B
:1007B0008F912F910F900FBE0F901F9018951F9241
:1007C0000F920FB60F9211242F933F934F935F9385
:1007D0006F937F938F939F93AF93BF93EF93FF9309
:1007E0008091B900887F803609F49CC068F5883212
:1007F00009F45BC090F4803109F454C038F48823C4
:1008000009F4F6C0883009F44DC0F6C0883109F407
:100810004CC0803209F45DC0EFC0803409F468C078
:1008200048F4803309F455C0883309F0E5C080935B
:100830007702D8C0803509F44FC0883509F45DC00F
:10084000883409F0D9C0D6C0883909F4C7C0A8F4E3
:10085000883709F467C038F4883609F463C08037F4
:1008600009F460C0C9C0883809F4B8C0803909F4F7
:100870005FC0803809F0C0C05BC0803B09F486C00F
:1008800038F4803A09F466C0883A09F47FC0B4C0ED
:10089000803C09F4A7C0883C09F4A4C0883B09F453
:1008A0008AC0AAC08091740210C090917602809193
:1008B0007502981770F5E091760281E08E0F8093B3
:1008C0007602F0E0ED5AFD4F80818093BB0085EC0D
:1008D00086C0809377028EC0E091760281E08E0F11
:1008E000809376028091BB00F0E0ED5AFD4F80834B
:1008F00090917602809175026EC0E091760281E05F
:100900008E0F809376028091BB00F0E0ED5AFD4F90
:1009100080838091780281116DC081E080937302A1
:1009200084EA61C083E0809379021092DA01CFCF2C
:100930008091DA01803208F051C0E091DA0181E063
:100940008E0F8093DA018091BB00F0E0E654FE4FF9
:100950008083BDCF85EC8093BC001092790280919A
:10096000DA01803230F4E091DA01F0E0E654FE4F33
:1009700010826091DA0170E0E0913A01F0913B0160
:100980008AEB91E009951092DA0136C084E08093F9
:1009900079021092B9011092B801E0913C01F091F6
:1009A0003D0109958091B801811105C081E08093D6
:1009B000B80110929801E091B90181E08E0F809307
:1009C000B901F0E0E856FE4F80818093BB00909122
:1009D000B9018091B801981708F479CF85E8809320
:1009E000BC000AC085EC8093BC001092790204C060
:1009F000109277020E94E801FF91EF91BF91AF91B1
:100A00009F918F917F916F915F914F913F912F9126
:100A10000F900FBE0F901F9018951F920F920FB658
:100A20000F9211242F933F934F935F936F937F9374
:100A30008F939F93AF93BF93EF93FF938091730135
:100A400087FF05C010928500109284001BC0209182
:100A50007301022E000C330B8091720190E0281775
:100A6000390784F480917301082E000C990BFC0166
:100A7000EE0FFF1F8E0F9F1FFC01EC58FE4F808171
:100A800086FD15C0809173018F5F80937301209163
:100A90007301022E000C330B8091720190E0281735
:100AA0003907C4F4809173018C3064F113C08091D4
:100AB0007301082E000C990BFC01EE0FFF1F8E0F27
:100AC0009F1FFC01EC58FE4F808160E08F730E94F5
:100AD000180CD8CF809184009091850004968034C2
:100AE0009C4918F480E49CE905C0809184009091B1
:100AF0008500049690938900809388008FEF8093FF
:100B000073013BC020918400309185008091730176
:100B1000082E000C990BFC01EE0FFF1F8E0F9F1F7C
:100B2000FC01EC58FE4F81819281820F931F9093BC
:100B300089008093880080917301082E000C990B26
:100B4000FC01EE0FFF1F8E0F9F1FFC01EC58FE4FA4
:100B5000808186FF12C080917301082E000C990BD2
:100B6000FC01EE0FFF1F8E0F9F1FFC01EC58FE4F84
:100B7000808161E08F730E94180CFF91EF91BF910B
:100B8000AF919F918F917F916F915F914F913F9125
:100B90002F910F900FBE0F901F901895EF92FF921C
:100BA0000F931F93CF93DF93EC017D876C87EC84C9
:100BB000FD848C01025F1F4F8E858C3008F04FC082
:100BC0008E2D0E9459088E85E82FF0E09F01220F9C
:100BD000331FE20FF31FEC58FE4F9E2D9F732081B1
:100BE000207CE22EE92AE0821F86188A6CE00E94AF
:100BF0003E1E9CE0899FB001112440E050E09B0123
:100C0000240F351FF901EE0FFF1F2E0F3F1FF901B3
:100C1000EC58FE4F908196FD16C04F5F5F4F4C30F1
:100C2000510569F781110FC01092800082E0809316
:100C300081001092850010928400B19A80916F001B
:100C4000826080936F00EE85F0E0CF01880F991FDE
:100C5000E80FF91FEC58FE4F8081806480836CEDB3
:100C600075E0C801DF91CF911F910F91FF90EF9038
:100C70000C94A8021F920F920FB60F9211242F937B
:100C80003F934F935F936F937F938F939F93AF9314
:100C9000BF93CF93DF93EF93FF93C0917001D091F7
:100CA00071012097D1F0E881F981EE0FFF1FEE5915
:100CB000FE4F808191810E94DE02811104C08881F3
:100CC00099810E945D038A819B8190937101809339
:100CD0007001CE010E94DB2004C080917000109250
:100CE0007000FF91EF91DF91CF91BF91AF919F91F4
:100CF0008F917F916F915F914F913F912F910F90C5
:100D00000FBE0F901F901895CF92DF92EF92FF9237
:100D1000CF93DF93EC01603871053CF462388FEFBC
:100D200078072CF462E87FEF02C06FE770E08E81F5
:100D30009F81C884D9840D2C000CEE08FF08AB01FC
:100D4000770F660B770B9A01AB0122583F4F4F4F3D
:100D50005F4F092E000CAA0BBB0BBC01CD016C1917
:100D60007D098E099F090E942E1E2DEF30E040E084
:100D700050E00E94FA19C20ED31EE41EF51EDB825B
:100D8000CA82CE010E94DE02811109C08A859B853C
:100D90000E945D0380917000826080937000DF91FB
:100DA000CF91FF90EF90DF90CF9008958F929F9218
:100DB000AF92BF92CF92DF92EF92FF920F931F9369
:100DC000CF93DF93FC01EB55FF4F2081222309F4E1
:100DD00062C08B01EC01FB01EE0FFF1FEE0FFF1F46
:100DE000EC0FFD1F8788908CA18CB28C20E030E046
:100DF00040EF52E4C501B4010E945A1D0E94CB1B72
:100E00006B017C01CE01C4960E944503B601CE0160
:100E100083960E944503B601CE018A5A9F4F0E94D5
:100E20004503B601CE018B5B9F4F0E944503011520
:100E3000110591F42F89388D498D5A8D6B8D7C8DDC
:100E40008D8D9E8D0E94561A20E030E040E05FE3D9
:100E50000E945A1D4B015C0120E030E040EF52E45B
:100E6000C501B4010E945A1D0E94CB1B6B017C017D
:100E7000CE0189599F4F0E944503B601CE01885883
:100E80009F4F0E944503B601CE0187579F4F0E9496
:100E9000450318870F83DF91CF911F910F91FF902A
:100EA000EF90DF90CF90BF90AF909F908F9008957C
:100EB0001F920F920FB60F9211242F933F934F93CF
:100EC0005F936F937F938F939F93AF93BF93EF93B2
:100ED000FF938EB580935F0180915E01882349F076
:100EE0008FEF8EBD10925E0110925D0110925C0139
:100EF00018C0E0915C01F0915D01E25CFE4F8081E1
:100F00008EBD80915C0190915D018430910521F44A
:100F100081E080935E0105C0019690935D0180930E
:100F20005C01E0915F01E11104C081E080935B010D
:100F3000AFC0EF3F21F481E080935A01A9C08091B6
:100F40005B01882309F46DC08E2F90E0FC0134977B
:100F5000E131F10508F05EC0EC5CFF4F0C945E1EC1
:100F600080913103882379F01092CC031092CB0347
:100F70001092CE031092CD031092D0031092CF03A3
:100F80001092310347C08091430190914401A09198
:100F90004501B091460121E0209331038093D203B3
:100FA0009093D303A093D403B093D50333C081E0CF
:100FB00090E090933703809336032CC01092370350
:100FC0001092360327C0109232031092330310920E
:100FD0003403109235031EC080E090E0A0ECBFE324
:100FE0008093320390933303A0933403B09335037B
:100FF00011C080E090E0A0E8BFE3F2CF62E070E0D3
:1010000005C061E070E002C060E070E081E393E061
:101010000E94D60610925B0110925901109258015D
:1010200037C080915A01882399F18091580190919D
:1010300059018130910569F08230910591F0009756
:10104000B9F4F0E0EF57F109F093CC03E093CB0350
:101050000FC0F0E0EF57F109F093CE03E093CD031A
:1010600007C0F0E0EF57F109F093D003E093CF030E
:1010700001969093590180935801039734F0109290
:101080005A01109259011092580181E08093470152
:10109000FF91EF91BF91AF919F918F917F916F9150
:1010A0005F914F913F912F910F900FBE0F901F9026
:1010B000189590E0FC01E25BFE4F2491FC01E65C98
:1010C000FE4F8491882399F090E0880F991FFC01CE
:1010D000E05DFE4FA591B491FC01EA5DFE4F859164
:1010E00094918FB7F894EC91E22BEC938FBF089515
:1010F000909179029111FCCF91E090937902409305
:1011000078022FEF2093770210927602260F209319
:1011100075029093740290917402880F892B8093CA
:10112000740280917302813061F410927302809195
:1011300074028093BB008091BC0083FDF8CF85ECE6
:1011400001C085EE8093BC00809179028130E1F38B
:1011500080917602861710F460917602A3E5B2E0E2
:10116000E3E3F2E080E0861721F09D9191938F5F99
:10117000FACF0895282F30913202313208F04AC058
:10118000809179028111FCCF9091030442E0409359
:101190007902209378022FEF209377021092760243
:1011A00030937502E2E1F2E0A3E5B2E020E032170D
:1011B00021F041914D932F5FFACF1092740220914C
:1011C0007402990F922B9093740290917302913054
:1011D00061F410927302909174029093BB0090910D
:1011E000BC0093FDF8CF95EC01C095EE9093BC0048
:1011F000909179029230E1F3909177029F3F79F0DC
:1012000080917702803241F080917702803331F013
:1012100084E005C081E003C082E001C083E0109259
:1012200011021092320210921002089591E09093F0
:10123000100280930304109211021092320208955A
:10124000813208F080E241E0682F86E70E9478084A
:1012500010920F0280930E02089581E00C94BA0858
:10126000682F87E193E00C9475024F925F926F9222
:101270007F928F929F92AF92BF92CF92DF92EF9226
:10128000FF92CF93DF93CDB7DEB7A4970FB6F89454
:10129000DEBF0FBECDBF8091F7019091F801A09104
:1012A000F901B091FA01BC01CD01905826EA3BE961
:1012B00044E45CE30E945A1D2B013C018091FB0138
:1012C0009091FC01A091FD01B091FE01BC01CD0106
:1012D000905826EA3BE944E45CE30E945A1D4B0126
:1012E0005C0126EA3BE944E45CE36091FF01709114
:1012F000000280910102909102020E945A1D6B012E
:101300007C01C301B2010E94541B6D837E838F83D5
:101310009887C501B4010E94541B69877A878B871F
:101320009C87C701B6010E94541B6D877E878F87FB
:10133000988B8091E3019091E401A091E501B09137
:10134000E601898B9A8BAB8BBC8BBC01CD010E94D3
:10135000541B6D8B7E8B8F8B988F8091DF019091CA
:10136000E001A091E101B091E201898F9A8FAB8FEA
:10137000BC8FBC01CD010E94541B69837A838B838F
:101380009C83C301B2010E94C71D6D8F7E8F8F8F1A
:1013900098A3C501B4010E94C71D69A37AA38BA3BA
:1013A0009CA3C701B6010E94C71D2B013C0169899E
:1013B0007A898B899C890E94C71D698B7A8B8B8B5C
:1013C0009C8B698D7A8D8B8D9C8D0E94C71D6B01C6
:1013D0007C0129813A814B815C816D857E858F8579
:1013E00098890E945A1D29893A894B895C890E94F3
:1013F0005A1D4B015C01A7019601C301B2010E9475
:101400005A1D9B01AC01C501B4010E94561A4B0143
:101410005C01A70196016D857E858F8598890E9464
:101420005A1D6B017C01A301920169817A818B8134
:101430009C810E945A1D29893A894B895C890E94A6
:101440005A1D9B01AC01C701B6010E94551A6D8758
:101450007E878F87988B9B01AC0169A17AA18BA1B4
:101460009CA10E945A1D6B017C0129813A814B810C
:101470005C8169857A858B859C850E945A1D2D89A2
:101480003E894F89588D0E945A1D9B01AC01C701AE
:10149000B6010E94551A2B013C016D8D7E8D8F8DFA
:1014A00098A19058A50194010E945A1D6B017C01DE
:1014B000A30192016D817E818F8198850E945A1DC2
:1014C0009B01AC01C701B6010E94551A6B017C015A
:1014D000A50194016D817E818F8198850E945A1D9E
:1014E0004B015C01A30192016D8D7E8D8F8D98A1C2
:1014F0000E945A1D9B01AC01C501B4010E94551AFE
:101500004B015C01A70196010E94F01A6D837E8356
:101510008F8398876093E3017093E4018093E501E2
:101520009093E601A5019401C501B4010E945A1DE2
:101530004B015C01A7019601C701B6010E945A1D2B
:101540009B01AC01C501B4010E94561A0E94D51D31
:101550006B017C0129813A814B815C816D897E8997
:101560008F89988D0E945A1D29A13AA14BA15CA197
:101570000E945A1D4B015C012D853E854F8558897F
:1015800069857A858B859C850E945A1D9B01AC01DB
:10159000C501B4010E94561AA70196010E94F01AD3
:1015A00069877A878B879C876093DF017093E0015E
:1015B0008093E1019093E2018091EB019091EC0125
:1015C000A091ED01B091EE0189839A83AB83BC8336
:1015D00020E030E0A901BC01CD010E944D1D18168C
:1015E00034F069817A818B819C81905804C0698133
:1015F0007A818B819C819B01AC010E945A1D6B01F9
:101600007C018090EF019090F001A090F101B090EA
:10161000F20120E030E0A901C501B4010E944D1D96
:10162000181624F0C501B401905802C0C501B401D8
:101630009B01AC010E945A1DA70196010E94561AF7
:101640006B017C014090F3015090F4016090F50132
:101650007090F60120E030E0A901C301B2010E94C0
:101660004D1D181624F0C301B201905802C0C301E9
:10167000B2019B01AC010E945A1DA70196010E9474
:10168000561A0E94D51D6B017C0126E636E646E619
:101690005FE30E944D1D18160CF064C020E030E09E
:1016A00040E85FE3C701B6010E944F1B87FF5AC0A5
:1016B000A3019201C501B4010E94F01A2B013C0163
:1016C00069817A818B819C819058A70196015F770F
:1016D0000E94591B0E94C21A6B017C012DEC3CEC4C
:1016E0004CE45FE36D817E818F8198850E945A1D55
:1016F0004B015C012DEC3CEC4CE45EE3C301B20118
:101700000E945A1D9B01AC01C501B4010E94561AEA
:101710006093E3017093E4018093E5019093E60107
:101720002DEC3CEC4CE45FE369857A858B859C85E8
:101730000E945A1D4B015C012DEC3CEC4CE45EE335
:10174000C701B6010E945A1D9B01AC01C501B4013D
:101750000E94561A6093DF017093E0018093E101CB
:101760009093E201A4960FB6F894DEBF0FBECDBFF2
:10177000DF91CF91FF90EF90DF90CF90BF90AF902F
:101780009F908F907F906F905F904F9008958F9271
:101790009F92AF92BF920F931F93CF93DF93CDB7DA
:1017A000DEB7A1970FB6F894DEBF0FBECDBF19A26A
:1017B000423008F44AE08E010F5D1F4F842E912CB9
:1017C000A12CB12CA50194010E94241AE62FB90185
:1017D000CA0101501109EA3014F4E05D01C0E95C6E
:1017E000D801EC93232B242B252B61F70115110530
:1017F00071F0F80101900020E9F73197AF01401B2B
:10180000510BB8018AE792E00E94DC0002C080E040
:1018100090E0A1960FB6F894DEBF0FBECDBFDF916A
:10182000CF911F910F91BF90AF909F908F9008958F
:1018300090E0FC01EE5EFE4F2491FC01E25BFE4F66
:101840003491FC01E65CFE4FE491EE2309F43CC0C8
:10185000222339F1233091F038F42130A9F02230DD
:1018600001F584B58F7D12C0273091F02830A1F0AA
:101870002430B9F4809180008F7D03C08091800076
:101880008F77809380000DC084B58F7784BD09C0A9
:101890008091B0008F7703C08091B0008F7D8093DE
:1018A000B000F0E0EE0FFF1FEA5DFE4FA591B4918E
:1018B0009FB7F894611104C08C913095382302C011
:1018C000EC913E2B3C939FBF08953FB7F8948091D5
:1018D000FF0390910004A0910104B091020426B589
:1018E000A89B05C02F3F19F00196A11DB11D3FBF58
:1018F000BA2FA92F982F8827820F911DA11DB11DE6
:10190000BC01CD0142E0660F771F881F991F4A95E1
:10191000D1F708958F929F92AF92BF92CF92DF92AC
:10192000EF92FF926B017C010E94650C4B015C0100
:10193000C114D104E104F104F1F00E94650CDC0152
:10194000CB0188199909AA09BB09883E9340A105D2
:10195000B10570F321E0C21AD108E108F10888EE60
:10196000880E83E0981EA11CB11CC114D104E104AF
:10197000F10419F7DDCFFF90EF90DF90CF90BF908B
:10198000AF909F908F9008951F920F920FB60F9275
:1019900011242F933F938F939F93AF93BF93809185
:1019A000DB019091DC01A091DD01B091DE0130916D
:1019B000FE0323E0230F2D3720F40196A11DB11D56
:1019C00005C026E8230F0296A11DB11D2093FE033A
:1019D0008093DB019093DC01A093DD01B093DE01E5
:1019E0008091FF0390910004A0910104B091020442
:1019F0000196A11DB11D8093FF0390930004A09355
:101A00000104B0930204BF91AF919F918F913F91D8
:101A10002F910F900FBE0F901F901895CF93DF93CB
:101A2000CDB7DEB7EA970FB6F894DEBF0FBECDBFD5
:101A3000789484B5826084BD84B5816084BD85B5A9
:101A4000826085BD85B5816085BD80916E008160B5
:101A500080936E001092810080918100826080935B
:101A6000810080918100816080938100809180005D
:101A70008160809380008091B10084608093B10088
:101A80008091B00081608093B00080917A00846082
:101A900080937A0080917A00826080937A008091AE
:101AA0007A00816080937A0080917A0080688093C8
:101AB0007A001092C100E0918A02F0918B0282E0DC
:101AC0008083E0918602F09187021082E091880283
:101AD000F09189028FEC808310929202E0918E0245
:101AE000F0918F0286E08083E0918C02F0918D026C
:101AF000808180618083E0918C02F0918D028081F1
:101B000088608083E0918C02F0918D0280818068F2
:101B10008083E0918C02F0918D0280818F7D8083A3
:101B200010920F0210920E021092110210923202C5
:101B300010927902EE24E394E092780210927302FC
:101B400061E082E10E94180C61E083E10E94180CC0
:101B50008091B9008E7F8093B9008091B9008D7F0C
:101B60008093B90088E48093B80085E48093BC003A
:101B70008AE192E090933D0180933C018BE192E0F9
:101B800090933B0180933A0188E60E9416098BE608
:101B900090E00E94300980E090E00E94300981E0EE
:101BA0000E94BA0868EE73E080E090E00E948A0C20
:101BB000E092F90380E090E4A9E7B4E48093FA03AB
:101BC0009093FB03A093FC03B093FD0386E70E9470
:101BD00016098EE190E00E9430090E942D096AE00A
:101BE00070E080E090E00E948A0C19EDE12E13E095
:101BF000F12E20EA30E03A83298386E70E94160915
:101C000089819A810E9430090E942D0941E062E099
:101C100086E70E94780810920F0280930E0287E1F7
:101C200093E00E942C02D82E87E193E00E942C02C0
:101C30001D2D00E0802B912BD7018D939D937D016D
:101C4000E981FA813296FA83E983EE3AF105A9F641
:101C50008091D9039091DA039F709093DA03809377
:101C6000D9031092E8031092E70368EE73E080E076
:101C700090E00E948A0C68E070E088E993E00E949E
:101C8000CE0567E070E089EA93E00E94CE0564E04B
:101C900070E08AEB93E00E94CE0565E070E085E697
:101CA00093E00E94CE0566E070E084E593E00E9438
:101CB000CE0563E070E087E893E00E94CE0562E025
:101CC00070E086E793E00E94CE051092CC0310925C
:101CD000CB031092CE031092CD031092D00310923A
:101CE000CF03109231031092D10360E070E081E3E2
:101CF00093E00E94D60681E08093D60368EB7BE0F8
:101D000080E090E00E948A0CF8948CE00E945908D0
:101D10008CB580648CBD8FEF8EBD8CB580688CBD1A
:101D200078948CE090E0A0E0B0E08093230390935F
:101D30002403A0932503B09326032FB7F894809132
:101D4000DB019091DC01A091DD01B091DE012FBF9C
:101D50008093270390932803A0932903B0932A0329
:101D60001092300310922F0310922D0310922E0325
:101D70000E94650C009148011091490120914A018F
:101D800030914B01DC01CB01801B910BA20BB30BFB
:101D900081329E44A105B10560F00E94650C6093FC
:101DA00048017093490180934A0190934B0121E0CF
:101DB00001C020E08091D7039091D803892BA9F42A
:101DC000222399F086E70E9416098AE490E00E9497
:101DD00030090E942D098091D7039091D803019674
:101DE0009093D8038093D70320E08091D7039091FC
:101DF000D803019709F06BC0222309F468C086E775
:101E00000E94160980E090E00E9430090E942D098E
:101E100083E090E00E9420091092E9031092EA0307
:101E20001092EB031092EC0387E193E00E942C02E6
:101E30006C01990FEE08FF08C092E903D092EA0303
:101E4000E092EB03F092EC0387E193E00E942C0216
:101E5000FE2CED2CDC2CCC24092E000CAA0BBB0B89
:101E6000C82AD92AEA2AFB2AC092E903D092EA03B7
:101E7000E092EB03F092EC0387E193E00E942C02E6
:101E8000FE2CED2CDC2CCC24092E000CAA0BBB0B59
:101E90008C299D29AE29BF298093E9039093EA03F9
:101EA000A093EB03B093EC0386E70E9416098AE542
:101EB00090E00E9430090E942D098091D7039091F3
:101EC000D80301969093D8038093D70320E08091A4
:101ED000D7039091D803029709F05EC4222309F436
:101EE0005BC486E70E94160980E090E00E943009FA
:101EF0000E942D0983E090E00E9420091092ED03DA
:101F00001092EE031092EF031092F00387E193E03A
:101F10000E942C026C01990FEE08FF08C092ED039D
:101F2000D092EE03E092EF03F092F00387E193E0AA
:101F30000E942C02FE2CED2CDC2CCC24092E000C53
:101F4000AA0BBB0BC82AD92AEA2AFB2AC092ED03A6
:101F5000D092EE03E092EF03F092F00387E193E07A
:101F60000E942C02FE2CED2CDC2CCC24092E000C23
:101F7000AA0BBB0BC82AD92AEA2AFB2AC092ED0376
:101F8000D092EE03E092EF03F092F0032091E3038E
:101F90003091E403C901A0E0B0E0BA2FA92F982F37
:101FA000882716012701281A390A4A0A5B0AE09095
:101FB000F903EEA2E091DF03F091E003E090DB0390
:101FC000F090DC03FA82E9820091E9031091EA03C0
:101FD0002091EB033091EC030AA31BA32CA33DA398
:101FE0001EA1113009F08CC0970140E050E060E084
:101FF00070E080E090E000E10E94CE1F29833D87E1
:102000003A014B01898B9987BF0180E090E0A201E2
:1020100091010E94BD1EF22E032F142FB52FF62F13
:10202000E72FD82EE92EA0E00E9423205CF4AFE732
:102030000E940E20F22E032F142FB52FF62FE72F1C
:10204000D82EE92E2F2D302F412F5B2F6F2F7E2F73
:102050008D2D9E2D07E00E94E71F59016A017B012B
:102060008C0129813D85A301B401898999850E944C
:1020700005202D8B398F4A8F5B8F6C8F7D8F8E8FD4
:102080009F8FE091E103F091E2032091DD03309115
:10209000DE0340E050E060E070E080E090E001E1CD
:1020A0000E94CE1F29833D873A014B01898B998776
:1020B000BF0180E090E0A20191010E94BD1EF22EBE
:1020C000032F142FB52FF62FE72FD82EE92EA0E0DF
:1020D0000E9423205CF4AFE30E940E20F22E032F17
:1020E000142FB52FF62FE72FD82EE92E2F2D302FB6
:1020F000412F5B2F6F2F7E2F8D2D9E2D06E092C0DE
:10210000BF0180E090E0A20191010E94BD1EF22E6D
:10211000032F142FB52FF62FE72FD82EE92EA0E08E
:102120000E94232084F421503F4F4F4F5F4F6F4F49
:102130007F4F8F4F9F4FF22E032F142FB52FF62F67
:10214000E72FD82EE92E2F2D302F412F5B2F6F2F09
:102150007E2F8D2D9E2D08E00E94E71F39014A0138
:10216000B62FA72FF82FE92F29813A81C12CD12C26
:10217000A60160E070E080E090E00FE00E94CE1FDA
:1021800059016A017B018C019301A4016B2F7A2F05
:102190008F2F9E2F0E9405202D8B398F4A8F5B8FAA
:1021A0006C8F7D8F8E8F9F8FE091E103F091E20322
:1021B0002091DD033091DE0340E050E060E070E00C
:1021C00080E090E000E10E94CE1F29833D873A0124
:1021D0004B01898B9987BF0180E090E0A2019101BA
:1021E0000E94BD1EF22E032F142FB52FF62FE72FBE
:1021F000D82EE92EA0E00E9423205CF4AFE70E94D5
:102200000E20F22E032F142FB52FF62FE72FD82EE6
:10221000E92E2F2D302F412F5B2F6F2F7E2F8D2DED
:102220009E2D07E00E94E71F59016A017B018C0186
:1022300029813D85A301B401898999850E940520E2
:1022400029AF3AAF498B5A8B6B8B7C8B88A399A3B0
:10225000EAA0FBA00CA11DA1A801970160E070E01D
:10226000CB0129833A834B835C836D837E838F8389
:10227000988792018101330F000B102F9801098379
:102280001A832B833C836091E5037091E60380E021
:1022900090E0A20191010E94BD1EF22E032F142F87
:1022A000B52FF62FE72FD82EE92EA0E00E9423208D
:1022B00084F42150310940485F4F6F4F7F4F8F4F5B
:1022C0009F4FF22E032F142FB52FF62FE72FD82E66
:1022D000E92E2F2D302F412F5B2F6F2F7E2F8D2D2D
:1022E0009E2D07E10E94E71F49015A01A5019401B3
:1022F0002053384F4F4F5F4F2D873E874F87588B66
:102300003EA1313009F07AC04D855E856F857889B0
:10231000403D5740610571050CF030C1C201B1016B
:102320002BE030E040E050E00E94BD1E5101620110
:10233000E980FE2C0E2D1E2D0E94641EF22E032F0E
:10234000142FB52FF62FE72FD82EE92EA0E00E94EC
:10235000232084F42150310941095109684F7F4FEE
:102360008F4F9F4FF22E032F142FB52FF62FE72FED
:10237000D82EE92E2F2D302F412F5B2F6F2F7E2F40
:102380008D2D9E2D03E20E94E71F29833A834B8304
:102390005C83AFE1B0E08D849E84AF84B88890ED1B
:1023A000891A97E0990AA108B108A50194010E9431
:1023B000191A9B01AC01C501B4010E942E1E7B01BC
:1023C0008C0143E015950795F794E7944A95D1F76A
:1023D000AFE3B0E0A50194010E94191A9B01AC0182
:1023E000C501B4010E942E1E2B013C0155E07594DD
:1023F0006794579447945A95D1F7CAC00D851E85A6
:102400002F853889003D1740210531050CF0A2C009
:10241000C201B10123E030E040E050E00E94BD1E67
:1024200051016201E980FE2C0E2D1E2D0E94641EBA
:10243000F22E032F142FB52FF62FE72FD82EE92ECB
:10244000A0E00E94232084F4215031094109510960
:102450006E4F7F4F8F4F9F4FF22E032F142FB52FAC
:10246000F62FE72FD82EE92E2F2D302F412F5B2F5F
:102470006F2F7E2F8D2D9E2D01E20E94E71F298355
:102480003A834B835C83A3E0B0E08D849E84AF8469
:10249000B88850ED851A57E0950AA108B108A50142
:1024A00094010E94191A9B01AC01C501B4010E945C
:1024B0002E1E7B018C0115950795F794E794A5E0F6
:1024C000B0E0A50194010E94191A9B01AC01C5015D
:1024D000B4010E942E1E2B013C0133E075946794D9
:1024E000579447943A95D1F76D857E858F85988965
:1024F000613CA9EF7A07AFEF8A079A070CF048C052
:10250000A7E0B0E04B015C01ECED8E0EE5E09E1E15
:10251000A11CB11CA50194010E94191A9B01AC01D8
:10252000C501B4010E942E1EE60EF71E081F191FDA
:10253000A501940192E0220F331F441F551F9A9565
:10254000D1F7C501B4010E942E1E460E571E681E0B
:10255000791E1EC0A5019401C501B4010E942E1E62
:102560007B018C0184E015950795F794E7948A9593
:10257000D1F719821A821B821C8207C019821A8223
:102580001B821C82E12CF12C8701412C512C320141
:10259000A8019701550F220B322FA90129873A87ED
:1025A0004B875C8729AD3AAD49895A896B897C890B
:1025B00088A199A157016801E984FE2C0E2D1E2DDA
:1025C0000E941A204901498B5A8B362E272E8B8B5D
:1025D0009C8BB301A201770F440B542FBA0149879A
:1025E0005A876B877C872D89398D4A8D5B8D6C8DE1
:1025F0007D8D8E8D9F8D52016301E984FE2C0E2D01
:102600001E2D0E941A2059016A017B018C018D85C3
:102610009E85AF85B88929813A814B815C81821B77
:10262000930BA40BB50B3EA18093F1039093F2039F
:10263000A093F303B093F403313009F04EC06AA1C4
:102640007BA18CA19DA1AB01BC0180E090E0DC01ED
:1026500049835A836B837C838D839E83AF83B88742
:102660009A01AB0160E070E080E090E00E94641E9F
:10267000F22E032F142FB52FF62FE72FD82EE92E89
:10268000A0E00E94232084F421503109404E5F4F86
:102690006F4F7F4F8F4F9F4FF22E032F142FB52F69
:1026A000F62FE72FD82EE92E2F2D302F412F5B2F1D
:1026B0006F2F7E2F8D2D9E2D05E10E94E71F540167
:1026C000C988DA88E32CF22C0B891C890E941A2015
:1026D000A12CB12CF2E3CF2E4CC04AA15BA16CA17E
:1026E0007DA19A01AB0160E070E0CB0129833A83C0
:1026F0004B835C836D837E838F83988760E070E07B
:1027000080E090E00E94641EF22E032F142FB52F5C
:10271000F62FE72FD82EE92EA0E00E94232084F484
:1027200021503109404E5F4F6F4F7F4F8F4F9F4F6A
:10273000F22E032F142FB52FF62FE72FD82EE92EC8
:102740002F2D302F412F5B2F6F2F7E2F8D2D9E2D04
:1027500005E10E94E71F5401C988DA88E32CF22CB6
:102760000B891C890E941A20A12CE0E4BE2ECC24E7
:10277000C394D12CE12CF12C00E010E00E94F91E52
:102780002093F5033093F6034093F7035093F80337
:102790001092D8031092D70380912F0390913003A9
:1027A000892B29F52FB7F8948091DB019091DC01FA
:1027B000A091DD01B091DE012FBF40912703509120
:1027C00028036091290370912A03841B950BA60BA3
:1027D000B70B40912303509124036091250370911E
:1027E000260384179507A607B70708F0C2C480918F
:1027F0002F0390913003019709F0B7C42FB7F894D5
:102800008091DB019091DC01A091DD01B091DE01AE
:102810002FBF8093270390932803A0932903B0939D
:102820002A031092300310922F0310922D0310925E
:102830002E030E94650C6D8B7E8B8F8B988F51E4DD
:1028400050937C0080917A00806480937A0080911C
:102850007A0086FDFCCF609178008091790070E06D
:10286000782B072E000C880B990B0E94031C2AEA78
:1028700031EF42E050E40E94591B6B017C016093F0
:1028800054017093550180935601909357016091C4
:10289000F5037091F6038091F7039091F8030E947D
:1028A000031C60934301709344018093450190930E
:1028B000460188E60E9416098BE390E00E943009E9
:1028C00080E00E94BA0841E06EE088E60E94780845
:1028D00010920F0280930E0287E193E00E942C0277
:1028E000898387E193E00E942C02098108A71FA237
:1028F0002FA138A5822B932BBC01990F880B990B24
:102900000E94031C6093EB017093EC018093ED0136
:102910009093EE0187E193E00E942C02898387E186
:1029200093E00E942C0209810AA719A629A53AA5BD
:10293000822B932BBC01990F880B990B0E94031CCF
:102940006093EF017093F0018093F1019093F20195
:1029500087E193E00E942C02898387E193E00E9443
:102960002C0209810CA71BA62BA53CA5822B932B1F
:10297000BC01990F880B990B0E94031C6093F30113
:102980007093F4018093F5019093F60187E193E051
:102990000E942C02898387E193E00E942C02098126
:1029A0000EA71DA62DA53EA5822B932BBC01990F2A
:1029B000880B990B0E94031C6093E7017093E80158
:1029C0008093E9019093EA0187E193E00E942C0251
:1029D000898387E193E00E942C02098108AB1FA63E
:1029E0002FA538A9822B932BBC01990F880B990B2B
:1029F0000E94031C6093F7017093F8018093F90122
:102A00009093FA0187E193E00E942C02898387E189
:102A100093E00E942C0209810AAB19AA29A93AA9BC
:102A2000822B932BBC01990F880B990B0E94031CDE
:102A30006093FB017093FC018093FD019093FE0174
:102A400087E193E00E942C02182F87E193E00E9417
:102A50002C029A83898320E030E04AEA53E46091B3
:102A6000E7017091E8018091E9019091EA010E94EB
:102A7000591B28EB3EE142E152E40E94561A609352
:102A8000E7017093E8018093E9019093EA0123E361
:102A900033EF48EA53E46091EB017091EC018091CF
:102AA000ED019091EE010E94551A90582AE13CEAFE
:102AB00042E856E40E94591B6093EB017093EC01CD
:102AC0008093ED019093EE0122EB3DE84FEC53E44F
:102AD0006091EF017091F0018091F1019091F2010C
:102AE0000E94551A90582DE934EF4CE756E40E94A5
:102AF000591B6093EF017093F0018093F101909363
:102B0000F20129EC3EE84FEC54E46091F30170913E
:102B1000F4018091F5019091F6010E94551A24E18B
:102B200037EC45E856E40E94591B6093F30170931B
:102B3000F4018093F5019093F60129E831EA4EEA19
:102B400053E46091F7017091F8018091F90190913F
:102B5000FA010E94551A905820E030E44CE155E407
:102B60000E94591B6093F7017093F8018093F9015B
:102B70009093FA012EE03DE84AE153E46091FB01B5
:102B80007091FC018091FD019091FE010E94551A07
:102B9000905820E030E44CE155E40E94591B6093CA
:102BA000FB017093FC018093FD019093FE011CAB2F
:102BB0001BAA6BA97CA909811A81602B712B072E96
:102BC000000C880B990B0E94031C21ED32E240E3BC
:102BD00053E40E94561A20E030E44CE155E40E9490
:102BE000591B6093FF017093000280930102909340
:102BF00002020E9435090E943509C701B6010E94F0
:102C0000D21B609341016091430170914401809116
:102C100045019091460120E030E045E754E40E94F0
:102C2000551A0E94D21B609342012AE939E949E40E
:102C300050E46091DF017091E0018091E101909199
:102C4000E2010E94561A20E030E040E251E40E9486
:102C50005A1D0E94D21B60933F012AE939E949E4D9
:102C600050E46091E3017091E4018091E50190915D
:102C7000E6010E94561A20E030E040E251E40E9452
:102C80005A1D0E94D21B60933E016091E701709132
:102C9000E8018091E9019091EA010E94D21B6093C2
:102CA000400180914701882309F49CC08091310341
:102CB000811115C060E070E084E593E00E94840615
:102CC00060E070E085E693E00E94840660E070E0DA
:102CD00086E793E00E94840660E070E07DC020916A
:102CE000CB033091CC038091CD039091CE034091E2
:102CF000CF035091D003B901681B790BCB01840F2E
:102D0000951F20913A0330913B03829FB001839F2E
:102D1000700D929F700D112484E593E00E9484064B
:102D20008091CD039091CE034091CB035091CC0381
:102D30002091CF033091D003919581959109841B07
:102D4000950B821B930B20913C0330913D03829F96
:102D5000B001839F700D929F700D112485E693E062
:102D60000E9484062091CD033091CE034091CB0385
:102D70005091CC038091CF039091D003841B950B8D
:102D8000821B930B20913E0330913F03829FB00141
:102D9000839F700D929F700D112486E793E00E942F
:102DA00084068091CB039091CC034091CD03509148
:102DB000CE032091CF033091D003841B950B821B4F
:102DC000930B2091400330914103829FB001839F78
:102DD000700D929F700D112487E893E00E94840685
:102DE00010924701E0904301F090440100914501A9
:102DF00010914601E982FA820B831C838091D603ED
:102E0000882309F489C18091310381110FC060E0EA
:102E100070E088E993E00E94840660E070E089EA4F
:102E200093E00E94840660E070E072C18090E3014C
:102E30009090E401A090E501B090E601C090DF0120
:102E4000D090E001E090E101F090E2012DEC3CEC4B
:102E50004CE45DE3C501B4010E944D1D1816BCF59C
:102E60002FE832EC45EF5CE3C501B4010E945A1D26
:102E700020914C0130914D0140914E0150914F01F4
:102E80000E94561A2B013C0160934C0170934D0136
:102E900080934E0190934F0120E030E04AE753E4E5
:102EA000C501B4010E945A1D0E94CB1B4B015C015D
:102EB00020E030E0A901C301B2010E945A1D0E9426
:102EC000CB1B8B01080D191D18AF0FAB08C010925A
:102ED0004C0110924D0110924E0110924F012FA9FA
:102EE00038ADB901330F880B990B0E94031C698719
:102EF0007A878B879C872DEC3CEC4CE45DE3C70123
:102F0000B6010E944D1D1816BCF52FE832EC45EFB6
:102F10005CE3C701B6010E945A1D20915001309117
:102F2000510140915201509153010E94561A4B0198
:102F30005C01609350017093510180935201909312
:102F4000530120E030E04AE753E4C701B6010E9494
:102F50005A1D0E94CB1B6B017C0120E030E0A901CF
:102F6000C501B4010E945A1D0E94CB1BAB014C0D40
:102F70005D1D5EAB4DAB08C0109250011092510127
:102F80001092520110925301ADA9BEA9BD01BB0F11
:102F9000880B990B0E94031C6D877E878F87988B07
:102FA0008091360390913703181619060CF4E8C087
:102FB0006091320370913303809134039091350313
:102FC00020E030E0A9010E944D1D18160CF4D8C075
:102FD0008091D103882309F4F9C0E980FA800B813C
:102FE0001C81E092D203F092D3030093D403109398
:102FF000D5031092D1031A82198260E070E0072E87
:10300000000C880B990B0E94031C6B017C01098149
:103010001A81B801110F880B990B0E94031C4B01F8
:103020005C0129853A854B855C850E94551A2B01E8
:103030003C0100913803109139032D853E854F8561
:1030400058890E94551A000F111F000F111F0F5CA5
:103050001C4FD80157962D913D914D915C915A97F7
:103060000E94591BA70196010E94561A0E94CB1B71
:1030700089EA93E00E948406009138031091390395
:103080002D853E854F855889C301B2010E94561A8D
:10309000000F111F000F111F0F5C1C4FD801579616
:1030A0002D913D914D915C915A970E94591BA7011A
:1030B00096010E94561A0E94CB1B88E993E00E9459
:1030C0008406009138031091390326E636E646EE71
:1030D0005FE369857A858B859C850E945A1DA501D1
:1030E00094010E94561A000F111F000F111F0F5C50
:1030F0001C4FD80157962D913D914D915C915A9757
:103100000E94591BA70196010E94561A0E94CB1BD0
:103110008AEB93E00E9484060E94650C6B017C019F
:103120000D891E892F89388DC01AD10AE20AF30A47
:10313000F7FE0EC06DE28AE792E00E946F016627FB
:103140007727CB016C197D098E099F094AE003C0DE
:103150004AE0C701B6010E94C70B42E050E066E3B7
:1031600071E08AE792E00E94DC000E94DE010C948C
:10317000B80E21E030E03093300320932F0337CB9B
:1031800031E03093D103C0903203D0903303E0900C
:103190003403F09035036091360370913703072EA6
:1031A000000C880B990B0E94031C9B01AC01C7010A
:1031B000B6010E94551A20E030E04EEF52E40E9422
:1031C0005A1D0E94CB1B1A82198219CF6091D2031B
:1031D0007091D3038091D4039091D50329813A81D2
:1031E0004B815C810E94551A905820E030E048ECF9
:1031F00051E40E945A1D0E94CB1B7A836983FDCE45
:10320000FC01809172018C30A8F491E0980F9093AA
:103210007201868790E0DC01AA0FBB1F8A0F9B1FFB
:10322000DC01AC58BE4F88EB9BE012969C938E93CA
:10323000119702C08FEF8687F8941092B000109219
:10324000B1001092B2008FEF8093B3008091B10073
:1032500088608093B1008091B10085608093B10057
:1032600084EA96E09783868384E195E0918780875E
:103270008681978120853185821B930B880F991F4A
:1032800064E670E00E944A1E758364838CED95E0CD
:103290009183808380819181938382838FEF9FEFDD
:1032A00095878487809160019091610193878287DF
:1032B000DC01AA0FBB1FAE59BE4FED93FC930196E4
:1032C000909361018093600178940895CF93DF9388
:1032D000EAE7F2E01382128288EE93E0A0E0B0E029
:1032E00084839583A683B78326E131E031832083ED
:1032F00025EC30E03587248724EC30E037872687BB
:1033000020EC30E0318B208B21EC30E0338B228BB2
:1033100022EC30E0358B248B26EC30E0378B268B8B
:10332000118E128E138E148EE7E1F3E01382128257
:1033300084839583A683B78388E291E09183808319
:1033400080E090EAA0E8B4E48093FA039093FB0352
:10335000A093FC03B093FD03E1E3F3E08FEF9FEF55
:103360009287818794878387C1E0D0E0D687C5871D
:10337000D08BC787D28BC18BD48BC38BD68BC58B9D
:103380008CE0E6E0F1E0A8E4B3E001900D928A95CC
:10339000E1F784E593E00E94001985E693E00E943E
:1033A000001986E793E00E94001987E893E00E94E5
:1033B000001988E993E00E94001989EA93E00E94CD
:1033C00000198AEB93E00E9400191092D603E3E201
:1033D000F3E0108211821282138214821582168207
:1033E00017821186108612861386D587C487DF91CF
:1033F000CF910895052E97FB1EF400940E94111A98
:1034000057FD07D00E94241A07FC03D04EF40C94F9
:10341000111A50954095309521953F4F4F4F5F4F72
:10342000089590958095709561957F4F8F4F9F4F30
:1034300008950E94461AA59F900DB49F900DA49FD9
:10344000800D911D11240895A1E21A2EAA1BBB1B09
:10345000FD010DC0AA1FBB1FEE1FFF1FA217B30760
:10346000E407F50720F0A21BB30BE40BF50B661F76
:10347000771F881F991F1A9469F76095709580953A
:1034800090959B01AC01BD01CF010895A29FB001B1
:10349000B39FC001A39F700D811D1124911DB29F88
:1034A000700D811D1124911D08955058BB27AA2726
:1034B0000E946D1A0C94FF1C0E94C61C38F00E94DA
:1034C000CD1C20F039F49F3F19F426F40C94881C8D
:1034D0000EF4E095E7FB0C94821CE92F0E94241D5A
:1034E00058F3BA17620773078407950720F079F439
:1034F000A6F50C94461D0EF4E0950B2EBA2FA02DC8
:103500000B01B90190010C01CA01A0011124FF2790
:10351000591B99F0593F50F4503E68F11A16F0408B
:10352000A22F232F342F4427585FF3CF469537958A
:103530002795A795F0405395C9F77EF41F16BA0B4F
:10354000620B730B840BBAF09150A1F0FF0FBB1FFD
:10355000661F771F881FC2F70EC0BA0F621F731F46
:10356000841F48F4879577956795B795F7959E3FA3
:1035700008F0B0CF9395880F08F09927EE0F979534
:10358000879508959F939F77EEE389379E0728F4E8
:10359000EAE8F0E00E94B21C0CC00E943E1C905869
:1035A000A2EA2AED3FE049EC5FE30E946D1A0E9417
:1035B000FF1C0F9007FC905808950E94C61C60F0F5
:1035C00080E891E009F49EEF0E94CD1C28F040E8CD
:1035D00051E071F45EEF0CC00C94881C0C94461DF5
:1035E000E92FE0780E94241D40F3092E052AB1F34B
:1035F000261737074807590738F00E2E07F8E02539
:1036000069F0E025E0640AC0EF6307F8009407FA68
:10361000DB01B9019D01DC01CA01AD01EF930E94FC
:10362000701B0E94FF1C0E94201B5F91552339F0E4
:103630002BED3FE049E450FD49EC0C94561A0895F7
:10364000DF93DD27B92FBF7740E85FE31616170633
:1036500048075B0718F4D92F0E94521D9F938F9340
:103660007F936F930E94151EEEE9F0E00E948B1C81
:103670000E94FF1C2F913F914F915F910E946D1D01
:10368000DD2351F09058A2EA2AED3FE049EC5FE3D8
:10369000D0785D270E946D1ADF910C94FF1C0E9468
:1036A0005E1C08F481E008950E94D61CE3950C94FA
:1036B000101D0E946D1B0C94FF1C0E94CD1C58F025
:1036C0000E94C61C40F029F45F3F29F00C94821C34
:1036D00051110C94471D0C94881C0E94241D68F302
:1036E0009923B1F3552391F3951B550BBB27AA27BB
:1036F00062177307840738F09F5F5F4F220F331FF5
:10370000441FAA1FA9F335D00E2E3AF0E0E832D0BC
:1037100091505040E695001CCAF72BD0FE2F29D0BF
:10372000660F771F881FBB1F261737074807AB0791
:10373000B0E809F0BB0B802DBF01FF2793585F4F06
:103740003AF09E3F510578F00C94821C0C94471D72
:103750005F3FE4F3983ED4F3869577956795B795E8
:10376000F7959F5FC9F7880F911D9695879597F9F3
:103770000895E1E0660F771F881FBB1F621773076C
:103780008407BA0720F0621B730B840BBA0BEE1F81
:1037900088F7E09508950E94D21B6894B1110C94AB
:1037A000471D08950E942C1D88F09F5798F0B92F4F
:1037B0009927B751B0F0E1F0660F771F881F991F66
:1037C0001AF0BA95C9F714C0B13091F00E94461DA5
:1037D000B1E008950C94461D672F782F8827B85FB5
:1037E00039F0B93FCCF3869577956795B395D9F7BE
:1037F0003EF490958095709561957F4F8F4F9F4FC8
:103800000895E89409C097FB3EF4909580957095D3
:1038100061957F4F8F4F9F4F9923A9F0F92F96E91C
:10382000BB279395F695879577956795B795F11191
:10383000F8CFFAF4BB0F11F460FF1BC06F5F7F4F2E
:103840008F4F9F4F16C0882311F096E911C0772340
:1038500021F09EE8872F762F05C0662371F096E849
:10386000862F70E060E02AF09A95660F771F881F18
:10387000DAF7880F9695879597F90895DF93CF9398
:103880001F930F938B01EC01EBECF0E00E948B1C7B
:103890000E94FF1C9801AE018B01EC0160E070E01A
:1038A00080E89FE30E94551A0E94D51D9801AE0141
:1038B0000F911F91CF91DF910C946D1D990F00080E
:1038C000550FAA0BE0E8FEEF16161706E807F907F2
:1038D000C0F012161306E407F50798F0621B730B8D
:1038E000840B950B39F40A2661F0232B242B252B0E
:1038F00021F408950A2609F4A140A6958FEF811DB1
:10390000811D089597F99F6780E870E060E0089551
:103910009FEF80EC0895DF93CF931F930F93FF9257
:10392000EF92DF927B018C01689406C0DA2EEF01E2
:103930000E946D1DFE01E894A59125913591459158
:103940005591A6F3EF010E946D1AFE019701A8019F
:10395000DA9469F7DF90EF90FF900F911F91CF916C
:10396000DF9108959F938F937F936F93FF93EF93CE
:103970009B01AC010E945A1DEF91FF910E948B1C8C
:103980002F913F914F915F910C945A1D00240A94FE
:103990001616170618060906089500240A9412162A
:1039A00013061406050608950C94881C0E942C1D0D
:1039B000D8F3E894E0E0BB279F57F0F02AED3FE012
:1039C00049EC06C0EE0FBB0F661F771F881F28F05B
:1039D000B23A62077307840728F0B25A620B730B7E
:1039E000840BE3959A9572F7803830F49A95BB0F63
:1039F000661F771F881FD2F790480C941B1E092E54
:103A00000394000C11F4882352F0BB0F40F4BF2B39
:103A100011F460FF04C06F5F7F4F8F4F9F4F089579
:103A2000EF93E0FF07C0A2EA2AED3FE049EC5FEB2D
:103A30000E946D1A0E94FF1C0F90039401FC905885
:103A4000E3EFF0E00C94B21C57FD9058440F551F63
:103A500059F05F3F71F04795880F97FB991F61F010
:103A60009F3F79F087950895121613061406551F87
:103A7000F2CF4695F1DF08C0161617061806991FF3
:103A8000F1CF86957105610508940895E894BB27E8
:103A900066277727CB0197F908950E945E1C08F4EA
:103AA0008FEF08959B01AC0160E070E080E89FE338
:103AB0000C94591B0E946D1D0C94FF1C0E94C61C87
:103AC00038F00E94CD1C20F0952311F00C94821C3C
:103AD0000C94881C11240C94471D0E94241D70F323
:103AE000959FC1F3950F50E0551F629FF001729FA3
:103AF000BB27F00DB11D639FAA27F00DB11DAA1FB2
:103B0000649F6627B00DA11D661F829F2227B00DFE
:103B1000A11D621F739FB00DA11D621F839FA00D89
:103B2000611D221F749F3327A00D611D231F849FD9
:103B3000600D211D822F762F6A2F11249F57504030
:103B40009AF0F1F088234AF0EE0FFF1FBB1F661FAB
:103B5000771F881F91505040A9F79E3F510580F074
:103B60000C94821C0C94471D5F3FE4F3983ED4F301
:103B7000869577956795B795F795E7959F5FC1F718
:103B8000FE2B880F911D9695879597F908959F9321
:103B90000E94D61C0F9007FCEE5F0C94101D19F4C8
:103BA00016F40C94881C0C94191E0E942C1DB8F35A
:103BB0009923C9F3B6F39F57550B87FF0E94271E21
:103BC0000024A0E640EA900180585695979528F485
:103BD000805C660F771F881F20F02617370748077D
:103BE00030F4621B730B840B202931294A2BA695D4
:103BF00017940794202531254A2758F7660F771F19
:103C0000881F20F026173707480730F4620B730B24
:103C1000840B200D311D411DA09581F7B901842F22
:103C20009158880F9695879508959B01AC010C9447
:103C30005A1D9F3F31F0915020F4879577956795F5
:103C4000B795880F911D9695879597F9089591508E
:103C50005040660F771F881FD2F70895DB018F93BE
:103C60009F930E94191ABF91AF91A29F800D911D41
:103C7000A39F900DB29F900D11240895991B79E098
:103C800004C0991F961708F0961B881F7A95C9F7EC
:103C90008095089597FB072E16F4009407D077FDC2
:103CA00009D00E942F2007FC05D03EF49095819505
:103CB0009F4F0895709561957F4F0895EE0FFF1FF8
:103CC0000590F491E02D0994DF93CF931F930F9308
:103CD0009A9DF02D219FF00D8B9DF00D8A9DE02D7A
:103CE000F10D039FF00D029FE00DF11D4E9DE00DC3
:103CF000F11D5E9DF00D4F9DF00D7F936F93BF9270
:103D0000AF925F934F93D5010E94461A8B01AC018D
:103D1000D7010E94461AEB01E80FF91FD6010E9455
:103D2000B41E2F913F91D6010E94461AC60FD71F8D
:103D3000E81FF91FAF91BF910E94B41E2F913F91D0
:103D40000E94461AC60FD71FE81FF91FD6010E940E
:103D5000461AE60FF71F9801BE01CF0111240F91FB
:103D60001F91CF91DF9108950E94461A460F571F69
:103D7000C81FD91F08F43196089597FB57FF0C947C
:103D8000CD1E9F938F930E94CD1E6E1B7F0BAF9114
:103D9000BF918A0B9B0B0895E894DF93CF93FC01AE
:103DA000DB010E94461A7F936F93E9019A01AC01EF
:103DB000BF93AF933F932F93DF010E94461A26F4DF
:103DC0006C1B7D0B820B930B9E01EB01FC010E948F
:103DD000B41EAF91BF912F913F910E94B41EBE01BE
:103DE000CF01F9012F913F91CF91DF910895689410
:103DF00001C0E894F92FF12B12F00C942B1FA0E0D6
:103E0000B0E0E5E0FFE10C949D1F092E059422F43B
:103E10000E94871F112392F4F0E80F26FFEFE09431
:103E2000F09400951095B094C094D094A194BF0ADA
:103E3000CF0ADF0AEF0AFF0A0F0B1F0B0E94361F83
:103E400007FC0E94871FCDB7DEB7ECE00C94B91FCA
:103E5000689401C0E8948F929F92CF93DF930E9461
:103E6000361FDF91CF919F908F90089588249924D9
:103E7000F401E401B0E49F93AA279A158B049C04F3
:103E8000ED05FE05CF05D007A10798F4AD2FDC2F77
:103E9000CF2FFE2FE92D982C892E982F872F762F44
:103EA000652F542F432F322F2227B85031F7BF915F
:103EB00027C01B2EBF91BB27220F331F441F551F46
:103EC000661F771F881F991F881C991CEE1FFF1FF4
:103ED000CC1FDD1FAA1FBB1F8A149B04EC05FD0528
:103EE000CE05DF05A007B10748F08A189B08EC094A
:103EF000FD09CE09DF09A00BB10B21601A94E1F690
:103F00002EF49401AF01BE01CD01000C089560951F
:103F100070958095909530954095509521953F4F9F
:103F20004F4F5F4F6F4F7F4F8F4F9F4F08952F928F
:103F30003F924F925F926F927F928F929F92AF9239
:103F4000BF92CF92DF92EF92FF920F931F93CF9386
:103F5000DF93CDB7DEB7CA1BDB0B0FB6F894DEBF1D
:103F60000FBECDBF09942A88398848885F846E8443
:103F70007D848C849B84AA84B984C884DF80EE808D
:103F8000FD800C811B81AA81B981CE0FD11D0FB696
:103F9000F894DEBF0FBECDBFED0108950F9308303A
:103FA00090F0982F872F762F652F542F432F322F85
:103FB00022270850F4CF220F331F441F551F661FBE
:103FC000771F881F991F0A95B2F70F91089597FBE5
:103FD00010F8169400080F93083098F00850232F1B
:103FE000342F452F562F672F782F892F902DF4CF00
:103FF0000594979587957795679557954795379544
:1040000027950A95AAF70F9108952A0D3B1D4C1D7F
:104010005D1D6E1D7F1D801F911F08950024A7FD4B
:1040200000942A0F301D401D501D601D701D801D05
:10403000901D08952A193B094C095D096E097F09F5
:10404000800B910B08950024A7FD00942A173005DA
:104050004005500560057005800590050895AA1B70
:10406000BB1B51E107C0AA1FBB1FA617B70710F063
:10407000A61BB70B881F991F5A95A9F78095909595
:10408000BC01CD0108950F931F93CF93DF9382302E
:10409000910510F482E090E0E0910604F0910704AD
:1040A00020E030E0A0E0B0E0309719F1408151818C
:1040B0000281138148175907C8F08417950769F4DE
:1040C000109731F012960C93129713961C9327C0F9
:1040D000009306041093070422C02115310519F03E
:1040E0004217530718F49A01BD01EF01DF01F801EF
:1040F000DBCF21153105F9F0281B390B24303105B0
:1041000080F48A819B816115710521F0FB01938305
:10411000828304C09093070480930604FE013296C4
:1041200044C0FE01E20FF31F8193919322503109A5
:10413000398328833AC02091040430910504232B4D
:1041400041F4209102013091030130930504209342
:10415000040420910001309101012115310541F441
:104160002DB73EB74091040150910501241B350B3A
:10417000E0910404F0910504E217F307A0F42E1B6C
:104180003F0B2817390778F0AC014E5F5F4F2417BB
:10419000350748F04E0F5F1F509305044093040409
:1041A0008193919302C0E0E0F0E0CF01DF91CF91E5
:1041B0001F910F910895CF93DF93009709F481C069
:1041C000FC01329713821282A0910604B091070479
:1041D000109781F420813181820F931F2091040474
:1041E000309105042817390751F5F0930504E09341
:1041F000040467C0ED0120E030E0CE17DF0740F493
:104200004A815B819E0141155105F1F0EA01F5CF2C
:10421000D383C28340815181840F951FC817D9076A
:1042200059F488819981840F951F02969183808328
:104230008A819B81938382832115310529F4F09330
:104240000704E09306043DC0E901FB83EA8349913A
:104250005991C40FD51FEC17FD0761F4808191813E
:10426000840F951F0296E901998388838281938147
:104270009B838A83E0E0F0E012968D919C911397E6
:10428000009719F0FD01DC01F7CF8D919C911197FA
:104290009D012E5F3F4F820F931F209104043091A8
:1042A00005042817390769F4309729F41092070498
:1042B0001092060402C013821282B0930504A093E8
:1042C0000404DF91CF91089581E090E0F8940C947C
:0642D0006921F894FFCF04
:1042D6000000080480003333333F6666A63F33335D
:1042E6005340000000006F01DC000601BC013701ED
:1042F600150129010000000075024802A5021C02F2
:0A43060040022C021D020D0A000007
:00000001FF
