:100000000C94AD000C94D5000C94D5000C94D50044
:100010000C94D5000C94D5000C94D5000C941F06BC
:100020000C94D5000C94D5000C94D5000C94F204DB
:100030000C94D5000C94D5000C94D5000C94D500EC
:100040000C94500C0C94DE060C9492030C946C03EC
:100050000C94D5000C94D5000C94D5000C94D500CC
:100060000C94C4030C94D500390741074E075C0774
:1000700055075C07710771077107650768076B070C
:10008000036EDB363D9A9999993DABAAAA2A3E00A8
:100090000000803F084AD73B3BCE016E84BCBFFDC9
:1000A000C12F3D6C74319ABD56833DDA3D00C77F48
:1000B00011BED9E4BB4C3E916BAAAABE00000080E1
:1000C0003F072C7AA5BA6CC590DA3B9365FC8BBCD4
:1000D00053F810FD3C5692834DBD879D3AB63DCBFB
:1000E000C9BF5BBE73DA0FC93F05A84CCDB2D44E71
:1000F000B93836A9020C50B9918688083CA6AAAA3C
:100100002ABE000000803F0000000008000201003D
:1001100000030407000000000000000000000000D1
:10012000250028002B0000000000240027002A00E2
:10013000040404040404040402020202020203038D
:100140000303030301020408102040800102040895
:1001500010200102040810201C1811241FBECFEF2C
:10016000D8E0DEBFCDBF11E0A0E0B1E0E2E3F0E413
:1001700002C005900D92AE36B107D9F724E0AEE685
:10018000B1E001C01D92A936B207E1F710E0CDEA57
:10019000D0E004C02197FE010E940C1DCC3AD1078B
:1001A000C9F70E949A0C0C9417200C940000CF926F
:1001B000DF92EF92FF920F931F93CF93DF936C0127
:1001C0007A018B01C0E0D0E0CE15DF0581F0D801C7
:1001D0006D918D01D601ED91FC910190F081E02DA2
:1001E000C6010995892B11F02196EECF7E01C7013A
:1001F000DF91CF911F910F91FF90EF90DF90CF9003
:100200000895FC01538D448D252F30E0842F90E01C
:10021000821B930B541710F0CF9608950197089501
:10022000FC01918D828D981761F0828DDF01A80FFE
:10023000B11D5D968C91928D9F5F9F73928F90E020
:1002400008958FEF9FEF0895FC01918D828D98178F
:1002500031F0828DE80FF11D858D90E008958FEFCC
:100260009FEF0895FC01918D228D892F90E0805C95
:100270009F4F821B91098F739927089583E992E01C
:100280000E94320121E0892B09F420E0822F089599
:10029000FC01848DDF01A80FB11DA35ABF4F2C9123
:1002A000848D90E001968F739927848FA689B789F2
:1002B0002C93A089B1898C91837080648C93938DE9
:1002C000848D981306C00288F389E02D80818F7D8C
:1002D00080830895EF92FF920F931F93CF93DF9344
:1002E000EC0181E0888F9B8D8C8D981305C0E88987
:1002F000F989808185FD26C0F62E0B8D10E00F5FF9
:100300001F4F0F731127E02E8C8DE8120CC00FB613
:1003100007FCFACFE889F989808185FFF5CFCE0106
:100320000E944801F1CF8B8DFE01E80FF11DE35AC9
:10033000FF4FF0829FB7F8940B8FEA89FB89808189
:1003400080620AC09FB7F894EE89FF896083E889CC
:10035000F98980818370806480839FBF81E090E011
:10036000DF91CF911F910F91FF90EF900895CF9360
:10037000DF93EC01888D8823C9F0EA89FB898081AD
:1003800085FD05C0A889B9898C9186FD0FC00FB67F
:1003900007FCF5CF808185FFF2CFA889B9898C91C0
:1003A00085FFEDCFCE010E944801E7CFDF91CF91CD
:1003B000089580E090E0892B29F00E943E01811190
:1003C0000C940000089585ED8093BC008091BC00E2
:1003D00084FDFCCF1092630208954091D501262F31
:1003E00030E0240F311D21323105DCF4209163020D
:1003F0002430C9F4FC0180E090E0861758F4309175
:10040000D5012191DC01AB54BE4FA30FB11D2C933C
:100410000196F3CF8091D501680F6093D50180E0FC
:10042000089581E0089582E008950895089508955B
:10043000E091F9018091F801E81730F4F0E0E35E13
:10044000FD4F808190E008958FEF9FEF0895909188
:10045000F9018091F801981750F4E92FF0E0E35E7C
:10046000FD4F208130E09F5F9093F90102C02FEF94
:100470003FEFC90108958091F80190E02091F901C2
:10048000821B91090895CF92DF92EF92FF920F9312
:100490001F93CF93DF937C01CB018A012091FA0156
:1004A000222389F0EB016B01C40ED51ECC15DD05AE
:1004B00069F06991D701ED91FC910190F081E02DF7
:1004C000C7010995F3CF642F0E94ED01C801DF91A8
:1004D000CF911F910F91FF90EF90DF90CF900895F3
:1004E000CF93DF931F92CDB7DEB769832091FA01D6
:1004F0002223D1F020911C02203240F021E030E094
:10050000FC013383228380E090E015C08091FB01E1
:10051000E82FF0E0E450FE4F998190838F5F809345
:10052000FB0180931C0205C061E0CE0101960E9490
:10053000ED0181E090E00F90DF91CF910895089553
:1005400080E090E00895FC0190819C3088F58181E5
:1005500028E830E0281B310987FD3395220F331F2F
:10056000220F331F6217730784F0828148E552E03F
:10057000481B510987FD5395440F551F440F551FC4
:100580009B01461757070CF49A0122503109220F9C
:10059000331F4FB7F894892F90E0FC01EE0FFF1F37
:1005A0008E0F9F1FFC01EF56FE4F328321834FBFFA
:1005B0000895CF93DF93EC01288139818A819B8153
:1005C0002817390704F5888199812A813B81821B8C
:1005D000930B181619062CF4888199812A813B8186
:1005E00004C08A819B8128813981821B930B2C81D5
:1005F0003D81821793073CF12C813D81888199814F
:10060000820F931F29C0288139818A819B8182179B
:10061000930724F5888199812A813B81821B930B62
:10062000181619062CF4888199812A813B8104C00F
:100630008A819B8128813981821B930B2C813D818A
:10064000821793071CF48A819B8106C02C813D810F
:1006500088819981821B930B998388836881798132
:10066000CE010E960E94A302488159812A813B81C6
:1006700081E04217530709F080E0DF91CF910895A0
:100680000E9412200F931F93CF93DF938C01C09190
:100690008D01D0918E01209749F484E090E00E9472
:1006A000F11E90938E0180938D010CC08A819B81F5
:1006B000009711F0EC01FACF84E090E00E94F11E67
:1006C0009B838A83FC011183008313821282DF9152
:1006D000CF911F910F9108951F920F920FB60F9215
:1006E00011242F933F934F935F936F937F938F9337
:1006F0009F93AF93BF93EF93FF9383E992E00E94A0
:100700004801FF91EF91BF91AF919F918F917F91A0
:100710006F915F914F913F912F910F900FBE0F906E
:100720001F9018951F920F920FB60F9211242F93BE
:100730008F939F93EF93FF93E091A302F091A40214
:100740008081E091A902F091AA0282FD12C09081FD
:100750008091AC028F5F8F732091AD02821751F0B0
:10076000E091AC02F0E0ED56FD4F958F8093AC0226
:1007700001C08081FF91EF919F918F912F910F90F8
:100780000FBE0F901F9018951F920F920FB60F92E9
:1007900011242F933F934F935F936F937F938F9386
:1007A0009F93AF93BF93EF93FF938091B900887F9E
:1007B000803609F49CC068F5883209F45BC090F477
:1007C000803109F454C038F4882309F4F6C0883025
:1007D00009F44DC0F6C0883109F44CC0803209F4E8
:1007E0005DC0EFC0803409F468C048F4803309F478
:1007F00055C0883309F0E5C080936102D8C08035C8
:1008000009F44FC0883509F45DC0883409F0D9C0B7
:10081000D6C0883909F4C7C0A8F4883709F467C07E
:1008200038F4883609F463C0803709F460C0C9C061
:10083000883809F4B8C0803909F45FC0803809F0FD
:10084000C0C05BC0803B09F486C038F4803A09F42C
:1008500066C0883A09F47FC0B4C0803C09F4A7C0E0
:10086000883C09F4A4C0883B09F48AC0AAC08091DE
:100870005E0210C09091600280915F02981770F53F
:10088000E091600281E08E0F80936002F0E0E35C13
:10089000FD4F80818093BB0085EC86C08093610210
:1008A0008EC0E091600281E08E0F809360028091A3
:1008B000BB00F0E0E35CFD4F80839091600280918B
:1008C0005F026EC0E091600281E08E0F8093600253
:1008D0008091BB00F0E0E35CFD4F80838091620279
:1008E00081116DC081E080935D0284EA61C083E084
:1008F000809363021092F701CFCF8091F70180328D
:1009000008F051C0E091F70181E08E0F8093F7016C
:100910008091BB00F0E0E952FE4F8083BDCF85ECB3
:100920008093BC00109263028091F701803230F412
:10093000E091F701F0E0E952FE4F10826091F7017B
:1009400070E0E0916E01F0916F0187ED91E0099503
:100950001092F70136C084E0809363021092D601B2
:100960001092D501E0917001F0917101099580918B
:10097000D501811105C081E08093D5011092B501A8
:10098000E091D60181E08E0F8093D601F0E0EB5428
:10099000FE4F80818093BB009091D6018091D5015C
:1009A000981708F479CF85E88093BC000AC085ECDD
:1009B0008093BC001092630204C0109261020E94F6
:1009C000E301FF91EF91BF91AF919F918F917F9143
:1009D0006F915F914F913F912F910F900FBE0F90AC
:1009E0001F9018951F920F920FB60F9211242F93FC
:1009F0003F934F935F936F937F938F939F93AF93A7
:100A0000BF93EF93FF938091900187FF05C01092F1
:100A10008500109284001BC020919001022E000CD2
:100A2000330B80918F0190E02817390784F480916F
:100A30009001082E000C990BFC01EE0FFF1F8E0F8A
:100A40009F1FFC01EF56FE4F808186FD15C08091EF
:100A500090018F5F8093900120919001022E000CF5
:100A6000330B80918F0190E028173907C4F48091EF
:100A700090018C3064F113C080919001082E000C1D
:100A8000990BFC01EE0FFF1F8E0F9F1FFC01EF560D
:100A9000FE4F808160E08F730E94F508D8CF80916F
:100AA000840090918500049680349C4918F480E479
:100AB0009CE905C0809184009091850004969093F4
:100AC0008900809388008FEF809390013BC0209134
:100AD00084003091850080919001082E000C990BC4
:100AE000FC01EE0FFF1F8E0F9F1FFC01EF56FE4F04
:100AF00081819281820F931F909389008093880057
:100B000080919001082E000C990BFC01EE0FFF1F45
:100B10008E0F9F1FFC01EF56FE4F808186FF12C093
:100B200080919001082E000C990BFC01EE0FFF1F25
:100B30008E0F9F1FFC01EF56FE4F808161E08F7387
:100B40000E94F508FF91EF91BF91AF919F918F9116
:100B50007F916F915F914F913F912F910F900FBEB9
:100B60000F901F901895EF92FF920F931F93CF93C2
:100B7000DF93EC017D876C87EC84FD848C01025F40
:100B80001F4F8E858C3008F04FC08E2D0E94D608E6
:100B90008E85E82FF0E09F01220F331FE20FF31F35
:100BA000EF56FE4F9E2D9F732081207CE22EE92A76
:100BB000E0821F86188A6CE00E94EC1C9CE0899FF2
:100BC000B001112440E050E09B01240F351FF901D2
:100BD000EE0FFF1F2E0F3F1FF901EF56FE4F9081C2
:100BE00096FD16C04F5F5F4F4C30510569F781117C
:100BF0000FC01092800082E08093810010928500E7
:100C000010928400B19A80916F00826080936F008F
:100C1000EE85F0E0CF01880F991FE80FF91FEF561E
:100C2000FE4F8081806480836CED75E0C801DF91A8
:100C3000CF911F910F91FF90EF900C94A3021F9200
:100C40000F920FB60F9211242F933F934F935F9300
:100C50006F937F938F939F93AF93BF93CF93DF93C4
:100C6000EF93FF93C0918D01D0918E012097D1F029
:100C7000E881F981EE0FFF1FE158FE4F80819181DD
:100C80000E94D902811104C0888199810E94420387
:100C90008A819B8190938E0180938D01CE010E9469
:100CA000891F04C08091700010927000FF91EF9135
:100CB000DF91CF91BF91AF919F918F917F916F9174
:100CC0005F914F913F912F910F900FBE0F901F900A
:100CD0001895CF92DF92EF92FF92CF93DF93EC01C2
:100CE000603871053CF461388FEF78072CF461E8C7
:100CF0007FEF02C06FE770E08E819F81C884D98446
:100D00000D2C000CEE08FF08AB01770F660B770B7C
:100D10009A01AB0121583F4F4F4F5F4F092E000CF6
:100D2000AA0BBB0BBC01CD016C197D098E099F0973
:100D30000E94DC1C2EEF30E040E050E00E94A8183A
:100D4000C20ED31EE41EF51EDB82CA8286E391E04A
:100D50000E947508CA80DB800D2C000CEE08FF088D
:100D6000F7FE0EC06DE283E992E00E946A016627F9
:100D70007727CB016C197D098E099F094AE003C0D2
:100D80004AE0C701B6010E9487088BE491E00E9407
:100D90007508CE010E94D902811109C08A859B8500
:100DA0000E94420380917000826080937000DF9106
:100DB000CF91FF90EF90DF90CF9008951F920F9208
:100DC0000FB60F9211242F933F934F935F936F931E
:100DD0007F938F939F93AF93BF93EF93FF938EB5C2
:100DE00080937C018091720190917301FC01EE0F60
:100DF000FF1F8E0F9F1FFC01E35BFB4F82818EBDA7
:100E00008091720190917301019690937301809388
:100E10007201049724F01092730110927201809174
:100E20007C01811104C081E080937B0190C080919E
:100E30007B01882309F45CC08EE491E00E94750870
:100E400060917C0170E080E090E04AE00E948708B9
:100E50008BE491E00E947508E0917C018E2F90E078
:100E6000FC013197EC30F105E0F5EC5CFF4F0C94A0
:100E70000C1D81E691E00E94C80881E080933F0349
:100E800030C08AE291E00E94C80810923C031092A0
:100E90003D0310923E0310923F0323C081E090E097
:100EA00090934303809342031CC081E090E09093B1
:100EB00041038093400315C01092410310924003F8
:100EC00010924303109242030CC083E090E005C0EF
:100ED00082E090E002C081E090E09093450380932F
:100EE000440310927B0110927A01109279012FC075
:100EF0008091790190917A018130910559F0823089
:100F0000910571F0892B89F480917C018F57809332
:100F10003C030BC080917C018F5780933D0305C03B
:100F200080917C018F5780933E038091790190914D
:100F30007A01019690937A0180937901039724F0C6
:100F400010927A011092790181E080937401FF91EF
:100F5000EF91BF91AF919F918F917F916F915F9131
:100F60004F913F912F910F900FBE0F901F901895AA
:100F7000909163029111FCCF91E0909363024093B2
:100F800062022FEF2093610210926002260F2093DD
:100F90005F0290935E0290915E02880F892B80938E
:100FA0005E0280915D02813061F410925D02809159
:100FB0005E028093BB008091BC0083FDF8CF85EC7E
:100FC00001C085EE8093BC00809163028130E1F323
:100FD00080916002861710F460916002ADE3B2E088
:100FE000EDE1F2E080E0861721F09D9191938F5F13
:100FF000FACF0895282F30911C02313208F04AC0F0
:10100000809163028111FCCF9091640442E040938F
:101010006302209362022FEF20936102109260021C
:1010200030935F02ECEFF1E0ADE3B2E020E0321785
:1010300021F041914D932F5FFACF10925E022091E3
:101040005E02990F922B90935E0290915D02913017
:1010500061F410925D0290915E029093BB009091BA
:10106000BC0093FDF8CF95EC01C095EE9093BC00C9
:10107000909163029230E1F3909161029F3F79F089
:1010800080916102803241F080916102803331F0C1
:1010900084E005C081E003C082E001C083E01092DB
:1010A000FB0110921C021092FA01089591E09093B6
:1010B000FA01809364041092FB0110921C020895BF
:1010C000682F80E393E00C947002813208F080E294
:1010D00041E0682F86E70E94B8071092F9018093DB
:1010E000F801089581E00C94FA07009769F0FC017B
:1010F00001900020E9F73197AF01481B590BBC0163
:1011000083E992E00C94D70080E090E008958F92FC
:101110009F92AF92BF920F931F93CF93DF93CDB760
:10112000DEB7A1970FB6F894DEBF0FBECDBF19A2F0
:10113000423008F44AE08E010F5D1F4F842E912C3F
:10114000A12CB12CA50194010E94D218E62FB9015F
:10115000CA0101501109EA3014F4E05D01C0E95CF4
:10116000D801EC93232B242B252B61F7C8010E9477
:101170007508A1960FB6F894DEBF0FBECDBFDF9104
:10118000CF911F910F91BF90AF909F908F90089536
:10119000CF93DF930E947508EC018BE491E00E94ED
:1011A00075088C0F9D1FDF91CF91089590E0FC0191
:1011B000EC5BFE4F2491FC01E05DFE4F849188239F
:1011C00099F090E0880F991FFC01EA5DFE4FA59110
:1011D000B491FC01E45EFE4F859194918FB7F89431
:1011E000EC91E22BEC938FBF089590E0FC01E85F57
:1011F000FE4F2491FC01EC5BFE4F3491FC01E05D5D
:10120000FE4FE491EE2309F43CC0222339F1233050
:1012100091F038F42130A9F0223001F584B58F7DAA
:1012200012C0273091F02830A1F02430B9F4809119
:1012300080008F7D03C0809180008F778093800035
:101240000DC084B58F7784BD09C08091B0008F77C1
:1012500003C08091B0008F7D8093B000F0E0EE0F6E
:10126000FF1FE45EFE4FA591B4919FB7F894611102
:1012700004C08C913095382302C0EC913E2B3C93F6
:101280009FBF08953FB7F8948091600490916104E6
:10129000A0916204B091630426B5A89B05C02F3FBE
:1012A00019F00196A11DB11D3FBFBA2FA92F982F8C
:1012B0008827820F911DA11DB11DBC01CD0142E007
:1012C000660F771F881F991F4A95D1F708954F928F
:1012D0005F926F927F928F929F92AF92BF92CF92C6
:1012E000DF92EF92FF92CF93DF93CDB7DEB7A49753
:1012F0000FB6F894DEBF0FBECDBF0E944209C0906A
:101300008E02D0908F02E0909002F09091026C19C2
:101310007D098E099F090E94AF1A20E030E048EC59
:1013200052E40E94071A6B017C010E9442096093FB
:101330008E0270938F02809390029093910280911D
:10134000780290917902A0917A02B0917B02BC015F
:10135000CD019058A70196010E94081C2B013C0169
:1013600080917C0290917D02A0917E02B0917F02DB
:10137000BC01CD019058A70196010E94081C4B01A9
:101380005C01209180023091810240918202509153
:101390008302C701B6010E94081C6B017C01C301D6
:1013A000B2010E94021A6D837E838F839887C501E4
:1013B000B4010E94021A69877A878B879C87C701CC
:1013C000B6010E94021A6D877E878F87988B809165
:1013D000680290916902A0916A02B0916B02898BB8
:1013E0009A8BAB8BBC8BBC01CD010E94021A6D8B1A
:1013F0007E8B8F8B988F8091640290916502A09173
:101400006602B0916702898F9A8FAB8FBC8FBC0147
:10141000CD010E94021A69837A838B839C83C30166
:10142000B2010E94751C6D8F7E8F8F8F98A3C501AE
:10143000B4010E94751C69A37AA38BA39CA3C70166
:10144000B6010E94751C2B013C0169897A898B8940
:101450009C890E94751C698B7A8B8B8B9C8B698D08
:101460007A8D8B8D9C8D0E94751C6B017C0129816E
:101470003A814B815C816D857E858F8598890E943C
:10148000081C29893A894B895C890E94081C4B01F8
:101490005C01A7019601C301B2010E94081C9B01D7
:1014A000AC01C501B4010E9404194B015C01A70104
:1014B00096016D857E858F8598890E94081C6B0139
:1014C0007C01A301920169817A818B819C810E94B8
:1014D000081C29893A894B895C890E94081C9B0158
:1014E000AC01C701B6010E9403196D877E878F8703
:1014F000988B9B01AC0169A17AA18BA19CA10E9450
:10150000081C6B017C0129813A814B815C816985D2
:101510007A858B859C850E94081C2D893E894F8980
:10152000588D0E94081C9B01AC01C701B6010E94A6
:1015300003192B013C016D8D7E8D8F8D98A19058E4
:10154000A50194010E94081C6B017C01A30192017A
:101550006D817E818F8198850E94081C9B01AC0162
:10156000C701B6010E9403196B017C01A50194011A
:101570006D817E818F8198850E94081C4B015C01E2
:10158000A30192016D8D7E8D8F8D98A10E94081C04
:101590009B01AC01C501B4010E9403194B015C0120
:1015A000A70196010E949E196D837E838F83988781
:1015B000609368027093690280936A0290936B0251
:1015C000A5019401C501B4010E94081C4B015C01F6
:1015D000A7019601C701B6010E94081C9B01AC013E
:1015E000C501B4010E9404190E94831C6B017C0197
:1015F00029813A814B815C816D897E898F89988DA3
:101600000E94081C29A13AA14BA15CA10E94081CC0
:101610004B015C012D853E854F85588969857A850A
:101620008B859C850E94081C9B01AC01C501B401FF
:101630000E940419A70196010E949E1969877A8762
:101640008B879C8760936402709365028093660227
:101650009093670280916C0290916D02A0916E024E
:10166000B0916F0289839A83AB83BC8320E030E022
:10167000A901BC01CD010E94FB1B181634F0698141
:101680007A818B819C81905804C069817A818B8199
:101690009C819B01AC010E94081C6B017C01809025
:1016A000700290907102A0907202B090730220E0DC
:1016B00030E0A901C501B4010E94FB1B181624F0FB
:1016C000C501B401905802C0C501B4019B01AC0131
:1016D0000E94081CA70196010E9404196B017C015D
:1016E000409074025090750260907602709077027C
:1016F00020E030E0A901C301B2010E94FB1B1816D3
:1017000024F0C301B201905802C0C301B2019B0191
:10171000AC010E94081CA70196010E9404190E94B6
:10172000831C6B017C0126E636E646E65FE30E94F9
:10173000FB1B18160CF065C02DEC3CEC4CE85FE38D
:10174000C701B6010E94FD1987FF5BC0A30192018A
:101750005058C501B4010E949E192B013C016981BA
:101760007A818B819C819058A70196015F770E94B6
:10177000071A0E9470196B017C0126E636E646E6E0
:101780005FE36D817E818F8198850E94081C4B01EB
:101790005C012DEC3CEC4CEC5DE3C301B2010E941A
:1017A000081C9B01AC01C501B4010E94041960939F
:1017B00068027093690280936A0290936B0226E636
:1017C00036E646E65FE369857A858B859C850E94CF
:1017D000081C4B015C012DEC3CEC4CEC5DE3C701BB
:1017E000B6010E94081C9B01AC01C501B4010E9416
:1017F000041960936402709365028093660290936B
:101800006702A4960FB6F894DEBF0FBECDBFDF917E
:10181000CF91FF90EF90DF90CF90BF90AF909F90CF
:101820008F907F906F905F904F9008958F929F92CE
:10183000AF92BF92CF92DF92EF92FF926B017C0149
:101840000E9442094B015C01C114D104E104F1047E
:10185000F1F00E944209DC01CB0188199909AA091B
:10186000BB09883E9340A105B10570F321E0C21A7F
:10187000D108E108F10888EE880E83E0981EA11CCB
:10188000B11CC114D104E104F10419F7DDCFFF90BC
:10189000EF90DF90CF90BF90AF909F908F90089582
:1018A0001F920F920FB60F9211242F933F938F9395
:1018B0009F93AF93BF9380915C0490915D04A0913E
:1018C0005E04B0915F0430915B0423E0230F2D3759
:1018D00020F40196A11DB11D05C026E8230F029634
:1018E000A11DB11D20935B0480935C0490935D0463
:1018F000A0935E04B0935F048091600490916104B2
:10190000A0916204B09163040196A11DB11D809362
:10191000600490936104A0936204B0936304BF9148
:10192000AF919F918F913F912F910F900FBE0F908C
:101930001F901895CF93DF93CDB7DEB7C958D10963
:101940000FB6F894DEBF0FBECDBF789484B5826029
:1019500084BD84B5816084BD85B5826085BD85B553
:10196000816085BD80916E00816080936E001092D1
:10197000810080918100826080938100809181004C
:1019800081608093810080918000816080938000DD
:101990008091B10084608093B1008091B00081603B
:1019A0008093B00080917A00846080937A00809167
:1019B0007A00826080937A0080917A0081608093BF
:1019C0007A0080917A00806880937A001092C1003A
:1019D000E091A302F091A40282E08083E0919F0253
:1019E000F091A0021082E091A102F091A2028FEC8E
:1019F00080831092AB02E091A702F091A80286E0EA
:101A00008083E091A502F091A602808180618083AD
:101A1000E091A502F091A602808188608083E09128
:101A2000A502F091A602808180688083E091A502E2
:101A3000F091A60280818F7D808320E030E080914C
:101A4000590490915A048430910590F4AC014F5F91
:101A50005F4F50935A0440935904FC01EE0FFF1F4F
:101A60008E0F9F1FFC01E35BFB4F318320831282AB
:101A70002F5F3F4F2430310511F710927301109200
:101A800072011092F9011092F8011092FB0110926C
:101A90001C021092630281E08093620210925D0248
:101AA00061E082E10E94F50861E083E10E94F508AF
:101AB0008091B9008E7F8093B9008091B9008D7FAD
:101AC0008093B90088E48093B80085E48093BC00DB
:101AD00085E192E0909371018093700186E192E03C
:101AE00090936F0180936E0188E60E9456088BE602
:101AF00090E00E94600880E090E00E94600881E031
:101B00000E94FA0768EE73E080E090E00E94160CF5
:101B10001092480480E090E4A9E7B4E4809349047B
:101B200090934A04A0934B04B0934C0486E70E9420
:101B300056088EE190E00E9460080E9472086AE0F8
:101B400070E080E090E00E94160C58E2E52E54E030
:101B5000F52E00EA10E086E70E945608C8010E94B0
:101B600060080E94720841E062E086E70E94B807C0
:101B70001092F9018093F80180E393E00E9427021C
:101B8000B82E80E393E00E942702DB2CC12C8C2925
:101B90009D29D7018D939D937D010E5F1F4F0E3AB6
:101BA0001105C9F680912804909129049F709093A3
:101BB000290480932804109237041092360468EEAA
:101BC00073E080E090E00E94160C87E2E6E2F4E029
:101BD000DE01D09601900D928A95E1F78FE2E4E65E
:101BE000F2E0DE01119601900D928A95E1F764E032
:101BF00070E088E993E00E94B30565E070E089EA4F
:101C000093E00E94B30566E070E08AEB93E00E94E7
:101C1000B3056BE070E085E693E00E94B3056CE0ED
:101C200070E084E593E00E94B3056DE070E087E822
:101C300093E00E94B3058AE291E00E94C8081092E6
:101C40003C0310923D0310923E0310923F0387E243
:101C5000FE01F096ABECB3E001900D928A95E1F7AE
:101C60008FE2FE013196A7EFB3E001900D928A95C5
:101C7000E1F71092F2036091E9037091EA03809119
:101C8000EB039091EC030E94B11A6093F3037093FD
:101C9000F4038093F5039093F60368EB7BE080E018
:101CA00090E00E94160CF8948CE00E94D6088CB547
:101CB00080648CBD8FEF8EBD8CB580688CBD7894B0
:101CC0000E944209009175011091760120917701DF
:101CD00030917801DC01CB01801B910BA20BB30B7F
:101CE00081329E44A105B10560F00E9442096093D3
:101CF000750170937601809377019093780181E06C
:101D000001C080E02091260430912704232BA9F400
:101D1000882399F086E70E9456088AE490E00E94A2
:101D200060080E9472088091260490912704019611
:101D3000909327048093260480E02091260430911C
:101D400027042130310509F06BC0882309F468C0ED
:101D500086E70E94560880E090E00E9460080E949A
:101D6000720883E090E00E94650810923804109297
:101D7000390410923A0410923B0480E393E00E94ED
:101D800027024C01990FAA08BB0880923804909250
:101D90003904A0923A04B0923B0480E393E00E949D
:101DA0002702BA2CA92C982C88246C01990FEE08D4
:101DB000FF08C828D928EA28FB28C0923804D09206
:101DC0003904E0923A04F0923B0480E393E00E94ED
:101DD0002702FE2CED2CDC2CCC24092E000CAA0BA7
:101DE000BB0BC82AD92AEA2AFB2AC0923804D0920F
:101DF0003904E0923A04F0923B0486E70E945608C8
:101E00008AE590E00E9460080E9472088091260492
:101E1000909127040196909327048093260480E0F4
:101E200020912604309127042230310509F039C56C
:101E3000882309F436C586E70E94560880E090E0C2
:101E40000E9460080E94720883E090E00E9465088A
:101E500010923C0410923D0410923E0410923F04F4
:101E600080E393E00E9427024C01990FAA08BB0867
:101E700080923C0490923D04A0923E04B0923F04B4
:101E800080E393E00E942702BA2CA92C982C882486
:101E90006C01990FEE08FF08C828D928EA28FB280A
:101EA000C0923C04D0923D04E0923E04F0923F0484
:101EB00080E393E00E942702FE2CED2CDC2CCC2446
:101EC000092E000CAA0BBB0BC82AD92AEA2AFB2A26
:101ED000C0923C04D0923D04E0923E04F0923F0454
:101EE0008091320490913304A0E0B0E0BA2FA92F82
:101EF000982F882797018601081B190B2A0B3B0B8B
:101F00006B960CAF1DAF2EAF3FAF6B97109148048F
:101F1000EC961FAFEC97E0912E04F0912F04E09027
:101F20002A04F0902B042091380430913904409118
:101F30003A0450913B04EB962CAF3DAF4EAF5FAFF0
:101F4000EB97113009F09FC0970140E050E060E04E
:101F500070E080E090E000E10E947C1E19012A01FF
:101F60003B014C01BF0180E090E06B962CAD3DAD94
:101F70004EAD5FAD6B970E946B1DF22E032F142F99
:101F8000B52FF62FE72FD82EE92EA0E00E94D11E04
:101F90005CF4AFE70E94BC1EF22E032F142FB52F66
:101FA000F62FE72FD82EE92E2F2D302F412F5B2F24
:101FB0006F2F7E2F8D2D9E2D07E00E94951E5901BB
:101FC0006A017B018C019101A201B301C4010E944D
:101FD000B31EAC962FAFAC97AD963FAFAD97AE9614
:101FE0004FAFAE97AF965FAFAF97E0966FAFE0970A
:101FF000E1967FAFE197E2968FAFE297E3969FAFCE
:10200000E397E0913004F091310480902C0490909B
:102010002D04940140E050E060E070E080E090E04A
:1020200001E10E947C1E19012A013B014C01BF0104
:1020300080E090E06B962CAD3DAD4EAD5FAD6B9703
:102040000E946B1DF22E032F142FB52FF62FE72FB2
:10205000D82EE92EA0E00E94D11E5CF4AFE30E94CE
:10206000BC1EF22E032F142FB52FF62FE72FD82EDC
:10207000E92E2F2D302F412F5B2F6F2F7E2F8D2D8F
:102080009E2D06E0A8C0BF0180E090E06B962CADCD
:102090003DAD4EAD5FAD6B970E946B1DD22E032FF1
:1020A000142FB52FF62FE72FB82EC92EA0E00E94CF
:1020B000D11E84F421503F4F4F4F5F4F6F4F7F4FE2
:1020C0008F4F9F4FD22E032F142FB52FF62FE72FB0
:1020D000B82EC92E2D2D302F412F5B2F6F2F7E2F25
:1020E0008B2D9C2D08E00E94951E39014A01B62FC8
:1020F000A72FF82FE92FC12CD12C9701A60160E062
:1021000070E080E090E00FE00E947C1E59016A01BF
:102110007B018C019301A4016B2F7A2F8F2F9E2FAF
:102120000E94B31EAC962FAFAC97AD963FAFAD9764
:10213000AE964FAFAE97AF965FAFAF97E0966FAFEB
:10214000E097E1967FAFE197E2968FAFE297E39653
:102150009FAFE397E0913004F091310480902C041C
:1021600090902D04940140E050E060E070E080E049
:1021700090E000E10E947C1E19012A013B014C0104
:10218000BF0180E090E06B962CAD3DAD4EAD5FADF4
:102190006B970E946B1DF22E032F142FB52FF62F75
:1021A000E72FD82EE92EA0E00E94D11E5CF4AFE705
:1021B0000E94BC1EF22E032F142FB52FF62FE72FEF
:1021C000D82EE92E2F2D302F412F5B2F6F2F7E2FF2
:1021D0008D2D9E2D07E00E94951E59016A017B01FD
:1021E0008C019101A201B301C4010E94B31EA89603
:1021F0002FAFA897A9963FAFA997AA964FAFAA97D6
:10220000AB965FAFAB97E4966FAFE497E5967FAF81
:10221000E597E6968FAFE697E7969FAFE7976B96C1
:102220004CAC5DAC6EAC7FAC6B97770C4408542C17
:102230003201609134047091350480E090E06B9637
:102240002CAD3DAD4EAD5FAD6B970E946B1DF22E78
:10225000032F142FB52FF62FE72FD82EE92EA0E04D
:102260000E94D11E84F42150310940485F4F6F4FC6
:102270007F4F8F4F9F4FF22E032F142FB52FF62F26
:10228000E72FD82EE92E2F2D302F412F5B2F6F2FC8
:102290007E2F8D2D9E2D07E10E94951E49015A012A
:1022A000950184010053184F2F4F3F4FA7960CAF55
:1022B0001DAF2EAF3FAFA797EC961FADEC97113037
:1022C00009F094C0A7962CAD3DAD4EAD5FADA7977C
:1022D000203D3740410551050CF066C16B966CAD51
:1022E0007DAD8EAD9FAD6B972BE030E040E050E0D0
:1022F0000E946B1D6896AFAC68976996BFAC6997F2
:102300006A96CFAC6A976B96DFAC6B97E42CF42C93
:10231000042D142D0E94121DF22E032F142FB52F01
:10232000F62FE72FD82EE92EA0E00E94D11E84F4CC
:102330002150310941095109684F7F4F8F4F9F4FFD
:10234000F22E032F142FB52FF62FE72FD82EE92EBC
:102350002F2D302F412F5B2F6F2F7E2F8D2D9E2DF8
:1023600003E20E94951E68962FAF689769963FAF6B
:1023700069976A964FAF6A976B965FAF6B97AFE1BD
:10238000B0E0A7968CAC9DACAEACBFACA79770ED9F
:10239000871A77E0970AA108B108A50194010E9465
:1023A000C7189B01AC01C501B4010E94DC1C7B0174
:1023B0008C01F3E015950795F794E794FA95D1F71A
:1023C000AFE3B0E0A50194010E94C7189B01AC01E6
:1023D000C501B4010E94DC1C2B013C01A5E07594F1
:1023E000679457944794AA95D1F7EAC0A7968CAD05
:1023F0009DADAEADBFADA797803D9740A105B1059E
:102400000CF0BCC06B966CAD7DAD8EAD9FAD6B9787
:1024100023E030E040E050E00E946B1D6896AFACD6
:1024200068976996BFAC69976A96CFAC6A976B96C6
:10243000DFAC6B97E42CF42C042D142D0E94121D9C
:10244000F22E032F142FB52FF62FE72FD82EE92EBB
:10245000A0E00E94D11E84F42150310941095109A4
:102460006E4F7F4F8F4F9F4FF22E032F142FB52F9C
:10247000F62FE72FD82EE92E2F2D302F412F5B2F4F
:102480006F2F7E2F8D2D9E2D01E20E94951E689646
:102490002FAF689769963FAF69976A964FAF6A9773
:1024A0006B965FAF6B97A3E0B0E0A7968CAC9DAC4A
:1024B000AEACBFACA797F0ED8F1AF7E09F0AA1086A
:1024C000B108A50194010E94C7189B01AC01C50188
:1024D000B4010E94DC1C7B018C0115950795F794D3
:1024E000E794A5E0B0E0A50194010E94C7189B0104
:1024F000AC01C501B4010E94DC1C2B013C01E3E0EE
:102500007594679457944794EA95D1F7A7962CADA4
:102510003DAD4EAD5FADA797213C69EF36076FEF3C
:10252000460756070CF04CC0A7E0B0E049015A013D
:102530007CED870E75E0971EA11CB11CA5019401CE
:102540000E94C7189B01AC01C501B4010E94DC1CAC
:10255000E60EF71E081F191FA501940162E0220F65
:10256000331F441F551F6A95D1F7C501B4010E945E
:10257000DC1C460E571E681E791E22C0A501940160
:10258000C501B4010E94DC1C7B018C0144E015955F
:102590000795F794E7944A95D1F76B961CAE1DAE5C
:1025A0001EAE1FAE6B9709C06B961CAE1DAE1EAE65
:1025B0001FAE6B97E12CF12C8701412C512C32017D
:1025C000D801C701BB0F880B982FDC01A3968CAFF5
:1025D0009DAFAEAFBFAFA397A8962FADA897A99612
:1025E0003FADA997AA964FADAA97AB965FADAB97B3
:1025F000E4966FADE497E5967FADE597E6968FADEF
:10260000E697E7969FADE79757016801A096EFAC74
:10261000A097FE2C0E2D1E2D0E94C81E922E832EDA
:10262000342E252EA8966FAFA897A9967FAFA997AD
:10263000AA968FAFAA97AB969FAFAB978301720113
:10264000110FEE08FE2C8701A396ECAEFDAE0EAF87
:102650001FAFA397AC962FADAC97AD963FADAD979E
:10266000AE964FADAE97AF965FADAF97E0966FADBC
:10267000E097E1967FADE197E2968FADE297E39622
:102680009FADE39752016301A096EFACA097FE2C9B
:102690000E2D1E2D0E94C81E59016A017B018C015E
:1026A000A7968CAD9DADAEADBFADA7976B962CAD8B
:1026B0003DAD4EAD5FAD6B97821B930BA40BB50B7D
:1026C000EC963FADEC978093400490934104A09327
:1026D0004204B0934304313009F069C0EB966CAD0D
:1026E0007DAD8EAD9FADEB97AB01BC0180E090E07E
:1026F000DC0168964FAF689769965FAF69976A96F5
:102700006FAF6A976B967FAF6B976C968FAF6C9736
:102710006D969FAF6D976E96AFAF6E976F96BFAF8A
:102720006F979A01AB0160E070E080E090E00E945A
:10273000121DF22E032F142FB52FF62FE72FD82EB0
:10274000E92EA0E00E94D11E84F421503109404EB0
:102750005F4F6F4F7F4F8F4F9F4FF22E032F142FDE
:10276000B52FF62FE72FD82EE92E2F2D302F412F02
:102770005B2F6F2F7E2F8D2D9E2D05E10E94951EC4
:10278000A92CB82CC32CD22CA896EFACA897A9964C
:10279000FFACA997AA960FADAA97AB961FADAB97C2
:1027A0000E94C81EA12CB12CF2E3CF2E67C0EB967D
:1027B0004CAD5DAD6EAD7FADEB979A01AB0160E0C6
:1027C00070E0CB0168962FAF689769963FAF699725
:1027D0006A964FAF6A976B965FAF6B976C966FAFC9
:1027E0006C976D967FAF6D976E968FAF6E976F9665
:1027F0009FAF6F9760E070E080E090E00E94121D54
:10280000F22E032F142FB52FF62FE72FD82EE92EF7
:10281000A0E00E94D11E84F421503109404E5F4F48
:102820006F4F7F4F8F4F9F4FF22E032F142FB52FD7
:10283000F62FE72FD82EE92E2F2D302F412F5B2F8B
:102840006F2F7E2F8D2D9E2D05E10E94951EA92CA8
:10285000B82CC32CD22CA896EFACA897A996FFACA5
:10286000A997AA960FADAA97AB961FADAB970E94FA
:10287000C81EA12CE0E4BE2ECC24C394D12CE12CA4
:10288000F12C00E010E00E94A71D20934404309337
:102890004504409346045093470410922704109235
:1028A000260488E60E9456088BE390E00E946008A8
:1028B00080E00E94FA0741E06EE088E60E94B807D7
:1028C0001092F9018093F8010E94420940918C0214
:1028D00050918D0220918E0230918F02DA01A21B5D
:1028E000B30B9D01260F371F30938D0220938C026E
:1028F00060938E0270938F02809390029093910266
:1029000080E393E00E942702182F80E393E00E9467
:102910002702EE961FAFEE97ED961FAEED97EE965F
:10292000EEADFFADEE978E2B9F2BBC01990F880B60
:10293000990B0E94B11A60936C0270936D028093A0
:102940006E0290936F0280E393E00E942702182F9B
:1029500080E393E00E942702C158DF4F1883CF57CE
:10296000D040EF961FAEEF97C258DF4FE880F98056
:10297000CE57D0408E299F29BC01990F880B990B07
:102980000E94B11A60937002709371028093720278
:102990009093730280E393E00E942702182F80E354
:1029A00093E00E942702CF57DF4F1883C158D040D1
:1029B000C058DF4F1882C058D040C058DF4F088140
:1029C0001981C058D040802B912BBC01990F880BE6
:1029D000990B0E94B11A60937402709375028093F0
:1029E00076029093770280E393E00E942702182FEB
:1029F00080E393E00E942702CD57DF4F1883C3582E
:102A0000D040CE57DF4F1882C258D040CE57DF4F4C
:102A100028813981C258D040822B932BBC01990F59
:102A2000880B990B0E94B11A6093840270938502FF
:102A3000809386029093870280E393E00E942702AE
:102A4000182F80E393E00E942702CB57DF4F1883B3
:102A5000C558D040CC57DF4F1882C458D040CC570F
:102A6000DF4F48815981C458D040842B952BBC013D
:102A7000990F880B990B0E94B11A6093780270939A
:102A8000790280937A0290937B0280E393E00E9424
:102A90002702182F80E393E00E942702C957DF4FD7
:102AA0001883C758D040CA57DF4F1882C658D04045
:102AB000CA57DF4F68817981C658D040862B972B43
:102AC000BC01990F880B990B0E94B11A60937C028C
:102AD00070937D0280937E0290937F0280E393E067
:102AE0000E942702F82E80E393E00E9427028C01C7
:102AF00020E030E04AEA53E460918402709185025C
:102B000080918602909187020E94071A28EB3EE18D
:102B100042E152E40E94041960938402709385029A
:102B200080938602909387022DEC3CE248E854E4BF
:102B300060916C0270916D0280916E0290916F02B3
:102B40000E94031920E038E640E856E40E94071A84
:102B500060936C0270936D0280936E0290936F028B
:102B600023E333E348EF53E4609170027091710204
:102B700080917202909173020E94041920E034E95E
:102B80004FE756E40E94071A609370027093710237
:102B900080937202909373022AE939E94EEA54E471
:102BA0006091740270917502809176029091770223
:102BB0000E94041923E335E443E856E40E94071A0F
:102BC00060937402709375028093760290937702FB
:102BD0002CEE31E14FE153E460917802709179027B
:102BE00080917A0290917B020E94041920E030E0EB
:102BF00041EE54E40E94071A6093780270937902C0
:102C000080937A0290937B022DEC3CEC47EE52E4E9
:102C100060917C0270917D0280917E0290917F0292
:102C20000E94031920E030E048EC54E40E94071AA7
:102C300060937C0270937D0280937E0290937F026A
:102C4000C757DF4FF882C958D040C857DF4F1882A6
:102C5000C858D040C857DF4F68817981C858D040E4
:102C6000602B712B072E000C880B990B0E94B11A58
:102C700024EA30E74DE053E40E94041920E030E0FC
:102C800048EC54E40E94071A60938002709381021A
:102C900080938202909383020E9467090E946709D1
:102CA00060914004709141048091420490914304EA
:102CB0000E94B11A20E030E048EC52E40E94071A6A
:102CC0000E94801A609355046091440470914504F9
:102CD00080914604909147040E94B11A0E94801A84
:102CE000609358046091640270916502809166025D
:102CF000909167020E94801A60935204609168026A
:102D00007091690280916A0290916B020E94801A10
:102D100060934F0480917401882309F489C08091E5
:102D20003F03811115C060E070E084E593E00E94EC
:102D3000690660E070E085E693E00E94690660E065
:102D400070E086E793E00E94690660E070E06AC088
:102D500080913C0330913D0320913E0390E0831B22
:102D60009109820F911D2091460330914703829F64
:102D7000B001839F700D929F700D112484E593E044
:102D80000E94690680913D0330913C0320913E03EF
:102D900090E0919581959109831B9109821B91097E
:102DA0002091480330914903829FB001839F700DA9
:102DB000929F700D112485E693E00E946906809130
:102DC0003D0330913C0320913E0390E09195819525
:102DD0009109831B9109820F911D20914A03309123
:102DE0004B03829FB001839F700D929F700D112441
:102DF00086E793E00E94690680913C0330913D0391
:102E000020913E0390E0831B9109821B9109209140
:102E10004C0330914D03829FB001839F700D929FB0
:102E2000700D112487E893E00E94690610927401E6
:102E300080913F03811112C060E070E088E993E067
:102E40000E94690660E070E089EA93E00E946906EA
:102E500060E070E08AEB93E00E9469068091420393
:102E600090914303892B09F065C0809140039091B4
:102E70004103892B09F05EC08091F2038823A1F001
:102E80006091E9037091EA038091EB039091EC0368
:102E90000E94B11A6093F3037093F4038093F503D7
:102EA0009093F6031092F20300E010E08091F20399
:102EB00081111FC06091E9037091EA038091EB03D7
:102EC0009091EC030E94B11A9B01AC016091F30355
:102ED0007091F4038091F5039091F6030E94031919
:102EE00020E030E040E05FE30E94081C0E94791A75
:102EF0008B01B80189EA93E00E946906B801110FBD
:102F0000880B990B0E94B11A20E030E0A9010E94C1
:102F100004190E94791A6B017C0188E993E00E94F0
:102F20006906B6018AEB93E00E9469060E94D90106
:102F30000C94600E71E07093F203809140039091C5
:102F400041032091420330914303821B930B22E300
:102F5000289F8001299F100D1124A8CFFC0180918A
:102F60008F018C30A8F491E0980F90938F018687A1
:102F700090E0DC01AA0FBB1F8A0F9B1FDC01AF563C
:102F8000BE4F88EB9BE012969C938E93119702C0E4
:102F90008FEF8687F8941092B0001092B1001092D3
:102FA000B2008FEF8093B3008091B100886080936E
:102FB000B1008091B10085608093B1008091700074
:102FC0008093700084EA96E09783868384E195E09D
:102FD000918780872681378180859185281B390BD1
:102FE0004AE0429FC001439F900D112464E670E0C7
:102FF0000E94F81C758364838CED95E09183808337
:1030000080819181938382838FEF9FEF958784875F
:1030100080917D0190917E0193878287DC01AA0FC8
:10302000BB1FA158BE4FED93FC93019690937E0178
:1030300080937D0178940895CF92DF92EF92FF9272
:10304000E3E9F2E01382128288EE93E0A0E0B0E0C0
:1030500084839583A683B7832AE031E0318320837C
:1030600025EC30E03587248724EC30E0378726874D
:1030700020EC30E0318B208B21EC30E0338B228B45
:1030800022EC30E0358B248B26EC30E0378B268B1E
:10309000118E128E138E148EE0E3F3E013821282EF
:1030A00084839583A683B7838CE191E091838083A9
:1030B00010925A0410925904C12C80EAD82E80E84C
:1030C000E82E84E4F82EC0924904D0924A04E0929B
:1030D0004B04F0924C04ECE3F3E02FEF3FEF338727
:1030E000228781E090E09587848737872687918BB8
:1030F000808B938B828B958B848B978B868B84E5CF
:1031000093E00E94AE1785E693E00E94AE1786E733
:1031100093E00E94AE1787E893E00E94AE1788E91B
:1031200093E00E94AE1789EA93E00E94AE178AEB03
:1031300093E00E94AE17C092EE03D092EF03E092AC
:10314000F003F092F103FF90EF90DF90CF9008959D
:10315000052E97FB1EF400940E94BF1857FD07D060
:103160000E94D21807FC03D04EF40C94BF1850955F
:103170004095309521953F4F4F4F5F4F0895909563
:103180008095709561957F4F8F4F9F4F08950E9456
:10319000F418A59F900DB49F900DA49F800D911DD4
:1031A00011240895A1E21A2EAA1BBB1BFD010DC01C
:1031B000AA1FBB1FEE1FFF1FA217B307E407F507E7
:1031C00020F0A21BB30BE40BF50B661F771F881FC3
:1031D000991F1A9469F760957095809590959B0159
:1031E000AC01BD01CF010895A29FB001B39FC00102
:1031F000A39F700D811D1124911DB29F700D811D23
:103200001124911D08955058BB27AA270E941B190D
:103210000C94AD1B0E94741B38F00E947B1B20F0A5
:1032200039F49F3F19F426F40C94361B0EF4E09504
:10323000E7FB0C94301BE92F0E94D21B58F3BA17FE
:10324000620773078407950720F079F4A6F50C94BC
:10325000F41B0EF4E0950B2EBA2FA02D0B01B90133
:1032600090010C01CA01A0011124FF27591B99F0FC
:10327000593F50F4503E68F11A16F040A22F232F08
:10328000342F4427585FF3CF469537952795A79558
:10329000F0405395C9F77EF41F16BA0B620B730BFF
:1032A000840BBAF09150A1F0FF0FBB1F661F771F70
:1032B000881FC2F70EC0BA0F621F731F841F48F425
:1032C000879577956795B795F7959E3F08F0B0CFAE
:1032D0009395880F08F09927EE0F97958795089595
:1032E0009F939F77EEE389379E0728F4E0E8F0E0AC
:1032F0000E94601B0CC00E94EC1A9058A2EA2AEDB2
:103300003FE049EC5FE30E941B190E94AD1B0F9048
:1033100007FC905808950E94741B60F080E891E0CB
:1033200009F49EEF0E947B1B28F040E851E071F405
:103330005EEF0CC00C94361B0C94F41BE92FE07864
:103340000E94D21B40F3092E052AB1F32617370736
:103350004807590738F00E2E07F8E02569F0E025F8
:10336000E0640AC0EF6307F8009407FADB01B901D3
:103370009D01DC01CA01AD01EF930E941E1A0E945B
:10338000AD1B0E94CE195F91552339F02BED3FE024
:1033900049E450FD49EC0C9404190895DF93DD27AE
:1033A000B92FBF7740E85FE31616170648075B079B
:1033B00018F4D92F0E94001C9F938F937F936F93D3
:1033C0000E94C31CE4E9F0E00E94391B0E94AD1B7F
:1033D0002F913F914F915F910E941B1CDD2351F073
:1033E0009058A2EA2AED3FE049EC5FE3D0785D27F0
:1033F0000E941B19DF910C94AD1B0E940C1B08F45A
:1034000081E008950E94841BE3950C94BE1B0E94EA
:103410001B1A0C94AD1B0E947B1B58F00E94741B5E
:1034200040F029F45F3F29F00C94301B51110C94AB
:10343000F51B0C94361B0E94D21B68F39923B1F341
:10344000552391F3951B550BBB27AA2762177307CA
:10345000840738F09F5F5F4F220F331F441FAA1F5E
:10346000A9F335D00E2E3AF0E0E832D0915050401A
:10347000E695001CCAF72BD0FE2F29D0660F771FC8
:10348000881FBB1F261737074807AB07B0E809F0AE
:10349000BB0B802DBF01FF2793585F4F3AF09E3F33
:1034A000510578F00C94301B0C94F51B5F3FE4F34E
:1034B000983ED4F3869577956795B795F7959F5F76
:1034C000C9F7880F911D9695879597F90895E1E0C2
:1034D000660F771F881FBB1F621773078407BA0721
:1034E00020F0621B730B840BBA0BEE1F88F7E0957C
:1034F00008950E94801A6894B1110C94F51B0895E8
:103500000E94DA1B88F09F5798F0B92F9927B7517E
:10351000B0F0E1F0660F771F881F991F1AF0BA9577
:10352000C9F714C0B13091F00E94F41BB1E00895C6
:103530000C94F41B672F782F8827B85F39F0B93FB8
:10354000CCF3869577956795B395D9F73EF490952A
:103550008095709561957F4F8F4F9F4F0895E894A8
:1035600009C097FB3EF490958095709561957F4FCB
:103570008F4F9F4F9923A9F0F92F96E9BB27939579
:10358000F695879577956795B795F111F8CFFAF489
:10359000BB0F11F460FF1BC06F5F7F4F8F4F9F4FBA
:1035A00016C0882311F096E911C0772321F09EE818
:1035B000872F762F05C0662371F096E8862F70E07E
:1035C00060E02AF09A95660F771F881FDAF7880F58
:1035D0009695879597F90895DF93CF931F930F934F
:1035E0008B01EC01E1ECF0E00E94391B0E94AD1B65
:1035F0009801AE018B01EC0160E070E080E89FE390
:103600000E9403190E94831C9801AE010F911F9123
:10361000CF91DF910C941B1C990F0008550FAA0B3A
:10362000E0E8FEEF16161706E807F907C0F01216D5
:103630001306E407F50798F0621B730B840B950BD8
:1036400039F40A2661F0232B242B252B21F408952D
:103650000A2609F4A140A6958FEF811D811D0895CA
:1036600097F99F6780E870E060E008959FEF80EC35
:103670000895DF93CF931F930F93FF92EF92DF9202
:103680007B018C01689406C0DA2EEF010E941B1C9E
:10369000FE01E894A5912591359145915591A6F3A8
:1036A000EF010E941B19FE019701A801DA9469F746
:1036B000DF90EF90FF900F911F91CF91DF910895D0
:1036C0009F938F937F936F93FF93EF939B01AC0135
:1036D0000E94081CEF91FF910E94391B2F913F918E
:1036E0004F915F910C94081C00240A94161617063B
:1036F00018060906089500240A94121613061406E3
:10370000050608950C94361B0E94DA1BD8F3E89442
:10371000E0E0BB279F57F0F02AED3FE049EC06C000
:10372000EE0FBB0F661F771F881F28F0B23A6207A3
:103730007307840728F0B25A620B730B840BE3956E
:103740009A9572F7803830F49A95BB0F661F771FF1
:10375000881FD2F790480C94C91C092E0394000CC2
:1037600011F4882352F0BB0F40F4BF2B11F460FF1B
:1037700004C06F5F7F4F8F4F9F4F0895EF93E0FF1F
:1037800007C0A2EA2AED3FE049EC5FEB0E941B195B
:103790000E94AD1B0F90039401FC9058E9EEF0E0FD
:1037A0000C94601B57FD9058440F551F59F05F3F14
:1037B00071F04795880F97FB991F61F09F3F79F053
:1037C00087950895121613061406551FF2CF4695D5
:1037D000F1DF08C0161617061806991FF1CF869557
:1037E0007105610508940895E894BB27662777273B
:1037F000CB0197F908950E940C1B08F48FEF0895F0
:103800009B01AC0160E070E080E89FE30C94071A34
:103810000E941B1C0C94AD1B0E94741B38F00E946C
:103820007B1B20F0952311F00C94301B0C94361B5D
:1038300011240C94F51B0E94D21B70F3959FC1F3C9
:10384000950F50E0551F629FF001729FBB27F00D4E
:10385000B11D639FAA27F00DB11DAA1F649F6627A3
:10386000B00DA11D661F829F2227B00DA11D621FF2
:10387000739FB00DA11D621F839FA00D611D221FAC
:10388000749F3327A00D611D231F849F600D211D90
:10389000822F762F6A2F11249F5750409AF0F1F013
:1038A00088234AF0EE0FFF1FBB1F661F771F881F7C
:1038B00091505040A9F79E3F510580F00C94301B69
:1038C0000C94F51B5F3FE4F3983ED4F3869577950F
:1038D0006795B795F795E7959F5FC1F7FE2B880F22
:1038E000911D9695879597F908959F930E94841B43
:1038F0000F9007FCEE5F0C94BE1B19F416F40C94A9
:10390000361B0C94C71C0E94DA1BB8F39923C9F329
:10391000B6F39F57550B87FF0E94D51C0024A0E6E5
:1039200040EA900180585695979528F4805C660F80
:10393000771F881F20F026173707480730F4621BCF
:10394000730B840B202931294A2BA69517940794D1
:10395000202531254A2758F7660F771F881F20F04A
:1039600026173707480730F4620B730B840B200DC2
:10397000311D411DA09581F7B901842F9158880F01
:103980009695879508959B01AC010C94081C9F3F68
:1039900031F0915020F4879577956795B795880F0A
:1039A000911D9695879597F9089591505040660F0F
:1039B000771F881FD2F70895DB018F939F930E9492
:1039C000C718BF91AF91A29F800D911DA39F900D2D
:1039D000B29F900D11240895991B79E004C0991F9E
:1039E000961708F0961B881F7A95C9F78095089559
:1039F00097FB072E16F4009407D077FD09D00E949C
:103A0000DD1E07FC05D03EF4909581959F4F0895EB
:103A1000709561957F4F0895EE0FFF1F0590F4910B
:103A2000E02D0994DF93CF931F930F939A9DF02D70
:103A3000219FF00D8B9DF00D8A9DE02DF10D039FD0
:103A4000F00D029FE00DF11D4E9DE00DF11D5E9DFC
:103A5000F00D4F9DF00D7F936F93BF92AF925F93E8
:103A60004F93D5010E94F4188B01AC01D7010E943D
:103A7000F418EB01E80FF91FD6010E94621D2F9187
:103A80003F91D6010E94F418C60FD71FE81FF91FF7
:103A9000AF91BF910E94621D2F913F910E94F41837
:103AA000C60FD71FE81FF91FD6010E94F418E60FB2
:103AB000F71F9801BE01CF0111240F911F91CF91E3
:103AC000DF9108950E94F418460F571FC81FD91F91
:103AD00008F43196089597FB57FF0C947B1D9F9334
:103AE0008F930E947B1D6E1B7F0BAF91BF918A0B42
:103AF0009B0B0895E894DF93CF93FC01DB010E94B8
:103B0000F4187F936F93E9019A01AC01BF93AF93CF
:103B10003F932F93DF010E94F41826F46C1B7D0B5A
:103B2000820B930B9E01EB01FC010E94621DAF9181
:103B3000BF912F913F910E94621DBE01CF01F901FB
:103B40002F913F91CF91DF910895689401C0E8943F
:103B5000F92FF12B12F00C94D91DA0E0B0E0E3EBAB
:103B6000FDE10C944B1E092E059422F40E94351E93
:103B7000112392F4F0E80F26FFEFE094F094009503
:103B80001095B094C094D094A194BF0ACF0ADF0AD4
:103B9000EF0AFF0A0F0B1F0B0E94E41D07FC0E9497
:103BA000351ECDB7DEB7ECE00C94671E689401C0FB
:103BB000E8948F929F92CF93DF930E94E41DDF9150
:103BC000CF919F908F90089588249924F401E40167
:103BD000B0E49F93AA279A158B049C04ED05FE057B
:103BE000CF05D007A10798F4AD2FDC2FCF2FFE2FE4
:103BF000E92D982C892E982F872F762F652F542FFB
:103C0000432F322F2227B85031F7BF9127C01B2EE8
:103C1000BF91BB27220F331F441F551F661F771FFD
:103C2000881F991F881C991CEE1FFF1FCC1FDD1FCA
:103C3000AA1FBB1F8A149B04EC05FD05CE05DF05FA
:103C4000A007B10748F08A189B08EC09FD09CE09C6
:103C5000DF09A00BB10B21601A94E1F62EF4940158
:103C6000AF01BE01CD01000C08956095709580955F
:103C7000909530954095509521953F4F4F4F5F4F10
:103C80006F4F7F4F8F4F9F4F08952F923F924F92CC
:103C90005F926F927F928F929F92AF92BF92CF92DC
:103CA000DF92EF92FF920F931F93CF93DF93CDB7E5
:103CB000DEB7CA1BDB0B0FB6F894DEBF0FBECDBF5D
:103CC00009942A88398848885F846E847D848C842E
:103CD0009B84AA84B984C884DF80EE80FD800C8137
:103CE0001B81AA81B981CE0FD11D0FB6F894DEBF1A
:103CF0000FBECDBFED0108950F93083090F0982FBF
:103D0000872F762F652F542F432F322F22270850CD
:103D1000F4CF220F331F441F551F661F771F881FC4
:103D2000991F0A95B2F70F91089597FB10F8169412
:103D300000080F93083098F00850232F342F452F98
:103D4000562F672F782F892F902DF4CF05949795B4
:103D500087957795679557954795379527950A9550
:103D6000AAF70F9108952A0D3B1D4C1D5D1D6E1D78
:103D70007F1D801F911F08950024A7FD00942A0F26
:103D8000301D401D501D601D701D801D901D08952B
:103D90002A193B094C095D096E097F09800B910BBB
:103DA00008950024A7FD00942A173005400550050A
:103DB00060057005800590050895AA1BBB1B51E1A5
:103DC00007C0AA1FBB1FA617B70710F0A61BB70B8B
:103DD000881F991F5A95A9F780959095BC01CD0130
:103DE00008950F931F93CF93DF938230910510F4C2
:103DF00082E090E0E0916704F091680420E030E018
:103E0000A0E0B0E0309719F1408151810281138127
:103E100048175907C8F08417950769F4109731F0CF
:103E200012960C93129713961C9327C00093670465
:103E30001093680422C02115310519F04217530769
:103E400018F49A01BD01EF01DF01F801DBCF211564
:103E50003105F9F0281B390B2430310580F48A81B3
:103E60009B816115710521F0FB019383828304C05E
:103E70009093680480936704FE01329644C0FE016B
:103E8000E20FF31F819391932250310939832883E4
:103E90003AC02091650430916604232B41F42091AF
:103EA0000201309103013093660420936504209150
:103EB0000001309101012115310541F42DB73EB7C4
:103EC0004091040150910501241B350BE0916504DC
:103ED000F0916604E217F307A0F42E1B3F0B28179E
:103EE000390778F0AC014E5F5F4F2417350748F073
:103EF0004E0F5F1F50936604409365048193919326
:103F000002C0E0E0F0E0CF01DF91CF911F910F916F
:103F10000895CF93DF93009709F481C0FC01329795
:103F200013821282A0916704B0916804109781F403
:103F300020813181820F931F2091650430916604A6
:103F40002817390751F5F0936604E093650467C0BC
:103F5000ED0120E030E0CE17DF0740F44A815B81BD
:103F60009E0141155105F1F0EA01F5CFD383C283DB
:103F700040815181840F951FC817D90759F4888152
:103F80009981840F951F0296918380838A819B81FA
:103F9000938382832115310529F4F0936804E0931B
:103FA00067043DC0E901FB83EA8349915991C40F3D
:103FB000D51FEC17FD0761F480819181840F951F57
:103FC0000296E90199838883828193819B838A8306
:103FD000E0E0F0E012968D919C911397009719F014
:103FE000FD01DC01F7CF8D919C9111979D012E5F12
:103FF0003F4F820F931F209165043091660428176C
:10400000390769F4309729F4109268041092670414
:1040100002C013821282B0936604A0936504DF91FC
:10402000CF91089581E090E0F8940C941720F894D3
:02403000FFCFC0
:10403200000069048000000000006A01D70001014D
:10404200B701320110012401000000007002430296
:10405200A00217023B022702180253746F707069A4
:104062006E672E2E2E00094D6F746F72207265617D
:1040720063682076616C75653A09000D0A00094291
:104082007574746F6E2072656365697665643A094A
:0E409200005374617274696E672E2E2E00004A
:107E0000112484B714BE81FFF0D085E080938100F7
:107E100082E08093C00088E18093C10086E0809377
:107E2000C20080E18093C4008EE0C9D0259A86E02C
:107E300020E33CEF91E0309385002093840096BBD3
:107E4000B09BFECF1D9AA8958150A9F7CC24DD24C4
:107E500088248394B5E0AB2EA1E19A2EF3E0BF2EE7
:107E6000A2D0813461F49FD0082FAFD0023811F036
:107E7000013811F484E001C083E08DD089C08234E0
:107E800011F484E103C0853419F485E0A6D080C0E4
:107E9000853579F488D0E82EFF2485D0082F10E0AE
:107EA000102F00270E291F29000F111F8ED06801E7
:107EB0006FC0863521F484E090D080E0DECF843638
:107EC00009F040C070D06FD0082F6DD080E0C81688
:107ED00080E7D80618F4F601B7BEE895C0E0D1E017
:107EE00062D089930C17E1F7F0E0CF16F0E7DF06D8
:107EF00018F0F601B7BEE89568D007B600FCFDCFD4
:107F0000A601A0E0B1E02C9130E011968C91119780
:107F100090E0982F8827822B932B1296FA010C0160
:107F200087BEE89511244E5F5F4FF1E0A038BF0790
:107F300051F7F601A7BEE89507B600FCFDCF97BE46
:107F4000E89526C08437B1F42ED02DD0F82E2BD052
:107F50003CD0F601EF2C8F010F5F1F4F84911BD097
:107F6000EA94F801C1F70894C11CD11CFA94CF0C13
:107F7000D11C0EC0853739F428D08EE10CD085E9AC
:107F80000AD08FE07ACF813511F488E018D01DD067
:107F900080E101D065CF982F8091C00085FFFCCF94
:107FA0009093C60008958091C00087FFFCCF809118
:107FB000C00084FD01C0A8958091C6000895E0E648
:107FC000F0E098E1908380830895EDDF803219F02E
:107FD00088E0F5DFFFCF84E1DECF1F93182FE3DFCA
:107FE0001150E9F7F2DF1F91089580E0E8DFEE27F6
:047FF000FF270994CA
:027FFE00040479
:0400000300007E007B
:00000001FF
