:100000000C94B2000C94DA000C94DA000C94DA0030
:100010000C94DA000C94DA000C94DA000C94BC0610
:100020000C94DA000C94DA000C94DA000C948F052E
:100030000C94DA000C94DA000C94DA000C94DA00D8
:100040000C949B0C0C9458070C942F040C940904EA
:100050000C94DA000C94DA000C94DA000C94DA00B8
:100060000C9461040C94DA00DF07E6070108EB0743
:100070001208120812081208090806080C081208CB
:1000800012081208B807F4070108036EDB363D9A20
:100090009999993DABAAAA2A3E000000803F084AE0
:1000A000D73B3BCE016E84BCBFFDC12F3D6C74318C
:1000B0009ABD56833DDA3D00C77F11BED9E4BB4CE3
:1000C0003E916BAAAABE000000803F072C7AA5BA19
:1000D0006CC590DA3B9365FC8BBC53F810FD3C5625
:1000E00092834DBD879D3AB63DCBC9BF5BBE73DAE7
:1000F0000FC93F05A84CCDB2D44EB93836A9020C71
:1001000050B9918688083CA6AAAA2ABE00000080A1
:100110003F00000000080002010000030407000087
:1001200000000000000000000000250028002B0057
:1001300000000000240027002A0004040404040432
:100140000404020202020202030303030303010286
:100150000408102040800102040810200102040855
:1001600010208A1911241FBECFEFD8E0DEBFCDBF0B
:1001700011E0A0E0B1E0E6E2F3E402C005900D92E8
:10018000A633B107D9F724E0A6E3B1E001C01D9280
:10019000A433B207E1F710E0C2EBD0E004C021972E
:1001A000FE010E94861EC13BD107C9F70E94E50CE3
:1001B0000C9491210C940000CF92DF92EF92FF9269
:1001C0000F931F93CF93DF936C017A018B01C0E0F3
:1001D000D0E0CE15DF0581F0D8016D918D01D601FB
:1001E000ED91FC910190F081E02DC6010995892BDC
:1001F00011F02196EECF7E01C701DF91CF911F91C3
:100200000F91FF90EF90DF90CF900895FC01538DF8
:10021000448D252F30E0842F90E0821B930B5417E0
:1002200010F0CF96089501970895FC01918D828D6D
:10023000981761F0828DDF01A80FB11D5D968C913A
:10024000928D9F5F9F73928F90E008958FEF9FEF45
:100250000895FC01918D828D981731F0828DE80F01
:10026000F11D858D90E008958FEF9FEF0895FC01BB
:10027000918D228D892F90E0805C9F4F821B910988
:100280008F739927089589E692E00E94370121E053
:10029000892B09F420E0822F0895FC01848DDF0171
:1002A000A80FB11DA35ABF4F2C91848D90E00196E9
:1002B0008F739927848FA689B7892C93A089B189D8
:1002C0008C91837080648C93938D848D981306C079
:1002D0000288F389E02D80818F7D80830895EF92DD
:1002E000FF920F931F93CF93DF93EC0181E0888FF0
:1002F0009B8D8C8D981305C0E889F989808185FDD7
:1003000026C0F62E0B8D10E00F5F1F4F0F731127C5
:10031000E02E8C8DE8120CC00FB607FCFACFE889EE
:10032000F989808185FFF5CFCE010E944D01F1CF83
:100330008B8DFE01E80FF11DE35AFF4FF0829FB74E
:10034000F8940B8FEA89FB89808180620AC09FB78D
:10035000F894EE89FF896083E889F9898081837048
:10036000806480839FBF81E090E0DF91CF911F91F7
:100370000F91FF90EF900895CF93DF93EC01888D5C
:100380008823C9F0EA89FB89808185FD05C0A88999
:10039000B9898C9186FD0FC00FB607FCF5CF80811F
:1003A00085FFF2CFA889B9898C9185FFEDCFCE0169
:1003B0000E944D01E7CFDF91CF91089580E090E05A
:1003C000892B29F00E94430181110C9400000895AB
:1003D00085ED8093BC008091BC0084FDFCCF109221
:1003E000390208954091A701262F30E0240F311DD6
:1003F00021323105DCF4209139022430C9F4FC01AA
:1004000080E090E0861758F43091A7012191DC013B
:10041000A957BE4FA30FB11D2C930196F3CF809126
:10042000A701680F6093A70180E0089581E0089517
:1004300082E00895089508950895E091CF01809194
:10044000CE01E81730F4F0E0ED50FE4F808190E0EF
:1004500008958FEF9FEF08959091CF018091CE0185
:10046000981750F4E92FF0E0ED50FE4F208130E076
:100470009F5F9093CF0102C02FEF3FEFC901089516
:100480008091CE0190E02091CF01821B91090895C7
:10049000CF92DF92EF92FF920F931F93CF93DF9350
:1004A0007C01CB018A012091D001222389F0EB014C
:1004B0006B01C40ED51ECC15DD0569F06991D7011D
:1004C000ED91FC910190F081E02DC7010995F3CFEA
:1004D000642F0E94F201C801DF91CF911F910F910B
:1004E000FF90EF90DF90CF900895CF93DF931F920E
:1004F000CDB7DEB769832091D0012223D1F02091BE
:10050000F201203240F021E030E0FC01338322830D
:1005100080E090E015C08091D101E82FF0E0EE522C
:10052000FE4F998190838F5F8093D1018093F20178
:1005300005C061E0CE0101960E94F20181E090E0E9
:100540000F90DF91CF910895089580E090E0089595
:10055000FC0190819C3088F5818128E830E0281BDF
:10056000310987FD3395220F331F220F331F621786
:10057000730784F0828148E552E0481B510987FDEA
:100580005395440F551F440F551F9B01461757079E
:100590000CF49A0122503109220F331F4FB7F894FF
:1005A000892F90E0FC01EE0FFF1F8E0F9F1FFC01B3
:1005B000ED59FE4F328321834FBF0895CF93DF93D0
:1005C000EC01288139818A819B812817390704F53C
:1005D000888199812A813B81821B930B1816190609
:1005E0002CF4888199812A813B8104C08A819B8176
:1005F00028813981821B930B2C813D8182179307BF
:100600003CF12C813D8188819981820F931F29C003
:10061000288139818A819B818217930724F58881FB
:1006200099812A813B81821B930B181619062CF4A1
:10063000888199812A813B8104C08A819B8128819C
:100640003981821B930B2C813D81821793071CF407
:100650008A819B8106C02C813D8188819981821B82
:10066000930B9983888368817981CE010E960E94CD
:10067000A802488159812A813B8181E042175307B2
:1006800009F080E0DF91CF910895613921E0720790
:1006900014F060E971E077FF02C060E070E02CEDDB
:1006A00035E0261B370BFC013187208764527A4FD7
:1006B0007783668308958F929F92AF92BF92CF9275
:1006C000DF92EF92FF920F931F93CF93DF93FC0182
:1006D000EB55FF4F2081222309F462C08B01EC010E
:1006E000FB01EE0FFF1FEE0FFF1FEC0FFD1F8788B2
:1006F000908CA18CB28C20E030E040EF52E4C50138
:10070000B4010E94821D0E94F31B6B017C01CE018B
:10071000C4960E944503B601CE0183960E9445030C
:10072000B601CE018A5A9F4F0E944503B601CE0101
:100730008B5B9F4F0E9445030115110591F42F8992
:10074000388D498D5A8D6B8D7C8D8D8D9E8D0E943F
:100750007E1A20E030E040E05FE30E94821D4B0102
:100760005C0120E030E040EF52E4C501B4010E949A
:10077000821D0E94F31B6B017C01CE0189599F4FA2
:100780000E944503B601CE0188589F4F0E94450341
:10079000B601CE0187579F4F0E94450318870F83EC
:1007A000DF91CF911F910F91FF90EF90DF90CF904D
:1007B000BF90AF909F908F9008950E948C210F93CF
:1007C0001F93CF93DF938C01C0915F01D0916001A3
:1007D000209749F484E090E00E946B2090936001A0
:1007E00080935F010CC08A819B81009711F0EC011E
:1007F000FACF84E090E00E946B209B838A83FC0107
:100800001183008313821282DF91CF911F910F9188
:1008100008951F920F920FB60F9211242F933F93BA
:100820004F935F936F937F938F939F93AF93BF93F8
:10083000EF93FF9389E692E00E944D01FF91EF91C3
:10084000BF91AF919F918F917F916F915F914F91E8
:100850003F912F910F900FBE0F901F9018951F92F0
:100860000F920FB60F9211242F938F939F93EF93B4
:10087000FF93E0917902F0917A028081E0917F020A
:10088000F091800282FD12C09081809182028F5F80
:100890008F7320918302821751F0E0918202F0E081
:1008A000E759FD4F958F8093820201C08081FF91AF
:1008B000EF919F918F912F910F900FBE0F901F90EE
:1008C00018951F920F920FB60F9211242F933F93FA
:1008D0004F935F936F937F938F939F93AF93BF9348
:1008E000EF93FF938091B900887F803609F49CC014
:1008F00068F5883209F45BC090F4803109F454C083
:1009000038F4882309F4F6C0883009F44DC0F6C0E5
:10091000883109F44CC0803209F45DC0EFC08034E6
:1009200009F468C048F4803309F455C0883309F0ED
:10093000E5C080933702D8C0803509F44FC08835B0
:1009400009F45DC0883409F0D9C0D6C0883909F4EB
:10095000C7C0A8F4883709F467C038F4883609F4AA
:1009600063C0803709F460C0C9C0883809F4B8C0D2
:10097000803909F45FC0803809F0C0C05BC0803B9B
:1009800009F486C038F4803A09F466C0883A09F45C
:100990007FC0B4C0803C09F4A7C0883C09F4A4C05F
:1009A000883B09F48AC0AAC08091340210C090919B
:1009B000360280913502981770F5E091360281E099
:1009C0008E0F80933602F0E0ED5EFD4F80818093C4
:1009D000BB0085EC86C0809337028EC0E091360262
:1009E00081E08E0F809336028091BB00F0E0ED5ED7
:1009F000FD4F808390913602809135026EC0E09168
:100A0000360281E08E0F809336028091BB00F0E0C9
:100A1000ED5EFD4F80838091380281116DC081E0D1
:100A20008093330284EA61C083E08093390210929C
:100A3000C901CFCF8091C901803208F051C0E09147
:100A4000C90181E08E0F8093C9018091BB00F0E065
:100A5000E755FE4F8083BDCF85EC8093BC0010929C
:100A600039028091C901803230F4E091C901F0E08F
:100A7000E755FE4F10826091C90170E0E0913601A8
:100A8000F091370189EA91E009951092C90136C0C9
:100A900084E0809339021092A8011092A701E0919E
:100AA0003801F091390109958091A701811105C0A4
:100AB00081E08093A70110928701E091A80181E075
:100AC0008E0F8093A801F0E0E957FE4F808180935C
:100AD000BB009091A8018091A701981708F479CFE5
:100AE00085E88093BC000AC085EC8093BC0010921E
:100AF000390204C0109237020E94E801FF91EF9181
:100B0000BF91AF919F918F917F916F915F914F9125
:100B10003F912F910F900FBE0F901F9018951F922D
:100B20000F920FB60F9211242F933F934F935F9321
:100B30006F937F938F939F93AF93BF93EF93FF93A5
:100B40008091620187FF05C0109285001092840099
:100B50001BC020916201022E000C330B80916101B9
:100B600090E02817390784F480916201082E000C68
:100B7000990BFC01EE0FFF1F8E0F9F1FFC01ED591B
:100B8000FE4F808186FD15C0809162018F5F80934A
:100B9000620120916201022E000C330B80916101F1
:100BA00090E028173907C4F4809162018C3064F119
:100BB00013C080916201082E000C990BFC01EE0F0E
:100BC000FF1F8E0F9F1FFC01ED59FE4F808160E0DB
:100BD0008F730E94EF0BD8CF809184009091850095
:100BE000049680349C4918F480E49CE905C0809107
:100BF00084009091850004969093890080938800EA
:100C00008FEF809362013BC020918400309185007A
:100C100080916201082E000C990BFC01EE0FFF1F62
:100C20008E0F9F1FFC01ED59FE4F81819281820F33
:100C3000931F909389008093880080916201082E11
:100C4000000C990BFC01EE0FFF1F8E0F9F1FFC0184
:100C5000ED59FE4F808186FF12C080916201082EFF
:100C6000000C990BFC01EE0FFF1F8E0F9F1FFC0164
:100C7000ED59FE4F808161E08F730E94EF0BFF9171
:100C8000EF91BF91AF919F918F917F916F915F9104
:100C90004F913F912F910F900FBE0F901F9018957D
:100CA000EF92FF920F931F93CF93DF93EC017D8719
:100CB0006C87EC84FD848C01025F1F4F8E858C3025
:100CC00008F04FC08E2D0E94D00B8E85E82FF0E0EB
:100CD0009F01220F331FE20FF31FED59FE4F9E2D90
:100CE0009F732081207CE22EE92AE0821F86188AE9
:100CF0006CE00E94661E9CE0899FB001112440E0D8
:100D000050E09B01240F351FF901EE0FFF1F2E0F3E
:100D10003F1FF901ED59FE4F908196FD16C04F5FC0
:100D20005F4F4C30510569F781110FC01092800060
:100D300082E0809381001092850010928400B19A25
:100D400080916F00826080936F00EE85F0E0CF01AC
:100D5000880F991FE80FF91FED59FE4F80818064BD
:100D600080836CED75E0C801DF91CF911F910F91E9
:100D7000FF90EF900C94A8021F920F920FB60F9263
:100D800011242F933F934F935F936F937F938F9390
:100D90009F93AF93BF93CF93DF93EF93FF93C09154
:100DA0005F01D09160012097D1F0E881F981EE0FC9
:100DB000FF1FEF5AFE4F808191810E94DE02811158
:100DC00004C0888199810E94DF038A819B8190936E
:100DD000600180935F01CE010E94032104C08091D5
:100DE000700010927000FF91EF91DF91CF91BF9151
:100DF000AF919F918F917F916F915F914F913F91B3
:100E00002F910F900FBE0F901F901895CF92DF92E9
:100E1000EF92FF92CF93DF93EC01603871053CF4C1
:100E200062388FEF78072CF462E87FEF02C06FE73B
:100E300070E08E819F81C884D9840D2C000CEE084F
:100E4000FF08AB01770F660B770B9A01AB012258B5
:100E50003F4F4F4F5F4F092E000CAA0BBB0BBC013D
:100E6000CD016C197D098E099F090E94561E2DEF38
:100E700030E040E050E00E94221AC20ED31EE41E71
:100E8000F51EDB82CA82CE010E94DE02811109C0FA
:100E90008A859B850E94DF03809170008260809329
:100EA0007000DF91CF91FF90EF90DF90CF90089589
:100EB0001F920F920FB60F9211242F933F934F93CF
:100EC0005F936F937F938F939F93AF93BF93EF93B2
:100ED000FF938EB580934E0180914D01882349F098
:100EE0008FEF8EBD10924D0110924C0110924B016C
:100EF0001CC080914B0190914C01FC01EE0FFF1F33
:100F00008E0F9F1FFC01E45EFB4F82818EBD80919E
:100F10004B0190914C01019690934C0180934B01B1
:100F200004971CF081E080934D01E0914E01E111A6
:100F300004C081E080934A01B3C0EF3F41F481E0F7
:100F40008093490110924C0110924B01A9C08091ED
:100F50004A01882309F46DC08E2F90E0FC0134977C
:100F6000E131F10508F05EC0EC5CFF4F0C94861E89
:100F700080912003882379F01092BB031092BA036A
:100F80001092BD031092BC031092BF031092BE03D7
:100F90001092200347C080913A0190913B01A091AB
:100FA0003C01B0913D0121E0209320038093C103D7
:100FB0009093C203A093C303B093C40333C081E0F2
:100FC00090E090932603809325032CC01092260373
:100FD0001092250327C01092210310922203109231
:100FE0002303109224031EC080E090E0A0ECBFE336
:100FF0008093210390932203A0932303B0932403AF
:1010000011C080E090E0A0E8BFE3F2CF62E070E0C2
:1010100005C061E070E002C060E070E080E293E053
:101020000E945B0310924A011092480110924701FE
:1010300037C080914901882399F1809147019091AF
:1010400048018130910569F08230910591F0009757
:10105000B9F4F0E0EF57F109F093BB03E093BA0362
:101060000FC0F0E0EF57F109F093BD03E093BC032C
:1010700007C0F0E0EF57F109F093BF03E093BE0320
:1010800001969093480180934701039734F01092A2
:101090004901109248011092470181E080933E017E
:1010A000FF91EF91BF91AF919F918F917F916F9140
:1010B0005F914F913F912F910F900FBE0F901F9016
:1010C00018954F925F926F927F928F929F92AF92FC
:1010D000BF92CF92DF92EF92FF92CF93DF93CDB783
:1010E000DEB7A4970FB6F894DEBF0FBECDBF8091D8
:1010F0004E0290914F02A0915002B0915102BC015A
:10110000CD0190582FE832EC45EF5CE30E94821D40
:101110002B013C018091520290915302A091540204
:10112000B0915502BC01CD0190582FE832EC45EF4B
:101130005CE30E94821D4B015C012FE832EC45EF1D
:101140005CE3609156027091570280915802909131
:1011500059020E94821D6B017C01C301B2010E94F1
:101160007C1B6D837E838F839887C501B4010E94A9
:101170007C1B69877A878B879C87C701B6010E9491
:101180007C1B6D877E878F87988B80913E02909124
:101190003F02A0914002B0914102898B9A8BAB8BA8
:1011A000BC8BBC01CD010E947C1B6D8B7E8B8F8B19
:1011B000988F80913A0290913B02A0913C02B091AD
:1011C0003D02898F9A8FAB8FBC8FBC01CD010E94ED
:1011D0007C1B69837A838B839C83C301B2010E9449
:1011E000EF1D6D8F7E8F8F8F98A3C501B4010E9474
:1011F000EF1D69A37AA38BA39CA3C701B6010E942C
:10120000EF1D2B013C0169897A898B899C890E9499
:10121000EF1D698B7A8B8B8B9C8B698D7A8D8B8D77
:101220009C8D0E94EF1D6B017C0129813A814B81CD
:101230005C816D857E858F8598890E94821D2989B4
:101240003A894B895C890E94821D4B015C01A70190
:101250009601C301B2010E94821D9B01AC01C50130
:10126000B4010E947E1A4B015C01A70196016D85B5
:101270007E858F8598890E94821D6B017C01A30168
:10128000920169817A818B819C810E94821D2989CA
:101290003A894B895C890E94821D9B01AC01C70180
:1012A000B6010E947D1A6D877E878F87988B9B0180
:1012B000AC0169A17AA18BA19CA10E94821D6B0146
:1012C0007C0129813A814B815C8169857A858B8596
:1012D0009C850E94821D2D893E894F89588D0E94D0
:1012E000821D9B01AC01C701B6010E947D1A2B0132
:1012F0003C016D8D7E8D8F8D98A19058A501940134
:101300000E94821D6B017C01A30192016D817E818F
:101310008F8198850E94821D9B01AC01C701B60197
:101320000E947D1A6B017C01A50194016D817E8173
:101330008F8198850E94821D4B015C01A30192015F
:101340006D8D7E8D8F8D98A10E94821D9B01AC01B9
:10135000C501B4010E947D1A4B015C01A7019601F1
:101360000E94181B6D837E838F83988760933E0253
:1013700070933F028093400290934102A501940133
:10138000C501B4010E94821D4B015C01A7019601B9
:10139000C701B6010E94821D9B01AC01C501B401C9
:1013A0000E947E1A0E94FD1D6B017C0129813A81F9
:1013B0004B815C816D897E898F89988D0E94821D09
:1013C00029A13AA14BA15CA10E94821D4B015C01A5
:1013D0002D853E854F85588969857A858B859C85C5
:1013E0000E94821D9B01AC01C501B4010E947E1ABE
:1013F000A70196010E94181B69877A878B879C87B3
:1014000060933A0270933B0280933C0290933D02BA
:101410008091420290914302A0914402B091450212
:1014200089839A83AB83BC8320E030E0A901BC01AF
:10143000CD010E94751D181634F069817A818B8167
:101440009C81905804C069817A818B819C819B0129
:10145000AC010E94821D6B017C018090460290903D
:101460004702A0904802B090490220E030E0A90174
:10147000C501B4010E94751D181624F0C501B40100
:10148000905802C0C501B4019B01AC010E94821DAD
:10149000A70196010E947E1A6B017C0140904A02CE
:1014A00050904B0260904C0270904D0220E030E072
:1014B000A901C301B2010E94751D181624F0C301D1
:1014C000B201905802C0C301B2019B01AC010E945D
:1014D000821DA70196010E947E1A0E94FD1D6B01CC
:1014E0007C0126E636E646E65FE30E94751D181687
:1014F0000CF064C02DEC3CEC4CE85FE3C701B60196
:101500000E94771B87FF5AC0A3019201C501B40155
:101510000E94181B2B013C0169817A818B819C817F
:101520009058A70196015F770E94811B0E94EA1ADA
:101530006B017C0126E636E646E65FE36D817E813F
:101540008F8198850E94821D4B015C012DEC3CEC43
:101550004CEC5DE3C301B2010E94821D9B01AC0112
:10156000C501B4010E947E1A60933E0270933F024F
:10157000809340029093410226E636E646E65FE31A
:1015800069857A858B859C850E94821D4B015C0153
:101590002DEC3CEC4CEC5DE3C701B6010E94821DD2
:1015A0009B01AC01C501B4010E947E1A60933A020E
:1015B00070933B0280933C0290933D0280913A02EB
:1015C00090913B02A0913C02B0913D0240913E02BD
:1015D00050913F02609140027091410240933A0263
:1015E00050933B0260933C0270933D0280933E0215
:1015F00090933F02A0934002B0934102A4960FB68D
:10160000F894DEBF0FBECDBFDF91CF91FF90EF907A
:10161000DF90CF90BF90AF909F908F907F906F9012
:101620005F904F900895909139029111FCCF91E015
:1016300090933902409338022FEF20933702109293
:101640003602260F20933502909334029091340293
:10165000880F892B8093340280913302813061F4AA
:1016600010923302809134028093BB008091BC00C1
:1016700083FDF8CF85EC01C085EE8093BC0080919E
:1016800039028130E1F380913602861710F46091BF
:101690003602A3E1B2E0E3EFF1E080E0861721F04B
:1016A0009D9191938F5FFACF0895282F3091F20189
:1016B000313208F04AC0809139028111FCCF9091FB
:1016C0002F0442E040933902209338022FEF2093F9
:1016D00037021092360230933502E2EDF1E0A3E1D9
:1016E000B2E020E0321721F041914D932F5FFACF05
:1016F0001092340220913402990F922B909334026D
:1017000090913302913061F410923302909134023F
:101710009093BB009091BC0093FDF8CF95EC01C075
:1017200095EE9093BC00909139029230E1F3909144
:1017300037029F3F79F080913702803241F08091EB
:101740003702803331F084E005C081E003C082E0DD
:1017500001C083E01092D1011092F2011092D001E9
:10176000089591E09093D00180932F041092D101BD
:101770001092F2010895682F86E093E00C947502B0
:10178000813208F080E241E0682F86E70E94130B67
:101790001092CF018093CE01089581E00C94550BF7
:1017A00090E0FC01E25BFE4F2491FC01E65CFE4F01
:1017B0008491882399F090E0880F991FFC01E05DE7
:1017C000FE4FA591B491FC01EA5DFE4F8591949185
:1017D0008FB7F894EC91E22BEC938FBF089590E0D3
:1017E000FC01EE5EFE4F2491FC01E25BFE4F349162
:1017F000FC01E65CFE4FE491EE2309F43CC0222399
:1018000039F1233091F038F42130A9F0223001F57C
:1018100084B58F7D12C0273091F02830A1F024309C
:10182000B9F4809180008F7D03C0809180008F7714
:10183000809380000DC084B58F7784BD09C08091EE
:10184000B0008F7703C08091B0008F7D8093B0008F
:10185000F0E0EE0FFF1FEA5DFE4FA591B4919FB738
:10186000F894611104C08C913095382302C0EC913A
:101870003E2B3C939FBF08953FB7F89480912B0473
:1018800090912C04A0912D04B0912E0426B5A89B14
:1018900005C02F3F19F00196A11DB11D3FBFBA2F02
:1018A000A92F982F8827820F911DA11DB11DBC0162
:1018B000CD0142E0660F771F881F991F4A95D1F727
:1018C00008958F929F92AF92BF92CF92DF92EF9244
:1018D000FF926B017C010E943C0C4B015C01C11426
:1018E000D104E104F104F1F00E943C0CDC01CB01D5
:1018F00088199909AA09BB09883E9340A105B10539
:1019000070F321E0C21AD108E108F10888EE880ED0
:1019100083E0981EA11CB11CC114D104E104F104A0
:1019200019F7DDCFFF90EF90DF90CF90BF90AF9091
:101930009F908F9008951F920F920FB60F921124CF
:101940002F933F938F939F93AF93BF938091CA013F
:101950009091CB01A091CC01B091CD0130912A049E
:1019600023E0230F2D3720F40196A11DB11D05C0E2
:1019700026E8230F0296A11DB11D20932A0480930F
:10198000CA019093CB01A093CC01B093CD0180917B
:101990002B0490912C04A0912D04B0912E0401965B
:1019A000A11DB11D80932B0490932C04A0932D04B2
:1019B000B0932E04BF91AF919F918F913F912F9142
:1019C0000F900FBE0F901F901895CF93DF93CDB758
:1019D000DEB7C256D1090FB6F894DEBF0FBECDBF39
:1019E000789484B5826084BD84B5816084BD85B5FA
:1019F000826085BD85B5816085BD80916E00816006
:101A000080936E00109281008091810082608093AB
:101A100081008091810081608093810080918000AD
:101A20008160809380008091B10084608093B100D8
:101A30008091B00081608093B00080917A008460D2
:101A400080937A0080917A00826080937A008091FE
:101A50007A00816080937A0080917A008068809318
:101A60007A001092C100E0917902F0917A0282E04E
:101A70008083E0917502F09176021082E091770206
:101A8000F09178028FEC808310928102E0917D02C8
:101A9000F0917E0286E08083E0917B02F0917C02EF
:101AA000808180618083E0917B02F0917C02808163
:101AB00088608083E0917B02F0917C028081806865
:101AC0008083E0917B02F0917C0280818F7D808316
:101AD00020E030E080912804909129048430910521
:101AE00090F4AC014F5F5F4F50932904409328045A
:101AF000FC01EE0FFF1F8E0F9F1FFC01E45EFB4FEA
:101B00003183208312822F5F3F4F2430310511F73C
:101B10001092CF011092CE011092D1011092F201D9
:101B20001092390211E0109338021092330261E0F2
:101B300082E10E94EF0B61E083E10E94EF0B809154
:101B4000B9008E7F8093B9008091B9008D7F80931A
:101B5000B90088E48093B80085E48093BC008AE1F2
:101B600092E090933901809338018BE192E0909359
:101B700037018093360188E60E94B10B8BE690E036
:101B80000E94BB0B80E090E00E94BB0B81E00E94B2
:101B9000550B68EE73E080E090E00E94610C1093BA
:101BA000170480E090E4A9E7B4E4809318049093CC
:101BB0001904A0931A04B0931B0486E70E94B10B8A
:101BC0008EE190E00E94BB0B0E94CD0B6AE070E0BA
:101BD00080E090E00E94610C57EFE52E53E0F52E77
:101BE00000EA10E086E70E94B10BC8010E94BB0B1F
:101BF0000E94CD0B41E062E086E70E94130B109239
:101C0000CF018093CE0186E093E00E942C02B82E93
:101C100086E093E00E942C02DB2CC12C8C299D29AC
:101C2000D7018D939D937D010E5F1F4F0E3A1105D5
:101C3000C9F68091F7039091F8039F709093F80391
:101C40008093F703109206041092050468EE73E087
:101C500080E090E00E94610C8FE2EAE3F2E0DE01B6
:101C6000119601900D928A95E1F768E070E087E89F
:101C700093E00E94500667E070E088E993E00E94DC
:101C8000500664E070E089EA93E00E94500665E047
:101C900070E084E593E00E94500666E070E083E423
:101CA00093E00E94500663E070E086E793E00E94B4
:101CB000500662E070E085E693E00E9450061092C4
:101CC000BB031092BA031092BD031092BC03109292
:101CD000BF031092BE03109220038FE2FE013196E3
:101CE000A6ECB3E001900D928A95E1F71092C00343
:101CF00081E090E090932803809327038093C503AD
:101D000068EB7BE080E090E00E94610CF8948CE04E
:101D10000E94D00B8CB580648CBD8FEF8EBD8CB5CE
:101D200080688CBD78948EE190E0A0E0B0E0809374
:101D3000120390931303A0931403B09315032FB7CA
:101D4000F8948091CA019091CB01A091CC01B091FF
:101D5000CD012FBF8093160390931703A093180310
:101D6000B093190310921F0310921E0310921C03CC
:101D700010921D030E943C0C80911E0390911F0342
:101D8000892B31F52FB7F8948091CA019091CB013E
:101D9000A091CC01B091CD012FBF4091160350917D
:101DA00017036091180370911903841B950BA60B00
:101DB000B70B40911203509113036091140370917B
:101DC000150384179507A607B70710F00C94F018B1
:101DD00080911E0390911F03019711F00C94EC1851
:101DE0002FB7F8948091CA019091CB01A091CC01BA
:101DF000B091CD012FBF8093160390931703A0934A
:101E00001803B093190310921F0310921E0310922F
:101E10001C0310921D03B1E4B0937C0080917A0002
:101E2000806480937A0080917A0086FDFCCF609177
:101E300078008091790070E0782B072E000C880BD9
:101E4000990B0E942B1C2AEA31EF42E050E40E94D9
:101E5000811B6093430170934401809345019093EB
:101E600046010E943C0C00913F01109140012091DD
:101E7000410130914201DC01CB01801B910BA20B8F
:101E8000B30B81329E44A105B10560F00E943C0C69
:101E900060933F0170934001809341019093420110
:101EA00081E001C080E02091F5033091F603232BFF
:101EB000A9F4882399F086E70E94B10B8AE490E0A8
:101EC0000E94BB0B0E94CD0B8091F5039091F6030D
:101ED00001969093F6038093F50380E02091F5033B
:101EE0003091F6032130310509F06BC0882309F4E5
:101EF00068C086E70E94B10B80E090E00E94BB0BB7
:101F00000E94CD0B83E090E00E94C00B109207046A
:101F1000109208041092090410920A0486E093E0DB
:101F20000E942C024C01990FAA08BB08809207045A
:101F300090920804A0920904B0920A0486E093E00B
:101F40000E942C02BA2CA92C982C88246C01990F81
:101F5000EE08FF08C828D928EA28FB28C092070401
:101F6000D0920804E0920904F0920A0486E093E01B
:101F70000E942C02FE2CED2CDC2CCC24092E000C13
:101F8000AA0BBB0BC82AD92AEA2AFB2AC09207044B
:101F9000D0920804E0920904F0920A0486E70E94B5
:101FA000B10B8AE590E00E94BB0B0E94CD0B8091A3
:101FB000F5039091F60301969093F6038093F50351
:101FC00080E02091F5033091F6032230310509F0CD
:101FD000CBC4882309F4C8C486E70E94B10B80E013
:101FE00090E00E94BB0B0E94CD0B83E090E00E942A
:101FF000C00B10920B0410920C0410920D0410925E
:102000000E0486E093E00E942C024C01990FAA086E
:10201000BB0880920B0490920C04A0920D04B09225
:102020000E0486E093E00E942C02BA2CA92C982C76
:1020300088246C01990FEE08FF08C828D928EA28DF
:10204000FB28C0920B04D0920C04E0920D04F09295
:102050000E0486E093E00E942C02FE2CED2CDC2C7A
:10206000CC24092E000CAA0BBB0BC82AD92AEA2AB9
:10207000FB2AC0920B04D0920C04E0920D04F09263
:102080000E048091010490910204A0E0B0E0BA2F08
:10209000A92F982F882797018601081B190B2A0B57
:1020A0003B0B08AB19AB2AAB3BAB10911704659601
:1020B0001FAF6597E091FD03F091FE03E090F903F7
:1020C000F090FA032091070430910804409109042C
:1020D00050910A0464962CAF3DAF4EAF5FAF64974A
:1020E000113009F09BC0970140E050E060E070E0E3
:1020F00080E090E000E10E94F61F19012A013B01F7
:102100004C01BF0180E090E028A939A94AA95BA948
:102110000E94E51EF22E032F142FB52FF62FE72F66
:10212000D82EE92EA0E00E944B205CF4AFE70E947D
:102130003620F22E032F142FB52FF62FE72FD82E8F
:10214000E92E2F2D302F412F5B2F6F2F7E2F8D2DBE
:102150009E2D07E00E940F2059016A017B018C012E
:102160009101A201B301C4010E942D2025962FAF39
:10217000259726963FAF269727964FAF2797289605
:102180005FAF289729966FAF29972A967FAF2A9736
:102190002B968FAF2B972C969FAF2C97E091FF0338
:1021A000F09100048090FB039090FC03940140E0C8
:1021B00050E060E070E080E090E001E10E94F61FF6
:1021C00019012A013B014C01BF0180E090E028A9E0
:1021D00039A94AA95BA90E94E51EF22E032F142FEC
:1021E000B52FF62FE72FD82EE92EA0E00E944B2026
:1021F0005CF4AFE30E943620F22E032F142FB52F8C
:10220000F62FE72FD82EE92E2F2D302F412F5B2FC1
:102210006F2F7E2F8D2D9E2D06E0A4C0BF0180E084
:1022200090E028A939A94AA95BA90E94E51ED22EEF
:10223000032F142FB52FF62FE72FB82EC92EA0E0AD
:102240000E944B2084F421503F4F4F4F5F4F6F4F00
:102250007F4F8F4F9F4FD22E032F142FB52FF62F66
:10226000E72FB82EC92E2D2D302F412F5B2F6F2F2A
:102270007E2F8B2D9C2D08E00E940F2039014A01F2
:10228000B62FA72FF82FE92FC12CD12C9701A6012B
:1022900060E070E080E090E00FE00E94F61F5901DE
:1022A0006A017B018C019301A4016B2F7A2F8F2F80
:1022B0009E2F0E942D2025962FAF259726963FAF63
:1022C000269727964FAF279728965FAF289729968E
:1022D0006FAF29972A967FAF2A972B968FAF2B97B0
:1022E0002C969FAF2C97E091FF03F0910004809013
:1022F000FB039090FC03940140E050E060E070E04C
:1023000080E090E000E10E94F61F19012A013B01E4
:102310004C01BF0180E090E028A939A94AA95BA936
:102320000E94E51EF22E032F142FB52FF62FE72F54
:10233000D82EE92EA0E00E944B205CF4AFE70E946B
:102340003620F22E032F142FB52FF62FE72FD82E7D
:10235000E92E2F2D302F412F5B2F6F2F7E2F8D2DAC
:102360009E2D07E00E940F2059016A017B018C011C
:102370009101A201B301C4010E942D2021962FAF2B
:10238000219722963FAF229723964FAF239724960B
:102390005FAF24972D966FAF2D972E967FAF2E9718
:1023A0002F968FAF2F9760969FAF609748A859A838
:1023B0006AA87BA8770C4408542C3201609103046E
:1023C0007091040480E090E028A939A94AA95BA98A
:1023D0000E94E51EF22E032F142FB52FF62FE72FA4
:1023E000D82EE92EA0E00E944B2084F42150310920
:1023F00040485F4F6F4F7F4F8F4F9F4FF22E032FFD
:10240000142FB52FF62FE72FD82EE92E2F2D302F92
:10241000412F5B2F6F2F7E2F8D2D9E2D07E10E9468
:102420000F2049015A01950184010053184F2F4F85
:102430003F4F0CAF1DAF2EAF3FAF65961FAD6597F9
:10244000113009F07EC02CAD3DAD4EAD5FAD203DED
:102450003740410551050CF038C168A979A98AA90E
:102460009BA92BE030E040E050E00E94E51EA8A8C8
:10247000B9A8CAA8DBA8E42CF42C042D142D0E94C2
:102480008C1EF22E032F142FB52FF62FE72FD82EE8
:10249000E92EA0E00E944B2084F42150310941092B
:1024A0005109684F7F4F8F4F9F4FF22E032F142FEC
:1024B000B52FF62FE72FD82EE92E2F2D302F412FB5
:1024C0005B2F6F2F7E2F8D2D9E2D03E20E940F20FC
:1024D00028AB39AB4AAB5BABAFE1B0E08CAC9DACA9
:1024E000AEACBFAC70ED871A77E0970AA108B108CF
:1024F000A50194010E94411A9B01AC01C501B401E0
:102500000E94561E7B018C01F3E015950795F79408
:10251000E794FA95D1F7AFE3B0E0A50194010E94EA
:10252000411A9B01AC01C501B4010E94561E2B014A
:102530003C01A5E07594679457944794AA95D1F708
:10254000CEC08CAD9DADAEADBFAD803D9740A10579
:10255000B1050CF0A6C068A979A98AA99BA923E0B6
:1025600030E040E050E00E94E51EA8A8B9A8CAA843
:10257000DBA8E42CF42C042D142D0E948C1EF22ECA
:10258000032F142FB52FF62FE72FD82EE92EA0E01A
:102590000E944B2084F421503109410951096E4FAA
:1025A0007F4F8F4F9F4FF22E032F142FB52FF62FF3
:1025B000E72FD82EE92E2F2D302F412F5B2F6F2F95
:1025C0007E2F8D2D9E2D01E20E940F2028AB39AB6E
:1025D0004AAB5BABA3E0B0E08CAC9DACAEACBFACA7
:1025E000F0ED8F1AF7E09F0AA108B108A501940148
:1025F0000E94411A9B01AC01C501B4010E94561E04
:102600007B018C0115950795F794E794A5E0B0E060
:10261000A50194010E94411A9B01AC01C501B401BE
:102620000E94561E2B013C01E3E075946794579479
:102630004794EA95D1F72CAD3DAD4EAD5FAD213C51
:1026400069EF36076FEF460756070CF048C0A7E062
:10265000B0E049015A017CED870E75E0971EA11C80
:10266000B11CA50194010E94411A9B01AC01C50156
:10267000B4010E94561EE60EF71E081F191FA50181
:10268000940162E0220F331F441F551F6A95D1F752
:10269000C501B4010E94561E460E571E681E791EC3
:1026A0001EC0A5019401C501B4010E94561E7B0104
:1026B0008C0144E015950795F794E7944A95D1F776
:1026C00018AA19AA1AAA1BAA07C018AA19AA1AAAEC
:1026D0001BAAE12CF12C8701412C512C3201D8018D
:1026E000C701BB0F880B982FDC0188AF99AFAAAF49
:1026F000BBAF21962FAD219722963FAD229723960F
:102700004FAD239724965FAD24972D966FAD2D97EF
:102710002E967FAD2E972F968FAD2F9760969FADFB
:10272000609757016801E8ACFE2C0E2D1E2D0E940B
:102730004220922E832E342E252E21966FAF219784
:1027400022967FAF229723968FAF239724969FAF31
:10275000249783017201110FEE08FE2C8701E8AE69
:10276000F9AE0AAF1BAF25962FAD259726963FAD44
:10277000269727964FAD279728965FAD28972996DD
:102780006FAD29972A967FAD2A972B968FAD2B9701
:102790002C969FAD2C9752016301E8ACFE2C0E2DB8
:1027A0001E2D0E94422059016A017B018C018CADD3
:1027B0009DADAEADBFAD28A939A94AA95BA9821BC1
:1027C000930BA40BB50B65963FAD659780930F04F3
:1027D00090931004A0931104B0931204313009F0C7
:1027E00059C064966CAD7DAD8EAD9FAD6497AB0165
:1027F000BC0180E090E0DC0148AB59AB6AAB7BAB3D
:102800008CAB9DABAEABBFAB9A01AB0160E070E0AF
:1028100080E090E00E948C1EF22E032F142FB52F23
:10282000F62FE72FD82EE92EA0E00E944B2084F44B
:1028300021503109404E5F4F6F4F7F4F8F4F9F4F59
:10284000F22E032F142FB52FF62FE72FD82EE92EB7
:102850002F2D302F412F5B2F6F2F7E2F8D2D9E2DF3
:1028600005E10E940F20A92CB82CC32CD22C219654
:10287000EFAC21972296FFAC229723960FAD2397BA
:1028800024961FAD24970E944220A12CB12CF2E384
:10289000CF2E57C064964CAD5DAD6EAD7FAD6497E5
:1028A0009A01AB0160E070E0CB0128AB39AB4AABD9
:1028B0005BAB6CAB7DAB8EAB9FAB60E070E080E060
:1028C00090E00E948C1EF22E032F142FB52FF62FAE
:1028D000E72FD82EE92EA0E00E944B2084F421504F
:1028E0003109404E5F4F6F4F7F4F8F4F9F4FF22EFA
:1028F000032F142FB52FF62FE72FD82EE92E2F2DCB
:10290000302F412F5B2F6F2F7E2F8D2D9E2D05E1B8
:102910000E940F20A92CB82CC32CD22C2196EFACEE
:1029200021972296FFAC229723960FAD23972496EA
:102930001FAD24970E944220A12CE0E4BE2ECC249F
:10294000C394D12CE12CF12C00E010E00E94211F57
:1029500020931304309314044093150450931604E9
:102960001092F6031092F503609113047091140411
:1029700080911504909116040E942B1C60933A01DB
:1029800070933B0180933C0190933D0188E60E9447
:10299000B10B8BE390E00E94BB0B80E00E94550BD3
:1029A00041E06EE088E60E94130B1092CF01809305
:1029B000CE0186E093E00E942C02182F86E093E07F
:1029C0000E942C0267961FAF679766961FAE6697A8
:1029D00067966EAD7FAD6797862B972BBC01990FDD
:1029E000880B990B0E942B1C609342027093430248
:1029F000809344029093450286E093E00E942C026B
:102A0000182F86E093E00E942C0269961FAF699709
:102A100068961FAE68976996AEADBFAD69978A2B71
:102A20009B2BBC01990F880B990B0E942B1C609368
:102A3000460270934702809348029093490286E0D1
:102A400093E00E942C02182F86E093E00E942C0253
:102A50006B961FAF6B976A961FAE6A976B96EEAD3B
:102A6000FFAD6B978E2B9F2BBC01990F880B990B99
:102A70000E942B1C60934A0270934B0280934C027D
:102A800090934D0286E093E00E942C02182F86E07E
:102A900093E00E942C026D961FAF6D976C961FAE4F
:102AA0006C976D96EEACFFAC6D978E299F29BC019B
:102AB000990F880B990B0E942B1C60935A027093FC
:102AC0005B0280935C0290935D0286E093E00E943B
:102AD0002C02182F86E093E00E942C026F961FAF05
:102AE0006F976E961FAE6E976F960EAD1FAD6F9778
:102AF000802B912BBC01990F880B990B0E942B1CEA
:102B000060934E0270934F02809350029093510253
:102B100086E093E00E942C02182F86E093E00E944A
:102B20002C02A1961FAFA197A0961FAEA097A196C9
:102B30002EAD3FADA197822B932BBC01990F880B33
:102B4000990B0E942B1C6093520270935302809346
:102B500054029093550286E093E00E942C02F82ED6
:102B600086E093E00E942C028C0120E030E04AEAEB
:102B700053E460915A0270915B0280915C029091E3
:102B80005D020E94811B28EB3EE142E152E40E947B
:102B90007E1A60935A0270935B0280935C0290935A
:102BA0005D0220E138E044EA53E460914202709112
:102BB000430280914402909145020E947D1A0E9436
:102BC000F31B072E000C880B990B0E942B1C2BE784
:102BD0003EEF43E856E40E94811B609342027093EB
:102BE0004302809344029093450222E538EB47EA82
:102BF00053E460914602709147028091480290919F
:102C000049020E947D1A0E94F31B072E000C880BBC
:102C1000990B0E942B1C25E838EB41E856E40E94F2
:102C2000811B609346027093470280934802909301
:102C3000490229EC3EE44AEB54E460914A02709167
:102C40004B0280914C0290914D020E947D1A0E948D
:102C5000F31B719561957109072E000C880B990B78
:102C60000E942B1C25E034E744E856E40E94811BB7
:102C700060934A0270934B0280934C0290934D02F2
:102C800029E831EA4EEA53E460914E0270914F0216
:102C900080915002909151020E947D1A20E030E410
:102CA0004EE455E40E94811B60934E0270934F02E4
:102CB00080935002909351022EE03DE84AE153E4A4
:102CC000609152027091530280915402909155028A
:102CD0000E947D1A20E030E641E555E40E94811B08
:102CE0006093520270935302809354029093550262
:102CF000A396FFAEA397A2961FAEA297A3966EAD22
:102D00007FADA397602B712B072E000C880B990BBE
:102D10000E942B1C21ED32E240E353E40E947E1A14
:102D200020E030E048E455E40E94811B60935602A5
:102D30007093570280935802909359020E94610841
:102D40000E946108609143017091440180914501A6
:102D5000909146010E94FA1B262F30E0AEEFB0E0C2
:102D60000E946E1A2FEF30E040E050E00E94221ADD
:102D70002093240460913A0170913B0180913C01C1
:102D800090913D0120E030E045E754E40E947D1A37
:102D90000E94FA1B262F30E0AEEFB0E00E946E1AC0
:102DA0002FEF30E040E050E00E94221A20932704E9
:102DB00023EC35EF48E450E460913A0270913B0215
:102DC00080913C0290913D020E947E1A20E030E00A
:102DD00044E353E40E94821D23EC35EF48E450E4C1
:102DE0000E94811B0E94FA1B262F30E0AEEFB0E05C
:102DF0000E946E1A2FEF30E040E050E00E94221A4D
:102E00002093210423EC35EF48E450E460913E0226
:102E100070913F0280914002909141020E947E1A7F
:102E200020E030E044E353E40E94821D23EC35EFC0
:102E300048E450E40E94811B0E94FA1B262F30E0D8
:102E4000AEEFB0E00E946E1A2FEF30E040E050E0AD
:102E50000E94221A20931E0480913E01882309F4C7
:102E60009AC080912003811115C060E070E083E476
:102E700093E00E94060760E070E084E593E00E9422
:102E8000060760E070E085E693E00E94060760E0D8
:102E900070E07BC08091BA039091BB034091BC036A
:102EA0005091BD032091BE033091BF03841B950B4D
:102EB000820F931F2091290330912A03829FB00132
:102EC000839F700D929F700D112483E493E00E9404
:102ED00006078091BC039091BD034091BA035091C5
:102EE000BB032091BE033091BF0391958195910959
:102EF000841B950B821B930B20912B0330912C0389
:102F0000829FB001839F700D929F700D112484E504
:102F100093E00E9406072091BC033091BD034091CD
:102F2000BA035091BB038091BE039091BF03841BF1
:102F3000950B821B930B20912D0330912E03829FC2
:102F4000B001839F700D929F700D112485E693E070
:102F50000E9406078091BA039091BB034091BC0385
:102F60005091BD032091BE033091BF03841B950B8C
:102F7000821B930B20912F0330913003829FB0016D
:102F8000839F700D929F700D112486E793E00E943D
:102F9000060710923E01C0903A01D0903B01E090AC
:102FA0003C01F0903D018091C503882309F414C1D0
:102FB0008091200381110FC060E070E087E893E00A
:102FC0000E94060760E070E088E993E00E9406072F
:102FD00060E070E0FDC020E030E048E453E4609140
:102FE000C6037091C7038091C8039091C9030E94E2
:102FF000821D0E94F31B6135710514F060E570E0DD
:10300000072E000C880B990B0E942B1C2B013C01F6
:1030100020E030E048E453E46091CA037091CB03B0
:103020008091CC039091CD030E94821D0E94F31BDE
:103030006135710514F060E570E0072E000C880B17
:10304000990B0E942B1C68AB79AB8AAB9BAB809130
:10305000250390912603181619060CF4C9C0609137
:10306000210370912203809123039091240320E097
:1030700030E0A9010E94751D18160CF4B9C08091AA
:10308000C003882351F0C092C103D092C203E092E2
:10309000C303F092C4031092C003A12CB12C809101
:1030A000C0038111CAC06091C1037091C2038091B5
:1030B000C3039091C403A70196010E947D1A905802
:1030C00020E030E04CE552E40E94821D0E94F31B98
:1030D0008B01B501BB0C880B990B0E942B1C6B015B
:1030E0007C01B801110F880B990B0E942B1C4B011E
:1030F0005C01A30192010E947D1A6CAF7DAF8EAF7F
:103100009FAF009127031091280328A939A94AA944
:103110005BA90E947D1A000F111F000F111FF801FB
:10312000E05EFC4F2789308D418D528D0E94811BBE
:10313000A70196010E947E1A0E94F31B88E993E082
:103140000E940607009127031091280328A939A996
:103150004AA95BA96CAD7DAD8EAD9FAD0E947E1A74
:10316000000F111F000F111FF801E05EFC4F2789AF
:10317000308D418D528D0E94811BA70196010E94C6
:103180007E1A0E94F31B87E893E00E9406070091D5
:10319000270310912803A3019201C301B2010E94E9
:1031A0007E1AA50194010E947E1A000F111F000FC4
:1031B000111FF801E05EFC4F2789308D418D528D43
:1031C0000E94811BA70196010E947E1A0E94F31B98
:1031D00089EA93E00E9406070E94DE010C94BC0E6F
:1031E00041E050E050931F0340931E030C94E80EFF
:1031F00081E08093C0038090210390902203A090EF
:103200002303B09024036091250370912603072EB9
:10321000000C880B990B0E942B1C9B01AC01C50173
:10322000B4010E947D1A20E030E04EEF52E40E948B
:10323000821D0E94F31B5B0132CF00E010E049CFFA
:10324000FC01809161018C30A8F491E0980F90937B
:103250006101868790E0DC01AA0FBB1F8A0F9B1FCC
:10326000DC01AD59BE4F88EB9BE012969C938E9388
:10327000119702C08FEF8687F8941092B0001092D9
:10328000B1001092B2008FEF8093B3008091B10033
:1032900088608093B1008091B10085608093B10017
:1032A00084EA96E09783868384E195E0918780871E
:1032B0002681378180859185281B390B4AE0429F02
:1032C000C001439F900D112464E670E00E94721EBD
:1032D000758364838CED95E09183808380819181F7
:1032E000938382838FEF9FEF9587848780914F012F
:1032F0009091500193878287DC01AA0FBB1FAF5AC0
:10330000BE4FED93FC9301969093500180934F0133
:1033100078940895CF93DF93E9E6F2E01382128266
:1033200088EE93E0A0E0B0E084839583A683B78322
:1033300026E131E03183208325EC30E03587248796
:1033400024EC30E03787268720EC30E0318B208B6F
:1033500021EC30E0338B228B22EC30E0358B248B58
:1033600026EC30E0378B268B118E128E138E148E46
:10337000E6E0F3E01382128284839583A683B78309
:1033800088E291E0918380831092290410922804AE
:1033900080E090EAA0E8B4E48093180490931904C4
:1033A000A0931A04B0931B04E0E2F3E08FEF9FEFC9
:1033B0009287818794878387C1E0D0E0D687C587CD
:1033C000D08BC787D28BC18BD48BC38BD68BC58B4D
:1033D0008CE0E6E0F1E0A7E3B3E001900D928A957E
:1033E000E1F783E493E00E94201984E593E00E94D2
:1033F000201985E693E00E94201986E793E00E9459
:10340000201987E893E00E94201988E993E00E9440
:10341000201989EA93E00E9420191092C503E2E185
:10342000F3E01082118212821382148215821682B6
:1034300017821186108612861386D587C487DF917E
:10344000CF910895052E97FB1EF400940E94391A1F
:1034500057FD07D00E944C1A07FC03D04EF40C9481
:10346000391A50954095309521953F4F4F4F5F4FFA
:10347000089590958095709561957F4F8F4F9F4FE0
:1034800008950E946E1AA59F900DB49F900DA49F61
:10349000800D911D11240895A1E21A2EAA1BBB1BB9
:1034A000FD010DC0AA1FBB1FEE1FFF1FA217B30710
:1034B000E407F50720F0A21BB30BE40BF50B661F26
:1034C000771F881F991F1A9469F7609570958095EA
:1034D00090959B01AC01BD01CF010895A29FB00161
:1034E000B39FC001A39F700D811D1124911DB29F38
:1034F000700D811D1124911D08955058BB27AA27D6
:103500000E94951A0C94271D0E94EE1C38F00E9410
:10351000F51C20F039F49F3F19F426F40C94B01CEC
:103520000EF4E095E7FB0C94AA1CE92F0E944C1DB9
:1035300058F3BA17620773078407950720F079F4E8
:10354000A6F50C946E1D0EF4E0950B2EBA2FA02D4F
:103550000B01B90190010C01CA01A0011124FF2740
:10356000591B99F0593F50F4503E68F11A16F0403B
:10357000A22F232F342F4427585FF3CF469537953A
:103580002795A795F0405395C9F77EF41F16BA0BFF
:10359000620B730B840BBAF09150A1F0FF0FBB1FAD
:1035A000661F771F881FC2F70EC0BA0F621F731FF6
:1035B000841F48F4879577956795B795F7959E3F53
:1035C00008F0B0CF9395880F08F09927EE0F9795E4
:1035D000879508959F939F77EEE389379E0728F498
:1035E000EAE8F0E00E94DA1C0CC00E94661C9058C9
:1035F000A2EA2AED3FE049EC5FE30E94951A0E949F
:10360000271D0F9007FC905808950E94EE1C60F053
:1036100080E891E009F49EEF0E94F51C28F040E854
:1036200051E071F45EEF0CC00C94B01C0C946E1D54
:10363000E92FE0780E944C1D40F3092E052AB1F3D2
:10364000261737074807590738F00E2E07F8E025E8
:1036500069F0E025E0640AC0EF6307F8009407FA18
:10366000DB01B9019D01DC01CA01AD01EF930E94AC
:10367000981B0E94271D0E94481B5F91552339F01B
:103680002BED3FE049E450FD49EC0C947E1A08957F
:10369000DF93DD27B92FBF7740E85FE316161706E3
:1036A00048075B0718F4D92F0E947A1D9F938F93C8
:1036B0007F936F930E943D1EEEE9F0E00E94B31CE1
:1036C0000E94271D2F913F914F915F910E94951D60
:1036D000DD2351F09058A2EA2AED3FE049EC5FE388
:1036E000D0785D270E94951ADF910C94271D0E94C7
:1036F000861C08F481E008950E94FE1CE3950C945A
:10370000381D0E94951B0C94271D0E94F51C58F033
:103710000E94EE1C40F029F45F3F29F00C94AA1C93
:1037200051110C946F1D0C94B01C0E944C1D68F339
:103730009923B1F3552391F3951B550BBB27AA276A
:1037400062177307840738F09F5F5F4F220F331FA4
:10375000441FAA1FA9F335D00E2E3AF0E0E832D06C
:1037600091505040E695001CCAF72BD0FE2F29D06F
:10377000660F771F881FBB1F261737074807AB0741
:10378000B0E809F0BB0B802DBF01FF2793585F4FB6
:103790003AF09E3F510578F00C94AA1C0C946F1DD2
:1037A0005F3FE4F3983ED4F3869577956795B79598
:1037B000F7959F5FC9F7880F911D9695879597F9A3
:1037C0000895E1E0660F771F881FBB1F621773071C
:1037D0008407BA0720F0621B730B840BBA0BEE1F31
:1037E00088F7E09508950E94FA1B6894B1110C9433
:1037F0006F1D08950E94541D88F09F5798F0B92FAF
:103800009927B751B0F0E1F0660F771F881F991F15
:103810001AF0BA95C9F714C0B13091F00E946E1D2C
:10382000B1E008950C946E1D672F782F8827B85F3C
:1038300039F0B93FCCF3869577956795B395D9F76D
:103840003EF490958095709561957F4F8F4F9F4F77
:103850000895E89409C097FB3EF490958095709583
:1038600061957F4F8F4F9F4F9923A9F0F92F96E9CC
:10387000BB279395F695879577956795B795F11141
:10388000F8CFFAF4BB0F11F460FF1BC06F5F7F4FDE
:103890008F4F9F4F16C0882311F096E911C07723F0
:1038A00021F09EE8872F762F05C0662371F096E8F9
:1038B000862F70E060E02AF09A95660F771F881FC8
:1038C000DAF7880F9695879597F90895DF93CF9348
:1038D0001F930F938B01EC01EBECF0E00E94B31C03
:1038E0000E94271D9801AE018B01EC0160E070E0A1
:1038F00080E89FE30E947D1A0E94FD1D9801AE01A1
:103900000F911F91CF91DF910C94951D990F000895
:10391000550FAA0BE0E8FEEF16161706E807F907A1
:10392000C0F012161306E407F50798F0621B730B3C
:10393000840B950B39F40A2661F0232B242B252BBD
:1039400021F408950A2609F4A140A6958FEF811D60
:10395000811D089597F99F6780E870E060E0089501
:103960009FEF80EC0895DF93CF931F930F93FF9207
:10397000EF92DF927B018C01689406C0DA2EEF0192
:103980000E94951DFE01E894A591259135914591E0
:103990005591A6F3EF010E94951AFE019701A80127
:1039A000DA9469F7DF90EF90FF900F911F91CF911C
:1039B000DF9108959F938F937F936F93FF93EF937E
:1039C0009B01AC010E94821DEF91FF910E94B31CEC
:1039D0002F913F914F915F910C94821D00240A9486
:1039E0001616170618060906089500240A941216DA
:1039F00013061406050608950C94B01C0E94541D6D
:103A0000D8F3E894E0E0BB279F57F0F02AED3FE0C1
:103A100049EC06C0EE0FBB0F661F771F881F28F00A
:103A2000B23A62077307840728F0B25A620B730B2D
:103A3000840BE3959A9572F7803830F49A95BB0F12
:103A4000661F771F881FD2F790480C94431E092EDB
:103A50000394000C11F4882352F0BB0F40F4BF2BE9
:103A600011F460FF04C06F5F7F4F8F4F9F4F089529
:103A7000EF93E0FF07C0A2EA2AED3FE049EC5FEBDD
:103A80000E94951A0E94271D0F90039401FC9058E4
:103A9000E3EFF0E00C94DA1C57FD9058440F551FEB
:103AA00059F05F3F71F04795880F97FB991F61F0C0
:103AB0009F3F79F087950895121613061406551F37
:103AC000F2CF4695F1DF08C0161617061806991FA3
:103AD000F1CF86957105610508940895E894BB2798
:103AE00066277727CB0197F908950E94861C08F472
:103AF0008FEF08959B01AC0160E070E080E89FE3E8
:103B00000C94811B0E94951D0C94271D0E94EE1C95
:103B100038F00E94F51C20F0952311F00C94AA1C9B
:103B20000C94B01C11240C946F1D0E944C1D70F35A
:103B3000959FC1F3950F50E0551F629FF001729F52
:103B4000BB27F00DB11D639FAA27F00DB11DAA1F61
:103B5000649F6627B00DA11D661F829F2227B00DAE
:103B6000A11D621F739FB00DA11D621F839FA00D39
:103B7000611D221F749F3327A00D611D231F849F89
:103B8000600D211D822F762F6A2F11249F575040E0
:103B90009AF0F1F088234AF0EE0FFF1FBB1F661F5B
:103BA000771F881F91505040A9F79E3F510580F024
:103BB0000C94AA1C0C946F1D5F3FE4F3983ED4F361
:103BC000869577956795B795F795E7959F5FC1F7C8
:103BD000FE2B880F911D9695879597F908959F93D1
:103BE0000E94FE1C0F9007FCEE5F0C94381D19F428
:103BF00016F40C94B01C0C94411E0E94541DB8F392
:103C00009923C9F3B6F39F57550B87FF0E944F1EA8
:103C10000024A0E640EA900180585695979528F434
:103C2000805C660F771F881F20F02617370748072C
:103C300030F4621B730B840B202931294A2BA69583
:103C400017940794202531254A2758F7660F771FC8
:103C5000881F20F026173707480730F4620B730BD4
:103C6000840B200D311D411DA09581F7B901842FD2
:103C70009158880F9695879508959B01AC010C94F7
:103C8000821D9F3F31F0915020F48795779567957D
:103C9000B795880F911D9695879597F9089591503E
:103CA0005040660F771F881FD2F70895DB018F936E
:103CB0009F930E94411ABF91AF91A29F800D911DC9
:103CC000A39F900DB29F900D11240895991B79E048
:103CD00004C0991F961708F0961B881F7A95C9F79C
:103CE0008095089597FB072E16F4009407D077FD72
:103CF00009D00E94572007FC05D03EF4909581958D
:103D00009F4F0895709561957F4F0895EE0FFF1FA7
:103D10000590F491E02D0994DF93CF931F930F93B7
:103D20009A9DF02D219FF00D8B9DF00D8A9DE02D29
:103D3000F10D039FF00D029FE00DF11D4E9DE00D72
:103D4000F11D5E9DF00D4F9DF00D7F936F93BF921F
:103D5000AF925F934F93D5010E946E1A8B01AC0115
:103D6000D7010E946E1AEB01E80FF91FD6010E94DD
:103D7000DC1E2F913F91D6010E946E1AC60FD71FED
:103D8000E81FF91FAF91BF910E94DC1E2F913F9158
:103D90000E946E1AC60FD71FE81FF91FD6010E9496
:103DA0006E1AE60FF71F9801BE01CF0111240F9183
:103DB0001F91CF91DF9108950E946E1A460F571FF1
:103DC000C81FD91F08F43196089597FB57FF0C942C
:103DD000F51E9F938F930E94F51E6E1B7F0BAF9174
:103DE000BF918A0B9B0B0895E894DF93CF93FC015E
:103DF000DB010E946E1A7F936F93E9019A01AC0177
:103E0000BF93AF933F932F93DF010E946E1A26F466
:103E10006C1B7D0B820B930B9E01EB01FC010E943E
:103E2000DC1EAF91BF912F913F910E94DC1EBE011D
:103E3000CF01F9012F913F91CF91DF9108956894BF
:103E400001C0E894F92FF12B12F00C94531FA0E05D
:103E5000B0E0EDE2FFE10C94C51F092E059422F4B9
:103E60000E94AF1F112392F4F0E80F26FFEFE094B9
:103E7000F09400951095B094C094D094A194BF0A8A
:103E8000CF0ADF0AEF0AFF0A0F0B1F0B0E945E1F0B
:103E900007FC0E94AF1FCDB7DEB7ECE00C94E11F2A
:103EA000689401C0E8948F929F92CF93DF930E9411
:103EB0005E1FDF91CF919F908F9008958824992461
:103EC000F401E401B0E49F93AA279A158B049C04A3
:103ED000ED05FE05CF05D007A10798F4AD2FDC2F27
:103EE000CF2FFE2FE92D982C892E982F872F762FF4
:103EF000652F542F432F322F2227B85031F7BF910F
:103F000027C01B2EBF91BB27220F331F441F551FF5
:103F1000661F771F881F991F881C991CEE1FFF1FA3
:103F2000CC1FDD1FAA1FBB1F8A149B04EC05FD05D7
:103F3000CE05DF05A007B10748F08A189B08EC09F9
:103F4000FD09CE09DF09A00BB10B21601A94E1F63F
:103F50002EF49401AF01BE01CD01000C08956095CF
:103F600070958095909530954095509521953F4F4F
:103F70004F4F5F4F6F4F7F4F8F4F9F4F08952F923F
:103F80003F924F925F926F927F928F929F92AF92E9
:103F9000BF92CF92DF92EF92FF920F931F93CF9336
:103FA000DF93CDB7DEB7CA1BDB0B0FB6F894DEBFCD
:103FB0000FBECDBF09942A88398848885F846E84F3
:103FC0007D848C849B84AA84B984C884DF80EE803D
:103FD000FD800C811B81AA81B981CE0FD11D0FB646
:103FE000F894DEBF0FBECDBFED0108950F930830EA
:103FF00090F0982F872F762F652F542F432F322F35
:1040000022270850F4CF220F331F441F551F661F6D
:10401000771F881F991F0A95B2F70F91089597FB94
:1040200010F8169400080F93083098F00850232FCA
:10403000342F452F562F672F782F892F902DF4CFAF
:1040400005949795879577956795579547953795F3
:1040500027950A95AAF70F9108952A0D3B1D4C1D2F
:104060005D1D6E1D7F1D801F911F08950024A7FDFB
:1040700000942A0F301D401D501D601D701D801DB5
:10408000901D08952A193B094C095D096E097F09A5
:10409000800B910B08950024A7FD00942A1730058A
:1040A0004005500560057005800590050895AA1B20
:1040B000BB1B51E107C0AA1FBB1FA617B70710F013
:1040C000A61BB70B881F991F5A95A9F78095909545
:1040D000BC01CD0108950F931F93CF93DF938230DE
:1040E000910510F482E090E0E0913204F091330405
:1040F00020E030E0A0E0B0E0309719F1408151813C
:104100000281138148175907C8F08417950769F48D
:10411000109731F012960C93129713961C9327C0A8
:10412000009332041093330422C02115310519F095
:104130004217530718F49A01BD01EF01DF01F8019E
:10414000DBCF21153105F9F0281B390B243031055F
:1041500080F48A819B816115710521F0FB019383B5
:10416000828304C09093330480933204FE0132961C
:1041700044C0FE01E20FF31F819391932250310955
:10418000398328833AC02091300430913104232BA5
:1041900041F42091020130910301309331042093C6
:1041A000300420910001309101012115310541F4C5
:1041B0002DB73EB74091040150910501241B350BEA
:1041C000E0913004F0913104E217F307A0F42E1BC4
:1041D0003F0B2817390778F0AC014E5F5F4F24176B
:1041E000350748F04E0F5F1F509331044093300461
:1041F0008193919302C0E0E0F0E0CF01DF91CF9195
:104200001F910F910895CF93DF93009709F481C018
:10421000FC01329713821282A0913204B0913304D0
:10422000109781F420813181820F931F20913004F7
:10423000309131042817390751F5F0933104E09398
:10424000300467C0ED0120E030E0CE17DF0740F416
:104250004A815B819E0141155105F1F0EA01F5CFDC
:10426000D383C28340815181840F951FC817D9071A
:1042700059F488819981840F951F029691838083D8
:104280008A819B81938382832115310529F4F093E0
:104290003304E09332043DC0E901FB83EA83499192
:1042A0005991C40FD51FEC17FD0761F480819181EE
:1042B000840F951F0296E9019983888382819381F7
:1042C0009B838A83E0E0F0E012968D919C91139796
:1042D000009719F0FD01DC01F7CF8D919C911197AA
:1042E0009D012E5F3F4F820F931F2091300430912C
:1042F00031042817390769F4309729F410923304F0
:104300001092320402C013821282B0933104A0933F
:104310003004DF91CF91089581E090E0F8940C94FF
:064320009121F894FFCF8B
:104326000000340480000000003F6666A63F333379
:104336005340000000006F01DC000601BC0137019C
:10434600150129010000000075024802A5021C02A1
:0643560040022C021D02D2
:107E0000112484B714BE81FFF0D085E080938100F7
:107E100082E08093C00088E18093C10086E0809377
:107E2000C20080E18093C4008EE0C9D0259A86E02C
:107E300020E33CEF91E0309385002093840096BBD3
:107E4000B09BFECF1D9AA8958150A9F7CC24DD24C4
:107E500088248394B5E0AB2EA1E19A2EF3E0BF2EE7
:107E6000A2D0813461F49FD0082FAFD0023811F036
:107E7000013811F484E001C083E08DD089C08234E0
:107E800011F484E103C0853419F485E0A6D080C0E4
:107E9000853579F488D0E82EFF2485D0082F10E0AE
:107EA000102F00270E291F29000F111F8ED06801E7
:107EB0006FC0863521F484E090D080E0DECF843638
:107EC00009F040C070D06FD0082F6DD080E0C81688
:107ED00080E7D80618F4F601B7BEE895C0E0D1E017
:107EE00062D089930C17E1F7F0E0CF16F0E7DF06D8
:107EF00018F0F601B7BEE89568D007B600FCFDCFD4
:107F0000A601A0E0B1E02C9130E011968C91119780
:107F100090E0982F8827822B932B1296FA010C0160
:107F200087BEE89511244E5F5F4FF1E0A038BF0790
:107F300051F7F601A7BEE89507B600FCFDCF97BE46
:107F4000E89526C08437B1F42ED02DD0F82E2BD052
:107F50003CD0F601EF2C8F010F5F1F4F84911BD097
:107F6000EA94F801C1F70894C11CD11CFA94CF0C13
:107F7000D11C0EC0853739F428D08EE10CD085E9AC
:107F80000AD08FE07ACF813511F488E018D01DD067
:107F900080E101D065CF982F8091C00085FFFCCF94
:107FA0009093C60008958091C00087FFFCCF809118
:107FB000C00084FD01C0A8958091C6000895E0E648
:107FC000F0E098E1908380830895EDDF803219F02E
:107FD00088E0F5DFFFCF84E1DECF1F93182FE3DFCA
:107FE0001150E9F7F2DF1F91089580E0E8DFEE27F6
:047FF000FF270994CA
:027FFE00040479
:0400000300007E007B
:00000001FF
