:100000000C94B2000C94DA000C94DA000C94DA0030
:100010000C94DA000C94DA000C94DA000C94AB0621
:100020000C94DA000C94DA000C94DA000C9460055D
:100030000C94DA000C94DA000C94DA000C94DA00D8
:100040000C949A0E0C945E080C9430030C940A03E2
:100050000C94DA000C94DA000C94DA000C94DA00B8
:100060000C9462030C94DA00E308F008F9080B0919
:100070002009200920092009170914091A09200953
:1000800020092009BE08FE080B09036EDB363D9AE5
:100090009999993DABAAAA2A3E000000803F084AE0
:1000A000D73B3BCE016E84BCBFFDC12F3D6C74318C
:1000B0009ABD56833DDA3D00C77F11BED9E4BB4CE3
:1000C0003E916BAAAABE000000803F072C7AA5BA19
:1000D0006CC590DA3B9365FC8BBC53F810FD3C5625
:1000E00092834DBD879D3AB63DCBC9BF5BBE73DAE7
:1000F0000FC93F05A84CCDB2D44EB93836A9020C71
:1001000050B9918688083CA6AAAA2ABE00000080A1
:100110003F00000000080002010000030407000087
:1001200000000000000000000000250028002B0057
:1001300000000000240027002A0004040404040432
:100140000404020202020202030303030303010286
:100150000408102040800102040810200102040855
:100160001020D01911241FBECFEFD8E0DEBFCDBFC5
:1001700011E0A0E0B1E0EAE0F6E402C005900D92E3
:10018000A234B107D9F724E0A2E4B1E001C01D9286
:10019000A63CB207E1F710E0C2EBD0E004C0219723
:1001A000FE010E94E91FC13BD107C9F70E94E40E7E
:1001B0000C9403230C940000CF92DF92EF92FF92F5
:1001C0000F931F93CF93DF936C017A018B01C0E0F3
:1001D000D0E0CE15DF0581F0D8016D918D01D601FB
:1001E000ED91FC910190F081E02DC6010995892BDC
:1001F00011F02196EECF7E01C701DF91CF911F91C3
:100200000F91FF90EF90DF90CF900895FC01538DF8
:10021000448D252F30E0842F90E0821B930B5417E0
:1002200010F0CF96089501970895FC01918D828D6D
:10023000981761F0828DDF01A80FB11D5D968C913A
:10024000928D9F5F9F73928F90E008958FEF9FEF45
:100250000895FC01918D828D981731F0828DE80F01
:10026000F11D858D90E008958FEF9FEF0895FC01BB
:10027000918D228D892F90E0805C9F4F821B910988
:100280008F739927089587E492E00E94370121E057
:10029000892B09F420E0822F0895FC01848DDF0171
:1002A000A80FB11DA35ABF4F2C91848D90E00196E9
:1002B0008F739927848FA689B7892C93A089B189D8
:1002C0008C91837080648C93938D848D981306C079
:1002D0000288F389E02D80818F7D80830895EF92DD
:1002E000FF920F931F93CF93DF93EC0181E0888FF0
:1002F0009B8D8C8D981305C0E889F989808185FDD7
:1003000026C0F62E0B8D10E00F5F1F4F0F731127C5
:10031000E02E8C8DE8120CC00FB607FCFACFE889EE
:10032000F989808185FFF5CFCE010E944D01F1CF83
:100330008B8DFE01E80FF11DE35AFF4FF0829FB74E
:10034000F8940B8FEA89FB89808180620AC09FB78D
:10035000F894EE89FF896083E889F9898081837048
:10036000806480839FBF81E090E0DF91CF911F91F7
:100370000F91FF90EF900895CF93DF93EC01888D5C
:100380008823C9F0EA89FB89808185FD05C0A88999
:10039000B9898C9186FD0FC00FB607FCF5CF80811F
:1003A00085FFF2CFA889B9898C9185FFEDCFCE0169
:1003B0000E944D01E7CFDF91CF91089580E090E05A
:1003C000892B29F00E94430181110C9400000895AB
:1003D00085ED8093BC008091BC0084FDFCCF109221
:1003E0001302089540918501262F30E0240F311D1E
:1003F00021323105DCF4209113022430C9F4FC01D0
:1004000080E090E0861758F4309185012191DC015D
:10041000AB59BE4FA30FB11D2C930196F3CF809122
:100420008501680F6093850180E0089581E008955B
:1004300082E00895089508950895E091A9018091BA
:10044000A801E81730F4F0E0E353FE4F808190E01C
:1004500008958FEF9FEF08959091A9018091A801D1
:10046000981750F4E92FF0E0E353FE4F208130E07D
:100470009F5F9093A90102C02FEF3FEFC90108953C
:100480008091A80190E02091A901821B9109089513
:10049000CF92DF92EF92FF920F931F93CF93DF9350
:1004A0007C01CB018A012091AA01222389F0EB0172
:1004B0006B01C40ED51ECC15DD0569F06991D7011D
:1004C000ED91FC910190F081E02DC7010995F3CFEA
:1004D000642F0E94F201C801DF91CF911F910F910B
:1004E000FF90EF90DF90CF900895CF93DF931F920E
:1004F000CDB7DEB769832091AA012223D1F02091E4
:10050000CC01203240F021E030E0FC013383228333
:1005100080E090E015C08091AB01E82FF0E0E45559
:10052000FE4F998190838F5F8093AB018093CC01C4
:1005300005C061E0CE0101960E94F20181E090E0E9
:100540000F90DF91CF910895089580E090E0089595
:10055000FC0190819C3088F5818128E830E0281BDF
:10056000310987FD3395220F331F220F331F621786
:10057000730784F0828148E552E0481B510987FDEA
:100580005395440F551F440F551F9B01461757079E
:100590000CF49A0122503109220F331F4FB7F894FF
:1005A000892F90E0FC01EE0FFF1F8E0F9F1FFC01B3
:1005B000EC5EFD4F328321834FBF08950E94FE22DF
:1005C0000F931F93CF93DF938C01C0916101D09162
:1005D0006201209749F484E090E00E94DD2190932D
:1005E0006201809361010CC08A819B81009711F0A8
:1005F000EC01FACF84E090E00E94DD219B838A83A6
:10060000FC011183008313821282DF91CF911F912D
:100610000F9108951F920F920FB60F9211242F93EE
:100620003F934F935F936F937F938F939F93AF937A
:10063000BF93EF93FF9387E492E00E944D01FF91F7
:10064000EF91BF91AF919F918F917F916F915F914A
:100650004F913F912F910F900FBE0F901F901895C3
:100660001F920F920FB60F9211242F938F939F9387
:10067000EF93FF93E0915702F09158028081E0914F
:100680005D02F0915E0282FD12C090818091600255
:100690008F5F8F7320916102821751F0E0916002A9
:1006A000F0E0E95BFD4F958F8093600201C080818F
:1006B000FF91EF919F918F912F910F900FBE0F900F
:1006C0001F9018951F920F920FB60F9211242F931F
:1006D0003F934F935F936F937F938F939F93AF93CA
:1006E000BF93EF93FF938091B900887F803609F420
:1006F0009CC068F5883209F45BC090F4803109F43D
:1007000054C038F4882309F4F6C0883009F44DC089
:10071000F6C0883109F44CC0803209F45DC0EFC0E6
:10072000803409F468C048F4803309F455C0883334
:1007300009F0E5C080931102D8C0803509F44FC09C
:10074000883509F45DC0883409F0D9C0D6C088392D
:1007500009F4C7C0A8F4883709F467C038F48836AC
:1007600009F463C0803709F460C0C9C0883809F44F
:10077000B8C0803909F45FC0803809F0C0C05BC0E0
:10078000803B09F486C038F4803A09F466C0883AA0
:1007900009F47FC0B4C0803C09F4A7C0883C09F4C8
:1007A000A4C0883B09F48AC0AAC080910E0210C080
:1007B0009091100280910F02981770F5E09110024D
:1007C00081E08E0F80931002F0E0E351FE4F8081B4
:1007D0008093BB0085EC86C0809311028EC0E091AF
:1007E000100281E08E0F809310028091BB00F0E038
:1007F000E351FE4F80839091100280910F026EC0F2
:10080000E091100281E08E0F809310028091BB0076
:10081000F0E0E351FE4F80838091120281116DC0A0
:1008200081E080930D0284EA61C083E0809313022B
:100830001092A701CFCF8091A701803208F051C05C
:10084000E091A70181E08E0F8093A7018091BB000A
:10085000F0E0E957FE4F8083BDCF85EC8093BC006C
:10086000109213028091A701803230F4E091A70129
:10087000F0E0E957FE4F10826091A70170E0E0912F
:100880004201F091430187E891E009951092A70198
:1008900036C084E080931302109286011092850185
:1008A000E0914401F0914501099580918501811104
:1008B00005C081E08093850110926501E091860179
:1008C00081E08E0F80938601F0E0EB59FE4F80812E
:1008D0008093BB009091860180918501981708F460
:1008E00079CF85E88093BC000AC085EC8093BC007A
:1008F0001092130204C0109211020E94E801FF91AD
:10090000EF91BF91AF919F918F917F916F915F9187
:100910004F913F912F910F900FBE0F901F90189500
:100920004F925F926F927F928F929F92AF92BF92FF
:10093000CF92DF92EF92FF92CF93DF9300D000D05F
:1009400000D0CDB7DEB79E838D836A017B0120E0A6
:1009500030E0A901C701B6010E94DA1C87FF04C07C
:10096000C701B601905802C0C701B601ED81FE81F2
:1009700020893189428953890E94D81EED81FE81E8
:1009800018160CF055C02081318142815381C70176
:10099000B6010E94E51E2B013C01ED81FE8184849D
:1009A0009584A684B784208D318D428D538DC701E7
:1009B000B6010E94E01BA50194010E94E41CED8198
:1009C000FE8120853185428553850E94E51E69831D
:1009D0007A838B839C83A5019401C701B6010E9491
:1009E000E51EED81FE81248D358D468D578D0E944B
:1009F000E11BED81FE81648F758F868F978F248137
:100A00003581468157810E94E51E4B015C01298199
:100A10003A814B815C81C301B2010E94E11B9B01C1
:100A2000AC01C501B4010E94E11B4B015C0108C08F
:100A3000148E158E168E178E812C912CA12CB12C14
:100A4000ED81FE81C08ED18EE28EF38EC488D58872
:100A5000E688F78820E030E0A901C701B6010E94CE
:100A6000D81E1816B4F4A7019601B401C5010E945E
:100A7000D81E181664F0F7FAF094F7F8F094A7016E
:100A80009601B401C5010E94DA1C87FF02C046012D
:100A90005701B401C50126960FB6F894DEBF0FBE0C
:100AA000CDBFDF91CF91FF90EF90DF90CF90BF90BF
:100AB000AF909F908F907F906F905F904F90089530
:100AC0001F920F920FB60F9211242F933F934F93C3
:100AD0005F936F937F938F939F93AF93BF93EF93A6
:100AE000FF938091640187FF05C0109285001092EA
:100AF00084001BC020916401022E000C330B8091F6
:100B0000380290E02817390784F480916401082E98
:100B1000000C990BFC01EE0FFF1F8E0F9F1FFC01B5
:100B2000EC5EFD4F808186FD15C0809164018F5F72
:100B30008093640120916401022E000C330B80919C
:100B4000380290E028173907C4F4809164018C3092
:100B500064F113C080916401082E000C990BFC0114
:100B6000EE0FFF1F8E0F9F1FFC01EC5EFD4F80817B
:100B700060E08F730E94EE0DD8CF80918400909139
:100B80008500049680349C4918F480E49CE905C0F3
:100B900080918400909185000496909389008093C1
:100BA00088008FEF809364013BC0209184003091D6
:100BB000850080916401082E000C990BFC01EE0F5A
:100BC000FF1F8E0F9F1FFC01EC5EFD4F8181928104
:100BD000820F931F90938900809388008091640115
:100BE000082E000C990BFC01EE0FFF1F8E0F9F1FAC
:100BF000FC01EC5EFD4F808186FF12C08091640194
:100C0000082E000C990BFC01EE0FFF1F8E0F9F1F8B
:100C1000FC01EC5EFD4F808161E08F730E94EE0D60
:100C2000FF91EF91BF91AF919F918F917F916F91C4
:100C30005F914F913F912F910F900FBE0F901F909A
:100C40001895FF920F931F93CF93DF93EC01809140
:100C5000630181111DC0F8941092B0001092B10090
:100C60001092B2008FEF8093B3008091B100886042
:100C70008093B1008091B10085608093B100809134
:100C800070008D7F80937000789481E08093630181
:100C90006D877E878E01085F1F4F88858C3008F036
:100CA00050C0F62E862F0E94880A8885E82FF0E033
:100CB0009F01220F331FE20FF31FEC5EFD4F6F2DDC
:100CC0006F739081907CF92EF62AF08219861A862D
:100CD0006CE00E94C91F9CE0899FB001112440E094
:100CE00050E09B01240F351FF901EE0FFF1F2E0F5F
:100CF0003F1FF901EC5EFD4F908196FD16C04F5FDE
:100D00005F4F4C30510569F781110FC01092800080
:100D100082E0809381001092850010928400B19A45
:100D200080916F00826080936F00E885F0E0CF01D2
:100D3000880F991FE80FF91FEC5EFD4F80818064DA
:100D400080836CED75E0C801DF91CF911F910F9109
:100D5000FF900C94A8021F920F920FB60F921124CD
:100D60000F931F932F933F934F935F936F937F93B3
:100D70008F939F93AF93BF93CF93DF93EF93FF93A3
:100D800000916101109162010115110509F483C000
:100D9000D801ED91FC91EE0FFF1FE75CFD4FC08184
:100DA000D1812B853C8580915F0190916001281B4A
:100DB000390B888199814A815B81820F931F841B43
:100DC000950B181619063CF4888199814A815B813C
:100DD000820F931F06C08A819B8148815981420FEF
:100DE000531F841B950B4C815D81481759071CF0DC
:100DF0008A819B8121C0488159818A819B814817C2
:100E000059075CF44C815D8188819981240F351FDD
:100E1000280F391F3983288311C0488159818A815D
:100E20009B818417950754F44C815D818881998159
:100E3000240F351F821B930B998388838B859C8598
:100E40009093600180935F01888199818B3A9540EE
:100E50002CF0888199818E30964014F168817981D7
:100E6000CE0108960E94A802288139818A819B813F
:100E70002817390729F0D8018D919C910E94E00232
:100E8000F801828193819093620180936101C8018E
:100E90000E9475220AC0809170001092700005C0F7
:100EA0008CED95E099838883D9CFFF91EF91DF9105
:100EB000CF91BF91AF919F918F917F916F915F91F2
:100EC0004F913F912F911F910F910F900FBE0F9057
:100ED0001F9018950F931F93CF93DF93EC014D89CB
:100EE0005E89461757072CF48F8598899B838A83E0
:100EF00020C0EB89FC8909891A896E177F071CF4C9
:100F00001B830A8316C09B012E1B3F0BAF85B8893C
:100F1000A01BB10B0E94EF1F9A012E1B3F0B032E4B
:100F2000000C440B550B0E94851B200F311F3B8387
:100F30002A832B853C858A819B81820F931F9B830B
:100F40008A83288139818A819B812817390749F052
:100F50008E819F810E94E002809170008260809368
:100F60007000DF91CF911F910F9108950F931F9300
:100F7000CF93DF93EC014D895E89461757072CF418
:100F8000898D9A8D9C878B8720C0EB89FC890F897E
:100F9000188D6E177F071CF41C870B8716C09B01EA
:100FA0002E1B3F0BA98DBA8DA01BB10B0E94EF1F0A
:100FB0009A012E1B3F0B032E000C440B550B0E9475
:100FC000851B200F311F3C872B87DF91CF911F910D
:100FD0000F9108956536710514F064E670E077FFAF
:100FE00002C060E070E0660F771F660F771F2CED80
:100FF00035E0261B370BFC01328B218B64527A4F74
:10100000708B678708958F929F92AF92BF92EF92F5
:10101000FF920F931F93CF93DF93EC017B018B0122
:10102000000F111F000F111F0C0F1D1FF801668507
:101030007785808991890E94561D4B015C01CE0104
:101040008E5A9F4F0E94EA07B401CE01C7960E94B4
:10105000EA07B401CE0188579F4F0E94EA07B40106
:10106000CE0183599F4F0E94EA07F801628D738D6C
:10107000848D958D0E94561D4B015C01CE018D55CE
:101080009F4F0E94EA07B401CE0182549F4F0E94F5
:10109000EA07B401CE0187529F4F0E94EA07C35A64
:1010A000DE4FF982E882DF91CF911F910F91FF907F
:1010B000EF90BF90AF909F908F9008951F920F92E6
:1010C0000FB60F921124CF92DF92EF92FF920F93FF
:1010D0001F932F933F934F935F936F937F938F93C0
:1010E0009F93AF93BF93CF93DF93EF93FF938EB50F
:1010F00080935E0180915D01882349F08FEF8EBD62
:1011000010925D0110925C0110925B0118C0E09199
:101110005B01F0915C01EA5BFE4F80818EBD8091A6
:101120005B0190915C018430910521F481E0809312
:101130005D0105C0019690935C0180935B01E09195
:101140005E01E11104C081E080935A015EC1EF3F6E
:1011500021F481E08093590158C180915A0188237C
:1011600009F471C08E2F90E0FC013497E131F10554
:1011700008F066C0EC5CFF4F0C94E91F80915204AC
:10118000882379F0109225031092240310922703EC
:1011900010922603109229031092280310925204F1
:1011A0004FC060914B0170914C0180914D01909125
:1011B0004E010E94561D21E02093520470932C038F
:1011C00060932B033DC08DEC9CECACE4BFE38093BB
:1011D000570490935804A0935904B0935A0430C014
:1011E00010925704109258041092590410925A0405
:1011F00027C08AE999E9A9E1BFE304C080E090E053
:10120000A0E8BFE38093530490935404A093550443
:10121000B093560415C010925304109254041092C7
:101220005504109256040CC062E070E005C061E005
:1012300070E002C060E070E08EEF92E00E94030870
:1012400010925A01DEC080915901882309F4DDC053
:10125000C0915701D0915801C130D10509F449C05E
:10126000C230D10509F485C0209709F0C1C0F0E073
:101270008F010F571109B801012E000C880B990B33
:101280000E948E1D6B017C0160912D0370912E03D5
:1012900080912F0390913003A70196010E94D81EE0
:1012A00018164CF460912D0370912E0380912F033A
:1012B0009091300316C06091310370913203809198
:1012C000330390913403A70196010E94DA1C87FF33
:1012D0000BC0609131037091320380913303909180
:1012E00034030E94561D8B011093250300932403A1
:1012F0007FC0F0E08F010F571109B801012E000CDB
:10130000880B990B0E948E1D6B017C0120912D038F
:1013100030912E0340912F03509130030E94DA1C2C
:1013200087FF09C060912D0370912E0380912F03D8
:101330009091300316C020913103309132034091D7
:10134000330350913403C701B6010E94D81E18160A
:101350005CF460913103709132038091330390917A
:1013600034030E94561D8B0110932703009326031C
:101370003FC0F0E08F010F571109B801012E000C9A
:10138000880B990B0E948E1D6B017C0120912D030F
:1013900030912E0340912F03509130030E94DA1CAC
:1013A00087FF09C060912D0370912E0380912F0358
:1013B0009091300316C02091310330913203409157
:1013C000330350913403C701B6010E94D81E18168A
:1013D0005CF46091310370913203809133039091FA
:1013E00034030E94561D8B01109329030093280398
:1013F0002196D0935801C0935701239734F010924F
:1014000059011092580110925701FF91EF91DF910D
:10141000CF91BF91AF919F918F917F916F915F918C
:101420004F913F912F911F910F91FF90EF90DF907F
:10143000CF900F900FBE0F901F901895CF93DF9312
:10144000EC01809138028C3098F491E0980F9093E1
:101450003802888790E0FC01EE0FFF1F8E0F9F1F60
:10146000FC01EC5EFD4F88EB9BE09283818302C020
:101470008FEF88877C8B6B8B5E8B4D8BC901203106
:10148000310514F08FE090E097FF02C080E090E01B
:10149000880F991F880F991F22273327281B390B84
:1014A000388F2F8B9A8F898F1C861B866EE170E098
:1014B000CE010E94EA078F85988929893A89821B83
:1014C000930B64E670E00E94D51F7D836C838CEDE6
:1014D00095E099838883888199819B838A838FEFA4
:1014E0009FEF9E878D878091B7049091B8049F836A
:1014F0008E83FC01EE0FFF1FE75CFD4FD183C0839D
:1015000001969093B8048093B704DF91CF9108952A
:1015100090E0FC01E25BFE4F2491FC01E65CFE4F93
:101520008491882399F090E0880F991FFC01E05D79
:10153000FE4FA591B491FC01EA5DFE4F8591949117
:101540008FB7F894EC91E22BEC938FBF08959091B4
:1015500013029111FCCF91E0909313024093120279
:101560002FEF2093110210921002260F20930F02EA
:1015700090930E0290910E02880F892B80930E0299
:1015800080910D02813061F410920D0280910E0263
:101590008093BB008091BC0083FDF8CF85EC01C037
:1015A00085EE8093BC00809113028130E1F380913D
:1015B0001002861710F460911002ADEEB1E0EDEC70
:1015C000F1E080E0861721F09D9191938F5FFACF33
:1015D0000895282F3091CC01313208F04AC0809113
:1015E00013028111FCCF9091B60442E040931302A4
:1015F000209312022FEF20931102109210023093C9
:101600000F02ECEAF1E0ADEEB1E020E0321721F09C
:1016100041914D932F5FFACF10920E0220910E024E
:10162000990F922B90930E0290910D02913061F4DC
:1016300010920D0290910E029093BB009091BC000D
:1016400093FDF8CF95EC01C095EE9093BC0090917E
:1016500013029230E1F3909111029F3F79F0809153
:101660001102803241F080911102803331F084E028
:1016700005C081E003C082E001C083E01092AB01AD
:101680001092CC011092AA01089591E09093AA01C2
:101690008093B6041092AB011092CC010895813270
:1016A00008F080E241E0682F86E70E94A70A1092C6
:1016B000A9018093A801089581E00C94E90A682F9C
:1016C00084EE92E00C9475024F925F926F927F923B
:1016D0008F929F92AF92BF92CF92DF92EF92FF9242
:1016E000CF93DF93CDB7DEB7A4970FB6F894DEBFE4
:1016F0000FBECDBFC090AD04D090AE04E090AF045B
:10170000F090B00480919D0490919E04A0919F045C
:10171000B091A004BC01CD019058A70196010E9490
:10172000E51E2B013C018091A1049091A204A0919F
:10173000A304B091A404BC01CD019058A701960167
:101740000E94E51E4B015C012091A5043091A60486
:101750004091A7045091A804C701B6010E94E51E5C
:101760006B017C01C301B2010E94DF1C6D837E838B
:101770008F839887C501B4010E94DF1C69877A872F
:101780008B879C87C701B6010E94DF1C6D877E870F
:101790008F87988B8091890490918A04A0918B0403
:1017A000B0918C04898B9A8BAB8BBC8BBC01CD0127
:1017B0000E94DF1C6D8B7E8B8F8B988F80918504B0
:1017C00090918604A0918704B0918804898F9A8FA4
:1017D000AB8FBC8FBC01CD010E94DF1C69837A8373
:1017E0008B839C83C301B2010E94521F6D8F7E8F39
:1017F0008F8F98A3C501B4010E94521F69A37AA3D9
:101800008BA39CA3C701B6010E94521F2B013C0170
:1018100069897A898B899C890E94521F698B7A8B8E
:101820008B8B9C8B698D7A8D8B8D9C8D0E94521F2A
:101830006B017C0129813A814B815C816D857E85BC
:101840008F8598890E94E51E29893A894B895C8990
:101850000E94E51E4B015C01A7019601C301B20184
:101860000E94E51E9B01AC01C501B4010E94E11B71
:101870004B015C01A70196016D857E858F85988956
:101880000E94E51E6B017C01A301920169817A81AE
:101890008B819C810E94E51E29893A894B895C894C
:1018A0000E94E51E9B01AC01C701B6010E94E01B2E
:1018B0006D877E878F87988B9B01AC0169A17AA188
:1018C0008BA19CA10E94E51E6B017C0129813A81BC
:1018D0004B815C8169857A858B859C850E94E51E9C
:1018E0002D893E894F89588D0E94E51E9B01AC01D0
:1018F000C701B6010E94E01B2B013C016D8D7E8D5E
:101900008F8D98A19058A50194010E94E51E6B014E
:101910007C01A30192016D817E818F8198850E9457
:10192000E51E9B01AC01C701B6010E94E01B6B01E3
:101930007C01A50194016D817E818F8198850E9433
:10194000E51E4B015C01A30192016D8D7E8D8F8D93
:1019500098A10E94E51E9B01AC01C501B4010E9443
:10196000E01B4B015C01A70196010E947B1C6D836B
:101970007E838F8398876093890470938A04809311
:101980008B0490938C04A5019401C501B4010E94BD
:10199000E51E4B015C01A7019601C701B6010E943B
:1019A000E51E9B01AC01C501B4010E94E11B6B0166
:1019B0007C0120E030E0A9010E94D81E181624F016
:1019C000F7FAF094F7F8F094C701B6010E94601F8F
:1019D0006B017C0129813A814B815C816D897E8913
:1019E0008F89988D0E94E51E29A13AA14BA15CA187
:1019F0000E94E51E4B015C012D853E854F8558896F
:101A000069857A858B859C850E94E51E9B01AC01CA
:101A1000C501B4010E94E11BA70196010E947B1C35
:101A200069877A878B879C87609385047093860487
:101A300080938704909388048091910490919204FC
:101A4000A0919304B091940489839A83AB83BC835F
:101A5000409095045090960460909704709098047C
:101A60008090990490909A04A0909B04B0909C045C
:101A70009C01AD01BC01CD010E94E51E6B017C0102
:101A8000A3019201C301B2010E94E51E9B01AC01BA
:101A9000C701B6010E94E11B6B017C01A501940105
:101AA000C501B4010E94E51E9B01AC01C701B6014E
:101AB0000E94E11B6B017C0120E030E0A9010E9443
:101AC000D81E181624F0F7FAF094F7F8F094C7012E
:101AD000B6010E94601F6B017C0126E636E646E6F1
:101AE0005FE30E94D81E18160CF063C02DEC3CEC8E
:101AF0004CE85FE3C701B6010E94DA1C87FF59C0BA
:101B0000A5019401C301B2010E947B1C2B013C0181
:101B100069817A818B819C819058A70196010E94EE
:101B2000E41C0E944D1C6B017C012DEC3CEC4CE450
:101B30005FE36D817E818F8198850E94E51E4B0158
:101B40005C012DEC3CEC4CE45EE3C301B2010E946D
:101B5000E51E9B01AC01C501B4010E94E11B60932D
:101B6000890470938A0480938B0490938C042DECE9
:101B70003CEC4CE45FE369857A858B859C850E940B
:101B8000E51E4B015C012DEC3CEC4CE45EE3C7012F
:101B9000B6010E94E51E9B01AC01C501B4010E9483
:101BA000E11B60938504709386048093870490936F
:101BB0008804A4960FB6F894DEBF0FBECDBFDF91A8
:101BC000CF91FF90EF90DF90CF90BF90AF909F901C
:101BD0008F907F906F905F904F90089590E0FC0100
:101BE000EE5EFE4F2491FC01E25BFE4F3491FC015E
:101BF000E65CFE4FE491EE2309F43CC0222339F168
:101C0000233091F038F42130A9F0223001F584B569
:101C10008F7D12C0273091F02830A1F02430B9F424
:101C2000809180008F7D03C0809180008F778093AA
:101C300080000DC084B58F7784BD09C08091B0004D
:101C40008F7703C08091B0008F7D8093B000F0E06B
:101C5000EE0FFF1FEA5DFE4FA591B4919FB7F89478
:101C6000611104C08C913095382302C0EC913E2B59
:101C70003C939FBF08958F929F92AF92BF92CF9255
:101C8000DF92EF92FF926B017C010E94750E4B0177
:101C90005C01C114D104E104F104F1F00E94750E5D
:101CA000DC01CB0188199909AA09BB09883E934038
:101CB000A105B10570F321E0C21AD108E108F108CD
:101CC00088EE880E83E0981EA11CB11CC114D104BB
:101CD000E104F10419F7DDCFFF90EF90DF90CF9092
:101CE000BF90AF909F908F9008953FB7F8948091E8
:101CF000BE049091BF04A091C004B091C10426B568
:101D0000A89B05C02F3F19F00196A11DB11D3FBF33
:101D1000BA2FA92F982F8827820F911DA11DB11DC1
:101D2000BC01CD0142E0660F771F881F991F4A95BD
:101D3000D1F708951F920F920FB60F9211242F938F
:101D40003F938F939F93AF93BF938091B9049091EA
:101D5000BA04A091BB04B091BC043091BD0423E04F
:101D6000230F2D3720F40196A11DB11D05C026E8D3
:101D7000230F0296A11DB11D2093BD048093B904C9
:101D80009093BA04A093BB04B093BC048091BE04AA
:101D90009091BF04A091C004B091C1040196A11D0F
:101DA000B11D8093BE049093BF04A093C004B09370
:101DB000C104BF91AF919F918F913F912F910F904F
:101DC0000FBE0F901F901895CF93DF93CDB7DEB75E
:101DD000E3970FB6F894DEBF0FBECDBF789484B5FD
:101DE000826084BD84B5816084BD85B5826085BD17
:101DF00085B5816085BD80916E00816080936E00A5
:101E00001092810080918100826080938100809196
:101E10008100816080938100809180008160809347
:101E200080008091B10084608093B1008091B00007
:101E300081608093B00080917A00846080937A0002
:101E400080917A00826080937A0080917A0081602C
:101E500080937A0080917A00806880937A00109253
:101E6000C100E0915702F091580282E08083E09136
:101E70005302F09154021082E0915502F091560203
:101E80008FEC808310925F02E0915B02F0915C0224
:101E900086E08083E0915902F0915A02808180614E
:101EA0008083E0915902F0915A028081886080839A
:101EB000E0915902F0915A02808180688083E0911C
:101EC0005902F0915A0280818F7D80831092A9017E
:101ED0001092A8011092AB011092CC011092130243
:101EE000EE24E394E092120210920D0261E082E18E
:101EF0000E94EE0D61E083E10E94EE0D8091B90039
:101F00008E7F8093B9008091B9008D7F8093B90056
:101F100088E48093B80085E48093BC008AE192E075
:101F200090934501809344018BE192E090934301AB
:101F30008093420188E60E94450B8BE690E00E9468
:101F40005F0B80E090E00E945F0B81E00E94E90A55
:101F500068EE73E080E090E00E943B0EE092800427
:101F600080E090E4A9E7B4E4809381049093820434
:101F7000A0938304B093840486E70E94450B8EE10E
:101F800090E00E945F0B0E945C0B6AE070E080E0D2
:101F900090E00E943B0E10E6E12E14E0F12E20EAC4
:101FA00030E03A83298386E70E94450B89819A8134
:101FB0000E945F0B0E945C0B41E062E086E70E949A
:101FC000A70A1092A9018093A80184EE92E00E94D2
:101FD0002C02D82E84EE92E00E942C021D2D00E0EF
:101FE000802B912BD7018D939D937D01E981FA81FF
:101FF0003296FA83E983EE3AF105A9F680916004FE
:10200000909161049F70909361048093600410929A
:102010006F0410926E0468EE73E080E090E00E941E
:102020003B0E68E070E081EA93E00E94210667E0E1
:1020300070E08CEB93E00E94210664E070E087ED95
:1020400093E00E94210665E070E080E593E00E9445
:10205000210666E070E085E393E00E94210663E0DC
:1020600070E086E893E00E94210662E070E08BE673
:1020700093E00E94210610922503109224031092EF
:10208000270310922603109229031092280310921E
:10209000520410922A0360E070E08EEF92E00E94FA
:1020A000030881E080935D0468EB7BE080E090E0D2
:1020B0000E943B0EF8948CE00E94880A8CB58064E4
:1020C0008CBD8FEF8EBD8CB580688CBD78948CE014
:1020D00090E0A0E0B0E08093F0029093F102A09332
:1020E000F202B093F3022FB7F8948091B904909163
:1020F000BA04A091BB04B091BC042FBF8093F4023A
:102100009093F502A093F602B093F7021092FD02AD
:102110001092FC021092FA021092FB028091FC02D3
:102120009091FD02892B31F52FB7F8948091B90475
:102130009091BA04A091BB04B091BC042FBF409110
:10214000F4025091F5026091F6027091F702841B3F
:10215000950BA60BB70B4091F0025091F1026091E4
:10216000F2027091F30284179507A607B70710F0E3
:102170000C948B198091FC029091FD02019711F053
:102180000C9487192FB7F8948091B9049091BA04F0
:10219000A091BB04B091BC042FBF8093F402909334
:1021A000F502A093F602B093F7021092FD0210928E
:1021B000FC021092FA021092FB02F1E4F0937C0010
:1021C00080917A00806480937A0080917A0086FD05
:1021D000FCCF609178008091790070E0782B072E19
:1021E000000C880B990B0E948E1D2AEA31EF42E009
:1021F00050E40E94E41C6093530170935401809357
:102200005501909356010E94750E00914F01109157
:1022100050012091510130915201DC01CB01801B12
:10222000910BA20BB30B81329E44A105B10560F066
:102230000E94750E60934F0170935001809351017D
:102240009093520181E001C080E020915E043091C2
:102250005F04232BA9F4882399F086E70E94450B9D
:102260008AE490E00E945F0B0E945C0B80915E0408
:1022700090915F04019690935F0480935E0480E0E8
:1022800020915E0430915F042130310509F06BC06C
:10229000882309F468C086E70E94450B80E090E03F
:1022A0000E945F0B0E945C0B83E090E00E944F0B4A
:1022B00010927004109271041092720410927304C0
:1022C00084EE92E00E942C026C01990FEE08FF0848
:1022D000C0927004D0927104E0927204F092730480
:1022E00084EE92E00E942C02FE2CED2CDC2CCC24FF
:1022F000092E000CAA0BBB0BC82AD92AEA2AFB2AF2
:10230000C0927004D0927104E0927204F09273044F
:1023100084EE92E00E942C02FE2CED2CDC2CCC24CE
:10232000092E000CAA0BBB0BC82AD92AEA2AFB2AC1
:10233000C0927004D0927104E0927204F09273041F
:1023400086E70E94450B8AE590E00E945F0B0E94A1
:102350005C0B80915E0490915F04019690935F0402
:1023600080935E0480E020915E0430915F0422300F
:10237000310509F05EC4882309F45BC486E70E9436
:10238000450B80E090E00E945F0B0E945C0B83E0B5
:1023900090E00E944F0B10927404109275041092FA
:1023A00076041092770484EE92E00E942C026C0175
:1023B000990FEE08FF08C0927404D0927504E09261
:1023C0007604F092770484EE92E00E942C02FE2CB8
:1023D000ED2CDC2CCC24092E000CAA0BBB0BC82A3C
:1023E000D92AEA2AFB2AC0927404D0927504E0929A
:1023F0007604F092770484EE92E00E942C02FE2C88
:10240000ED2CDC2CCC24092E000CAA0BBB0BC82A0B
:10241000D92AEA2AFB2AC0927404D0927504E09269
:102420007604F092770420916A0430916B04C9011C
:10243000A0E0B0E0BA2FA92F982F88271601270116
:10244000281A390A4A0A5B0A109180041BA3E091FA
:102450006604F0916704E0906204F0906304FA82ED
:10246000E9820091700410917104209172043091FE
:1024700073040F8F18A329A33AA31BA1113009F0ED
:102480008CC0970140E050E060E070E080E090E0B8
:1024900000E10E94682129833D873A014B01898B25
:1024A0009987BF0180E090E0A20191010E9457202E
:1024B000F22E032F142FB52FF62FE72FD82EE92E4B
:1024C000A0E00E94BD215CF4AFE70E94A821F22E9B
:1024D000032F142FB52FF62FE72FD82EE92E2F2DEF
:1024E000302F412F5B2F6F2F7E2F8D2D9E2D07E0DC
:1024F0000E94812159016A017B018C0129813D855E
:10250000A301B401898999850E949F212D8B3E8B5F
:102510004F8B588F698F7A8F8B8F9C8FE0916804D7
:10252000F0916904209164043091650440E050E02A
:1025300060E070E080E090E001E10E946821298382
:102540003D873A014B01898B9987BF0180E090E07C
:10255000A20191010E945720F22E032F142FB52FB4
:10256000F62FE72FD82EE92EA0E00E94BD215CF4C3
:10257000AFE30E94A821F22E032F142FB52FF62FC0
:10258000E72FD82EE92E2F2D302F412F5B2F6F2FC5
:102590007E2F8D2D9E2D06E092C0BF0180E090E041
:1025A000A20191010E945720F22E032F142FB52F64
:1025B000F62FE72FD82EE92EA0E00E94BD2184F44B
:1025C00021503F4F4F4F5F4F6F4F7F4F8F4F9F4F68
:1025D000F22E032F142FB52FF62FE72FD82EE92E2A
:1025E0002F2D302F412F5B2F6F2F7E2F8D2D9E2D66
:1025F00008E00E94812139014A01B62FA72FF82F48
:10260000E92F29813A81C12CD12CA60160E070E02C
:1026100080E090E00FE00E94682159016A017B018F
:102620008C019301A4016B2F7A2F8F2F9E2F0E9474
:102630009F212D8B3E8B4F8B588F698F7A8F8B8F7D
:102640009C8FE0916804F0916904209164043091BA
:10265000650440E050E060E070E080E090E000E180
:102660000E94682129833D873A014B01898B998714
:10267000BF0180E090E0A20191010E945720F22E5C
:10268000032F142FB52FF62FE72FD82EE92EA0E019
:102690000E94BD215CF4AFE70E94A821F22E032F17
:1026A000142FB52FF62FE72FD82EE92E2F2D302FF0
:1026B000412F5B2F6F2F7E2F8D2D9E2D07E00E94C7
:1026C000812159016A017B018C0129813D85A3018A
:1026D000B401898999850E949F212AAB3BAB498B24
:1026E0005A8B6B8B7C8B8D8F9E8FEF8CF8A009A102
:1026F0001AA1A801970160E070E0CB0129833A8319
:102700004B835C836D837E838F83988792018101E5
:10271000330F000B102F980109831A832B833C83FE
:1027200060916C0470916D0480E090E0A2019101D1
:102730000E945720F22E032F142FB52FF62FE72FCC
:10274000D82EE92EA0E00E94BD2184F42150310949
:1027500040485F4F6F4F7F4F8F4F9F4FF22E032F99
:10276000142FB52FF62FE72FD82EE92E2F2D302F2F
:10277000412F5B2F6F2F7E2F8D2D9E2D07E10E9405
:10278000812149015A01A50194012053384F4F4F2F
:102790005F4F2D873E874F87588B3BA1313009F023
:1027A0007AC04D855E856F857889403D57406105CB
:1027B00071050CF030C1C201B1012BE030E040E006
:1027C00050E00E94572051016201E980FE2C0E2D3D
:1027D0001E2D0E94FE1FF22E032F142FB52FF62F51
:1027E000E72FD82EE92EA0E00E94BD2184F42150CD
:1027F000310941095109684F7F4F8F4F9F4FF22E8A
:10280000032F142FB52FF62FE72FD82EE92E2F2DBB
:10281000302F412F5B2F6F2F7E2F8D2D9E2D03E2AA
:102820000E94812129833A834B835C83AFE1B0E02E
:102830008D849E84AF84B88890ED891A97E0990AB8
:10284000A108B108A50194010E94A41B9B01AC0141
:10285000C501B4010E94B91F7B018C0143E01595AD
:102860000795F794E7944A95D1F7AFE3B0E0A50157
:1028700094010E94A41B9B01AC01C501B4010E94FC
:10288000B91F2B013C0155E0759467945794479408
:102890005A95D1F7CAC00D851E852F853889003D10
:1028A0001740210531050CF0A2C0C201B10123E09F
:1028B00030E040E050E00E94572051016201E98081
:1028C000FE2C0E2D1E2D0E94FE1FF22E032F142F04
:1028D000B52FF62FE72FD82EE92EA0E00E94BD21BC
:1028E00084F421503109410951096E4F7F4F8F4FB8
:1028F0009F4FF22E032F142FB52FF62FE72FD82E30
:10290000E92E2F2D302F412F5B2F6F2F7E2F8D2DF6
:102910009E2D01E20E94812129833A834B835C83AF
:10292000A3E0B0E08D849E84AF84B88850ED851A12
:1029300057E0950AA108B108A50194010E94A41BC3
:102940009B01AC01C501B4010E94B91F7B018C0140
:1029500015950795F794E794A5E0B0E0A5019401DB
:102960000E94A41B9B01AC01C501B4010E94B91FC8
:102970002B013C0133E075946794579447943A9542
:10298000D1F76D857E858F859889613CA9EF7A079F
:10299000AFEF8A079A070CF048C0A7E0B0E04B0100
:1029A0005C01ECED8E0EE5E09E1EA11CB11CA501A4
:1029B00094010E94A41B9B01AC01C501B4010E94BB
:1029C000B91FE60EF71E081F191FA501940192E01A
:1029D000220F331F441F551F9A95D1F7C501B4012B
:1029E0000E94B91F460E571E681E791E1EC0A50103
:1029F0009401C501B4010E94B91F7B018C0184E0E0
:102A000015950795F794E7948A95D1F719821A825C
:102A10001B821C8207C019821A821B821C82E12C35
:102A2000F12C8701412C512C3201A8019701550F3F
:102A3000220B322FA90129873A874B875C872AA965
:102A40003BA949895A896B897C898D8D9E8D570157
:102A50006801E984FE2C0E2D1E2D0E94B42149012F
:102A6000498B5A8B362E272E8B8B9C8BB301A20160
:102A7000770F440B542FBA0149875A876B877C879D
:102A80002D893E894F89588D698D7A8D8B8D9C8DCE
:102A900052016301E984FE2C0E2D1E2D0E94B421EB
:102AA00059016A017B018C018D859E85AF85B889AE
:102AB00029813A814B815C81821B930BA40BB50B5E
:102AC0003BA18093780490937904A0937A04B09307
:102AD0007B04313009F04EC06F8D78A189A19AA195
:102AE000AB01BC0180E090E0DC0149835A836B8339
:102AF0007C838D839E83AF83B8879A01AB0160E0AE
:102B000070E080E090E00E94FE1FF22E032F142F51
:102B1000B52FF62FE72FD82EE92EA0E00E94BD2179
:102B200084F421503109404E5F4F6F4F7F4F8F4FDC
:102B30009F4FF22E032F142FB52FF62FE72FD82EED
:102B4000E92E2F2D302F412F5B2F6F2F7E2F8D2DB4
:102B50009E2D05E10E9481215401C988DA88E32C69
:102B6000F22C0B891C890E94B421A12CB12CF2E318
:102B7000CF2E4CC04F8D58A169A17AA19A01AB010B
:102B800060E070E0CB0129833A834B835C836D83E3
:102B90007E838F83988760E070E080E090E00E9401
:102BA000FE1FF22E032F142FB52FF62FE72FD82E4E
:102BB000E92EA0E00E94BD2184F421503109404E4D
:102BC0005F4F6F4F7F4F8F4F9F4FF22E032F142F6A
:102BD000B52FF62FE72FD82EE92E2F2D302F412F8E
:102BE0005B2F6F2F7E2F8D2D9E2D05E10E94812161
:102BF0005401C988DA88E32CF22C0B891C890E94C5
:102C0000B421A12CE0E4BE2ECC24C394D12CE12C21
:102C1000F12C00E010E00E94932020937C0430937C
:102C20007D0440937E0450937F0410925F041092C1
:102C30005E0460917C0470917D0480917E0490918B
:102C40007F040E948E1D60934B0170934C01809312
:102C50004D0190934E0188E60E94450B8BE390E076
:102C60000E945F0B80E00E94E90A41E06EE088E686
:102C70000E94A70A1092A9018093A80184EE92E015
:102C80000E942C02898384EE92E00E942C02E9804B
:102C9000EDA21CA20CA11DA1802B912BBC01990FB0
:102CA000880B990B0E948E1D60939104709392047F
:102CB000809393049093940484EE92E00E942C02FB
:102CC000898384EE92E00E942C0219811FA31EA228
:102CD0002EA13FA1822B932BBC01990F880B990B3E
:102CE0000E948E1D609395047093960480939704C0
:102CF0009093980484EE92E00E942C02898384EEE3
:102D000092E00E942C02E980E9A618A608A519A560
:102D1000802B912BBC01990F880B990B0E948E1D63
:102D20006093990470939A0480939B0490939C04FD
:102D300084EE92E00E942C02898384EE92E00E944D
:102D40002C0219811BA71AA62AA53BA5822B932B1F
:102D5000BC01990F880B990B0E948E1D60938D0406
:102D600070938E0480938F049093900484EE92E08D
:102D70000E942C02898384EE92E00E942C02E9805A
:102D8000EDA61CA60CA51DA5802B912BBC01990FAF
:102D9000880B990B0E948E1D60939D0470939E0476
:102DA00080939F049093A00484EE92E00E942C02F2
:102DB000898384EE92E00E942C0219811FA71EA62F
:102DC0002EA53FA5822B932BBC01990F880B990B45
:102DD0000E948E1D6093A1047093A2048093A304AB
:102DE0009093A40484EE92E00E942C02182F84EEAB
:102DF00092E00E942C029A83898320E030E04AEA24
:102E000053E460918D0470918E0480918F049091B1
:102E100090040E94E41C28EB3EE142E152E40E944F
:102E2000E11B60938D0470938E0480938F049093C4
:102E3000900423E333EF48EA53E4609191047091E6
:102E4000920480919304909194040E94E01B905806
:102E50002AE13CEA42E856E40E94E41C60939104B3
:102E600070939204809393049093940422EB3DE832
:102E70004FEC53E46091950470919604809197040F
:102E8000909198040E94E01B90582DE934EF4CE794
:102E900056E40E94E41C609395047093960480931A
:102EA00097049093980429EC3EE84FEC54E4609129
:102EB000990470919A0480919B0490919C040E94C3
:102EC000E01B24E137EC45E856E40E94E41C6093E3
:102ED000990470939A0480939B0490939C0429E82E
:102EE00031EA4EEA53E460919D0470919E04809112
:102EF0009F049091A0040E94E01B905820E030E4D1
:102F00004CE155E40E94E41C60939D0470939E0480
:102F100080939F049093A0042EE03DE84AE153E49F
:102F20006091A1047091A2048091A3049091A404E3
:102F30000E94E01B905820E030E44CE155E40E94F0
:102F4000E41C6093A1047093A2048093A304909363
:102F5000A40419AB18AAE980FA8008A919A9E02AE3
:102F6000F12AB701FF0C880B990B0E948E1D21EDF1
:102F700032E240E353E40E94E11B20E030E44CE104
:102F800055E40E94E41C6093A5047093A60480930A
:102F9000A7049093A8040E94640B0E94640B6091A4
:102FA00053017091540180915501909156010E94F6
:102FB0005D1D6093490160914B0170914C018091BE
:102FC0004D0190914E0120E030E045E754E40E942D
:102FD000E01B0E945D1D60934A012AE939E949E43A
:102FE00050E46091850470918604809187049091EB
:102FF00088040E94E11B20E030E040E251E40E949E
:10300000E51E0E945D1D609347012AE939E949E404
:1030100050E46091890470918A0480918B049091AE
:103020008C040E94E11B20E030E040E251E40E9469
:10303000E51E0E945D1D6093460160918D047091B4
:103040008E0480918F04909190040E945D1D609386
:10305000480180915204811115C060E070E085E361
:1030600093E00E946A0760E070E080E593E00E94D0
:103070006A0760E070E08BE693E00E946A0760E018
:1030800070E082C06091280370912903072E000C24
:10309000880B990B0E948E1D23E333E343E35FE328
:1030A0000E94E51E0E94561D6B017C018091240345
:1030B000909125032091260330912703821B930BC7
:1030C0008C0D9D1D2091FE023091FF02829FB00168
:1030D000839F700D929F700D112485E393E00E94F1
:1030E0006A07809126039091270320912403309151
:1030F0002503919581959109821B930B8C199D094C
:103100002091000330910103829FB001839F700DD5
:10311000929F700D112480E593E00E946A078091D0
:103120002603909127032091240330912503919544
:1031300081959109821B930B8C0D9D1D209102039B
:1031400030910303829FB001839F700D929F700D99
:1031500011248BE693E00E946A07809124039091EA
:1031600025032091260330912703821B930B8C1992
:103170009D092091040330910503829FB001839F34
:10318000700D929F700D112486E893E00E946A07EB
:1031900080904B0190904C01A0904D01B0904E0159
:1031A00080915D04882309F4B2C08091520481119A
:1031B0000FC060E070E081EA93E00E946A0760E07F
:1031C00070E08CEB93E00E946A0760E070E09BC0C7
:1031D000C0908504D0908604E0908704F090880425
:1031E0004091890450918A0460918B0470918C0401
:1031F00082EF93E00E94900469837A838B839C839F
:10320000B701A60182E194E00E9490046B017C0169
:1032100060915704709158048091590490915A0418
:1032200020E030E0A9010E94D81E18160CF47BC0E3
:103230006091530470915404809155049091560408
:1032400020E030E0A9010E94D81E18160CF46BC0D3
:10325000C501B4010E94561D20912A03222309F4BE
:103260008AC070932C0360932B0310922A0360E0B2
:1032700070E01A861986072E000C880B990B0E94A5
:103280008E1D4B015C0129813A814B815C810E943A
:10329000E01B2B013C01A70196010E94E01B0E944C
:1032A000561D8CEB93E00E94B607A3019201C70163
:1032B000B6010E94E11B0E94561D81EA93E00E9424
:1032C000B60726E636E646EE5FE369817A818B81B2
:1032D0009C810E94E51EA50194010E94E11B0E94B1
:1032E000561D87ED93E00E94B60769857A858CEBC1
:1032F00093E00E946A0769857A8581EA93E00E94DB
:103300006A0769857A8587ED93E00E946A070E94C3
:10331000DE010C948E1021E030E03093FD0220930A
:10332000FC020C94BA1081E080932A03609153044C
:103330007091540480915504909156042091570443
:10334000309158044091590450915A0480903103AF
:1033500090903203A0903303B09034030E94E01B9E
:10336000A50194010E94E51E0E94561D7A87698777
:1033700060E070E080CF20912B0330912C03621B22
:10338000730B072E000C880B990B0E948E1DAB014E
:10339000BC0182E394E00E9490040E94561D69CF14
:1033A0008F929F92AF92BF92CF92DF92EF92FF9255
:1033B0000F931F93CF93DF93E7E4F2E0138212821F
:1033C00088EE93E0A0E0B0E084839583A683B78382
:1033D00022E231E03183208325EC30E035872487F9
:1033E00024EC30E03787268720EC30E0318B208BCF
:1033F00021EC30E0338B228B22EC30E0358B248BB8
:1034000026EC30E0378B268B118E128E138E148EA5
:10341000E4EEF2E01382128284839583A683B7835D
:1034200084E391E09183808386EA882E8BE9982E4D
:1034300084E4A82E8CE3B82E8092AD049092AE0462
:10344000A092AF04B092B00480E090EAA0E8B4E4A7
:103450008093810490938204A0938304B0938404A6
:10346000CEEFD2E08FEF9FEF998388839B838A838F
:1034700001E010E01D830C831F830E8319870887EA
:103480001B870A871D870C878CE0E6E0F1E0ACE043
:10349000B3E001900D928A95E1F78CE0E2E1F1E072
:1034A000A8E1B3E001900D928A95E1F780E090E009
:1034B000ACEFB2EC8FA798ABA9ABBAABC12CD12CB7
:1034C0009EEFE92E92E4F92ECBAADCAAEDAAFEAA81
:1034D00020E030E04FE750E062E87FEF85E393E0E3
:1034E0000E941E0A20E030E04FE750E062E87FEFE4
:1034F00080E593E00E941E0A20E030E04FE750E0B4
:1035000062E87FEF8BE693E00E941E0A20E030E045
:103510004FE750E062E87FEF86E893E00E941E0AE2
:103520002FE030E04FE750E062E87FEF81EA93E080
:103530000E941E0A2FE030E04FE750E062E87FEF84
:103540008CEB93E00E941E0A2FE030E04FE750E042
:1035500062E87FEF87ED93E00E941E0A40E050E0B2
:103560006AE773E44093F2035093F3036093F40328
:103570007093F5031092F6031092F7031092F8037C
:103580001092F9031092FA031092FB031092FC03BD
:103590001092FD038092FE039092FF03A09200041C
:1035A000B09201048DEC9CECACE4BDE3809302048A
:1035B00090930304A0930404B0930504C0920604FE
:1035C000D0920704E0920804F092090410920A04D1
:1035D00010920B0410920C0410920D0440931204EC
:1035E00050931304609314047093150410921604FE
:1035F00010921704109218041092190410921A04D1
:1036000010921B0410921C0410921D0480921E0440
:1036100090921F04A0922004B0922104809322046F
:1036200090932304A0932404B0932504C09226040D
:10363000D0922704E0922804F092290410922A04E0
:1036400010922B0410922C0410922D0480E090E034
:10365000A8E4B2E48093320490933304A09334043A
:10366000B093350410923604109237041092380447
:103670001092390410923A0410923B0410923C04C8
:1036800010923D0480923E0490923F04A092400428
:10369000B09241048DEC9CECACECBDE38093420411
:1036A00090934304A0934404B0934504C09246040D
:1036B000D0924704E0924804F092490410924A04E0
:1036C00010924B0410924C0410924D0410925D0421
:1036D000E0EFF2E0108211821282138214821582CE
:1036E0001682178211861086128613861587048724
:1036F000DF91CF911F910F91FF90EF90DF90CF90CE
:10370000BF90AF909F908F900895052E97FB1EF469
:1037100000940E949C1B57FD07D00E94AF1B07FC22
:1037200003D04EF40C949C1B5095409530952195F8
:103730003F4F4F4F5F4F08959095809570956195DD
:103740007F4F8F4F9F4F08950E94D11BA59F900DD3
:10375000B49F900DA49F800D911D11240895A1E2A6
:103760001A2EAA1BBB1BFD010DC0AA1FBB1FEE1FFB
:10377000FF1FA217B307E407F50720F0A21BB30B46
:10378000E40BF50B661F771F881F991F1A9469F7C2
:1037900060957095809590959B01AC01BD01CF011E
:1037A0000895A29FB001B39FC001A39F700D811D1A
:1037B0001124911DB29F700D811D1124911D08953A
:1037C0005058BB27AA270E94F81B0C948A1E0E94FF
:1037D000511E38F00E94581E20F039F49F3F19F412
:1037E00026F40C94131E0EF4E095E7FB0C940D1ECA
:1037F000E92F0E94AF1E58F3BA17620773078407B8
:10380000950720F079F4A6F50C94D11E0EF4E095FE
:103810000B2EBA2FA02D0B01B90190010C01CA018A
:10382000A0011124FF27591B99F0593F50F4503E35
:1038300068F11A16F040A22F232F342F4427585F27
:10384000F3CF469537952795A795F0405395C9F73F
:103850007EF41F16BA0B620B730B840BBAF09150F7
:10386000A1F0FF0FBB1F661F771F881FC2F70EC096
:10387000BA0F621F731F841F48F487957795679569
:10388000B795F7959E3F08F0B0CF9395880F08F055
:103890009927EE0F9795879508959F939F77EEE36D
:1038A00089379E0728F4EAE8F0E00E943D1E0CC02C
:1038B0000E94C91D9058A2EA2AED3FE049EC5FE35F
:1038C0000E94F81B0E948A1E0F9007FC90580895D2
:1038D0000E94511E60F080E891E009F49EEF0E9482
:1038E000581E28F040E851E071F45EEF0CC00C94D3
:1038F000131E0C94D11EE92FE0780E94AF1E40F3F6
:10390000092E052AB1F3261737074807590738F05B
:103910000E2E07F8E02569F0E025E0640AC0EF63A9
:1039200007F8009407FADB01B9019D01DC01CA0127
:10393000AD01EF930E94FB1C0E948A1E0E94AB1CEB
:103940005F91552339F02BED3FE049E450FD49EC00
:103950000C94E11B0895DF93DD27B92FBF7740E872
:103960005FE31616170648075B0718F4D92F0E9465
:10397000DD1E9F938F937F936F930E94A01FEEE9AC
:10398000F0E00E94161E0E948A1E2F913F914F91D7
:103990005F910E94F81EDD2351F09058A2EA2AEDB3
:1039A0003FE049EC5FE3D0785D270E94F81BDF9190
:1039B0000C948A1E0E94E91D08F481E008950E947B
:1039C000611EE3950C949B1E0E94F81C0C948A1EA9
:1039D0000E94581E58F00E94511E40F029F45F3F8B
:1039E00029F00C940D1E51110C94D21E0C94131E30
:1039F0000E94AF1E68F39923B1F3552391F3951BF1
:103A0000550BBB27AA2762177307840738F09F5FFF
:103A10005F4F220F331F441FAA1FA9F335D00E2E6C
:103A20003AF0E0E832D091505040E695001CCAF7D9
:103A30002BD0FE2F29D0660F771F881FBB1F26179C
:103A400037074807AB07B0E809F0BB0B802DBF0173
:103A5000FF2793585F4F3AF09E3F510578F00C9442
:103A60000D1E0C94D21E5F3FE4F3983ED4F386956E
:103A700077956795B795F7959F5FC9F7880F911D63
:103A80009695879597F90895E1E0660F771F881F4F
:103A9000BB1F621773078407BA0720F0621B730B02
:103AA000840BBA0BEE1F88F7E09508950E945D1D08
:103AB0006894B1110C94D21E08950E94B71E88F02C
:103AC0009F5798F0B92F9927B751B0F0E1F0660FE2
:103AD000771F881F991F1AF0BA95C9F714C0B13023
:103AE00091F00E94D11EB1E008950C94D11E672F71
:103AF000782F8827B85F39F0B93FCCF38695779552
:103B00006795B395D9F73EF490958095709561953A
:103B10007F4F8F4F9F4F0895E89409C097FB3EF465
:103B200090958095709561957F4F8F4F9F4F99230A
:103B3000A9F0F92F96E9BB279395F6958795779588
:103B40006795B795F111F8CFFAF4BB0F11F460FF48
:103B50001BC06F5F7F4F8F4F9F4F16C0882311F0A0
:103B600096E911C0772321F09EE8872F762F05C0B4
:103B7000662371F096E8862F70E060E02AF09A954F
:103B8000660F771F881FDAF7880F9695879597F944
:103B90000895DF93CF931F930F938B01EC01EBEC10
:103BA000F0E00E94161E0E948A1E9801AE018B0151
:103BB000EC0160E070E080E89FE30E94E01B0E945F
:103BC000601F9801AE010F911F91CF91DF910C946E
:103BD000F81E990F0008550FAA0BE0E8FEEF161625
:103BE0001706E807F907C0F012161306E407F507F1
:103BF00098F0621B730B840B950B39F40A2661F065
:103C0000232B242B252B21F408950A2609F4A14007
:103C1000A6958FEF811D811D089597F99F6780E814
:103C200070E060E008959FEF80EC0895DF93CF93FC
:103C30001F930F93FF92EF92DF927B018C016894A8
:103C400006C0DA2EEF010E94F81EFE01E894A5914D
:103C50002591359145915591A6F3EF010E94F81BEE
:103C6000FE019701A801DA9469F7DF90EF90FF90C9
:103C70000F911F91CF91DF9108959F938F937F9321
:103C80006F93FF93EF939B01AC010E94E51EEF91B0
:103C9000FF910E94161E2F913F914F915F910C94BE
:103CA000E51E00240A94161617061806090608953C
:103CB00000240A94121613061406050608950C949F
:103CC000131E0E94B71ED8F3E894E0E0BB279F576D
:103CD000F0F02AED3FE049EC06C0EE0FBB0F661F87
:103CE000771F881F28F0B23A62077307840728F00D
:103CF000B25A620B730B840BE3959A9572F7803876
:103D000030F49A95BB0F661F771F881FD2F7904833
:103D10000C94A61F092E0394000C11F4882352F072
:103D2000BB0F40F4BF2B11F460FF04C06F5F7F4FE7
:103D30008F4F9F4F0895EF93E0FF07C0A2EA2AED4F
:103D40003FE049EC5FEB0E94F81B0E948A1E0F9037
:103D5000039401FC9058E3EFF0E00C943D1E57FDF6
:103D60009058440F551F59F05F3F71F04795880FE9
:103D700097FB991F61F09F3F79F087950895121680
:103D800013061406551FF2CF4695F1DF08C016162C
:103D900017061806991FF1CF8695710561050894DD
:103DA0000895E894BB2766277727CB0197F90895F4
:103DB0000E94E91D08F48FEF08959B01AC0160E0BB
:103DC00070E080E89FE30C94E41C0E94F81E0C94C1
:103DD0008A1E0E94511E38F00E94581E20F0952322
:103DE00011F00C940D1E0C94131E11240C94D21E71
:103DF0000E94AF1E70F3959FC1F3950F50E0551FC1
:103E0000629FF001729FBB27F00DB11D639FAA272F
:103E1000F00DB11DAA1F649F6627B00DA11D661F7E
:103E2000829F2227B00DA11D621F739FB00DA11D9F
:103E3000621F839FA00D611D221F749F3327A00D59
:103E4000611D231F849F600D211D822F762F6A2FF5
:103E500011249F5750409AF0F1F088234AF0EE0F5A
:103E6000FF1FBB1F661F771F881F91505040A9F787
:103E70009E3F510580F00C940D1E0C94D21E5F3FA6
:103E8000E4F3983ED4F3869577956795B795F795C3
:103E9000E7959F5FC1F7FE2B880F911D969587953B
:103EA00097F908959F930E94611E0F9007FCEE5FA3
:103EB0000C949B1E19F416F40C94131E0C94A41F5E
:103EC0000E94B71EB8F39923C9F3B6F39F57550B59
:103ED00087FF0E94B21F0024A0E640EA90018058AC
:103EE0005695979528F4805C660F771F881F20F001
:103EF00026173707480730F4621B730B840B202901
:103F000031294A2BA69517940794202531254A2755
:103F100058F7660F771F881F20F0261737074807C6
:103F200030F4620B730B840B200D311D411DA095E5
:103F300081F7B901842F9158880F96958795089538
:103F40009B01AC010C94E51E9F3F31F0915020F491
:103F5000879577956795B795880F911D9695879565
:103F600097F9089591505040660F771F881FD2F738
:103F70000895DB018F939F930E94A41BBF91AF9183
:103F8000A29F800D911DA39F900DB29F900D1124B3
:103F90000895991B79E004C0991F961708F0961BA5
:103FA000881F7A95C9F78095089597FB072E16F418
:103FB000009407D077FD09D00E94C92107FC05D0E5
:103FC0003EF4909581959F4F0895709561957F4F30
:103FD0000895EE0FFF1F0590F491E02D09940E94C3
:103FE000D11B332312F48A1B9B0B0C94F91F0E94E4
:103FF000D11BB7FF0895821B930B0895DF93CF93D6
:104000001F930F939A9DF02D219FF00D8B9DF00D26
:104010008A9DE02DF10D039FF00D029FE00DF11D33
:104020004E9DE00DF11D5E9DF00D4F9DF00D7F93B7
:104030006F93BF92AF925F934F93D5010E94D11BB4
:104040008B01AC01D7010E94D11BEB01E80FF91FD6
:10405000D6010E944E202F913F91D6010E94D11B84
:10406000C60FD71FE81FF91FAF91BF910E944E20C6
:104070002F913F910E94D11BC60FD71FE81FF91F38
:10408000D6010E94D11BE60FF71F9801BE01CF0198
:1040900011240F911F91CF91DF9108950E94D11BA0
:1040A000460F571FC81FD91F08F43196089597FB74
:1040B00057FF0C9467209F938F930E9467206E1B7D
:1040C0007F0BAF91BF918A0B9B0B0895E894DF9310
:1040D000CF93FC01DB010E94D11B7F936F93E90119
:1040E0009A01AC01BF93AF933F932F93DF010E94DE
:1040F000D11B26F46C1B7D0B820B930B9E01EB01F5
:10410000FC010E944E20AF91BF912F913F910E94E0
:104110004E20BE01CF01F9012F913F91CF91DF9148
:104120000895689401C0E894F92FF12B12F00C94D3
:10413000C520A0E0B0E0EFE9F0E20C943721092EB1
:10414000059422F40E942121112392F4F0E80F2615
:10415000FFEFE094F09400951095B094C094D09443
:10416000A194BF0ACF0ADF0AEF0AFF0A0F0B1F0B49
:104170000E94D02007FC0E942121CDB7DEB7ECE0E1
:104180000C945321689401C0E8948F929F92CF932E
:10419000DF930E94D020DF91CF919F908F90089560
:1041A00088249924F401E401B0E49F93AA279A1586
:1041B0008B049C04ED05FE05CF05D007A10798F4FC
:1041C000AD2FDC2FCF2FFE2FE92D982C892E982F85
:1041D000872F762F652F542F432F322F2227B85049
:1041E00031F7BF9127C01B2EBF91BB27220F331F72
:1041F000441F551F661F771F881F991F881C991C15
:10420000EE1FFF1FCC1FDD1FAA1FBB1F8A149B04BC
:10421000EC05FD05CE05DF05A007B10748F08A18BB
:104220009B08EC09FD09CE09DF09A00BB10B216049
:104230001A94E1F62EF49401AF01BE01CD01000CF9
:10424000089560957095809590953095409550951E
:1042500021953F4F4F4F5F4F6F4F7F4F8F4F9F4F76
:1042600008952F923F924F925F926F927F928F921A
:104270009F92AF92BF92CF92DF92EF92FF920F93F5
:104280001F93CF93DF93CDB7DEB7CA1BDB0B0FB6FF
:10429000F894DEBF0FBECDBF09942A8839884888BC
:1042A0005F846E847D848C849B84AA84B984C88452
:1042B000DF80EE80FD800C811B81AA81B981CE0F49
:1042C000D11D0FB6F894DEBF0FBECDBFED0108952E
:1042D0000F93083090F0982F872F762F652F542F4B
:1042E000432F322F22270850F4CF220F331F441FB1
:1042F000551F661F771F881F991F0A95B2F70F91E8
:10430000089597FB10F8169400080F93083098F062
:104310000850232F342F452F562F672F782F892FA2
:10432000902DF4CF05949795879577956795579538
:104330004795379527950A95AAF70F9108952A0D65
:104340003B1D4C1D5D1D6E1D7F1D801F911F08951F
:104350000024A7FD00942A0F301D401D501D601D34
:10436000701D801D901D08952A193B094C095D0997
:104370006E097F09800B910B08950024A7FD00941E
:104380002A17300540055005600570058005900529
:104390000895AA1BBB1B51E107C0AA1FBB1FA6178C
:1043A000B70710F0A61BB70B881F991F5A95A9F7DE
:1043B00080959095BC01CD0108950F931F93CF93E5
:1043C000DF938230910510F482E090E0E091C40424
:1043D000F091C50420E030E0A0E0B0E0309719F1A2
:1043E000408151810281138148175907C8F0841711
:1043F000950769F4109731F012960C931297139663
:104400001C9327C00093C4041093C50422C0211537
:10441000310519F04217530718F49A01BD01EF0155
:10442000DF01F801DBCF21153105F9F0281B390B2D
:104430002430310580F48A819B816115710521F05A
:10444000FB019383828304C09093C5048093C404CA
:10445000FE01329644C0FE01E20FF31F8193919357
:1044600022503109398328833AC02091C204309107
:10447000C304232B41F420910201309103013093B6
:10448000C3042093C2042091000130910101211541
:10449000310541F42DB73EB740910401509105011B
:1044A000241B350BE091C204F091C304E217F3071B
:1044B000A0F42E1B3F0B2817390778F0AC014E5F94
:1044C0005F4F2417350748F04E0F5F1F5093C3040A
:1044D0004093C2048193919302C0E0E0F0E0CF01E9
:1044E000DF91CF911F910F910895CF93DF930097A4
:1044F00009F481C0FC01329713821282A091C40496
:10450000B091C504109781F420813181820F931FEF
:104510002091C2043091C3042817390751F5F09354
:10452000C304E093C20467C0ED0120E030E0CE1781
:10453000DF0740F44A815B819E0141155105F1F08E
:10454000EA01F5CFD383C28340815181840F951F47
:10455000C817D90759F488819981840F951F02964D
:10456000918380838A819B81938382832115310586
:1045700029F4F093C504E093C4043DC0E901FB8332
:10458000EA8349915991C40FD51FEC17FD0761F4D7
:1045900080819181840F951F0296E9019983888318
:1045A000828193819B838A83E0E0F0E012968D9173
:1045B0009C911397009719F0FD01DC01F7CF8D91C5
:1045C0009C9111979D012E5F3F4F820F931F209169
:1045D000C2043091C3042817390769F4309729F4CD
:1045E0001092C5041092C40402C013821282B093C8
:1045F000C304A093C204DF91CF91089581E090E0BD
:0A460000F8940C940323F894FFCF04
:10460A000000C60480000000A041000048420000EB
:10461A00C8420000C841000048420000C8420000E9
:10462A0000006F01DC000601BC01370115012901F8
:10463A000000000075024802A5021C0240022C027A
:02464A001D024F
:00000001FF
